{
	"Benz-Swap/feeds/PriceApi.sol": {
		"priceFeed": {
			"abi": [
				{
					"inputs": [
						{
							"internalType": "contract ISupraSValueFeed",
							"name": "_sValueFeed",
							"type": "address"
						}
					],
					"stateMutability": "nonpayable",
					"type": "constructor"
				},
				{
					"inputs": [],
					"name": "decimals",
					"outputs": [
						{
							"internalType": "uint256",
							"name": "",
							"type": "uint256"
						}
					],
					"stateMutability": "view",
					"type": "function"
				},
				{
					"inputs": [
						{
							"internalType": "uint64",
							"name": "baseIndex",
							"type": "uint64"
						},
						{
							"internalType": "uint64",
							"name": "quoteIndex",
							"type": "uint64"
						}
					],
					"name": "getExchangeRate",
					"outputs": [
						{
							"internalType": "int256",
							"name": "",
							"type": "int256"
						}
					],
					"stateMutability": "view",
					"type": "function"
				},
				{
					"inputs": [],
					"name": "getRounds",
					"outputs": [
						{
							"internalType": "uint256",
							"name": "",
							"type": "uint256"
						}
					],
					"stateMutability": "nonpayable",
					"type": "function"
				},
				{
					"inputs": [],
					"name": "price",
					"outputs": [
						{
							"internalType": "uint256",
							"name": "",
							"type": "uint256"
						}
					],
					"stateMutability": "view",
					"type": "function"
				},
				{
					"inputs": [],
					"name": "rounds",
					"outputs": [
						{
							"internalType": "uint256",
							"name": "",
							"type": "uint256"
						}
					],
					"stateMutability": "view",
					"type": "function"
				}
			],
			"devdoc": {
				"kind": "dev",
				"methods": {},
				"version": 1
			},
			"evm": {
				"assembly": "    /* \"Benz-Swap/feeds/PriceApi.sol\":308:3737  contract priceFeed {... */\n  mstore(0x40, 0x80)\n    /* \"Benz-Swap/feeds/PriceApi.sol\":432:433  8 */\n  0x08\n    /* \"Benz-Swap/feeds/PriceApi.sol\":417:433  uint8 _decimal=8 */\n  0x03\n  exp(0x0100, 0x00)\n  dup2\n  sload\n  dup2\n  0xff\n  mul\n  not\n  and\n  swap1\n  dup4\n  0xff\n  and\n  mul\n  or\n  swap1\n  sstore\n  pop\n    /* \"Benz-Swap/feeds/PriceApi.sol\":484:601  constructor(ISupraSValueFeed _sValueFeed){... */\n  callvalue\n  dup1\n  iszero\n  tag_1\n  jumpi\n  0x00\n  dup1\n  revert\ntag_1:\n  pop\n  mload(0x40)\n  sub(codesize, bytecodeSize)\n  dup1\n  bytecodeSize\n  dup4\n  codecopy\n  dup2\n  dup2\n  add\n  0x40\n  mstore\n  dup2\n  add\n  swap1\n  tag_2\n  swap2\n  swap1\n  tag_3\n  jump\t// in\ntag_2:\n    /* \"Benz-Swap/feeds/PriceApi.sol\":565:576  _sValueFeed */\n  dup1\n    /* \"Benz-Swap/feeds/PriceApi.sol\":535:545  sValueFeed */\n  0x03\n  0x01\n    /* \"Benz-Swap/feeds/PriceApi.sol\":535:577  sValueFeed = ISupraSValueFeed(_sValueFeed) */\n  0x0100\n  exp\n  dup2\n  sload\n  dup2\n  0xffffffffffffffffffffffffffffffffffffffff\n  mul\n  not\n  and\n  swap1\n  dup4\n  0xffffffffffffffffffffffffffffffffffffffff\n  and\n  mul\n  or\n  swap1\n  sstore\n  pop\n    /* \"Benz-Swap/feeds/PriceApi.sol\":484:601  constructor(ISupraSValueFeed _sValueFeed){... */\n  pop\n    /* \"Benz-Swap/feeds/PriceApi.sol\":308:3737  contract priceFeed {... */\n  jump(tag_6)\n    /* \"#utility.yul\":88:205   */\ntag_8:\n    /* \"#utility.yul\":197:198   */\n  0x00\n    /* \"#utility.yul\":194:195   */\n  dup1\n    /* \"#utility.yul\":187:199   */\n  revert\n    /* \"#utility.yul\":334:460   */\ntag_10:\n    /* \"#utility.yul\":371:378   */\n  0x00\n    /* \"#utility.yul\":411:453   */\n  0xffffffffffffffffffffffffffffffffffffffff\n    /* \"#utility.yul\":404:409   */\n  dup3\n    /* \"#utility.yul\":400:454   */\n  and\n    /* \"#utility.yul\":389:454   */\n  swap1\n  pop\n    /* \"#utility.yul\":334:460   */\n  swap2\n  swap1\n  pop\n  jump\t// out\n    /* \"#utility.yul\":466:562   */\ntag_11:\n    /* \"#utility.yul\":503:510   */\n  0x00\n    /* \"#utility.yul\":532:556   */\n  tag_21\n    /* \"#utility.yul\":550:555   */\n  dup3\n    /* \"#utility.yul\":532:556   */\n  tag_10\n  jump\t// in\ntag_21:\n    /* \"#utility.yul\":521:556   */\n  swap1\n  pop\n    /* \"#utility.yul\":466:562   */\n  swap2\n  swap1\n  pop\n  jump\t// out\n    /* \"#utility.yul\":568:688   */\ntag_12:\n    /* \"#utility.yul\":629:636   */\n  0x00\n    /* \"#utility.yul\":658:682   */\n  tag_23\n    /* \"#utility.yul\":676:681   */\n  dup3\n    /* \"#utility.yul\":658:682   */\n  tag_11\n  jump\t// in\ntag_23:\n    /* \"#utility.yul\":647:682   */\n  swap1\n  pop\n    /* \"#utility.yul\":568:688   */\n  swap2\n  swap1\n  pop\n  jump\t// out\n    /* \"#utility.yul\":694:864   */\ntag_13:\n    /* \"#utility.yul\":791:839   */\n  tag_25\n    /* \"#utility.yul\":833:838   */\n  dup2\n    /* \"#utility.yul\":791:839   */\n  tag_12\n  jump\t// in\ntag_25:\n    /* \"#utility.yul\":784:789   */\n  dup2\n    /* \"#utility.yul\":781:840   */\n  eq\n    /* \"#utility.yul\":771:858   */\n  tag_26\n  jumpi\n    /* \"#utility.yul\":854:855   */\n  0x00\n    /* \"#utility.yul\":851:852   */\n  dup1\n    /* \"#utility.yul\":844:856   */\n  revert\n    /* \"#utility.yul\":771:858   */\ntag_26:\n    /* \"#utility.yul\":694:864   */\n  pop\n  jump\t// out\n    /* \"#utility.yul\":870:1061   */\ntag_14:\n    /* \"#utility.yul\":951:956   */\n  0x00\n    /* \"#utility.yul\":982:988   */\n  dup2\n    /* \"#utility.yul\":976:989   */\n  mload\n    /* \"#utility.yul\":967:989   */\n  swap1\n  pop\n    /* \"#utility.yul\":998:1055   */\n  tag_28\n    /* \"#utility.yul\":1049:1054   */\n  dup2\n    /* \"#utility.yul\":998:1055   */\n  tag_13\n  jump\t// in\ntag_28:\n    /* \"#utility.yul\":870:1061   */\n  swap3\n  swap2\n  pop\n  pop\n  jump\t// out\n    /* \"#utility.yul\":1067:1466   */\ntag_3:\n    /* \"#utility.yul\":1161:1167   */\n  0x00\n    /* \"#utility.yul\":1210:1212   */\n  0x20\n    /* \"#utility.yul\":1198:1207   */\n  dup3\n    /* \"#utility.yul\":1189:1196   */\n  dup5\n    /* \"#utility.yul\":1185:1208   */\n  sub\n    /* \"#utility.yul\":1181:1213   */\n  slt\n    /* \"#utility.yul\":1178:1297   */\n  iszero\n  tag_30\n  jumpi\n    /* \"#utility.yul\":1216:1295   */\n  tag_31\n  tag_8\n  jump\t// in\ntag_31:\n    /* \"#utility.yul\":1178:1297   */\ntag_30:\n    /* \"#utility.yul\":1336:1337   */\n  0x00\n    /* \"#utility.yul\":1361:1449   */\n  tag_32\n    /* \"#utility.yul\":1441:1448   */\n  dup5\n    /* \"#utility.yul\":1432:1438   */\n  dup3\n    /* \"#utility.yul\":1421:1430   */\n  dup6\n    /* \"#utility.yul\":1417:1439   */\n  add\n    /* \"#utility.yul\":1361:1449   */\n  tag_14\n  jump\t// in\ntag_32:\n    /* \"#utility.yul\":1351:1449   */\n  swap2\n  pop\n    /* \"#utility.yul\":1307:1459   */\n  pop\n    /* \"#utility.yul\":1067:1466   */\n  swap3\n  swap2\n  pop\n  pop\n  jump\t// out\n    /* \"Benz-Swap/feeds/PriceApi.sol\":308:3737  contract priceFeed {... */\ntag_6:\n  dataSize(sub_0)\n  dup1\n  dataOffset(sub_0)\n  0x00\n  codecopy\n  0x00\n  return\nstop\n\nsub_0: assembly {\n        /* \"Benz-Swap/feeds/PriceApi.sol\":308:3737  contract priceFeed {... */\n      mstore(0x40, 0x80)\n      callvalue\n      dup1\n      iszero\n      tag_1\n      jumpi\n      0x00\n      dup1\n      revert\n    tag_1:\n      pop\n      jumpi(tag_2, lt(calldatasize, 0x04))\n      shr(0xe0, calldataload(0x00))\n      dup1\n      0x313ce567\n      eq\n      tag_3\n      jumpi\n      dup1\n      0x3552f434\n      eq\n      tag_4\n      jumpi\n      dup1\n      0x6984d070\n      eq\n      tag_5\n      jumpi\n      dup1\n      0xa035b1fe\n      eq\n      tag_6\n      jumpi\n      dup1\n      0xa2e800ad\n      eq\n      tag_7\n      jumpi\n    tag_2:\n      0x00\n      dup1\n      revert\n        /* \"Benz-Swap/feeds/PriceApi.sol\":361:381  uint public decimals */\n    tag_3:\n      tag_8\n      tag_9\n      jump\t// in\n    tag_8:\n      mload(0x40)\n      tag_10\n      swap2\n      swap1\n      tag_11\n      jump\t// in\n    tag_10:\n      mload(0x40)\n      dup1\n      swap2\n      sub\n      swap1\n      return\n        /* \"Benz-Swap/feeds/PriceApi.sol\":1934:2957  function getExchangeRate(uint64 baseIndex, uint64 quoteIndex)... */\n    tag_4:\n      tag_12\n      0x04\n      dup1\n      calldatasize\n      sub\n      dup2\n      add\n      swap1\n      tag_13\n      swap2\n      swap1\n      tag_14\n      jump\t// in\n    tag_13:\n      tag_15\n      jump\t// in\n    tag_12:\n      mload(0x40)\n      tag_16\n      swap2\n      swap1\n      tag_17\n      jump\t// in\n    tag_16:\n      mload(0x40)\n      dup1\n      swap2\n      sub\n      swap1\n      return\n        /* \"Benz-Swap/feeds/PriceApi.sol\":3452:3719  function getRounds() external returns (uint) {... */\n    tag_5:\n      tag_18\n      tag_19\n      jump\t// in\n    tag_18:\n      mload(0x40)\n      tag_20\n      swap2\n      swap1\n      tag_11\n      jump\t// in\n    tag_20:\n      mload(0x40)\n      dup1\n      swap2\n      sub\n      swap1\n      return\n        /* \"Benz-Swap/feeds/PriceApi.sol\":338:355  uint public price */\n    tag_6:\n      tag_21\n      tag_22\n      jump\t// in\n    tag_21:\n      mload(0x40)\n      tag_23\n      swap2\n      swap1\n      tag_11\n      jump\t// in\n    tag_23:\n      mload(0x40)\n      dup1\n      swap2\n      sub\n      swap1\n      return\n        /* \"Benz-Swap/feeds/PriceApi.sol\":387:405  uint public rounds */\n    tag_7:\n      tag_24\n      tag_25\n      jump\t// in\n    tag_24:\n      mload(0x40)\n      tag_26\n      swap2\n      swap1\n      tag_11\n      jump\t// in\n    tag_26:\n      mload(0x40)\n      dup1\n      swap2\n      sub\n      swap1\n      return\n        /* \"Benz-Swap/feeds/PriceApi.sol\":361:381  uint public decimals */\n    tag_9:\n      sload(0x01)\n      dup2\n      jump\t// out\n        /* \"Benz-Swap/feeds/PriceApi.sol\":1934:2957  function getExchangeRate(uint64 baseIndex, uint64 quoteIndex)... */\n    tag_15:\n        /* \"Benz-Swap/feeds/PriceApi.sol\":2043:2049  int256 */\n      0x00\n        /* \"Benz-Swap/feeds/PriceApi.sol\":2142:2143  0 */\n      dup1\n        /* \"Benz-Swap/feeds/PriceApi.sol\":2125:2144  _decimal > uint8(0) */\n      0xff\n      and\n        /* \"Benz-Swap/feeds/PriceApi.sol\":2125:2133  _decimal */\n      0x03\n      0x00\n      swap1\n      sload\n      swap1\n      0x0100\n      exp\n      swap1\n      div\n      0xff\n      and\n        /* \"Benz-Swap/feeds/PriceApi.sol\":2125:2144  _decimal > uint8(0) */\n      0xff\n      and\n      gt\n        /* \"Benz-Swap/feeds/PriceApi.sol\":2125:2169  _decimal > uint8(0) && _decimal <= uint8(18) */\n      dup1\n      iszero\n      tag_28\n      jumpi\n      pop\n        /* \"Benz-Swap/feeds/PriceApi.sol\":2166:2168  18 */\n      0x12\n        /* \"Benz-Swap/feeds/PriceApi.sol\":2148:2169  _decimal <= uint8(18) */\n      0xff\n      and\n        /* \"Benz-Swap/feeds/PriceApi.sol\":2148:2156  _decimal */\n      0x03\n      0x00\n      swap1\n      sload\n      swap1\n      0x0100\n      exp\n      swap1\n      div\n      0xff\n      and\n        /* \"Benz-Swap/feeds/PriceApi.sol\":2148:2169  _decimal <= uint8(18) */\n      0xff\n      and\n      gt\n      iszero\n        /* \"Benz-Swap/feeds/PriceApi.sol\":2125:2169  _decimal > uint8(0) && _decimal <= uint8(18) */\n    tag_28:\n        /* \"Benz-Swap/feeds/PriceApi.sol\":2117:2194  require(_decimal > uint8(0) && _decimal <= uint8(18), \"Unsupported Decimals\") */\n      tag_29\n      jumpi\n      mload(0x40)\n      0x08c379a000000000000000000000000000000000000000000000000000000000\n      dup2\n      mstore\n      0x04\n      add\n      tag_30\n      swap1\n      tag_31\n      jump\t// in\n    tag_30:\n      mload(0x40)\n      dup1\n      swap2\n      sub\n      swap1\n      revert\n    tag_29:\n        /* \"Benz-Swap/feeds/PriceApi.sol\":2205:2222  uint256 _decimals */\n      0x00\n        /* \"Benz-Swap/feeds/PriceApi.sol\":2229:2237  _decimal */\n      0x03\n      0x00\n      swap1\n      sload\n      swap1\n      0x0100\n      exp\n      swap1\n      div\n      0xff\n      and\n        /* \"Benz-Swap/feeds/PriceApi.sol\":2225:2227  10 */\n      0x0a\n        /* \"Benz-Swap/feeds/PriceApi.sol\":2225:2237  10**_decimal */\n      tag_32\n      swap2\n      swap1\n      tag_33\n      jump\t// in\n    tag_32:\n        /* \"Benz-Swap/feeds/PriceApi.sol\":2205:2237  uint256 _decimals = 10**_decimal */\n      swap1\n      pop\n        /* \"Benz-Swap/feeds/PriceApi.sol\":2310:2327  uint256 basePrice */\n      0x00\n        /* \"Benz-Swap/feeds/PriceApi.sol\":2330:2349  getPrice(baseIndex) */\n      tag_34\n        /* \"Benz-Swap/feeds/PriceApi.sol\":2339:2348  baseIndex */\n      dup6\n        /* \"Benz-Swap/feeds/PriceApi.sol\":2330:2338  getPrice */\n      tag_35\n        /* \"Benz-Swap/feeds/PriceApi.sol\":2330:2349  getPrice(baseIndex) */\n      jump\t// in\n    tag_34:\n        /* \"Benz-Swap/feeds/PriceApi.sol\":2310:2349  uint256 basePrice = getPrice(baseIndex) */\n      swap1\n      pop\n        /* \"Benz-Swap/feeds/PriceApi.sol\":2399:2419  uint256 baseDecimals */\n      0x00\n        /* \"Benz-Swap/feeds/PriceApi.sol\":2422:2444  getDecimals(baseIndex) */\n      tag_36\n        /* \"Benz-Swap/feeds/PriceApi.sol\":2434:2443  baseIndex */\n      dup7\n        /* \"Benz-Swap/feeds/PriceApi.sol\":2422:2433  getDecimals */\n      tag_37\n        /* \"Benz-Swap/feeds/PriceApi.sol\":2422:2444  getDecimals(baseIndex) */\n      jump\t// in\n    tag_36:\n        /* \"Benz-Swap/feeds/PriceApi.sol\":2399:2444  uint256 baseDecimals = getDecimals(baseIndex) */\n      swap1\n      pop\n        /* \"Benz-Swap/feeds/PriceApi.sol\":2491:2508  int256 _basePrice */\n      0x00\n        /* \"Benz-Swap/feeds/PriceApi.sol\":2510:2555  scalePrice(basePrice, baseDecimals, _decimal) */\n      tag_38\n        /* \"Benz-Swap/feeds/PriceApi.sol\":2521:2530  basePrice */\n      dup4\n        /* \"Benz-Swap/feeds/PriceApi.sol\":2532:2544  baseDecimals */\n      dup4\n        /* \"Benz-Swap/feeds/PriceApi.sol\":2546:2554  _decimal */\n      0x03\n      0x00\n      swap1\n      sload\n      swap1\n      0x0100\n      exp\n      swap1\n      div\n      0xff\n      and\n        /* \"Benz-Swap/feeds/PriceApi.sol\":2510:2555  scalePrice(basePrice, baseDecimals, _decimal) */\n      0xff\n      and\n        /* \"Benz-Swap/feeds/PriceApi.sol\":2510:2520  scalePrice */\n      tag_39\n        /* \"Benz-Swap/feeds/PriceApi.sol\":2510:2555  scalePrice(basePrice, baseDecimals, _decimal) */\n      jump\t// in\n    tag_38:\n        /* \"Benz-Swap/feeds/PriceApi.sol\":2491:2555  int256 _basePrice= scalePrice(basePrice, baseDecimals, _decimal) */\n      swap1\n      pop\n        /* \"Benz-Swap/feeds/PriceApi.sol\":2629:2647  uint256 quotePrice */\n      0x00\n        /* \"Benz-Swap/feeds/PriceApi.sol\":2651:2671  getPrice(quoteIndex) */\n      tag_40\n        /* \"Benz-Swap/feeds/PriceApi.sol\":2660:2670  quoteIndex */\n      dup8\n        /* \"Benz-Swap/feeds/PriceApi.sol\":2651:2659  getPrice */\n      tag_35\n        /* \"Benz-Swap/feeds/PriceApi.sol\":2651:2671  getPrice(quoteIndex) */\n      jump\t// in\n    tag_40:\n        /* \"Benz-Swap/feeds/PriceApi.sol\":2629:2671  uint256 quotePrice =  getPrice(quoteIndex) */\n      swap1\n      pop\n        /* \"Benz-Swap/feeds/PriceApi.sol\":2722:2743  uint256 quoteDecimals */\n      0x00\n        /* \"Benz-Swap/feeds/PriceApi.sol\":2747:2770  getDecimals(quoteIndex) */\n      tag_41\n        /* \"Benz-Swap/feeds/PriceApi.sol\":2759:2769  quoteIndex */\n      dup9\n        /* \"Benz-Swap/feeds/PriceApi.sol\":2747:2758  getDecimals */\n      tag_37\n        /* \"Benz-Swap/feeds/PriceApi.sol\":2747:2770  getDecimals(quoteIndex) */\n      jump\t// in\n    tag_41:\n        /* \"Benz-Swap/feeds/PriceApi.sol\":2722:2770  uint256 quoteDecimals =  getDecimals(quoteIndex) */\n      swap1\n      pop\n        /* \"Benz-Swap/feeds/PriceApi.sol\":2818:2836  int256 _quotePrice */\n      0x00\n        /* \"Benz-Swap/feeds/PriceApi.sol\":2839:2886  scalePrice(quotePrice, quoteDecimals, _decimal) */\n      tag_42\n        /* \"Benz-Swap/feeds/PriceApi.sol\":2850:2860  quotePrice */\n      dup4\n        /* \"Benz-Swap/feeds/PriceApi.sol\":2862:2875  quoteDecimals */\n      dup4\n        /* \"Benz-Swap/feeds/PriceApi.sol\":2877:2885  _decimal */\n      0x03\n      0x00\n      swap1\n      sload\n      swap1\n      0x0100\n      exp\n      swap1\n      div\n      0xff\n      and\n        /* \"Benz-Swap/feeds/PriceApi.sol\":2839:2886  scalePrice(quotePrice, quoteDecimals, _decimal) */\n      0xff\n      and\n        /* \"Benz-Swap/feeds/PriceApi.sol\":2839:2849  scalePrice */\n      tag_39\n        /* \"Benz-Swap/feeds/PriceApi.sol\":2839:2886  scalePrice(quotePrice, quoteDecimals, _decimal) */\n      jump\t// in\n    tag_42:\n        /* \"Benz-Swap/feeds/PriceApi.sol\":2818:2886  int256 _quotePrice = scalePrice(quotePrice, quoteDecimals, _decimal) */\n      swap1\n      pop\n        /* \"Benz-Swap/feeds/PriceApi.sol\":2939:2950  _quotePrice */\n      dup1\n        /* \"Benz-Swap/feeds/PriceApi.sol\":2925:2934  _decimals */\n      dup8\n        /* \"Benz-Swap/feeds/PriceApi.sol\":2905:2915  _basePrice */\n      dup6\n        /* \"Benz-Swap/feeds/PriceApi.sol\":2905:2935  _basePrice * int256(_decimals) */\n      tag_43\n      swap2\n      swap1\n      tag_44\n      jump\t// in\n    tag_43:\n        /* \"Benz-Swap/feeds/PriceApi.sol\":2904:2950  (_basePrice * int256(_decimals)) / _quotePrice */\n      tag_45\n      swap2\n      swap1\n      tag_46\n      jump\t// in\n    tag_45:\n        /* \"Benz-Swap/feeds/PriceApi.sol\":2897:2950  return (_basePrice * int256(_decimals)) / _quotePrice */\n      swap8\n      pop\n      pop\n      pop\n      pop\n      pop\n      pop\n      pop\n      pop\n        /* \"Benz-Swap/feeds/PriceApi.sol\":1934:2957  function getExchangeRate(uint64 baseIndex, uint64 quoteIndex)... */\n      swap3\n      swap2\n      pop\n      pop\n      jump\t// out\n        /* \"Benz-Swap/feeds/PriceApi.sol\":3452:3719  function getRounds() external returns (uint) {... */\n    tag_19:\n        /* \"Benz-Swap/feeds/PriceApi.sol\":3491:3495  uint */\n      0x00\n        /* \"Benz-Swap/feeds/PriceApi.sol\":3507:3518  bytes32 val */\n      dup1\n        /* \"Benz-Swap/feeds/PriceApi.sol\":3522:3532  sValueFeed */\n      0x03\n      0x01\n      swap1\n      sload\n      swap1\n      0x0100\n      exp\n      swap1\n      div\n      0xffffffffffffffffffffffffffffffffffffffff\n      and\n        /* \"Benz-Swap/feeds/PriceApi.sol\":3522:3542  sValueFeed.getSvalue */\n      0xffffffffffffffffffffffffffffffffffffffff\n      and\n      0x98f93a96\n        /* \"Benz-Swap/feeds/PriceApi.sol\":3543:3544  1 */\n      0x01\n        /* \"Benz-Swap/feeds/PriceApi.sol\":3522:3545  sValueFeed.getSvalue(1) */\n      mload(0x40)\n      dup3\n      0xffffffff\n      and\n      0xe0\n      shl\n      dup2\n      mstore\n      0x04\n      add\n      tag_48\n      swap2\n      swap1\n      tag_49\n      jump\t// in\n    tag_48:\n      0x40\n      dup1\n      mload\n      dup1\n      dup4\n      sub\n      dup2\n      dup7\n      gas\n      staticcall\n      iszero\n      dup1\n      iszero\n      tag_51\n      jumpi\n      returndatasize\n      0x00\n      dup1\n      returndatacopy\n      revert(0x00, returndatasize)\n    tag_51:\n      pop\n      pop\n      pop\n      pop\n      mload(0x40)\n      returndatasize\n      not(0x1f)\n      0x1f\n      dup3\n      add\n      and\n      dup3\n      add\n      dup1\n      0x40\n      mstore\n      pop\n      dup2\n      add\n      swap1\n      tag_52\n      swap2\n      swap1\n      tag_53\n      jump\t// in\n    tag_52:\n        /* \"Benz-Swap/feeds/PriceApi.sol\":3506:3545  (bytes32 val,)= sValueFeed.getSvalue(1) */\n      pop\n      swap1\n      pop\n        /* \"Benz-Swap/feeds/PriceApi.sol\":3584:3609  uint256[4] memory decoded */\n      0x00\n        /* \"Benz-Swap/feeds/PriceApi.sol\":3612:3623  unpack(val) */\n      tag_54\n        /* \"Benz-Swap/feeds/PriceApi.sol\":3619:3622  val */\n      dup3\n        /* \"Benz-Swap/feeds/PriceApi.sol\":3612:3618  unpack */\n      tag_55\n        /* \"Benz-Swap/feeds/PriceApi.sol\":3612:3623  unpack(val) */\n      jump\t// in\n    tag_54:\n        /* \"Benz-Swap/feeds/PriceApi.sol\":3584:3623  uint256[4] memory decoded = unpack(val) */\n      swap1\n      pop\n        /* \"Benz-Swap/feeds/PriceApi.sol\":3633:3645  uint _rounds */\n      0x00\n        /* \"Benz-Swap/feeds/PriceApi.sol\":3648:3655  decoded */\n      dup2\n        /* \"Benz-Swap/feeds/PriceApi.sol\":3656:3657  0 */\n      0x00\n        /* \"Benz-Swap/feeds/PriceApi.sol\":3648:3658  decoded[0] */\n      0x04\n      dup2\n      lt\n      tag_56\n      jumpi\n      tag_57\n      tag_58\n      jump\t// in\n    tag_57:\n    tag_56:\n      0x20\n      mul\n      add\n      mload\n        /* \"Benz-Swap/feeds/PriceApi.sol\":3633:3658  uint _rounds = decoded[0] */\n      swap1\n      pop\n        /* \"Benz-Swap/feeds/PriceApi.sol\":3676:3683  _rounds */\n      dup1\n        /* \"Benz-Swap/feeds/PriceApi.sol\":3668:3674  rounds */\n      0x02\n        /* \"Benz-Swap/feeds/PriceApi.sol\":3668:3683  rounds= _rounds */\n      dup2\n      swap1\n      sstore\n      pop\n        /* \"Benz-Swap/feeds/PriceApi.sol\":3700:3706  rounds */\n      sload(0x02)\n        /* \"Benz-Swap/feeds/PriceApi.sol\":3693:3706  return rounds */\n      swap4\n      pop\n      pop\n      pop\n      pop\n        /* \"Benz-Swap/feeds/PriceApi.sol\":3452:3719  function getRounds() external returns (uint) {... */\n      swap1\n      jump\t// out\n        /* \"Benz-Swap/feeds/PriceApi.sol\":338:355  uint public price */\n    tag_22:\n      sload(0x00)\n      dup2\n      jump\t// out\n        /* \"Benz-Swap/feeds/PriceApi.sol\":387:405  uint public rounds */\n    tag_25:\n      sload(0x02)\n      dup2\n      jump\t// out\n        /* \"Benz-Swap/feeds/PriceApi.sol\":1308:1646  function getPrice(uint64 _index) internal view returns(uint256)   {... */\n    tag_35:\n        /* \"Benz-Swap/feeds/PriceApi.sol\":1363:1370  uint256 */\n      0x00\n        /* \"Benz-Swap/feeds/PriceApi.sol\":1420:1431  bytes32 val */\n      dup1\n        /* \"Benz-Swap/feeds/PriceApi.sol\":1435:1445  sValueFeed */\n      0x03\n      0x01\n      swap1\n      sload\n      swap1\n      0x0100\n      exp\n      swap1\n      div\n      0xffffffffffffffffffffffffffffffffffffffff\n      and\n        /* \"Benz-Swap/feeds/PriceApi.sol\":1435:1455  sValueFeed.getSvalue */\n      0xffffffffffffffffffffffffffffffffffffffff\n      and\n      0x98f93a96\n        /* \"Benz-Swap/feeds/PriceApi.sol\":1456:1462  _index */\n      dup5\n        /* \"Benz-Swap/feeds/PriceApi.sol\":1435:1463  sValueFeed.getSvalue(_index) */\n      mload(0x40)\n      dup3\n      0xffffffff\n      and\n      0xe0\n      shl\n      dup2\n      mstore\n      0x04\n      add\n      tag_60\n      swap2\n      swap1\n      tag_61\n      jump\t// in\n    tag_60:\n      0x40\n      dup1\n      mload\n      dup1\n      dup4\n      sub\n      dup2\n      dup7\n      gas\n      staticcall\n      iszero\n      dup1\n      iszero\n      tag_63\n      jumpi\n      returndatasize\n      0x00\n      dup1\n      returndatacopy\n      revert(0x00, returndatasize)\n    tag_63:\n      pop\n      pop\n      pop\n      pop\n      mload(0x40)\n      returndatasize\n      not(0x1f)\n      0x1f\n      dup3\n      add\n      and\n      dup3\n      add\n      dup1\n      0x40\n      mstore\n      pop\n      dup2\n      add\n      swap1\n      tag_64\n      swap2\n      swap1\n      tag_53\n      jump\t// in\n    tag_64:\n        /* \"Benz-Swap/feeds/PriceApi.sol\":1419:1463  (bytes32 val,)= sValueFeed.getSvalue(_index) */\n      pop\n      swap1\n      pop\n        /* \"Benz-Swap/feeds/PriceApi.sol\":1480:1505  uint256[4] memory decoded */\n      0x00\n        /* \"Benz-Swap/feeds/PriceApi.sol\":1508:1519  unpack(val) */\n      tag_65\n        /* \"Benz-Swap/feeds/PriceApi.sol\":1515:1518  val */\n      dup3\n        /* \"Benz-Swap/feeds/PriceApi.sol\":1508:1514  unpack */\n      tag_55\n        /* \"Benz-Swap/feeds/PriceApi.sol\":1508:1519  unpack(val) */\n      jump\t// in\n    tag_65:\n        /* \"Benz-Swap/feeds/PriceApi.sol\":1480:1519  uint256[4] memory decoded = unpack(val) */\n      swap1\n      pop\n        /* \"Benz-Swap/feeds/PriceApi.sol\":1587:1597  uint Price */\n      0x00\n        /* \"Benz-Swap/feeds/PriceApi.sol\":1600:1607  decoded */\n      dup2\n        /* \"Benz-Swap/feeds/PriceApi.sol\":1608:1609  3 */\n      0x03\n        /* \"Benz-Swap/feeds/PriceApi.sol\":1600:1610  decoded[3] */\n      0x04\n      dup2\n      lt\n      tag_66\n      jumpi\n      tag_67\n      tag_58\n      jump\t// in\n    tag_67:\n    tag_66:\n      0x20\n      mul\n      add\n      mload\n        /* \"Benz-Swap/feeds/PriceApi.sol\":1587:1610  uint Price = decoded[3] */\n      swap1\n      pop\n        /* \"Benz-Swap/feeds/PriceApi.sol\":1635:1640  Price */\n      dup1\n        /* \"Benz-Swap/feeds/PriceApi.sol\":1628:1640  return Price */\n      swap4\n      pop\n      pop\n      pop\n      pop\n        /* \"Benz-Swap/feeds/PriceApi.sol\":1308:1646  function getPrice(uint64 _index) internal view returns(uint256)   {... */\n      swap2\n      swap1\n      pop\n      jump\t// out\n        /* \"Benz-Swap/feeds/PriceApi.sol\":1648:1928  function getDecimals(uint64 _index) internal view returns (uint) {... */\n    tag_37:\n        /* \"Benz-Swap/feeds/PriceApi.sol\":1707:1711  uint */\n      0x00\n        /* \"Benz-Swap/feeds/PriceApi.sol\":1723:1734  bytes32 val */\n      dup1\n        /* \"Benz-Swap/feeds/PriceApi.sol\":1738:1748  sValueFeed */\n      0x03\n      0x01\n      swap1\n      sload\n      swap1\n      0x0100\n      exp\n      swap1\n      div\n      0xffffffffffffffffffffffffffffffffffffffff\n      and\n        /* \"Benz-Swap/feeds/PriceApi.sol\":1738:1758  sValueFeed.getSvalue */\n      0xffffffffffffffffffffffffffffffffffffffff\n      and\n      0x98f93a96\n        /* \"Benz-Swap/feeds/PriceApi.sol\":1759:1765  _index */\n      dup5\n        /* \"Benz-Swap/feeds/PriceApi.sol\":1738:1766  sValueFeed.getSvalue(_index) */\n      mload(0x40)\n      dup3\n      0xffffffff\n      and\n      0xe0\n      shl\n      dup2\n      mstore\n      0x04\n      add\n      tag_69\n      swap2\n      swap1\n      tag_61\n      jump\t// in\n    tag_69:\n      0x40\n      dup1\n      mload\n      dup1\n      dup4\n      sub\n      dup2\n      dup7\n      gas\n      staticcall\n      iszero\n      dup1\n      iszero\n      tag_71\n      jumpi\n      returndatasize\n      0x00\n      dup1\n      returndatacopy\n      revert(0x00, returndatasize)\n    tag_71:\n      pop\n      pop\n      pop\n      pop\n      mload(0x40)\n      returndatasize\n      not(0x1f)\n      0x1f\n      dup3\n      add\n      and\n      dup3\n      add\n      dup1\n      0x40\n      mstore\n      pop\n      dup2\n      add\n      swap1\n      tag_72\n      swap2\n      swap1\n      tag_53\n      jump\t// in\n    tag_72:\n        /* \"Benz-Swap/feeds/PriceApi.sol\":1722:1766  (bytes32 val,)= sValueFeed.getSvalue(_index) */\n      pop\n      swap1\n      pop\n        /* \"Benz-Swap/feeds/PriceApi.sol\":1805:1830  uint256[4] memory decoded */\n      0x00\n        /* \"Benz-Swap/feeds/PriceApi.sol\":1833:1844  unpack(val) */\n      tag_73\n        /* \"Benz-Swap/feeds/PriceApi.sol\":1840:1843  val */\n      dup3\n        /* \"Benz-Swap/feeds/PriceApi.sol\":1833:1839  unpack */\n      tag_55\n        /* \"Benz-Swap/feeds/PriceApi.sol\":1833:1844  unpack(val) */\n      jump\t// in\n    tag_73:\n        /* \"Benz-Swap/feeds/PriceApi.sol\":1805:1844  uint256[4] memory decoded = unpack(val) */\n      swap1\n      pop\n        /* \"Benz-Swap/feeds/PriceApi.sol\":1854:1868  uint _decimals */\n      0x00\n        /* \"Benz-Swap/feeds/PriceApi.sol\":1871:1878  decoded */\n      dup2\n        /* \"Benz-Swap/feeds/PriceApi.sol\":1879:1880  1 */\n      0x01\n        /* \"Benz-Swap/feeds/PriceApi.sol\":1871:1881  decoded[1] */\n      0x04\n      dup2\n      lt\n      tag_74\n      jumpi\n      tag_75\n      tag_58\n      jump\t// in\n    tag_75:\n    tag_74:\n      0x20\n      mul\n      add\n      mload\n        /* \"Benz-Swap/feeds/PriceApi.sol\":1854:1881  uint _decimals = decoded[1] */\n      swap1\n      pop\n        /* \"Benz-Swap/feeds/PriceApi.sol\":1906:1915  _decimals */\n      dup1\n        /* \"Benz-Swap/feeds/PriceApi.sol\":1899:1915  return _decimals */\n      swap4\n      pop\n      pop\n      pop\n      pop\n        /* \"Benz-Swap/feeds/PriceApi.sol\":1648:1928  function getDecimals(uint64 _index) internal view returns (uint) {... */\n      swap2\n      swap1\n      pop\n      jump\t// out\n        /* \"Benz-Swap/feeds/PriceApi.sol\":2967:3445  function scalePrice(... */\n    tag_39:\n        /* \"Benz-Swap/feeds/PriceApi.sol\":3099:3105  int256 */\n      0x00\n        /* \"Benz-Swap/feeds/PriceApi.sol\":3193:3202  _decimals */\n      dup2\n        /* \"Benz-Swap/feeds/PriceApi.sol\":3176:3190  _priceDecimals */\n      dup4\n        /* \"Benz-Swap/feeds/PriceApi.sol\":3176:3202  _priceDecimals < _decimals */\n      lt\n        /* \"Benz-Swap/feeds/PriceApi.sol\":3172:3407  if (_priceDecimals < _decimals) {... */\n      iszero\n      tag_77\n      jumpi\n        /* \"Benz-Swap/feeds/PriceApi.sol\":3259:3273  _priceDecimals */\n      dup3\n        /* \"Benz-Swap/feeds/PriceApi.sol\":3247:3256  _decimals */\n      dup3\n        /* \"Benz-Swap/feeds/PriceApi.sol\":3247:3273  _decimals - _priceDecimals */\n      tag_78\n      swap2\n      swap1\n      tag_79\n      jump\t// in\n    tag_78:\n        /* \"Benz-Swap/feeds/PriceApi.sol\":3242:3244  10 */\n      0x0a\n        /* \"Benz-Swap/feeds/PriceApi.sol\":3242:3274  10**(_decimals - _priceDecimals) */\n      tag_80\n      swap2\n      swap1\n      tag_81\n      jump\t// in\n    tag_80:\n        /* \"Benz-Swap/feeds/PriceApi.sol\":3233:3239  _price */\n      dup5\n        /* \"Benz-Swap/feeds/PriceApi.sol\":3233:3274  _price * 10**(_decimals - _priceDecimals) */\n      tag_82\n      swap2\n      swap1\n      tag_83\n      jump\t// in\n    tag_82:\n        /* \"Benz-Swap/feeds/PriceApi.sol\":3218:3275  return int256( _price * 10**(_decimals - _priceDecimals)) */\n      swap1\n      pop\n      jump(tag_76)\n        /* \"Benz-Swap/feeds/PriceApi.sol\":3172:3407  if (_priceDecimals < _decimals) {... */\n    tag_77:\n        /* \"Benz-Swap/feeds/PriceApi.sol\":3313:3322  _decimals */\n      dup2\n        /* \"Benz-Swap/feeds/PriceApi.sol\":3296:3310  _priceDecimals */\n      dup4\n        /* \"Benz-Swap/feeds/PriceApi.sol\":3296:3322  _priceDecimals > _decimals */\n      gt\n        /* \"Benz-Swap/feeds/PriceApi.sol\":3292:3407  if (_priceDecimals > _decimals) {... */\n      iszero\n      tag_85\n      jumpi\n        /* \"Benz-Swap/feeds/PriceApi.sol\":3385:3394  _decimals */\n      dup2\n        /* \"Benz-Swap/feeds/PriceApi.sol\":3368:3382  _priceDecimals */\n      dup4\n        /* \"Benz-Swap/feeds/PriceApi.sol\":3368:3394  _priceDecimals - _decimals */\n      tag_86\n      swap2\n      swap1\n      tag_79\n      jump\t// in\n    tag_86:\n        /* \"Benz-Swap/feeds/PriceApi.sol\":3363:3365  10 */\n      0x0a\n        /* \"Benz-Swap/feeds/PriceApi.sol\":3363:3395  10**(_priceDecimals - _decimals) */\n      tag_87\n      swap2\n      swap1\n      tag_81\n      jump\t// in\n    tag_87:\n        /* \"Benz-Swap/feeds/PriceApi.sol\":3353:3359  _price */\n      dup5\n        /* \"Benz-Swap/feeds/PriceApi.sol\":3353:3395  _price /  10**(_priceDecimals - _decimals) */\n      tag_88\n      swap2\n      swap1\n      tag_89\n      jump\t// in\n    tag_88:\n        /* \"Benz-Swap/feeds/PriceApi.sol\":3338:3396  return int256( _price /  10**(_priceDecimals - _decimals)) */\n      swap1\n      pop\n      jump(tag_76)\n        /* \"Benz-Swap/feeds/PriceApi.sol\":3292:3407  if (_priceDecimals > _decimals) {... */\n    tag_85:\n        /* \"Benz-Swap/feeds/PriceApi.sol\":3431:3437  _price */\n      dup4\n        /* \"Benz-Swap/feeds/PriceApi.sol\":3417:3438  return int256(_price) */\n      swap1\n      pop\n        /* \"Benz-Swap/feeds/PriceApi.sol\":2967:3445  function scalePrice(... */\n    tag_76:\n      swap4\n      swap3\n      pop\n      pop\n      pop\n      jump\t// out\n        /* \"Benz-Swap/feeds/PriceApi.sol\":614:1074  function unpack(bytes32 data) internal pure returns(uint256[4] memory) {... */\n    tag_55:\n        /* \"Benz-Swap/feeds/PriceApi.sol\":666:683  uint256[4] memory */\n      tag_90\n      tag_91\n      jump\t// in\n    tag_90:\n        /* \"Benz-Swap/feeds/PriceApi.sol\":695:717  uint256[4] memory info */\n      tag_93\n      tag_91\n      jump\t// in\n    tag_93:\n        /* \"Benz-Swap/feeds/PriceApi.sol\":738:783  bytesToUint256(abi.encodePacked(data >> 192)) */\n      tag_94\n        /* \"Benz-Swap/feeds/PriceApi.sol\":778:781  192 */\n      0xc0\n        /* \"Benz-Swap/feeds/PriceApi.sol\":770:774  data */\n      dup5\n        /* \"Benz-Swap/feeds/PriceApi.sol\":770:781  data >> 192 */\n      swap1\n      shr\n        /* \"Benz-Swap/feeds/PriceApi.sol\":753:782  abi.encodePacked(data >> 192) */\n      add(0x20, mload(0x40))\n      tag_95\n      swap2\n      swap1\n      tag_96\n      jump\t// in\n    tag_95:\n      mload(0x40)\n      0x20\n      dup2\n      dup4\n      sub\n      sub\n      dup2\n      mstore\n      swap1\n      0x40\n      mstore\n        /* \"Benz-Swap/feeds/PriceApi.sol\":738:752  bytesToUint256 */\n      tag_97\n        /* \"Benz-Swap/feeds/PriceApi.sol\":738:783  bytesToUint256(abi.encodePacked(data >> 192)) */\n      jump\t// in\n    tag_94:\n        /* \"Benz-Swap/feeds/PriceApi.sol\":728:732  info */\n      dup2\n        /* \"Benz-Swap/feeds/PriceApi.sol\":733:734  0 */\n      0x00\n        /* \"Benz-Swap/feeds/PriceApi.sol\":728:735  info[0] */\n      0x04\n      dup2\n      lt\n      tag_98\n      jumpi\n      tag_99\n      tag_58\n      jump\t// in\n    tag_99:\n    tag_98:\n      0x20\n      mul\n      add\n        /* \"Benz-Swap/feeds/PriceApi.sol\":728:783  info[0] = bytesToUint256(abi.encodePacked(data >> 192)) */\n      dup2\n      dup2\n      mstore\n      pop\n      pop\n        /* \"Benz-Swap/feeds/PriceApi.sol\":818:869  bytesToUint256(abi.encodePacked(data << 64 >> 248)) */\n      tag_100\n        /* \"Benz-Swap/feeds/PriceApi.sol\":864:867  248 */\n      0xf8\n        /* \"Benz-Swap/feeds/PriceApi.sol\":858:860  64 */\n      0x40\n        /* \"Benz-Swap/feeds/PriceApi.sol\":850:854  data */\n      dup6\n        /* \"Benz-Swap/feeds/PriceApi.sol\":850:860  data << 64 */\n      swap1\n      shl\n        /* \"Benz-Swap/feeds/PriceApi.sol\":850:867  data << 64 >> 248 */\n      swap1\n      shr\n        /* \"Benz-Swap/feeds/PriceApi.sol\":833:868  abi.encodePacked(data << 64 >> 248) */\n      add(0x20, mload(0x40))\n      tag_101\n      swap2\n      swap1\n      tag_96\n      jump\t// in\n    tag_101:\n      mload(0x40)\n      0x20\n      dup2\n      dup4\n      sub\n      sub\n      dup2\n      mstore\n      swap1\n      0x40\n      mstore\n        /* \"Benz-Swap/feeds/PriceApi.sol\":818:832  bytesToUint256 */\n      tag_97\n        /* \"Benz-Swap/feeds/PriceApi.sol\":818:869  bytesToUint256(abi.encodePacked(data << 64 >> 248)) */\n      jump\t// in\n    tag_100:\n        /* \"Benz-Swap/feeds/PriceApi.sol\":808:812  info */\n      dup2\n        /* \"Benz-Swap/feeds/PriceApi.sol\":813:814  1 */\n      0x01\n        /* \"Benz-Swap/feeds/PriceApi.sol\":808:815  info[1] */\n      0x04\n      dup2\n      lt\n      tag_102\n      jumpi\n      tag_103\n      tag_58\n      jump\t// in\n    tag_103:\n    tag_102:\n      0x20\n      mul\n      add\n        /* \"Benz-Swap/feeds/PriceApi.sol\":808:869  info[1] = bytesToUint256(abi.encodePacked(data << 64 >> 248)) */\n      dup2\n      dup2\n      mstore\n      pop\n      pop\n        /* \"Benz-Swap/feeds/PriceApi.sol\":900:951  bytesToUint256(abi.encodePacked(data << 72 >> 192)) */\n      tag_104\n        /* \"Benz-Swap/feeds/PriceApi.sol\":946:949  192 */\n      0xc0\n        /* \"Benz-Swap/feeds/PriceApi.sol\":940:942  72 */\n      0x48\n        /* \"Benz-Swap/feeds/PriceApi.sol\":932:936  data */\n      dup6\n        /* \"Benz-Swap/feeds/PriceApi.sol\":932:942  data << 72 */\n      swap1\n      shl\n        /* \"Benz-Swap/feeds/PriceApi.sol\":932:949  data << 72 >> 192 */\n      swap1\n      shr\n        /* \"Benz-Swap/feeds/PriceApi.sol\":915:950  abi.encodePacked(data << 72 >> 192) */\n      add(0x20, mload(0x40))\n      tag_105\n      swap2\n      swap1\n      tag_96\n      jump\t// in\n    tag_105:\n      mload(0x40)\n      0x20\n      dup2\n      dup4\n      sub\n      sub\n      dup2\n      mstore\n      swap1\n      0x40\n      mstore\n        /* \"Benz-Swap/feeds/PriceApi.sol\":900:914  bytesToUint256 */\n      tag_97\n        /* \"Benz-Swap/feeds/PriceApi.sol\":900:951  bytesToUint256(abi.encodePacked(data << 72 >> 192)) */\n      jump\t// in\n    tag_104:\n        /* \"Benz-Swap/feeds/PriceApi.sol\":890:894  info */\n      dup2\n        /* \"Benz-Swap/feeds/PriceApi.sol\":895:896  2 */\n      0x02\n        /* \"Benz-Swap/feeds/PriceApi.sol\":890:897  info[2] */\n      0x04\n      dup2\n      lt\n      tag_106\n      jumpi\n      tag_107\n      tag_58\n      jump\t// in\n    tag_107:\n    tag_106:\n      0x20\n      mul\n      add\n        /* \"Benz-Swap/feeds/PriceApi.sol\":890:951  info[2] = bytesToUint256(abi.encodePacked(data << 72 >> 192)) */\n      dup2\n      dup2\n      mstore\n      pop\n      pop\n        /* \"Benz-Swap/feeds/PriceApi.sol\":984:1036  bytesToUint256(abi.encodePacked(data << 136 >> 160)) */\n      tag_108\n        /* \"Benz-Swap/feeds/PriceApi.sol\":1031:1034  160 */\n      0xa0\n        /* \"Benz-Swap/feeds/PriceApi.sol\":1024:1027  136 */\n      0x88\n        /* \"Benz-Swap/feeds/PriceApi.sol\":1016:1020  data */\n      dup6\n        /* \"Benz-Swap/feeds/PriceApi.sol\":1016:1027  data << 136 */\n      swap1\n      shl\n        /* \"Benz-Swap/feeds/PriceApi.sol\":1016:1034  data << 136 >> 160 */\n      swap1\n      shr\n        /* \"Benz-Swap/feeds/PriceApi.sol\":999:1035  abi.encodePacked(data << 136 >> 160) */\n      add(0x20, mload(0x40))\n      tag_109\n      swap2\n      swap1\n      tag_96\n      jump\t// in\n    tag_109:\n      mload(0x40)\n      0x20\n      dup2\n      dup4\n      sub\n      sub\n      dup2\n      mstore\n      swap1\n      0x40\n      mstore\n        /* \"Benz-Swap/feeds/PriceApi.sol\":984:998  bytesToUint256 */\n      tag_97\n        /* \"Benz-Swap/feeds/PriceApi.sol\":984:1036  bytesToUint256(abi.encodePacked(data << 136 >> 160)) */\n      jump\t// in\n    tag_108:\n        /* \"Benz-Swap/feeds/PriceApi.sol\":974:978  info */\n      dup2\n        /* \"Benz-Swap/feeds/PriceApi.sol\":979:980  3 */\n      0x03\n        /* \"Benz-Swap/feeds/PriceApi.sol\":974:981  info[3] */\n      0x04\n      dup2\n      lt\n      tag_110\n      jumpi\n      tag_111\n      tag_58\n      jump\t// in\n    tag_111:\n    tag_110:\n      0x20\n      mul\n      add\n        /* \"Benz-Swap/feeds/PriceApi.sol\":974:1036  info[3] = bytesToUint256(abi.encodePacked(data << 136 >> 160)) */\n      dup2\n      dup2\n      mstore\n      pop\n      pop\n        /* \"Benz-Swap/feeds/PriceApi.sol\":1063:1067  info */\n      dup1\n        /* \"Benz-Swap/feeds/PriceApi.sol\":1056:1067  return info */\n      swap2\n      pop\n      pop\n        /* \"Benz-Swap/feeds/PriceApi.sol\":614:1074  function unpack(bytes32 data) internal pure returns(uint256[4] memory) {... */\n      swap2\n      swap1\n      pop\n      jump\t// out\n        /* \"Benz-Swap/feeds/PriceApi.sol\":1080:1301  function bytesToUint256(bytes memory _bs) internal pure returns (uint256 value) {... */\n    tag_97:\n        /* \"Benz-Swap/feeds/PriceApi.sol\":1145:1158  uint256 value */\n      0x00\n        /* \"Benz-Swap/feeds/PriceApi.sol\":1192:1194  32 */\n      0x20\n        /* \"Benz-Swap/feeds/PriceApi.sol\":1178:1181  _bs */\n      dup3\n        /* \"Benz-Swap/feeds/PriceApi.sol\":1178:1188  _bs.length */\n      mload\n        /* \"Benz-Swap/feeds/PriceApi.sol\":1178:1194  _bs.length == 32 */\n      eq\n        /* \"Benz-Swap/feeds/PriceApi.sol\":1170:1222  require(_bs.length == 32, \"bytes length is not 32.\") */\n      tag_113\n      jumpi\n      mload(0x40)\n      0x08c379a000000000000000000000000000000000000000000000000000000000\n      dup2\n      mstore\n      0x04\n      add\n      tag_114\n      swap1\n      tag_115\n      jump\t// in\n    tag_114:\n      mload(0x40)\n      dup1\n      swap2\n      sub\n      swap1\n      revert\n    tag_113:\n        /* \"Benz-Swap/feeds/PriceApi.sol\":1279:1283  0x20 */\n      0x20\n        /* \"Benz-Swap/feeds/PriceApi.sol\":1274:1277  _bs */\n      dup3\n        /* \"Benz-Swap/feeds/PriceApi.sol\":1270:1284  add(_bs, 0x20) */\n      add\n        /* \"Benz-Swap/feeds/PriceApi.sol\":1264:1285  mload(add(_bs, 0x20)) */\n      mload\n        /* \"Benz-Swap/feeds/PriceApi.sol\":1255:1285  value := mload(add(_bs, 0x20)) */\n      swap1\n      pop\n        /* \"Benz-Swap/feeds/PriceApi.sol\":1080:1301  function bytesToUint256(bytes memory _bs) internal pure returns (uint256 value) {... */\n      swap2\n      swap1\n      pop\n      jump\t// out\n    tag_91:\n      mload(0x40)\n      dup1\n      0x80\n      add\n      0x40\n      mstore\n      dup1\n      0x04\n      swap1\n      0x20\n      dup3\n      mul\n      dup1\n      calldatasize\n      dup4\n      calldatacopy\n      dup1\n      dup3\n      add\n      swap2\n      pop\n      pop\n      swap1\n      pop\n      pop\n      swap1\n      jump\t// out\n        /* \"#utility.yul\":7:84   */\n    tag_116:\n        /* \"#utility.yul\":44:51   */\n      0x00\n        /* \"#utility.yul\":73:78   */\n      dup2\n        /* \"#utility.yul\":62:78   */\n      swap1\n      pop\n        /* \"#utility.yul\":7:84   */\n      swap2\n      swap1\n      pop\n      jump\t// out\n        /* \"#utility.yul\":90:208   */\n    tag_117:\n        /* \"#utility.yul\":177:201   */\n      tag_153\n        /* \"#utility.yul\":195:200   */\n      dup2\n        /* \"#utility.yul\":177:201   */\n      tag_116\n      jump\t// in\n    tag_153:\n        /* \"#utility.yul\":172:175   */\n      dup3\n        /* \"#utility.yul\":165:202   */\n      mstore\n        /* \"#utility.yul\":90:208   */\n      pop\n      pop\n      jump\t// out\n        /* \"#utility.yul\":214:436   */\n    tag_11:\n        /* \"#utility.yul\":307:311   */\n      0x00\n        /* \"#utility.yul\":345:347   */\n      0x20\n        /* \"#utility.yul\":334:343   */\n      dup3\n        /* \"#utility.yul\":330:348   */\n      add\n        /* \"#utility.yul\":322:348   */\n      swap1\n      pop\n        /* \"#utility.yul\":358:429   */\n      tag_155\n        /* \"#utility.yul\":426:427   */\n      0x00\n        /* \"#utility.yul\":415:424   */\n      dup4\n        /* \"#utility.yul\":411:428   */\n      add\n        /* \"#utility.yul\":402:408   */\n      dup5\n        /* \"#utility.yul\":358:429   */\n      tag_117\n      jump\t// in\n    tag_155:\n        /* \"#utility.yul\":214:436   */\n      swap3\n      swap2\n      pop\n      pop\n      jump\t// out\n        /* \"#utility.yul\":523:640   */\n    tag_119:\n        /* \"#utility.yul\":632:633   */\n      0x00\n        /* \"#utility.yul\":629:630   */\n      dup1\n        /* \"#utility.yul\":622:634   */\n      revert\n        /* \"#utility.yul\":769:870   */\n    tag_121:\n        /* \"#utility.yul\":805:812   */\n      0x00\n        /* \"#utility.yul\":845:863   */\n      0xffffffffffffffff\n        /* \"#utility.yul\":838:843   */\n      dup3\n        /* \"#utility.yul\":834:864   */\n      and\n        /* \"#utility.yul\":823:864   */\n      swap1\n      pop\n        /* \"#utility.yul\":769:870   */\n      swap2\n      swap1\n      pop\n      jump\t// out\n        /* \"#utility.yul\":876:996   */\n    tag_122:\n        /* \"#utility.yul\":948:971   */\n      tag_161\n        /* \"#utility.yul\":965:970   */\n      dup2\n        /* \"#utility.yul\":948:971   */\n      tag_121\n      jump\t// in\n    tag_161:\n        /* \"#utility.yul\":941:946   */\n      dup2\n        /* \"#utility.yul\":938:972   */\n      eq\n        /* \"#utility.yul\":928:990   */\n      tag_162\n      jumpi\n        /* \"#utility.yul\":986:987   */\n      0x00\n        /* \"#utility.yul\":983:984   */\n      dup1\n        /* \"#utility.yul\":976:988   */\n      revert\n        /* \"#utility.yul\":928:990   */\n    tag_162:\n        /* \"#utility.yul\":876:996   */\n      pop\n      jump\t// out\n        /* \"#utility.yul\":1002:1139   */\n    tag_123:\n        /* \"#utility.yul\":1047:1052   */\n      0x00\n        /* \"#utility.yul\":1085:1091   */\n      dup2\n        /* \"#utility.yul\":1072:1092   */\n      calldataload\n        /* \"#utility.yul\":1063:1092   */\n      swap1\n      pop\n        /* \"#utility.yul\":1101:1133   */\n      tag_164\n        /* \"#utility.yul\":1127:1132   */\n      dup2\n        /* \"#utility.yul\":1101:1133   */\n      tag_122\n      jump\t// in\n    tag_164:\n        /* \"#utility.yul\":1002:1139   */\n      swap3\n      swap2\n      pop\n      pop\n      jump\t// out\n        /* \"#utility.yul\":1145:1615   */\n    tag_14:\n        /* \"#utility.yul\":1211:1217   */\n      0x00\n        /* \"#utility.yul\":1219:1225   */\n      dup1\n        /* \"#utility.yul\":1268:1270   */\n      0x40\n        /* \"#utility.yul\":1256:1265   */\n      dup4\n        /* \"#utility.yul\":1247:1254   */\n      dup6\n        /* \"#utility.yul\":1243:1266   */\n      sub\n        /* \"#utility.yul\":1239:1271   */\n      slt\n        /* \"#utility.yul\":1236:1355   */\n      iszero\n      tag_166\n      jumpi\n        /* \"#utility.yul\":1274:1353   */\n      tag_167\n      tag_119\n      jump\t// in\n    tag_167:\n        /* \"#utility.yul\":1236:1355   */\n    tag_166:\n        /* \"#utility.yul\":1394:1395   */\n      0x00\n        /* \"#utility.yul\":1419:1471   */\n      tag_168\n        /* \"#utility.yul\":1463:1470   */\n      dup6\n        /* \"#utility.yul\":1454:1460   */\n      dup3\n        /* \"#utility.yul\":1443:1452   */\n      dup7\n        /* \"#utility.yul\":1439:1461   */\n      add\n        /* \"#utility.yul\":1419:1471   */\n      tag_123\n      jump\t// in\n    tag_168:\n        /* \"#utility.yul\":1409:1471   */\n      swap3\n      pop\n        /* \"#utility.yul\":1365:1481   */\n      pop\n        /* \"#utility.yul\":1520:1522   */\n      0x20\n        /* \"#utility.yul\":1546:1598   */\n      tag_169\n        /* \"#utility.yul\":1590:1597   */\n      dup6\n        /* \"#utility.yul\":1581:1587   */\n      dup3\n        /* \"#utility.yul\":1570:1579   */\n      dup7\n        /* \"#utility.yul\":1566:1588   */\n      add\n        /* \"#utility.yul\":1546:1598   */\n      tag_123\n      jump\t// in\n    tag_169:\n        /* \"#utility.yul\":1536:1598   */\n      swap2\n      pop\n        /* \"#utility.yul\":1491:1608   */\n      pop\n        /* \"#utility.yul\":1145:1615   */\n      swap3\n      pop\n      swap3\n      swap1\n      pop\n      jump\t// out\n        /* \"#utility.yul\":1621:1697   */\n    tag_124:\n        /* \"#utility.yul\":1657:1664   */\n      0x00\n        /* \"#utility.yul\":1686:1691   */\n      dup2\n        /* \"#utility.yul\":1675:1691   */\n      swap1\n      pop\n        /* \"#utility.yul\":1621:1697   */\n      swap2\n      swap1\n      pop\n      jump\t// out\n        /* \"#utility.yul\":1703:1818   */\n    tag_125:\n        /* \"#utility.yul\":1788:1811   */\n      tag_172\n        /* \"#utility.yul\":1805:1810   */\n      dup2\n        /* \"#utility.yul\":1788:1811   */\n      tag_124\n      jump\t// in\n    tag_172:\n        /* \"#utility.yul\":1783:1786   */\n      dup3\n        /* \"#utility.yul\":1776:1812   */\n      mstore\n        /* \"#utility.yul\":1703:1818   */\n      pop\n      pop\n      jump\t// out\n        /* \"#utility.yul\":1824:2042   */\n    tag_17:\n        /* \"#utility.yul\":1915:1919   */\n      0x00\n        /* \"#utility.yul\":1953:1955   */\n      0x20\n        /* \"#utility.yul\":1942:1951   */\n      dup3\n        /* \"#utility.yul\":1938:1956   */\n      add\n        /* \"#utility.yul\":1930:1956   */\n      swap1\n      pop\n        /* \"#utility.yul\":1966:2035   */\n      tag_174\n        /* \"#utility.yul\":2032:2033   */\n      0x00\n        /* \"#utility.yul\":2021:2030   */\n      dup4\n        /* \"#utility.yul\":2017:2034   */\n      add\n        /* \"#utility.yul\":2008:2014   */\n      dup5\n        /* \"#utility.yul\":1966:2035   */\n      tag_125\n      jump\t// in\n    tag_174:\n        /* \"#utility.yul\":1824:2042   */\n      swap3\n      swap2\n      pop\n      pop\n      jump\t// out\n        /* \"#utility.yul\":2048:2217   */\n    tag_126:\n        /* \"#utility.yul\":2132:2143   */\n      0x00\n        /* \"#utility.yul\":2166:2172   */\n      dup3\n        /* \"#utility.yul\":2161:2164   */\n      dup3\n        /* \"#utility.yul\":2154:2173   */\n      mstore\n        /* \"#utility.yul\":2206:2210   */\n      0x20\n        /* \"#utility.yul\":2201:2204   */\n      dup3\n        /* \"#utility.yul\":2197:2211   */\n      add\n        /* \"#utility.yul\":2182:2211   */\n      swap1\n      pop\n        /* \"#utility.yul\":2048:2217   */\n      swap3\n      swap2\n      pop\n      pop\n      jump\t// out\n        /* \"#utility.yul\":2223:2393   */\n    tag_127:\n        /* \"#utility.yul\":2363:2385   */\n      0x556e737570706f7274656420446563696d616c73000000000000000000000000\n        /* \"#utility.yul\":2359:2360   */\n      0x00\n        /* \"#utility.yul\":2351:2357   */\n      dup3\n        /* \"#utility.yul\":2347:2361   */\n      add\n        /* \"#utility.yul\":2340:2386   */\n      mstore\n        /* \"#utility.yul\":2223:2393   */\n      pop\n      jump\t// out\n        /* \"#utility.yul\":2399:2765   */\n    tag_128:\n        /* \"#utility.yul\":2541:2544   */\n      0x00\n        /* \"#utility.yul\":2562:2629   */\n      tag_178\n        /* \"#utility.yul\":2626:2628   */\n      0x14\n        /* \"#utility.yul\":2621:2624   */\n      dup4\n        /* \"#utility.yul\":2562:2629   */\n      tag_126\n      jump\t// in\n    tag_178:\n        /* \"#utility.yul\":2555:2629   */\n      swap2\n      pop\n        /* \"#utility.yul\":2638:2731   */\n      tag_179\n        /* \"#utility.yul\":2727:2730   */\n      dup3\n        /* \"#utility.yul\":2638:2731   */\n      tag_127\n      jump\t// in\n    tag_179:\n        /* \"#utility.yul\":2756:2758   */\n      0x20\n        /* \"#utility.yul\":2751:2754   */\n      dup3\n        /* \"#utility.yul\":2747:2759   */\n      add\n        /* \"#utility.yul\":2740:2759   */\n      swap1\n      pop\n        /* \"#utility.yul\":2399:2765   */\n      swap2\n      swap1\n      pop\n      jump\t// out\n        /* \"#utility.yul\":2771:3190   */\n    tag_31:\n        /* \"#utility.yul\":2937:2941   */\n      0x00\n        /* \"#utility.yul\":2975:2977   */\n      0x20\n        /* \"#utility.yul\":2964:2973   */\n      dup3\n        /* \"#utility.yul\":2960:2978   */\n      add\n        /* \"#utility.yul\":2952:2978   */\n      swap1\n      pop\n        /* \"#utility.yul\":3024:3033   */\n      dup2\n        /* \"#utility.yul\":3018:3022   */\n      dup2\n        /* \"#utility.yul\":3014:3034   */\n      sub\n        /* \"#utility.yul\":3010:3011   */\n      0x00\n        /* \"#utility.yul\":2999:3008   */\n      dup4\n        /* \"#utility.yul\":2995:3012   */\n      add\n        /* \"#utility.yul\":2988:3035   */\n      mstore\n        /* \"#utility.yul\":3052:3183   */\n      tag_181\n        /* \"#utility.yul\":3178:3182   */\n      dup2\n        /* \"#utility.yul\":3052:3183   */\n      tag_128\n      jump\t// in\n    tag_181:\n        /* \"#utility.yul\":3044:3183   */\n      swap1\n      pop\n        /* \"#utility.yul\":2771:3190   */\n      swap2\n      swap1\n      pop\n      jump\t// out\n        /* \"#utility.yul\":3196:3376   */\n    tag_129:\n        /* \"#utility.yul\":3244:3321   */\n      0x4e487b7100000000000000000000000000000000000000000000000000000000\n        /* \"#utility.yul\":3241:3242   */\n      0x00\n        /* \"#utility.yul\":3234:3322   */\n      mstore\n        /* \"#utility.yul\":3341:3345   */\n      0x11\n        /* \"#utility.yul\":3338:3339   */\n      0x04\n        /* \"#utility.yul\":3331:3346   */\n      mstore\n        /* \"#utility.yul\":3365:3369   */\n      0x24\n        /* \"#utility.yul\":3362:3363   */\n      0x00\n        /* \"#utility.yul\":3355:3370   */\n      revert\n        /* \"#utility.yul\":3382:3484   */\n    tag_130:\n        /* \"#utility.yul\":3424:3432   */\n      0x00\n        /* \"#utility.yul\":3471:3476   */\n      dup2\n        /* \"#utility.yul\":3468:3469   */\n      0x01\n        /* \"#utility.yul\":3464:3477   */\n      shr\n        /* \"#utility.yul\":3443:3477   */\n      swap1\n      pop\n        /* \"#utility.yul\":3382:3484   */\n      swap2\n      swap1\n      pop\n      jump\t// out\n        /* \"#utility.yul\":3490:4338   */\n    tag_131:\n        /* \"#utility.yul\":3551:3556   */\n      0x00\n        /* \"#utility.yul\":3558:3562   */\n      dup1\n        /* \"#utility.yul\":3582:3588   */\n      dup3\n        /* \"#utility.yul\":3573:3588   */\n      swap2\n      pop\n        /* \"#utility.yul\":3606:3611   */\n      dup4\n        /* \"#utility.yul\":3597:3611   */\n      swap1\n      pop\n        /* \"#utility.yul\":3620:4332   */\n    tag_185:\n        /* \"#utility.yul\":3641:3642   */\n      0x01\n        /* \"#utility.yul\":3631:3639   */\n      dup6\n        /* \"#utility.yul\":3628:3643   */\n      gt\n        /* \"#utility.yul\":3620:4332   */\n      iszero\n      tag_187\n      jumpi\n        /* \"#utility.yul\":3736:3740   */\n      dup1\n        /* \"#utility.yul\":3731:3734   */\n      dup7\n        /* \"#utility.yul\":3727:3741   */\n      div\n        /* \"#utility.yul\":3721:3725   */\n      dup2\n        /* \"#utility.yul\":3718:3742   */\n      gt\n        /* \"#utility.yul\":3715:3765   */\n      iszero\n      tag_188\n      jumpi\n        /* \"#utility.yul\":3745:3763   */\n      tag_189\n      tag_129\n      jump\t// in\n    tag_189:\n        /* \"#utility.yul\":3715:3765   */\n    tag_188:\n        /* \"#utility.yul\":3795:3796   */\n      0x01\n        /* \"#utility.yul\":3785:3793   */\n      dup6\n        /* \"#utility.yul\":3781:3797   */\n      and\n        /* \"#utility.yul\":3778:4229   */\n      iszero\n      tag_190\n      jumpi\n        /* \"#utility.yul\":4210:4214   */\n      dup1\n        /* \"#utility.yul\":4203:4208   */\n      dup3\n        /* \"#utility.yul\":4199:4215   */\n      mul\n        /* \"#utility.yul\":4190:4215   */\n      swap2\n      pop\n        /* \"#utility.yul\":3778:4229   */\n    tag_190:\n        /* \"#utility.yul\":4260:4264   */\n      dup1\n        /* \"#utility.yul\":4254:4258   */\n      dup2\n        /* \"#utility.yul\":4250:4265   */\n      mul\n        /* \"#utility.yul\":4242:4265   */\n      swap1\n      pop\n        /* \"#utility.yul\":4290:4322   */\n      tag_191\n        /* \"#utility.yul\":4313:4321   */\n      dup6\n        /* \"#utility.yul\":4290:4322   */\n      tag_130\n      jump\t// in\n    tag_191:\n        /* \"#utility.yul\":4278:4322   */\n      swap5\n      pop\n        /* \"#utility.yul\":3620:4332   */\n      jump(tag_185)\n    tag_187:\n        /* \"#utility.yul\":3490:4338   */\n      swap5\n      pop\n      swap5\n      swap3\n      pop\n      pop\n      pop\n      jump\t// out\n        /* \"#utility.yul\":4344:5417   */\n    tag_132:\n        /* \"#utility.yul\":4398:4403   */\n      0x00\n        /* \"#utility.yul\":4589:4597   */\n      dup3\n        /* \"#utility.yul\":4579:4619   */\n      tag_193\n      jumpi\n        /* \"#utility.yul\":4610:4611   */\n      0x01\n        /* \"#utility.yul\":4601:4611   */\n      swap1\n      pop\n        /* \"#utility.yul\":4612:4617   */\n      jump(tag_192)\n        /* \"#utility.yul\":4579:4619   */\n    tag_193:\n        /* \"#utility.yul\":4638:4642   */\n      dup2\n        /* \"#utility.yul\":4628:4664   */\n      tag_194\n      jumpi\n        /* \"#utility.yul\":4655:4656   */\n      0x00\n        /* \"#utility.yul\":4646:4656   */\n      swap1\n      pop\n        /* \"#utility.yul\":4657:4662   */\n      jump(tag_192)\n        /* \"#utility.yul\":4628:4664   */\n    tag_194:\n        /* \"#utility.yul\":4724:4728   */\n      dup2\n        /* \"#utility.yul\":4772:4773   */\n      0x01\n        /* \"#utility.yul\":4767:4794   */\n      dup2\n      eq\n      tag_196\n      jumpi\n        /* \"#utility.yul\":4808:4809   */\n      0x02\n        /* \"#utility.yul\":4803:4994   */\n      dup2\n      eq\n      tag_197\n      jumpi\n        /* \"#utility.yul\":4717:4994   */\n      jump(tag_195)\n        /* \"#utility.yul\":4767:4794   */\n    tag_196:\n        /* \"#utility.yul\":4785:4786   */\n      0x01\n        /* \"#utility.yul\":4776:4786   */\n      swap2\n      pop\n        /* \"#utility.yul\":4787:4792   */\n      pop\n      jump(tag_192)\n        /* \"#utility.yul\":4803:4994   */\n    tag_197:\n        /* \"#utility.yul\":4848:4851   */\n      0xff\n        /* \"#utility.yul\":4838:4846   */\n      dup5\n        /* \"#utility.yul\":4835:4852   */\n      gt\n        /* \"#utility.yul\":4832:4875   */\n      iszero\n      tag_198\n      jumpi\n        /* \"#utility.yul\":4855:4873   */\n      tag_199\n      tag_129\n      jump\t// in\n    tag_199:\n        /* \"#utility.yul\":4832:4875   */\n    tag_198:\n        /* \"#utility.yul\":4904:4912   */\n      dup4\n        /* \"#utility.yul\":4901:4902   */\n      0x02\n        /* \"#utility.yul\":4897:4913   */\n      exp\n        /* \"#utility.yul\":4888:4913   */\n      swap2\n      pop\n        /* \"#utility.yul\":4939:4942   */\n      dup5\n        /* \"#utility.yul\":4932:4937   */\n      dup3\n        /* \"#utility.yul\":4929:4943   */\n      gt\n        /* \"#utility.yul\":4926:4966   */\n      iszero\n      tag_200\n      jumpi\n        /* \"#utility.yul\":4946:4964   */\n      tag_201\n      tag_129\n      jump\t// in\n    tag_201:\n        /* \"#utility.yul\":4926:4966   */\n    tag_200:\n        /* \"#utility.yul\":4979:4984   */\n      pop\n      jump(tag_192)\n        /* \"#utility.yul\":4717:4994   */\n    tag_195:\n      pop\n        /* \"#utility.yul\":5103:5105   */\n      0x20\n        /* \"#utility.yul\":5093:5101   */\n      dup4\n        /* \"#utility.yul\":5090:5106   */\n      lt\n        /* \"#utility.yul\":5084:5087   */\n      0x0133\n        /* \"#utility.yul\":5078:5082   */\n      dup4\n        /* \"#utility.yul\":5075:5088   */\n      lt\n        /* \"#utility.yul\":5071:5107   */\n      and\n        /* \"#utility.yul\":5053:5055   */\n      0x4e\n        /* \"#utility.yul\":5043:5051   */\n      dup5\n        /* \"#utility.yul\":5040:5056   */\n      lt\n        /* \"#utility.yul\":5035:5037   */\n      0x0b\n        /* \"#utility.yul\":5029:5033   */\n      dup5\n        /* \"#utility.yul\":5026:5038   */\n      lt\n        /* \"#utility.yul\":5022:5057   */\n      and\n        /* \"#utility.yul\":5006:5117   */\n      or\n        /* \"#utility.yul\":5003:5249   */\n      iszero\n      tag_202\n      jumpi\n        /* \"#utility.yul\":5159:5167   */\n      dup3\n        /* \"#utility.yul\":5153:5157   */\n      dup3\n        /* \"#utility.yul\":5149:5168   */\n      exp\n        /* \"#utility.yul\":5140:5168   */\n      swap1\n      pop\n        /* \"#utility.yul\":5194:5197   */\n      dup4\n        /* \"#utility.yul\":5187:5192   */\n      dup2\n        /* \"#utility.yul\":5184:5198   */\n      gt\n        /* \"#utility.yul\":5181:5221   */\n      iszero\n      tag_203\n      jumpi\n        /* \"#utility.yul\":5201:5219   */\n      tag_204\n      tag_129\n      jump\t// in\n    tag_204:\n        /* \"#utility.yul\":5181:5221   */\n    tag_203:\n        /* \"#utility.yul\":5234:5239   */\n      jump(tag_192)\n        /* \"#utility.yul\":5003:5249   */\n    tag_202:\n        /* \"#utility.yul\":5274:5316   */\n      tag_205\n        /* \"#utility.yul\":5312:5315   */\n      dup5\n        /* \"#utility.yul\":5302:5310   */\n      dup5\n        /* \"#utility.yul\":5296:5300   */\n      dup5\n        /* \"#utility.yul\":5293:5294   */\n      0x01\n        /* \"#utility.yul\":5274:5316   */\n      tag_131\n      jump\t// in\n    tag_205:\n        /* \"#utility.yul\":5259:5316   */\n      swap3\n      pop\n      swap1\n      pop\n        /* \"#utility.yul\":5348:5352   */\n      dup2\n        /* \"#utility.yul\":5343:5346   */\n      dup5\n        /* \"#utility.yul\":5339:5353   */\n      div\n        /* \"#utility.yul\":5332:5337   */\n      dup2\n        /* \"#utility.yul\":5329:5354   */\n      gt\n        /* \"#utility.yul\":5326:5377   */\n      iszero\n      tag_206\n      jumpi\n        /* \"#utility.yul\":5357:5375   */\n      tag_207\n      tag_129\n      jump\t// in\n    tag_207:\n        /* \"#utility.yul\":5326:5377   */\n    tag_206:\n        /* \"#utility.yul\":5406:5410   */\n      dup2\n        /* \"#utility.yul\":5399:5404   */\n      dup2\n        /* \"#utility.yul\":5395:5411   */\n      mul\n        /* \"#utility.yul\":5386:5411   */\n      swap1\n      pop\n        /* \"#utility.yul\":4344:5417   */\n    tag_192:\n      swap4\n      swap3\n      pop\n      pop\n      pop\n      jump\t// out\n        /* \"#utility.yul\":5423:5509   */\n    tag_133:\n        /* \"#utility.yul\":5458:5465   */\n      0x00\n        /* \"#utility.yul\":5498:5502   */\n      0xff\n        /* \"#utility.yul\":5491:5496   */\n      dup3\n        /* \"#utility.yul\":5487:5503   */\n      and\n        /* \"#utility.yul\":5476:5503   */\n      swap1\n      pop\n        /* \"#utility.yul\":5423:5509   */\n      swap2\n      swap1\n      pop\n      jump\t// out\n        /* \"#utility.yul\":5515:5796   */\n    tag_33:\n        /* \"#utility.yul\":5573:5578   */\n      0x00\n        /* \"#utility.yul\":5597:5620   */\n      tag_210\n        /* \"#utility.yul\":5615:5619   */\n      dup3\n        /* \"#utility.yul\":5597:5620   */\n      tag_116\n      jump\t// in\n    tag_210:\n        /* \"#utility.yul\":5589:5620   */\n      swap2\n      pop\n        /* \"#utility.yul\":5641:5666   */\n      tag_211\n        /* \"#utility.yul\":5657:5665   */\n      dup4\n        /* \"#utility.yul\":5641:5666   */\n      tag_133\n      jump\t// in\n    tag_211:\n        /* \"#utility.yul\":5629:5666   */\n      swap3\n      pop\n        /* \"#utility.yul\":5685:5789   */\n      tag_212\n        /* \"#utility.yul\":5722:5788   */\n      0xffffffffffffffffffffffffffffffffffffffffffffffffffffffffffffffff\n        /* \"#utility.yul\":5712:5720   */\n      dup5\n        /* \"#utility.yul\":5706:5710   */\n      dup5\n        /* \"#utility.yul\":5685:5789   */\n      tag_132\n      jump\t// in\n    tag_212:\n        /* \"#utility.yul\":5676:5789   */\n      swap1\n      pop\n        /* \"#utility.yul\":5515:5796   */\n      swap3\n      swap2\n      pop\n      pop\n      jump\t// out\n        /* \"#utility.yul\":5802:6358   */\n    tag_44:\n        /* \"#utility.yul\":5841:5848   */\n      0x00\n        /* \"#utility.yul\":5864:5883   */\n      tag_214\n        /* \"#utility.yul\":5881:5882   */\n      dup3\n        /* \"#utility.yul\":5864:5883   */\n      tag_124\n      jump\t// in\n    tag_214:\n        /* \"#utility.yul\":5859:5883   */\n      swap2\n      pop\n        /* \"#utility.yul\":5897:5916   */\n      tag_215\n        /* \"#utility.yul\":5914:5915   */\n      dup4\n        /* \"#utility.yul\":5897:5916   */\n      tag_124\n      jump\t// in\n    tag_215:\n        /* \"#utility.yul\":5892:5916   */\n      swap3\n      pop\n        /* \"#utility.yul\":5951:5952   */\n      dup3\n        /* \"#utility.yul\":5948:5949   */\n      dup3\n        /* \"#utility.yul\":5944:5953   */\n      mul\n        /* \"#utility.yul\":5973:6002   */\n      tag_216\n        /* \"#utility.yul\":5990:6001   */\n      dup2\n        /* \"#utility.yul\":5973:6002   */\n      tag_124\n      jump\t// in\n    tag_216:\n        /* \"#utility.yul\":5962:6002   */\n      swap2\n      pop\n        /* \"#utility.yul\":6060:6126   */\n      0x8000000000000000000000000000000000000000000000000000000000000000\n        /* \"#utility.yul\":6057:6058   */\n      dup5\n        /* \"#utility.yul\":6054:6127   */\n      eq\n        /* \"#utility.yul\":6050:6051   */\n      0x00\n        /* \"#utility.yul\":6047:6048   */\n      dup5\n        /* \"#utility.yul\":6043:6052   */\n      slt\n        /* \"#utility.yul\":6039:6128   */\n      and\n        /* \"#utility.yul\":6036:6151   */\n      iszero\n      tag_217\n      jumpi\n        /* \"#utility.yul\":6131:6149   */\n      tag_218\n      tag_129\n      jump\t// in\n    tag_218:\n        /* \"#utility.yul\":6036:6151   */\n    tag_217:\n        /* \"#utility.yul\":6301:6302   */\n      dup3\n        /* \"#utility.yul\":6292:6299   */\n      dup3\n        /* \"#utility.yul\":6287:6303   */\n      sdiv\n        /* \"#utility.yul\":6284:6285   */\n      dup5\n        /* \"#utility.yul\":6281:6304   */\n      eq\n        /* \"#utility.yul\":6261:6262   */\n      dup4\n        /* \"#utility.yul\":6254:6263   */\n      iszero\n        /* \"#utility.yul\":6234:6318   */\n      or\n        /* \"#utility.yul\":6211:6351   */\n      tag_219\n      jumpi\n        /* \"#utility.yul\":6331:6349   */\n      tag_220\n      tag_129\n      jump\t// in\n    tag_220:\n        /* \"#utility.yul\":6211:6351   */\n    tag_219:\n        /* \"#utility.yul\":5849:6358   */\n      pop\n        /* \"#utility.yul\":5802:6358   */\n      swap3\n      swap2\n      pop\n      pop\n      jump\t// out\n        /* \"#utility.yul\":6364:6544   */\n    tag_134:\n        /* \"#utility.yul\":6412:6489   */\n      0x4e487b7100000000000000000000000000000000000000000000000000000000\n        /* \"#utility.yul\":6409:6410   */\n      0x00\n        /* \"#utility.yul\":6402:6490   */\n      mstore\n        /* \"#utility.yul\":6509:6513   */\n      0x12\n        /* \"#utility.yul\":6506:6507   */\n      0x04\n        /* \"#utility.yul\":6499:6514   */\n      mstore\n        /* \"#utility.yul\":6533:6537   */\n      0x24\n        /* \"#utility.yul\":6530:6531   */\n      0x00\n        /* \"#utility.yul\":6523:6538   */\n      revert\n        /* \"#utility.yul\":6550:6935   */\n    tag_46:\n        /* \"#utility.yul\":6589:6590   */\n      0x00\n        /* \"#utility.yul\":6606:6625   */\n      tag_223\n        /* \"#utility.yul\":6623:6624   */\n      dup3\n        /* \"#utility.yul\":6606:6625   */\n      tag_124\n      jump\t// in\n    tag_223:\n        /* \"#utility.yul\":6601:6625   */\n      swap2\n      pop\n        /* \"#utility.yul\":6639:6658   */\n      tag_224\n        /* \"#utility.yul\":6656:6657   */\n      dup4\n        /* \"#utility.yul\":6639:6658   */\n      tag_124\n      jump\t// in\n    tag_224:\n        /* \"#utility.yul\":6634:6658   */\n      swap3\n      pop\n        /* \"#utility.yul\":6677:6678   */\n      dup3\n        /* \"#utility.yul\":6667:6702   */\n      tag_225\n      jumpi\n        /* \"#utility.yul\":6682:6700   */\n      tag_226\n      tag_134\n      jump\t// in\n    tag_226:\n        /* \"#utility.yul\":6667:6702   */\n    tag_225:\n        /* \"#utility.yul\":6868:6869   */\n      0x01\n        /* \"#utility.yul\":6865:6866   */\n      0x00\n        /* \"#utility.yul\":6861:6870   */\n      sub\n        /* \"#utility.yul\":6858:6859   */\n      dup4\n        /* \"#utility.yul\":6855:6871   */\n      eq\n        /* \"#utility.yul\":6774:6840   */\n      0x8000000000000000000000000000000000000000000000000000000000000000\n        /* \"#utility.yul\":6771:6772   */\n      dup4\n        /* \"#utility.yul\":6768:6841   */\n      eq\n        /* \"#utility.yul\":6751:6881   */\n      and\n        /* \"#utility.yul\":6748:6904   */\n      iszero\n      tag_227\n      jumpi\n        /* \"#utility.yul\":6884:6902   */\n      tag_228\n      tag_129\n      jump\t// in\n    tag_228:\n        /* \"#utility.yul\":6748:6904   */\n    tag_227:\n        /* \"#utility.yul\":6927:6928   */\n      dup3\n        /* \"#utility.yul\":6924:6925   */\n      dup3\n        /* \"#utility.yul\":6919:6929   */\n      sdiv\n        /* \"#utility.yul\":6914:6929   */\n      swap1\n      pop\n        /* \"#utility.yul\":6550:6935   */\n      swap3\n      swap2\n      pop\n      pop\n      jump\t// out\n        /* \"#utility.yul\":6941:7026   */\n    tag_135:\n        /* \"#utility.yul\":6986:6993   */\n      0x00\n        /* \"#utility.yul\":7015:7020   */\n      dup2\n        /* \"#utility.yul\":7004:7020   */\n      swap1\n      pop\n        /* \"#utility.yul\":6941:7026   */\n      swap2\n      swap1\n      pop\n      jump\t// out\n        /* \"#utility.yul\":7032:7092   */\n    tag_136:\n        /* \"#utility.yul\":7060:7063   */\n      0x00\n        /* \"#utility.yul\":7081:7086   */\n      dup2\n        /* \"#utility.yul\":7074:7086   */\n      swap1\n      pop\n        /* \"#utility.yul\":7032:7092   */\n      swap2\n      swap1\n      pop\n      jump\t// out\n        /* \"#utility.yul\":7098:7254   */\n    tag_137:\n        /* \"#utility.yul\":7155:7164   */\n      0x00\n        /* \"#utility.yul\":7188:7248   */\n      tag_232\n        /* \"#utility.yul\":7205:7247   */\n      tag_233\n        /* \"#utility.yul\":7214:7246   */\n      tag_234\n        /* \"#utility.yul\":7240:7245   */\n      dup5\n        /* \"#utility.yul\":7214:7246   */\n      tag_135\n      jump\t// in\n    tag_234:\n        /* \"#utility.yul\":7205:7247   */\n      tag_136\n      jump\t// in\n    tag_233:\n        /* \"#utility.yul\":7188:7248   */\n      tag_121\n      jump\t// in\n    tag_232:\n        /* \"#utility.yul\":7175:7248   */\n      swap1\n      pop\n        /* \"#utility.yul\":7098:7254   */\n      swap2\n      swap1\n      pop\n      jump\t// out\n        /* \"#utility.yul\":7260:7405   */\n    tag_138:\n        /* \"#utility.yul\":7354:7398   */\n      tag_236\n        /* \"#utility.yul\":7392:7397   */\n      dup2\n        /* \"#utility.yul\":7354:7398   */\n      tag_137\n      jump\t// in\n    tag_236:\n        /* \"#utility.yul\":7349:7352   */\n      dup3\n        /* \"#utility.yul\":7342:7399   */\n      mstore\n        /* \"#utility.yul\":7260:7405   */\n      pop\n      pop\n      jump\t// out\n        /* \"#utility.yul\":7411:7647   */\n    tag_49:\n        /* \"#utility.yul\":7511:7515   */\n      0x00\n        /* \"#utility.yul\":7549:7551   */\n      0x20\n        /* \"#utility.yul\":7538:7547   */\n      dup3\n        /* \"#utility.yul\":7534:7552   */\n      add\n        /* \"#utility.yul\":7526:7552   */\n      swap1\n      pop\n        /* \"#utility.yul\":7562:7640   */\n      tag_238\n        /* \"#utility.yul\":7637:7638   */\n      0x00\n        /* \"#utility.yul\":7626:7635   */\n      dup4\n        /* \"#utility.yul\":7622:7639   */\n      add\n        /* \"#utility.yul\":7613:7619   */\n      dup5\n        /* \"#utility.yul\":7562:7640   */\n      tag_138\n      jump\t// in\n    tag_238:\n        /* \"#utility.yul\":7411:7647   */\n      swap3\n      swap2\n      pop\n      pop\n      jump\t// out\n        /* \"#utility.yul\":7653:7730   */\n    tag_139:\n        /* \"#utility.yul\":7690:7697   */\n      0x00\n        /* \"#utility.yul\":7719:7724   */\n      dup2\n        /* \"#utility.yul\":7708:7724   */\n      swap1\n      pop\n        /* \"#utility.yul\":7653:7730   */\n      swap2\n      swap1\n      pop\n      jump\t// out\n        /* \"#utility.yul\":7736:7858   */\n    tag_140:\n        /* \"#utility.yul\":7809:7833   */\n      tag_241\n        /* \"#utility.yul\":7827:7832   */\n      dup2\n        /* \"#utility.yul\":7809:7833   */\n      tag_139\n      jump\t// in\n    tag_241:\n        /* \"#utility.yul\":7802:7807   */\n      dup2\n        /* \"#utility.yul\":7799:7834   */\n      eq\n        /* \"#utility.yul\":7789:7852   */\n      tag_242\n      jumpi\n        /* \"#utility.yul\":7848:7849   */\n      0x00\n        /* \"#utility.yul\":7845:7846   */\n      dup1\n        /* \"#utility.yul\":7838:7850   */\n      revert\n        /* \"#utility.yul\":7789:7852   */\n    tag_242:\n        /* \"#utility.yul\":7736:7858   */\n      pop\n      jump\t// out\n        /* \"#utility.yul\":7864:8007   */\n    tag_141:\n        /* \"#utility.yul\":7921:7926   */\n      0x00\n        /* \"#utility.yul\":7952:7958   */\n      dup2\n        /* \"#utility.yul\":7946:7959   */\n      mload\n        /* \"#utility.yul\":7937:7959   */\n      swap1\n      pop\n        /* \"#utility.yul\":7968:8001   */\n      tag_244\n        /* \"#utility.yul\":7995:8000   */\n      dup2\n        /* \"#utility.yul\":7968:8001   */\n      tag_140\n      jump\t// in\n    tag_244:\n        /* \"#utility.yul\":7864:8007   */\n      swap3\n      swap2\n      pop\n      pop\n      jump\t// out\n        /* \"#utility.yul\":8013:8103   */\n    tag_142:\n        /* \"#utility.yul\":8047:8054   */\n      0x00\n        /* \"#utility.yul\":8090:8095   */\n      dup2\n        /* \"#utility.yul\":8083:8096   */\n      iszero\n        /* \"#utility.yul\":8076:8097   */\n      iszero\n        /* \"#utility.yul\":8065:8097   */\n      swap1\n      pop\n        /* \"#utility.yul\":8013:8103   */\n      swap2\n      swap1\n      pop\n      jump\t// out\n        /* \"#utility.yul\":8109:8225   */\n    tag_143:\n        /* \"#utility.yul\":8179:8200   */\n      tag_247\n        /* \"#utility.yul\":8194:8199   */\n      dup2\n        /* \"#utility.yul\":8179:8200   */\n      tag_142\n      jump\t// in\n    tag_247:\n        /* \"#utility.yul\":8172:8177   */\n      dup2\n        /* \"#utility.yul\":8169:8201   */\n      eq\n        /* \"#utility.yul\":8159:8219   */\n      tag_248\n      jumpi\n        /* \"#utility.yul\":8215:8216   */\n      0x00\n        /* \"#utility.yul\":8212:8213   */\n      dup1\n        /* \"#utility.yul\":8205:8217   */\n      revert\n        /* \"#utility.yul\":8159:8219   */\n    tag_248:\n        /* \"#utility.yul\":8109:8225   */\n      pop\n      jump\t// out\n        /* \"#utility.yul\":8231:8368   */\n    tag_144:\n        /* \"#utility.yul\":8285:8290   */\n      0x00\n        /* \"#utility.yul\":8316:8322   */\n      dup2\n        /* \"#utility.yul\":8310:8323   */\n      mload\n        /* \"#utility.yul\":8301:8323   */\n      swap1\n      pop\n        /* \"#utility.yul\":8332:8362   */\n      tag_250\n        /* \"#utility.yul\":8356:8361   */\n      dup2\n        /* \"#utility.yul\":8332:8362   */\n      tag_143\n      jump\t// in\n    tag_250:\n        /* \"#utility.yul\":8231:8368   */\n      swap3\n      swap2\n      pop\n      pop\n      jump\t// out\n        /* \"#utility.yul\":8374:8875   */\n    tag_53:\n        /* \"#utility.yul\":8450:8456   */\n      0x00\n        /* \"#utility.yul\":8458:8464   */\n      dup1\n        /* \"#utility.yul\":8507:8509   */\n      0x40\n        /* \"#utility.yul\":8495:8504   */\n      dup4\n        /* \"#utility.yul\":8486:8493   */\n      dup6\n        /* \"#utility.yul\":8482:8505   */\n      sub\n        /* \"#utility.yul\":8478:8510   */\n      slt\n        /* \"#utility.yul\":8475:8594   */\n      iszero\n      tag_252\n      jumpi\n        /* \"#utility.yul\":8513:8592   */\n      tag_253\n      tag_119\n      jump\t// in\n    tag_253:\n        /* \"#utility.yul\":8475:8594   */\n    tag_252:\n        /* \"#utility.yul\":8633:8634   */\n      0x00\n        /* \"#utility.yul\":8658:8722   */\n      tag_254\n        /* \"#utility.yul\":8714:8721   */\n      dup6\n        /* \"#utility.yul\":8705:8711   */\n      dup3\n        /* \"#utility.yul\":8694:8703   */\n      dup7\n        /* \"#utility.yul\":8690:8712   */\n      add\n        /* \"#utility.yul\":8658:8722   */\n      tag_141\n      jump\t// in\n    tag_254:\n        /* \"#utility.yul\":8648:8722   */\n      swap3\n      pop\n        /* \"#utility.yul\":8604:8732   */\n      pop\n        /* \"#utility.yul\":8771:8773   */\n      0x20\n        /* \"#utility.yul\":8797:8858   */\n      tag_255\n        /* \"#utility.yul\":8850:8857   */\n      dup6\n        /* \"#utility.yul\":8841:8847   */\n      dup3\n        /* \"#utility.yul\":8830:8839   */\n      dup7\n        /* \"#utility.yul\":8826:8848   */\n      add\n        /* \"#utility.yul\":8797:8858   */\n      tag_144\n      jump\t// in\n    tag_255:\n        /* \"#utility.yul\":8787:8858   */\n      swap2\n      pop\n        /* \"#utility.yul\":8742:8868   */\n      pop\n        /* \"#utility.yul\":8374:8875   */\n      swap3\n      pop\n      swap3\n      swap1\n      pop\n      jump\t// out\n        /* \"#utility.yul\":8881:9061   */\n    tag_58:\n        /* \"#utility.yul\":8929:9006   */\n      0x4e487b7100000000000000000000000000000000000000000000000000000000\n        /* \"#utility.yul\":8926:8927   */\n      0x00\n        /* \"#utility.yul\":8919:9007   */\n      mstore\n        /* \"#utility.yul\":9026:9030   */\n      0x32\n        /* \"#utility.yul\":9023:9024   */\n      0x04\n        /* \"#utility.yul\":9016:9031   */\n      mstore\n        /* \"#utility.yul\":9050:9054   */\n      0x24\n        /* \"#utility.yul\":9047:9048   */\n      0x00\n        /* \"#utility.yul\":9040:9055   */\n      revert\n        /* \"#utility.yul\":9067:9182   */\n    tag_145:\n        /* \"#utility.yul\":9152:9175   */\n      tag_258\n        /* \"#utility.yul\":9169:9174   */\n      dup2\n        /* \"#utility.yul\":9152:9175   */\n      tag_121\n      jump\t// in\n    tag_258:\n        /* \"#utility.yul\":9147:9150   */\n      dup3\n        /* \"#utility.yul\":9140:9176   */\n      mstore\n        /* \"#utility.yul\":9067:9182   */\n      pop\n      pop\n      jump\t// out\n        /* \"#utility.yul\":9188:9406   */\n    tag_61:\n        /* \"#utility.yul\":9279:9283   */\n      0x00\n        /* \"#utility.yul\":9317:9319   */\n      0x20\n        /* \"#utility.yul\":9306:9315   */\n      dup3\n        /* \"#utility.yul\":9302:9320   */\n      add\n        /* \"#utility.yul\":9294:9320   */\n      swap1\n      pop\n        /* \"#utility.yul\":9330:9399   */\n      tag_260\n        /* \"#utility.yul\":9396:9397   */\n      0x00\n        /* \"#utility.yul\":9385:9394   */\n      dup4\n        /* \"#utility.yul\":9381:9398   */\n      add\n        /* \"#utility.yul\":9372:9378   */\n      dup5\n        /* \"#utility.yul\":9330:9399   */\n      tag_145\n      jump\t// in\n    tag_260:\n        /* \"#utility.yul\":9188:9406   */\n      swap3\n      swap2\n      pop\n      pop\n      jump\t// out\n        /* \"#utility.yul\":9412:9606   */\n    tag_79:\n        /* \"#utility.yul\":9452:9456   */\n      0x00\n        /* \"#utility.yul\":9472:9492   */\n      tag_262\n        /* \"#utility.yul\":9490:9491   */\n      dup3\n        /* \"#utility.yul\":9472:9492   */\n      tag_116\n      jump\t// in\n    tag_262:\n        /* \"#utility.yul\":9467:9492   */\n      swap2\n      pop\n        /* \"#utility.yul\":9506:9526   */\n      tag_263\n        /* \"#utility.yul\":9524:9525   */\n      dup4\n        /* \"#utility.yul\":9506:9526   */\n      tag_116\n      jump\t// in\n    tag_263:\n        /* \"#utility.yul\":9501:9526   */\n      swap3\n      pop\n        /* \"#utility.yul\":9550:9551   */\n      dup3\n        /* \"#utility.yul\":9547:9548   */\n      dup3\n        /* \"#utility.yul\":9543:9552   */\n      sub\n        /* \"#utility.yul\":9535:9552   */\n      swap1\n      pop\n        /* \"#utility.yul\":9574:9575   */\n      dup2\n        /* \"#utility.yul\":9568:9572   */\n      dup2\n        /* \"#utility.yul\":9565:9576   */\n      gt\n        /* \"#utility.yul\":9562:9599   */\n      iszero\n      tag_264\n      jumpi\n        /* \"#utility.yul\":9579:9597   */\n      tag_265\n      tag_129\n      jump\t// in\n    tag_265:\n        /* \"#utility.yul\":9562:9599   */\n    tag_264:\n        /* \"#utility.yul\":9412:9606   */\n      swap3\n      swap2\n      pop\n      pop\n      jump\t// out\n        /* \"#utility.yul\":9612:9897   */\n    tag_81:\n        /* \"#utility.yul\":9672:9677   */\n      0x00\n        /* \"#utility.yul\":9696:9719   */\n      tag_267\n        /* \"#utility.yul\":9714:9718   */\n      dup3\n        /* \"#utility.yul\":9696:9719   */\n      tag_116\n      jump\t// in\n    tag_267:\n        /* \"#utility.yul\":9688:9719   */\n      swap2\n      pop\n        /* \"#utility.yul\":9740:9767   */\n      tag_268\n        /* \"#utility.yul\":9758:9766   */\n      dup4\n        /* \"#utility.yul\":9740:9767   */\n      tag_116\n      jump\t// in\n    tag_268:\n        /* \"#utility.yul\":9728:9767   */\n      swap3\n      pop\n        /* \"#utility.yul\":9786:9890   */\n      tag_269\n        /* \"#utility.yul\":9823:9889   */\n      0xffffffffffffffffffffffffffffffffffffffffffffffffffffffffffffffff\n        /* \"#utility.yul\":9813:9821   */\n      dup5\n        /* \"#utility.yul\":9807:9811   */\n      dup5\n        /* \"#utility.yul\":9786:9890   */\n      tag_132\n      jump\t// in\n    tag_269:\n        /* \"#utility.yul\":9777:9890   */\n      swap1\n      pop\n        /* \"#utility.yul\":9612:9897   */\n      swap3\n      swap2\n      pop\n      pop\n      jump\t// out\n        /* \"#utility.yul\":9903:10313   */\n    tag_83:\n        /* \"#utility.yul\":9943:9950   */\n      0x00\n        /* \"#utility.yul\":9966:9986   */\n      tag_271\n        /* \"#utility.yul\":9984:9985   */\n      dup3\n        /* \"#utility.yul\":9966:9986   */\n      tag_116\n      jump\t// in\n    tag_271:\n        /* \"#utility.yul\":9961:9986   */\n      swap2\n      pop\n        /* \"#utility.yul\":10000:10020   */\n      tag_272\n        /* \"#utility.yul\":10018:10019   */\n      dup4\n        /* \"#utility.yul\":10000:10020   */\n      tag_116\n      jump\t// in\n    tag_272:\n        /* \"#utility.yul\":9995:10020   */\n      swap3\n      pop\n        /* \"#utility.yul\":10055:10056   */\n      dup3\n        /* \"#utility.yul\":10052:10053   */\n      dup3\n        /* \"#utility.yul\":10048:10057   */\n      mul\n        /* \"#utility.yul\":10077:10107   */\n      tag_273\n        /* \"#utility.yul\":10095:10106   */\n      dup2\n        /* \"#utility.yul\":10077:10107   */\n      tag_116\n      jump\t// in\n    tag_273:\n        /* \"#utility.yul\":10066:10107   */\n      swap2\n      pop\n        /* \"#utility.yul\":10256:10257   */\n      dup3\n        /* \"#utility.yul\":10247:10254   */\n      dup3\n        /* \"#utility.yul\":10243:10258   */\n      div\n        /* \"#utility.yul\":10240:10241   */\n      dup5\n        /* \"#utility.yul\":10237:10259   */\n      eq\n        /* \"#utility.yul\":10217:10218   */\n      dup4\n        /* \"#utility.yul\":10210:10219   */\n      iszero\n        /* \"#utility.yul\":10190:10273   */\n      or\n        /* \"#utility.yul\":10167:10306   */\n      tag_274\n      jumpi\n        /* \"#utility.yul\":10286:10304   */\n      tag_275\n      tag_129\n      jump\t// in\n    tag_275:\n        /* \"#utility.yul\":10167:10306   */\n    tag_274:\n        /* \"#utility.yul\":9951:10313   */\n      pop\n        /* \"#utility.yul\":9903:10313   */\n      swap3\n      swap2\n      pop\n      pop\n      jump\t// out\n        /* \"#utility.yul\":10319:10504   */\n    tag_89:\n        /* \"#utility.yul\":10359:10360   */\n      0x00\n        /* \"#utility.yul\":10376:10396   */\n      tag_277\n        /* \"#utility.yul\":10394:10395   */\n      dup3\n        /* \"#utility.yul\":10376:10396   */\n      tag_116\n      jump\t// in\n    tag_277:\n        /* \"#utility.yul\":10371:10396   */\n      swap2\n      pop\n        /* \"#utility.yul\":10410:10430   */\n      tag_278\n        /* \"#utility.yul\":10428:10429   */\n      dup4\n        /* \"#utility.yul\":10410:10430   */\n      tag_116\n      jump\t// in\n    tag_278:\n        /* \"#utility.yul\":10405:10430   */\n      swap3\n      pop\n        /* \"#utility.yul\":10449:10450   */\n      dup3\n        /* \"#utility.yul\":10439:10474   */\n      tag_279\n      jumpi\n        /* \"#utility.yul\":10454:10472   */\n      tag_280\n      tag_134\n      jump\t// in\n    tag_280:\n        /* \"#utility.yul\":10439:10474   */\n    tag_279:\n        /* \"#utility.yul\":10496:10497   */\n      dup3\n        /* \"#utility.yul\":10493:10494   */\n      dup3\n        /* \"#utility.yul\":10489:10498   */\n      div\n        /* \"#utility.yul\":10484:10498   */\n      swap1\n      pop\n        /* \"#utility.yul\":10319:10504   */\n      swap3\n      swap2\n      pop\n      pop\n      jump\t// out\n        /* \"#utility.yul\":10510:10589   */\n    tag_146:\n        /* \"#utility.yul\":10549:10556   */\n      0x00\n        /* \"#utility.yul\":10578:10583   */\n      dup2\n        /* \"#utility.yul\":10567:10583   */\n      swap1\n      pop\n        /* \"#utility.yul\":10510:10589   */\n      swap2\n      swap1\n      pop\n      jump\t// out\n        /* \"#utility.yul\":10595:10752   */\n    tag_147:\n        /* \"#utility.yul\":10700:10745   */\n      tag_283\n        /* \"#utility.yul\":10720:10744   */\n      tag_284\n        /* \"#utility.yul\":10738:10743   */\n      dup3\n        /* \"#utility.yul\":10720:10744   */\n      tag_139\n      jump\t// in\n    tag_284:\n        /* \"#utility.yul\":10700:10745   */\n      tag_146\n      jump\t// in\n    tag_283:\n        /* \"#utility.yul\":10695:10698   */\n      dup3\n        /* \"#utility.yul\":10688:10746   */\n      mstore\n        /* \"#utility.yul\":10595:10752   */\n      pop\n      pop\n      jump\t// out\n        /* \"#utility.yul\":10758:11014   */\n    tag_96:\n        /* \"#utility.yul\":10870:10873   */\n      0x00\n        /* \"#utility.yul\":10885:10960   */\n      tag_286\n        /* \"#utility.yul\":10956:10959   */\n      dup3\n        /* \"#utility.yul\":10947:10953   */\n      dup5\n        /* \"#utility.yul\":10885:10960   */\n      tag_147\n      jump\t// in\n    tag_286:\n        /* \"#utility.yul\":10985:10987   */\n      0x20\n        /* \"#utility.yul\":10980:10983   */\n      dup3\n        /* \"#utility.yul\":10976:10988   */\n      add\n        /* \"#utility.yul\":10969:10988   */\n      swap2\n      pop\n        /* \"#utility.yul\":11005:11008   */\n      dup2\n        /* \"#utility.yul\":10998:11008   */\n      swap1\n      pop\n        /* \"#utility.yul\":10758:11014   */\n      swap3\n      swap2\n      pop\n      pop\n      jump\t// out\n        /* \"#utility.yul\":11020:11193   */\n    tag_148:\n        /* \"#utility.yul\":11160:11185   */\n      0x6279746573206c656e677468206973206e6f742033322e000000000000000000\n        /* \"#utility.yul\":11156:11157   */\n      0x00\n        /* \"#utility.yul\":11148:11154   */\n      dup3\n        /* \"#utility.yul\":11144:11158   */\n      add\n        /* \"#utility.yul\":11137:11186   */\n      mstore\n        /* \"#utility.yul\":11020:11193   */\n      pop\n      jump\t// out\n        /* \"#utility.yul\":11199:11565   */\n    tag_149:\n        /* \"#utility.yul\":11341:11344   */\n      0x00\n        /* \"#utility.yul\":11362:11429   */\n      tag_289\n        /* \"#utility.yul\":11426:11428   */\n      0x17\n        /* \"#utility.yul\":11421:11424   */\n      dup4\n        /* \"#utility.yul\":11362:11429   */\n      tag_126\n      jump\t// in\n    tag_289:\n        /* \"#utility.yul\":11355:11429   */\n      swap2\n      pop\n        /* \"#utility.yul\":11438:11531   */\n      tag_290\n        /* \"#utility.yul\":11527:11530   */\n      dup3\n        /* \"#utility.yul\":11438:11531   */\n      tag_148\n      jump\t// in\n    tag_290:\n        /* \"#utility.yul\":11556:11558   */\n      0x20\n        /* \"#utility.yul\":11551:11554   */\n      dup3\n        /* \"#utility.yul\":11547:11559   */\n      add\n        /* \"#utility.yul\":11540:11559   */\n      swap1\n      pop\n        /* \"#utility.yul\":11199:11565   */\n      swap2\n      swap1\n      pop\n      jump\t// out\n        /* \"#utility.yul\":11571:11990   */\n    tag_115:\n        /* \"#utility.yul\":11737:11741   */\n      0x00\n        /* \"#utility.yul\":11775:11777   */\n      0x20\n        /* \"#utility.yul\":11764:11773   */\n      dup3\n        /* \"#utility.yul\":11760:11778   */\n      add\n        /* \"#utility.yul\":11752:11778   */\n      swap1\n      pop\n        /* \"#utility.yul\":11824:11833   */\n      dup2\n        /* \"#utility.yul\":11818:11822   */\n      dup2\n        /* \"#utility.yul\":11814:11834   */\n      sub\n        /* \"#utility.yul\":11810:11811   */\n      0x00\n        /* \"#utility.yul\":11799:11808   */\n      dup4\n        /* \"#utility.yul\":11795:11812   */\n      add\n        /* \"#utility.yul\":11788:11835   */\n      mstore\n        /* \"#utility.yul\":11852:11983   */\n      tag_292\n        /* \"#utility.yul\":11978:11982   */\n      dup2\n        /* \"#utility.yul\":11852:11983   */\n      tag_149\n      jump\t// in\n    tag_292:\n        /* \"#utility.yul\":11844:11983   */\n      swap1\n      pop\n        /* \"#utility.yul\":11571:11990   */\n      swap2\n      swap1\n      pop\n      jump\t// out\n\n    auxdata: 0xa26469706673582212202d51f91fbbbb58ff4c32b42046c0db93a6f7a28313c6123542b9acd993ae261764736f6c63430008150033\n}\n",
				"bytecode": {
					"linkReferences": {},
					"object": "6080604052600860035f6101000a81548160ff021916908360ff1602179055503480156200002b575f80fd5b5060405162000f6238038062000f62833981810160405281019062000051919062000111565b80600360016101000a81548173ffffffffffffffffffffffffffffffffffffffff021916908373ffffffffffffffffffffffffffffffffffffffff1602179055505062000141565b5f80fd5b5f73ffffffffffffffffffffffffffffffffffffffff82169050919050565b5f620000c8826200009d565b9050919050565b5f620000db82620000bc565b9050919050565b620000ed81620000cf565b8114620000f8575f80fd5b50565b5f815190506200010b81620000e2565b92915050565b5f6020828403121562000129576200012862000099565b5b5f6200013884828501620000fb565b91505092915050565b610e13806200014f5f395ff3fe608060405234801561000f575f80fd5b5060043610610055575f3560e01c8063313ce567146100595780633552f434146100775780636984d070146100a7578063a035b1fe146100c5578063a2e800ad146100e3575b5f80fd5b610061610101565b60405161006e91906106f9565b60405180910390f35b610091600480360381019061008c9190610753565b610107565b60405161009e91906107a9565b60405180910390f35b6100af610231565b6040516100bc91906106f9565b60405180910390f35b6100cd610309565b6040516100da91906106f9565b60405180910390f35b6100eb61030e565b6040516100f891906106f9565b60405180910390f35b60015481565b5f8060ff1660035f9054906101000a900460ff1660ff161180156101405750601260ff1660035f9054906101000a900460ff1660ff1611155b61017f576040517f08c379a00000000000000000000000000000000000000000000000000000000081526004016101769061081c565b60405180910390fd5b5f60035f9054906101000a900460ff16600a61019b91906109a2565b90505f6101a785610314565b90505f6101b3866103e5565b90505f6101d2838360035f9054906101000a900460ff1660ff166104b6565b90505f6101de87610314565b90505f6101ea886103e5565b90505f610209838360035f9054906101000a900460ff1660ff166104b6565b905080878561021891906109ec565b6102229190610a8f565b97505050505050505092915050565b5f80600360019054906101000a900473ffffffffffffffffffffffffffffffffffffffff1673ffffffffffffffffffffffffffffffffffffffff166398f93a9660016040518263ffffffff1660e01b815260040161028f9190610b39565b6040805180830381865afa1580156102a9573d5f803e3d5ffd5b505050506040513d601f19601f820116820180604052508101906102cd9190610bba565b5090505f6102da82610526565b90505f815f600481106102f0576102ef610bf8565b5b6020020151905080600281905550600254935050505090565b5f5481565b60025481565b5f80600360019054906101000a900473ffffffffffffffffffffffffffffffffffffffff1673ffffffffffffffffffffffffffffffffffffffff166398f93a96846040518263ffffffff1660e01b81526004016103719190610c34565b6040805180830381865afa15801561038b573d5f803e3d5ffd5b505050506040513d601f19601f820116820180604052508101906103af9190610bba565b5090505f6103bc82610526565b90505f816003600481106103d3576103d2610bf8565b5b60200201519050809350505050919050565b5f80600360019054906101000a900473ffffffffffffffffffffffffffffffffffffffff1673ffffffffffffffffffffffffffffffffffffffff166398f93a96846040518263ffffffff1660e01b81526004016104429190610c34565b6040805180830381865afa15801561045c573d5f803e3d5ffd5b505050506040513d601f19601f820116820180604052508101906104809190610bba565b5090505f61048d82610526565b90505f816001600481106104a4576104a3610bf8565b5b60200201519050809350505050919050565b5f818310156104e95782826104cb9190610c4d565b600a6104d79190610c80565b846104e29190610cca565b905061051f565b8183111561051b5781836104fd9190610c4d565b600a6105099190610c80565b846105149190610d0b565b905061051f565b8390505b9392505050565b61052e6106bf565b6105366106bf565b61056260c084901c60405160200161054e9190610d5b565b60405160208183030381529060405261066e565b815f6004811061057557610574610bf8565b5b6020020181815250506105ae60f8604085901b901c60405160200161059a9190610d5b565b60405160208183030381529060405261066e565b816001600481106105c2576105c1610bf8565b5b6020020181815250506105fb60c0604885901b901c6040516020016105e79190610d5b565b60405160208183030381529060405261066e565b8160026004811061060f5761060e610bf8565b5b60200201818152505061064860a0608885901b901c6040516020016106349190610d5b565b60405160208183030381529060405261066e565b8160036004811061065c5761065b610bf8565b5b60200201818152505080915050919050565b5f60208251146106b3576040517f08c379a00000000000000000000000000000000000000000000000000000000081526004016106aa90610dbf565b60405180910390fd5b60208201519050919050565b6040518060800160405280600490602082028036833780820191505090505090565b5f819050919050565b6106f3816106e1565b82525050565b5f60208201905061070c5f8301846106ea565b92915050565b5f80fd5b5f67ffffffffffffffff82169050919050565b61073281610716565b811461073c575f80fd5b50565b5f8135905061074d81610729565b92915050565b5f806040838503121561076957610768610712565b5b5f6107768582860161073f565b92505060206107878582860161073f565b9150509250929050565b5f819050919050565b6107a381610791565b82525050565b5f6020820190506107bc5f83018461079a565b92915050565b5f82825260208201905092915050565b7f556e737570706f7274656420446563696d616c730000000000000000000000005f82015250565b5f6108066014836107c2565b9150610811826107d2565b602082019050919050565b5f6020820190508181035f830152610833816107fa565b9050919050565b7f4e487b71000000000000000000000000000000000000000000000000000000005f52601160045260245ffd5b5f8160011c9050919050565b5f808291508390505b60018511156108bc578086048111156108985761089761083a565b5b60018516156108a75780820291505b80810290506108b585610867565b945061087c565b94509492505050565b5f826108d4576001905061098f565b816108e1575f905061098f565b81600181146108f7576002811461090157610930565b600191505061098f565b60ff8411156109135761091261083a565b5b8360020a91508482111561092a5761092961083a565b5b5061098f565b5060208310610133831016604e8410600b84101617156109655782820a9050838111156109605761095f61083a565b5b61098f565b6109728484846001610873565b925090508184048111156109895761098861083a565b5b81810290505b9392505050565b5f60ff82169050919050565b5f6109ac826106e1565b91506109b783610996565b92506109e47fffffffffffffffffffffffffffffffffffffffffffffffffffffffffffffffff84846108c5565b905092915050565b5f6109f682610791565b9150610a0183610791565b9250828202610a0f81610791565b91507f800000000000000000000000000000000000000000000000000000000000000084145f84121615610a4657610a4561083a565b5b8282058414831517610a5b57610a5a61083a565b5b5092915050565b7f4e487b71000000000000000000000000000000000000000000000000000000005f52601260045260245ffd5b5f610a9982610791565b9150610aa483610791565b925082610ab457610ab3610a62565b5b60015f0383147f800000000000000000000000000000000000000000000000000000000000000083141615610aec57610aeb61083a565b5b828205905092915050565b5f819050919050565b5f819050919050565b5f610b23610b1e610b1984610af7565b610b00565b610716565b9050919050565b610b3381610b09565b82525050565b5f602082019050610b4c5f830184610b2a565b92915050565b5f819050919050565b610b6481610b52565b8114610b6e575f80fd5b50565b5f81519050610b7f81610b5b565b92915050565b5f8115159050919050565b610b9981610b85565b8114610ba3575f80fd5b50565b5f81519050610bb481610b90565b92915050565b5f8060408385031215610bd057610bcf610712565b5b5f610bdd85828601610b71565b9250506020610bee85828601610ba6565b9150509250929050565b7f4e487b71000000000000000000000000000000000000000000000000000000005f52603260045260245ffd5b610c2e81610716565b82525050565b5f602082019050610c475f830184610c25565b92915050565b5f610c57826106e1565b9150610c62836106e1565b9250828203905081811115610c7a57610c7961083a565b5b92915050565b5f610c8a826106e1565b9150610c95836106e1565b9250610cc27fffffffffffffffffffffffffffffffffffffffffffffffffffffffffffffffff84846108c5565b905092915050565b5f610cd4826106e1565b9150610cdf836106e1565b9250828202610ced816106e1565b91508282048414831517610d0457610d0361083a565b5b5092915050565b5f610d15826106e1565b9150610d20836106e1565b925082610d3057610d2f610a62565b5b828204905092915050565b5f819050919050565b610d55610d5082610b52565b610d3b565b82525050565b5f610d668284610d44565b60208201915081905092915050565b7f6279746573206c656e677468206973206e6f742033322e0000000000000000005f82015250565b5f610da96017836107c2565b9150610db482610d75565b602082019050919050565b5f6020820190508181035f830152610dd681610d9d565b905091905056fea26469706673582212202d51f91fbbbb58ff4c32b42046c0db93a6f7a28313c6123542b9acd993ae261764736f6c63430008150033",
					"opcodes": "PUSH1 0x80 PUSH1 0x40 MSTORE PUSH1 0x8 PUSH1 0x3 PUSH0 PUSH2 0x100 EXP DUP2 SLOAD DUP2 PUSH1 0xFF MUL NOT AND SWAP1 DUP4 PUSH1 0xFF AND MUL OR SWAP1 SSTORE POP CALLVALUE DUP1 ISZERO PUSH3 0x2B JUMPI PUSH0 DUP1 REVERT JUMPDEST POP PUSH1 0x40 MLOAD PUSH3 0xF62 CODESIZE SUB DUP1 PUSH3 0xF62 DUP4 CODECOPY DUP2 DUP2 ADD PUSH1 0x40 MSTORE DUP2 ADD SWAP1 PUSH3 0x51 SWAP2 SWAP1 PUSH3 0x111 JUMP JUMPDEST DUP1 PUSH1 0x3 PUSH1 0x1 PUSH2 0x100 EXP DUP2 SLOAD DUP2 PUSH20 0xFFFFFFFFFFFFFFFFFFFFFFFFFFFFFFFFFFFFFFFF MUL NOT AND SWAP1 DUP4 PUSH20 0xFFFFFFFFFFFFFFFFFFFFFFFFFFFFFFFFFFFFFFFF AND MUL OR SWAP1 SSTORE POP POP PUSH3 0x141 JUMP JUMPDEST PUSH0 DUP1 REVERT JUMPDEST PUSH0 PUSH20 0xFFFFFFFFFFFFFFFFFFFFFFFFFFFFFFFFFFFFFFFF DUP3 AND SWAP1 POP SWAP2 SWAP1 POP JUMP JUMPDEST PUSH0 PUSH3 0xC8 DUP3 PUSH3 0x9D JUMP JUMPDEST SWAP1 POP SWAP2 SWAP1 POP JUMP JUMPDEST PUSH0 PUSH3 0xDB DUP3 PUSH3 0xBC JUMP JUMPDEST SWAP1 POP SWAP2 SWAP1 POP JUMP JUMPDEST PUSH3 0xED DUP2 PUSH3 0xCF JUMP JUMPDEST DUP2 EQ PUSH3 0xF8 JUMPI PUSH0 DUP1 REVERT JUMPDEST POP JUMP JUMPDEST PUSH0 DUP2 MLOAD SWAP1 POP PUSH3 0x10B DUP2 PUSH3 0xE2 JUMP JUMPDEST SWAP3 SWAP2 POP POP JUMP JUMPDEST PUSH0 PUSH1 0x20 DUP3 DUP5 SUB SLT ISZERO PUSH3 0x129 JUMPI PUSH3 0x128 PUSH3 0x99 JUMP JUMPDEST JUMPDEST PUSH0 PUSH3 0x138 DUP5 DUP3 DUP6 ADD PUSH3 0xFB JUMP JUMPDEST SWAP2 POP POP SWAP3 SWAP2 POP POP JUMP JUMPDEST PUSH2 0xE13 DUP1 PUSH3 0x14F PUSH0 CODECOPY PUSH0 RETURN INVALID PUSH1 0x80 PUSH1 0x40 MSTORE CALLVALUE DUP1 ISZERO PUSH2 0xF JUMPI PUSH0 DUP1 REVERT JUMPDEST POP PUSH1 0x4 CALLDATASIZE LT PUSH2 0x55 JUMPI PUSH0 CALLDATALOAD PUSH1 0xE0 SHR DUP1 PUSH4 0x313CE567 EQ PUSH2 0x59 JUMPI DUP1 PUSH4 0x3552F434 EQ PUSH2 0x77 JUMPI DUP1 PUSH4 0x6984D070 EQ PUSH2 0xA7 JUMPI DUP1 PUSH4 0xA035B1FE EQ PUSH2 0xC5 JUMPI DUP1 PUSH4 0xA2E800AD EQ PUSH2 0xE3 JUMPI JUMPDEST PUSH0 DUP1 REVERT JUMPDEST PUSH2 0x61 PUSH2 0x101 JUMP JUMPDEST PUSH1 0x40 MLOAD PUSH2 0x6E SWAP2 SWAP1 PUSH2 0x6F9 JUMP JUMPDEST PUSH1 0x40 MLOAD DUP1 SWAP2 SUB SWAP1 RETURN JUMPDEST PUSH2 0x91 PUSH1 0x4 DUP1 CALLDATASIZE SUB DUP2 ADD SWAP1 PUSH2 0x8C SWAP2 SWAP1 PUSH2 0x753 JUMP JUMPDEST PUSH2 0x107 JUMP JUMPDEST PUSH1 0x40 MLOAD PUSH2 0x9E SWAP2 SWAP1 PUSH2 0x7A9 JUMP JUMPDEST PUSH1 0x40 MLOAD DUP1 SWAP2 SUB SWAP1 RETURN JUMPDEST PUSH2 0xAF PUSH2 0x231 JUMP JUMPDEST PUSH1 0x40 MLOAD PUSH2 0xBC SWAP2 SWAP1 PUSH2 0x6F9 JUMP JUMPDEST PUSH1 0x40 MLOAD DUP1 SWAP2 SUB SWAP1 RETURN JUMPDEST PUSH2 0xCD PUSH2 0x309 JUMP JUMPDEST PUSH1 0x40 MLOAD PUSH2 0xDA SWAP2 SWAP1 PUSH2 0x6F9 JUMP JUMPDEST PUSH1 0x40 MLOAD DUP1 SWAP2 SUB SWAP1 RETURN JUMPDEST PUSH2 0xEB PUSH2 0x30E JUMP JUMPDEST PUSH1 0x40 MLOAD PUSH2 0xF8 SWAP2 SWAP1 PUSH2 0x6F9 JUMP JUMPDEST PUSH1 0x40 MLOAD DUP1 SWAP2 SUB SWAP1 RETURN JUMPDEST PUSH1 0x1 SLOAD DUP2 JUMP JUMPDEST PUSH0 DUP1 PUSH1 0xFF AND PUSH1 0x3 PUSH0 SWAP1 SLOAD SWAP1 PUSH2 0x100 EXP SWAP1 DIV PUSH1 0xFF AND PUSH1 0xFF AND GT DUP1 ISZERO PUSH2 0x140 JUMPI POP PUSH1 0x12 PUSH1 0xFF AND PUSH1 0x3 PUSH0 SWAP1 SLOAD SWAP1 PUSH2 0x100 EXP SWAP1 DIV PUSH1 0xFF AND PUSH1 0xFF AND GT ISZERO JUMPDEST PUSH2 0x17F JUMPI PUSH1 0x40 MLOAD PUSH32 0x8C379A000000000000000000000000000000000000000000000000000000000 DUP2 MSTORE PUSH1 0x4 ADD PUSH2 0x176 SWAP1 PUSH2 0x81C JUMP JUMPDEST PUSH1 0x40 MLOAD DUP1 SWAP2 SUB SWAP1 REVERT JUMPDEST PUSH0 PUSH1 0x3 PUSH0 SWAP1 SLOAD SWAP1 PUSH2 0x100 EXP SWAP1 DIV PUSH1 0xFF AND PUSH1 0xA PUSH2 0x19B SWAP2 SWAP1 PUSH2 0x9A2 JUMP JUMPDEST SWAP1 POP PUSH0 PUSH2 0x1A7 DUP6 PUSH2 0x314 JUMP JUMPDEST SWAP1 POP PUSH0 PUSH2 0x1B3 DUP7 PUSH2 0x3E5 JUMP JUMPDEST SWAP1 POP PUSH0 PUSH2 0x1D2 DUP4 DUP4 PUSH1 0x3 PUSH0 SWAP1 SLOAD SWAP1 PUSH2 0x100 EXP SWAP1 DIV PUSH1 0xFF AND PUSH1 0xFF AND PUSH2 0x4B6 JUMP JUMPDEST SWAP1 POP PUSH0 PUSH2 0x1DE DUP8 PUSH2 0x314 JUMP JUMPDEST SWAP1 POP PUSH0 PUSH2 0x1EA DUP9 PUSH2 0x3E5 JUMP JUMPDEST SWAP1 POP PUSH0 PUSH2 0x209 DUP4 DUP4 PUSH1 0x3 PUSH0 SWAP1 SLOAD SWAP1 PUSH2 0x100 EXP SWAP1 DIV PUSH1 0xFF AND PUSH1 0xFF AND PUSH2 0x4B6 JUMP JUMPDEST SWAP1 POP DUP1 DUP8 DUP6 PUSH2 0x218 SWAP2 SWAP1 PUSH2 0x9EC JUMP JUMPDEST PUSH2 0x222 SWAP2 SWAP1 PUSH2 0xA8F JUMP JUMPDEST SWAP8 POP POP POP POP POP POP POP POP SWAP3 SWAP2 POP POP JUMP JUMPDEST PUSH0 DUP1 PUSH1 0x3 PUSH1 0x1 SWAP1 SLOAD SWAP1 PUSH2 0x100 EXP SWAP1 DIV PUSH20 0xFFFFFFFFFFFFFFFFFFFFFFFFFFFFFFFFFFFFFFFF AND PUSH20 0xFFFFFFFFFFFFFFFFFFFFFFFFFFFFFFFFFFFFFFFF AND PUSH4 0x98F93A96 PUSH1 0x1 PUSH1 0x40 MLOAD DUP3 PUSH4 0xFFFFFFFF AND PUSH1 0xE0 SHL DUP2 MSTORE PUSH1 0x4 ADD PUSH2 0x28F SWAP2 SWAP1 PUSH2 0xB39 JUMP JUMPDEST PUSH1 0x40 DUP1 MLOAD DUP1 DUP4 SUB DUP2 DUP7 GAS STATICCALL ISZERO DUP1 ISZERO PUSH2 0x2A9 JUMPI RETURNDATASIZE PUSH0 DUP1 RETURNDATACOPY RETURNDATASIZE PUSH0 REVERT JUMPDEST POP POP POP POP PUSH1 0x40 MLOAD RETURNDATASIZE PUSH1 0x1F NOT PUSH1 0x1F DUP3 ADD AND DUP3 ADD DUP1 PUSH1 0x40 MSTORE POP DUP2 ADD SWAP1 PUSH2 0x2CD SWAP2 SWAP1 PUSH2 0xBBA JUMP JUMPDEST POP SWAP1 POP PUSH0 PUSH2 0x2DA DUP3 PUSH2 0x526 JUMP JUMPDEST SWAP1 POP PUSH0 DUP2 PUSH0 PUSH1 0x4 DUP2 LT PUSH2 0x2F0 JUMPI PUSH2 0x2EF PUSH2 0xBF8 JUMP JUMPDEST JUMPDEST PUSH1 0x20 MUL ADD MLOAD SWAP1 POP DUP1 PUSH1 0x2 DUP2 SWAP1 SSTORE POP PUSH1 0x2 SLOAD SWAP4 POP POP POP POP SWAP1 JUMP JUMPDEST PUSH0 SLOAD DUP2 JUMP JUMPDEST PUSH1 0x2 SLOAD DUP2 JUMP JUMPDEST PUSH0 DUP1 PUSH1 0x3 PUSH1 0x1 SWAP1 SLOAD SWAP1 PUSH2 0x100 EXP SWAP1 DIV PUSH20 0xFFFFFFFFFFFFFFFFFFFFFFFFFFFFFFFFFFFFFFFF AND PUSH20 0xFFFFFFFFFFFFFFFFFFFFFFFFFFFFFFFFFFFFFFFF AND PUSH4 0x98F93A96 DUP5 PUSH1 0x40 MLOAD DUP3 PUSH4 0xFFFFFFFF AND PUSH1 0xE0 SHL DUP2 MSTORE PUSH1 0x4 ADD PUSH2 0x371 SWAP2 SWAP1 PUSH2 0xC34 JUMP JUMPDEST PUSH1 0x40 DUP1 MLOAD DUP1 DUP4 SUB DUP2 DUP7 GAS STATICCALL ISZERO DUP1 ISZERO PUSH2 0x38B JUMPI RETURNDATASIZE PUSH0 DUP1 RETURNDATACOPY RETURNDATASIZE PUSH0 REVERT JUMPDEST POP POP POP POP PUSH1 0x40 MLOAD RETURNDATASIZE PUSH1 0x1F NOT PUSH1 0x1F DUP3 ADD AND DUP3 ADD DUP1 PUSH1 0x40 MSTORE POP DUP2 ADD SWAP1 PUSH2 0x3AF SWAP2 SWAP1 PUSH2 0xBBA JUMP JUMPDEST POP SWAP1 POP PUSH0 PUSH2 0x3BC DUP3 PUSH2 0x526 JUMP JUMPDEST SWAP1 POP PUSH0 DUP2 PUSH1 0x3 PUSH1 0x4 DUP2 LT PUSH2 0x3D3 JUMPI PUSH2 0x3D2 PUSH2 0xBF8 JUMP JUMPDEST JUMPDEST PUSH1 0x20 MUL ADD MLOAD SWAP1 POP DUP1 SWAP4 POP POP POP POP SWAP2 SWAP1 POP JUMP JUMPDEST PUSH0 DUP1 PUSH1 0x3 PUSH1 0x1 SWAP1 SLOAD SWAP1 PUSH2 0x100 EXP SWAP1 DIV PUSH20 0xFFFFFFFFFFFFFFFFFFFFFFFFFFFFFFFFFFFFFFFF AND PUSH20 0xFFFFFFFFFFFFFFFFFFFFFFFFFFFFFFFFFFFFFFFF AND PUSH4 0x98F93A96 DUP5 PUSH1 0x40 MLOAD DUP3 PUSH4 0xFFFFFFFF AND PUSH1 0xE0 SHL DUP2 MSTORE PUSH1 0x4 ADD PUSH2 0x442 SWAP2 SWAP1 PUSH2 0xC34 JUMP JUMPDEST PUSH1 0x40 DUP1 MLOAD DUP1 DUP4 SUB DUP2 DUP7 GAS STATICCALL ISZERO DUP1 ISZERO PUSH2 0x45C JUMPI RETURNDATASIZE PUSH0 DUP1 RETURNDATACOPY RETURNDATASIZE PUSH0 REVERT JUMPDEST POP POP POP POP PUSH1 0x40 MLOAD RETURNDATASIZE PUSH1 0x1F NOT PUSH1 0x1F DUP3 ADD AND DUP3 ADD DUP1 PUSH1 0x40 MSTORE POP DUP2 ADD SWAP1 PUSH2 0x480 SWAP2 SWAP1 PUSH2 0xBBA JUMP JUMPDEST POP SWAP1 POP PUSH0 PUSH2 0x48D DUP3 PUSH2 0x526 JUMP JUMPDEST SWAP1 POP PUSH0 DUP2 PUSH1 0x1 PUSH1 0x4 DUP2 LT PUSH2 0x4A4 JUMPI PUSH2 0x4A3 PUSH2 0xBF8 JUMP JUMPDEST JUMPDEST PUSH1 0x20 MUL ADD MLOAD SWAP1 POP DUP1 SWAP4 POP POP POP POP SWAP2 SWAP1 POP JUMP JUMPDEST PUSH0 DUP2 DUP4 LT ISZERO PUSH2 0x4E9 JUMPI DUP3 DUP3 PUSH2 0x4CB SWAP2 SWAP1 PUSH2 0xC4D JUMP JUMPDEST PUSH1 0xA PUSH2 0x4D7 SWAP2 SWAP1 PUSH2 0xC80 JUMP JUMPDEST DUP5 PUSH2 0x4E2 SWAP2 SWAP1 PUSH2 0xCCA JUMP JUMPDEST SWAP1 POP PUSH2 0x51F JUMP JUMPDEST DUP2 DUP4 GT ISZERO PUSH2 0x51B JUMPI DUP2 DUP4 PUSH2 0x4FD SWAP2 SWAP1 PUSH2 0xC4D JUMP JUMPDEST PUSH1 0xA PUSH2 0x509 SWAP2 SWAP1 PUSH2 0xC80 JUMP JUMPDEST DUP5 PUSH2 0x514 SWAP2 SWAP1 PUSH2 0xD0B JUMP JUMPDEST SWAP1 POP PUSH2 0x51F JUMP JUMPDEST DUP4 SWAP1 POP JUMPDEST SWAP4 SWAP3 POP POP POP JUMP JUMPDEST PUSH2 0x52E PUSH2 0x6BF JUMP JUMPDEST PUSH2 0x536 PUSH2 0x6BF JUMP JUMPDEST PUSH2 0x562 PUSH1 0xC0 DUP5 SWAP1 SHR PUSH1 0x40 MLOAD PUSH1 0x20 ADD PUSH2 0x54E SWAP2 SWAP1 PUSH2 0xD5B JUMP JUMPDEST PUSH1 0x40 MLOAD PUSH1 0x20 DUP2 DUP4 SUB SUB DUP2 MSTORE SWAP1 PUSH1 0x40 MSTORE PUSH2 0x66E JUMP JUMPDEST DUP2 PUSH0 PUSH1 0x4 DUP2 LT PUSH2 0x575 JUMPI PUSH2 0x574 PUSH2 0xBF8 JUMP JUMPDEST JUMPDEST PUSH1 0x20 MUL ADD DUP2 DUP2 MSTORE POP POP PUSH2 0x5AE PUSH1 0xF8 PUSH1 0x40 DUP6 SWAP1 SHL SWAP1 SHR PUSH1 0x40 MLOAD PUSH1 0x20 ADD PUSH2 0x59A SWAP2 SWAP1 PUSH2 0xD5B JUMP JUMPDEST PUSH1 0x40 MLOAD PUSH1 0x20 DUP2 DUP4 SUB SUB DUP2 MSTORE SWAP1 PUSH1 0x40 MSTORE PUSH2 0x66E JUMP JUMPDEST DUP2 PUSH1 0x1 PUSH1 0x4 DUP2 LT PUSH2 0x5C2 JUMPI PUSH2 0x5C1 PUSH2 0xBF8 JUMP JUMPDEST JUMPDEST PUSH1 0x20 MUL ADD DUP2 DUP2 MSTORE POP POP PUSH2 0x5FB PUSH1 0xC0 PUSH1 0x48 DUP6 SWAP1 SHL SWAP1 SHR PUSH1 0x40 MLOAD PUSH1 0x20 ADD PUSH2 0x5E7 SWAP2 SWAP1 PUSH2 0xD5B JUMP JUMPDEST PUSH1 0x40 MLOAD PUSH1 0x20 DUP2 DUP4 SUB SUB DUP2 MSTORE SWAP1 PUSH1 0x40 MSTORE PUSH2 0x66E JUMP JUMPDEST DUP2 PUSH1 0x2 PUSH1 0x4 DUP2 LT PUSH2 0x60F JUMPI PUSH2 0x60E PUSH2 0xBF8 JUMP JUMPDEST JUMPDEST PUSH1 0x20 MUL ADD DUP2 DUP2 MSTORE POP POP PUSH2 0x648 PUSH1 0xA0 PUSH1 0x88 DUP6 SWAP1 SHL SWAP1 SHR PUSH1 0x40 MLOAD PUSH1 0x20 ADD PUSH2 0x634 SWAP2 SWAP1 PUSH2 0xD5B JUMP JUMPDEST PUSH1 0x40 MLOAD PUSH1 0x20 DUP2 DUP4 SUB SUB DUP2 MSTORE SWAP1 PUSH1 0x40 MSTORE PUSH2 0x66E JUMP JUMPDEST DUP2 PUSH1 0x3 PUSH1 0x4 DUP2 LT PUSH2 0x65C JUMPI PUSH2 0x65B PUSH2 0xBF8 JUMP JUMPDEST JUMPDEST PUSH1 0x20 MUL ADD DUP2 DUP2 MSTORE POP POP DUP1 SWAP2 POP POP SWAP2 SWAP1 POP JUMP JUMPDEST PUSH0 PUSH1 0x20 DUP3 MLOAD EQ PUSH2 0x6B3 JUMPI PUSH1 0x40 MLOAD PUSH32 0x8C379A000000000000000000000000000000000000000000000000000000000 DUP2 MSTORE PUSH1 0x4 ADD PUSH2 0x6AA SWAP1 PUSH2 0xDBF JUMP JUMPDEST PUSH1 0x40 MLOAD DUP1 SWAP2 SUB SWAP1 REVERT JUMPDEST PUSH1 0x20 DUP3 ADD MLOAD SWAP1 POP SWAP2 SWAP1 POP JUMP JUMPDEST PUSH1 0x40 MLOAD DUP1 PUSH1 0x80 ADD PUSH1 0x40 MSTORE DUP1 PUSH1 0x4 SWAP1 PUSH1 0x20 DUP3 MUL DUP1 CALLDATASIZE DUP4 CALLDATACOPY DUP1 DUP3 ADD SWAP2 POP POP SWAP1 POP POP SWAP1 JUMP JUMPDEST PUSH0 DUP2 SWAP1 POP SWAP2 SWAP1 POP JUMP JUMPDEST PUSH2 0x6F3 DUP2 PUSH2 0x6E1 JUMP JUMPDEST DUP3 MSTORE POP POP JUMP JUMPDEST PUSH0 PUSH1 0x20 DUP3 ADD SWAP1 POP PUSH2 0x70C PUSH0 DUP4 ADD DUP5 PUSH2 0x6EA JUMP JUMPDEST SWAP3 SWAP2 POP POP JUMP JUMPDEST PUSH0 DUP1 REVERT JUMPDEST PUSH0 PUSH8 0xFFFFFFFFFFFFFFFF DUP3 AND SWAP1 POP SWAP2 SWAP1 POP JUMP JUMPDEST PUSH2 0x732 DUP2 PUSH2 0x716 JUMP JUMPDEST DUP2 EQ PUSH2 0x73C JUMPI PUSH0 DUP1 REVERT JUMPDEST POP JUMP JUMPDEST PUSH0 DUP2 CALLDATALOAD SWAP1 POP PUSH2 0x74D DUP2 PUSH2 0x729 JUMP JUMPDEST SWAP3 SWAP2 POP POP JUMP JUMPDEST PUSH0 DUP1 PUSH1 0x40 DUP4 DUP6 SUB SLT ISZERO PUSH2 0x769 JUMPI PUSH2 0x768 PUSH2 0x712 JUMP JUMPDEST JUMPDEST PUSH0 PUSH2 0x776 DUP6 DUP3 DUP7 ADD PUSH2 0x73F JUMP JUMPDEST SWAP3 POP POP PUSH1 0x20 PUSH2 0x787 DUP6 DUP3 DUP7 ADD PUSH2 0x73F JUMP JUMPDEST SWAP2 POP POP SWAP3 POP SWAP3 SWAP1 POP JUMP JUMPDEST PUSH0 DUP2 SWAP1 POP SWAP2 SWAP1 POP JUMP JUMPDEST PUSH2 0x7A3 DUP2 PUSH2 0x791 JUMP JUMPDEST DUP3 MSTORE POP POP JUMP JUMPDEST PUSH0 PUSH1 0x20 DUP3 ADD SWAP1 POP PUSH2 0x7BC PUSH0 DUP4 ADD DUP5 PUSH2 0x79A JUMP JUMPDEST SWAP3 SWAP2 POP POP JUMP JUMPDEST PUSH0 DUP3 DUP3 MSTORE PUSH1 0x20 DUP3 ADD SWAP1 POP SWAP3 SWAP2 POP POP JUMP JUMPDEST PUSH32 0x556E737570706F7274656420446563696D616C73000000000000000000000000 PUSH0 DUP3 ADD MSTORE POP JUMP JUMPDEST PUSH0 PUSH2 0x806 PUSH1 0x14 DUP4 PUSH2 0x7C2 JUMP JUMPDEST SWAP2 POP PUSH2 0x811 DUP3 PUSH2 0x7D2 JUMP JUMPDEST PUSH1 0x20 DUP3 ADD SWAP1 POP SWAP2 SWAP1 POP JUMP JUMPDEST PUSH0 PUSH1 0x20 DUP3 ADD SWAP1 POP DUP2 DUP2 SUB PUSH0 DUP4 ADD MSTORE PUSH2 0x833 DUP2 PUSH2 0x7FA JUMP JUMPDEST SWAP1 POP SWAP2 SWAP1 POP JUMP JUMPDEST PUSH32 0x4E487B7100000000000000000000000000000000000000000000000000000000 PUSH0 MSTORE PUSH1 0x11 PUSH1 0x4 MSTORE PUSH1 0x24 PUSH0 REVERT JUMPDEST PUSH0 DUP2 PUSH1 0x1 SHR SWAP1 POP SWAP2 SWAP1 POP JUMP JUMPDEST PUSH0 DUP1 DUP3 SWAP2 POP DUP4 SWAP1 POP JUMPDEST PUSH1 0x1 DUP6 GT ISZERO PUSH2 0x8BC JUMPI DUP1 DUP7 DIV DUP2 GT ISZERO PUSH2 0x898 JUMPI PUSH2 0x897 PUSH2 0x83A JUMP JUMPDEST JUMPDEST PUSH1 0x1 DUP6 AND ISZERO PUSH2 0x8A7 JUMPI DUP1 DUP3 MUL SWAP2 POP JUMPDEST DUP1 DUP2 MUL SWAP1 POP PUSH2 0x8B5 DUP6 PUSH2 0x867 JUMP JUMPDEST SWAP5 POP PUSH2 0x87C JUMP JUMPDEST SWAP5 POP SWAP5 SWAP3 POP POP POP JUMP JUMPDEST PUSH0 DUP3 PUSH2 0x8D4 JUMPI PUSH1 0x1 SWAP1 POP PUSH2 0x98F JUMP JUMPDEST DUP2 PUSH2 0x8E1 JUMPI PUSH0 SWAP1 POP PUSH2 0x98F JUMP JUMPDEST DUP2 PUSH1 0x1 DUP2 EQ PUSH2 0x8F7 JUMPI PUSH1 0x2 DUP2 EQ PUSH2 0x901 JUMPI PUSH2 0x930 JUMP JUMPDEST PUSH1 0x1 SWAP2 POP POP PUSH2 0x98F JUMP JUMPDEST PUSH1 0xFF DUP5 GT ISZERO PUSH2 0x913 JUMPI PUSH2 0x912 PUSH2 0x83A JUMP JUMPDEST JUMPDEST DUP4 PUSH1 0x2 EXP SWAP2 POP DUP5 DUP3 GT ISZERO PUSH2 0x92A JUMPI PUSH2 0x929 PUSH2 0x83A JUMP JUMPDEST JUMPDEST POP PUSH2 0x98F JUMP JUMPDEST POP PUSH1 0x20 DUP4 LT PUSH2 0x133 DUP4 LT AND PUSH1 0x4E DUP5 LT PUSH1 0xB DUP5 LT AND OR ISZERO PUSH2 0x965 JUMPI DUP3 DUP3 EXP SWAP1 POP DUP4 DUP2 GT ISZERO PUSH2 0x960 JUMPI PUSH2 0x95F PUSH2 0x83A JUMP JUMPDEST JUMPDEST PUSH2 0x98F JUMP JUMPDEST PUSH2 0x972 DUP5 DUP5 DUP5 PUSH1 0x1 PUSH2 0x873 JUMP JUMPDEST SWAP3 POP SWAP1 POP DUP2 DUP5 DIV DUP2 GT ISZERO PUSH2 0x989 JUMPI PUSH2 0x988 PUSH2 0x83A JUMP JUMPDEST JUMPDEST DUP2 DUP2 MUL SWAP1 POP JUMPDEST SWAP4 SWAP3 POP POP POP JUMP JUMPDEST PUSH0 PUSH1 0xFF DUP3 AND SWAP1 POP SWAP2 SWAP1 POP JUMP JUMPDEST PUSH0 PUSH2 0x9AC DUP3 PUSH2 0x6E1 JUMP JUMPDEST SWAP2 POP PUSH2 0x9B7 DUP4 PUSH2 0x996 JUMP JUMPDEST SWAP3 POP PUSH2 0x9E4 PUSH32 0xFFFFFFFFFFFFFFFFFFFFFFFFFFFFFFFFFFFFFFFFFFFFFFFFFFFFFFFFFFFFFFFF DUP5 DUP5 PUSH2 0x8C5 JUMP JUMPDEST SWAP1 POP SWAP3 SWAP2 POP POP JUMP JUMPDEST PUSH0 PUSH2 0x9F6 DUP3 PUSH2 0x791 JUMP JUMPDEST SWAP2 POP PUSH2 0xA01 DUP4 PUSH2 0x791 JUMP JUMPDEST SWAP3 POP DUP3 DUP3 MUL PUSH2 0xA0F DUP2 PUSH2 0x791 JUMP JUMPDEST SWAP2 POP PUSH32 0x8000000000000000000000000000000000000000000000000000000000000000 DUP5 EQ PUSH0 DUP5 SLT AND ISZERO PUSH2 0xA46 JUMPI PUSH2 0xA45 PUSH2 0x83A JUMP JUMPDEST JUMPDEST DUP3 DUP3 SDIV DUP5 EQ DUP4 ISZERO OR PUSH2 0xA5B JUMPI PUSH2 0xA5A PUSH2 0x83A JUMP JUMPDEST JUMPDEST POP SWAP3 SWAP2 POP POP JUMP JUMPDEST PUSH32 0x4E487B7100000000000000000000000000000000000000000000000000000000 PUSH0 MSTORE PUSH1 0x12 PUSH1 0x4 MSTORE PUSH1 0x24 PUSH0 REVERT JUMPDEST PUSH0 PUSH2 0xA99 DUP3 PUSH2 0x791 JUMP JUMPDEST SWAP2 POP PUSH2 0xAA4 DUP4 PUSH2 0x791 JUMP JUMPDEST SWAP3 POP DUP3 PUSH2 0xAB4 JUMPI PUSH2 0xAB3 PUSH2 0xA62 JUMP JUMPDEST JUMPDEST PUSH1 0x1 PUSH0 SUB DUP4 EQ PUSH32 0x8000000000000000000000000000000000000000000000000000000000000000 DUP4 EQ AND ISZERO PUSH2 0xAEC JUMPI PUSH2 0xAEB PUSH2 0x83A JUMP JUMPDEST JUMPDEST DUP3 DUP3 SDIV SWAP1 POP SWAP3 SWAP2 POP POP JUMP JUMPDEST PUSH0 DUP2 SWAP1 POP SWAP2 SWAP1 POP JUMP JUMPDEST PUSH0 DUP2 SWAP1 POP SWAP2 SWAP1 POP JUMP JUMPDEST PUSH0 PUSH2 0xB23 PUSH2 0xB1E PUSH2 0xB19 DUP5 PUSH2 0xAF7 JUMP JUMPDEST PUSH2 0xB00 JUMP JUMPDEST PUSH2 0x716 JUMP JUMPDEST SWAP1 POP SWAP2 SWAP1 POP JUMP JUMPDEST PUSH2 0xB33 DUP2 PUSH2 0xB09 JUMP JUMPDEST DUP3 MSTORE POP POP JUMP JUMPDEST PUSH0 PUSH1 0x20 DUP3 ADD SWAP1 POP PUSH2 0xB4C PUSH0 DUP4 ADD DUP5 PUSH2 0xB2A JUMP JUMPDEST SWAP3 SWAP2 POP POP JUMP JUMPDEST PUSH0 DUP2 SWAP1 POP SWAP2 SWAP1 POP JUMP JUMPDEST PUSH2 0xB64 DUP2 PUSH2 0xB52 JUMP JUMPDEST DUP2 EQ PUSH2 0xB6E JUMPI PUSH0 DUP1 REVERT JUMPDEST POP JUMP JUMPDEST PUSH0 DUP2 MLOAD SWAP1 POP PUSH2 0xB7F DUP2 PUSH2 0xB5B JUMP JUMPDEST SWAP3 SWAP2 POP POP JUMP JUMPDEST PUSH0 DUP2 ISZERO ISZERO SWAP1 POP SWAP2 SWAP1 POP JUMP JUMPDEST PUSH2 0xB99 DUP2 PUSH2 0xB85 JUMP JUMPDEST DUP2 EQ PUSH2 0xBA3 JUMPI PUSH0 DUP1 REVERT JUMPDEST POP JUMP JUMPDEST PUSH0 DUP2 MLOAD SWAP1 POP PUSH2 0xBB4 DUP2 PUSH2 0xB90 JUMP JUMPDEST SWAP3 SWAP2 POP POP JUMP JUMPDEST PUSH0 DUP1 PUSH1 0x40 DUP4 DUP6 SUB SLT ISZERO PUSH2 0xBD0 JUMPI PUSH2 0xBCF PUSH2 0x712 JUMP JUMPDEST JUMPDEST PUSH0 PUSH2 0xBDD DUP6 DUP3 DUP7 ADD PUSH2 0xB71 JUMP JUMPDEST SWAP3 POP POP PUSH1 0x20 PUSH2 0xBEE DUP6 DUP3 DUP7 ADD PUSH2 0xBA6 JUMP JUMPDEST SWAP2 POP POP SWAP3 POP SWAP3 SWAP1 POP JUMP JUMPDEST PUSH32 0x4E487B7100000000000000000000000000000000000000000000000000000000 PUSH0 MSTORE PUSH1 0x32 PUSH1 0x4 MSTORE PUSH1 0x24 PUSH0 REVERT JUMPDEST PUSH2 0xC2E DUP2 PUSH2 0x716 JUMP JUMPDEST DUP3 MSTORE POP POP JUMP JUMPDEST PUSH0 PUSH1 0x20 DUP3 ADD SWAP1 POP PUSH2 0xC47 PUSH0 DUP4 ADD DUP5 PUSH2 0xC25 JUMP JUMPDEST SWAP3 SWAP2 POP POP JUMP JUMPDEST PUSH0 PUSH2 0xC57 DUP3 PUSH2 0x6E1 JUMP JUMPDEST SWAP2 POP PUSH2 0xC62 DUP4 PUSH2 0x6E1 JUMP JUMPDEST SWAP3 POP DUP3 DUP3 SUB SWAP1 POP DUP2 DUP2 GT ISZERO PUSH2 0xC7A JUMPI PUSH2 0xC79 PUSH2 0x83A JUMP JUMPDEST JUMPDEST SWAP3 SWAP2 POP POP JUMP JUMPDEST PUSH0 PUSH2 0xC8A DUP3 PUSH2 0x6E1 JUMP JUMPDEST SWAP2 POP PUSH2 0xC95 DUP4 PUSH2 0x6E1 JUMP JUMPDEST SWAP3 POP PUSH2 0xCC2 PUSH32 0xFFFFFFFFFFFFFFFFFFFFFFFFFFFFFFFFFFFFFFFFFFFFFFFFFFFFFFFFFFFFFFFF DUP5 DUP5 PUSH2 0x8C5 JUMP JUMPDEST SWAP1 POP SWAP3 SWAP2 POP POP JUMP JUMPDEST PUSH0 PUSH2 0xCD4 DUP3 PUSH2 0x6E1 JUMP JUMPDEST SWAP2 POP PUSH2 0xCDF DUP4 PUSH2 0x6E1 JUMP JUMPDEST SWAP3 POP DUP3 DUP3 MUL PUSH2 0xCED DUP2 PUSH2 0x6E1 JUMP JUMPDEST SWAP2 POP DUP3 DUP3 DIV DUP5 EQ DUP4 ISZERO OR PUSH2 0xD04 JUMPI PUSH2 0xD03 PUSH2 0x83A JUMP JUMPDEST JUMPDEST POP SWAP3 SWAP2 POP POP JUMP JUMPDEST PUSH0 PUSH2 0xD15 DUP3 PUSH2 0x6E1 JUMP JUMPDEST SWAP2 POP PUSH2 0xD20 DUP4 PUSH2 0x6E1 JUMP JUMPDEST SWAP3 POP DUP3 PUSH2 0xD30 JUMPI PUSH2 0xD2F PUSH2 0xA62 JUMP JUMPDEST JUMPDEST DUP3 DUP3 DIV SWAP1 POP SWAP3 SWAP2 POP POP JUMP JUMPDEST PUSH0 DUP2 SWAP1 POP SWAP2 SWAP1 POP JUMP JUMPDEST PUSH2 0xD55 PUSH2 0xD50 DUP3 PUSH2 0xB52 JUMP JUMPDEST PUSH2 0xD3B JUMP JUMPDEST DUP3 MSTORE POP POP JUMP JUMPDEST PUSH0 PUSH2 0xD66 DUP3 DUP5 PUSH2 0xD44 JUMP JUMPDEST PUSH1 0x20 DUP3 ADD SWAP2 POP DUP2 SWAP1 POP SWAP3 SWAP2 POP POP JUMP JUMPDEST PUSH32 0x6279746573206C656E677468206973206E6F742033322E000000000000000000 PUSH0 DUP3 ADD MSTORE POP JUMP JUMPDEST PUSH0 PUSH2 0xDA9 PUSH1 0x17 DUP4 PUSH2 0x7C2 JUMP JUMPDEST SWAP2 POP PUSH2 0xDB4 DUP3 PUSH2 0xD75 JUMP JUMPDEST PUSH1 0x20 DUP3 ADD SWAP1 POP SWAP2 SWAP1 POP JUMP JUMPDEST PUSH0 PUSH1 0x20 DUP3 ADD SWAP1 POP DUP2 DUP2 SUB PUSH0 DUP4 ADD MSTORE PUSH2 0xDD6 DUP2 PUSH2 0xD9D JUMP JUMPDEST SWAP1 POP SWAP2 SWAP1 POP JUMP INVALID LOG2 PUSH5 0x6970667358 0x22 SLT KECCAK256 0x2D MLOAD 0xF9 0x1F 0xBB 0xBB PC SELFDESTRUCT 0x4C ORIGIN 0xB4 KECCAK256 CHAINID 0xC0 0xDB SWAP4 0xA6 0xF7 LOG2 DUP4 SGT 0xC6 SLT CALLDATALOAD TIMESTAMP 0xB9 0xAC 0xD9 SWAP4 0xAE 0x26 OR PUSH5 0x736F6C6343 STOP ADDMOD ISZERO STOP CALLER "
				},
				"gasEstimates": {
					"creation": {
						"codeDepositCost": "720600",
						"executionCost": "infinite",
						"totalCost": "infinite"
					},
					"external": {
						"decimals()": "2403",
						"getExchangeRate(uint64,uint64)": "infinite",
						"getRounds()": "infinite",
						"price()": "2468",
						"rounds()": "2491"
					},
					"internal": {
						"bytesToUint256(bytes memory)": "infinite",
						"getDecimals(uint64)": "infinite",
						"getPrice(uint64)": "infinite",
						"scalePrice(uint256,uint256,uint256)": "infinite",
						"unpack(bytes32)": "infinite"
					}
				},
				"methodIdentifiers": {
					"decimals()": "313ce567",
					"getExchangeRate(uint64,uint64)": "3552f434",
					"getRounds()": "6984d070",
					"price()": "a035b1fe",
					"rounds()": "a2e800ad"
				}
			},
			"storageLayout": {
				"storage": [
					{
						"astId": 4,
						"contract": "Benz-Swap/feeds/PriceApi.sol:priceFeed",
						"label": "price",
						"offset": 0,
						"slot": "0",
						"type": "t_uint256"
					},
					{
						"astId": 6,
						"contract": "Benz-Swap/feeds/PriceApi.sol:priceFeed",
						"label": "decimals",
						"offset": 0,
						"slot": "1",
						"type": "t_uint256"
					},
					{
						"astId": 8,
						"contract": "Benz-Swap/feeds/PriceApi.sol:priceFeed",
						"label": "rounds",
						"offset": 0,
						"slot": "2",
						"type": "t_uint256"
					},
					{
						"astId": 11,
						"contract": "Benz-Swap/feeds/PriceApi.sol:priceFeed",
						"label": "_decimal",
						"offset": 0,
						"slot": "3",
						"type": "t_uint8"
					},
					{
						"astId": 14,
						"contract": "Benz-Swap/feeds/PriceApi.sol:priceFeed",
						"label": "sValueFeed",
						"offset": 1,
						"slot": "3",
						"type": "t_contract(ISupraSValueFeed)390"
					}
				],
				"types": {
					"t_contract(ISupraSValueFeed)390": {
						"encoding": "inplace",
						"label": "contract ISupraSValueFeed",
						"numberOfBytes": "20"
					},
					"t_uint256": {
						"encoding": "inplace",
						"label": "uint256",
						"numberOfBytes": "32"
					},
					"t_uint8": {
						"encoding": "inplace",
						"label": "uint8",
						"numberOfBytes": "1"
					}
				}
			},
			"userdoc": {
				"kind": "user",
				"methods": {},
				"version": 1
			}
		}
	}
}