{
	"Benz-Swap/tokens/TestToken.sol": {
		"TestnetToken": {
			"abi": [
				{
					"inputs": [
						{
							"internalType": "string",
							"name": "name",
							"type": "string"
						},
						{
							"internalType": "string",
							"name": "symbol",
							"type": "string"
						}
					],
					"stateMutability": "nonpayable",
					"type": "constructor"
				},
				{
					"anonymous": false,
					"inputs": [
						{
							"indexed": true,
							"internalType": "address",
							"name": "owner",
							"type": "address"
						},
						{
							"indexed": true,
							"internalType": "address",
							"name": "spender",
							"type": "address"
						},
						{
							"indexed": false,
							"internalType": "uint256",
							"name": "value",
							"type": "uint256"
						}
					],
					"name": "Approval",
					"type": "event"
				},
				{
					"anonymous": false,
					"inputs": [
						{
							"indexed": true,
							"internalType": "address",
							"name": "from",
							"type": "address"
						},
						{
							"indexed": true,
							"internalType": "address",
							"name": "to",
							"type": "address"
						},
						{
							"indexed": false,
							"internalType": "uint256",
							"name": "value",
							"type": "uint256"
						}
					],
					"name": "Transfer",
					"type": "event"
				},
				{
					"inputs": [
						{
							"internalType": "address",
							"name": "",
							"type": "address"
						}
					],
					"name": "allocations",
					"outputs": [
						{
							"internalType": "uint256",
							"name": "",
							"type": "uint256"
						}
					],
					"stateMutability": "view",
					"type": "function"
				},
				{
					"inputs": [
						{
							"internalType": "address",
							"name": "owner",
							"type": "address"
						},
						{
							"internalType": "address",
							"name": "spender",
							"type": "address"
						}
					],
					"name": "allowance",
					"outputs": [
						{
							"internalType": "uint256",
							"name": "",
							"type": "uint256"
						}
					],
					"stateMutability": "view",
					"type": "function"
				},
				{
					"inputs": [
						{
							"internalType": "address",
							"name": "spender",
							"type": "address"
						},
						{
							"internalType": "uint256",
							"name": "amount",
							"type": "uint256"
						}
					],
					"name": "approve",
					"outputs": [
						{
							"internalType": "bool",
							"name": "",
							"type": "bool"
						}
					],
					"stateMutability": "nonpayable",
					"type": "function"
				},
				{
					"inputs": [
						{
							"internalType": "address",
							"name": "account",
							"type": "address"
						}
					],
					"name": "balanceOf",
					"outputs": [
						{
							"internalType": "uint256",
							"name": "",
							"type": "uint256"
						}
					],
					"stateMutability": "view",
					"type": "function"
				},
				{
					"inputs": [],
					"name": "decimals",
					"outputs": [
						{
							"internalType": "uint8",
							"name": "",
							"type": "uint8"
						}
					],
					"stateMutability": "view",
					"type": "function"
				},
				{
					"inputs": [
						{
							"internalType": "address",
							"name": "spender",
							"type": "address"
						},
						{
							"internalType": "uint256",
							"name": "subtractedValue",
							"type": "uint256"
						}
					],
					"name": "decreaseAllowance",
					"outputs": [
						{
							"internalType": "bool",
							"name": "",
							"type": "bool"
						}
					],
					"stateMutability": "nonpayable",
					"type": "function"
				},
				{
					"inputs": [
						{
							"internalType": "uint256",
							"name": "amount",
							"type": "uint256"
						}
					],
					"name": "faucet",
					"outputs": [],
					"stateMutability": "nonpayable",
					"type": "function"
				},
				{
					"inputs": [
						{
							"internalType": "uint256",
							"name": "amount",
							"type": "uint256"
						}
					],
					"name": "inWei",
					"outputs": [
						{
							"internalType": "uint256",
							"name": "",
							"type": "uint256"
						}
					],
					"stateMutability": "view",
					"type": "function"
				},
				{
					"inputs": [
						{
							"internalType": "address",
							"name": "spender",
							"type": "address"
						},
						{
							"internalType": "uint256",
							"name": "addedValue",
							"type": "uint256"
						}
					],
					"name": "increaseAllowance",
					"outputs": [
						{
							"internalType": "bool",
							"name": "",
							"type": "bool"
						}
					],
					"stateMutability": "nonpayable",
					"type": "function"
				},
				{
					"inputs": [],
					"name": "name",
					"outputs": [
						{
							"internalType": "string",
							"name": "",
							"type": "string"
						}
					],
					"stateMutability": "view",
					"type": "function"
				},
				{
					"inputs": [],
					"name": "symbol",
					"outputs": [
						{
							"internalType": "string",
							"name": "",
							"type": "string"
						}
					],
					"stateMutability": "view",
					"type": "function"
				},
				{
					"inputs": [],
					"name": "totalSupply",
					"outputs": [
						{
							"internalType": "uint256",
							"name": "",
							"type": "uint256"
						}
					],
					"stateMutability": "view",
					"type": "function"
				},
				{
					"inputs": [
						{
							"internalType": "address",
							"name": "to",
							"type": "address"
						},
						{
							"internalType": "uint256",
							"name": "amount",
							"type": "uint256"
						}
					],
					"name": "transfer",
					"outputs": [
						{
							"internalType": "bool",
							"name": "",
							"type": "bool"
						}
					],
					"stateMutability": "nonpayable",
					"type": "function"
				},
				{
					"inputs": [
						{
							"internalType": "address",
							"name": "from",
							"type": "address"
						},
						{
							"internalType": "address",
							"name": "to",
							"type": "address"
						},
						{
							"internalType": "uint256",
							"name": "amount",
							"type": "uint256"
						}
					],
					"name": "transferFrom",
					"outputs": [
						{
							"internalType": "bool",
							"name": "",
							"type": "bool"
						}
					],
					"stateMutability": "nonpayable",
					"type": "function"
				}
			],
			"devdoc": {
				"kind": "dev",
				"methods": {
					"allowance(address,address)": {
						"details": "See {IERC20-allowance}."
					},
					"approve(address,uint256)": {
						"details": "See {IERC20-approve}. NOTE: If `amount` is the maximum `uint256`, the allowance is not updated on `transferFrom`. This is semantically equivalent to an infinite approval. Requirements: - `spender` cannot be the zero address."
					},
					"balanceOf(address)": {
						"details": "See {IERC20-balanceOf}."
					},
					"decimals()": {
						"details": "Returns the number of decimals used to get its user representation. For example, if `decimals` equals `2`, a balance of `505` tokens should be displayed to a user as `5.05` (`505 / 10 ** 2`). Tokens usually opt for a value of 18, imitating the relationship between Ether and Wei. This is the value {ERC20} uses, unless this function is overridden; NOTE: This information is only used for _display_ purposes: it in no way affects any of the arithmetic of the contract, including {IERC20-balanceOf} and {IERC20-transfer}."
					},
					"decreaseAllowance(address,uint256)": {
						"details": "Atomically decreases the allowance granted to `spender` by the caller. This is an alternative to {approve} that can be used as a mitigation for problems described in {IERC20-approve}. Emits an {Approval} event indicating the updated allowance. Requirements: - `spender` cannot be the zero address. - `spender` must have allowance for the caller of at least `subtractedValue`."
					},
					"increaseAllowance(address,uint256)": {
						"details": "Atomically increases the allowance granted to `spender` by the caller. This is an alternative to {approve} that can be used as a mitigation for problems described in {IERC20-approve}. Emits an {Approval} event indicating the updated allowance. Requirements: - `spender` cannot be the zero address."
					},
					"name()": {
						"details": "Returns the name of the token."
					},
					"symbol()": {
						"details": "Returns the symbol of the token, usually a shorter version of the name."
					},
					"totalSupply()": {
						"details": "See {IERC20-totalSupply}."
					},
					"transfer(address,uint256)": {
						"details": "See {IERC20-transfer}. Requirements: - `to` cannot be the zero address. - the caller must have a balance of at least `amount`."
					},
					"transferFrom(address,address,uint256)": {
						"details": "See {IERC20-transferFrom}. Emits an {Approval} event indicating the updated allowance. This is not required by the EIP. See the note at the beginning of {ERC20}. NOTE: Does not update the allowance if the current allowance is the maximum `uint256`. Requirements: - `from` and `to` cannot be the zero address. - `from` must have a balance of at least `amount`. - the caller must have allowance for ``from``'s tokens of at least `amount`."
					}
				},
				"version": 1
			},
			"evm": {
				"assembly": "    /* \"Benz-Swap/tokens/TestToken.sol\":139:1043  contract TestnetToken is ERC20 {... */\n  mstore(0x40, 0x80)\n    /* \"Benz-Swap/tokens/TestToken.sol\":209:221  inWei(10000) */\n  tag_1\n    /* \"Benz-Swap/tokens/TestToken.sol\":215:220  10000 */\n  0x2710\n    /* \"Benz-Swap/tokens/TestToken.sol\":209:214  inWei */\n  shl(0x20, tag_2)\n    /* \"Benz-Swap/tokens/TestToken.sol\":209:221  inWei(10000) */\n  0x20\n  shr\n  jump\t// in\ntag_1:\n    /* \"Benz-Swap/tokens/TestToken.sol\":176:221  uint256 private MAX_ALLOCATION = inWei(10000) */\n  0x05\n  sstore\n    /* \"Benz-Swap/tokens/TestToken.sol\":318:496  constructor(string memory name, string memory symbol) ERC20(name, symbol) {... */\n  callvalue\n  dup1\n  iszero\n  tag_3\n  jumpi\n  0x00\n  dup1\n  revert\ntag_3:\n  pop\n  mload(0x40)\n  sub(codesize, bytecodeSize)\n  dup1\n  bytecodeSize\n  dup4\n  codecopy\n  dup2\n  dup2\n  add\n  0x40\n  mstore\n  dup2\n  add\n  swap1\n  tag_4\n  swap2\n  swap1\n  tag_5\n  jump\t// in\ntag_4:\n    /* \"Benz-Swap/tokens/TestToken.sol\":378:382  name */\n  dup2\n    /* \"Benz-Swap/tokens/TestToken.sol\":384:390  symbol */\n  dup2\n    /* \"@openzeppelin/contracts/token/ERC20/ERC20.sol\":2050:2055  name_ */\n  dup2\n    /* \"@openzeppelin/contracts/token/ERC20/ERC20.sol\":2042:2047  _name */\n  0x03\n    /* \"@openzeppelin/contracts/token/ERC20/ERC20.sol\":2042:2055  _name = name_ */\n  swap1\n  dup1\n  mload\n  swap1\n  0x20\n  add\n  swap1\n  tag_9\n  swap3\n  swap2\n  swap1\n  tag_10\n  jump\t// in\ntag_9:\n  pop\n    /* \"@openzeppelin/contracts/token/ERC20/ERC20.sol\":2075:2082  symbol_ */\n  dup1\n    /* \"@openzeppelin/contracts/token/ERC20/ERC20.sol\":2065:2072  _symbol */\n  0x04\n    /* \"@openzeppelin/contracts/token/ERC20/ERC20.sol\":2065:2082  _symbol = symbol_ */\n  swap1\n  dup1\n  mload\n  swap1\n  0x20\n  add\n  swap1\n  tag_11\n  swap3\n  swap2\n  swap1\n  tag_10\n  jump\t// in\ntag_11:\n  pop\n    /* \"@openzeppelin/contracts/token/ERC20/ERC20.sol\":1976:2089  constructor(string memory name_, string memory symbol_) {... */\n  pop\n  pop\n    /* \"Benz-Swap/tokens/TestToken.sol\":402:439  _mint(msg.sender, inWei(50000000000)) */\n  tag_13\n    /* \"Benz-Swap/tokens/TestToken.sol\":408:418  msg.sender */\n  caller\n    /* \"Benz-Swap/tokens/TestToken.sol\":420:438  inWei(50000000000) */\n  tag_14\n    /* \"Benz-Swap/tokens/TestToken.sol\":426:437  50000000000 */\n  0x0ba43b7400\n    /* \"Benz-Swap/tokens/TestToken.sol\":420:425  inWei */\n  shl(0x20, tag_2)\n    /* \"Benz-Swap/tokens/TestToken.sol\":420:438  inWei(50000000000) */\n  0x20\n  shr\n  jump\t// in\ntag_14:\n    /* \"Benz-Swap/tokens/TestToken.sol\":402:407  _mint */\n  shl(0x20, tag_15)\n    /* \"Benz-Swap/tokens/TestToken.sol\":402:439  _mint(msg.sender, inWei(50000000000)) */\n  0x20\n  shr\n  jump\t// in\ntag_13:\n    /* \"Benz-Swap/tokens/TestToken.sol\":449:489  _mint(address(this), inWei(50000000000)) */\n  tag_16\n    /* \"Benz-Swap/tokens/TestToken.sol\":463:467  this */\n  address\n    /* \"Benz-Swap/tokens/TestToken.sol\":470:488  inWei(50000000000) */\n  tag_17\n    /* \"Benz-Swap/tokens/TestToken.sol\":476:487  50000000000 */\n  0x0ba43b7400\n    /* \"Benz-Swap/tokens/TestToken.sol\":470:475  inWei */\n  shl(0x20, tag_2)\n    /* \"Benz-Swap/tokens/TestToken.sol\":470:488  inWei(50000000000) */\n  0x20\n  shr\n  jump\t// in\ntag_17:\n    /* \"Benz-Swap/tokens/TestToken.sol\":449:454  _mint */\n  shl(0x20, tag_15)\n    /* \"Benz-Swap/tokens/TestToken.sol\":449:489  _mint(address(this), inWei(50000000000)) */\n  0x20\n  shr\n  jump\t// in\ntag_16:\n    /* \"Benz-Swap/tokens/TestToken.sol\":318:496  constructor(string memory name, string memory symbol) ERC20(name, symbol) {... */\n  pop\n  pop\n    /* \"Benz-Swap/tokens/TestToken.sol\":139:1043  contract TestnetToken is ERC20 {... */\n  jump(tag_18)\n    /* \"Benz-Swap/tokens/TestToken.sol\":931:1041  function inWei(uint256 amount) public view returns (uint256) {... */\ntag_2:\n    /* \"Benz-Swap/tokens/TestToken.sol\":983:990  uint256 */\n  0x00\n    /* \"Benz-Swap/tokens/TestToken.sol\":1024:1034  decimals() */\n  tag_20\n    /* \"Benz-Swap/tokens/TestToken.sol\":1024:1032  decimals */\n  shl(0x20, tag_21)\n    /* \"Benz-Swap/tokens/TestToken.sol\":1024:1034  decimals() */\n  0x20\n  shr\n  jump\t// in\ntag_20:\n    /* \"Benz-Swap/tokens/TestToken.sol\":1018:1020  10 */\n  0x0a\n    /* \"Benz-Swap/tokens/TestToken.sol\":1018:1034  10 ** decimals() */\n  tag_22\n  swap2\n  swap1\n  tag_23\n  jump\t// in\ntag_22:\n    /* \"Benz-Swap/tokens/TestToken.sol\":1009:1015  amount */\n  dup3\n    /* \"Benz-Swap/tokens/TestToken.sol\":1009:1034  amount * 10 ** decimals() */\n  tag_24\n  swap2\n  swap1\n  tag_25\n  jump\t// in\ntag_24:\n    /* \"Benz-Swap/tokens/TestToken.sol\":1002:1034  return amount * 10 ** decimals() */\n  swap1\n  pop\n    /* \"Benz-Swap/tokens/TestToken.sol\":931:1041  function inWei(uint256 amount) public view returns (uint256) {... */\n  swap2\n  swap1\n  pop\n  jump\t// out\n    /* \"@openzeppelin/contracts/token/ERC20/ERC20.sol\":8567:9102  function _mint(address account, uint256 amount) internal virtual {... */\ntag_15:\n    /* \"@openzeppelin/contracts/token/ERC20/ERC20.sol\":8669:8670  0 */\n  0x00\n    /* \"@openzeppelin/contracts/token/ERC20/ERC20.sol\":8650:8671  account != address(0) */\n  0xffffffffffffffffffffffffffffffffffffffff\n  and\n    /* \"@openzeppelin/contracts/token/ERC20/ERC20.sol\":8650:8657  account */\n  dup3\n    /* \"@openzeppelin/contracts/token/ERC20/ERC20.sol\":8650:8671  account != address(0) */\n  0xffffffffffffffffffffffffffffffffffffffff\n  and\n  eq\n  iszero\n    /* \"@openzeppelin/contracts/token/ERC20/ERC20.sol\":8642:8707  require(account != address(0), \"ERC20: mint to the zero address\") */\n  tag_27\n  jumpi\n  mload(0x40)\n  0x08c379a000000000000000000000000000000000000000000000000000000000\n  dup2\n  mstore\n  0x04\n  add\n  tag_28\n  swap1\n  tag_29\n  jump\t// in\ntag_28:\n  mload(0x40)\n  dup1\n  swap2\n  sub\n  swap1\n  revert\ntag_27:\n    /* \"@openzeppelin/contracts/token/ERC20/ERC20.sol\":8718:8767  _beforeTokenTransfer(address(0), account, amount) */\n  tag_30\n    /* \"@openzeppelin/contracts/token/ERC20/ERC20.sol\":8747:8748  0 */\n  0x00\n    /* \"@openzeppelin/contracts/token/ERC20/ERC20.sol\":8751:8758  account */\n  dup4\n    /* \"@openzeppelin/contracts/token/ERC20/ERC20.sol\":8760:8766  amount */\n  dup4\n    /* \"@openzeppelin/contracts/token/ERC20/ERC20.sol\":8718:8738  _beforeTokenTransfer */\n  shl(0x20, tag_31)\n    /* \"@openzeppelin/contracts/token/ERC20/ERC20.sol\":8718:8767  _beforeTokenTransfer(address(0), account, amount) */\n  0x20\n  shr\n  jump\t// in\ntag_30:\n    /* \"@openzeppelin/contracts/token/ERC20/ERC20.sol\":8794:8800  amount */\n  dup1\n    /* \"@openzeppelin/contracts/token/ERC20/ERC20.sol\":8778:8790  _totalSupply */\n  0x02\n  0x00\n    /* \"@openzeppelin/contracts/token/ERC20/ERC20.sol\":8778:8800  _totalSupply += amount */\n  dup3\n  dup3\n  sload\n  tag_32\n  swap2\n  swap1\n  tag_33\n  jump\t// in\ntag_32:\n  swap3\n  pop\n  pop\n  dup2\n  swap1\n  sstore\n  pop\n    /* \"@openzeppelin/contracts/token/ERC20/ERC20.sol\":8968:8974  amount */\n  dup1\n    /* \"@openzeppelin/contracts/token/ERC20/ERC20.sol\":8946:8955  _balances */\n  0x00\n    /* \"@openzeppelin/contracts/token/ERC20/ERC20.sol\":8946:8964  _balances[account] */\n  dup1\n    /* \"@openzeppelin/contracts/token/ERC20/ERC20.sol\":8956:8963  account */\n  dup5\n    /* \"@openzeppelin/contracts/token/ERC20/ERC20.sol\":8946:8964  _balances[account] */\n  0xffffffffffffffffffffffffffffffffffffffff\n  and\n  0xffffffffffffffffffffffffffffffffffffffff\n  and\n  dup2\n  mstore\n  0x20\n  add\n  swap1\n  dup2\n  mstore\n  0x20\n  add\n  0x00\n  keccak256\n  0x00\n    /* \"@openzeppelin/contracts/token/ERC20/ERC20.sol\":8946:8974  _balances[account] += amount */\n  dup3\n  dup3\n  sload\n  add\n  swap3\n  pop\n  pop\n  dup2\n  swap1\n  sstore\n  pop\n    /* \"@openzeppelin/contracts/token/ERC20/ERC20.sol\":9020:9027  account */\n  dup2\n    /* \"@openzeppelin/contracts/token/ERC20/ERC20.sol\":8999:9036  Transfer(address(0), account, amount) */\n  0xffffffffffffffffffffffffffffffffffffffff\n  and\n    /* \"@openzeppelin/contracts/token/ERC20/ERC20.sol\":9016:9017  0 */\n  0x00\n    /* \"@openzeppelin/contracts/token/ERC20/ERC20.sol\":8999:9036  Transfer(address(0), account, amount) */\n  0xffffffffffffffffffffffffffffffffffffffff\n  and\n  0xddf252ad1be2c89b69c2b068fc378daa952ba7f163c4a11628f55a4df523b3ef\n    /* \"@openzeppelin/contracts/token/ERC20/ERC20.sol\":9029:9035  amount */\n  dup4\n    /* \"@openzeppelin/contracts/token/ERC20/ERC20.sol\":8999:9036  Transfer(address(0), account, amount) */\n  mload(0x40)\n  tag_34\n  swap2\n  swap1\n  tag_35\n  jump\t// in\ntag_34:\n  mload(0x40)\n  dup1\n  swap2\n  sub\n  swap1\n  log3\n    /* \"@openzeppelin/contracts/token/ERC20/ERC20.sol\":9047:9095  _afterTokenTransfer(address(0), account, amount) */\n  tag_36\n    /* \"@openzeppelin/contracts/token/ERC20/ERC20.sol\":9075:9076  0 */\n  0x00\n    /* \"@openzeppelin/contracts/token/ERC20/ERC20.sol\":9079:9086  account */\n  dup4\n    /* \"@openzeppelin/contracts/token/ERC20/ERC20.sol\":9088:9094  amount */\n  dup4\n    /* \"@openzeppelin/contracts/token/ERC20/ERC20.sol\":9047:9066  _afterTokenTransfer */\n  shl(0x20, tag_37)\n    /* \"@openzeppelin/contracts/token/ERC20/ERC20.sol\":9047:9095  _afterTokenTransfer(address(0), account, amount) */\n  0x20\n  shr\n  jump\t// in\ntag_36:\n    /* \"@openzeppelin/contracts/token/ERC20/ERC20.sol\":8567:9102  function _mint(address account, uint256 amount) internal virtual {... */\n  pop\n  pop\n  jump\t// out\n    /* \"@openzeppelin/contracts/token/ERC20/ERC20.sol\":3091:3182  function decimals() public view virtual override returns (uint8) {... */\ntag_21:\n    /* \"@openzeppelin/contracts/token/ERC20/ERC20.sol\":3149:3154  uint8 */\n  0x00\n    /* \"@openzeppelin/contracts/token/ERC20/ERC20.sol\":3173:3175  18 */\n  0x12\n    /* \"@openzeppelin/contracts/token/ERC20/ERC20.sol\":3166:3175  return 18 */\n  swap1\n  pop\n    /* \"@openzeppelin/contracts/token/ERC20/ERC20.sol\":3091:3182  function decimals() public view virtual override returns (uint8) {... */\n  swap1\n  jump\t// out\n    /* \"@openzeppelin/contracts/token/ERC20/ERC20.sol\":12180:12301  function _beforeTokenTransfer(... */\ntag_31:\n  pop\n  pop\n  pop\n  jump\t// out\n    /* \"@openzeppelin/contracts/token/ERC20/ERC20.sol\":12889:13009  function _afterTokenTransfer(... */\ntag_37:\n  pop\n  pop\n  pop\n  jump\t// out\n    /* \"Benz-Swap/tokens/TestToken.sol\":139:1043  contract TestnetToken is ERC20 {... */\ntag_10:\n  dup3\n  dup1\n  sload\n  tag_41\n  swap1\n  tag_42\n  jump\t// in\ntag_41:\n  swap1\n  0x00\n  mstore\n  keccak256(0x00, 0x20)\n  swap1\n  0x1f\n  add\n  0x20\n  swap1\n  div\n  dup2\n  add\n  swap3\n  dup3\n  tag_44\n  jumpi\n  0x00\n  dup6\n  sstore\n  jump(tag_43)\ntag_44:\n  dup3\n  0x1f\n  lt\n  tag_45\n  jumpi\n  dup1\n  mload\n  not(0xff)\n  and\n  dup4\n  dup1\n  add\n  or\n  dup6\n  sstore\n  jump(tag_43)\ntag_45:\n  dup3\n  dup1\n  add\n  0x01\n  add\n  dup6\n  sstore\n  dup3\n  iszero\n  tag_43\n  jumpi\n  swap2\n  dup3\n  add\ntag_46:\n  dup3\n  dup2\n  gt\n  iszero\n  tag_47\n  jumpi\n  dup3\n  mload\n  dup3\n  sstore\n  swap2\n  0x20\n  add\n  swap2\n  swap1\n  0x01\n  add\n  swap1\n  jump(tag_46)\ntag_47:\ntag_43:\n  pop\n  swap1\n  pop\n  tag_48\n  swap2\n  swap1\n  tag_49\n  jump\t// in\ntag_48:\n  pop\n  swap1\n  jump\t// out\ntag_49:\ntag_50:\n  dup1\n  dup3\n  gt\n  iszero\n  tag_51\n  jumpi\n  0x00\n  dup2\n  0x00\n  swap1\n  sstore\n  pop\n  0x01\n  add\n  jump(tag_50)\ntag_51:\n  pop\n  swap1\n  jump\t// out\n    /* \"#utility.yul\":7:428   */\ntag_53:\n    /* \"#utility.yul\":96:101   */\n  0x00\n    /* \"#utility.yul\":121:187   */\n  tag_55\n    /* \"#utility.yul\":137:186   */\n  tag_56\n    /* \"#utility.yul\":179:185   */\n  dup5\n    /* \"#utility.yul\":137:186   */\n  tag_57\n  jump\t// in\ntag_56:\n    /* \"#utility.yul\":121:187   */\n  tag_58\n  jump\t// in\ntag_55:\n    /* \"#utility.yul\":112:187   */\n  swap1\n  pop\n    /* \"#utility.yul\":210:216   */\n  dup3\n    /* \"#utility.yul\":203:208   */\n  dup2\n    /* \"#utility.yul\":196:217   */\n  mstore\n    /* \"#utility.yul\":248:252   */\n  0x20\n    /* \"#utility.yul\":241:246   */\n  dup2\n    /* \"#utility.yul\":237:253   */\n  add\n    /* \"#utility.yul\":286:289   */\n  dup5\n    /* \"#utility.yul\":277:283   */\n  dup5\n    /* \"#utility.yul\":272:275   */\n  dup5\n    /* \"#utility.yul\":268:284   */\n  add\n    /* \"#utility.yul\":265:290   */\n  gt\n    /* \"#utility.yul\":262:374   */\n  iszero\n  tag_59\n  jumpi\n    /* \"#utility.yul\":293:372   */\n  tag_60\n  tag_61\n  jump\t// in\ntag_60:\n    /* \"#utility.yul\":262:374   */\ntag_59:\n    /* \"#utility.yul\":383:422   */\n  tag_62\n    /* \"#utility.yul\":415:421   */\n  dup5\n    /* \"#utility.yul\":410:413   */\n  dup3\n    /* \"#utility.yul\":405:408   */\n  dup6\n    /* \"#utility.yul\":383:422   */\n  tag_63\n  jump\t// in\ntag_62:\n    /* \"#utility.yul\":102:428   */\n  pop\n    /* \"#utility.yul\":7:428   */\n  swap4\n  swap3\n  pop\n  pop\n  pop\n  jump\t// out\n    /* \"#utility.yul\":448:803   */\ntag_64:\n    /* \"#utility.yul\":515:520   */\n  0x00\n    /* \"#utility.yul\":564:567   */\n  dup3\n    /* \"#utility.yul\":557:561   */\n  0x1f\n    /* \"#utility.yul\":549:555   */\n  dup4\n    /* \"#utility.yul\":545:562   */\n  add\n    /* \"#utility.yul\":541:568   */\n  slt\n    /* \"#utility.yul\":531:653   */\n  tag_66\n  jumpi\n    /* \"#utility.yul\":572:651   */\n  tag_67\n  tag_68\n  jump\t// in\ntag_67:\n    /* \"#utility.yul\":531:653   */\ntag_66:\n    /* \"#utility.yul\":682:688   */\n  dup2\n    /* \"#utility.yul\":676:689   */\n  mload\n    /* \"#utility.yul\":707:797   */\n  tag_69\n    /* \"#utility.yul\":793:796   */\n  dup5\n    /* \"#utility.yul\":785:791   */\n  dup3\n    /* \"#utility.yul\":778:782   */\n  0x20\n    /* \"#utility.yul\":770:776   */\n  dup7\n    /* \"#utility.yul\":766:783   */\n  add\n    /* \"#utility.yul\":707:797   */\n  tag_53\n  jump\t// in\ntag_69:\n    /* \"#utility.yul\":698:797   */\n  swap2\n  pop\n    /* \"#utility.yul\":521:803   */\n  pop\n    /* \"#utility.yul\":448:803   */\n  swap3\n  swap2\n  pop\n  pop\n  jump\t// out\n    /* \"#utility.yul\":809:1662   */\ntag_5:\n    /* \"#utility.yul\":908:914   */\n  0x00\n    /* \"#utility.yul\":916:922   */\n  dup1\n    /* \"#utility.yul\":965:967   */\n  0x40\n    /* \"#utility.yul\":953:962   */\n  dup4\n    /* \"#utility.yul\":944:951   */\n  dup6\n    /* \"#utility.yul\":940:963   */\n  sub\n    /* \"#utility.yul\":936:968   */\n  slt\n    /* \"#utility.yul\":933:1052   */\n  iszero\n  tag_71\n  jumpi\n    /* \"#utility.yul\":971:1050   */\n  tag_72\n  tag_73\n  jump\t// in\ntag_72:\n    /* \"#utility.yul\":933:1052   */\ntag_71:\n    /* \"#utility.yul\":1112:1113   */\n  0x00\n    /* \"#utility.yul\":1101:1110   */\n  dup4\n    /* \"#utility.yul\":1097:1114   */\n  add\n    /* \"#utility.yul\":1091:1115   */\n  mload\n    /* \"#utility.yul\":1142:1160   */\n  0xffffffffffffffff\n    /* \"#utility.yul\":1134:1140   */\n  dup2\n    /* \"#utility.yul\":1131:1161   */\n  gt\n    /* \"#utility.yul\":1128:1245   */\n  iszero\n  tag_74\n  jumpi\n    /* \"#utility.yul\":1164:1243   */\n  tag_75\n  tag_76\n  jump\t// in\ntag_75:\n    /* \"#utility.yul\":1128:1245   */\ntag_74:\n    /* \"#utility.yul\":1269:1343   */\n  tag_77\n    /* \"#utility.yul\":1335:1342   */\n  dup6\n    /* \"#utility.yul\":1326:1332   */\n  dup3\n    /* \"#utility.yul\":1315:1324   */\n  dup7\n    /* \"#utility.yul\":1311:1333   */\n  add\n    /* \"#utility.yul\":1269:1343   */\n  tag_64\n  jump\t// in\ntag_77:\n    /* \"#utility.yul\":1259:1343   */\n  swap3\n  pop\n    /* \"#utility.yul\":1062:1353   */\n  pop\n    /* \"#utility.yul\":1413:1415   */\n  0x20\n    /* \"#utility.yul\":1402:1411   */\n  dup4\n    /* \"#utility.yul\":1398:1416   */\n  add\n    /* \"#utility.yul\":1392:1417   */\n  mload\n    /* \"#utility.yul\":1444:1462   */\n  0xffffffffffffffff\n    /* \"#utility.yul\":1436:1442   */\n  dup2\n    /* \"#utility.yul\":1433:1463   */\n  gt\n    /* \"#utility.yul\":1430:1547   */\n  iszero\n  tag_78\n  jumpi\n    /* \"#utility.yul\":1466:1545   */\n  tag_79\n  tag_76\n  jump\t// in\ntag_79:\n    /* \"#utility.yul\":1430:1547   */\ntag_78:\n    /* \"#utility.yul\":1571:1645   */\n  tag_80\n    /* \"#utility.yul\":1637:1644   */\n  dup6\n    /* \"#utility.yul\":1628:1634   */\n  dup3\n    /* \"#utility.yul\":1617:1626   */\n  dup7\n    /* \"#utility.yul\":1613:1635   */\n  add\n    /* \"#utility.yul\":1571:1645   */\n  tag_64\n  jump\t// in\ntag_80:\n    /* \"#utility.yul\":1561:1645   */\n  swap2\n  pop\n    /* \"#utility.yul\":1363:1655   */\n  pop\n    /* \"#utility.yul\":809:1662   */\n  swap3\n  pop\n  swap3\n  swap1\n  pop\n  jump\t// out\n    /* \"#utility.yul\":1668:2034   */\ntag_81:\n    /* \"#utility.yul\":1810:1813   */\n  0x00\n    /* \"#utility.yul\":1831:1898   */\n  tag_83\n    /* \"#utility.yul\":1895:1897   */\n  0x1f\n    /* \"#utility.yul\":1890:1893   */\n  dup4\n    /* \"#utility.yul\":1831:1898   */\n  tag_84\n  jump\t// in\ntag_83:\n    /* \"#utility.yul\":1824:1898   */\n  swap2\n  pop\n    /* \"#utility.yul\":1907:2000   */\n  tag_85\n    /* \"#utility.yul\":1996:1999   */\n  dup3\n    /* \"#utility.yul\":1907:2000   */\n  tag_86\n  jump\t// in\ntag_85:\n    /* \"#utility.yul\":2025:2027   */\n  0x20\n    /* \"#utility.yul\":2020:2023   */\n  dup3\n    /* \"#utility.yul\":2016:2028   */\n  add\n    /* \"#utility.yul\":2009:2028   */\n  swap1\n  pop\n    /* \"#utility.yul\":1668:2034   */\n  swap2\n  swap1\n  pop\n  jump\t// out\n    /* \"#utility.yul\":2040:2158   */\ntag_87:\n    /* \"#utility.yul\":2127:2151   */\n  tag_89\n    /* \"#utility.yul\":2145:2150   */\n  dup2\n    /* \"#utility.yul\":2127:2151   */\n  tag_90\n  jump\t// in\ntag_89:\n    /* \"#utility.yul\":2122:2125   */\n  dup3\n    /* \"#utility.yul\":2115:2152   */\n  mstore\n    /* \"#utility.yul\":2040:2158   */\n  pop\n  pop\n  jump\t// out\n    /* \"#utility.yul\":2164:2583   */\ntag_29:\n    /* \"#utility.yul\":2330:2334   */\n  0x00\n    /* \"#utility.yul\":2368:2370   */\n  0x20\n    /* \"#utility.yul\":2357:2366   */\n  dup3\n    /* \"#utility.yul\":2353:2371   */\n  add\n    /* \"#utility.yul\":2345:2371   */\n  swap1\n  pop\n    /* \"#utility.yul\":2417:2426   */\n  dup2\n    /* \"#utility.yul\":2411:2415   */\n  dup2\n    /* \"#utility.yul\":2407:2427   */\n  sub\n    /* \"#utility.yul\":2403:2404   */\n  0x00\n    /* \"#utility.yul\":2392:2401   */\n  dup4\n    /* \"#utility.yul\":2388:2405   */\n  add\n    /* \"#utility.yul\":2381:2428   */\n  mstore\n    /* \"#utility.yul\":2445:2576   */\n  tag_92\n    /* \"#utility.yul\":2571:2575   */\n  dup2\n    /* \"#utility.yul\":2445:2576   */\n  tag_81\n  jump\t// in\ntag_92:\n    /* \"#utility.yul\":2437:2576   */\n  swap1\n  pop\n    /* \"#utility.yul\":2164:2583   */\n  swap2\n  swap1\n  pop\n  jump\t// out\n    /* \"#utility.yul\":2589:2811   */\ntag_35:\n    /* \"#utility.yul\":2682:2686   */\n  0x00\n    /* \"#utility.yul\":2720:2722   */\n  0x20\n    /* \"#utility.yul\":2709:2718   */\n  dup3\n    /* \"#utility.yul\":2705:2723   */\n  add\n    /* \"#utility.yul\":2697:2723   */\n  swap1\n  pop\n    /* \"#utility.yul\":2733:2804   */\n  tag_94\n    /* \"#utility.yul\":2801:2802   */\n  0x00\n    /* \"#utility.yul\":2790:2799   */\n  dup4\n    /* \"#utility.yul\":2786:2803   */\n  add\n    /* \"#utility.yul\":2777:2783   */\n  dup5\n    /* \"#utility.yul\":2733:2804   */\n  tag_87\n  jump\t// in\ntag_94:\n    /* \"#utility.yul\":2589:2811   */\n  swap3\n  swap2\n  pop\n  pop\n  jump\t// out\n    /* \"#utility.yul\":2817:2946   */\ntag_58:\n    /* \"#utility.yul\":2851:2857   */\n  0x00\n    /* \"#utility.yul\":2878:2898   */\n  tag_96\n  tag_97\n  jump\t// in\ntag_96:\n    /* \"#utility.yul\":2868:2898   */\n  swap1\n  pop\n    /* \"#utility.yul\":2907:2940   */\n  tag_98\n    /* \"#utility.yul\":2935:2939   */\n  dup3\n    /* \"#utility.yul\":2927:2933   */\n  dup3\n    /* \"#utility.yul\":2907:2940   */\n  tag_99\n  jump\t// in\ntag_98:\n    /* \"#utility.yul\":2817:2946   */\n  swap2\n  swap1\n  pop\n  jump\t// out\n    /* \"#utility.yul\":2952:3027   */\ntag_97:\n    /* \"#utility.yul\":2985:2991   */\n  0x00\n    /* \"#utility.yul\":3018:3020   */\n  0x40\n    /* \"#utility.yul\":3012:3021   */\n  mload\n    /* \"#utility.yul\":3002:3021   */\n  swap1\n  pop\n    /* \"#utility.yul\":2952:3027   */\n  swap1\n  jump\t// out\n    /* \"#utility.yul\":3033:3341   */\ntag_57:\n    /* \"#utility.yul\":3095:3099   */\n  0x00\n    /* \"#utility.yul\":3185:3203   */\n  0xffffffffffffffff\n    /* \"#utility.yul\":3177:3183   */\n  dup3\n    /* \"#utility.yul\":3174:3204   */\n  gt\n    /* \"#utility.yul\":3171:3227   */\n  iszero\n  tag_102\n  jumpi\n    /* \"#utility.yul\":3207:3225   */\n  tag_103\n  tag_104\n  jump\t// in\ntag_103:\n    /* \"#utility.yul\":3171:3227   */\ntag_102:\n    /* \"#utility.yul\":3245:3274   */\n  tag_105\n    /* \"#utility.yul\":3267:3273   */\n  dup3\n    /* \"#utility.yul\":3245:3274   */\n  tag_106\n  jump\t// in\ntag_105:\n    /* \"#utility.yul\":3237:3274   */\n  swap1\n  pop\n    /* \"#utility.yul\":3329:3333   */\n  0x20\n    /* \"#utility.yul\":3323:3327   */\n  dup2\n    /* \"#utility.yul\":3319:3334   */\n  add\n    /* \"#utility.yul\":3311:3334   */\n  swap1\n  pop\n    /* \"#utility.yul\":3033:3341   */\n  swap2\n  swap1\n  pop\n  jump\t// out\n    /* \"#utility.yul\":3347:3516   */\ntag_84:\n    /* \"#utility.yul\":3431:3442   */\n  0x00\n    /* \"#utility.yul\":3465:3471   */\n  dup3\n    /* \"#utility.yul\":3460:3463   */\n  dup3\n    /* \"#utility.yul\":3453:3472   */\n  mstore\n    /* \"#utility.yul\":3505:3509   */\n  0x20\n    /* \"#utility.yul\":3500:3503   */\n  dup3\n    /* \"#utility.yul\":3496:3510   */\n  add\n    /* \"#utility.yul\":3481:3510   */\n  swap1\n  pop\n    /* \"#utility.yul\":3347:3516   */\n  swap3\n  swap2\n  pop\n  pop\n  jump\t// out\n    /* \"#utility.yul\":3522:3827   */\ntag_33:\n    /* \"#utility.yul\":3562:3565   */\n  0x00\n    /* \"#utility.yul\":3581:3601   */\n  tag_109\n    /* \"#utility.yul\":3599:3600   */\n  dup3\n    /* \"#utility.yul\":3581:3601   */\n  tag_90\n  jump\t// in\ntag_109:\n    /* \"#utility.yul\":3576:3601   */\n  swap2\n  pop\n    /* \"#utility.yul\":3615:3635   */\n  tag_110\n    /* \"#utility.yul\":3633:3634   */\n  dup4\n    /* \"#utility.yul\":3615:3635   */\n  tag_90\n  jump\t// in\ntag_110:\n    /* \"#utility.yul\":3610:3635   */\n  swap3\n  pop\n    /* \"#utility.yul\":3769:3770   */\n  dup3\n    /* \"#utility.yul\":3701:3767   */\n  0xffffffffffffffffffffffffffffffffffffffffffffffffffffffffffffffff\n    /* \"#utility.yul\":3697:3771   */\n  sub\n    /* \"#utility.yul\":3694:3695   */\n  dup3\n    /* \"#utility.yul\":3691:3772   */\n  gt\n    /* \"#utility.yul\":3688:3795   */\n  iszero\n  tag_111\n  jumpi\n    /* \"#utility.yul\":3775:3793   */\n  tag_112\n  tag_113\n  jump\t// in\ntag_112:\n    /* \"#utility.yul\":3688:3795   */\ntag_111:\n    /* \"#utility.yul\":3819:3820   */\n  dup3\n    /* \"#utility.yul\":3816:3817   */\n  dup3\n    /* \"#utility.yul\":3812:3821   */\n  add\n    /* \"#utility.yul\":3805:3821   */\n  swap1\n  pop\n    /* \"#utility.yul\":3522:3827   */\n  swap3\n  swap2\n  pop\n  pop\n  jump\t// out\n    /* \"#utility.yul\":3833:4681   */\ntag_114:\n    /* \"#utility.yul\":3894:3899   */\n  0x00\n    /* \"#utility.yul\":3901:3905   */\n  dup1\n    /* \"#utility.yul\":3925:3931   */\n  dup3\n    /* \"#utility.yul\":3916:3931   */\n  swap2\n  pop\n    /* \"#utility.yul\":3949:3954   */\n  dup4\n    /* \"#utility.yul\":3940:3954   */\n  swap1\n  pop\n    /* \"#utility.yul\":3963:4675   */\ntag_116:\n    /* \"#utility.yul\":3984:3985   */\n  0x01\n    /* \"#utility.yul\":3974:3982   */\n  dup6\n    /* \"#utility.yul\":3971:3986   */\n  gt\n    /* \"#utility.yul\":3963:4675   */\n  iszero\n  tag_118\n  jumpi\n    /* \"#utility.yul\":4079:4083   */\n  dup1\n    /* \"#utility.yul\":4074:4077   */\n  dup7\n    /* \"#utility.yul\":4070:4084   */\n  div\n    /* \"#utility.yul\":4064:4068   */\n  dup2\n    /* \"#utility.yul\":4061:4085   */\n  gt\n    /* \"#utility.yul\":4058:4108   */\n  iszero\n  tag_119\n  jumpi\n    /* \"#utility.yul\":4088:4106   */\n  tag_120\n  tag_113\n  jump\t// in\ntag_120:\n    /* \"#utility.yul\":4058:4108   */\ntag_119:\n    /* \"#utility.yul\":4138:4139   */\n  0x01\n    /* \"#utility.yul\":4128:4136   */\n  dup6\n    /* \"#utility.yul\":4124:4140   */\n  and\n    /* \"#utility.yul\":4121:4572   */\n  iszero\n  tag_121\n  jumpi\n    /* \"#utility.yul\":4553:4557   */\n  dup1\n    /* \"#utility.yul\":4546:4551   */\n  dup3\n    /* \"#utility.yul\":4542:4558   */\n  mul\n    /* \"#utility.yul\":4533:4558   */\n  swap2\n  pop\n    /* \"#utility.yul\":4121:4572   */\ntag_121:\n    /* \"#utility.yul\":4603:4607   */\n  dup1\n    /* \"#utility.yul\":4597:4601   */\n  dup2\n    /* \"#utility.yul\":4593:4608   */\n  mul\n    /* \"#utility.yul\":4585:4608   */\n  swap1\n  pop\n    /* \"#utility.yul\":4633:4665   */\n  tag_122\n    /* \"#utility.yul\":4656:4664   */\n  dup6\n    /* \"#utility.yul\":4633:4665   */\n  tag_123\n  jump\t// in\ntag_122:\n    /* \"#utility.yul\":4621:4665   */\n  swap5\n  pop\n    /* \"#utility.yul\":3963:4675   */\n  jump(tag_116)\ntag_118:\n    /* \"#utility.yul\":3833:4681   */\n  swap5\n  pop\n  swap5\n  swap3\n  pop\n  pop\n  pop\n  jump\t// out\n    /* \"#utility.yul\":4687:4968   */\ntag_23:\n    /* \"#utility.yul\":4745:4750   */\n  0x00\n    /* \"#utility.yul\":4769:4792   */\n  tag_125\n    /* \"#utility.yul\":4787:4791   */\n  dup3\n    /* \"#utility.yul\":4769:4792   */\n  tag_90\n  jump\t// in\ntag_125:\n    /* \"#utility.yul\":4761:4792   */\n  swap2\n  pop\n    /* \"#utility.yul\":4813:4838   */\n  tag_126\n    /* \"#utility.yul\":4829:4837   */\n  dup4\n    /* \"#utility.yul\":4813:4838   */\n  tag_127\n  jump\t// in\ntag_126:\n    /* \"#utility.yul\":4801:4838   */\n  swap3\n  pop\n    /* \"#utility.yul\":4857:4961   */\n  tag_128\n    /* \"#utility.yul\":4894:4960   */\n  0xffffffffffffffffffffffffffffffffffffffffffffffffffffffffffffffff\n    /* \"#utility.yul\":4884:4892   */\n  dup5\n    /* \"#utility.yul\":4878:4882   */\n  dup5\n    /* \"#utility.yul\":4857:4961   */\n  tag_129\n  jump\t// in\ntag_128:\n    /* \"#utility.yul\":4848:4961   */\n  swap1\n  pop\n    /* \"#utility.yul\":4687:4968   */\n  swap3\n  swap2\n  pop\n  pop\n  jump\t// out\n    /* \"#utility.yul\":4974:6047   */\ntag_129:\n    /* \"#utility.yul\":5028:5033   */\n  0x00\n    /* \"#utility.yul\":5219:5227   */\n  dup3\n    /* \"#utility.yul\":5209:5249   */\n  tag_131\n  jumpi\n    /* \"#utility.yul\":5240:5241   */\n  0x01\n    /* \"#utility.yul\":5231:5241   */\n  swap1\n  pop\n    /* \"#utility.yul\":5242:5247   */\n  jump(tag_130)\n    /* \"#utility.yul\":5209:5249   */\ntag_131:\n    /* \"#utility.yul\":5268:5272   */\n  dup2\n    /* \"#utility.yul\":5258:5294   */\n  tag_132\n  jumpi\n    /* \"#utility.yul\":5285:5286   */\n  0x00\n    /* \"#utility.yul\":5276:5286   */\n  swap1\n  pop\n    /* \"#utility.yul\":5287:5292   */\n  jump(tag_130)\n    /* \"#utility.yul\":5258:5294   */\ntag_132:\n    /* \"#utility.yul\":5354:5358   */\n  dup2\n    /* \"#utility.yul\":5402:5403   */\n  0x01\n    /* \"#utility.yul\":5397:5424   */\n  dup2\n  eq\n  tag_134\n  jumpi\n    /* \"#utility.yul\":5438:5439   */\n  0x02\n    /* \"#utility.yul\":5433:5624   */\n  dup2\n  eq\n  tag_135\n  jumpi\n    /* \"#utility.yul\":5347:5624   */\n  jump(tag_133)\n    /* \"#utility.yul\":5397:5424   */\ntag_134:\n    /* \"#utility.yul\":5415:5416   */\n  0x01\n    /* \"#utility.yul\":5406:5416   */\n  swap2\n  pop\n    /* \"#utility.yul\":5417:5422   */\n  pop\n  jump(tag_130)\n    /* \"#utility.yul\":5433:5624   */\ntag_135:\n    /* \"#utility.yul\":5478:5481   */\n  0xff\n    /* \"#utility.yul\":5468:5476   */\n  dup5\n    /* \"#utility.yul\":5465:5482   */\n  gt\n    /* \"#utility.yul\":5462:5505   */\n  iszero\n  tag_136\n  jumpi\n    /* \"#utility.yul\":5485:5503   */\n  tag_137\n  tag_113\n  jump\t// in\ntag_137:\n    /* \"#utility.yul\":5462:5505   */\ntag_136:\n    /* \"#utility.yul\":5534:5542   */\n  dup4\n    /* \"#utility.yul\":5531:5532   */\n  0x02\n    /* \"#utility.yul\":5527:5543   */\n  exp\n    /* \"#utility.yul\":5518:5543   */\n  swap2\n  pop\n    /* \"#utility.yul\":5569:5572   */\n  dup5\n    /* \"#utility.yul\":5562:5567   */\n  dup3\n    /* \"#utility.yul\":5559:5573   */\n  gt\n    /* \"#utility.yul\":5556:5596   */\n  iszero\n  tag_138\n  jumpi\n    /* \"#utility.yul\":5576:5594   */\n  tag_139\n  tag_113\n  jump\t// in\ntag_139:\n    /* \"#utility.yul\":5556:5596   */\ntag_138:\n    /* \"#utility.yul\":5609:5614   */\n  pop\n  jump(tag_130)\n    /* \"#utility.yul\":5347:5624   */\ntag_133:\n  pop\n    /* \"#utility.yul\":5733:5735   */\n  0x20\n    /* \"#utility.yul\":5723:5731   */\n  dup4\n    /* \"#utility.yul\":5720:5736   */\n  lt\n    /* \"#utility.yul\":5714:5717   */\n  0x0133\n    /* \"#utility.yul\":5708:5712   */\n  dup4\n    /* \"#utility.yul\":5705:5718   */\n  lt\n    /* \"#utility.yul\":5701:5737   */\n  and\n    /* \"#utility.yul\":5683:5685   */\n  0x4e\n    /* \"#utility.yul\":5673:5681   */\n  dup5\n    /* \"#utility.yul\":5670:5686   */\n  lt\n    /* \"#utility.yul\":5665:5667   */\n  0x0b\n    /* \"#utility.yul\":5659:5663   */\n  dup5\n    /* \"#utility.yul\":5656:5668   */\n  lt\n    /* \"#utility.yul\":5652:5687   */\n  and\n    /* \"#utility.yul\":5636:5747   */\n  or\n    /* \"#utility.yul\":5633:5879   */\n  iszero\n  tag_140\n  jumpi\n    /* \"#utility.yul\":5789:5797   */\n  dup3\n    /* \"#utility.yul\":5783:5787   */\n  dup3\n    /* \"#utility.yul\":5779:5798   */\n  exp\n    /* \"#utility.yul\":5770:5798   */\n  swap1\n  pop\n    /* \"#utility.yul\":5824:5827   */\n  dup4\n    /* \"#utility.yul\":5817:5822   */\n  dup2\n    /* \"#utility.yul\":5814:5828   */\n  gt\n    /* \"#utility.yul\":5811:5851   */\n  iszero\n  tag_141\n  jumpi\n    /* \"#utility.yul\":5831:5849   */\n  tag_142\n  tag_113\n  jump\t// in\ntag_142:\n    /* \"#utility.yul\":5811:5851   */\ntag_141:\n    /* \"#utility.yul\":5864:5869   */\n  jump(tag_130)\n    /* \"#utility.yul\":5633:5879   */\ntag_140:\n    /* \"#utility.yul\":5904:5946   */\n  tag_143\n    /* \"#utility.yul\":5942:5945   */\n  dup5\n    /* \"#utility.yul\":5932:5940   */\n  dup5\n    /* \"#utility.yul\":5926:5930   */\n  dup5\n    /* \"#utility.yul\":5923:5924   */\n  0x01\n    /* \"#utility.yul\":5904:5946   */\n  tag_114\n  jump\t// in\ntag_143:\n    /* \"#utility.yul\":5889:5946   */\n  swap3\n  pop\n  swap1\n  pop\n    /* \"#utility.yul\":5978:5982   */\n  dup2\n    /* \"#utility.yul\":5973:5976   */\n  dup5\n    /* \"#utility.yul\":5969:5983   */\n  div\n    /* \"#utility.yul\":5962:5967   */\n  dup2\n    /* \"#utility.yul\":5959:5984   */\n  gt\n    /* \"#utility.yul\":5956:6007   */\n  iszero\n  tag_144\n  jumpi\n    /* \"#utility.yul\":5987:6005   */\n  tag_145\n  tag_113\n  jump\t// in\ntag_145:\n    /* \"#utility.yul\":5956:6007   */\ntag_144:\n    /* \"#utility.yul\":6036:6040   */\n  dup2\n    /* \"#utility.yul\":6029:6034   */\n  dup2\n    /* \"#utility.yul\":6025:6041   */\n  mul\n    /* \"#utility.yul\":6016:6041   */\n  swap1\n  pop\n    /* \"#utility.yul\":4974:6047   */\ntag_130:\n  swap4\n  swap3\n  pop\n  pop\n  pop\n  jump\t// out\n    /* \"#utility.yul\":6053:6401   */\ntag_25:\n    /* \"#utility.yul\":6093:6100   */\n  0x00\n    /* \"#utility.yul\":6116:6136   */\n  tag_147\n    /* \"#utility.yul\":6134:6135   */\n  dup3\n    /* \"#utility.yul\":6116:6136   */\n  tag_90\n  jump\t// in\ntag_147:\n    /* \"#utility.yul\":6111:6136   */\n  swap2\n  pop\n    /* \"#utility.yul\":6150:6170   */\n  tag_148\n    /* \"#utility.yul\":6168:6169   */\n  dup4\n    /* \"#utility.yul\":6150:6170   */\n  tag_90\n  jump\t// in\ntag_148:\n    /* \"#utility.yul\":6145:6170   */\n  swap3\n  pop\n    /* \"#utility.yul\":6338:6339   */\n  dup2\n    /* \"#utility.yul\":6270:6336   */\n  0xffffffffffffffffffffffffffffffffffffffffffffffffffffffffffffffff\n    /* \"#utility.yul\":6266:6340   */\n  div\n    /* \"#utility.yul\":6263:6264   */\n  dup4\n    /* \"#utility.yul\":6260:6341   */\n  gt\n    /* \"#utility.yul\":6255:6256   */\n  dup3\n    /* \"#utility.yul\":6248:6257   */\n  iszero\n    /* \"#utility.yul\":6241:6258   */\n  iszero\n    /* \"#utility.yul\":6237:6342   */\n  and\n    /* \"#utility.yul\":6234:6365   */\n  iszero\n  tag_149\n  jumpi\n    /* \"#utility.yul\":6345:6363   */\n  tag_150\n  tag_113\n  jump\t// in\ntag_150:\n    /* \"#utility.yul\":6234:6365   */\ntag_149:\n    /* \"#utility.yul\":6393:6394   */\n  dup3\n    /* \"#utility.yul\":6390:6391   */\n  dup3\n    /* \"#utility.yul\":6386:6395   */\n  mul\n    /* \"#utility.yul\":6375:6395   */\n  swap1\n  pop\n    /* \"#utility.yul\":6053:6401   */\n  swap3\n  swap2\n  pop\n  pop\n  jump\t// out\n    /* \"#utility.yul\":6407:6484   */\ntag_90:\n    /* \"#utility.yul\":6444:6451   */\n  0x00\n    /* \"#utility.yul\":6473:6478   */\n  dup2\n    /* \"#utility.yul\":6462:6478   */\n  swap1\n  pop\n    /* \"#utility.yul\":6407:6484   */\n  swap2\n  swap1\n  pop\n  jump\t// out\n    /* \"#utility.yul\":6490:6576   */\ntag_127:\n    /* \"#utility.yul\":6525:6532   */\n  0x00\n    /* \"#utility.yul\":6565:6569   */\n  0xff\n    /* \"#utility.yul\":6558:6563   */\n  dup3\n    /* \"#utility.yul\":6554:6570   */\n  and\n    /* \"#utility.yul\":6543:6570   */\n  swap1\n  pop\n    /* \"#utility.yul\":6490:6576   */\n  swap2\n  swap1\n  pop\n  jump\t// out\n    /* \"#utility.yul\":6582:6889   */\ntag_63:\n    /* \"#utility.yul\":6650:6651   */\n  0x00\n    /* \"#utility.yul\":6660:6773   */\ntag_154:\n    /* \"#utility.yul\":6674:6680   */\n  dup4\n    /* \"#utility.yul\":6671:6672   */\n  dup2\n    /* \"#utility.yul\":6668:6681   */\n  lt\n    /* \"#utility.yul\":6660:6773   */\n  iszero\n  tag_156\n  jumpi\n    /* \"#utility.yul\":6759:6760   */\n  dup1\n    /* \"#utility.yul\":6754:6757   */\n  dup3\n    /* \"#utility.yul\":6750:6761   */\n  add\n    /* \"#utility.yul\":6744:6762   */\n  mload\n    /* \"#utility.yul\":6740:6741   */\n  dup2\n    /* \"#utility.yul\":6735:6738   */\n  dup5\n    /* \"#utility.yul\":6731:6742   */\n  add\n    /* \"#utility.yul\":6724:6763   */\n  mstore\n    /* \"#utility.yul\":6696:6698   */\n  0x20\n    /* \"#utility.yul\":6693:6694   */\n  dup2\n    /* \"#utility.yul\":6689:6699   */\n  add\n    /* \"#utility.yul\":6684:6699   */\n  swap1\n  pop\n    /* \"#utility.yul\":6660:6773   */\n  jump(tag_154)\ntag_156:\n    /* \"#utility.yul\":6791:6797   */\n  dup4\n    /* \"#utility.yul\":6788:6789   */\n  dup2\n    /* \"#utility.yul\":6785:6798   */\n  gt\n    /* \"#utility.yul\":6782:6883   */\n  iszero\n  tag_157\n  jumpi\n    /* \"#utility.yul\":6871:6872   */\n  0x00\n    /* \"#utility.yul\":6862:6868   */\n  dup5\n    /* \"#utility.yul\":6857:6860   */\n  dup5\n    /* \"#utility.yul\":6853:6869   */\n  add\n    /* \"#utility.yul\":6846:6873   */\n  mstore\n    /* \"#utility.yul\":6782:6883   */\ntag_157:\n    /* \"#utility.yul\":6631:6889   */\n  pop\n    /* \"#utility.yul\":6582:6889   */\n  pop\n  pop\n  pop\n  jump\t// out\n    /* \"#utility.yul\":6895:7215   */\ntag_42:\n    /* \"#utility.yul\":6939:6945   */\n  0x00\n    /* \"#utility.yul\":6976:6977   */\n  0x02\n    /* \"#utility.yul\":6970:6974   */\n  dup3\n    /* \"#utility.yul\":6966:6978   */\n  div\n    /* \"#utility.yul\":6956:6978   */\n  swap1\n  pop\n    /* \"#utility.yul\":7023:7024   */\n  0x01\n    /* \"#utility.yul\":7017:7021   */\n  dup3\n    /* \"#utility.yul\":7013:7025   */\n  and\n    /* \"#utility.yul\":7044:7062   */\n  dup1\n    /* \"#utility.yul\":7034:7115   */\n  tag_159\n  jumpi\n    /* \"#utility.yul\":7100:7104   */\n  0x7f\n    /* \"#utility.yul\":7092:7098   */\n  dup3\n    /* \"#utility.yul\":7088:7105   */\n  and\n    /* \"#utility.yul\":7078:7105   */\n  swap2\n  pop\n    /* \"#utility.yul\":7034:7115   */\ntag_159:\n    /* \"#utility.yul\":7162:7164   */\n  0x20\n    /* \"#utility.yul\":7154:7160   */\n  dup3\n    /* \"#utility.yul\":7151:7165   */\n  lt\n    /* \"#utility.yul\":7131:7149   */\n  dup2\n    /* \"#utility.yul\":7128:7166   */\n  eq\n    /* \"#utility.yul\":7125:7209   */\n  iszero\n  tag_160\n  jumpi\n    /* \"#utility.yul\":7181:7199   */\n  tag_161\n  tag_162\n  jump\t// in\ntag_161:\n    /* \"#utility.yul\":7125:7209   */\ntag_160:\n    /* \"#utility.yul\":6946:7215   */\n  pop\n    /* \"#utility.yul\":6895:7215   */\n  swap2\n  swap1\n  pop\n  jump\t// out\n    /* \"#utility.yul\":7221:7502   */\ntag_99:\n    /* \"#utility.yul\":7304:7331   */\n  tag_164\n    /* \"#utility.yul\":7326:7330   */\n  dup3\n    /* \"#utility.yul\":7304:7331   */\n  tag_106\n  jump\t// in\ntag_164:\n    /* \"#utility.yul\":7296:7302   */\n  dup2\n    /* \"#utility.yul\":7292:7332   */\n  add\n    /* \"#utility.yul\":7434:7440   */\n  dup2\n    /* \"#utility.yul\":7422:7432   */\n  dup2\n    /* \"#utility.yul\":7419:7441   */\n  lt\n    /* \"#utility.yul\":7398:7416   */\n  0xffffffffffffffff\n    /* \"#utility.yul\":7386:7396   */\n  dup3\n    /* \"#utility.yul\":7383:7417   */\n  gt\n    /* \"#utility.yul\":7380:7442   */\n  or\n    /* \"#utility.yul\":7377:7465   */\n  iszero\n  tag_165\n  jumpi\n    /* \"#utility.yul\":7445:7463   */\n  tag_166\n  tag_104\n  jump\t// in\ntag_166:\n    /* \"#utility.yul\":7377:7465   */\ntag_165:\n    /* \"#utility.yul\":7485:7495   */\n  dup1\n    /* \"#utility.yul\":7481:7483   */\n  0x40\n    /* \"#utility.yul\":7474:7496   */\n  mstore\n    /* \"#utility.yul\":7264:7502   */\n  pop\n    /* \"#utility.yul\":7221:7502   */\n  pop\n  pop\n  jump\t// out\n    /* \"#utility.yul\":7508:7688   */\ntag_113:\n    /* \"#utility.yul\":7556:7633   */\n  0x4e487b7100000000000000000000000000000000000000000000000000000000\n    /* \"#utility.yul\":7553:7554   */\n  0x00\n    /* \"#utility.yul\":7546:7634   */\n  mstore\n    /* \"#utility.yul\":7653:7657   */\n  0x11\n    /* \"#utility.yul\":7650:7651   */\n  0x04\n    /* \"#utility.yul\":7643:7658   */\n  mstore\n    /* \"#utility.yul\":7677:7681   */\n  0x24\n    /* \"#utility.yul\":7674:7675   */\n  0x00\n    /* \"#utility.yul\":7667:7682   */\n  revert\n    /* \"#utility.yul\":7694:7874   */\ntag_162:\n    /* \"#utility.yul\":7742:7819   */\n  0x4e487b7100000000000000000000000000000000000000000000000000000000\n    /* \"#utility.yul\":7739:7740   */\n  0x00\n    /* \"#utility.yul\":7732:7820   */\n  mstore\n    /* \"#utility.yul\":7839:7843   */\n  0x22\n    /* \"#utility.yul\":7836:7837   */\n  0x04\n    /* \"#utility.yul\":7829:7844   */\n  mstore\n    /* \"#utility.yul\":7863:7867   */\n  0x24\n    /* \"#utility.yul\":7860:7861   */\n  0x00\n    /* \"#utility.yul\":7853:7868   */\n  revert\n    /* \"#utility.yul\":7880:8060   */\ntag_104:\n    /* \"#utility.yul\":7928:8005   */\n  0x4e487b7100000000000000000000000000000000000000000000000000000000\n    /* \"#utility.yul\":7925:7926   */\n  0x00\n    /* \"#utility.yul\":7918:8006   */\n  mstore\n    /* \"#utility.yul\":8025:8029   */\n  0x41\n    /* \"#utility.yul\":8022:8023   */\n  0x04\n    /* \"#utility.yul\":8015:8030   */\n  mstore\n    /* \"#utility.yul\":8049:8053   */\n  0x24\n    /* \"#utility.yul\":8046:8047   */\n  0x00\n    /* \"#utility.yul\":8039:8054   */\n  revert\n    /* \"#utility.yul\":8066:8183   */\ntag_68:\n    /* \"#utility.yul\":8175:8176   */\n  0x00\n    /* \"#utility.yul\":8172:8173   */\n  dup1\n    /* \"#utility.yul\":8165:8177   */\n  revert\n    /* \"#utility.yul\":8189:8306   */\ntag_61:\n    /* \"#utility.yul\":8298:8299   */\n  0x00\n    /* \"#utility.yul\":8295:8296   */\n  dup1\n    /* \"#utility.yul\":8288:8300   */\n  revert\n    /* \"#utility.yul\":8312:8429   */\ntag_76:\n    /* \"#utility.yul\":8421:8422   */\n  0x00\n    /* \"#utility.yul\":8418:8419   */\n  dup1\n    /* \"#utility.yul\":8411:8423   */\n  revert\n    /* \"#utility.yul\":8435:8552   */\ntag_73:\n    /* \"#utility.yul\":8544:8545   */\n  0x00\n    /* \"#utility.yul\":8541:8542   */\n  dup1\n    /* \"#utility.yul\":8534:8546   */\n  revert\n    /* \"#utility.yul\":8558:8660   */\ntag_106:\n    /* \"#utility.yul\":8599:8605   */\n  0x00\n    /* \"#utility.yul\":8650:8652   */\n  0x1f\n    /* \"#utility.yul\":8646:8653   */\n  not\n    /* \"#utility.yul\":8641:8643   */\n  0x1f\n    /* \"#utility.yul\":8634:8639   */\n  dup4\n    /* \"#utility.yul\":8630:8644   */\n  add\n    /* \"#utility.yul\":8626:8654   */\n  and\n    /* \"#utility.yul\":8616:8654   */\n  swap1\n  pop\n    /* \"#utility.yul\":8558:8660   */\n  swap2\n  swap1\n  pop\n  jump\t// out\n    /* \"#utility.yul\":8666:8768   */\ntag_123:\n    /* \"#utility.yul\":8708:8716   */\n  0x00\n    /* \"#utility.yul\":8755:8760   */\n  dup2\n    /* \"#utility.yul\":8752:8753   */\n  0x01\n    /* \"#utility.yul\":8748:8761   */\n  shr\n    /* \"#utility.yul\":8727:8761   */\n  swap1\n  pop\n    /* \"#utility.yul\":8666:8768   */\n  swap2\n  swap1\n  pop\n  jump\t// out\n    /* \"#utility.yul\":8774:8955   */\ntag_86:\n    /* \"#utility.yul\":8914:8947   */\n  0x45524332303a206d696e7420746f20746865207a65726f206164647265737300\n    /* \"#utility.yul\":8910:8911   */\n  0x00\n    /* \"#utility.yul\":8902:8908   */\n  dup3\n    /* \"#utility.yul\":8898:8912   */\n  add\n    /* \"#utility.yul\":8891:8948   */\n  mstore\n    /* \"#utility.yul\":8774:8955   */\n  pop\n  jump\t// out\n    /* \"Benz-Swap/tokens/TestToken.sol\":139:1043  contract TestnetToken is ERC20 {... */\ntag_18:\n  dataSize(sub_0)\n  dup1\n  dataOffset(sub_0)\n  0x00\n  codecopy\n  0x00\n  return\nstop\n\nsub_0: assembly {\n        /* \"Benz-Swap/tokens/TestToken.sol\":139:1043  contract TestnetToken is ERC20 {... */\n      mstore(0x40, 0x80)\n      callvalue\n      dup1\n      iszero\n      tag_1\n      jumpi\n      0x00\n      dup1\n      revert\n    tag_1:\n      pop\n      jumpi(tag_2, lt(calldatasize, 0x04))\n      shr(0xe0, calldataload(0x00))\n      dup1\n      0x57915897\n      gt\n      tag_17\n      jumpi\n      dup1\n      0x95d89b41\n      gt\n      tag_18\n      jumpi\n      dup1\n      0x95d89b41\n      eq\n      tag_13\n      jumpi\n      dup1\n      0xa457c2d7\n      eq\n      tag_14\n      jumpi\n      dup1\n      0xa9059cbb\n      eq\n      tag_15\n      jumpi\n      dup1\n      0xdd62ed3e\n      eq\n      tag_16\n      jumpi\n      jump(tag_2)\n    tag_18:\n      dup1\n      0x57915897\n      eq\n      tag_10\n      jumpi\n      dup1\n      0x64614c71\n      eq\n      tag_11\n      jumpi\n      dup1\n      0x70a08231\n      eq\n      tag_12\n      jumpi\n      jump(tag_2)\n    tag_17:\n      dup1\n      0x23b872dd\n      gt\n      tag_19\n      jumpi\n      dup1\n      0x23b872dd\n      eq\n      tag_6\n      jumpi\n      dup1\n      0x313ce567\n      eq\n      tag_7\n      jumpi\n      dup1\n      0x39509351\n      eq\n      tag_8\n      jumpi\n      dup1\n      0x52a9039c\n      eq\n      tag_9\n      jumpi\n      jump(tag_2)\n    tag_19:\n      dup1\n      0x06fdde03\n      eq\n      tag_3\n      jumpi\n      dup1\n      0x095ea7b3\n      eq\n      tag_4\n      jumpi\n      dup1\n      0x18160ddd\n      eq\n      tag_5\n      jumpi\n    tag_2:\n      0x00\n      dup1\n      revert\n        /* \"@openzeppelin/contracts/token/ERC20/ERC20.sol\":2154:2252  function name() public view virtual override returns (string memory) {... */\n    tag_3:\n      tag_20\n      tag_21\n      jump\t// in\n    tag_20:\n      mload(0x40)\n      tag_22\n      swap2\n      swap1\n      tag_23\n      jump\t// in\n    tag_22:\n      mload(0x40)\n      dup1\n      swap2\n      sub\n      swap1\n      return\n        /* \"@openzeppelin/contracts/token/ERC20/ERC20.sol\":4431:4628  function approve(address spender, uint256 amount) public virtual override returns (bool) {... */\n    tag_4:\n      tag_24\n      0x04\n      dup1\n      calldatasize\n      sub\n      dup2\n      add\n      swap1\n      tag_25\n      swap2\n      swap1\n      tag_26\n      jump\t// in\n    tag_25:\n      tag_27\n      jump\t// in\n    tag_24:\n      mload(0x40)\n      tag_28\n      swap2\n      swap1\n      tag_29\n      jump\t// in\n    tag_28:\n      mload(0x40)\n      dup1\n      swap2\n      sub\n      swap1\n      return\n        /* \"@openzeppelin/contracts/token/ERC20/ERC20.sol\":3242:3348  function totalSupply() public view virtual override returns (uint256) {... */\n    tag_5:\n      tag_30\n      tag_31\n      jump\t// in\n    tag_30:\n      mload(0x40)\n      tag_32\n      swap2\n      swap1\n      tag_33\n      jump\t// in\n    tag_32:\n      mload(0x40)\n      dup1\n      swap2\n      sub\n      swap1\n      return\n        /* \"@openzeppelin/contracts/token/ERC20/ERC20.sol\":5190:5476  function transferFrom(... */\n    tag_6:\n      tag_34\n      0x04\n      dup1\n      calldatasize\n      sub\n      dup2\n      add\n      swap1\n      tag_35\n      swap2\n      swap1\n      tag_36\n      jump\t// in\n    tag_35:\n      tag_37\n      jump\t// in\n    tag_34:\n      mload(0x40)\n      tag_38\n      swap2\n      swap1\n      tag_29\n      jump\t// in\n    tag_38:\n      mload(0x40)\n      dup1\n      swap2\n      sub\n      swap1\n      return\n        /* \"@openzeppelin/contracts/token/ERC20/ERC20.sol\":3091:3182  function decimals() public view virtual override returns (uint8) {... */\n    tag_7:\n      tag_39\n      tag_40\n      jump\t// in\n    tag_39:\n      mload(0x40)\n      tag_41\n      swap2\n      swap1\n      tag_42\n      jump\t// in\n    tag_41:\n      mload(0x40)\n      dup1\n      swap2\n      sub\n      swap1\n      return\n        /* \"@openzeppelin/contracts/token/ERC20/ERC20.sol\":5871:6105  function increaseAllowance(address spender, uint256 addedValue) public virtual returns (bool) {... */\n    tag_8:\n      tag_43\n      0x04\n      dup1\n      calldatasize\n      sub\n      dup2\n      add\n      swap1\n      tag_44\n      swap2\n      swap1\n      tag_26\n      jump\t// in\n    tag_44:\n      tag_45\n      jump\t// in\n    tag_43:\n      mload(0x40)\n      tag_46\n      swap2\n      swap1\n      tag_29\n      jump\t// in\n    tag_46:\n      mload(0x40)\n      dup1\n      swap2\n      sub\n      swap1\n      return\n        /* \"Benz-Swap/tokens/TestToken.sol\":265:311  mapping(address => uint256) public allocations */\n    tag_9:\n      tag_47\n      0x04\n      dup1\n      calldatasize\n      sub\n      dup2\n      add\n      swap1\n      tag_48\n      swap2\n      swap1\n      tag_49\n      jump\t// in\n    tag_48:\n      tag_50\n      jump\t// in\n    tag_47:\n      mload(0x40)\n      tag_51\n      swap2\n      swap1\n      tag_33\n      jump\t// in\n    tag_51:\n      mload(0x40)\n      dup1\n      swap2\n      sub\n      swap1\n      return\n        /* \"Benz-Swap/tokens/TestToken.sol\":545:925  function faucet(uint256 amount) public {... */\n    tag_10:\n      tag_52\n      0x04\n      dup1\n      calldatasize\n      sub\n      dup2\n      add\n      swap1\n      tag_53\n      swap2\n      swap1\n      tag_54\n      jump\t// in\n    tag_53:\n      tag_55\n      jump\t// in\n    tag_52:\n      stop\n        /* \"Benz-Swap/tokens/TestToken.sol\":931:1041  function inWei(uint256 amount) public view returns (uint256) {... */\n    tag_11:\n      tag_56\n      0x04\n      dup1\n      calldatasize\n      sub\n      dup2\n      add\n      swap1\n      tag_57\n      swap2\n      swap1\n      tag_54\n      jump\t// in\n    tag_57:\n      tag_58\n      jump\t// in\n    tag_56:\n      mload(0x40)\n      tag_59\n      swap2\n      swap1\n      tag_33\n      jump\t// in\n    tag_59:\n      mload(0x40)\n      dup1\n      swap2\n      sub\n      swap1\n      return\n        /* \"@openzeppelin/contracts/token/ERC20/ERC20.sol\":3406:3531  function balanceOf(address account) public view virtual override returns (uint256) {... */\n    tag_12:\n      tag_60\n      0x04\n      dup1\n      calldatasize\n      sub\n      dup2\n      add\n      swap1\n      tag_61\n      swap2\n      swap1\n      tag_49\n      jump\t// in\n    tag_61:\n      tag_62\n      jump\t// in\n    tag_60:\n      mload(0x40)\n      tag_63\n      swap2\n      swap1\n      tag_33\n      jump\t// in\n    tag_63:\n      mload(0x40)\n      dup1\n      swap2\n      sub\n      swap1\n      return\n        /* \"@openzeppelin/contracts/token/ERC20/ERC20.sol\":2365:2467  function symbol() public view virtual override returns (string memory) {... */\n    tag_13:\n      tag_64\n      tag_65\n      jump\t// in\n    tag_64:\n      mload(0x40)\n      tag_66\n      swap2\n      swap1\n      tag_23\n      jump\t// in\n    tag_66:\n      mload(0x40)\n      dup1\n      swap2\n      sub\n      swap1\n      return\n        /* \"@openzeppelin/contracts/token/ERC20/ERC20.sol\":6592:7019  function decreaseAllowance(address spender, uint256 subtractedValue) public virtual returns (bool) {... */\n    tag_14:\n      tag_67\n      0x04\n      dup1\n      calldatasize\n      sub\n      dup2\n      add\n      swap1\n      tag_68\n      swap2\n      swap1\n      tag_26\n      jump\t// in\n    tag_68:\n      tag_69\n      jump\t// in\n    tag_67:\n      mload(0x40)\n      tag_70\n      swap2\n      swap1\n      tag_29\n      jump\t// in\n    tag_70:\n      mload(0x40)\n      dup1\n      swap2\n      sub\n      swap1\n      return\n        /* \"@openzeppelin/contracts/token/ERC20/ERC20.sol\":3727:3916  function transfer(address to, uint256 amount) public virtual override returns (bool) {... */\n    tag_15:\n      tag_71\n      0x04\n      dup1\n      calldatasize\n      sub\n      dup2\n      add\n      swap1\n      tag_72\n      swap2\n      swap1\n      tag_26\n      jump\t// in\n    tag_72:\n      tag_73\n      jump\t// in\n    tag_71:\n      mload(0x40)\n      tag_74\n      swap2\n      swap1\n      tag_29\n      jump\t// in\n    tag_74:\n      mload(0x40)\n      dup1\n      swap2\n      sub\n      swap1\n      return\n        /* \"@openzeppelin/contracts/token/ERC20/ERC20.sol\":3974:4123  function allowance(address owner, address spender) public view virtual override returns (uint256) {... */\n    tag_16:\n      tag_75\n      0x04\n      dup1\n      calldatasize\n      sub\n      dup2\n      add\n      swap1\n      tag_76\n      swap2\n      swap1\n      tag_77\n      jump\t// in\n    tag_76:\n      tag_78\n      jump\t// in\n    tag_75:\n      mload(0x40)\n      tag_79\n      swap2\n      swap1\n      tag_33\n      jump\t// in\n    tag_79:\n      mload(0x40)\n      dup1\n      swap2\n      sub\n      swap1\n      return\n        /* \"@openzeppelin/contracts/token/ERC20/ERC20.sol\":2154:2252  function name() public view virtual override returns (string memory) {... */\n    tag_21:\n        /* \"@openzeppelin/contracts/token/ERC20/ERC20.sol\":2208:2221  string memory */\n      0x60\n        /* \"@openzeppelin/contracts/token/ERC20/ERC20.sol\":2240:2245  _name */\n      0x03\n        /* \"@openzeppelin/contracts/token/ERC20/ERC20.sol\":2233:2245  return _name */\n      dup1\n      sload\n      tag_81\n      swap1\n      tag_82\n      jump\t// in\n    tag_81:\n      dup1\n      0x1f\n      add\n      0x20\n      dup1\n      swap2\n      div\n      mul\n      0x20\n      add\n      mload(0x40)\n      swap1\n      dup2\n      add\n      0x40\n      mstore\n      dup1\n      swap3\n      swap2\n      swap1\n      dup2\n      dup2\n      mstore\n      0x20\n      add\n      dup3\n      dup1\n      sload\n      tag_83\n      swap1\n      tag_82\n      jump\t// in\n    tag_83:\n      dup1\n      iszero\n      tag_84\n      jumpi\n      dup1\n      0x1f\n      lt\n      tag_85\n      jumpi\n      0x0100\n      dup1\n      dup4\n      sload\n      div\n      mul\n      dup4\n      mstore\n      swap2\n      0x20\n      add\n      swap2\n      jump(tag_84)\n    tag_85:\n      dup3\n      add\n      swap2\n      swap1\n      0x00\n      mstore\n      keccak256(0x00, 0x20)\n      swap1\n    tag_86:\n      dup2\n      sload\n      dup2\n      mstore\n      swap1\n      0x01\n      add\n      swap1\n      0x20\n      add\n      dup1\n      dup4\n      gt\n      tag_86\n      jumpi\n      dup3\n      swap1\n      sub\n      0x1f\n      and\n      dup3\n      add\n      swap2\n    tag_84:\n      pop\n      pop\n      pop\n      pop\n      pop\n      swap1\n      pop\n        /* \"@openzeppelin/contracts/token/ERC20/ERC20.sol\":2154:2252  function name() public view virtual override returns (string memory) {... */\n      swap1\n      jump\t// out\n        /* \"@openzeppelin/contracts/token/ERC20/ERC20.sol\":4431:4628  function approve(address spender, uint256 amount) public virtual override returns (bool) {... */\n    tag_27:\n        /* \"@openzeppelin/contracts/token/ERC20/ERC20.sol\":4514:4518  bool */\n      0x00\n        /* \"@openzeppelin/contracts/token/ERC20/ERC20.sol\":4530:4543  address owner */\n      dup1\n        /* \"@openzeppelin/contracts/token/ERC20/ERC20.sol\":4546:4558  _msgSender() */\n      tag_88\n        /* \"@openzeppelin/contracts/token/ERC20/ERC20.sol\":4546:4556  _msgSender */\n      tag_89\n        /* \"@openzeppelin/contracts/token/ERC20/ERC20.sol\":4546:4558  _msgSender() */\n      jump\t// in\n    tag_88:\n        /* \"@openzeppelin/contracts/token/ERC20/ERC20.sol\":4530:4558  address owner = _msgSender() */\n      swap1\n      pop\n        /* \"@openzeppelin/contracts/token/ERC20/ERC20.sol\":4568:4600  _approve(owner, spender, amount) */\n      tag_90\n        /* \"@openzeppelin/contracts/token/ERC20/ERC20.sol\":4577:4582  owner */\n      dup2\n        /* \"@openzeppelin/contracts/token/ERC20/ERC20.sol\":4584:4591  spender */\n      dup6\n        /* \"@openzeppelin/contracts/token/ERC20/ERC20.sol\":4593:4599  amount */\n      dup6\n        /* \"@openzeppelin/contracts/token/ERC20/ERC20.sol\":4568:4576  _approve */\n      tag_91\n        /* \"@openzeppelin/contracts/token/ERC20/ERC20.sol\":4568:4600  _approve(owner, spender, amount) */\n      jump\t// in\n    tag_90:\n        /* \"@openzeppelin/contracts/token/ERC20/ERC20.sol\":4617:4621  true */\n      0x01\n        /* \"@openzeppelin/contracts/token/ERC20/ERC20.sol\":4610:4621  return true */\n      swap2\n      pop\n      pop\n        /* \"@openzeppelin/contracts/token/ERC20/ERC20.sol\":4431:4628  function approve(address spender, uint256 amount) public virtual override returns (bool) {... */\n      swap3\n      swap2\n      pop\n      pop\n      jump\t// out\n        /* \"@openzeppelin/contracts/token/ERC20/ERC20.sol\":3242:3348  function totalSupply() public view virtual override returns (uint256) {... */\n    tag_31:\n        /* \"@openzeppelin/contracts/token/ERC20/ERC20.sol\":3303:3310  uint256 */\n      0x00\n        /* \"@openzeppelin/contracts/token/ERC20/ERC20.sol\":3329:3341  _totalSupply */\n      sload(0x02)\n        /* \"@openzeppelin/contracts/token/ERC20/ERC20.sol\":3322:3341  return _totalSupply */\n      swap1\n      pop\n        /* \"@openzeppelin/contracts/token/ERC20/ERC20.sol\":3242:3348  function totalSupply() public view virtual override returns (uint256) {... */\n      swap1\n      jump\t// out\n        /* \"@openzeppelin/contracts/token/ERC20/ERC20.sol\":5190:5476  function transferFrom(... */\n    tag_37:\n        /* \"@openzeppelin/contracts/token/ERC20/ERC20.sol\":5317:5321  bool */\n      0x00\n        /* \"@openzeppelin/contracts/token/ERC20/ERC20.sol\":5333:5348  address spender */\n      dup1\n        /* \"@openzeppelin/contracts/token/ERC20/ERC20.sol\":5351:5363  _msgSender() */\n      tag_94\n        /* \"@openzeppelin/contracts/token/ERC20/ERC20.sol\":5351:5361  _msgSender */\n      tag_89\n        /* \"@openzeppelin/contracts/token/ERC20/ERC20.sol\":5351:5363  _msgSender() */\n      jump\t// in\n    tag_94:\n        /* \"@openzeppelin/contracts/token/ERC20/ERC20.sol\":5333:5363  address spender = _msgSender() */\n      swap1\n      pop\n        /* \"@openzeppelin/contracts/token/ERC20/ERC20.sol\":5373:5411  _spendAllowance(from, spender, amount) */\n      tag_95\n        /* \"@openzeppelin/contracts/token/ERC20/ERC20.sol\":5389:5393  from */\n      dup6\n        /* \"@openzeppelin/contracts/token/ERC20/ERC20.sol\":5395:5402  spender */\n      dup3\n        /* \"@openzeppelin/contracts/token/ERC20/ERC20.sol\":5404:5410  amount */\n      dup6\n        /* \"@openzeppelin/contracts/token/ERC20/ERC20.sol\":5373:5388  _spendAllowance */\n      tag_96\n        /* \"@openzeppelin/contracts/token/ERC20/ERC20.sol\":5373:5411  _spendAllowance(from, spender, amount) */\n      jump\t// in\n    tag_95:\n        /* \"@openzeppelin/contracts/token/ERC20/ERC20.sol\":5421:5448  _transfer(from, to, amount) */\n      tag_97\n        /* \"@openzeppelin/contracts/token/ERC20/ERC20.sol\":5431:5435  from */\n      dup6\n        /* \"@openzeppelin/contracts/token/ERC20/ERC20.sol\":5437:5439  to */\n      dup6\n        /* \"@openzeppelin/contracts/token/ERC20/ERC20.sol\":5441:5447  amount */\n      dup6\n        /* \"@openzeppelin/contracts/token/ERC20/ERC20.sol\":5421:5430  _transfer */\n      tag_98\n        /* \"@openzeppelin/contracts/token/ERC20/ERC20.sol\":5421:5448  _transfer(from, to, amount) */\n      jump\t// in\n    tag_97:\n        /* \"@openzeppelin/contracts/token/ERC20/ERC20.sol\":5465:5469  true */\n      0x01\n        /* \"@openzeppelin/contracts/token/ERC20/ERC20.sol\":5458:5469  return true */\n      swap2\n      pop\n      pop\n        /* \"@openzeppelin/contracts/token/ERC20/ERC20.sol\":5190:5476  function transferFrom(... */\n      swap4\n      swap3\n      pop\n      pop\n      pop\n      jump\t// out\n        /* \"@openzeppelin/contracts/token/ERC20/ERC20.sol\":3091:3182  function decimals() public view virtual override returns (uint8) {... */\n    tag_40:\n        /* \"@openzeppelin/contracts/token/ERC20/ERC20.sol\":3149:3154  uint8 */\n      0x00\n        /* \"@openzeppelin/contracts/token/ERC20/ERC20.sol\":3173:3175  18 */\n      0x12\n        /* \"@openzeppelin/contracts/token/ERC20/ERC20.sol\":3166:3175  return 18 */\n      swap1\n      pop\n        /* \"@openzeppelin/contracts/token/ERC20/ERC20.sol\":3091:3182  function decimals() public view virtual override returns (uint8) {... */\n      swap1\n      jump\t// out\n        /* \"@openzeppelin/contracts/token/ERC20/ERC20.sol\":5871:6105  function increaseAllowance(address spender, uint256 addedValue) public virtual returns (bool) {... */\n    tag_45:\n        /* \"@openzeppelin/contracts/token/ERC20/ERC20.sol\":5959:5963  bool */\n      0x00\n        /* \"@openzeppelin/contracts/token/ERC20/ERC20.sol\":5975:5988  address owner */\n      dup1\n        /* \"@openzeppelin/contracts/token/ERC20/ERC20.sol\":5991:6003  _msgSender() */\n      tag_101\n        /* \"@openzeppelin/contracts/token/ERC20/ERC20.sol\":5991:6001  _msgSender */\n      tag_89\n        /* \"@openzeppelin/contracts/token/ERC20/ERC20.sol\":5991:6003  _msgSender() */\n      jump\t// in\n    tag_101:\n        /* \"@openzeppelin/contracts/token/ERC20/ERC20.sol\":5975:6003  address owner = _msgSender() */\n      swap1\n      pop\n        /* \"@openzeppelin/contracts/token/ERC20/ERC20.sol\":6013:6077  _approve(owner, spender, allowance(owner, spender) + addedValue) */\n      tag_102\n        /* \"@openzeppelin/contracts/token/ERC20/ERC20.sol\":6022:6027  owner */\n      dup2\n        /* \"@openzeppelin/contracts/token/ERC20/ERC20.sol\":6029:6036  spender */\n      dup6\n        /* \"@openzeppelin/contracts/token/ERC20/ERC20.sol\":6066:6076  addedValue */\n      dup6\n        /* \"@openzeppelin/contracts/token/ERC20/ERC20.sol\":6038:6063  allowance(owner, spender) */\n      tag_103\n        /* \"@openzeppelin/contracts/token/ERC20/ERC20.sol\":6048:6053  owner */\n      dup6\n        /* \"@openzeppelin/contracts/token/ERC20/ERC20.sol\":6055:6062  spender */\n      dup10\n        /* \"@openzeppelin/contracts/token/ERC20/ERC20.sol\":6038:6047  allowance */\n      tag_78\n        /* \"@openzeppelin/contracts/token/ERC20/ERC20.sol\":6038:6063  allowance(owner, spender) */\n      jump\t// in\n    tag_103:\n        /* \"@openzeppelin/contracts/token/ERC20/ERC20.sol\":6038:6076  allowance(owner, spender) + addedValue */\n      tag_104\n      swap2\n      swap1\n      tag_105\n      jump\t// in\n    tag_104:\n        /* \"@openzeppelin/contracts/token/ERC20/ERC20.sol\":6013:6021  _approve */\n      tag_91\n        /* \"@openzeppelin/contracts/token/ERC20/ERC20.sol\":6013:6077  _approve(owner, spender, allowance(owner, spender) + addedValue) */\n      jump\t// in\n    tag_102:\n        /* \"@openzeppelin/contracts/token/ERC20/ERC20.sol\":6094:6098  true */\n      0x01\n        /* \"@openzeppelin/contracts/token/ERC20/ERC20.sol\":6087:6098  return true */\n      swap2\n      pop\n      pop\n        /* \"@openzeppelin/contracts/token/ERC20/ERC20.sol\":5871:6105  function increaseAllowance(address spender, uint256 addedValue) public virtual returns (bool) {... */\n      swap3\n      swap2\n      pop\n      pop\n      jump\t// out\n        /* \"Benz-Swap/tokens/TestToken.sol\":265:311  mapping(address => uint256) public allocations */\n    tag_50:\n      mstore(0x20, 0x06)\n      dup1\n      0x00\n      mstore\n      keccak256(0x00, 0x40)\n      0x00\n      swap2\n      pop\n      swap1\n      pop\n      sload\n      dup2\n      jump\t// out\n        /* \"Benz-Swap/tokens/TestToken.sol\":545:925  function faucet(uint256 amount) public {... */\n    tag_55:\n        /* \"Benz-Swap/tokens/TestToken.sol\":611:612  0 */\n      0x00\n        /* \"Benz-Swap/tokens/TestToken.sol\":602:608  amount */\n      dup2\n        /* \"Benz-Swap/tokens/TestToken.sol\":602:612  amount > 0 */\n      gt\n        /* \"Benz-Swap/tokens/TestToken.sol\":594:638  require(amount > 0, \"Amount cannot be zero\") */\n      tag_107\n      jumpi\n      mload(0x40)\n      0x08c379a000000000000000000000000000000000000000000000000000000000\n      dup2\n      mstore\n      0x04\n      add\n      tag_108\n      swap1\n      tag_109\n      jump\t// in\n    tag_108:\n      mload(0x40)\n      dup1\n      swap2\n      sub\n      swap1\n      revert\n    tag_107:\n        /* \"Benz-Swap/tokens/TestToken.sol\":704:718  MAX_ALLOCATION */\n      sload(0x05)\n        /* \"Benz-Swap/tokens/TestToken.sol\":695:701  amount */\n      dup2\n        /* \"Benz-Swap/tokens/TestToken.sol\":669:680  allocations */\n      0x06\n        /* \"Benz-Swap/tokens/TestToken.sol\":669:692  allocations[msg.sender] */\n      0x00\n        /* \"Benz-Swap/tokens/TestToken.sol\":681:691  msg.sender */\n      caller\n        /* \"Benz-Swap/tokens/TestToken.sol\":669:692  allocations[msg.sender] */\n      0xffffffffffffffffffffffffffffffffffffffff\n      and\n      0xffffffffffffffffffffffffffffffffffffffff\n      and\n      dup2\n      mstore\n      0x20\n      add\n      swap1\n      dup2\n      mstore\n      0x20\n      add\n      0x00\n      keccak256\n      sload\n        /* \"Benz-Swap/tokens/TestToken.sol\":669:701  allocations[msg.sender] + amount */\n      tag_110\n      swap2\n      swap1\n      tag_105\n      jump\t// in\n    tag_110:\n        /* \"Benz-Swap/tokens/TestToken.sol\":669:718  allocations[msg.sender] + amount < MAX_ALLOCATION */\n      lt\n        /* \"Benz-Swap/tokens/TestToken.sol\":648:765  require(... */\n      tag_111\n      jumpi\n      mload(0x40)\n      0x08c379a000000000000000000000000000000000000000000000000000000000\n      dup2\n      mstore\n      0x04\n      add\n      tag_112\n      swap1\n      tag_113\n      jump\t// in\n    tag_112:\n      mload(0x40)\n      dup1\n      swap2\n      sub\n      swap1\n      revert\n    tag_111:\n        /* \"Benz-Swap/tokens/TestToken.sol\":802:808  amount */\n      dup1\n        /* \"Benz-Swap/tokens/TestToken.sol\":775:786  allocations */\n      0x06\n        /* \"Benz-Swap/tokens/TestToken.sol\":775:798  allocations[msg.sender] */\n      0x00\n        /* \"Benz-Swap/tokens/TestToken.sol\":787:797  msg.sender */\n      caller\n        /* \"Benz-Swap/tokens/TestToken.sol\":775:798  allocations[msg.sender] */\n      0xffffffffffffffffffffffffffffffffffffffff\n      and\n      0xffffffffffffffffffffffffffffffffffffffff\n      and\n      dup2\n      mstore\n      0x20\n      add\n      swap1\n      dup2\n      mstore\n      0x20\n      add\n      0x00\n      keccak256\n      0x00\n        /* \"Benz-Swap/tokens/TestToken.sol\":775:808  allocations[msg.sender] += amount */\n      dup3\n      dup3\n      sload\n      tag_114\n      swap2\n      swap1\n      tag_105\n      jump\t// in\n    tag_114:\n      swap3\n      pop\n      pop\n      dup2\n      swap1\n      sstore\n      pop\n        /* \"Benz-Swap/tokens/TestToken.sol\":818:861  _approve(address(this), msg.sender, amount) */\n      tag_115\n        /* \"Benz-Swap/tokens/TestToken.sol\":835:839  this */\n      address\n        /* \"Benz-Swap/tokens/TestToken.sol\":842:852  msg.sender */\n      caller\n        /* \"Benz-Swap/tokens/TestToken.sol\":854:860  amount */\n      dup4\n        /* \"Benz-Swap/tokens/TestToken.sol\":818:826  _approve */\n      tag_91\n        /* \"Benz-Swap/tokens/TestToken.sol\":818:861  _approve(address(this), msg.sender, amount) */\n      jump\t// in\n    tag_115:\n        /* \"Benz-Swap/tokens/TestToken.sol\":871:918  transferFrom(address(this), msg.sender, amount) */\n      tag_116\n        /* \"Benz-Swap/tokens/TestToken.sol\":892:896  this */\n      address\n        /* \"Benz-Swap/tokens/TestToken.sol\":899:909  msg.sender */\n      caller\n        /* \"Benz-Swap/tokens/TestToken.sol\":911:917  amount */\n      dup4\n        /* \"Benz-Swap/tokens/TestToken.sol\":871:883  transferFrom */\n      tag_37\n        /* \"Benz-Swap/tokens/TestToken.sol\":871:918  transferFrom(address(this), msg.sender, amount) */\n      jump\t// in\n    tag_116:\n      pop\n        /* \"Benz-Swap/tokens/TestToken.sol\":545:925  function faucet(uint256 amount) public {... */\n      pop\n      jump\t// out\n        /* \"Benz-Swap/tokens/TestToken.sol\":931:1041  function inWei(uint256 amount) public view returns (uint256) {... */\n    tag_58:\n        /* \"Benz-Swap/tokens/TestToken.sol\":983:990  uint256 */\n      0x00\n        /* \"Benz-Swap/tokens/TestToken.sol\":1024:1034  decimals() */\n      tag_118\n        /* \"Benz-Swap/tokens/TestToken.sol\":1024:1032  decimals */\n      tag_40\n        /* \"Benz-Swap/tokens/TestToken.sol\":1024:1034  decimals() */\n      jump\t// in\n    tag_118:\n        /* \"Benz-Swap/tokens/TestToken.sol\":1018:1020  10 */\n      0x0a\n        /* \"Benz-Swap/tokens/TestToken.sol\":1018:1034  10 ** decimals() */\n      tag_119\n      swap2\n      swap1\n      tag_120\n      jump\t// in\n    tag_119:\n        /* \"Benz-Swap/tokens/TestToken.sol\":1009:1015  amount */\n      dup3\n        /* \"Benz-Swap/tokens/TestToken.sol\":1009:1034  amount * 10 ** decimals() */\n      tag_121\n      swap2\n      swap1\n      tag_122\n      jump\t// in\n    tag_121:\n        /* \"Benz-Swap/tokens/TestToken.sol\":1002:1034  return amount * 10 ** decimals() */\n      swap1\n      pop\n        /* \"Benz-Swap/tokens/TestToken.sol\":931:1041  function inWei(uint256 amount) public view returns (uint256) {... */\n      swap2\n      swap1\n      pop\n      jump\t// out\n        /* \"@openzeppelin/contracts/token/ERC20/ERC20.sol\":3406:3531  function balanceOf(address account) public view virtual override returns (uint256) {... */\n    tag_62:\n        /* \"@openzeppelin/contracts/token/ERC20/ERC20.sol\":3480:3487  uint256 */\n      0x00\n        /* \"@openzeppelin/contracts/token/ERC20/ERC20.sol\":3506:3515  _balances */\n      dup1\n        /* \"@openzeppelin/contracts/token/ERC20/ERC20.sol\":3506:3524  _balances[account] */\n      0x00\n        /* \"@openzeppelin/contracts/token/ERC20/ERC20.sol\":3516:3523  account */\n      dup4\n        /* \"@openzeppelin/contracts/token/ERC20/ERC20.sol\":3506:3524  _balances[account] */\n      0xffffffffffffffffffffffffffffffffffffffff\n      and\n      0xffffffffffffffffffffffffffffffffffffffff\n      and\n      dup2\n      mstore\n      0x20\n      add\n      swap1\n      dup2\n      mstore\n      0x20\n      add\n      0x00\n      keccak256\n      sload\n        /* \"@openzeppelin/contracts/token/ERC20/ERC20.sol\":3499:3524  return _balances[account] */\n      swap1\n      pop\n        /* \"@openzeppelin/contracts/token/ERC20/ERC20.sol\":3406:3531  function balanceOf(address account) public view virtual override returns (uint256) {... */\n      swap2\n      swap1\n      pop\n      jump\t// out\n        /* \"@openzeppelin/contracts/token/ERC20/ERC20.sol\":2365:2467  function symbol() public view virtual override returns (string memory) {... */\n    tag_65:\n        /* \"@openzeppelin/contracts/token/ERC20/ERC20.sol\":2421:2434  string memory */\n      0x60\n        /* \"@openzeppelin/contracts/token/ERC20/ERC20.sol\":2453:2460  _symbol */\n      0x04\n        /* \"@openzeppelin/contracts/token/ERC20/ERC20.sol\":2446:2460  return _symbol */\n      dup1\n      sload\n      tag_125\n      swap1\n      tag_82\n      jump\t// in\n    tag_125:\n      dup1\n      0x1f\n      add\n      0x20\n      dup1\n      swap2\n      div\n      mul\n      0x20\n      add\n      mload(0x40)\n      swap1\n      dup2\n      add\n      0x40\n      mstore\n      dup1\n      swap3\n      swap2\n      swap1\n      dup2\n      dup2\n      mstore\n      0x20\n      add\n      dup3\n      dup1\n      sload\n      tag_126\n      swap1\n      tag_82\n      jump\t// in\n    tag_126:\n      dup1\n      iszero\n      tag_127\n      jumpi\n      dup1\n      0x1f\n      lt\n      tag_128\n      jumpi\n      0x0100\n      dup1\n      dup4\n      sload\n      div\n      mul\n      dup4\n      mstore\n      swap2\n      0x20\n      add\n      swap2\n      jump(tag_127)\n    tag_128:\n      dup3\n      add\n      swap2\n      swap1\n      0x00\n      mstore\n      keccak256(0x00, 0x20)\n      swap1\n    tag_129:\n      dup2\n      sload\n      dup2\n      mstore\n      swap1\n      0x01\n      add\n      swap1\n      0x20\n      add\n      dup1\n      dup4\n      gt\n      tag_129\n      jumpi\n      dup3\n      swap1\n      sub\n      0x1f\n      and\n      dup3\n      add\n      swap2\n    tag_127:\n      pop\n      pop\n      pop\n      pop\n      pop\n      swap1\n      pop\n        /* \"@openzeppelin/contracts/token/ERC20/ERC20.sol\":2365:2467  function symbol() public view virtual override returns (string memory) {... */\n      swap1\n      jump\t// out\n        /* \"@openzeppelin/contracts/token/ERC20/ERC20.sol\":6592:7019  function decreaseAllowance(address spender, uint256 subtractedValue) public virtual returns (bool) {... */\n    tag_69:\n        /* \"@openzeppelin/contracts/token/ERC20/ERC20.sol\":6685:6689  bool */\n      0x00\n        /* \"@openzeppelin/contracts/token/ERC20/ERC20.sol\":6701:6714  address owner */\n      dup1\n        /* \"@openzeppelin/contracts/token/ERC20/ERC20.sol\":6717:6729  _msgSender() */\n      tag_131\n        /* \"@openzeppelin/contracts/token/ERC20/ERC20.sol\":6717:6727  _msgSender */\n      tag_89\n        /* \"@openzeppelin/contracts/token/ERC20/ERC20.sol\":6717:6729  _msgSender() */\n      jump\t// in\n    tag_131:\n        /* \"@openzeppelin/contracts/token/ERC20/ERC20.sol\":6701:6729  address owner = _msgSender() */\n      swap1\n      pop\n        /* \"@openzeppelin/contracts/token/ERC20/ERC20.sol\":6739:6763  uint256 currentAllowance */\n      0x00\n        /* \"@openzeppelin/contracts/token/ERC20/ERC20.sol\":6766:6791  allowance(owner, spender) */\n      tag_132\n        /* \"@openzeppelin/contracts/token/ERC20/ERC20.sol\":6776:6781  owner */\n      dup3\n        /* \"@openzeppelin/contracts/token/ERC20/ERC20.sol\":6783:6790  spender */\n      dup7\n        /* \"@openzeppelin/contracts/token/ERC20/ERC20.sol\":6766:6775  allowance */\n      tag_78\n        /* \"@openzeppelin/contracts/token/ERC20/ERC20.sol\":6766:6791  allowance(owner, spender) */\n      jump\t// in\n    tag_132:\n        /* \"@openzeppelin/contracts/token/ERC20/ERC20.sol\":6739:6791  uint256 currentAllowance = allowance(owner, spender) */\n      swap1\n      pop\n        /* \"@openzeppelin/contracts/token/ERC20/ERC20.sol\":6829:6844  subtractedValue */\n      dup4\n        /* \"@openzeppelin/contracts/token/ERC20/ERC20.sol\":6809:6825  currentAllowance */\n      dup2\n        /* \"@openzeppelin/contracts/token/ERC20/ERC20.sol\":6809:6844  currentAllowance >= subtractedValue */\n      lt\n      iszero\n        /* \"@openzeppelin/contracts/token/ERC20/ERC20.sol\":6801:6886  require(currentAllowance >= subtractedValue, \"ERC20: decreased allowance below zero\") */\n      tag_133\n      jumpi\n      mload(0x40)\n      0x08c379a000000000000000000000000000000000000000000000000000000000\n      dup2\n      mstore\n      0x04\n      add\n      tag_134\n      swap1\n      tag_135\n      jump\t// in\n    tag_134:\n      mload(0x40)\n      dup1\n      swap2\n      sub\n      swap1\n      revert\n    tag_133:\n        /* \"@openzeppelin/contracts/token/ERC20/ERC20.sol\":6920:6980  _approve(owner, spender, currentAllowance - subtractedValue) */\n      tag_136\n        /* \"@openzeppelin/contracts/token/ERC20/ERC20.sol\":6929:6934  owner */\n      dup3\n        /* \"@openzeppelin/contracts/token/ERC20/ERC20.sol\":6936:6943  spender */\n      dup7\n        /* \"@openzeppelin/contracts/token/ERC20/ERC20.sol\":6964:6979  subtractedValue */\n      dup7\n        /* \"@openzeppelin/contracts/token/ERC20/ERC20.sol\":6945:6961  currentAllowance */\n      dup5\n        /* \"@openzeppelin/contracts/token/ERC20/ERC20.sol\":6945:6979  currentAllowance - subtractedValue */\n      sub\n        /* \"@openzeppelin/contracts/token/ERC20/ERC20.sol\":6920:6928  _approve */\n      tag_91\n        /* \"@openzeppelin/contracts/token/ERC20/ERC20.sol\":6920:6980  _approve(owner, spender, currentAllowance - subtractedValue) */\n      jump\t// in\n    tag_136:\n        /* \"@openzeppelin/contracts/token/ERC20/ERC20.sol\":7008:7012  true */\n      0x01\n        /* \"@openzeppelin/contracts/token/ERC20/ERC20.sol\":7001:7012  return true */\n      swap3\n      pop\n      pop\n      pop\n        /* \"@openzeppelin/contracts/token/ERC20/ERC20.sol\":6592:7019  function decreaseAllowance(address spender, uint256 subtractedValue) public virtual returns (bool) {... */\n      swap3\n      swap2\n      pop\n      pop\n      jump\t// out\n        /* \"@openzeppelin/contracts/token/ERC20/ERC20.sol\":3727:3916  function transfer(address to, uint256 amount) public virtual override returns (bool) {... */\n    tag_73:\n        /* \"@openzeppelin/contracts/token/ERC20/ERC20.sol\":3806:3810  bool */\n      0x00\n        /* \"@openzeppelin/contracts/token/ERC20/ERC20.sol\":3822:3835  address owner */\n      dup1\n        /* \"@openzeppelin/contracts/token/ERC20/ERC20.sol\":3838:3850  _msgSender() */\n      tag_138\n        /* \"@openzeppelin/contracts/token/ERC20/ERC20.sol\":3838:3848  _msgSender */\n      tag_89\n        /* \"@openzeppelin/contracts/token/ERC20/ERC20.sol\":3838:3850  _msgSender() */\n      jump\t// in\n    tag_138:\n        /* \"@openzeppelin/contracts/token/ERC20/ERC20.sol\":3822:3850  address owner = _msgSender() */\n      swap1\n      pop\n        /* \"@openzeppelin/contracts/token/ERC20/ERC20.sol\":3860:3888  _transfer(owner, to, amount) */\n      tag_139\n        /* \"@openzeppelin/contracts/token/ERC20/ERC20.sol\":3870:3875  owner */\n      dup2\n        /* \"@openzeppelin/contracts/token/ERC20/ERC20.sol\":3877:3879  to */\n      dup6\n        /* \"@openzeppelin/contracts/token/ERC20/ERC20.sol\":3881:3887  amount */\n      dup6\n        /* \"@openzeppelin/contracts/token/ERC20/ERC20.sol\":3860:3869  _transfer */\n      tag_98\n        /* \"@openzeppelin/contracts/token/ERC20/ERC20.sol\":3860:3888  _transfer(owner, to, amount) */\n      jump\t// in\n    tag_139:\n        /* \"@openzeppelin/contracts/token/ERC20/ERC20.sol\":3905:3909  true */\n      0x01\n        /* \"@openzeppelin/contracts/token/ERC20/ERC20.sol\":3898:3909  return true */\n      swap2\n      pop\n      pop\n        /* \"@openzeppelin/contracts/token/ERC20/ERC20.sol\":3727:3916  function transfer(address to, uint256 amount) public virtual override returns (bool) {... */\n      swap3\n      swap2\n      pop\n      pop\n      jump\t// out\n        /* \"@openzeppelin/contracts/token/ERC20/ERC20.sol\":3974:4123  function allowance(address owner, address spender) public view virtual override returns (uint256) {... */\n    tag_78:\n        /* \"@openzeppelin/contracts/token/ERC20/ERC20.sol\":4063:4070  uint256 */\n      0x00\n        /* \"@openzeppelin/contracts/token/ERC20/ERC20.sol\":4089:4100  _allowances */\n      0x01\n        /* \"@openzeppelin/contracts/token/ERC20/ERC20.sol\":4089:4107  _allowances[owner] */\n      0x00\n        /* \"@openzeppelin/contracts/token/ERC20/ERC20.sol\":4101:4106  owner */\n      dup5\n        /* \"@openzeppelin/contracts/token/ERC20/ERC20.sol\":4089:4107  _allowances[owner] */\n      0xffffffffffffffffffffffffffffffffffffffff\n      and\n      0xffffffffffffffffffffffffffffffffffffffff\n      and\n      dup2\n      mstore\n      0x20\n      add\n      swap1\n      dup2\n      mstore\n      0x20\n      add\n      0x00\n      keccak256\n        /* \"@openzeppelin/contracts/token/ERC20/ERC20.sol\":4089:4116  _allowances[owner][spender] */\n      0x00\n        /* \"@openzeppelin/contracts/token/ERC20/ERC20.sol\":4108:4115  spender */\n      dup4\n        /* \"@openzeppelin/contracts/token/ERC20/ERC20.sol\":4089:4116  _allowances[owner][spender] */\n      0xffffffffffffffffffffffffffffffffffffffff\n      and\n      0xffffffffffffffffffffffffffffffffffffffff\n      and\n      dup2\n      mstore\n      0x20\n      add\n      swap1\n      dup2\n      mstore\n      0x20\n      add\n      0x00\n      keccak256\n      sload\n        /* \"@openzeppelin/contracts/token/ERC20/ERC20.sol\":4082:4116  return _allowances[owner][spender] */\n      swap1\n      pop\n        /* \"@openzeppelin/contracts/token/ERC20/ERC20.sol\":3974:4123  function allowance(address owner, address spender) public view virtual override returns (uint256) {... */\n      swap3\n      swap2\n      pop\n      pop\n      jump\t// out\n        /* \"@openzeppelin/contracts/utils/Context.sol\":640:736  function _msgSender() internal view virtual returns (address) {... */\n    tag_89:\n        /* \"@openzeppelin/contracts/utils/Context.sol\":693:700  address */\n      0x00\n        /* \"@openzeppelin/contracts/utils/Context.sol\":719:729  msg.sender */\n      caller\n        /* \"@openzeppelin/contracts/utils/Context.sol\":712:729  return msg.sender */\n      swap1\n      pop\n        /* \"@openzeppelin/contracts/utils/Context.sol\":640:736  function _msgSender() internal view virtual returns (address) {... */\n      swap1\n      jump\t// out\n        /* \"@openzeppelin/contracts/token/ERC20/ERC20.sol\":10504:10874  function _approve(... */\n    tag_91:\n        /* \"@openzeppelin/contracts/token/ERC20/ERC20.sol\":10652:10653  0 */\n      0x00\n        /* \"@openzeppelin/contracts/token/ERC20/ERC20.sol\":10635:10654  owner != address(0) */\n      0xffffffffffffffffffffffffffffffffffffffff\n      and\n        /* \"@openzeppelin/contracts/token/ERC20/ERC20.sol\":10635:10640  owner */\n      dup4\n        /* \"@openzeppelin/contracts/token/ERC20/ERC20.sol\":10635:10654  owner != address(0) */\n      0xffffffffffffffffffffffffffffffffffffffff\n      and\n      eq\n      iszero\n        /* \"@openzeppelin/contracts/token/ERC20/ERC20.sol\":10627:10695  require(owner != address(0), \"ERC20: approve from the zero address\") */\n      tag_143\n      jumpi\n      mload(0x40)\n      0x08c379a000000000000000000000000000000000000000000000000000000000\n      dup2\n      mstore\n      0x04\n      add\n      tag_144\n      swap1\n      tag_145\n      jump\t// in\n    tag_144:\n      mload(0x40)\n      dup1\n      swap2\n      sub\n      swap1\n      revert\n    tag_143:\n        /* \"@openzeppelin/contracts/token/ERC20/ERC20.sol\":10732:10733  0 */\n      0x00\n        /* \"@openzeppelin/contracts/token/ERC20/ERC20.sol\":10713:10734  spender != address(0) */\n      0xffffffffffffffffffffffffffffffffffffffff\n      and\n        /* \"@openzeppelin/contracts/token/ERC20/ERC20.sol\":10713:10720  spender */\n      dup3\n        /* \"@openzeppelin/contracts/token/ERC20/ERC20.sol\":10713:10734  spender != address(0) */\n      0xffffffffffffffffffffffffffffffffffffffff\n      and\n      eq\n      iszero\n        /* \"@openzeppelin/contracts/token/ERC20/ERC20.sol\":10705:10773  require(spender != address(0), \"ERC20: approve to the zero address\") */\n      tag_146\n      jumpi\n      mload(0x40)\n      0x08c379a000000000000000000000000000000000000000000000000000000000\n      dup2\n      mstore\n      0x04\n      add\n      tag_147\n      swap1\n      tag_148\n      jump\t// in\n    tag_147:\n      mload(0x40)\n      dup1\n      swap2\n      sub\n      swap1\n      revert\n    tag_146:\n        /* \"@openzeppelin/contracts/token/ERC20/ERC20.sol\":10814:10820  amount */\n      dup1\n        /* \"@openzeppelin/contracts/token/ERC20/ERC20.sol\":10784:10795  _allowances */\n      0x01\n        /* \"@openzeppelin/contracts/token/ERC20/ERC20.sol\":10784:10802  _allowances[owner] */\n      0x00\n        /* \"@openzeppelin/contracts/token/ERC20/ERC20.sol\":10796:10801  owner */\n      dup6\n        /* \"@openzeppelin/contracts/token/ERC20/ERC20.sol\":10784:10802  _allowances[owner] */\n      0xffffffffffffffffffffffffffffffffffffffff\n      and\n      0xffffffffffffffffffffffffffffffffffffffff\n      and\n      dup2\n      mstore\n      0x20\n      add\n      swap1\n      dup2\n      mstore\n      0x20\n      add\n      0x00\n      keccak256\n        /* \"@openzeppelin/contracts/token/ERC20/ERC20.sol\":10784:10811  _allowances[owner][spender] */\n      0x00\n        /* \"@openzeppelin/contracts/token/ERC20/ERC20.sol\":10803:10810  spender */\n      dup5\n        /* \"@openzeppelin/contracts/token/ERC20/ERC20.sol\":10784:10811  _allowances[owner][spender] */\n      0xffffffffffffffffffffffffffffffffffffffff\n      and\n      0xffffffffffffffffffffffffffffffffffffffff\n      and\n      dup2\n      mstore\n      0x20\n      add\n      swap1\n      dup2\n      mstore\n      0x20\n      add\n      0x00\n      keccak256\n        /* \"@openzeppelin/contracts/token/ERC20/ERC20.sol\":10784:10820  _allowances[owner][spender] = amount */\n      dup2\n      swap1\n      sstore\n      pop\n        /* \"@openzeppelin/contracts/token/ERC20/ERC20.sol\":10851:10858  spender */\n      dup2\n        /* \"@openzeppelin/contracts/token/ERC20/ERC20.sol\":10835:10867  Approval(owner, spender, amount) */\n      0xffffffffffffffffffffffffffffffffffffffff\n      and\n        /* \"@openzeppelin/contracts/token/ERC20/ERC20.sol\":10844:10849  owner */\n      dup4\n        /* \"@openzeppelin/contracts/token/ERC20/ERC20.sol\":10835:10867  Approval(owner, spender, amount) */\n      0xffffffffffffffffffffffffffffffffffffffff\n      and\n      0x8c5be1e5ebec7d5bd14f71427d1e84f3dd0314c0f7b2291e5b200ac8c7c3b925\n        /* \"@openzeppelin/contracts/token/ERC20/ERC20.sol\":10860:10866  amount */\n      dup4\n        /* \"@openzeppelin/contracts/token/ERC20/ERC20.sol\":10835:10867  Approval(owner, spender, amount) */\n      mload(0x40)\n      tag_149\n      swap2\n      swap1\n      tag_33\n      jump\t// in\n    tag_149:\n      mload(0x40)\n      dup1\n      swap2\n      sub\n      swap1\n      log3\n        /* \"@openzeppelin/contracts/token/ERC20/ERC20.sol\":10504:10874  function _approve(... */\n      pop\n      pop\n      pop\n      jump\t// out\n        /* \"@openzeppelin/contracts/token/ERC20/ERC20.sol\":11155:11596  function _spendAllowance(... */\n    tag_96:\n        /* \"@openzeppelin/contracts/token/ERC20/ERC20.sol\":11285:11309  uint256 currentAllowance */\n      0x00\n        /* \"@openzeppelin/contracts/token/ERC20/ERC20.sol\":11312:11337  allowance(owner, spender) */\n      tag_151\n        /* \"@openzeppelin/contracts/token/ERC20/ERC20.sol\":11322:11327  owner */\n      dup5\n        /* \"@openzeppelin/contracts/token/ERC20/ERC20.sol\":11329:11336  spender */\n      dup5\n        /* \"@openzeppelin/contracts/token/ERC20/ERC20.sol\":11312:11321  allowance */\n      tag_78\n        /* \"@openzeppelin/contracts/token/ERC20/ERC20.sol\":11312:11337  allowance(owner, spender) */\n      jump\t// in\n    tag_151:\n        /* \"@openzeppelin/contracts/token/ERC20/ERC20.sol\":11285:11337  uint256 currentAllowance = allowance(owner, spender) */\n      swap1\n      pop\n        /* \"@openzeppelin/contracts/token/ERC20/ERC20.sol\":11371:11388  type(uint256).max */\n      0xffffffffffffffffffffffffffffffffffffffffffffffffffffffffffffffff\n        /* \"@openzeppelin/contracts/token/ERC20/ERC20.sol\":11351:11367  currentAllowance */\n      dup2\n        /* \"@openzeppelin/contracts/token/ERC20/ERC20.sol\":11351:11388  currentAllowance != type(uint256).max */\n      eq\n        /* \"@openzeppelin/contracts/token/ERC20/ERC20.sol\":11347:11590  if (currentAllowance != type(uint256).max) {... */\n      tag_152\n      jumpi\n        /* \"@openzeppelin/contracts/token/ERC20/ERC20.sol\":11432:11438  amount */\n      dup2\n        /* \"@openzeppelin/contracts/token/ERC20/ERC20.sol\":11412:11428  currentAllowance */\n      dup2\n        /* \"@openzeppelin/contracts/token/ERC20/ERC20.sol\":11412:11438  currentAllowance >= amount */\n      lt\n      iszero\n        /* \"@openzeppelin/contracts/token/ERC20/ERC20.sol\":11404:11472  require(currentAllowance >= amount, \"ERC20: insufficient allowance\") */\n      tag_153\n      jumpi\n      mload(0x40)\n      0x08c379a000000000000000000000000000000000000000000000000000000000\n      dup2\n      mstore\n      0x04\n      add\n      tag_154\n      swap1\n      tag_155\n      jump\t// in\n    tag_154:\n      mload(0x40)\n      dup1\n      swap2\n      sub\n      swap1\n      revert\n    tag_153:\n        /* \"@openzeppelin/contracts/token/ERC20/ERC20.sol\":11514:11565  _approve(owner, spender, currentAllowance - amount) */\n      tag_156\n        /* \"@openzeppelin/contracts/token/ERC20/ERC20.sol\":11523:11528  owner */\n      dup5\n        /* \"@openzeppelin/contracts/token/ERC20/ERC20.sol\":11530:11537  spender */\n      dup5\n        /* \"@openzeppelin/contracts/token/ERC20/ERC20.sol\":11558:11564  amount */\n      dup5\n        /* \"@openzeppelin/contracts/token/ERC20/ERC20.sol\":11539:11555  currentAllowance */\n      dup5\n        /* \"@openzeppelin/contracts/token/ERC20/ERC20.sol\":11539:11564  currentAllowance - amount */\n      sub\n        /* \"@openzeppelin/contracts/token/ERC20/ERC20.sol\":11514:11522  _approve */\n      tag_91\n        /* \"@openzeppelin/contracts/token/ERC20/ERC20.sol\":11514:11565  _approve(owner, spender, currentAllowance - amount) */\n      jump\t// in\n    tag_156:\n        /* \"@openzeppelin/contracts/token/ERC20/ERC20.sol\":11347:11590  if (currentAllowance != type(uint256).max) {... */\n    tag_152:\n        /* \"@openzeppelin/contracts/token/ERC20/ERC20.sol\":11275:11596  {... */\n      pop\n        /* \"@openzeppelin/contracts/token/ERC20/ERC20.sol\":11155:11596  function _spendAllowance(... */\n      pop\n      pop\n      pop\n      jump\t// out\n        /* \"@openzeppelin/contracts/token/ERC20/ERC20.sol\":7473:8291  function _transfer(... */\n    tag_98:\n        /* \"@openzeppelin/contracts/token/ERC20/ERC20.sol\":7615:7616  0 */\n      0x00\n        /* \"@openzeppelin/contracts/token/ERC20/ERC20.sol\":7599:7617  from != address(0) */\n      0xffffffffffffffffffffffffffffffffffffffff\n      and\n        /* \"@openzeppelin/contracts/token/ERC20/ERC20.sol\":7599:7603  from */\n      dup4\n        /* \"@openzeppelin/contracts/token/ERC20/ERC20.sol\":7599:7617  from != address(0) */\n      0xffffffffffffffffffffffffffffffffffffffff\n      and\n      eq\n      iszero\n        /* \"@openzeppelin/contracts/token/ERC20/ERC20.sol\":7591:7659  require(from != address(0), \"ERC20: transfer from the zero address\") */\n      tag_158\n      jumpi\n      mload(0x40)\n      0x08c379a000000000000000000000000000000000000000000000000000000000\n      dup2\n      mstore\n      0x04\n      add\n      tag_159\n      swap1\n      tag_160\n      jump\t// in\n    tag_159:\n      mload(0x40)\n      dup1\n      swap2\n      sub\n      swap1\n      revert\n    tag_158:\n        /* \"@openzeppelin/contracts/token/ERC20/ERC20.sol\":7691:7692  0 */\n      0x00\n        /* \"@openzeppelin/contracts/token/ERC20/ERC20.sol\":7677:7693  to != address(0) */\n      0xffffffffffffffffffffffffffffffffffffffff\n      and\n        /* \"@openzeppelin/contracts/token/ERC20/ERC20.sol\":7677:7679  to */\n      dup3\n        /* \"@openzeppelin/contracts/token/ERC20/ERC20.sol\":7677:7693  to != address(0) */\n      0xffffffffffffffffffffffffffffffffffffffff\n      and\n      eq\n      iszero\n        /* \"@openzeppelin/contracts/token/ERC20/ERC20.sol\":7669:7733  require(to != address(0), \"ERC20: transfer to the zero address\") */\n      tag_161\n      jumpi\n      mload(0x40)\n      0x08c379a000000000000000000000000000000000000000000000000000000000\n      dup2\n      mstore\n      0x04\n      add\n      tag_162\n      swap1\n      tag_163\n      jump\t// in\n    tag_162:\n      mload(0x40)\n      dup1\n      swap2\n      sub\n      swap1\n      revert\n    tag_161:\n        /* \"@openzeppelin/contracts/token/ERC20/ERC20.sol\":7744:7782  _beforeTokenTransfer(from, to, amount) */\n      tag_164\n        /* \"@openzeppelin/contracts/token/ERC20/ERC20.sol\":7765:7769  from */\n      dup4\n        /* \"@openzeppelin/contracts/token/ERC20/ERC20.sol\":7771:7773  to */\n      dup4\n        /* \"@openzeppelin/contracts/token/ERC20/ERC20.sol\":7775:7781  amount */\n      dup4\n        /* \"@openzeppelin/contracts/token/ERC20/ERC20.sol\":7744:7764  _beforeTokenTransfer */\n      tag_165\n        /* \"@openzeppelin/contracts/token/ERC20/ERC20.sol\":7744:7782  _beforeTokenTransfer(from, to, amount) */\n      jump\t// in\n    tag_164:\n        /* \"@openzeppelin/contracts/token/ERC20/ERC20.sol\":7793:7812  uint256 fromBalance */\n      0x00\n        /* \"@openzeppelin/contracts/token/ERC20/ERC20.sol\":7815:7824  _balances */\n      dup1\n        /* \"@openzeppelin/contracts/token/ERC20/ERC20.sol\":7815:7830  _balances[from] */\n      0x00\n        /* \"@openzeppelin/contracts/token/ERC20/ERC20.sol\":7825:7829  from */\n      dup6\n        /* \"@openzeppelin/contracts/token/ERC20/ERC20.sol\":7815:7830  _balances[from] */\n      0xffffffffffffffffffffffffffffffffffffffff\n      and\n      0xffffffffffffffffffffffffffffffffffffffff\n      and\n      dup2\n      mstore\n      0x20\n      add\n      swap1\n      dup2\n      mstore\n      0x20\n      add\n      0x00\n      keccak256\n      sload\n        /* \"@openzeppelin/contracts/token/ERC20/ERC20.sol\":7793:7830  uint256 fromBalance = _balances[from] */\n      swap1\n      pop\n        /* \"@openzeppelin/contracts/token/ERC20/ERC20.sol\":7863:7869  amount */\n      dup2\n        /* \"@openzeppelin/contracts/token/ERC20/ERC20.sol\":7848:7859  fromBalance */\n      dup2\n        /* \"@openzeppelin/contracts/token/ERC20/ERC20.sol\":7848:7869  fromBalance >= amount */\n      lt\n      iszero\n        /* \"@openzeppelin/contracts/token/ERC20/ERC20.sol\":7840:7912  require(fromBalance >= amount, \"ERC20: transfer amount exceeds balance\") */\n      tag_166\n      jumpi\n      mload(0x40)\n      0x08c379a000000000000000000000000000000000000000000000000000000000\n      dup2\n      mstore\n      0x04\n      add\n      tag_167\n      swap1\n      tag_168\n      jump\t// in\n    tag_167:\n      mload(0x40)\n      dup1\n      swap2\n      sub\n      swap1\n      revert\n    tag_166:\n        /* \"@openzeppelin/contracts/token/ERC20/ERC20.sol\":7978:7984  amount */\n      dup2\n        /* \"@openzeppelin/contracts/token/ERC20/ERC20.sol\":7964:7975  fromBalance */\n      dup2\n        /* \"@openzeppelin/contracts/token/ERC20/ERC20.sol\":7964:7984  fromBalance - amount */\n      sub\n        /* \"@openzeppelin/contracts/token/ERC20/ERC20.sol\":7946:7955  _balances */\n      0x00\n        /* \"@openzeppelin/contracts/token/ERC20/ERC20.sol\":7946:7961  _balances[from] */\n      dup1\n        /* \"@openzeppelin/contracts/token/ERC20/ERC20.sol\":7956:7960  from */\n      dup7\n        /* \"@openzeppelin/contracts/token/ERC20/ERC20.sol\":7946:7961  _balances[from] */\n      0xffffffffffffffffffffffffffffffffffffffff\n      and\n      0xffffffffffffffffffffffffffffffffffffffff\n      and\n      dup2\n      mstore\n      0x20\n      add\n      swap1\n      dup2\n      mstore\n      0x20\n      add\n      0x00\n      keccak256\n        /* \"@openzeppelin/contracts/token/ERC20/ERC20.sol\":7946:7984  _balances[from] = fromBalance - amount */\n      dup2\n      swap1\n      sstore\n      pop\n        /* \"@openzeppelin/contracts/token/ERC20/ERC20.sol\":8178:8184  amount */\n      dup2\n        /* \"@openzeppelin/contracts/token/ERC20/ERC20.sol\":8161:8170  _balances */\n      0x00\n        /* \"@openzeppelin/contracts/token/ERC20/ERC20.sol\":8161:8174  _balances[to] */\n      dup1\n        /* \"@openzeppelin/contracts/token/ERC20/ERC20.sol\":8171:8173  to */\n      dup6\n        /* \"@openzeppelin/contracts/token/ERC20/ERC20.sol\":8161:8174  _balances[to] */\n      0xffffffffffffffffffffffffffffffffffffffff\n      and\n      0xffffffffffffffffffffffffffffffffffffffff\n      and\n      dup2\n      mstore\n      0x20\n      add\n      swap1\n      dup2\n      mstore\n      0x20\n      add\n      0x00\n      keccak256\n      0x00\n        /* \"@openzeppelin/contracts/token/ERC20/ERC20.sol\":8161:8184  _balances[to] += amount */\n      dup3\n      dup3\n      sload\n      add\n      swap3\n      pop\n      pop\n      dup2\n      swap1\n      sstore\n      pop\n        /* \"@openzeppelin/contracts/token/ERC20/ERC20.sol\":8225:8227  to */\n      dup3\n        /* \"@openzeppelin/contracts/token/ERC20/ERC20.sol\":8210:8236  Transfer(from, to, amount) */\n      0xffffffffffffffffffffffffffffffffffffffff\n      and\n        /* \"@openzeppelin/contracts/token/ERC20/ERC20.sol\":8219:8223  from */\n      dup5\n        /* \"@openzeppelin/contracts/token/ERC20/ERC20.sol\":8210:8236  Transfer(from, to, amount) */\n      0xffffffffffffffffffffffffffffffffffffffff\n      and\n      0xddf252ad1be2c89b69c2b068fc378daa952ba7f163c4a11628f55a4df523b3ef\n        /* \"@openzeppelin/contracts/token/ERC20/ERC20.sol\":8229:8235  amount */\n      dup5\n        /* \"@openzeppelin/contracts/token/ERC20/ERC20.sol\":8210:8236  Transfer(from, to, amount) */\n      mload(0x40)\n      tag_169\n      swap2\n      swap1\n      tag_33\n      jump\t// in\n    tag_169:\n      mload(0x40)\n      dup1\n      swap2\n      sub\n      swap1\n      log3\n        /* \"@openzeppelin/contracts/token/ERC20/ERC20.sol\":8247:8284  _afterTokenTransfer(from, to, amount) */\n      tag_170\n        /* \"@openzeppelin/contracts/token/ERC20/ERC20.sol\":8267:8271  from */\n      dup5\n        /* \"@openzeppelin/contracts/token/ERC20/ERC20.sol\":8273:8275  to */\n      dup5\n        /* \"@openzeppelin/contracts/token/ERC20/ERC20.sol\":8277:8283  amount */\n      dup5\n        /* \"@openzeppelin/contracts/token/ERC20/ERC20.sol\":8247:8266  _afterTokenTransfer */\n      tag_171\n        /* \"@openzeppelin/contracts/token/ERC20/ERC20.sol\":8247:8284  _afterTokenTransfer(from, to, amount) */\n      jump\t// in\n    tag_170:\n        /* \"@openzeppelin/contracts/token/ERC20/ERC20.sol\":7581:8291  {... */\n      pop\n        /* \"@openzeppelin/contracts/token/ERC20/ERC20.sol\":7473:8291  function _transfer(... */\n      pop\n      pop\n      pop\n      jump\t// out\n        /* \"@openzeppelin/contracts/token/ERC20/ERC20.sol\":12180:12301  function _beforeTokenTransfer(... */\n    tag_165:\n      pop\n      pop\n      pop\n      jump\t// out\n        /* \"@openzeppelin/contracts/token/ERC20/ERC20.sol\":12889:13009  function _afterTokenTransfer(... */\n    tag_171:\n      pop\n      pop\n      pop\n      jump\t// out\n        /* \"#utility.yul\":7:146   */\n    tag_175:\n        /* \"#utility.yul\":53:58   */\n      0x00\n        /* \"#utility.yul\":91:97   */\n      dup2\n        /* \"#utility.yul\":78:98   */\n      calldataload\n        /* \"#utility.yul\":69:98   */\n      swap1\n      pop\n        /* \"#utility.yul\":107:140   */\n      tag_177\n        /* \"#utility.yul\":134:139   */\n      dup2\n        /* \"#utility.yul\":107:140   */\n      tag_178\n      jump\t// in\n    tag_177:\n        /* \"#utility.yul\":7:146   */\n      swap3\n      swap2\n      pop\n      pop\n      jump\t// out\n        /* \"#utility.yul\":152:291   */\n    tag_179:\n        /* \"#utility.yul\":198:203   */\n      0x00\n        /* \"#utility.yul\":236:242   */\n      dup2\n        /* \"#utility.yul\":223:243   */\n      calldataload\n        /* \"#utility.yul\":214:243   */\n      swap1\n      pop\n        /* \"#utility.yul\":252:285   */\n      tag_181\n        /* \"#utility.yul\":279:284   */\n      dup2\n        /* \"#utility.yul\":252:285   */\n      tag_182\n      jump\t// in\n    tag_181:\n        /* \"#utility.yul\":152:291   */\n      swap3\n      swap2\n      pop\n      pop\n      jump\t// out\n        /* \"#utility.yul\":297:626   */\n    tag_49:\n        /* \"#utility.yul\":356:362   */\n      0x00\n        /* \"#utility.yul\":405:407   */\n      0x20\n        /* \"#utility.yul\":393:402   */\n      dup3\n        /* \"#utility.yul\":384:391   */\n      dup5\n        /* \"#utility.yul\":380:403   */\n      sub\n        /* \"#utility.yul\":376:408   */\n      slt\n        /* \"#utility.yul\":373:492   */\n      iszero\n      tag_184\n      jumpi\n        /* \"#utility.yul\":411:490   */\n      tag_185\n      tag_186\n      jump\t// in\n    tag_185:\n        /* \"#utility.yul\":373:492   */\n    tag_184:\n        /* \"#utility.yul\":531:532   */\n      0x00\n        /* \"#utility.yul\":556:609   */\n      tag_187\n        /* \"#utility.yul\":601:608   */\n      dup5\n        /* \"#utility.yul\":592:598   */\n      dup3\n        /* \"#utility.yul\":581:590   */\n      dup6\n        /* \"#utility.yul\":577:599   */\n      add\n        /* \"#utility.yul\":556:609   */\n      tag_175\n      jump\t// in\n    tag_187:\n        /* \"#utility.yul\":546:609   */\n      swap2\n      pop\n        /* \"#utility.yul\":502:619   */\n      pop\n        /* \"#utility.yul\":297:626   */\n      swap3\n      swap2\n      pop\n      pop\n      jump\t// out\n        /* \"#utility.yul\":632:1106   */\n    tag_77:\n        /* \"#utility.yul\":700:706   */\n      0x00\n        /* \"#utility.yul\":708:714   */\n      dup1\n        /* \"#utility.yul\":757:759   */\n      0x40\n        /* \"#utility.yul\":745:754   */\n      dup4\n        /* \"#utility.yul\":736:743   */\n      dup6\n        /* \"#utility.yul\":732:755   */\n      sub\n        /* \"#utility.yul\":728:760   */\n      slt\n        /* \"#utility.yul\":725:844   */\n      iszero\n      tag_189\n      jumpi\n        /* \"#utility.yul\":763:842   */\n      tag_190\n      tag_186\n      jump\t// in\n    tag_190:\n        /* \"#utility.yul\":725:844   */\n    tag_189:\n        /* \"#utility.yul\":883:884   */\n      0x00\n        /* \"#utility.yul\":908:961   */\n      tag_191\n        /* \"#utility.yul\":953:960   */\n      dup6\n        /* \"#utility.yul\":944:950   */\n      dup3\n        /* \"#utility.yul\":933:942   */\n      dup7\n        /* \"#utility.yul\":929:951   */\n      add\n        /* \"#utility.yul\":908:961   */\n      tag_175\n      jump\t// in\n    tag_191:\n        /* \"#utility.yul\":898:961   */\n      swap3\n      pop\n        /* \"#utility.yul\":854:971   */\n      pop\n        /* \"#utility.yul\":1010:1012   */\n      0x20\n        /* \"#utility.yul\":1036:1089   */\n      tag_192\n        /* \"#utility.yul\":1081:1088   */\n      dup6\n        /* \"#utility.yul\":1072:1078   */\n      dup3\n        /* \"#utility.yul\":1061:1070   */\n      dup7\n        /* \"#utility.yul\":1057:1079   */\n      add\n        /* \"#utility.yul\":1036:1089   */\n      tag_175\n      jump\t// in\n    tag_192:\n        /* \"#utility.yul\":1026:1089   */\n      swap2\n      pop\n        /* \"#utility.yul\":981:1099   */\n      pop\n        /* \"#utility.yul\":632:1106   */\n      swap3\n      pop\n      swap3\n      swap1\n      pop\n      jump\t// out\n        /* \"#utility.yul\":1112:1731   */\n    tag_36:\n        /* \"#utility.yul\":1189:1195   */\n      0x00\n        /* \"#utility.yul\":1197:1203   */\n      dup1\n        /* \"#utility.yul\":1205:1211   */\n      0x00\n        /* \"#utility.yul\":1254:1256   */\n      0x60\n        /* \"#utility.yul\":1242:1251   */\n      dup5\n        /* \"#utility.yul\":1233:1240   */\n      dup7\n        /* \"#utility.yul\":1229:1252   */\n      sub\n        /* \"#utility.yul\":1225:1257   */\n      slt\n        /* \"#utility.yul\":1222:1341   */\n      iszero\n      tag_194\n      jumpi\n        /* \"#utility.yul\":1260:1339   */\n      tag_195\n      tag_186\n      jump\t// in\n    tag_195:\n        /* \"#utility.yul\":1222:1341   */\n    tag_194:\n        /* \"#utility.yul\":1380:1381   */\n      0x00\n        /* \"#utility.yul\":1405:1458   */\n      tag_196\n        /* \"#utility.yul\":1450:1457   */\n      dup7\n        /* \"#utility.yul\":1441:1447   */\n      dup3\n        /* \"#utility.yul\":1430:1439   */\n      dup8\n        /* \"#utility.yul\":1426:1448   */\n      add\n        /* \"#utility.yul\":1405:1458   */\n      tag_175\n      jump\t// in\n    tag_196:\n        /* \"#utility.yul\":1395:1458   */\n      swap4\n      pop\n        /* \"#utility.yul\":1351:1468   */\n      pop\n        /* \"#utility.yul\":1507:1509   */\n      0x20\n        /* \"#utility.yul\":1533:1586   */\n      tag_197\n        /* \"#utility.yul\":1578:1585   */\n      dup7\n        /* \"#utility.yul\":1569:1575   */\n      dup3\n        /* \"#utility.yul\":1558:1567   */\n      dup8\n        /* \"#utility.yul\":1554:1576   */\n      add\n        /* \"#utility.yul\":1533:1586   */\n      tag_175\n      jump\t// in\n    tag_197:\n        /* \"#utility.yul\":1523:1586   */\n      swap3\n      pop\n        /* \"#utility.yul\":1478:1596   */\n      pop\n        /* \"#utility.yul\":1635:1637   */\n      0x40\n        /* \"#utility.yul\":1661:1714   */\n      tag_198\n        /* \"#utility.yul\":1706:1713   */\n      dup7\n        /* \"#utility.yul\":1697:1703   */\n      dup3\n        /* \"#utility.yul\":1686:1695   */\n      dup8\n        /* \"#utility.yul\":1682:1704   */\n      add\n        /* \"#utility.yul\":1661:1714   */\n      tag_179\n      jump\t// in\n    tag_198:\n        /* \"#utility.yul\":1651:1714   */\n      swap2\n      pop\n        /* \"#utility.yul\":1606:1724   */\n      pop\n        /* \"#utility.yul\":1112:1731   */\n      swap3\n      pop\n      swap3\n      pop\n      swap3\n      jump\t// out\n        /* \"#utility.yul\":1737:2211   */\n    tag_26:\n        /* \"#utility.yul\":1805:1811   */\n      0x00\n        /* \"#utility.yul\":1813:1819   */\n      dup1\n        /* \"#utility.yul\":1862:1864   */\n      0x40\n        /* \"#utility.yul\":1850:1859   */\n      dup4\n        /* \"#utility.yul\":1841:1848   */\n      dup6\n        /* \"#utility.yul\":1837:1860   */\n      sub\n        /* \"#utility.yul\":1833:1865   */\n      slt\n        /* \"#utility.yul\":1830:1949   */\n      iszero\n      tag_200\n      jumpi\n        /* \"#utility.yul\":1868:1947   */\n      tag_201\n      tag_186\n      jump\t// in\n    tag_201:\n        /* \"#utility.yul\":1830:1949   */\n    tag_200:\n        /* \"#utility.yul\":1988:1989   */\n      0x00\n        /* \"#utility.yul\":2013:2066   */\n      tag_202\n        /* \"#utility.yul\":2058:2065   */\n      dup6\n        /* \"#utility.yul\":2049:2055   */\n      dup3\n        /* \"#utility.yul\":2038:2047   */\n      dup7\n        /* \"#utility.yul\":2034:2056   */\n      add\n        /* \"#utility.yul\":2013:2066   */\n      tag_175\n      jump\t// in\n    tag_202:\n        /* \"#utility.yul\":2003:2066   */\n      swap3\n      pop\n        /* \"#utility.yul\":1959:2076   */\n      pop\n        /* \"#utility.yul\":2115:2117   */\n      0x20\n        /* \"#utility.yul\":2141:2194   */\n      tag_203\n        /* \"#utility.yul\":2186:2193   */\n      dup6\n        /* \"#utility.yul\":2177:2183   */\n      dup3\n        /* \"#utility.yul\":2166:2175   */\n      dup7\n        /* \"#utility.yul\":2162:2184   */\n      add\n        /* \"#utility.yul\":2141:2194   */\n      tag_179\n      jump\t// in\n    tag_203:\n        /* \"#utility.yul\":2131:2194   */\n      swap2\n      pop\n        /* \"#utility.yul\":2086:2204   */\n      pop\n        /* \"#utility.yul\":1737:2211   */\n      swap3\n      pop\n      swap3\n      swap1\n      pop\n      jump\t// out\n        /* \"#utility.yul\":2217:2546   */\n    tag_54:\n        /* \"#utility.yul\":2276:2282   */\n      0x00\n        /* \"#utility.yul\":2325:2327   */\n      0x20\n        /* \"#utility.yul\":2313:2322   */\n      dup3\n        /* \"#utility.yul\":2304:2311   */\n      dup5\n        /* \"#utility.yul\":2300:2323   */\n      sub\n        /* \"#utility.yul\":2296:2328   */\n      slt\n        /* \"#utility.yul\":2293:2412   */\n      iszero\n      tag_205\n      jumpi\n        /* \"#utility.yul\":2331:2410   */\n      tag_206\n      tag_186\n      jump\t// in\n    tag_206:\n        /* \"#utility.yul\":2293:2412   */\n    tag_205:\n        /* \"#utility.yul\":2451:2452   */\n      0x00\n        /* \"#utility.yul\":2476:2529   */\n      tag_207\n        /* \"#utility.yul\":2521:2528   */\n      dup5\n        /* \"#utility.yul\":2512:2518   */\n      dup3\n        /* \"#utility.yul\":2501:2510   */\n      dup6\n        /* \"#utility.yul\":2497:2519   */\n      add\n        /* \"#utility.yul\":2476:2529   */\n      tag_179\n      jump\t// in\n    tag_207:\n        /* \"#utility.yul\":2466:2529   */\n      swap2\n      pop\n        /* \"#utility.yul\":2422:2539   */\n      pop\n        /* \"#utility.yul\":2217:2546   */\n      swap3\n      swap2\n      pop\n      pop\n      jump\t// out\n        /* \"#utility.yul\":2552:2661   */\n    tag_208:\n        /* \"#utility.yul\":2633:2654   */\n      tag_210\n        /* \"#utility.yul\":2648:2653   */\n      dup2\n        /* \"#utility.yul\":2633:2654   */\n      tag_211\n      jump\t// in\n    tag_210:\n        /* \"#utility.yul\":2628:2631   */\n      dup3\n        /* \"#utility.yul\":2621:2655   */\n      mstore\n        /* \"#utility.yul\":2552:2661   */\n      pop\n      pop\n      jump\t// out\n        /* \"#utility.yul\":2667:3031   */\n    tag_212:\n        /* \"#utility.yul\":2755:2758   */\n      0x00\n        /* \"#utility.yul\":2783:2822   */\n      tag_214\n        /* \"#utility.yul\":2816:2821   */\n      dup3\n        /* \"#utility.yul\":2783:2822   */\n      tag_215\n      jump\t// in\n    tag_214:\n        /* \"#utility.yul\":2838:2909   */\n      tag_216\n        /* \"#utility.yul\":2902:2908   */\n      dup2\n        /* \"#utility.yul\":2897:2900   */\n      dup6\n        /* \"#utility.yul\":2838:2909   */\n      tag_217\n      jump\t// in\n    tag_216:\n        /* \"#utility.yul\":2831:2909   */\n      swap4\n      pop\n        /* \"#utility.yul\":2918:2970   */\n      tag_218\n        /* \"#utility.yul\":2963:2969   */\n      dup2\n        /* \"#utility.yul\":2958:2961   */\n      dup6\n        /* \"#utility.yul\":2951:2955   */\n      0x20\n        /* \"#utility.yul\":2944:2949   */\n      dup7\n        /* \"#utility.yul\":2940:2956   */\n      add\n        /* \"#utility.yul\":2918:2970   */\n      tag_219\n      jump\t// in\n    tag_218:\n        /* \"#utility.yul\":2995:3024   */\n      tag_220\n        /* \"#utility.yul\":3017:3023   */\n      dup2\n        /* \"#utility.yul\":2995:3024   */\n      tag_221\n      jump\t// in\n    tag_220:\n        /* \"#utility.yul\":2990:2993   */\n      dup5\n        /* \"#utility.yul\":2986:3025   */\n      add\n        /* \"#utility.yul\":2979:3025   */\n      swap2\n      pop\n        /* \"#utility.yul\":2759:3031   */\n      pop\n        /* \"#utility.yul\":2667:3031   */\n      swap3\n      swap2\n      pop\n      pop\n      jump\t// out\n        /* \"#utility.yul\":3037:3403   */\n    tag_222:\n        /* \"#utility.yul\":3179:3182   */\n      0x00\n        /* \"#utility.yul\":3200:3267   */\n      tag_224\n        /* \"#utility.yul\":3264:3266   */\n      0x23\n        /* \"#utility.yul\":3259:3262   */\n      dup4\n        /* \"#utility.yul\":3200:3267   */\n      tag_217\n      jump\t// in\n    tag_224:\n        /* \"#utility.yul\":3193:3267   */\n      swap2\n      pop\n        /* \"#utility.yul\":3276:3369   */\n      tag_225\n        /* \"#utility.yul\":3365:3368   */\n      dup3\n        /* \"#utility.yul\":3276:3369   */\n      tag_226\n      jump\t// in\n    tag_225:\n        /* \"#utility.yul\":3394:3396   */\n      0x40\n        /* \"#utility.yul\":3389:3392   */\n      dup3\n        /* \"#utility.yul\":3385:3397   */\n      add\n        /* \"#utility.yul\":3378:3397   */\n      swap1\n      pop\n        /* \"#utility.yul\":3037:3403   */\n      swap2\n      swap1\n      pop\n      jump\t// out\n        /* \"#utility.yul\":3409:3775   */\n    tag_227:\n        /* \"#utility.yul\":3551:3554   */\n      0x00\n        /* \"#utility.yul\":3572:3639   */\n      tag_229\n        /* \"#utility.yul\":3636:3638   */\n      0x22\n        /* \"#utility.yul\":3631:3634   */\n      dup4\n        /* \"#utility.yul\":3572:3639   */\n      tag_217\n      jump\t// in\n    tag_229:\n        /* \"#utility.yul\":3565:3639   */\n      swap2\n      pop\n        /* \"#utility.yul\":3648:3741   */\n      tag_230\n        /* \"#utility.yul\":3737:3740   */\n      dup3\n        /* \"#utility.yul\":3648:3741   */\n      tag_231\n      jump\t// in\n    tag_230:\n        /* \"#utility.yul\":3766:3768   */\n      0x40\n        /* \"#utility.yul\":3761:3764   */\n      dup3\n        /* \"#utility.yul\":3757:3769   */\n      add\n        /* \"#utility.yul\":3750:3769   */\n      swap1\n      pop\n        /* \"#utility.yul\":3409:3775   */\n      swap2\n      swap1\n      pop\n      jump\t// out\n        /* \"#utility.yul\":3781:4147   */\n    tag_232:\n        /* \"#utility.yul\":3923:3926   */\n      0x00\n        /* \"#utility.yul\":3944:4011   */\n      tag_234\n        /* \"#utility.yul\":4008:4010   */\n      0x1d\n        /* \"#utility.yul\":4003:4006   */\n      dup4\n        /* \"#utility.yul\":3944:4011   */\n      tag_217\n      jump\t// in\n    tag_234:\n        /* \"#utility.yul\":3937:4011   */\n      swap2\n      pop\n        /* \"#utility.yul\":4020:4113   */\n      tag_235\n        /* \"#utility.yul\":4109:4112   */\n      dup3\n        /* \"#utility.yul\":4020:4113   */\n      tag_236\n      jump\t// in\n    tag_235:\n        /* \"#utility.yul\":4138:4140   */\n      0x20\n        /* \"#utility.yul\":4133:4136   */\n      dup3\n        /* \"#utility.yul\":4129:4141   */\n      add\n        /* \"#utility.yul\":4122:4141   */\n      swap1\n      pop\n        /* \"#utility.yul\":3781:4147   */\n      swap2\n      swap1\n      pop\n      jump\t// out\n        /* \"#utility.yul\":4153:4519   */\n    tag_237:\n        /* \"#utility.yul\":4295:4298   */\n      0x00\n        /* \"#utility.yul\":4316:4383   */\n      tag_239\n        /* \"#utility.yul\":4380:4382   */\n      0x26\n        /* \"#utility.yul\":4375:4378   */\n      dup4\n        /* \"#utility.yul\":4316:4383   */\n      tag_217\n      jump\t// in\n    tag_239:\n        /* \"#utility.yul\":4309:4383   */\n      swap2\n      pop\n        /* \"#utility.yul\":4392:4485   */\n      tag_240\n        /* \"#utility.yul\":4481:4484   */\n      dup3\n        /* \"#utility.yul\":4392:4485   */\n      tag_241\n      jump\t// in\n    tag_240:\n        /* \"#utility.yul\":4510:4512   */\n      0x40\n        /* \"#utility.yul\":4505:4508   */\n      dup3\n        /* \"#utility.yul\":4501:4513   */\n      add\n        /* \"#utility.yul\":4494:4513   */\n      swap1\n      pop\n        /* \"#utility.yul\":4153:4519   */\n      swap2\n      swap1\n      pop\n      jump\t// out\n        /* \"#utility.yul\":4525:4891   */\n    tag_242:\n        /* \"#utility.yul\":4667:4670   */\n      0x00\n        /* \"#utility.yul\":4688:4755   */\n      tag_244\n        /* \"#utility.yul\":4752:4754   */\n      0x15\n        /* \"#utility.yul\":4747:4750   */\n      dup4\n        /* \"#utility.yul\":4688:4755   */\n      tag_217\n      jump\t// in\n    tag_244:\n        /* \"#utility.yul\":4681:4755   */\n      swap2\n      pop\n        /* \"#utility.yul\":4764:4857   */\n      tag_245\n        /* \"#utility.yul\":4853:4856   */\n      dup3\n        /* \"#utility.yul\":4764:4857   */\n      tag_246\n      jump\t// in\n    tag_245:\n        /* \"#utility.yul\":4882:4884   */\n      0x20\n        /* \"#utility.yul\":4877:4880   */\n      dup3\n        /* \"#utility.yul\":4873:4885   */\n      add\n        /* \"#utility.yul\":4866:4885   */\n      swap1\n      pop\n        /* \"#utility.yul\":4525:4891   */\n      swap2\n      swap1\n      pop\n      jump\t// out\n        /* \"#utility.yul\":4897:5263   */\n    tag_247:\n        /* \"#utility.yul\":5039:5042   */\n      0x00\n        /* \"#utility.yul\":5060:5127   */\n      tag_249\n        /* \"#utility.yul\":5124:5126   */\n      0x25\n        /* \"#utility.yul\":5119:5122   */\n      dup4\n        /* \"#utility.yul\":5060:5127   */\n      tag_217\n      jump\t// in\n    tag_249:\n        /* \"#utility.yul\":5053:5127   */\n      swap2\n      pop\n        /* \"#utility.yul\":5136:5229   */\n      tag_250\n        /* \"#utility.yul\":5225:5228   */\n      dup3\n        /* \"#utility.yul\":5136:5229   */\n      tag_251\n      jump\t// in\n    tag_250:\n        /* \"#utility.yul\":5254:5256   */\n      0x40\n        /* \"#utility.yul\":5249:5252   */\n      dup3\n        /* \"#utility.yul\":5245:5257   */\n      add\n        /* \"#utility.yul\":5238:5257   */\n      swap1\n      pop\n        /* \"#utility.yul\":4897:5263   */\n      swap2\n      swap1\n      pop\n      jump\t// out\n        /* \"#utility.yul\":5269:5635   */\n    tag_252:\n        /* \"#utility.yul\":5411:5414   */\n      0x00\n        /* \"#utility.yul\":5432:5499   */\n      tag_254\n        /* \"#utility.yul\":5496:5498   */\n      0x15\n        /* \"#utility.yul\":5491:5494   */\n      dup4\n        /* \"#utility.yul\":5432:5499   */\n      tag_217\n      jump\t// in\n    tag_254:\n        /* \"#utility.yul\":5425:5499   */\n      swap2\n      pop\n        /* \"#utility.yul\":5508:5601   */\n      tag_255\n        /* \"#utility.yul\":5597:5600   */\n      dup3\n        /* \"#utility.yul\":5508:5601   */\n      tag_256\n      jump\t// in\n    tag_255:\n        /* \"#utility.yul\":5626:5628   */\n      0x20\n        /* \"#utility.yul\":5621:5624   */\n      dup3\n        /* \"#utility.yul\":5617:5629   */\n      add\n        /* \"#utility.yul\":5610:5629   */\n      swap1\n      pop\n        /* \"#utility.yul\":5269:5635   */\n      swap2\n      swap1\n      pop\n      jump\t// out\n        /* \"#utility.yul\":5641:6007   */\n    tag_257:\n        /* \"#utility.yul\":5783:5786   */\n      0x00\n        /* \"#utility.yul\":5804:5871   */\n      tag_259\n        /* \"#utility.yul\":5868:5870   */\n      0x24\n        /* \"#utility.yul\":5863:5866   */\n      dup4\n        /* \"#utility.yul\":5804:5871   */\n      tag_217\n      jump\t// in\n    tag_259:\n        /* \"#utility.yul\":5797:5871   */\n      swap2\n      pop\n        /* \"#utility.yul\":5880:5973   */\n      tag_260\n        /* \"#utility.yul\":5969:5972   */\n      dup3\n        /* \"#utility.yul\":5880:5973   */\n      tag_261\n      jump\t// in\n    tag_260:\n        /* \"#utility.yul\":5998:6000   */\n      0x40\n        /* \"#utility.yul\":5993:5996   */\n      dup3\n        /* \"#utility.yul\":5989:6001   */\n      add\n        /* \"#utility.yul\":5982:6001   */\n      swap1\n      pop\n        /* \"#utility.yul\":5641:6007   */\n      swap2\n      swap1\n      pop\n      jump\t// out\n        /* \"#utility.yul\":6013:6379   */\n    tag_262:\n        /* \"#utility.yul\":6155:6158   */\n      0x00\n        /* \"#utility.yul\":6176:6243   */\n      tag_264\n        /* \"#utility.yul\":6240:6242   */\n      0x25\n        /* \"#utility.yul\":6235:6238   */\n      dup4\n        /* \"#utility.yul\":6176:6243   */\n      tag_217\n      jump\t// in\n    tag_264:\n        /* \"#utility.yul\":6169:6243   */\n      swap2\n      pop\n        /* \"#utility.yul\":6252:6345   */\n      tag_265\n        /* \"#utility.yul\":6341:6344   */\n      dup3\n        /* \"#utility.yul\":6252:6345   */\n      tag_266\n      jump\t// in\n    tag_265:\n        /* \"#utility.yul\":6370:6372   */\n      0x40\n        /* \"#utility.yul\":6365:6368   */\n      dup3\n        /* \"#utility.yul\":6361:6373   */\n      add\n        /* \"#utility.yul\":6354:6373   */\n      swap1\n      pop\n        /* \"#utility.yul\":6013:6379   */\n      swap2\n      swap1\n      pop\n      jump\t// out\n        /* \"#utility.yul\":6385:6503   */\n    tag_267:\n        /* \"#utility.yul\":6472:6496   */\n      tag_269\n        /* \"#utility.yul\":6490:6495   */\n      dup2\n        /* \"#utility.yul\":6472:6496   */\n      tag_270\n      jump\t// in\n    tag_269:\n        /* \"#utility.yul\":6467:6470   */\n      dup3\n        /* \"#utility.yul\":6460:6497   */\n      mstore\n        /* \"#utility.yul\":6385:6503   */\n      pop\n      pop\n      jump\t// out\n        /* \"#utility.yul\":6509:6621   */\n    tag_271:\n        /* \"#utility.yul\":6592:6614   */\n      tag_273\n        /* \"#utility.yul\":6608:6613   */\n      dup2\n        /* \"#utility.yul\":6592:6614   */\n      tag_274\n      jump\t// in\n    tag_273:\n        /* \"#utility.yul\":6587:6590   */\n      dup3\n        /* \"#utility.yul\":6580:6615   */\n      mstore\n        /* \"#utility.yul\":6509:6621   */\n      pop\n      pop\n      jump\t// out\n        /* \"#utility.yul\":6627:6837   */\n    tag_29:\n        /* \"#utility.yul\":6714:6718   */\n      0x00\n        /* \"#utility.yul\":6752:6754   */\n      0x20\n        /* \"#utility.yul\":6741:6750   */\n      dup3\n        /* \"#utility.yul\":6737:6755   */\n      add\n        /* \"#utility.yul\":6729:6755   */\n      swap1\n      pop\n        /* \"#utility.yul\":6765:6830   */\n      tag_276\n        /* \"#utility.yul\":6827:6828   */\n      0x00\n        /* \"#utility.yul\":6816:6825   */\n      dup4\n        /* \"#utility.yul\":6812:6829   */\n      add\n        /* \"#utility.yul\":6803:6809   */\n      dup5\n        /* \"#utility.yul\":6765:6830   */\n      tag_208\n      jump\t// in\n    tag_276:\n        /* \"#utility.yul\":6627:6837   */\n      swap3\n      swap2\n      pop\n      pop\n      jump\t// out\n        /* \"#utility.yul\":6843:7156   */\n    tag_23:\n        /* \"#utility.yul\":6956:6960   */\n      0x00\n        /* \"#utility.yul\":6994:6996   */\n      0x20\n        /* \"#utility.yul\":6983:6992   */\n      dup3\n        /* \"#utility.yul\":6979:6997   */\n      add\n        /* \"#utility.yul\":6971:6997   */\n      swap1\n      pop\n        /* \"#utility.yul\":7043:7052   */\n      dup2\n        /* \"#utility.yul\":7037:7041   */\n      dup2\n        /* \"#utility.yul\":7033:7053   */\n      sub\n        /* \"#utility.yul\":7029:7030   */\n      0x00\n        /* \"#utility.yul\":7018:7027   */\n      dup4\n        /* \"#utility.yul\":7014:7031   */\n      add\n        /* \"#utility.yul\":7007:7054   */\n      mstore\n        /* \"#utility.yul\":7071:7149   */\n      tag_278\n        /* \"#utility.yul\":7144:7148   */\n      dup2\n        /* \"#utility.yul\":7135:7141   */\n      dup5\n        /* \"#utility.yul\":7071:7149   */\n      tag_212\n      jump\t// in\n    tag_278:\n        /* \"#utility.yul\":7063:7149   */\n      swap1\n      pop\n        /* \"#utility.yul\":6843:7156   */\n      swap3\n      swap2\n      pop\n      pop\n      jump\t// out\n        /* \"#utility.yul\":7162:7581   */\n    tag_163:\n        /* \"#utility.yul\":7328:7332   */\n      0x00\n        /* \"#utility.yul\":7366:7368   */\n      0x20\n        /* \"#utility.yul\":7355:7364   */\n      dup3\n        /* \"#utility.yul\":7351:7369   */\n      add\n        /* \"#utility.yul\":7343:7369   */\n      swap1\n      pop\n        /* \"#utility.yul\":7415:7424   */\n      dup2\n        /* \"#utility.yul\":7409:7413   */\n      dup2\n        /* \"#utility.yul\":7405:7425   */\n      sub\n        /* \"#utility.yul\":7401:7402   */\n      0x00\n        /* \"#utility.yul\":7390:7399   */\n      dup4\n        /* \"#utility.yul\":7386:7403   */\n      add\n        /* \"#utility.yul\":7379:7426   */\n      mstore\n        /* \"#utility.yul\":7443:7574   */\n      tag_280\n        /* \"#utility.yul\":7569:7573   */\n      dup2\n        /* \"#utility.yul\":7443:7574   */\n      tag_222\n      jump\t// in\n    tag_280:\n        /* \"#utility.yul\":7435:7574   */\n      swap1\n      pop\n        /* \"#utility.yul\":7162:7581   */\n      swap2\n      swap1\n      pop\n      jump\t// out\n        /* \"#utility.yul\":7587:8006   */\n    tag_148:\n        /* \"#utility.yul\":7753:7757   */\n      0x00\n        /* \"#utility.yul\":7791:7793   */\n      0x20\n        /* \"#utility.yul\":7780:7789   */\n      dup3\n        /* \"#utility.yul\":7776:7794   */\n      add\n        /* \"#utility.yul\":7768:7794   */\n      swap1\n      pop\n        /* \"#utility.yul\":7840:7849   */\n      dup2\n        /* \"#utility.yul\":7834:7838   */\n      dup2\n        /* \"#utility.yul\":7830:7850   */\n      sub\n        /* \"#utility.yul\":7826:7827   */\n      0x00\n        /* \"#utility.yul\":7815:7824   */\n      dup4\n        /* \"#utility.yul\":7811:7828   */\n      add\n        /* \"#utility.yul\":7804:7851   */\n      mstore\n        /* \"#utility.yul\":7868:7999   */\n      tag_282\n        /* \"#utility.yul\":7994:7998   */\n      dup2\n        /* \"#utility.yul\":7868:7999   */\n      tag_227\n      jump\t// in\n    tag_282:\n        /* \"#utility.yul\":7860:7999   */\n      swap1\n      pop\n        /* \"#utility.yul\":7587:8006   */\n      swap2\n      swap1\n      pop\n      jump\t// out\n        /* \"#utility.yul\":8012:8431   */\n    tag_155:\n        /* \"#utility.yul\":8178:8182   */\n      0x00\n        /* \"#utility.yul\":8216:8218   */\n      0x20\n        /* \"#utility.yul\":8205:8214   */\n      dup3\n        /* \"#utility.yul\":8201:8219   */\n      add\n        /* \"#utility.yul\":8193:8219   */\n      swap1\n      pop\n        /* \"#utility.yul\":8265:8274   */\n      dup2\n        /* \"#utility.yul\":8259:8263   */\n      dup2\n        /* \"#utility.yul\":8255:8275   */\n      sub\n        /* \"#utility.yul\":8251:8252   */\n      0x00\n        /* \"#utility.yul\":8240:8249   */\n      dup4\n        /* \"#utility.yul\":8236:8253   */\n      add\n        /* \"#utility.yul\":8229:8276   */\n      mstore\n        /* \"#utility.yul\":8293:8424   */\n      tag_284\n        /* \"#utility.yul\":8419:8423   */\n      dup2\n        /* \"#utility.yul\":8293:8424   */\n      tag_232\n      jump\t// in\n    tag_284:\n        /* \"#utility.yul\":8285:8424   */\n      swap1\n      pop\n        /* \"#utility.yul\":8012:8431   */\n      swap2\n      swap1\n      pop\n      jump\t// out\n        /* \"#utility.yul\":8437:8856   */\n    tag_168:\n        /* \"#utility.yul\":8603:8607   */\n      0x00\n        /* \"#utility.yul\":8641:8643   */\n      0x20\n        /* \"#utility.yul\":8630:8639   */\n      dup3\n        /* \"#utility.yul\":8626:8644   */\n      add\n        /* \"#utility.yul\":8618:8644   */\n      swap1\n      pop\n        /* \"#utility.yul\":8690:8699   */\n      dup2\n        /* \"#utility.yul\":8684:8688   */\n      dup2\n        /* \"#utility.yul\":8680:8700   */\n      sub\n        /* \"#utility.yul\":8676:8677   */\n      0x00\n        /* \"#utility.yul\":8665:8674   */\n      dup4\n        /* \"#utility.yul\":8661:8678   */\n      add\n        /* \"#utility.yul\":8654:8701   */\n      mstore\n        /* \"#utility.yul\":8718:8849   */\n      tag_286\n        /* \"#utility.yul\":8844:8848   */\n      dup2\n        /* \"#utility.yul\":8718:8849   */\n      tag_237\n      jump\t// in\n    tag_286:\n        /* \"#utility.yul\":8710:8849   */\n      swap1\n      pop\n        /* \"#utility.yul\":8437:8856   */\n      swap2\n      swap1\n      pop\n      jump\t// out\n        /* \"#utility.yul\":8862:9281   */\n    tag_109:\n        /* \"#utility.yul\":9028:9032   */\n      0x00\n        /* \"#utility.yul\":9066:9068   */\n      0x20\n        /* \"#utility.yul\":9055:9064   */\n      dup3\n        /* \"#utility.yul\":9051:9069   */\n      add\n        /* \"#utility.yul\":9043:9069   */\n      swap1\n      pop\n        /* \"#utility.yul\":9115:9124   */\n      dup2\n        /* \"#utility.yul\":9109:9113   */\n      dup2\n        /* \"#utility.yul\":9105:9125   */\n      sub\n        /* \"#utility.yul\":9101:9102   */\n      0x00\n        /* \"#utility.yul\":9090:9099   */\n      dup4\n        /* \"#utility.yul\":9086:9103   */\n      add\n        /* \"#utility.yul\":9079:9126   */\n      mstore\n        /* \"#utility.yul\":9143:9274   */\n      tag_288\n        /* \"#utility.yul\":9269:9273   */\n      dup2\n        /* \"#utility.yul\":9143:9274   */\n      tag_242\n      jump\t// in\n    tag_288:\n        /* \"#utility.yul\":9135:9274   */\n      swap1\n      pop\n        /* \"#utility.yul\":8862:9281   */\n      swap2\n      swap1\n      pop\n      jump\t// out\n        /* \"#utility.yul\":9287:9706   */\n    tag_160:\n        /* \"#utility.yul\":9453:9457   */\n      0x00\n        /* \"#utility.yul\":9491:9493   */\n      0x20\n        /* \"#utility.yul\":9480:9489   */\n      dup3\n        /* \"#utility.yul\":9476:9494   */\n      add\n        /* \"#utility.yul\":9468:9494   */\n      swap1\n      pop\n        /* \"#utility.yul\":9540:9549   */\n      dup2\n        /* \"#utility.yul\":9534:9538   */\n      dup2\n        /* \"#utility.yul\":9530:9550   */\n      sub\n        /* \"#utility.yul\":9526:9527   */\n      0x00\n        /* \"#utility.yul\":9515:9524   */\n      dup4\n        /* \"#utility.yul\":9511:9528   */\n      add\n        /* \"#utility.yul\":9504:9551   */\n      mstore\n        /* \"#utility.yul\":9568:9699   */\n      tag_290\n        /* \"#utility.yul\":9694:9698   */\n      dup2\n        /* \"#utility.yul\":9568:9699   */\n      tag_247\n      jump\t// in\n    tag_290:\n        /* \"#utility.yul\":9560:9699   */\n      swap1\n      pop\n        /* \"#utility.yul\":9287:9706   */\n      swap2\n      swap1\n      pop\n      jump\t// out\n        /* \"#utility.yul\":9712:10131   */\n    tag_113:\n        /* \"#utility.yul\":9878:9882   */\n      0x00\n        /* \"#utility.yul\":9916:9918   */\n      0x20\n        /* \"#utility.yul\":9905:9914   */\n      dup3\n        /* \"#utility.yul\":9901:9919   */\n      add\n        /* \"#utility.yul\":9893:9919   */\n      swap1\n      pop\n        /* \"#utility.yul\":9965:9974   */\n      dup2\n        /* \"#utility.yul\":9959:9963   */\n      dup2\n        /* \"#utility.yul\":9955:9975   */\n      sub\n        /* \"#utility.yul\":9951:9952   */\n      0x00\n        /* \"#utility.yul\":9940:9949   */\n      dup4\n        /* \"#utility.yul\":9936:9953   */\n      add\n        /* \"#utility.yul\":9929:9976   */\n      mstore\n        /* \"#utility.yul\":9993:10124   */\n      tag_292\n        /* \"#utility.yul\":10119:10123   */\n      dup2\n        /* \"#utility.yul\":9993:10124   */\n      tag_252\n      jump\t// in\n    tag_292:\n        /* \"#utility.yul\":9985:10124   */\n      swap1\n      pop\n        /* \"#utility.yul\":9712:10131   */\n      swap2\n      swap1\n      pop\n      jump\t// out\n        /* \"#utility.yul\":10137:10556   */\n    tag_145:\n        /* \"#utility.yul\":10303:10307   */\n      0x00\n        /* \"#utility.yul\":10341:10343   */\n      0x20\n        /* \"#utility.yul\":10330:10339   */\n      dup3\n        /* \"#utility.yul\":10326:10344   */\n      add\n        /* \"#utility.yul\":10318:10344   */\n      swap1\n      pop\n        /* \"#utility.yul\":10390:10399   */\n      dup2\n        /* \"#utility.yul\":10384:10388   */\n      dup2\n        /* \"#utility.yul\":10380:10400   */\n      sub\n        /* \"#utility.yul\":10376:10377   */\n      0x00\n        /* \"#utility.yul\":10365:10374   */\n      dup4\n        /* \"#utility.yul\":10361:10378   */\n      add\n        /* \"#utility.yul\":10354:10401   */\n      mstore\n        /* \"#utility.yul\":10418:10549   */\n      tag_294\n        /* \"#utility.yul\":10544:10548   */\n      dup2\n        /* \"#utility.yul\":10418:10549   */\n      tag_257\n      jump\t// in\n    tag_294:\n        /* \"#utility.yul\":10410:10549   */\n      swap1\n      pop\n        /* \"#utility.yul\":10137:10556   */\n      swap2\n      swap1\n      pop\n      jump\t// out\n        /* \"#utility.yul\":10562:10981   */\n    tag_135:\n        /* \"#utility.yul\":10728:10732   */\n      0x00\n        /* \"#utility.yul\":10766:10768   */\n      0x20\n        /* \"#utility.yul\":10755:10764   */\n      dup3\n        /* \"#utility.yul\":10751:10769   */\n      add\n        /* \"#utility.yul\":10743:10769   */\n      swap1\n      pop\n        /* \"#utility.yul\":10815:10824   */\n      dup2\n        /* \"#utility.yul\":10809:10813   */\n      dup2\n        /* \"#utility.yul\":10805:10825   */\n      sub\n        /* \"#utility.yul\":10801:10802   */\n      0x00\n        /* \"#utility.yul\":10790:10799   */\n      dup4\n        /* \"#utility.yul\":10786:10803   */\n      add\n        /* \"#utility.yul\":10779:10826   */\n      mstore\n        /* \"#utility.yul\":10843:10974   */\n      tag_296\n        /* \"#utility.yul\":10969:10973   */\n      dup2\n        /* \"#utility.yul\":10843:10974   */\n      tag_262\n      jump\t// in\n    tag_296:\n        /* \"#utility.yul\":10835:10974   */\n      swap1\n      pop\n        /* \"#utility.yul\":10562:10981   */\n      swap2\n      swap1\n      pop\n      jump\t// out\n        /* \"#utility.yul\":10987:11209   */\n    tag_33:\n        /* \"#utility.yul\":11080:11084   */\n      0x00\n        /* \"#utility.yul\":11118:11120   */\n      0x20\n        /* \"#utility.yul\":11107:11116   */\n      dup3\n        /* \"#utility.yul\":11103:11121   */\n      add\n        /* \"#utility.yul\":11095:11121   */\n      swap1\n      pop\n        /* \"#utility.yul\":11131:11202   */\n      tag_298\n        /* \"#utility.yul\":11199:11200   */\n      0x00\n        /* \"#utility.yul\":11188:11197   */\n      dup4\n        /* \"#utility.yul\":11184:11201   */\n      add\n        /* \"#utility.yul\":11175:11181   */\n      dup5\n        /* \"#utility.yul\":11131:11202   */\n      tag_267\n      jump\t// in\n    tag_298:\n        /* \"#utility.yul\":10987:11209   */\n      swap3\n      swap2\n      pop\n      pop\n      jump\t// out\n        /* \"#utility.yul\":11215:11429   */\n    tag_42:\n        /* \"#utility.yul\":11304:11308   */\n      0x00\n        /* \"#utility.yul\":11342:11344   */\n      0x20\n        /* \"#utility.yul\":11331:11340   */\n      dup3\n        /* \"#utility.yul\":11327:11345   */\n      add\n        /* \"#utility.yul\":11319:11345   */\n      swap1\n      pop\n        /* \"#utility.yul\":11355:11422   */\n      tag_300\n        /* \"#utility.yul\":11419:11420   */\n      0x00\n        /* \"#utility.yul\":11408:11417   */\n      dup4\n        /* \"#utility.yul\":11404:11421   */\n      add\n        /* \"#utility.yul\":11395:11401   */\n      dup5\n        /* \"#utility.yul\":11355:11422   */\n      tag_271\n      jump\t// in\n    tag_300:\n        /* \"#utility.yul\":11215:11429   */\n      swap3\n      swap2\n      pop\n      pop\n      jump\t// out\n        /* \"#utility.yul\":11516:11615   */\n    tag_215:\n        /* \"#utility.yul\":11568:11574   */\n      0x00\n        /* \"#utility.yul\":11602:11607   */\n      dup2\n        /* \"#utility.yul\":11596:11608   */\n      mload\n        /* \"#utility.yul\":11586:11608   */\n      swap1\n      pop\n        /* \"#utility.yul\":11516:11615   */\n      swap2\n      swap1\n      pop\n      jump\t// out\n        /* \"#utility.yul\":11621:11790   */\n    tag_217:\n        /* \"#utility.yul\":11705:11716   */\n      0x00\n        /* \"#utility.yul\":11739:11745   */\n      dup3\n        /* \"#utility.yul\":11734:11737   */\n      dup3\n        /* \"#utility.yul\":11727:11746   */\n      mstore\n        /* \"#utility.yul\":11779:11783   */\n      0x20\n        /* \"#utility.yul\":11774:11777   */\n      dup3\n        /* \"#utility.yul\":11770:11784   */\n      add\n        /* \"#utility.yul\":11755:11784   */\n      swap1\n      pop\n        /* \"#utility.yul\":11621:11790   */\n      swap3\n      swap2\n      pop\n      pop\n      jump\t// out\n        /* \"#utility.yul\":11796:12101   */\n    tag_105:\n        /* \"#utility.yul\":11836:11839   */\n      0x00\n        /* \"#utility.yul\":11855:11875   */\n      tag_306\n        /* \"#utility.yul\":11873:11874   */\n      dup3\n        /* \"#utility.yul\":11855:11875   */\n      tag_270\n      jump\t// in\n    tag_306:\n        /* \"#utility.yul\":11850:11875   */\n      swap2\n      pop\n        /* \"#utility.yul\":11889:11909   */\n      tag_307\n        /* \"#utility.yul\":11907:11908   */\n      dup4\n        /* \"#utility.yul\":11889:11909   */\n      tag_270\n      jump\t// in\n    tag_307:\n        /* \"#utility.yul\":11884:11909   */\n      swap3\n      pop\n        /* \"#utility.yul\":12043:12044   */\n      dup3\n        /* \"#utility.yul\":11975:12041   */\n      0xffffffffffffffffffffffffffffffffffffffffffffffffffffffffffffffff\n        /* \"#utility.yul\":11971:12045   */\n      sub\n        /* \"#utility.yul\":11968:11969   */\n      dup3\n        /* \"#utility.yul\":11965:12046   */\n      gt\n        /* \"#utility.yul\":11962:12069   */\n      iszero\n      tag_308\n      jumpi\n        /* \"#utility.yul\":12049:12067   */\n      tag_309\n      tag_310\n      jump\t// in\n    tag_309:\n        /* \"#utility.yul\":11962:12069   */\n    tag_308:\n        /* \"#utility.yul\":12093:12094   */\n      dup3\n        /* \"#utility.yul\":12090:12091   */\n      dup3\n        /* \"#utility.yul\":12086:12095   */\n      add\n        /* \"#utility.yul\":12079:12095   */\n      swap1\n      pop\n        /* \"#utility.yul\":11796:12101   */\n      swap3\n      swap2\n      pop\n      pop\n      jump\t// out\n        /* \"#utility.yul\":12107:12955   */\n    tag_311:\n        /* \"#utility.yul\":12168:12173   */\n      0x00\n        /* \"#utility.yul\":12175:12179   */\n      dup1\n        /* \"#utility.yul\":12199:12205   */\n      dup3\n        /* \"#utility.yul\":12190:12205   */\n      swap2\n      pop\n        /* \"#utility.yul\":12223:12228   */\n      dup4\n        /* \"#utility.yul\":12214:12228   */\n      swap1\n      pop\n        /* \"#utility.yul\":12237:12949   */\n    tag_313:\n        /* \"#utility.yul\":12258:12259   */\n      0x01\n        /* \"#utility.yul\":12248:12256   */\n      dup6\n        /* \"#utility.yul\":12245:12260   */\n      gt\n        /* \"#utility.yul\":12237:12949   */\n      iszero\n      tag_315\n      jumpi\n        /* \"#utility.yul\":12353:12357   */\n      dup1\n        /* \"#utility.yul\":12348:12351   */\n      dup7\n        /* \"#utility.yul\":12344:12358   */\n      div\n        /* \"#utility.yul\":12338:12342   */\n      dup2\n        /* \"#utility.yul\":12335:12359   */\n      gt\n        /* \"#utility.yul\":12332:12382   */\n      iszero\n      tag_316\n      jumpi\n        /* \"#utility.yul\":12362:12380   */\n      tag_317\n      tag_310\n      jump\t// in\n    tag_317:\n        /* \"#utility.yul\":12332:12382   */\n    tag_316:\n        /* \"#utility.yul\":12412:12413   */\n      0x01\n        /* \"#utility.yul\":12402:12410   */\n      dup6\n        /* \"#utility.yul\":12398:12414   */\n      and\n        /* \"#utility.yul\":12395:12846   */\n      iszero\n      tag_318\n      jumpi\n        /* \"#utility.yul\":12827:12831   */\n      dup1\n        /* \"#utility.yul\":12820:12825   */\n      dup3\n        /* \"#utility.yul\":12816:12832   */\n      mul\n        /* \"#utility.yul\":12807:12832   */\n      swap2\n      pop\n        /* \"#utility.yul\":12395:12846   */\n    tag_318:\n        /* \"#utility.yul\":12877:12881   */\n      dup1\n        /* \"#utility.yul\":12871:12875   */\n      dup2\n        /* \"#utility.yul\":12867:12882   */\n      mul\n        /* \"#utility.yul\":12859:12882   */\n      swap1\n      pop\n        /* \"#utility.yul\":12907:12939   */\n      tag_319\n        /* \"#utility.yul\":12930:12938   */\n      dup6\n        /* \"#utility.yul\":12907:12939   */\n      tag_320\n      jump\t// in\n    tag_319:\n        /* \"#utility.yul\":12895:12939   */\n      swap5\n      pop\n        /* \"#utility.yul\":12237:12949   */\n      jump(tag_313)\n    tag_315:\n        /* \"#utility.yul\":12107:12955   */\n      swap5\n      pop\n      swap5\n      swap3\n      pop\n      pop\n      pop\n      jump\t// out\n        /* \"#utility.yul\":12961:13242   */\n    tag_120:\n        /* \"#utility.yul\":13019:13024   */\n      0x00\n        /* \"#utility.yul\":13043:13066   */\n      tag_322\n        /* \"#utility.yul\":13061:13065   */\n      dup3\n        /* \"#utility.yul\":13043:13066   */\n      tag_270\n      jump\t// in\n    tag_322:\n        /* \"#utility.yul\":13035:13066   */\n      swap2\n      pop\n        /* \"#utility.yul\":13087:13112   */\n      tag_323\n        /* \"#utility.yul\":13103:13111   */\n      dup4\n        /* \"#utility.yul\":13087:13112   */\n      tag_274\n      jump\t// in\n    tag_323:\n        /* \"#utility.yul\":13075:13112   */\n      swap3\n      pop\n        /* \"#utility.yul\":13131:13235   */\n      tag_324\n        /* \"#utility.yul\":13168:13234   */\n      0xffffffffffffffffffffffffffffffffffffffffffffffffffffffffffffffff\n        /* \"#utility.yul\":13158:13166   */\n      dup5\n        /* \"#utility.yul\":13152:13156   */\n      dup5\n        /* \"#utility.yul\":13131:13235   */\n      tag_325\n      jump\t// in\n    tag_324:\n        /* \"#utility.yul\":13122:13235   */\n      swap1\n      pop\n        /* \"#utility.yul\":12961:13242   */\n      swap3\n      swap2\n      pop\n      pop\n      jump\t// out\n        /* \"#utility.yul\":13248:14321   */\n    tag_325:\n        /* \"#utility.yul\":13302:13307   */\n      0x00\n        /* \"#utility.yul\":13493:13501   */\n      dup3\n        /* \"#utility.yul\":13483:13523   */\n      tag_327\n      jumpi\n        /* \"#utility.yul\":13514:13515   */\n      0x01\n        /* \"#utility.yul\":13505:13515   */\n      swap1\n      pop\n        /* \"#utility.yul\":13516:13521   */\n      jump(tag_326)\n        /* \"#utility.yul\":13483:13523   */\n    tag_327:\n        /* \"#utility.yul\":13542:13546   */\n      dup2\n        /* \"#utility.yul\":13532:13568   */\n      tag_328\n      jumpi\n        /* \"#utility.yul\":13559:13560   */\n      0x00\n        /* \"#utility.yul\":13550:13560   */\n      swap1\n      pop\n        /* \"#utility.yul\":13561:13566   */\n      jump(tag_326)\n        /* \"#utility.yul\":13532:13568   */\n    tag_328:\n        /* \"#utility.yul\":13628:13632   */\n      dup2\n        /* \"#utility.yul\":13676:13677   */\n      0x01\n        /* \"#utility.yul\":13671:13698   */\n      dup2\n      eq\n      tag_330\n      jumpi\n        /* \"#utility.yul\":13712:13713   */\n      0x02\n        /* \"#utility.yul\":13707:13898   */\n      dup2\n      eq\n      tag_331\n      jumpi\n        /* \"#utility.yul\":13621:13898   */\n      jump(tag_329)\n        /* \"#utility.yul\":13671:13698   */\n    tag_330:\n        /* \"#utility.yul\":13689:13690   */\n      0x01\n        /* \"#utility.yul\":13680:13690   */\n      swap2\n      pop\n        /* \"#utility.yul\":13691:13696   */\n      pop\n      jump(tag_326)\n        /* \"#utility.yul\":13707:13898   */\n    tag_331:\n        /* \"#utility.yul\":13752:13755   */\n      0xff\n        /* \"#utility.yul\":13742:13750   */\n      dup5\n        /* \"#utility.yul\":13739:13756   */\n      gt\n        /* \"#utility.yul\":13736:13779   */\n      iszero\n      tag_332\n      jumpi\n        /* \"#utility.yul\":13759:13777   */\n      tag_333\n      tag_310\n      jump\t// in\n    tag_333:\n        /* \"#utility.yul\":13736:13779   */\n    tag_332:\n        /* \"#utility.yul\":13808:13816   */\n      dup4\n        /* \"#utility.yul\":13805:13806   */\n      0x02\n        /* \"#utility.yul\":13801:13817   */\n      exp\n        /* \"#utility.yul\":13792:13817   */\n      swap2\n      pop\n        /* \"#utility.yul\":13843:13846   */\n      dup5\n        /* \"#utility.yul\":13836:13841   */\n      dup3\n        /* \"#utility.yul\":13833:13847   */\n      gt\n        /* \"#utility.yul\":13830:13870   */\n      iszero\n      tag_334\n      jumpi\n        /* \"#utility.yul\":13850:13868   */\n      tag_335\n      tag_310\n      jump\t// in\n    tag_335:\n        /* \"#utility.yul\":13830:13870   */\n    tag_334:\n        /* \"#utility.yul\":13883:13888   */\n      pop\n      jump(tag_326)\n        /* \"#utility.yul\":13621:13898   */\n    tag_329:\n      pop\n        /* \"#utility.yul\":14007:14009   */\n      0x20\n        /* \"#utility.yul\":13997:14005   */\n      dup4\n        /* \"#utility.yul\":13994:14010   */\n      lt\n        /* \"#utility.yul\":13988:13991   */\n      0x0133\n        /* \"#utility.yul\":13982:13986   */\n      dup4\n        /* \"#utility.yul\":13979:13992   */\n      lt\n        /* \"#utility.yul\":13975:14011   */\n      and\n        /* \"#utility.yul\":13957:13959   */\n      0x4e\n        /* \"#utility.yul\":13947:13955   */\n      dup5\n        /* \"#utility.yul\":13944:13960   */\n      lt\n        /* \"#utility.yul\":13939:13941   */\n      0x0b\n        /* \"#utility.yul\":13933:13937   */\n      dup5\n        /* \"#utility.yul\":13930:13942   */\n      lt\n        /* \"#utility.yul\":13926:13961   */\n      and\n        /* \"#utility.yul\":13910:14021   */\n      or\n        /* \"#utility.yul\":13907:14153   */\n      iszero\n      tag_336\n      jumpi\n        /* \"#utility.yul\":14063:14071   */\n      dup3\n        /* \"#utility.yul\":14057:14061   */\n      dup3\n        /* \"#utility.yul\":14053:14072   */\n      exp\n        /* \"#utility.yul\":14044:14072   */\n      swap1\n      pop\n        /* \"#utility.yul\":14098:14101   */\n      dup4\n        /* \"#utility.yul\":14091:14096   */\n      dup2\n        /* \"#utility.yul\":14088:14102   */\n      gt\n        /* \"#utility.yul\":14085:14125   */\n      iszero\n      tag_337\n      jumpi\n        /* \"#utility.yul\":14105:14123   */\n      tag_338\n      tag_310\n      jump\t// in\n    tag_338:\n        /* \"#utility.yul\":14085:14125   */\n    tag_337:\n        /* \"#utility.yul\":14138:14143   */\n      jump(tag_326)\n        /* \"#utility.yul\":13907:14153   */\n    tag_336:\n        /* \"#utility.yul\":14178:14220   */\n      tag_339\n        /* \"#utility.yul\":14216:14219   */\n      dup5\n        /* \"#utility.yul\":14206:14214   */\n      dup5\n        /* \"#utility.yul\":14200:14204   */\n      dup5\n        /* \"#utility.yul\":14197:14198   */\n      0x01\n        /* \"#utility.yul\":14178:14220   */\n      tag_311\n      jump\t// in\n    tag_339:\n        /* \"#utility.yul\":14163:14220   */\n      swap3\n      pop\n      swap1\n      pop\n        /* \"#utility.yul\":14252:14256   */\n      dup2\n        /* \"#utility.yul\":14247:14250   */\n      dup5\n        /* \"#utility.yul\":14243:14257   */\n      div\n        /* \"#utility.yul\":14236:14241   */\n      dup2\n        /* \"#utility.yul\":14233:14258   */\n      gt\n        /* \"#utility.yul\":14230:14281   */\n      iszero\n      tag_340\n      jumpi\n        /* \"#utility.yul\":14261:14279   */\n      tag_341\n      tag_310\n      jump\t// in\n    tag_341:\n        /* \"#utility.yul\":14230:14281   */\n    tag_340:\n        /* \"#utility.yul\":14310:14314   */\n      dup2\n        /* \"#utility.yul\":14303:14308   */\n      dup2\n        /* \"#utility.yul\":14299:14315   */\n      mul\n        /* \"#utility.yul\":14290:14315   */\n      swap1\n      pop\n        /* \"#utility.yul\":13248:14321   */\n    tag_326:\n      swap4\n      swap3\n      pop\n      pop\n      pop\n      jump\t// out\n        /* \"#utility.yul\":14327:14675   */\n    tag_122:\n        /* \"#utility.yul\":14367:14374   */\n      0x00\n        /* \"#utility.yul\":14390:14410   */\n      tag_343\n        /* \"#utility.yul\":14408:14409   */\n      dup3\n        /* \"#utility.yul\":14390:14410   */\n      tag_270\n      jump\t// in\n    tag_343:\n        /* \"#utility.yul\":14385:14410   */\n      swap2\n      pop\n        /* \"#utility.yul\":14424:14444   */\n      tag_344\n        /* \"#utility.yul\":14442:14443   */\n      dup4\n        /* \"#utility.yul\":14424:14444   */\n      tag_270\n      jump\t// in\n    tag_344:\n        /* \"#utility.yul\":14419:14444   */\n      swap3\n      pop\n        /* \"#utility.yul\":14612:14613   */\n      dup2\n        /* \"#utility.yul\":14544:14610   */\n      0xffffffffffffffffffffffffffffffffffffffffffffffffffffffffffffffff\n        /* \"#utility.yul\":14540:14614   */\n      div\n        /* \"#utility.yul\":14537:14538   */\n      dup4\n        /* \"#utility.yul\":14534:14615   */\n      gt\n        /* \"#utility.yul\":14529:14530   */\n      dup3\n        /* \"#utility.yul\":14522:14531   */\n      iszero\n        /* \"#utility.yul\":14515:14532   */\n      iszero\n        /* \"#utility.yul\":14511:14616   */\n      and\n        /* \"#utility.yul\":14508:14639   */\n      iszero\n      tag_345\n      jumpi\n        /* \"#utility.yul\":14619:14637   */\n      tag_346\n      tag_310\n      jump\t// in\n    tag_346:\n        /* \"#utility.yul\":14508:14639   */\n    tag_345:\n        /* \"#utility.yul\":14667:14668   */\n      dup3\n        /* \"#utility.yul\":14664:14665   */\n      dup3\n        /* \"#utility.yul\":14660:14669   */\n      mul\n        /* \"#utility.yul\":14649:14669   */\n      swap1\n      pop\n        /* \"#utility.yul\":14327:14675   */\n      swap3\n      swap2\n      pop\n      pop\n      jump\t// out\n        /* \"#utility.yul\":14681:14777   */\n    tag_347:\n        /* \"#utility.yul\":14718:14725   */\n      0x00\n        /* \"#utility.yul\":14747:14771   */\n      tag_349\n        /* \"#utility.yul\":14765:14770   */\n      dup3\n        /* \"#utility.yul\":14747:14771   */\n      tag_350\n      jump\t// in\n    tag_349:\n        /* \"#utility.yul\":14736:14771   */\n      swap1\n      pop\n        /* \"#utility.yul\":14681:14777   */\n      swap2\n      swap1\n      pop\n      jump\t// out\n        /* \"#utility.yul\":14783:14873   */\n    tag_211:\n        /* \"#utility.yul\":14817:14824   */\n      0x00\n        /* \"#utility.yul\":14860:14865   */\n      dup2\n        /* \"#utility.yul\":14853:14866   */\n      iszero\n        /* \"#utility.yul\":14846:14867   */\n      iszero\n        /* \"#utility.yul\":14835:14867   */\n      swap1\n      pop\n        /* \"#utility.yul\":14783:14873   */\n      swap2\n      swap1\n      pop\n      jump\t// out\n        /* \"#utility.yul\":14879:15005   */\n    tag_350:\n        /* \"#utility.yul\":14916:14923   */\n      0x00\n        /* \"#utility.yul\":14956:14998   */\n      0xffffffffffffffffffffffffffffffffffffffff\n        /* \"#utility.yul\":14949:14954   */\n      dup3\n        /* \"#utility.yul\":14945:14999   */\n      and\n        /* \"#utility.yul\":14934:14999   */\n      swap1\n      pop\n        /* \"#utility.yul\":14879:15005   */\n      swap2\n      swap1\n      pop\n      jump\t// out\n        /* \"#utility.yul\":15011:15088   */\n    tag_270:\n        /* \"#utility.yul\":15048:15055   */\n      0x00\n        /* \"#utility.yul\":15077:15082   */\n      dup2\n        /* \"#utility.yul\":15066:15082   */\n      swap1\n      pop\n        /* \"#utility.yul\":15011:15088   */\n      swap2\n      swap1\n      pop\n      jump\t// out\n        /* \"#utility.yul\":15094:15180   */\n    tag_274:\n        /* \"#utility.yul\":15129:15136   */\n      0x00\n        /* \"#utility.yul\":15169:15173   */\n      0xff\n        /* \"#utility.yul\":15162:15167   */\n      dup3\n        /* \"#utility.yul\":15158:15174   */\n      and\n        /* \"#utility.yul\":15147:15174   */\n      swap1\n      pop\n        /* \"#utility.yul\":15094:15180   */\n      swap2\n      swap1\n      pop\n      jump\t// out\n        /* \"#utility.yul\":15186:15493   */\n    tag_219:\n        /* \"#utility.yul\":15254:15255   */\n      0x00\n        /* \"#utility.yul\":15264:15377   */\n    tag_356:\n        /* \"#utility.yul\":15278:15284   */\n      dup4\n        /* \"#utility.yul\":15275:15276   */\n      dup2\n        /* \"#utility.yul\":15272:15285   */\n      lt\n        /* \"#utility.yul\":15264:15377   */\n      iszero\n      tag_358\n      jumpi\n        /* \"#utility.yul\":15363:15364   */\n      dup1\n        /* \"#utility.yul\":15358:15361   */\n      dup3\n        /* \"#utility.yul\":15354:15365   */\n      add\n        /* \"#utility.yul\":15348:15366   */\n      mload\n        /* \"#utility.yul\":15344:15345   */\n      dup2\n        /* \"#utility.yul\":15339:15342   */\n      dup5\n        /* \"#utility.yul\":15335:15346   */\n      add\n        /* \"#utility.yul\":15328:15367   */\n      mstore\n        /* \"#utility.yul\":15300:15302   */\n      0x20\n        /* \"#utility.yul\":15297:15298   */\n      dup2\n        /* \"#utility.yul\":15293:15303   */\n      add\n        /* \"#utility.yul\":15288:15303   */\n      swap1\n      pop\n        /* \"#utility.yul\":15264:15377   */\n      jump(tag_356)\n    tag_358:\n        /* \"#utility.yul\":15395:15401   */\n      dup4\n        /* \"#utility.yul\":15392:15393   */\n      dup2\n        /* \"#utility.yul\":15389:15402   */\n      gt\n        /* \"#utility.yul\":15386:15487   */\n      iszero\n      tag_359\n      jumpi\n        /* \"#utility.yul\":15475:15476   */\n      0x00\n        /* \"#utility.yul\":15466:15472   */\n      dup5\n        /* \"#utility.yul\":15461:15464   */\n      dup5\n        /* \"#utility.yul\":15457:15473   */\n      add\n        /* \"#utility.yul\":15450:15477   */\n      mstore\n        /* \"#utility.yul\":15386:15487   */\n    tag_359:\n        /* \"#utility.yul\":15235:15493   */\n      pop\n        /* \"#utility.yul\":15186:15493   */\n      pop\n      pop\n      pop\n      jump\t// out\n        /* \"#utility.yul\":15499:15819   */\n    tag_82:\n        /* \"#utility.yul\":15543:15549   */\n      0x00\n        /* \"#utility.yul\":15580:15581   */\n      0x02\n        /* \"#utility.yul\":15574:15578   */\n      dup3\n        /* \"#utility.yul\":15570:15582   */\n      div\n        /* \"#utility.yul\":15560:15582   */\n      swap1\n      pop\n        /* \"#utility.yul\":15627:15628   */\n      0x01\n        /* \"#utility.yul\":15621:15625   */\n      dup3\n        /* \"#utility.yul\":15617:15629   */\n      and\n        /* \"#utility.yul\":15648:15666   */\n      dup1\n        /* \"#utility.yul\":15638:15719   */\n      tag_361\n      jumpi\n        /* \"#utility.yul\":15704:15708   */\n      0x7f\n        /* \"#utility.yul\":15696:15702   */\n      dup3\n        /* \"#utility.yul\":15692:15709   */\n      and\n        /* \"#utility.yul\":15682:15709   */\n      swap2\n      pop\n        /* \"#utility.yul\":15638:15719   */\n    tag_361:\n        /* \"#utility.yul\":15766:15768   */\n      0x20\n        /* \"#utility.yul\":15758:15764   */\n      dup3\n        /* \"#utility.yul\":15755:15769   */\n      lt\n        /* \"#utility.yul\":15735:15753   */\n      dup2\n        /* \"#utility.yul\":15732:15770   */\n      eq\n        /* \"#utility.yul\":15729:15813   */\n      iszero\n      tag_362\n      jumpi\n        /* \"#utility.yul\":15785:15803   */\n      tag_363\n      tag_364\n      jump\t// in\n    tag_363:\n        /* \"#utility.yul\":15729:15813   */\n    tag_362:\n        /* \"#utility.yul\":15550:15819   */\n      pop\n        /* \"#utility.yul\":15499:15819   */\n      swap2\n      swap1\n      pop\n      jump\t// out\n        /* \"#utility.yul\":15825:16005   */\n    tag_310:\n        /* \"#utility.yul\":15873:15950   */\n      0x4e487b7100000000000000000000000000000000000000000000000000000000\n        /* \"#utility.yul\":15870:15871   */\n      0x00\n        /* \"#utility.yul\":15863:15951   */\n      mstore\n        /* \"#utility.yul\":15970:15974   */\n      0x11\n        /* \"#utility.yul\":15967:15968   */\n      0x04\n        /* \"#utility.yul\":15960:15975   */\n      mstore\n        /* \"#utility.yul\":15994:15998   */\n      0x24\n        /* \"#utility.yul\":15991:15992   */\n      0x00\n        /* \"#utility.yul\":15984:15999   */\n      revert\n        /* \"#utility.yul\":16011:16191   */\n    tag_364:\n        /* \"#utility.yul\":16059:16136   */\n      0x4e487b7100000000000000000000000000000000000000000000000000000000\n        /* \"#utility.yul\":16056:16057   */\n      0x00\n        /* \"#utility.yul\":16049:16137   */\n      mstore\n        /* \"#utility.yul\":16156:16160   */\n      0x22\n        /* \"#utility.yul\":16153:16154   */\n      0x04\n        /* \"#utility.yul\":16146:16161   */\n      mstore\n        /* \"#utility.yul\":16180:16184   */\n      0x24\n        /* \"#utility.yul\":16177:16178   */\n      0x00\n        /* \"#utility.yul\":16170:16185   */\n      revert\n        /* \"#utility.yul\":16320:16437   */\n    tag_186:\n        /* \"#utility.yul\":16429:16430   */\n      0x00\n        /* \"#utility.yul\":16426:16427   */\n      dup1\n        /* \"#utility.yul\":16419:16431   */\n      revert\n        /* \"#utility.yul\":16443:16545   */\n    tag_221:\n        /* \"#utility.yul\":16484:16490   */\n      0x00\n        /* \"#utility.yul\":16535:16537   */\n      0x1f\n        /* \"#utility.yul\":16531:16538   */\n      not\n        /* \"#utility.yul\":16526:16528   */\n      0x1f\n        /* \"#utility.yul\":16519:16524   */\n      dup4\n        /* \"#utility.yul\":16515:16529   */\n      add\n        /* \"#utility.yul\":16511:16539   */\n      and\n        /* \"#utility.yul\":16501:16539   */\n      swap1\n      pop\n        /* \"#utility.yul\":16443:16545   */\n      swap2\n      swap1\n      pop\n      jump\t// out\n        /* \"#utility.yul\":16551:16653   */\n    tag_320:\n        /* \"#utility.yul\":16593:16601   */\n      0x00\n        /* \"#utility.yul\":16640:16645   */\n      dup2\n        /* \"#utility.yul\":16637:16638   */\n      0x01\n        /* \"#utility.yul\":16633:16646   */\n      shr\n        /* \"#utility.yul\":16612:16646   */\n      swap1\n      pop\n        /* \"#utility.yul\":16551:16653   */\n      swap2\n      swap1\n      pop\n      jump\t// out\n        /* \"#utility.yul\":16659:16881   */\n    tag_226:\n        /* \"#utility.yul\":16799:16833   */\n      0x45524332303a207472616e7366657220746f20746865207a65726f2061646472\n        /* \"#utility.yul\":16795:16796   */\n      0x00\n        /* \"#utility.yul\":16787:16793   */\n      dup3\n        /* \"#utility.yul\":16783:16797   */\n      add\n        /* \"#utility.yul\":16776:16834   */\n      mstore\n        /* \"#utility.yul\":16868:16873   */\n      0x6573730000000000000000000000000000000000000000000000000000000000\n        /* \"#utility.yul\":16863:16865   */\n      0x20\n        /* \"#utility.yul\":16855:16861   */\n      dup3\n        /* \"#utility.yul\":16851:16866   */\n      add\n        /* \"#utility.yul\":16844:16874   */\n      mstore\n        /* \"#utility.yul\":16659:16881   */\n      pop\n      jump\t// out\n        /* \"#utility.yul\":16887:17108   */\n    tag_231:\n        /* \"#utility.yul\":17027:17061   */\n      0x45524332303a20617070726f766520746f20746865207a65726f206164647265\n        /* \"#utility.yul\":17023:17024   */\n      0x00\n        /* \"#utility.yul\":17015:17021   */\n      dup3\n        /* \"#utility.yul\":17011:17025   */\n      add\n        /* \"#utility.yul\":17004:17062   */\n      mstore\n        /* \"#utility.yul\":17096:17100   */\n      0x7373000000000000000000000000000000000000000000000000000000000000\n        /* \"#utility.yul\":17091:17093   */\n      0x20\n        /* \"#utility.yul\":17083:17089   */\n      dup3\n        /* \"#utility.yul\":17079:17094   */\n      add\n        /* \"#utility.yul\":17072:17101   */\n      mstore\n        /* \"#utility.yul\":16887:17108   */\n      pop\n      jump\t// out\n        /* \"#utility.yul\":17114:17293   */\n    tag_236:\n        /* \"#utility.yul\":17254:17285   */\n      0x45524332303a20696e73756666696369656e7420616c6c6f77616e6365000000\n        /* \"#utility.yul\":17250:17251   */\n      0x00\n        /* \"#utility.yul\":17242:17248   */\n      dup3\n        /* \"#utility.yul\":17238:17252   */\n      add\n        /* \"#utility.yul\":17231:17286   */\n      mstore\n        /* \"#utility.yul\":17114:17293   */\n      pop\n      jump\t// out\n        /* \"#utility.yul\":17299:17524   */\n    tag_241:\n        /* \"#utility.yul\":17439:17473   */\n      0x45524332303a207472616e7366657220616d6f756e7420657863656564732062\n        /* \"#utility.yul\":17435:17436   */\n      0x00\n        /* \"#utility.yul\":17427:17433   */\n      dup3\n        /* \"#utility.yul\":17423:17437   */\n      add\n        /* \"#utility.yul\":17416:17474   */\n      mstore\n        /* \"#utility.yul\":17508:17516   */\n      0x616c616e63650000000000000000000000000000000000000000000000000000\n        /* \"#utility.yul\":17503:17505   */\n      0x20\n        /* \"#utility.yul\":17495:17501   */\n      dup3\n        /* \"#utility.yul\":17491:17506   */\n      add\n        /* \"#utility.yul\":17484:17517   */\n      mstore\n        /* \"#utility.yul\":17299:17524   */\n      pop\n      jump\t// out\n        /* \"#utility.yul\":17530:17701   */\n    tag_246:\n        /* \"#utility.yul\":17670:17693   */\n      0x416d6f756e742063616e6e6f74206265207a65726f0000000000000000000000\n        /* \"#utility.yul\":17666:17667   */\n      0x00\n        /* \"#utility.yul\":17658:17664   */\n      dup3\n        /* \"#utility.yul\":17654:17668   */\n      add\n        /* \"#utility.yul\":17647:17694   */\n      mstore\n        /* \"#utility.yul\":17530:17701   */\n      pop\n      jump\t// out\n        /* \"#utility.yul\":17707:17931   */\n    tag_251:\n        /* \"#utility.yul\":17847:17881   */\n      0x45524332303a207472616e736665722066726f6d20746865207a65726f206164\n        /* \"#utility.yul\":17843:17844   */\n      0x00\n        /* \"#utility.yul\":17835:17841   */\n      dup3\n        /* \"#utility.yul\":17831:17845   */\n      add\n        /* \"#utility.yul\":17824:17882   */\n      mstore\n        /* \"#utility.yul\":17916:17923   */\n      0x6472657373000000000000000000000000000000000000000000000000000000\n        /* \"#utility.yul\":17911:17913   */\n      0x20\n        /* \"#utility.yul\":17903:17909   */\n      dup3\n        /* \"#utility.yul\":17899:17914   */\n      add\n        /* \"#utility.yul\":17892:17924   */\n      mstore\n        /* \"#utility.yul\":17707:17931   */\n      pop\n      jump\t// out\n        /* \"#utility.yul\":17937:18108   */\n    tag_256:\n        /* \"#utility.yul\":18077:18100   */\n      0x43616e74204d696e74204d6f726520546f6b656e730000000000000000000000\n        /* \"#utility.yul\":18073:18074   */\n      0x00\n        /* \"#utility.yul\":18065:18071   */\n      dup3\n        /* \"#utility.yul\":18061:18075   */\n      add\n        /* \"#utility.yul\":18054:18101   */\n      mstore\n        /* \"#utility.yul\":17937:18108   */\n      pop\n      jump\t// out\n        /* \"#utility.yul\":18114:18337   */\n    tag_261:\n        /* \"#utility.yul\":18254:18288   */\n      0x45524332303a20617070726f76652066726f6d20746865207a65726f20616464\n        /* \"#utility.yul\":18250:18251   */\n      0x00\n        /* \"#utility.yul\":18242:18248   */\n      dup3\n        /* \"#utility.yul\":18238:18252   */\n      add\n        /* \"#utility.yul\":18231:18289   */\n      mstore\n        /* \"#utility.yul\":18323:18329   */\n      0x7265737300000000000000000000000000000000000000000000000000000000\n        /* \"#utility.yul\":18318:18320   */\n      0x20\n        /* \"#utility.yul\":18310:18316   */\n      dup3\n        /* \"#utility.yul\":18306:18321   */\n      add\n        /* \"#utility.yul\":18299:18330   */\n      mstore\n        /* \"#utility.yul\":18114:18337   */\n      pop\n      jump\t// out\n        /* \"#utility.yul\":18343:18567   */\n    tag_266:\n        /* \"#utility.yul\":18483:18517   */\n      0x45524332303a2064656372656173656420616c6c6f77616e63652062656c6f77\n        /* \"#utility.yul\":18479:18480   */\n      0x00\n        /* \"#utility.yul\":18471:18477   */\n      dup3\n        /* \"#utility.yul\":18467:18481   */\n      add\n        /* \"#utility.yul\":18460:18518   */\n      mstore\n        /* \"#utility.yul\":18552:18559   */\n      0x207a65726f000000000000000000000000000000000000000000000000000000\n        /* \"#utility.yul\":18547:18549   */\n      0x20\n        /* \"#utility.yul\":18539:18545   */\n      dup3\n        /* \"#utility.yul\":18535:18550   */\n      add\n        /* \"#utility.yul\":18528:18560   */\n      mstore\n        /* \"#utility.yul\":18343:18567   */\n      pop\n      jump\t// out\n        /* \"#utility.yul\":18573:18695   */\n    tag_178:\n        /* \"#utility.yul\":18646:18670   */\n      tag_382\n        /* \"#utility.yul\":18664:18669   */\n      dup2\n        /* \"#utility.yul\":18646:18670   */\n      tag_347\n      jump\t// in\n    tag_382:\n        /* \"#utility.yul\":18639:18644   */\n      dup2\n        /* \"#utility.yul\":18636:18671   */\n      eq\n        /* \"#utility.yul\":18626:18689   */\n      tag_383\n      jumpi\n        /* \"#utility.yul\":18685:18686   */\n      0x00\n        /* \"#utility.yul\":18682:18683   */\n      dup1\n        /* \"#utility.yul\":18675:18687   */\n      revert\n        /* \"#utility.yul\":18626:18689   */\n    tag_383:\n        /* \"#utility.yul\":18573:18695   */\n      pop\n      jump\t// out\n        /* \"#utility.yul\":18701:18823   */\n    tag_182:\n        /* \"#utility.yul\":18774:18798   */\n      tag_385\n        /* \"#utility.yul\":18792:18797   */\n      dup2\n        /* \"#utility.yul\":18774:18798   */\n      tag_270\n      jump\t// in\n    tag_385:\n        /* \"#utility.yul\":18767:18772   */\n      dup2\n        /* \"#utility.yul\":18764:18799   */\n      eq\n        /* \"#utility.yul\":18754:18817   */\n      tag_386\n      jumpi\n        /* \"#utility.yul\":18813:18814   */\n      0x00\n        /* \"#utility.yul\":18810:18811   */\n      dup1\n        /* \"#utility.yul\":18803:18815   */\n      revert\n        /* \"#utility.yul\":18754:18817   */\n    tag_386:\n        /* \"#utility.yul\":18701:18823   */\n      pop\n      jump\t// out\n\n    auxdata: 0xa26469706673582212201f955659c333ccdbce3efdf84ab1df0e6f87d6e2dee810a0e39f0568e8793f6f64736f6c63430008070033\n}\n",
				"bytecode": {
					"linkReferences": {},
					"object": "608060405262000017612710620000d960201b60201c565b6005553480156200002757600080fd5b50604051620020a9380380620020a983398181016040528101906200004d9190620003bc565b81818160039080519060200190620000679291906200028e565b508060049080519060200190620000809291906200028e565b505050620000aa336200009e640ba43b7400620000d960201b60201c565b6200010d60201b60201c565b620000d130620000c5640ba43b7400620000d960201b60201c565b6200010d60201b60201c565b50506200091f565b6000620000eb6200027b60201b60201c565b600a620000f99190620005e0565b826200010691906200071d565b9050919050565b600073ffffffffffffffffffffffffffffffffffffffff168273ffffffffffffffffffffffffffffffffffffffff16141562000180576040517f08c379a0000000000000000000000000000000000000000000000000000000008152600401620001779062000479565b60405180910390fd5b62000194600083836200028460201b60201c565b8060026000828254620001a8919062000528565b92505081905550806000808473ffffffffffffffffffffffffffffffffffffffff1673ffffffffffffffffffffffffffffffffffffffff168152602001908152602001600020600082825401925050819055508173ffffffffffffffffffffffffffffffffffffffff16600073ffffffffffffffffffffffffffffffffffffffff167fddf252ad1be2c89b69c2b068fc378daa952ba7f163c4a11628f55a4df523b3ef836040516200025b91906200049b565b60405180910390a362000277600083836200028960201b60201c565b5050565b60006012905090565b505050565b505050565b8280546200029c90620007cb565b90600052602060002090601f016020900481019282620002c057600085556200030c565b82601f10620002db57805160ff19168380011785556200030c565b828001600101855582156200030c579182015b828111156200030b578251825591602001919060010190620002ee565b5b5090506200031b91906200031f565b5090565b5b808211156200033a57600081600090555060010162000320565b5090565b6000620003556200034f84620004e1565b620004b8565b905082815260208101848484011115620003745762000373620008c9565b5b6200038184828562000795565b509392505050565b600082601f830112620003a157620003a0620008c4565b5b8151620003b38482602086016200033e565b91505092915050565b60008060408385031215620003d657620003d5620008d3565b5b600083015167ffffffffffffffff811115620003f757620003f6620008ce565b5b620004058582860162000389565b925050602083015167ffffffffffffffff811115620004295762000428620008ce565b5b620004378582860162000389565b9150509250929050565b600062000450601f8362000517565b91506200045d82620008f6565b602082019050919050565b62000473816200077e565b82525050565b60006020820190508181036000830152620004948162000441565b9050919050565b6000602082019050620004b2600083018462000468565b92915050565b6000620004c4620004d7565b9050620004d2828262000801565b919050565b6000604051905090565b600067ffffffffffffffff821115620004ff57620004fe62000895565b5b6200050a82620008d8565b9050602081019050919050565b600082825260208201905092915050565b600062000535826200077e565b915062000542836200077e565b9250827fffffffffffffffffffffffffffffffffffffffffffffffffffffffffffffffff038211156200057a576200057962000837565b5b828201905092915050565b6000808291508390505b6001851115620005d757808604811115620005af57620005ae62000837565b5b6001851615620005bf5780820291505b8081029050620005cf85620008e9565b94506200058f565b94509492505050565b6000620005ed826200077e565b9150620005fa8362000788565b9250620006297fffffffffffffffffffffffffffffffffffffffffffffffffffffffffffffffff848462000631565b905092915050565b60008262000643576001905062000716565b8162000653576000905062000716565b81600181146200066c57600281146200067757620006ad565b600191505062000716565b60ff8411156200068c576200068b62000837565b5b8360020a915084821115620006a657620006a562000837565b5b5062000716565b5060208310610133831016604e8410600b8410161715620006e75782820a905083811115620006e157620006e062000837565b5b62000716565b620006f6848484600162000585565b9250905081840481111562000710576200070f62000837565b5b81810290505b9392505050565b60006200072a826200077e565b915062000737836200077e565b9250817fffffffffffffffffffffffffffffffffffffffffffffffffffffffffffffffff048311821515161562000773576200077262000837565b5b828202905092915050565b6000819050919050565b600060ff82169050919050565b60005b83811015620007b557808201518184015260208101905062000798565b83811115620007c5576000848401525b50505050565b60006002820490506001821680620007e457607f821691505b60208210811415620007fb57620007fa62000866565b5b50919050565b6200080c82620008d8565b810181811067ffffffffffffffff821117156200082e576200082d62000895565b5b80604052505050565b7f4e487b7100000000000000000000000000000000000000000000000000000000600052601160045260246000fd5b7f4e487b7100000000000000000000000000000000000000000000000000000000600052602260045260246000fd5b7f4e487b7100000000000000000000000000000000000000000000000000000000600052604160045260246000fd5b600080fd5b600080fd5b600080fd5b600080fd5b6000601f19601f8301169050919050565b60008160011c9050919050565b7f45524332303a206d696e7420746f20746865207a65726f206164647265737300600082015250565b61177a806200092f6000396000f3fe608060405234801561001057600080fd5b50600436106100ea5760003560e01c8063579158971161008c57806395d89b411161006657806395d89b4114610285578063a457c2d7146102a3578063a9059cbb146102d3578063dd62ed3e14610303576100ea565b8063579158971461020957806364614c711461022557806370a0823114610255576100ea565b806323b872dd116100c857806323b872dd1461015b578063313ce5671461018b57806339509351146101a957806352a9039c146101d9576100ea565b806306fdde03146100ef578063095ea7b31461010d57806318160ddd1461013d575b600080fd5b6100f7610333565b6040516101049190610fd1565b60405180910390f35b61012760048036038101906101229190610da8565b6103c5565b6040516101349190610fb6565b60405180910390f35b6101456103e8565b6040516101529190611113565b60405180910390f35b61017560048036038101906101709190610d55565b6103f2565b6040516101829190610fb6565b60405180910390f35b610193610421565b6040516101a0919061112e565b60405180910390f35b6101c360048036038101906101be9190610da8565b61042a565b6040516101d09190610fb6565b60405180910390f35b6101f360048036038101906101ee9190610ce8565b610461565b6040516102009190611113565b60405180910390f35b610223600480360381019061021e9190610de8565b610479565b005b61023f600480360381019061023a9190610de8565b6105ba565b60405161024c9190611113565b60405180910390f35b61026f600480360381019061026a9190610ce8565b6105e2565b60405161027c9190611113565b60405180910390f35b61028d61062a565b60405161029a9190610fd1565b60405180910390f35b6102bd60048036038101906102b89190610da8565b6106bc565b6040516102ca9190610fb6565b60405180910390f35b6102ed60048036038101906102e89190610da8565b610733565b6040516102fa9190610fb6565b60405180910390f35b61031d60048036038101906103189190610d15565b610756565b60405161032a9190611113565b60405180910390f35b6060600380546103429061140e565b80601f016020809104026020016040519081016040528092919081815260200182805461036e9061140e565b80156103bb5780601f10610390576101008083540402835291602001916103bb565b820191906000526020600020905b81548152906001019060200180831161039e57829003601f168201915b5050505050905090565b6000806103d06107dd565b90506103dd8185856107e5565b600191505092915050565b6000600254905090565b6000806103fd6107dd565b905061040a8582856109b0565b610415858585610a3c565b60019150509392505050565b60006012905090565b6000806104356107dd565b90506104568185856104478589610756565b6104519190611165565b6107e5565b600191505092915050565b60066020528060005260406000206000915090505481565b600081116104bc576040517f08c379a00000000000000000000000000000000000000000000000000000000081526004016104b390611073565b60405180910390fd5b60055481600660003373ffffffffffffffffffffffffffffffffffffffff1673ffffffffffffffffffffffffffffffffffffffff1681526020019081526020016000205461050a9190611165565b1061054a576040517f08c379a0000000000000000000000000000000000000000000000000000000008152600401610541906110b3565b60405180910390fd5b80600660003373ffffffffffffffffffffffffffffffffffffffff1673ffffffffffffffffffffffffffffffffffffffff16815260200190815260200160002060008282546105999190611165565b925050819055506105ab3033836107e5565b6105b63033836103f2565b5050565b60006105c4610421565b600a6105d0919061120e565b826105db919061132c565b9050919050565b60008060008373ffffffffffffffffffffffffffffffffffffffff1673ffffffffffffffffffffffffffffffffffffffff168152602001908152602001600020549050919050565b6060600480546106399061140e565b80601f01602080910402602001604051908101604052809291908181526020018280546106659061140e565b80156106b25780601f10610687576101008083540402835291602001916106b2565b820191906000526020600020905b81548152906001019060200180831161069557829003601f168201915b5050505050905090565b6000806106c76107dd565b905060006106d58286610756565b90508381101561071a576040517f08c379a0000000000000000000000000000000000000000000000000000000008152600401610711906110f3565b60405180910390fd5b61072782868684036107e5565b60019250505092915050565b60008061073e6107dd565b905061074b818585610a3c565b600191505092915050565b6000600160008473ffffffffffffffffffffffffffffffffffffffff1673ffffffffffffffffffffffffffffffffffffffff16815260200190815260200160002060008373ffffffffffffffffffffffffffffffffffffffff1673ffffffffffffffffffffffffffffffffffffffff16815260200190815260200160002054905092915050565b600033905090565b600073ffffffffffffffffffffffffffffffffffffffff168373ffffffffffffffffffffffffffffffffffffffff161415610855576040517f08c379a000000000000000000000000000000000000000000000000000000000815260040161084c906110d3565b60405180910390fd5b600073ffffffffffffffffffffffffffffffffffffffff168273ffffffffffffffffffffffffffffffffffffffff1614156108c5576040517f08c379a00000000000000000000000000000000000000000000000000000000081526004016108bc90611013565b60405180910390fd5b80600160008573ffffffffffffffffffffffffffffffffffffffff1673ffffffffffffffffffffffffffffffffffffffff16815260200190815260200160002060008473ffffffffffffffffffffffffffffffffffffffff1673ffffffffffffffffffffffffffffffffffffffff168152602001908152602001600020819055508173ffffffffffffffffffffffffffffffffffffffff168373ffffffffffffffffffffffffffffffffffffffff167f8c5be1e5ebec7d5bd14f71427d1e84f3dd0314c0f7b2291e5b200ac8c7c3b925836040516109a39190611113565b60405180910390a3505050565b60006109bc8484610756565b90507fffffffffffffffffffffffffffffffffffffffffffffffffffffffffffffffff8114610a365781811015610a28576040517f08c379a0000000000000000000000000000000000000000000000000000000008152600401610a1f90611033565b60405180910390fd5b610a3584848484036107e5565b5b50505050565b600073ffffffffffffffffffffffffffffffffffffffff168373ffffffffffffffffffffffffffffffffffffffff161415610aac576040517f08c379a0000000000000000000000000000000000000000000000000000000008152600401610aa390611093565b60405180910390fd5b600073ffffffffffffffffffffffffffffffffffffffff168273ffffffffffffffffffffffffffffffffffffffff161415610b1c576040517f08c379a0000000000000000000000000000000000000000000000000000000008152600401610b1390610ff3565b60405180910390fd5b610b27838383610cb4565b60008060008573ffffffffffffffffffffffffffffffffffffffff1673ffffffffffffffffffffffffffffffffffffffff16815260200190815260200160002054905081811015610bad576040517f08c379a0000000000000000000000000000000000000000000000000000000008152600401610ba490611053565b60405180910390fd5b8181036000808673ffffffffffffffffffffffffffffffffffffffff1673ffffffffffffffffffffffffffffffffffffffff16815260200190815260200160002081905550816000808573ffffffffffffffffffffffffffffffffffffffff1673ffffffffffffffffffffffffffffffffffffffff168152602001908152602001600020600082825401925050819055508273ffffffffffffffffffffffffffffffffffffffff168473ffffffffffffffffffffffffffffffffffffffff167fddf252ad1be2c89b69c2b068fc378daa952ba7f163c4a11628f55a4df523b3ef84604051610c9b9190611113565b60405180910390a3610cae848484610cb9565b50505050565b505050565b505050565b600081359050610ccd81611716565b92915050565b600081359050610ce28161172d565b92915050565b600060208284031215610cfe57610cfd61149e565b5b6000610d0c84828501610cbe565b91505092915050565b60008060408385031215610d2c57610d2b61149e565b5b6000610d3a85828601610cbe565b9250506020610d4b85828601610cbe565b9150509250929050565b600080600060608486031215610d6e57610d6d61149e565b5b6000610d7c86828701610cbe565b9350506020610d8d86828701610cbe565b9250506040610d9e86828701610cd3565b9150509250925092565b60008060408385031215610dbf57610dbe61149e565b5b6000610dcd85828601610cbe565b9250506020610dde85828601610cd3565b9150509250929050565b600060208284031215610dfe57610dfd61149e565b5b6000610e0c84828501610cd3565b91505092915050565b610e1e81611398565b82525050565b6000610e2f82611149565b610e398185611154565b9350610e498185602086016113db565b610e52816114a3565b840191505092915050565b6000610e6a602383611154565b9150610e75826114c1565b604082019050919050565b6000610e8d602283611154565b9150610e9882611510565b604082019050919050565b6000610eb0601d83611154565b9150610ebb8261155f565b602082019050919050565b6000610ed3602683611154565b9150610ede82611588565b604082019050919050565b6000610ef6601583611154565b9150610f01826115d7565b602082019050919050565b6000610f19602583611154565b9150610f2482611600565b604082019050919050565b6000610f3c601583611154565b9150610f478261164f565b602082019050919050565b6000610f5f602483611154565b9150610f6a82611678565b604082019050919050565b6000610f82602583611154565b9150610f8d826116c7565b604082019050919050565b610fa1816113c4565b82525050565b610fb0816113ce565b82525050565b6000602082019050610fcb6000830184610e15565b92915050565b60006020820190508181036000830152610feb8184610e24565b905092915050565b6000602082019050818103600083015261100c81610e5d565b9050919050565b6000602082019050818103600083015261102c81610e80565b9050919050565b6000602082019050818103600083015261104c81610ea3565b9050919050565b6000602082019050818103600083015261106c81610ec6565b9050919050565b6000602082019050818103600083015261108c81610ee9565b9050919050565b600060208201905081810360008301526110ac81610f0c565b9050919050565b600060208201905081810360008301526110cc81610f2f565b9050919050565b600060208201905081810360008301526110ec81610f52565b9050919050565b6000602082019050818103600083015261110c81610f75565b9050919050565b60006020820190506111286000830184610f98565b92915050565b60006020820190506111436000830184610fa7565b92915050565b600081519050919050565b600082825260208201905092915050565b6000611170826113c4565b915061117b836113c4565b9250827fffffffffffffffffffffffffffffffffffffffffffffffffffffffffffffffff038211156111b0576111af611440565b5b828201905092915050565b6000808291508390505b6001851115611205578086048111156111e1576111e0611440565b5b60018516156111f05780820291505b80810290506111fe856114b4565b94506111c5565b94509492505050565b6000611219826113c4565b9150611224836113ce565b92506112517fffffffffffffffffffffffffffffffffffffffffffffffffffffffffffffffff8484611259565b905092915050565b6000826112695760019050611325565b816112775760009050611325565b816001811461128d5760028114611297576112c6565b6001915050611325565b60ff8411156112a9576112a8611440565b5b8360020a9150848211156112c0576112bf611440565b5b50611325565b5060208310610133831016604e8410600b84101617156112fb5782820a9050838111156112f6576112f5611440565b5b611325565b61130884848460016111bb565b9250905081840481111561131f5761131e611440565b5b81810290505b9392505050565b6000611337826113c4565b9150611342836113c4565b9250817fffffffffffffffffffffffffffffffffffffffffffffffffffffffffffffffff048311821515161561137b5761137a611440565b5b828202905092915050565b6000611391826113a4565b9050919050565b60008115159050919050565b600073ffffffffffffffffffffffffffffffffffffffff82169050919050565b6000819050919050565b600060ff82169050919050565b60005b838110156113f95780820151818401526020810190506113de565b83811115611408576000848401525b50505050565b6000600282049050600182168061142657607f821691505b6020821081141561143a5761143961146f565b5b50919050565b7f4e487b7100000000000000000000000000000000000000000000000000000000600052601160045260246000fd5b7f4e487b7100000000000000000000000000000000000000000000000000000000600052602260045260246000fd5b600080fd5b6000601f19601f8301169050919050565b60008160011c9050919050565b7f45524332303a207472616e7366657220746f20746865207a65726f206164647260008201527f6573730000000000000000000000000000000000000000000000000000000000602082015250565b7f45524332303a20617070726f766520746f20746865207a65726f20616464726560008201527f7373000000000000000000000000000000000000000000000000000000000000602082015250565b7f45524332303a20696e73756666696369656e7420616c6c6f77616e6365000000600082015250565b7f45524332303a207472616e7366657220616d6f756e742065786365656473206260008201527f616c616e63650000000000000000000000000000000000000000000000000000602082015250565b7f416d6f756e742063616e6e6f74206265207a65726f0000000000000000000000600082015250565b7f45524332303a207472616e736665722066726f6d20746865207a65726f20616460008201527f6472657373000000000000000000000000000000000000000000000000000000602082015250565b7f43616e74204d696e74204d6f726520546f6b656e730000000000000000000000600082015250565b7f45524332303a20617070726f76652066726f6d20746865207a65726f2061646460008201527f7265737300000000000000000000000000000000000000000000000000000000602082015250565b7f45524332303a2064656372656173656420616c6c6f77616e63652062656c6f7760008201527f207a65726f000000000000000000000000000000000000000000000000000000602082015250565b61171f81611386565b811461172a57600080fd5b50565b611736816113c4565b811461174157600080fd5b5056fea26469706673582212201f955659c333ccdbce3efdf84ab1df0e6f87d6e2dee810a0e39f0568e8793f6f64736f6c63430008070033",
					"opcodes": "PUSH1 0x80 PUSH1 0x40 MSTORE PUSH3 0x17 PUSH2 0x2710 PUSH3 0xD9 PUSH1 0x20 SHL PUSH1 0x20 SHR JUMP JUMPDEST PUSH1 0x5 SSTORE CALLVALUE DUP1 ISZERO PUSH3 0x27 JUMPI PUSH1 0x0 DUP1 REVERT JUMPDEST POP PUSH1 0x40 MLOAD PUSH3 0x20A9 CODESIZE SUB DUP1 PUSH3 0x20A9 DUP4 CODECOPY DUP2 DUP2 ADD PUSH1 0x40 MSTORE DUP2 ADD SWAP1 PUSH3 0x4D SWAP2 SWAP1 PUSH3 0x3BC JUMP JUMPDEST DUP2 DUP2 DUP2 PUSH1 0x3 SWAP1 DUP1 MLOAD SWAP1 PUSH1 0x20 ADD SWAP1 PUSH3 0x67 SWAP3 SWAP2 SWAP1 PUSH3 0x28E JUMP JUMPDEST POP DUP1 PUSH1 0x4 SWAP1 DUP1 MLOAD SWAP1 PUSH1 0x20 ADD SWAP1 PUSH3 0x80 SWAP3 SWAP2 SWAP1 PUSH3 0x28E JUMP JUMPDEST POP POP POP PUSH3 0xAA CALLER PUSH3 0x9E PUSH5 0xBA43B7400 PUSH3 0xD9 PUSH1 0x20 SHL PUSH1 0x20 SHR JUMP JUMPDEST PUSH3 0x10D PUSH1 0x20 SHL PUSH1 0x20 SHR JUMP JUMPDEST PUSH3 0xD1 ADDRESS PUSH3 0xC5 PUSH5 0xBA43B7400 PUSH3 0xD9 PUSH1 0x20 SHL PUSH1 0x20 SHR JUMP JUMPDEST PUSH3 0x10D PUSH1 0x20 SHL PUSH1 0x20 SHR JUMP JUMPDEST POP POP PUSH3 0x91F JUMP JUMPDEST PUSH1 0x0 PUSH3 0xEB PUSH3 0x27B PUSH1 0x20 SHL PUSH1 0x20 SHR JUMP JUMPDEST PUSH1 0xA PUSH3 0xF9 SWAP2 SWAP1 PUSH3 0x5E0 JUMP JUMPDEST DUP3 PUSH3 0x106 SWAP2 SWAP1 PUSH3 0x71D JUMP JUMPDEST SWAP1 POP SWAP2 SWAP1 POP JUMP JUMPDEST PUSH1 0x0 PUSH20 0xFFFFFFFFFFFFFFFFFFFFFFFFFFFFFFFFFFFFFFFF AND DUP3 PUSH20 0xFFFFFFFFFFFFFFFFFFFFFFFFFFFFFFFFFFFFFFFF AND EQ ISZERO PUSH3 0x180 JUMPI PUSH1 0x40 MLOAD PUSH32 0x8C379A000000000000000000000000000000000000000000000000000000000 DUP2 MSTORE PUSH1 0x4 ADD PUSH3 0x177 SWAP1 PUSH3 0x479 JUMP JUMPDEST PUSH1 0x40 MLOAD DUP1 SWAP2 SUB SWAP1 REVERT JUMPDEST PUSH3 0x194 PUSH1 0x0 DUP4 DUP4 PUSH3 0x284 PUSH1 0x20 SHL PUSH1 0x20 SHR JUMP JUMPDEST DUP1 PUSH1 0x2 PUSH1 0x0 DUP3 DUP3 SLOAD PUSH3 0x1A8 SWAP2 SWAP1 PUSH3 0x528 JUMP JUMPDEST SWAP3 POP POP DUP2 SWAP1 SSTORE POP DUP1 PUSH1 0x0 DUP1 DUP5 PUSH20 0xFFFFFFFFFFFFFFFFFFFFFFFFFFFFFFFFFFFFFFFF AND PUSH20 0xFFFFFFFFFFFFFFFFFFFFFFFFFFFFFFFFFFFFFFFF AND DUP2 MSTORE PUSH1 0x20 ADD SWAP1 DUP2 MSTORE PUSH1 0x20 ADD PUSH1 0x0 KECCAK256 PUSH1 0x0 DUP3 DUP3 SLOAD ADD SWAP3 POP POP DUP2 SWAP1 SSTORE POP DUP2 PUSH20 0xFFFFFFFFFFFFFFFFFFFFFFFFFFFFFFFFFFFFFFFF AND PUSH1 0x0 PUSH20 0xFFFFFFFFFFFFFFFFFFFFFFFFFFFFFFFFFFFFFFFF AND PUSH32 0xDDF252AD1BE2C89B69C2B068FC378DAA952BA7F163C4A11628F55A4DF523B3EF DUP4 PUSH1 0x40 MLOAD PUSH3 0x25B SWAP2 SWAP1 PUSH3 0x49B JUMP JUMPDEST PUSH1 0x40 MLOAD DUP1 SWAP2 SUB SWAP1 LOG3 PUSH3 0x277 PUSH1 0x0 DUP4 DUP4 PUSH3 0x289 PUSH1 0x20 SHL PUSH1 0x20 SHR JUMP JUMPDEST POP POP JUMP JUMPDEST PUSH1 0x0 PUSH1 0x12 SWAP1 POP SWAP1 JUMP JUMPDEST POP POP POP JUMP JUMPDEST POP POP POP JUMP JUMPDEST DUP3 DUP1 SLOAD PUSH3 0x29C SWAP1 PUSH3 0x7CB JUMP JUMPDEST SWAP1 PUSH1 0x0 MSTORE PUSH1 0x20 PUSH1 0x0 KECCAK256 SWAP1 PUSH1 0x1F ADD PUSH1 0x20 SWAP1 DIV DUP2 ADD SWAP3 DUP3 PUSH3 0x2C0 JUMPI PUSH1 0x0 DUP6 SSTORE PUSH3 0x30C JUMP JUMPDEST DUP3 PUSH1 0x1F LT PUSH3 0x2DB JUMPI DUP1 MLOAD PUSH1 0xFF NOT AND DUP4 DUP1 ADD OR DUP6 SSTORE PUSH3 0x30C JUMP JUMPDEST DUP3 DUP1 ADD PUSH1 0x1 ADD DUP6 SSTORE DUP3 ISZERO PUSH3 0x30C JUMPI SWAP2 DUP3 ADD JUMPDEST DUP3 DUP2 GT ISZERO PUSH3 0x30B JUMPI DUP3 MLOAD DUP3 SSTORE SWAP2 PUSH1 0x20 ADD SWAP2 SWAP1 PUSH1 0x1 ADD SWAP1 PUSH3 0x2EE JUMP JUMPDEST JUMPDEST POP SWAP1 POP PUSH3 0x31B SWAP2 SWAP1 PUSH3 0x31F JUMP JUMPDEST POP SWAP1 JUMP JUMPDEST JUMPDEST DUP1 DUP3 GT ISZERO PUSH3 0x33A JUMPI PUSH1 0x0 DUP2 PUSH1 0x0 SWAP1 SSTORE POP PUSH1 0x1 ADD PUSH3 0x320 JUMP JUMPDEST POP SWAP1 JUMP JUMPDEST PUSH1 0x0 PUSH3 0x355 PUSH3 0x34F DUP5 PUSH3 0x4E1 JUMP JUMPDEST PUSH3 0x4B8 JUMP JUMPDEST SWAP1 POP DUP3 DUP2 MSTORE PUSH1 0x20 DUP2 ADD DUP5 DUP5 DUP5 ADD GT ISZERO PUSH3 0x374 JUMPI PUSH3 0x373 PUSH3 0x8C9 JUMP JUMPDEST JUMPDEST PUSH3 0x381 DUP5 DUP3 DUP6 PUSH3 0x795 JUMP JUMPDEST POP SWAP4 SWAP3 POP POP POP JUMP JUMPDEST PUSH1 0x0 DUP3 PUSH1 0x1F DUP4 ADD SLT PUSH3 0x3A1 JUMPI PUSH3 0x3A0 PUSH3 0x8C4 JUMP JUMPDEST JUMPDEST DUP2 MLOAD PUSH3 0x3B3 DUP5 DUP3 PUSH1 0x20 DUP7 ADD PUSH3 0x33E JUMP JUMPDEST SWAP2 POP POP SWAP3 SWAP2 POP POP JUMP JUMPDEST PUSH1 0x0 DUP1 PUSH1 0x40 DUP4 DUP6 SUB SLT ISZERO PUSH3 0x3D6 JUMPI PUSH3 0x3D5 PUSH3 0x8D3 JUMP JUMPDEST JUMPDEST PUSH1 0x0 DUP4 ADD MLOAD PUSH8 0xFFFFFFFFFFFFFFFF DUP2 GT ISZERO PUSH3 0x3F7 JUMPI PUSH3 0x3F6 PUSH3 0x8CE JUMP JUMPDEST JUMPDEST PUSH3 0x405 DUP6 DUP3 DUP7 ADD PUSH3 0x389 JUMP JUMPDEST SWAP3 POP POP PUSH1 0x20 DUP4 ADD MLOAD PUSH8 0xFFFFFFFFFFFFFFFF DUP2 GT ISZERO PUSH3 0x429 JUMPI PUSH3 0x428 PUSH3 0x8CE JUMP JUMPDEST JUMPDEST PUSH3 0x437 DUP6 DUP3 DUP7 ADD PUSH3 0x389 JUMP JUMPDEST SWAP2 POP POP SWAP3 POP SWAP3 SWAP1 POP JUMP JUMPDEST PUSH1 0x0 PUSH3 0x450 PUSH1 0x1F DUP4 PUSH3 0x517 JUMP JUMPDEST SWAP2 POP PUSH3 0x45D DUP3 PUSH3 0x8F6 JUMP JUMPDEST PUSH1 0x20 DUP3 ADD SWAP1 POP SWAP2 SWAP1 POP JUMP JUMPDEST PUSH3 0x473 DUP2 PUSH3 0x77E JUMP JUMPDEST DUP3 MSTORE POP POP JUMP JUMPDEST PUSH1 0x0 PUSH1 0x20 DUP3 ADD SWAP1 POP DUP2 DUP2 SUB PUSH1 0x0 DUP4 ADD MSTORE PUSH3 0x494 DUP2 PUSH3 0x441 JUMP JUMPDEST SWAP1 POP SWAP2 SWAP1 POP JUMP JUMPDEST PUSH1 0x0 PUSH1 0x20 DUP3 ADD SWAP1 POP PUSH3 0x4B2 PUSH1 0x0 DUP4 ADD DUP5 PUSH3 0x468 JUMP JUMPDEST SWAP3 SWAP2 POP POP JUMP JUMPDEST PUSH1 0x0 PUSH3 0x4C4 PUSH3 0x4D7 JUMP JUMPDEST SWAP1 POP PUSH3 0x4D2 DUP3 DUP3 PUSH3 0x801 JUMP JUMPDEST SWAP2 SWAP1 POP JUMP JUMPDEST PUSH1 0x0 PUSH1 0x40 MLOAD SWAP1 POP SWAP1 JUMP JUMPDEST PUSH1 0x0 PUSH8 0xFFFFFFFFFFFFFFFF DUP3 GT ISZERO PUSH3 0x4FF JUMPI PUSH3 0x4FE PUSH3 0x895 JUMP JUMPDEST JUMPDEST PUSH3 0x50A DUP3 PUSH3 0x8D8 JUMP JUMPDEST SWAP1 POP PUSH1 0x20 DUP2 ADD SWAP1 POP SWAP2 SWAP1 POP JUMP JUMPDEST PUSH1 0x0 DUP3 DUP3 MSTORE PUSH1 0x20 DUP3 ADD SWAP1 POP SWAP3 SWAP2 POP POP JUMP JUMPDEST PUSH1 0x0 PUSH3 0x535 DUP3 PUSH3 0x77E JUMP JUMPDEST SWAP2 POP PUSH3 0x542 DUP4 PUSH3 0x77E JUMP JUMPDEST SWAP3 POP DUP3 PUSH32 0xFFFFFFFFFFFFFFFFFFFFFFFFFFFFFFFFFFFFFFFFFFFFFFFFFFFFFFFFFFFFFFFF SUB DUP3 GT ISZERO PUSH3 0x57A JUMPI PUSH3 0x579 PUSH3 0x837 JUMP JUMPDEST JUMPDEST DUP3 DUP3 ADD SWAP1 POP SWAP3 SWAP2 POP POP JUMP JUMPDEST PUSH1 0x0 DUP1 DUP3 SWAP2 POP DUP4 SWAP1 POP JUMPDEST PUSH1 0x1 DUP6 GT ISZERO PUSH3 0x5D7 JUMPI DUP1 DUP7 DIV DUP2 GT ISZERO PUSH3 0x5AF JUMPI PUSH3 0x5AE PUSH3 0x837 JUMP JUMPDEST JUMPDEST PUSH1 0x1 DUP6 AND ISZERO PUSH3 0x5BF JUMPI DUP1 DUP3 MUL SWAP2 POP JUMPDEST DUP1 DUP2 MUL SWAP1 POP PUSH3 0x5CF DUP6 PUSH3 0x8E9 JUMP JUMPDEST SWAP5 POP PUSH3 0x58F JUMP JUMPDEST SWAP5 POP SWAP5 SWAP3 POP POP POP JUMP JUMPDEST PUSH1 0x0 PUSH3 0x5ED DUP3 PUSH3 0x77E JUMP JUMPDEST SWAP2 POP PUSH3 0x5FA DUP4 PUSH3 0x788 JUMP JUMPDEST SWAP3 POP PUSH3 0x629 PUSH32 0xFFFFFFFFFFFFFFFFFFFFFFFFFFFFFFFFFFFFFFFFFFFFFFFFFFFFFFFFFFFFFFFF DUP5 DUP5 PUSH3 0x631 JUMP JUMPDEST SWAP1 POP SWAP3 SWAP2 POP POP JUMP JUMPDEST PUSH1 0x0 DUP3 PUSH3 0x643 JUMPI PUSH1 0x1 SWAP1 POP PUSH3 0x716 JUMP JUMPDEST DUP2 PUSH3 0x653 JUMPI PUSH1 0x0 SWAP1 POP PUSH3 0x716 JUMP JUMPDEST DUP2 PUSH1 0x1 DUP2 EQ PUSH3 0x66C JUMPI PUSH1 0x2 DUP2 EQ PUSH3 0x677 JUMPI PUSH3 0x6AD JUMP JUMPDEST PUSH1 0x1 SWAP2 POP POP PUSH3 0x716 JUMP JUMPDEST PUSH1 0xFF DUP5 GT ISZERO PUSH3 0x68C JUMPI PUSH3 0x68B PUSH3 0x837 JUMP JUMPDEST JUMPDEST DUP4 PUSH1 0x2 EXP SWAP2 POP DUP5 DUP3 GT ISZERO PUSH3 0x6A6 JUMPI PUSH3 0x6A5 PUSH3 0x837 JUMP JUMPDEST JUMPDEST POP PUSH3 0x716 JUMP JUMPDEST POP PUSH1 0x20 DUP4 LT PUSH2 0x133 DUP4 LT AND PUSH1 0x4E DUP5 LT PUSH1 0xB DUP5 LT AND OR ISZERO PUSH3 0x6E7 JUMPI DUP3 DUP3 EXP SWAP1 POP DUP4 DUP2 GT ISZERO PUSH3 0x6E1 JUMPI PUSH3 0x6E0 PUSH3 0x837 JUMP JUMPDEST JUMPDEST PUSH3 0x716 JUMP JUMPDEST PUSH3 0x6F6 DUP5 DUP5 DUP5 PUSH1 0x1 PUSH3 0x585 JUMP JUMPDEST SWAP3 POP SWAP1 POP DUP2 DUP5 DIV DUP2 GT ISZERO PUSH3 0x710 JUMPI PUSH3 0x70F PUSH3 0x837 JUMP JUMPDEST JUMPDEST DUP2 DUP2 MUL SWAP1 POP JUMPDEST SWAP4 SWAP3 POP POP POP JUMP JUMPDEST PUSH1 0x0 PUSH3 0x72A DUP3 PUSH3 0x77E JUMP JUMPDEST SWAP2 POP PUSH3 0x737 DUP4 PUSH3 0x77E JUMP JUMPDEST SWAP3 POP DUP2 PUSH32 0xFFFFFFFFFFFFFFFFFFFFFFFFFFFFFFFFFFFFFFFFFFFFFFFFFFFFFFFFFFFFFFFF DIV DUP4 GT DUP3 ISZERO ISZERO AND ISZERO PUSH3 0x773 JUMPI PUSH3 0x772 PUSH3 0x837 JUMP JUMPDEST JUMPDEST DUP3 DUP3 MUL SWAP1 POP SWAP3 SWAP2 POP POP JUMP JUMPDEST PUSH1 0x0 DUP2 SWAP1 POP SWAP2 SWAP1 POP JUMP JUMPDEST PUSH1 0x0 PUSH1 0xFF DUP3 AND SWAP1 POP SWAP2 SWAP1 POP JUMP JUMPDEST PUSH1 0x0 JUMPDEST DUP4 DUP2 LT ISZERO PUSH3 0x7B5 JUMPI DUP1 DUP3 ADD MLOAD DUP2 DUP5 ADD MSTORE PUSH1 0x20 DUP2 ADD SWAP1 POP PUSH3 0x798 JUMP JUMPDEST DUP4 DUP2 GT ISZERO PUSH3 0x7C5 JUMPI PUSH1 0x0 DUP5 DUP5 ADD MSTORE JUMPDEST POP POP POP POP JUMP JUMPDEST PUSH1 0x0 PUSH1 0x2 DUP3 DIV SWAP1 POP PUSH1 0x1 DUP3 AND DUP1 PUSH3 0x7E4 JUMPI PUSH1 0x7F DUP3 AND SWAP2 POP JUMPDEST PUSH1 0x20 DUP3 LT DUP2 EQ ISZERO PUSH3 0x7FB JUMPI PUSH3 0x7FA PUSH3 0x866 JUMP JUMPDEST JUMPDEST POP SWAP2 SWAP1 POP JUMP JUMPDEST PUSH3 0x80C DUP3 PUSH3 0x8D8 JUMP JUMPDEST DUP2 ADD DUP2 DUP2 LT PUSH8 0xFFFFFFFFFFFFFFFF DUP3 GT OR ISZERO PUSH3 0x82E JUMPI PUSH3 0x82D PUSH3 0x895 JUMP JUMPDEST JUMPDEST DUP1 PUSH1 0x40 MSTORE POP POP POP JUMP JUMPDEST PUSH32 0x4E487B7100000000000000000000000000000000000000000000000000000000 PUSH1 0x0 MSTORE PUSH1 0x11 PUSH1 0x4 MSTORE PUSH1 0x24 PUSH1 0x0 REVERT JUMPDEST PUSH32 0x4E487B7100000000000000000000000000000000000000000000000000000000 PUSH1 0x0 MSTORE PUSH1 0x22 PUSH1 0x4 MSTORE PUSH1 0x24 PUSH1 0x0 REVERT JUMPDEST PUSH32 0x4E487B7100000000000000000000000000000000000000000000000000000000 PUSH1 0x0 MSTORE PUSH1 0x41 PUSH1 0x4 MSTORE PUSH1 0x24 PUSH1 0x0 REVERT JUMPDEST PUSH1 0x0 DUP1 REVERT JUMPDEST PUSH1 0x0 DUP1 REVERT JUMPDEST PUSH1 0x0 DUP1 REVERT JUMPDEST PUSH1 0x0 DUP1 REVERT JUMPDEST PUSH1 0x0 PUSH1 0x1F NOT PUSH1 0x1F DUP4 ADD AND SWAP1 POP SWAP2 SWAP1 POP JUMP JUMPDEST PUSH1 0x0 DUP2 PUSH1 0x1 SHR SWAP1 POP SWAP2 SWAP1 POP JUMP JUMPDEST PUSH32 0x45524332303A206D696E7420746F20746865207A65726F206164647265737300 PUSH1 0x0 DUP3 ADD MSTORE POP JUMP JUMPDEST PUSH2 0x177A DUP1 PUSH3 0x92F PUSH1 0x0 CODECOPY PUSH1 0x0 RETURN INVALID PUSH1 0x80 PUSH1 0x40 MSTORE CALLVALUE DUP1 ISZERO PUSH2 0x10 JUMPI PUSH1 0x0 DUP1 REVERT JUMPDEST POP PUSH1 0x4 CALLDATASIZE LT PUSH2 0xEA JUMPI PUSH1 0x0 CALLDATALOAD PUSH1 0xE0 SHR DUP1 PUSH4 0x57915897 GT PUSH2 0x8C JUMPI DUP1 PUSH4 0x95D89B41 GT PUSH2 0x66 JUMPI DUP1 PUSH4 0x95D89B41 EQ PUSH2 0x285 JUMPI DUP1 PUSH4 0xA457C2D7 EQ PUSH2 0x2A3 JUMPI DUP1 PUSH4 0xA9059CBB EQ PUSH2 0x2D3 JUMPI DUP1 PUSH4 0xDD62ED3E EQ PUSH2 0x303 JUMPI PUSH2 0xEA JUMP JUMPDEST DUP1 PUSH4 0x57915897 EQ PUSH2 0x209 JUMPI DUP1 PUSH4 0x64614C71 EQ PUSH2 0x225 JUMPI DUP1 PUSH4 0x70A08231 EQ PUSH2 0x255 JUMPI PUSH2 0xEA JUMP JUMPDEST DUP1 PUSH4 0x23B872DD GT PUSH2 0xC8 JUMPI DUP1 PUSH4 0x23B872DD EQ PUSH2 0x15B JUMPI DUP1 PUSH4 0x313CE567 EQ PUSH2 0x18B JUMPI DUP1 PUSH4 0x39509351 EQ PUSH2 0x1A9 JUMPI DUP1 PUSH4 0x52A9039C EQ PUSH2 0x1D9 JUMPI PUSH2 0xEA JUMP JUMPDEST DUP1 PUSH4 0x6FDDE03 EQ PUSH2 0xEF JUMPI DUP1 PUSH4 0x95EA7B3 EQ PUSH2 0x10D JUMPI DUP1 PUSH4 0x18160DDD EQ PUSH2 0x13D JUMPI JUMPDEST PUSH1 0x0 DUP1 REVERT JUMPDEST PUSH2 0xF7 PUSH2 0x333 JUMP JUMPDEST PUSH1 0x40 MLOAD PUSH2 0x104 SWAP2 SWAP1 PUSH2 0xFD1 JUMP JUMPDEST PUSH1 0x40 MLOAD DUP1 SWAP2 SUB SWAP1 RETURN JUMPDEST PUSH2 0x127 PUSH1 0x4 DUP1 CALLDATASIZE SUB DUP2 ADD SWAP1 PUSH2 0x122 SWAP2 SWAP1 PUSH2 0xDA8 JUMP JUMPDEST PUSH2 0x3C5 JUMP JUMPDEST PUSH1 0x40 MLOAD PUSH2 0x134 SWAP2 SWAP1 PUSH2 0xFB6 JUMP JUMPDEST PUSH1 0x40 MLOAD DUP1 SWAP2 SUB SWAP1 RETURN JUMPDEST PUSH2 0x145 PUSH2 0x3E8 JUMP JUMPDEST PUSH1 0x40 MLOAD PUSH2 0x152 SWAP2 SWAP1 PUSH2 0x1113 JUMP JUMPDEST PUSH1 0x40 MLOAD DUP1 SWAP2 SUB SWAP1 RETURN JUMPDEST PUSH2 0x175 PUSH1 0x4 DUP1 CALLDATASIZE SUB DUP2 ADD SWAP1 PUSH2 0x170 SWAP2 SWAP1 PUSH2 0xD55 JUMP JUMPDEST PUSH2 0x3F2 JUMP JUMPDEST PUSH1 0x40 MLOAD PUSH2 0x182 SWAP2 SWAP1 PUSH2 0xFB6 JUMP JUMPDEST PUSH1 0x40 MLOAD DUP1 SWAP2 SUB SWAP1 RETURN JUMPDEST PUSH2 0x193 PUSH2 0x421 JUMP JUMPDEST PUSH1 0x40 MLOAD PUSH2 0x1A0 SWAP2 SWAP1 PUSH2 0x112E JUMP JUMPDEST PUSH1 0x40 MLOAD DUP1 SWAP2 SUB SWAP1 RETURN JUMPDEST PUSH2 0x1C3 PUSH1 0x4 DUP1 CALLDATASIZE SUB DUP2 ADD SWAP1 PUSH2 0x1BE SWAP2 SWAP1 PUSH2 0xDA8 JUMP JUMPDEST PUSH2 0x42A JUMP JUMPDEST PUSH1 0x40 MLOAD PUSH2 0x1D0 SWAP2 SWAP1 PUSH2 0xFB6 JUMP JUMPDEST PUSH1 0x40 MLOAD DUP1 SWAP2 SUB SWAP1 RETURN JUMPDEST PUSH2 0x1F3 PUSH1 0x4 DUP1 CALLDATASIZE SUB DUP2 ADD SWAP1 PUSH2 0x1EE SWAP2 SWAP1 PUSH2 0xCE8 JUMP JUMPDEST PUSH2 0x461 JUMP JUMPDEST PUSH1 0x40 MLOAD PUSH2 0x200 SWAP2 SWAP1 PUSH2 0x1113 JUMP JUMPDEST PUSH1 0x40 MLOAD DUP1 SWAP2 SUB SWAP1 RETURN JUMPDEST PUSH2 0x223 PUSH1 0x4 DUP1 CALLDATASIZE SUB DUP2 ADD SWAP1 PUSH2 0x21E SWAP2 SWAP1 PUSH2 0xDE8 JUMP JUMPDEST PUSH2 0x479 JUMP JUMPDEST STOP JUMPDEST PUSH2 0x23F PUSH1 0x4 DUP1 CALLDATASIZE SUB DUP2 ADD SWAP1 PUSH2 0x23A SWAP2 SWAP1 PUSH2 0xDE8 JUMP JUMPDEST PUSH2 0x5BA JUMP JUMPDEST PUSH1 0x40 MLOAD PUSH2 0x24C SWAP2 SWAP1 PUSH2 0x1113 JUMP JUMPDEST PUSH1 0x40 MLOAD DUP1 SWAP2 SUB SWAP1 RETURN JUMPDEST PUSH2 0x26F PUSH1 0x4 DUP1 CALLDATASIZE SUB DUP2 ADD SWAP1 PUSH2 0x26A SWAP2 SWAP1 PUSH2 0xCE8 JUMP JUMPDEST PUSH2 0x5E2 JUMP JUMPDEST PUSH1 0x40 MLOAD PUSH2 0x27C SWAP2 SWAP1 PUSH2 0x1113 JUMP JUMPDEST PUSH1 0x40 MLOAD DUP1 SWAP2 SUB SWAP1 RETURN JUMPDEST PUSH2 0x28D PUSH2 0x62A JUMP JUMPDEST PUSH1 0x40 MLOAD PUSH2 0x29A SWAP2 SWAP1 PUSH2 0xFD1 JUMP JUMPDEST PUSH1 0x40 MLOAD DUP1 SWAP2 SUB SWAP1 RETURN JUMPDEST PUSH2 0x2BD PUSH1 0x4 DUP1 CALLDATASIZE SUB DUP2 ADD SWAP1 PUSH2 0x2B8 SWAP2 SWAP1 PUSH2 0xDA8 JUMP JUMPDEST PUSH2 0x6BC JUMP JUMPDEST PUSH1 0x40 MLOAD PUSH2 0x2CA SWAP2 SWAP1 PUSH2 0xFB6 JUMP JUMPDEST PUSH1 0x40 MLOAD DUP1 SWAP2 SUB SWAP1 RETURN JUMPDEST PUSH2 0x2ED PUSH1 0x4 DUP1 CALLDATASIZE SUB DUP2 ADD SWAP1 PUSH2 0x2E8 SWAP2 SWAP1 PUSH2 0xDA8 JUMP JUMPDEST PUSH2 0x733 JUMP JUMPDEST PUSH1 0x40 MLOAD PUSH2 0x2FA SWAP2 SWAP1 PUSH2 0xFB6 JUMP JUMPDEST PUSH1 0x40 MLOAD DUP1 SWAP2 SUB SWAP1 RETURN JUMPDEST PUSH2 0x31D PUSH1 0x4 DUP1 CALLDATASIZE SUB DUP2 ADD SWAP1 PUSH2 0x318 SWAP2 SWAP1 PUSH2 0xD15 JUMP JUMPDEST PUSH2 0x756 JUMP JUMPDEST PUSH1 0x40 MLOAD PUSH2 0x32A SWAP2 SWAP1 PUSH2 0x1113 JUMP JUMPDEST PUSH1 0x40 MLOAD DUP1 SWAP2 SUB SWAP1 RETURN JUMPDEST PUSH1 0x60 PUSH1 0x3 DUP1 SLOAD PUSH2 0x342 SWAP1 PUSH2 0x140E JUMP JUMPDEST DUP1 PUSH1 0x1F ADD PUSH1 0x20 DUP1 SWAP2 DIV MUL PUSH1 0x20 ADD PUSH1 0x40 MLOAD SWAP1 DUP2 ADD PUSH1 0x40 MSTORE DUP1 SWAP3 SWAP2 SWAP1 DUP2 DUP2 MSTORE PUSH1 0x20 ADD DUP3 DUP1 SLOAD PUSH2 0x36E SWAP1 PUSH2 0x140E JUMP JUMPDEST DUP1 ISZERO PUSH2 0x3BB JUMPI DUP1 PUSH1 0x1F LT PUSH2 0x390 JUMPI PUSH2 0x100 DUP1 DUP4 SLOAD DIV MUL DUP4 MSTORE SWAP2 PUSH1 0x20 ADD SWAP2 PUSH2 0x3BB JUMP JUMPDEST DUP3 ADD SWAP2 SWAP1 PUSH1 0x0 MSTORE PUSH1 0x20 PUSH1 0x0 KECCAK256 SWAP1 JUMPDEST DUP2 SLOAD DUP2 MSTORE SWAP1 PUSH1 0x1 ADD SWAP1 PUSH1 0x20 ADD DUP1 DUP4 GT PUSH2 0x39E JUMPI DUP3 SWAP1 SUB PUSH1 0x1F AND DUP3 ADD SWAP2 JUMPDEST POP POP POP POP POP SWAP1 POP SWAP1 JUMP JUMPDEST PUSH1 0x0 DUP1 PUSH2 0x3D0 PUSH2 0x7DD JUMP JUMPDEST SWAP1 POP PUSH2 0x3DD DUP2 DUP6 DUP6 PUSH2 0x7E5 JUMP JUMPDEST PUSH1 0x1 SWAP2 POP POP SWAP3 SWAP2 POP POP JUMP JUMPDEST PUSH1 0x0 PUSH1 0x2 SLOAD SWAP1 POP SWAP1 JUMP JUMPDEST PUSH1 0x0 DUP1 PUSH2 0x3FD PUSH2 0x7DD JUMP JUMPDEST SWAP1 POP PUSH2 0x40A DUP6 DUP3 DUP6 PUSH2 0x9B0 JUMP JUMPDEST PUSH2 0x415 DUP6 DUP6 DUP6 PUSH2 0xA3C JUMP JUMPDEST PUSH1 0x1 SWAP2 POP POP SWAP4 SWAP3 POP POP POP JUMP JUMPDEST PUSH1 0x0 PUSH1 0x12 SWAP1 POP SWAP1 JUMP JUMPDEST PUSH1 0x0 DUP1 PUSH2 0x435 PUSH2 0x7DD JUMP JUMPDEST SWAP1 POP PUSH2 0x456 DUP2 DUP6 DUP6 PUSH2 0x447 DUP6 DUP10 PUSH2 0x756 JUMP JUMPDEST PUSH2 0x451 SWAP2 SWAP1 PUSH2 0x1165 JUMP JUMPDEST PUSH2 0x7E5 JUMP JUMPDEST PUSH1 0x1 SWAP2 POP POP SWAP3 SWAP2 POP POP JUMP JUMPDEST PUSH1 0x6 PUSH1 0x20 MSTORE DUP1 PUSH1 0x0 MSTORE PUSH1 0x40 PUSH1 0x0 KECCAK256 PUSH1 0x0 SWAP2 POP SWAP1 POP SLOAD DUP2 JUMP JUMPDEST PUSH1 0x0 DUP2 GT PUSH2 0x4BC JUMPI PUSH1 0x40 MLOAD PUSH32 0x8C379A000000000000000000000000000000000000000000000000000000000 DUP2 MSTORE PUSH1 0x4 ADD PUSH2 0x4B3 SWAP1 PUSH2 0x1073 JUMP JUMPDEST PUSH1 0x40 MLOAD DUP1 SWAP2 SUB SWAP1 REVERT JUMPDEST PUSH1 0x5 SLOAD DUP2 PUSH1 0x6 PUSH1 0x0 CALLER PUSH20 0xFFFFFFFFFFFFFFFFFFFFFFFFFFFFFFFFFFFFFFFF AND PUSH20 0xFFFFFFFFFFFFFFFFFFFFFFFFFFFFFFFFFFFFFFFF AND DUP2 MSTORE PUSH1 0x20 ADD SWAP1 DUP2 MSTORE PUSH1 0x20 ADD PUSH1 0x0 KECCAK256 SLOAD PUSH2 0x50A SWAP2 SWAP1 PUSH2 0x1165 JUMP JUMPDEST LT PUSH2 0x54A JUMPI PUSH1 0x40 MLOAD PUSH32 0x8C379A000000000000000000000000000000000000000000000000000000000 DUP2 MSTORE PUSH1 0x4 ADD PUSH2 0x541 SWAP1 PUSH2 0x10B3 JUMP JUMPDEST PUSH1 0x40 MLOAD DUP1 SWAP2 SUB SWAP1 REVERT JUMPDEST DUP1 PUSH1 0x6 PUSH1 0x0 CALLER PUSH20 0xFFFFFFFFFFFFFFFFFFFFFFFFFFFFFFFFFFFFFFFF AND PUSH20 0xFFFFFFFFFFFFFFFFFFFFFFFFFFFFFFFFFFFFFFFF AND DUP2 MSTORE PUSH1 0x20 ADD SWAP1 DUP2 MSTORE PUSH1 0x20 ADD PUSH1 0x0 KECCAK256 PUSH1 0x0 DUP3 DUP3 SLOAD PUSH2 0x599 SWAP2 SWAP1 PUSH2 0x1165 JUMP JUMPDEST SWAP3 POP POP DUP2 SWAP1 SSTORE POP PUSH2 0x5AB ADDRESS CALLER DUP4 PUSH2 0x7E5 JUMP JUMPDEST PUSH2 0x5B6 ADDRESS CALLER DUP4 PUSH2 0x3F2 JUMP JUMPDEST POP POP JUMP JUMPDEST PUSH1 0x0 PUSH2 0x5C4 PUSH2 0x421 JUMP JUMPDEST PUSH1 0xA PUSH2 0x5D0 SWAP2 SWAP1 PUSH2 0x120E JUMP JUMPDEST DUP3 PUSH2 0x5DB SWAP2 SWAP1 PUSH2 0x132C JUMP JUMPDEST SWAP1 POP SWAP2 SWAP1 POP JUMP JUMPDEST PUSH1 0x0 DUP1 PUSH1 0x0 DUP4 PUSH20 0xFFFFFFFFFFFFFFFFFFFFFFFFFFFFFFFFFFFFFFFF AND PUSH20 0xFFFFFFFFFFFFFFFFFFFFFFFFFFFFFFFFFFFFFFFF AND DUP2 MSTORE PUSH1 0x20 ADD SWAP1 DUP2 MSTORE PUSH1 0x20 ADD PUSH1 0x0 KECCAK256 SLOAD SWAP1 POP SWAP2 SWAP1 POP JUMP JUMPDEST PUSH1 0x60 PUSH1 0x4 DUP1 SLOAD PUSH2 0x639 SWAP1 PUSH2 0x140E JUMP JUMPDEST DUP1 PUSH1 0x1F ADD PUSH1 0x20 DUP1 SWAP2 DIV MUL PUSH1 0x20 ADD PUSH1 0x40 MLOAD SWAP1 DUP2 ADD PUSH1 0x40 MSTORE DUP1 SWAP3 SWAP2 SWAP1 DUP2 DUP2 MSTORE PUSH1 0x20 ADD DUP3 DUP1 SLOAD PUSH2 0x665 SWAP1 PUSH2 0x140E JUMP JUMPDEST DUP1 ISZERO PUSH2 0x6B2 JUMPI DUP1 PUSH1 0x1F LT PUSH2 0x687 JUMPI PUSH2 0x100 DUP1 DUP4 SLOAD DIV MUL DUP4 MSTORE SWAP2 PUSH1 0x20 ADD SWAP2 PUSH2 0x6B2 JUMP JUMPDEST DUP3 ADD SWAP2 SWAP1 PUSH1 0x0 MSTORE PUSH1 0x20 PUSH1 0x0 KECCAK256 SWAP1 JUMPDEST DUP2 SLOAD DUP2 MSTORE SWAP1 PUSH1 0x1 ADD SWAP1 PUSH1 0x20 ADD DUP1 DUP4 GT PUSH2 0x695 JUMPI DUP3 SWAP1 SUB PUSH1 0x1F AND DUP3 ADD SWAP2 JUMPDEST POP POP POP POP POP SWAP1 POP SWAP1 JUMP JUMPDEST PUSH1 0x0 DUP1 PUSH2 0x6C7 PUSH2 0x7DD JUMP JUMPDEST SWAP1 POP PUSH1 0x0 PUSH2 0x6D5 DUP3 DUP7 PUSH2 0x756 JUMP JUMPDEST SWAP1 POP DUP4 DUP2 LT ISZERO PUSH2 0x71A JUMPI PUSH1 0x40 MLOAD PUSH32 0x8C379A000000000000000000000000000000000000000000000000000000000 DUP2 MSTORE PUSH1 0x4 ADD PUSH2 0x711 SWAP1 PUSH2 0x10F3 JUMP JUMPDEST PUSH1 0x40 MLOAD DUP1 SWAP2 SUB SWAP1 REVERT JUMPDEST PUSH2 0x727 DUP3 DUP7 DUP7 DUP5 SUB PUSH2 0x7E5 JUMP JUMPDEST PUSH1 0x1 SWAP3 POP POP POP SWAP3 SWAP2 POP POP JUMP JUMPDEST PUSH1 0x0 DUP1 PUSH2 0x73E PUSH2 0x7DD JUMP JUMPDEST SWAP1 POP PUSH2 0x74B DUP2 DUP6 DUP6 PUSH2 0xA3C JUMP JUMPDEST PUSH1 0x1 SWAP2 POP POP SWAP3 SWAP2 POP POP JUMP JUMPDEST PUSH1 0x0 PUSH1 0x1 PUSH1 0x0 DUP5 PUSH20 0xFFFFFFFFFFFFFFFFFFFFFFFFFFFFFFFFFFFFFFFF AND PUSH20 0xFFFFFFFFFFFFFFFFFFFFFFFFFFFFFFFFFFFFFFFF AND DUP2 MSTORE PUSH1 0x20 ADD SWAP1 DUP2 MSTORE PUSH1 0x20 ADD PUSH1 0x0 KECCAK256 PUSH1 0x0 DUP4 PUSH20 0xFFFFFFFFFFFFFFFFFFFFFFFFFFFFFFFFFFFFFFFF AND PUSH20 0xFFFFFFFFFFFFFFFFFFFFFFFFFFFFFFFFFFFFFFFF AND DUP2 MSTORE PUSH1 0x20 ADD SWAP1 DUP2 MSTORE PUSH1 0x20 ADD PUSH1 0x0 KECCAK256 SLOAD SWAP1 POP SWAP3 SWAP2 POP POP JUMP JUMPDEST PUSH1 0x0 CALLER SWAP1 POP SWAP1 JUMP JUMPDEST PUSH1 0x0 PUSH20 0xFFFFFFFFFFFFFFFFFFFFFFFFFFFFFFFFFFFFFFFF AND DUP4 PUSH20 0xFFFFFFFFFFFFFFFFFFFFFFFFFFFFFFFFFFFFFFFF AND EQ ISZERO PUSH2 0x855 JUMPI PUSH1 0x40 MLOAD PUSH32 0x8C379A000000000000000000000000000000000000000000000000000000000 DUP2 MSTORE PUSH1 0x4 ADD PUSH2 0x84C SWAP1 PUSH2 0x10D3 JUMP JUMPDEST PUSH1 0x40 MLOAD DUP1 SWAP2 SUB SWAP1 REVERT JUMPDEST PUSH1 0x0 PUSH20 0xFFFFFFFFFFFFFFFFFFFFFFFFFFFFFFFFFFFFFFFF AND DUP3 PUSH20 0xFFFFFFFFFFFFFFFFFFFFFFFFFFFFFFFFFFFFFFFF AND EQ ISZERO PUSH2 0x8C5 JUMPI PUSH1 0x40 MLOAD PUSH32 0x8C379A000000000000000000000000000000000000000000000000000000000 DUP2 MSTORE PUSH1 0x4 ADD PUSH2 0x8BC SWAP1 PUSH2 0x1013 JUMP JUMPDEST PUSH1 0x40 MLOAD DUP1 SWAP2 SUB SWAP1 REVERT JUMPDEST DUP1 PUSH1 0x1 PUSH1 0x0 DUP6 PUSH20 0xFFFFFFFFFFFFFFFFFFFFFFFFFFFFFFFFFFFFFFFF AND PUSH20 0xFFFFFFFFFFFFFFFFFFFFFFFFFFFFFFFFFFFFFFFF AND DUP2 MSTORE PUSH1 0x20 ADD SWAP1 DUP2 MSTORE PUSH1 0x20 ADD PUSH1 0x0 KECCAK256 PUSH1 0x0 DUP5 PUSH20 0xFFFFFFFFFFFFFFFFFFFFFFFFFFFFFFFFFFFFFFFF AND PUSH20 0xFFFFFFFFFFFFFFFFFFFFFFFFFFFFFFFFFFFFFFFF AND DUP2 MSTORE PUSH1 0x20 ADD SWAP1 DUP2 MSTORE PUSH1 0x20 ADD PUSH1 0x0 KECCAK256 DUP2 SWAP1 SSTORE POP DUP2 PUSH20 0xFFFFFFFFFFFFFFFFFFFFFFFFFFFFFFFFFFFFFFFF AND DUP4 PUSH20 0xFFFFFFFFFFFFFFFFFFFFFFFFFFFFFFFFFFFFFFFF AND PUSH32 0x8C5BE1E5EBEC7D5BD14F71427D1E84F3DD0314C0F7B2291E5B200AC8C7C3B925 DUP4 PUSH1 0x40 MLOAD PUSH2 0x9A3 SWAP2 SWAP1 PUSH2 0x1113 JUMP JUMPDEST PUSH1 0x40 MLOAD DUP1 SWAP2 SUB SWAP1 LOG3 POP POP POP JUMP JUMPDEST PUSH1 0x0 PUSH2 0x9BC DUP5 DUP5 PUSH2 0x756 JUMP JUMPDEST SWAP1 POP PUSH32 0xFFFFFFFFFFFFFFFFFFFFFFFFFFFFFFFFFFFFFFFFFFFFFFFFFFFFFFFFFFFFFFFF DUP2 EQ PUSH2 0xA36 JUMPI DUP2 DUP2 LT ISZERO PUSH2 0xA28 JUMPI PUSH1 0x40 MLOAD PUSH32 0x8C379A000000000000000000000000000000000000000000000000000000000 DUP2 MSTORE PUSH1 0x4 ADD PUSH2 0xA1F SWAP1 PUSH2 0x1033 JUMP JUMPDEST PUSH1 0x40 MLOAD DUP1 SWAP2 SUB SWAP1 REVERT JUMPDEST PUSH2 0xA35 DUP5 DUP5 DUP5 DUP5 SUB PUSH2 0x7E5 JUMP JUMPDEST JUMPDEST POP POP POP POP JUMP JUMPDEST PUSH1 0x0 PUSH20 0xFFFFFFFFFFFFFFFFFFFFFFFFFFFFFFFFFFFFFFFF AND DUP4 PUSH20 0xFFFFFFFFFFFFFFFFFFFFFFFFFFFFFFFFFFFFFFFF AND EQ ISZERO PUSH2 0xAAC JUMPI PUSH1 0x40 MLOAD PUSH32 0x8C379A000000000000000000000000000000000000000000000000000000000 DUP2 MSTORE PUSH1 0x4 ADD PUSH2 0xAA3 SWAP1 PUSH2 0x1093 JUMP JUMPDEST PUSH1 0x40 MLOAD DUP1 SWAP2 SUB SWAP1 REVERT JUMPDEST PUSH1 0x0 PUSH20 0xFFFFFFFFFFFFFFFFFFFFFFFFFFFFFFFFFFFFFFFF AND DUP3 PUSH20 0xFFFFFFFFFFFFFFFFFFFFFFFFFFFFFFFFFFFFFFFF AND EQ ISZERO PUSH2 0xB1C JUMPI PUSH1 0x40 MLOAD PUSH32 0x8C379A000000000000000000000000000000000000000000000000000000000 DUP2 MSTORE PUSH1 0x4 ADD PUSH2 0xB13 SWAP1 PUSH2 0xFF3 JUMP JUMPDEST PUSH1 0x40 MLOAD DUP1 SWAP2 SUB SWAP1 REVERT JUMPDEST PUSH2 0xB27 DUP4 DUP4 DUP4 PUSH2 0xCB4 JUMP JUMPDEST PUSH1 0x0 DUP1 PUSH1 0x0 DUP6 PUSH20 0xFFFFFFFFFFFFFFFFFFFFFFFFFFFFFFFFFFFFFFFF AND PUSH20 0xFFFFFFFFFFFFFFFFFFFFFFFFFFFFFFFFFFFFFFFF AND DUP2 MSTORE PUSH1 0x20 ADD SWAP1 DUP2 MSTORE PUSH1 0x20 ADD PUSH1 0x0 KECCAK256 SLOAD SWAP1 POP DUP2 DUP2 LT ISZERO PUSH2 0xBAD JUMPI PUSH1 0x40 MLOAD PUSH32 0x8C379A000000000000000000000000000000000000000000000000000000000 DUP2 MSTORE PUSH1 0x4 ADD PUSH2 0xBA4 SWAP1 PUSH2 0x1053 JUMP JUMPDEST PUSH1 0x40 MLOAD DUP1 SWAP2 SUB SWAP1 REVERT JUMPDEST DUP2 DUP2 SUB PUSH1 0x0 DUP1 DUP7 PUSH20 0xFFFFFFFFFFFFFFFFFFFFFFFFFFFFFFFFFFFFFFFF AND PUSH20 0xFFFFFFFFFFFFFFFFFFFFFFFFFFFFFFFFFFFFFFFF AND DUP2 MSTORE PUSH1 0x20 ADD SWAP1 DUP2 MSTORE PUSH1 0x20 ADD PUSH1 0x0 KECCAK256 DUP2 SWAP1 SSTORE POP DUP2 PUSH1 0x0 DUP1 DUP6 PUSH20 0xFFFFFFFFFFFFFFFFFFFFFFFFFFFFFFFFFFFFFFFF AND PUSH20 0xFFFFFFFFFFFFFFFFFFFFFFFFFFFFFFFFFFFFFFFF AND DUP2 MSTORE PUSH1 0x20 ADD SWAP1 DUP2 MSTORE PUSH1 0x20 ADD PUSH1 0x0 KECCAK256 PUSH1 0x0 DUP3 DUP3 SLOAD ADD SWAP3 POP POP DUP2 SWAP1 SSTORE POP DUP3 PUSH20 0xFFFFFFFFFFFFFFFFFFFFFFFFFFFFFFFFFFFFFFFF AND DUP5 PUSH20 0xFFFFFFFFFFFFFFFFFFFFFFFFFFFFFFFFFFFFFFFF AND PUSH32 0xDDF252AD1BE2C89B69C2B068FC378DAA952BA7F163C4A11628F55A4DF523B3EF DUP5 PUSH1 0x40 MLOAD PUSH2 0xC9B SWAP2 SWAP1 PUSH2 0x1113 JUMP JUMPDEST PUSH1 0x40 MLOAD DUP1 SWAP2 SUB SWAP1 LOG3 PUSH2 0xCAE DUP5 DUP5 DUP5 PUSH2 0xCB9 JUMP JUMPDEST POP POP POP POP JUMP JUMPDEST POP POP POP JUMP JUMPDEST POP POP POP JUMP JUMPDEST PUSH1 0x0 DUP2 CALLDATALOAD SWAP1 POP PUSH2 0xCCD DUP2 PUSH2 0x1716 JUMP JUMPDEST SWAP3 SWAP2 POP POP JUMP JUMPDEST PUSH1 0x0 DUP2 CALLDATALOAD SWAP1 POP PUSH2 0xCE2 DUP2 PUSH2 0x172D JUMP JUMPDEST SWAP3 SWAP2 POP POP JUMP JUMPDEST PUSH1 0x0 PUSH1 0x20 DUP3 DUP5 SUB SLT ISZERO PUSH2 0xCFE JUMPI PUSH2 0xCFD PUSH2 0x149E JUMP JUMPDEST JUMPDEST PUSH1 0x0 PUSH2 0xD0C DUP5 DUP3 DUP6 ADD PUSH2 0xCBE JUMP JUMPDEST SWAP2 POP POP SWAP3 SWAP2 POP POP JUMP JUMPDEST PUSH1 0x0 DUP1 PUSH1 0x40 DUP4 DUP6 SUB SLT ISZERO PUSH2 0xD2C JUMPI PUSH2 0xD2B PUSH2 0x149E JUMP JUMPDEST JUMPDEST PUSH1 0x0 PUSH2 0xD3A DUP6 DUP3 DUP7 ADD PUSH2 0xCBE JUMP JUMPDEST SWAP3 POP POP PUSH1 0x20 PUSH2 0xD4B DUP6 DUP3 DUP7 ADD PUSH2 0xCBE JUMP JUMPDEST SWAP2 POP POP SWAP3 POP SWAP3 SWAP1 POP JUMP JUMPDEST PUSH1 0x0 DUP1 PUSH1 0x0 PUSH1 0x60 DUP5 DUP7 SUB SLT ISZERO PUSH2 0xD6E JUMPI PUSH2 0xD6D PUSH2 0x149E JUMP JUMPDEST JUMPDEST PUSH1 0x0 PUSH2 0xD7C DUP7 DUP3 DUP8 ADD PUSH2 0xCBE JUMP JUMPDEST SWAP4 POP POP PUSH1 0x20 PUSH2 0xD8D DUP7 DUP3 DUP8 ADD PUSH2 0xCBE JUMP JUMPDEST SWAP3 POP POP PUSH1 0x40 PUSH2 0xD9E DUP7 DUP3 DUP8 ADD PUSH2 0xCD3 JUMP JUMPDEST SWAP2 POP POP SWAP3 POP SWAP3 POP SWAP3 JUMP JUMPDEST PUSH1 0x0 DUP1 PUSH1 0x40 DUP4 DUP6 SUB SLT ISZERO PUSH2 0xDBF JUMPI PUSH2 0xDBE PUSH2 0x149E JUMP JUMPDEST JUMPDEST PUSH1 0x0 PUSH2 0xDCD DUP6 DUP3 DUP7 ADD PUSH2 0xCBE JUMP JUMPDEST SWAP3 POP POP PUSH1 0x20 PUSH2 0xDDE DUP6 DUP3 DUP7 ADD PUSH2 0xCD3 JUMP JUMPDEST SWAP2 POP POP SWAP3 POP SWAP3 SWAP1 POP JUMP JUMPDEST PUSH1 0x0 PUSH1 0x20 DUP3 DUP5 SUB SLT ISZERO PUSH2 0xDFE JUMPI PUSH2 0xDFD PUSH2 0x149E JUMP JUMPDEST JUMPDEST PUSH1 0x0 PUSH2 0xE0C DUP5 DUP3 DUP6 ADD PUSH2 0xCD3 JUMP JUMPDEST SWAP2 POP POP SWAP3 SWAP2 POP POP JUMP JUMPDEST PUSH2 0xE1E DUP2 PUSH2 0x1398 JUMP JUMPDEST DUP3 MSTORE POP POP JUMP JUMPDEST PUSH1 0x0 PUSH2 0xE2F DUP3 PUSH2 0x1149 JUMP JUMPDEST PUSH2 0xE39 DUP2 DUP6 PUSH2 0x1154 JUMP JUMPDEST SWAP4 POP PUSH2 0xE49 DUP2 DUP6 PUSH1 0x20 DUP7 ADD PUSH2 0x13DB JUMP JUMPDEST PUSH2 0xE52 DUP2 PUSH2 0x14A3 JUMP JUMPDEST DUP5 ADD SWAP2 POP POP SWAP3 SWAP2 POP POP JUMP JUMPDEST PUSH1 0x0 PUSH2 0xE6A PUSH1 0x23 DUP4 PUSH2 0x1154 JUMP JUMPDEST SWAP2 POP PUSH2 0xE75 DUP3 PUSH2 0x14C1 JUMP JUMPDEST PUSH1 0x40 DUP3 ADD SWAP1 POP SWAP2 SWAP1 POP JUMP JUMPDEST PUSH1 0x0 PUSH2 0xE8D PUSH1 0x22 DUP4 PUSH2 0x1154 JUMP JUMPDEST SWAP2 POP PUSH2 0xE98 DUP3 PUSH2 0x1510 JUMP JUMPDEST PUSH1 0x40 DUP3 ADD SWAP1 POP SWAP2 SWAP1 POP JUMP JUMPDEST PUSH1 0x0 PUSH2 0xEB0 PUSH1 0x1D DUP4 PUSH2 0x1154 JUMP JUMPDEST SWAP2 POP PUSH2 0xEBB DUP3 PUSH2 0x155F JUMP JUMPDEST PUSH1 0x20 DUP3 ADD SWAP1 POP SWAP2 SWAP1 POP JUMP JUMPDEST PUSH1 0x0 PUSH2 0xED3 PUSH1 0x26 DUP4 PUSH2 0x1154 JUMP JUMPDEST SWAP2 POP PUSH2 0xEDE DUP3 PUSH2 0x1588 JUMP JUMPDEST PUSH1 0x40 DUP3 ADD SWAP1 POP SWAP2 SWAP1 POP JUMP JUMPDEST PUSH1 0x0 PUSH2 0xEF6 PUSH1 0x15 DUP4 PUSH2 0x1154 JUMP JUMPDEST SWAP2 POP PUSH2 0xF01 DUP3 PUSH2 0x15D7 JUMP JUMPDEST PUSH1 0x20 DUP3 ADD SWAP1 POP SWAP2 SWAP1 POP JUMP JUMPDEST PUSH1 0x0 PUSH2 0xF19 PUSH1 0x25 DUP4 PUSH2 0x1154 JUMP JUMPDEST SWAP2 POP PUSH2 0xF24 DUP3 PUSH2 0x1600 JUMP JUMPDEST PUSH1 0x40 DUP3 ADD SWAP1 POP SWAP2 SWAP1 POP JUMP JUMPDEST PUSH1 0x0 PUSH2 0xF3C PUSH1 0x15 DUP4 PUSH2 0x1154 JUMP JUMPDEST SWAP2 POP PUSH2 0xF47 DUP3 PUSH2 0x164F JUMP JUMPDEST PUSH1 0x20 DUP3 ADD SWAP1 POP SWAP2 SWAP1 POP JUMP JUMPDEST PUSH1 0x0 PUSH2 0xF5F PUSH1 0x24 DUP4 PUSH2 0x1154 JUMP JUMPDEST SWAP2 POP PUSH2 0xF6A DUP3 PUSH2 0x1678 JUMP JUMPDEST PUSH1 0x40 DUP3 ADD SWAP1 POP SWAP2 SWAP1 POP JUMP JUMPDEST PUSH1 0x0 PUSH2 0xF82 PUSH1 0x25 DUP4 PUSH2 0x1154 JUMP JUMPDEST SWAP2 POP PUSH2 0xF8D DUP3 PUSH2 0x16C7 JUMP JUMPDEST PUSH1 0x40 DUP3 ADD SWAP1 POP SWAP2 SWAP1 POP JUMP JUMPDEST PUSH2 0xFA1 DUP2 PUSH2 0x13C4 JUMP JUMPDEST DUP3 MSTORE POP POP JUMP JUMPDEST PUSH2 0xFB0 DUP2 PUSH2 0x13CE JUMP JUMPDEST DUP3 MSTORE POP POP JUMP JUMPDEST PUSH1 0x0 PUSH1 0x20 DUP3 ADD SWAP1 POP PUSH2 0xFCB PUSH1 0x0 DUP4 ADD DUP5 PUSH2 0xE15 JUMP JUMPDEST SWAP3 SWAP2 POP POP JUMP JUMPDEST PUSH1 0x0 PUSH1 0x20 DUP3 ADD SWAP1 POP DUP2 DUP2 SUB PUSH1 0x0 DUP4 ADD MSTORE PUSH2 0xFEB DUP2 DUP5 PUSH2 0xE24 JUMP JUMPDEST SWAP1 POP SWAP3 SWAP2 POP POP JUMP JUMPDEST PUSH1 0x0 PUSH1 0x20 DUP3 ADD SWAP1 POP DUP2 DUP2 SUB PUSH1 0x0 DUP4 ADD MSTORE PUSH2 0x100C DUP2 PUSH2 0xE5D JUMP JUMPDEST SWAP1 POP SWAP2 SWAP1 POP JUMP JUMPDEST PUSH1 0x0 PUSH1 0x20 DUP3 ADD SWAP1 POP DUP2 DUP2 SUB PUSH1 0x0 DUP4 ADD MSTORE PUSH2 0x102C DUP2 PUSH2 0xE80 JUMP JUMPDEST SWAP1 POP SWAP2 SWAP1 POP JUMP JUMPDEST PUSH1 0x0 PUSH1 0x20 DUP3 ADD SWAP1 POP DUP2 DUP2 SUB PUSH1 0x0 DUP4 ADD MSTORE PUSH2 0x104C DUP2 PUSH2 0xEA3 JUMP JUMPDEST SWAP1 POP SWAP2 SWAP1 POP JUMP JUMPDEST PUSH1 0x0 PUSH1 0x20 DUP3 ADD SWAP1 POP DUP2 DUP2 SUB PUSH1 0x0 DUP4 ADD MSTORE PUSH2 0x106C DUP2 PUSH2 0xEC6 JUMP JUMPDEST SWAP1 POP SWAP2 SWAP1 POP JUMP JUMPDEST PUSH1 0x0 PUSH1 0x20 DUP3 ADD SWAP1 POP DUP2 DUP2 SUB PUSH1 0x0 DUP4 ADD MSTORE PUSH2 0x108C DUP2 PUSH2 0xEE9 JUMP JUMPDEST SWAP1 POP SWAP2 SWAP1 POP JUMP JUMPDEST PUSH1 0x0 PUSH1 0x20 DUP3 ADD SWAP1 POP DUP2 DUP2 SUB PUSH1 0x0 DUP4 ADD MSTORE PUSH2 0x10AC DUP2 PUSH2 0xF0C JUMP JUMPDEST SWAP1 POP SWAP2 SWAP1 POP JUMP JUMPDEST PUSH1 0x0 PUSH1 0x20 DUP3 ADD SWAP1 POP DUP2 DUP2 SUB PUSH1 0x0 DUP4 ADD MSTORE PUSH2 0x10CC DUP2 PUSH2 0xF2F JUMP JUMPDEST SWAP1 POP SWAP2 SWAP1 POP JUMP JUMPDEST PUSH1 0x0 PUSH1 0x20 DUP3 ADD SWAP1 POP DUP2 DUP2 SUB PUSH1 0x0 DUP4 ADD MSTORE PUSH2 0x10EC DUP2 PUSH2 0xF52 JUMP JUMPDEST SWAP1 POP SWAP2 SWAP1 POP JUMP JUMPDEST PUSH1 0x0 PUSH1 0x20 DUP3 ADD SWAP1 POP DUP2 DUP2 SUB PUSH1 0x0 DUP4 ADD MSTORE PUSH2 0x110C DUP2 PUSH2 0xF75 JUMP JUMPDEST SWAP1 POP SWAP2 SWAP1 POP JUMP JUMPDEST PUSH1 0x0 PUSH1 0x20 DUP3 ADD SWAP1 POP PUSH2 0x1128 PUSH1 0x0 DUP4 ADD DUP5 PUSH2 0xF98 JUMP JUMPDEST SWAP3 SWAP2 POP POP JUMP JUMPDEST PUSH1 0x0 PUSH1 0x20 DUP3 ADD SWAP1 POP PUSH2 0x1143 PUSH1 0x0 DUP4 ADD DUP5 PUSH2 0xFA7 JUMP JUMPDEST SWAP3 SWAP2 POP POP JUMP JUMPDEST PUSH1 0x0 DUP2 MLOAD SWAP1 POP SWAP2 SWAP1 POP JUMP JUMPDEST PUSH1 0x0 DUP3 DUP3 MSTORE PUSH1 0x20 DUP3 ADD SWAP1 POP SWAP3 SWAP2 POP POP JUMP JUMPDEST PUSH1 0x0 PUSH2 0x1170 DUP3 PUSH2 0x13C4 JUMP JUMPDEST SWAP2 POP PUSH2 0x117B DUP4 PUSH2 0x13C4 JUMP JUMPDEST SWAP3 POP DUP3 PUSH32 0xFFFFFFFFFFFFFFFFFFFFFFFFFFFFFFFFFFFFFFFFFFFFFFFFFFFFFFFFFFFFFFFF SUB DUP3 GT ISZERO PUSH2 0x11B0 JUMPI PUSH2 0x11AF PUSH2 0x1440 JUMP JUMPDEST JUMPDEST DUP3 DUP3 ADD SWAP1 POP SWAP3 SWAP2 POP POP JUMP JUMPDEST PUSH1 0x0 DUP1 DUP3 SWAP2 POP DUP4 SWAP1 POP JUMPDEST PUSH1 0x1 DUP6 GT ISZERO PUSH2 0x1205 JUMPI DUP1 DUP7 DIV DUP2 GT ISZERO PUSH2 0x11E1 JUMPI PUSH2 0x11E0 PUSH2 0x1440 JUMP JUMPDEST JUMPDEST PUSH1 0x1 DUP6 AND ISZERO PUSH2 0x11F0 JUMPI DUP1 DUP3 MUL SWAP2 POP JUMPDEST DUP1 DUP2 MUL SWAP1 POP PUSH2 0x11FE DUP6 PUSH2 0x14B4 JUMP JUMPDEST SWAP5 POP PUSH2 0x11C5 JUMP JUMPDEST SWAP5 POP SWAP5 SWAP3 POP POP POP JUMP JUMPDEST PUSH1 0x0 PUSH2 0x1219 DUP3 PUSH2 0x13C4 JUMP JUMPDEST SWAP2 POP PUSH2 0x1224 DUP4 PUSH2 0x13CE JUMP JUMPDEST SWAP3 POP PUSH2 0x1251 PUSH32 0xFFFFFFFFFFFFFFFFFFFFFFFFFFFFFFFFFFFFFFFFFFFFFFFFFFFFFFFFFFFFFFFF DUP5 DUP5 PUSH2 0x1259 JUMP JUMPDEST SWAP1 POP SWAP3 SWAP2 POP POP JUMP JUMPDEST PUSH1 0x0 DUP3 PUSH2 0x1269 JUMPI PUSH1 0x1 SWAP1 POP PUSH2 0x1325 JUMP JUMPDEST DUP2 PUSH2 0x1277 JUMPI PUSH1 0x0 SWAP1 POP PUSH2 0x1325 JUMP JUMPDEST DUP2 PUSH1 0x1 DUP2 EQ PUSH2 0x128D JUMPI PUSH1 0x2 DUP2 EQ PUSH2 0x1297 JUMPI PUSH2 0x12C6 JUMP JUMPDEST PUSH1 0x1 SWAP2 POP POP PUSH2 0x1325 JUMP JUMPDEST PUSH1 0xFF DUP5 GT ISZERO PUSH2 0x12A9 JUMPI PUSH2 0x12A8 PUSH2 0x1440 JUMP JUMPDEST JUMPDEST DUP4 PUSH1 0x2 EXP SWAP2 POP DUP5 DUP3 GT ISZERO PUSH2 0x12C0 JUMPI PUSH2 0x12BF PUSH2 0x1440 JUMP JUMPDEST JUMPDEST POP PUSH2 0x1325 JUMP JUMPDEST POP PUSH1 0x20 DUP4 LT PUSH2 0x133 DUP4 LT AND PUSH1 0x4E DUP5 LT PUSH1 0xB DUP5 LT AND OR ISZERO PUSH2 0x12FB JUMPI DUP3 DUP3 EXP SWAP1 POP DUP4 DUP2 GT ISZERO PUSH2 0x12F6 JUMPI PUSH2 0x12F5 PUSH2 0x1440 JUMP JUMPDEST JUMPDEST PUSH2 0x1325 JUMP JUMPDEST PUSH2 0x1308 DUP5 DUP5 DUP5 PUSH1 0x1 PUSH2 0x11BB JUMP JUMPDEST SWAP3 POP SWAP1 POP DUP2 DUP5 DIV DUP2 GT ISZERO PUSH2 0x131F JUMPI PUSH2 0x131E PUSH2 0x1440 JUMP JUMPDEST JUMPDEST DUP2 DUP2 MUL SWAP1 POP JUMPDEST SWAP4 SWAP3 POP POP POP JUMP JUMPDEST PUSH1 0x0 PUSH2 0x1337 DUP3 PUSH2 0x13C4 JUMP JUMPDEST SWAP2 POP PUSH2 0x1342 DUP4 PUSH2 0x13C4 JUMP JUMPDEST SWAP3 POP DUP2 PUSH32 0xFFFFFFFFFFFFFFFFFFFFFFFFFFFFFFFFFFFFFFFFFFFFFFFFFFFFFFFFFFFFFFFF DIV DUP4 GT DUP3 ISZERO ISZERO AND ISZERO PUSH2 0x137B JUMPI PUSH2 0x137A PUSH2 0x1440 JUMP JUMPDEST JUMPDEST DUP3 DUP3 MUL SWAP1 POP SWAP3 SWAP2 POP POP JUMP JUMPDEST PUSH1 0x0 PUSH2 0x1391 DUP3 PUSH2 0x13A4 JUMP JUMPDEST SWAP1 POP SWAP2 SWAP1 POP JUMP JUMPDEST PUSH1 0x0 DUP2 ISZERO ISZERO SWAP1 POP SWAP2 SWAP1 POP JUMP JUMPDEST PUSH1 0x0 PUSH20 0xFFFFFFFFFFFFFFFFFFFFFFFFFFFFFFFFFFFFFFFF DUP3 AND SWAP1 POP SWAP2 SWAP1 POP JUMP JUMPDEST PUSH1 0x0 DUP2 SWAP1 POP SWAP2 SWAP1 POP JUMP JUMPDEST PUSH1 0x0 PUSH1 0xFF DUP3 AND SWAP1 POP SWAP2 SWAP1 POP JUMP JUMPDEST PUSH1 0x0 JUMPDEST DUP4 DUP2 LT ISZERO PUSH2 0x13F9 JUMPI DUP1 DUP3 ADD MLOAD DUP2 DUP5 ADD MSTORE PUSH1 0x20 DUP2 ADD SWAP1 POP PUSH2 0x13DE JUMP JUMPDEST DUP4 DUP2 GT ISZERO PUSH2 0x1408 JUMPI PUSH1 0x0 DUP5 DUP5 ADD MSTORE JUMPDEST POP POP POP POP JUMP JUMPDEST PUSH1 0x0 PUSH1 0x2 DUP3 DIV SWAP1 POP PUSH1 0x1 DUP3 AND DUP1 PUSH2 0x1426 JUMPI PUSH1 0x7F DUP3 AND SWAP2 POP JUMPDEST PUSH1 0x20 DUP3 LT DUP2 EQ ISZERO PUSH2 0x143A JUMPI PUSH2 0x1439 PUSH2 0x146F JUMP JUMPDEST JUMPDEST POP SWAP2 SWAP1 POP JUMP JUMPDEST PUSH32 0x4E487B7100000000000000000000000000000000000000000000000000000000 PUSH1 0x0 MSTORE PUSH1 0x11 PUSH1 0x4 MSTORE PUSH1 0x24 PUSH1 0x0 REVERT JUMPDEST PUSH32 0x4E487B7100000000000000000000000000000000000000000000000000000000 PUSH1 0x0 MSTORE PUSH1 0x22 PUSH1 0x4 MSTORE PUSH1 0x24 PUSH1 0x0 REVERT JUMPDEST PUSH1 0x0 DUP1 REVERT JUMPDEST PUSH1 0x0 PUSH1 0x1F NOT PUSH1 0x1F DUP4 ADD AND SWAP1 POP SWAP2 SWAP1 POP JUMP JUMPDEST PUSH1 0x0 DUP2 PUSH1 0x1 SHR SWAP1 POP SWAP2 SWAP1 POP JUMP JUMPDEST PUSH32 0x45524332303A207472616E7366657220746F20746865207A65726F2061646472 PUSH1 0x0 DUP3 ADD MSTORE PUSH32 0x6573730000000000000000000000000000000000000000000000000000000000 PUSH1 0x20 DUP3 ADD MSTORE POP JUMP JUMPDEST PUSH32 0x45524332303A20617070726F766520746F20746865207A65726F206164647265 PUSH1 0x0 DUP3 ADD MSTORE PUSH32 0x7373000000000000000000000000000000000000000000000000000000000000 PUSH1 0x20 DUP3 ADD MSTORE POP JUMP JUMPDEST PUSH32 0x45524332303A20696E73756666696369656E7420616C6C6F77616E6365000000 PUSH1 0x0 DUP3 ADD MSTORE POP JUMP JUMPDEST PUSH32 0x45524332303A207472616E7366657220616D6F756E7420657863656564732062 PUSH1 0x0 DUP3 ADD MSTORE PUSH32 0x616C616E63650000000000000000000000000000000000000000000000000000 PUSH1 0x20 DUP3 ADD MSTORE POP JUMP JUMPDEST PUSH32 0x416D6F756E742063616E6E6F74206265207A65726F0000000000000000000000 PUSH1 0x0 DUP3 ADD MSTORE POP JUMP JUMPDEST PUSH32 0x45524332303A207472616E736665722066726F6D20746865207A65726F206164 PUSH1 0x0 DUP3 ADD MSTORE PUSH32 0x6472657373000000000000000000000000000000000000000000000000000000 PUSH1 0x20 DUP3 ADD MSTORE POP JUMP JUMPDEST PUSH32 0x43616E74204D696E74204D6F726520546F6B656E730000000000000000000000 PUSH1 0x0 DUP3 ADD MSTORE POP JUMP JUMPDEST PUSH32 0x45524332303A20617070726F76652066726F6D20746865207A65726F20616464 PUSH1 0x0 DUP3 ADD MSTORE PUSH32 0x7265737300000000000000000000000000000000000000000000000000000000 PUSH1 0x20 DUP3 ADD MSTORE POP JUMP JUMPDEST PUSH32 0x45524332303A2064656372656173656420616C6C6F77616E63652062656C6F77 PUSH1 0x0 DUP3 ADD MSTORE PUSH32 0x207A65726F000000000000000000000000000000000000000000000000000000 PUSH1 0x20 DUP3 ADD MSTORE POP JUMP JUMPDEST PUSH2 0x171F DUP2 PUSH2 0x1386 JUMP JUMPDEST DUP2 EQ PUSH2 0x172A JUMPI PUSH1 0x0 DUP1 REVERT JUMPDEST POP JUMP JUMPDEST PUSH2 0x1736 DUP2 PUSH2 0x13C4 JUMP JUMPDEST DUP2 EQ PUSH2 0x1741 JUMPI PUSH1 0x0 DUP1 REVERT JUMPDEST POP JUMP INVALID LOG2 PUSH5 0x6970667358 0x22 SLT KECCAK256 0x1F SWAP6 JUMP MSIZE 0xC3 CALLER 0xCC 0xDB 0xCE RETURNDATACOPY REVERT 0xF8 0x4A 0xB1 0xDF 0xE PUSH16 0x87D6E2DEE810A0E39F0568E8793F6F64 PUSH20 0x6F6C634300080700330000000000000000000000 "
				},
				"gasEstimates": {
					"creation": {
						"codeDepositCost": "1202000",
						"executionCost": "infinite",
						"totalCost": "infinite"
					},
					"external": {
						"allocations(address)": "2903",
						"allowance(address,address)": "infinite",
						"approve(address,uint256)": "infinite",
						"balanceOf(address)": "2908",
						"decimals()": "388",
						"decreaseAllowance(address,uint256)": "infinite",
						"faucet(uint256)": "infinite",
						"inWei(uint256)": "infinite",
						"increaseAllowance(address,uint256)": "infinite",
						"name()": "infinite",
						"symbol()": "infinite",
						"totalSupply()": "2505",
						"transfer(address,uint256)": "infinite",
						"transferFrom(address,address,uint256)": "infinite"
					}
				},
				"methodIdentifiers": {
					"allocations(address)": "52a9039c",
					"allowance(address,address)": "dd62ed3e",
					"approve(address,uint256)": "095ea7b3",
					"balanceOf(address)": "70a08231",
					"decimals()": "313ce567",
					"decreaseAllowance(address,uint256)": "a457c2d7",
					"faucet(uint256)": "57915897",
					"inWei(uint256)": "64614c71",
					"increaseAllowance(address,uint256)": "39509351",
					"name()": "06fdde03",
					"symbol()": "95d89b41",
					"totalSupply()": "18160ddd",
					"transfer(address,uint256)": "a9059cbb",
					"transferFrom(address,address,uint256)": "23b872dd"
				}
			},
			"storageLayout": {
				"storage": [
					{
						"astId": 15,
						"contract": "Benz-Swap/tokens/TestToken.sol:TestnetToken",
						"label": "_balances",
						"offset": 0,
						"slot": "0",
						"type": "t_mapping(t_address,t_uint256)"
					},
					{
						"astId": 21,
						"contract": "Benz-Swap/tokens/TestToken.sol:TestnetToken",
						"label": "_allowances",
						"offset": 0,
						"slot": "1",
						"type": "t_mapping(t_address,t_mapping(t_address,t_uint256))"
					},
					{
						"astId": 23,
						"contract": "Benz-Swap/tokens/TestToken.sol:TestnetToken",
						"label": "_totalSupply",
						"offset": 0,
						"slot": "2",
						"type": "t_uint256"
					},
					{
						"astId": 25,
						"contract": "Benz-Swap/tokens/TestToken.sol:TestnetToken",
						"label": "_name",
						"offset": 0,
						"slot": "3",
						"type": "t_string_storage"
					},
					{
						"astId": 27,
						"contract": "Benz-Swap/tokens/TestToken.sol:TestnetToken",
						"label": "_symbol",
						"offset": 0,
						"slot": "4",
						"type": "t_string_storage"
					},
					{
						"astId": 722,
						"contract": "Benz-Swap/tokens/TestToken.sol:TestnetToken",
						"label": "MAX_ALLOCATION",
						"offset": 0,
						"slot": "5",
						"type": "t_uint256"
					},
					{
						"astId": 726,
						"contract": "Benz-Swap/tokens/TestToken.sol:TestnetToken",
						"label": "allocations",
						"offset": 0,
						"slot": "6",
						"type": "t_mapping(t_address,t_uint256)"
					}
				],
				"types": {
					"t_address": {
						"encoding": "inplace",
						"label": "address",
						"numberOfBytes": "20"
					},
					"t_mapping(t_address,t_mapping(t_address,t_uint256))": {
						"encoding": "mapping",
						"key": "t_address",
						"label": "mapping(address => mapping(address => uint256))",
						"numberOfBytes": "32",
						"value": "t_mapping(t_address,t_uint256)"
					},
					"t_mapping(t_address,t_uint256)": {
						"encoding": "mapping",
						"key": "t_address",
						"label": "mapping(address => uint256)",
						"numberOfBytes": "32",
						"value": "t_uint256"
					},
					"t_string_storage": {
						"encoding": "bytes",
						"label": "string",
						"numberOfBytes": "32"
					},
					"t_uint256": {
						"encoding": "inplace",
						"label": "uint256",
						"numberOfBytes": "32"
					}
				}
			},
			"userdoc": {
				"kind": "user",
				"methods": {},
				"version": 1
			}
		}
	}
}