{
	"Benz-Swap/feeds/PriceApi.sol": {
		"PriceApi": {
			"abi": [
				{
					"inputs": [
						{
							"internalType": "address",
							"name": "baseAddress",
							"type": "address"
						},
						{
							"internalType": "address",
							"name": "quoteAddress",
							"type": "address"
						}
					],
					"name": "getExchangeRate",
					"outputs": [
						{
							"internalType": "int256",
							"name": "",
							"type": "int256"
						}
					],
					"stateMutability": "view",
					"type": "function"
				}
			],
			"devdoc": {
				"kind": "dev",
				"methods": {},
				"version": 1
			},
			"evm": {
				"assembly": "    /* \"Benz-Swap/feeds/PriceApi.sol\":147:1862  contract PriceApi {... */\n  mstore(0x40, 0x80)\n  callvalue\n  dup1\n  iszero\n  tag_1\n  jumpi\n  0x00\n  dup1\n  revert\ntag_1:\n  pop\n  dataSize(sub_0)\n  dup1\n  dataOffset(sub_0)\n  0x00\n  codecopy\n  0x00\n  return\nstop\n\nsub_0: assembly {\n        /* \"Benz-Swap/feeds/PriceApi.sol\":147:1862  contract PriceApi {... */\n      mstore(0x40, 0x80)\n      callvalue\n      dup1\n      iszero\n      tag_1\n      jumpi\n      0x00\n      dup1\n      revert\n    tag_1:\n      pop\n      jumpi(tag_2, lt(calldatasize, 0x04))\n      shr(0xe0, calldataload(0x00))\n      dup1\n      0xbaaa61be\n      eq\n      tag_3\n      jumpi\n    tag_2:\n      0x00\n      dup1\n      revert\n        /* \"Benz-Swap/feeds/PriceApi.sol\":171:1378  function getExchangeRate(address baseAddress, address quoteAddress)... */\n    tag_3:\n      tag_4\n      0x04\n      dup1\n      calldatasize\n      sub\n      dup2\n      add\n      swap1\n      tag_5\n      swap2\n      swap1\n      tag_6\n      jump\t// in\n    tag_5:\n      tag_7\n      jump\t// in\n    tag_4:\n      mload(0x40)\n      tag_8\n      swap2\n      swap1\n      tag_9\n      jump\t// in\n    tag_8:\n      mload(0x40)\n      dup1\n      swap2\n      sub\n      swap1\n      return\n    tag_7:\n        /* \"Benz-Swap/feeds/PriceApi.sol\":284:290  int256 */\n      0x00\n        /* \"Benz-Swap/feeds/PriceApi.sol\":306:320  uint8 _decimal */\n      dup1\n        /* \"Benz-Swap/feeds/PriceApi.sol\":345:356  baseAddress */\n      dup4\n        /* \"Benz-Swap/feeds/PriceApi.sol\":323:366  AggregatorV3Interface(baseAddress).decimals */\n      0xffffffffffffffffffffffffffffffffffffffff\n      and\n      0x313ce567\n        /* \"Benz-Swap/feeds/PriceApi.sol\":323:368  AggregatorV3Interface(baseAddress).decimals() */\n      mload(0x40)\n      dup2\n      0xffffffff\n      and\n      0xe0\n      shl\n      dup2\n      mstore\n      0x04\n      add\n      0x20\n      mload(0x40)\n      dup1\n      dup4\n      sub\n      dup2\n      dup7\n      dup1\n      extcodesize\n      iszero\n      dup1\n      iszero\n      tag_11\n      jumpi\n      0x00\n      dup1\n      revert\n    tag_11:\n      pop\n      gas\n      staticcall\n      iszero\n      dup1\n      iszero\n      tag_13\n      jumpi\n      returndatasize\n      0x00\n      dup1\n      returndatacopy\n      revert(0x00, returndatasize)\n    tag_13:\n      pop\n      pop\n      pop\n      pop\n      mload(0x40)\n      returndatasize\n      not(0x1f)\n      0x1f\n      dup3\n      add\n      and\n      dup3\n      add\n      dup1\n      0x40\n      mstore\n      pop\n      dup2\n      add\n      swap1\n      tag_14\n      swap2\n      swap1\n      tag_15\n      jump\t// in\n    tag_14:\n        /* \"Benz-Swap/feeds/PriceApi.sol\":306:368  uint8 _decimal = AggregatorV3Interface(baseAddress).decimals() */\n      swap1\n      pop\n        /* \"Benz-Swap/feeds/PriceApi.sol\":448:449  0 */\n      0x00\n        /* \"Benz-Swap/feeds/PriceApi.sol\":431:450  _decimal > uint8(0) */\n      0xff\n      and\n        /* \"Benz-Swap/feeds/PriceApi.sol\":431:439  _decimal */\n      dup2\n        /* \"Benz-Swap/feeds/PriceApi.sol\":431:450  _decimal > uint8(0) */\n      0xff\n      and\n      gt\n        /* \"Benz-Swap/feeds/PriceApi.sol\":431:475  _decimal > uint8(0) && _decimal <= uint8(18) */\n      dup1\n      iszero\n      tag_16\n      jumpi\n      pop\n        /* \"Benz-Swap/feeds/PriceApi.sol\":472:474  18 */\n      0x12\n        /* \"Benz-Swap/feeds/PriceApi.sol\":454:475  _decimal <= uint8(18) */\n      0xff\n      and\n        /* \"Benz-Swap/feeds/PriceApi.sol\":454:462  _decimal */\n      dup2\n        /* \"Benz-Swap/feeds/PriceApi.sol\":454:475  _decimal <= uint8(18) */\n      0xff\n      and\n      gt\n      iszero\n        /* \"Benz-Swap/feeds/PriceApi.sol\":431:475  _decimal > uint8(0) && _decimal <= uint8(18) */\n    tag_16:\n        /* \"Benz-Swap/feeds/PriceApi.sol\":423:500  require(_decimal > uint8(0) && _decimal <= uint8(18), \"Unsupported Decimals\") */\n      tag_17\n      jumpi\n      mload(0x40)\n      0x08c379a000000000000000000000000000000000000000000000000000000000\n      dup2\n      mstore\n      0x04\n      add\n      tag_18\n      swap1\n      tag_19\n      jump\t// in\n    tag_18:\n      mload(0x40)\n      dup1\n      swap2\n      sub\n      swap1\n      revert\n    tag_17:\n        /* \"Benz-Swap/feeds/PriceApi.sol\":511:527  int256 _decimals */\n      0x00\n        /* \"Benz-Swap/feeds/PriceApi.sol\":549:557  _decimal */\n      dup2\n        /* \"Benz-Swap/feeds/PriceApi.sol\":541:558  uint256(_decimal) */\n      0xff\n      and\n        /* \"Benz-Swap/feeds/PriceApi.sol\":537:539  10 */\n      0x0a\n        /* \"Benz-Swap/feeds/PriceApi.sol\":537:558  10**uint256(_decimal) */\n      tag_20\n      swap2\n      swap1\n      tag_21\n      jump\t// in\n    tag_20:\n        /* \"Benz-Swap/feeds/PriceApi.sol\":511:559  int256 _decimals = int256(10**uint256(_decimal)) */\n      swap1\n      pop\n        /* \"Benz-Swap/feeds/PriceApi.sol\":635:651  int256 basePrice */\n      0x00\n        /* \"Benz-Swap/feeds/PriceApi.sol\":683:694  baseAddress */\n      dup6\n        /* \"Benz-Swap/feeds/PriceApi.sol\":661:711  AggregatorV3Interface(baseAddress).latestRoundData */\n      0xffffffffffffffffffffffffffffffffffffffff\n      and\n      0xfeaf968c\n        /* \"Benz-Swap/feeds/PriceApi.sol\":661:713  AggregatorV3Interface(baseAddress).latestRoundData() */\n      mload(0x40)\n      dup2\n      0xffffffff\n      and\n      0xe0\n      shl\n      dup2\n      mstore\n      0x04\n      add\n      0xa0\n      mload(0x40)\n      dup1\n      dup4\n      sub\n      dup2\n      dup7\n      dup1\n      extcodesize\n      iszero\n      dup1\n      iszero\n      tag_22\n      jumpi\n      0x00\n      dup1\n      revert\n    tag_22:\n      pop\n      gas\n      staticcall\n      iszero\n      dup1\n      iszero\n      tag_24\n      jumpi\n      returndatasize\n      0x00\n      dup1\n      returndatacopy\n      revert(0x00, returndatasize)\n    tag_24:\n      pop\n      pop\n      pop\n      pop\n      mload(0x40)\n      returndatasize\n      not(0x1f)\n      0x1f\n      dup3\n      add\n      and\n      dup3\n      add\n      dup1\n      0x40\n      mstore\n      pop\n      dup2\n      add\n      swap1\n      tag_25\n      swap2\n      swap1\n      tag_26\n      jump\t// in\n    tag_25:\n        /* \"Benz-Swap/feeds/PriceApi.sol\":632:713  (, int256 basePrice, , , ) = AggregatorV3Interface(baseAddress).latestRoundData() */\n      pop\n      pop\n      pop\n      swap2\n      pop\n      pop\n        /* \"Benz-Swap/feeds/PriceApi.sol\":763:781  uint8 baseDecimals */\n      0x00\n        /* \"Benz-Swap/feeds/PriceApi.sol\":806:817  baseAddress */\n      dup7\n        /* \"Benz-Swap/feeds/PriceApi.sol\":784:827  AggregatorV3Interface(baseAddress).decimals */\n      0xffffffffffffffffffffffffffffffffffffffff\n      and\n      0x313ce567\n        /* \"Benz-Swap/feeds/PriceApi.sol\":784:829  AggregatorV3Interface(baseAddress).decimals() */\n      mload(0x40)\n      dup2\n      0xffffffff\n      and\n      0xe0\n      shl\n      dup2\n      mstore\n      0x04\n      add\n      0x20\n      mload(0x40)\n      dup1\n      dup4\n      sub\n      dup2\n      dup7\n      dup1\n      extcodesize\n      iszero\n      dup1\n      iszero\n      tag_27\n      jumpi\n      0x00\n      dup1\n      revert\n    tag_27:\n      pop\n      gas\n      staticcall\n      iszero\n      dup1\n      iszero\n      tag_29\n      jumpi\n      returndatasize\n      0x00\n      dup1\n      returndatacopy\n      revert(0x00, returndatasize)\n    tag_29:\n      pop\n      pop\n      pop\n      pop\n      mload(0x40)\n      returndatasize\n      not(0x1f)\n      0x1f\n      dup3\n      add\n      and\n      dup3\n      add\n      dup1\n      0x40\n      mstore\n      pop\n      dup2\n      add\n      swap1\n      tag_30\n      swap2\n      swap1\n      tag_15\n      jump\t// in\n    tag_30:\n        /* \"Benz-Swap/feeds/PriceApi.sol\":763:829  uint8 baseDecimals = AggregatorV3Interface(baseAddress).decimals() */\n      swap1\n      pop\n        /* \"Benz-Swap/feeds/PriceApi.sol\":888:933  scalePrice(basePrice, baseDecimals, _decimal) */\n      tag_31\n        /* \"Benz-Swap/feeds/PriceApi.sol\":899:908  basePrice */\n      dup3\n        /* \"Benz-Swap/feeds/PriceApi.sol\":910:922  baseDecimals */\n      dup3\n        /* \"Benz-Swap/feeds/PriceApi.sol\":924:932  _decimal */\n      dup7\n        /* \"Benz-Swap/feeds/PriceApi.sol\":888:898  scalePrice */\n      tag_32\n        /* \"Benz-Swap/feeds/PriceApi.sol\":888:933  scalePrice(basePrice, baseDecimals, _decimal) */\n      jump\t// in\n    tag_31:\n        /* \"Benz-Swap/feeds/PriceApi.sol\":876:933  basePrice = scalePrice(basePrice, baseDecimals, _decimal) */\n      swap2\n      pop\n        /* \"Benz-Swap/feeds/PriceApi.sol\":1010:1027  int256 quotePrice */\n      0x00\n        /* \"Benz-Swap/feeds/PriceApi.sol\":1059:1071  quoteAddress */\n      dup7\n        /* \"Benz-Swap/feeds/PriceApi.sol\":1037:1088  AggregatorV3Interface(quoteAddress).latestRoundData */\n      0xffffffffffffffffffffffffffffffffffffffff\n      and\n      0xfeaf968c\n        /* \"Benz-Swap/feeds/PriceApi.sol\":1037:1090  AggregatorV3Interface(quoteAddress).latestRoundData() */\n      mload(0x40)\n      dup2\n      0xffffffff\n      and\n      0xe0\n      shl\n      dup2\n      mstore\n      0x04\n      add\n      0xa0\n      mload(0x40)\n      dup1\n      dup4\n      sub\n      dup2\n      dup7\n      dup1\n      extcodesize\n      iszero\n      dup1\n      iszero\n      tag_33\n      jumpi\n      0x00\n      dup1\n      revert\n    tag_33:\n      pop\n      gas\n      staticcall\n      iszero\n      dup1\n      iszero\n      tag_35\n      jumpi\n      returndatasize\n      0x00\n      dup1\n      returndatacopy\n      revert(0x00, returndatasize)\n    tag_35:\n      pop\n      pop\n      pop\n      pop\n      mload(0x40)\n      returndatasize\n      not(0x1f)\n      0x1f\n      dup3\n      add\n      and\n      dup3\n      add\n      dup1\n      0x40\n      mstore\n      pop\n      dup2\n      add\n      swap1\n      tag_36\n      swap2\n      swap1\n      tag_26\n      jump\t// in\n    tag_36:\n        /* \"Benz-Swap/feeds/PriceApi.sol\":1007:1090  (, int256 quotePrice, , , ) = AggregatorV3Interface(quoteAddress).latestRoundData() */\n      pop\n      pop\n      pop\n      swap2\n      pop\n      pop\n        /* \"Benz-Swap/feeds/PriceApi.sol\":1141:1160  uint8 quoteDecimals */\n      0x00\n        /* \"Benz-Swap/feeds/PriceApi.sol\":1185:1197  quoteAddress */\n      dup8\n        /* \"Benz-Swap/feeds/PriceApi.sol\":1163:1207  AggregatorV3Interface(quoteAddress).decimals */\n      0xffffffffffffffffffffffffffffffffffffffff\n      and\n      0x313ce567\n        /* \"Benz-Swap/feeds/PriceApi.sol\":1163:1209  AggregatorV3Interface(quoteAddress).decimals() */\n      mload(0x40)\n      dup2\n      0xffffffff\n      and\n      0xe0\n      shl\n      dup2\n      mstore\n      0x04\n      add\n      0x20\n      mload(0x40)\n      dup1\n      dup4\n      sub\n      dup2\n      dup7\n      dup1\n      extcodesize\n      iszero\n      dup1\n      iszero\n      tag_37\n      jumpi\n      0x00\n      dup1\n      revert\n    tag_37:\n      pop\n      gas\n      staticcall\n      iszero\n      dup1\n      iszero\n      tag_39\n      jumpi\n      returndatasize\n      0x00\n      dup1\n      returndatacopy\n      revert(0x00, returndatasize)\n    tag_39:\n      pop\n      pop\n      pop\n      pop\n      mload(0x40)\n      returndatasize\n      not(0x1f)\n      0x1f\n      dup3\n      add\n      and\n      dup3\n      add\n      dup1\n      0x40\n      mstore\n      pop\n      dup2\n      add\n      swap1\n      tag_40\n      swap2\n      swap1\n      tag_15\n      jump\t// in\n    tag_40:\n        /* \"Benz-Swap/feeds/PriceApi.sol\":1141:1209  uint8 quoteDecimals = AggregatorV3Interface(quoteAddress).decimals() */\n      swap1\n      pop\n        /* \"Benz-Swap/feeds/PriceApi.sol\":1270:1317  scalePrice(quotePrice, quoteDecimals, _decimal) */\n      tag_41\n        /* \"Benz-Swap/feeds/PriceApi.sol\":1281:1291  quotePrice */\n      dup3\n        /* \"Benz-Swap/feeds/PriceApi.sol\":1293:1306  quoteDecimals */\n      dup3\n        /* \"Benz-Swap/feeds/PriceApi.sol\":1308:1316  _decimal */\n      dup9\n        /* \"Benz-Swap/feeds/PriceApi.sol\":1270:1280  scalePrice */\n      tag_32\n        /* \"Benz-Swap/feeds/PriceApi.sol\":1270:1317  scalePrice(quotePrice, quoteDecimals, _decimal) */\n      jump\t// in\n    tag_41:\n        /* \"Benz-Swap/feeds/PriceApi.sol\":1257:1317  quotePrice = scalePrice(quotePrice, quoteDecimals, _decimal) */\n      swap2\n      pop\n        /* \"Benz-Swap/feeds/PriceApi.sol\":1361:1371  quotePrice */\n      dup2\n        /* \"Benz-Swap/feeds/PriceApi.sol\":1348:1357  _decimals */\n      dup6\n        /* \"Benz-Swap/feeds/PriceApi.sol\":1336:1345  basePrice */\n      dup6\n        /* \"Benz-Swap/feeds/PriceApi.sol\":1336:1357  basePrice * _decimals */\n      tag_42\n      swap2\n      swap1\n      tag_43\n      jump\t// in\n    tag_42:\n        /* \"Benz-Swap/feeds/PriceApi.sol\":1335:1371  (basePrice * _decimals) / quotePrice */\n      tag_44\n      swap2\n      swap1\n      tag_45\n      jump\t// in\n    tag_44:\n        /* \"Benz-Swap/feeds/PriceApi.sol\":1328:1371  return (basePrice * _decimals) / quotePrice */\n      swap7\n      pop\n      pop\n      pop\n      pop\n      pop\n      pop\n      pop\n        /* \"Benz-Swap/feeds/PriceApi.sol\":171:1378  function getExchangeRate(address baseAddress, address quoteAddress)... */\n      swap3\n      swap2\n      pop\n      pop\n      jump\t// out\n        /* \"Benz-Swap/feeds/PriceApi.sol\":1384:1860  function scalePrice(... */\n    tag_32:\n        /* \"Benz-Swap/feeds/PriceApi.sol\":1511:1517  int256 */\n      0x00\n        /* \"Benz-Swap/feeds/PriceApi.sol\":1605:1614  _decimals */\n      dup2\n        /* \"Benz-Swap/feeds/PriceApi.sol\":1588:1614  _priceDecimals < _decimals */\n      0xff\n      and\n        /* \"Benz-Swap/feeds/PriceApi.sol\":1588:1602  _priceDecimals */\n      dup4\n        /* \"Benz-Swap/feeds/PriceApi.sol\":1588:1614  _priceDecimals < _decimals */\n      0xff\n      and\n      lt\n        /* \"Benz-Swap/feeds/PriceApi.sol\":1584:1830  if (_priceDecimals < _decimals) {... */\n      iszero\n      tag_47\n      jumpi\n        /* \"Benz-Swap/feeds/PriceApi.sol\":1677:1691  _priceDecimals */\n      dup3\n        /* \"Benz-Swap/feeds/PriceApi.sol\":1665:1674  _decimals */\n      dup3\n        /* \"Benz-Swap/feeds/PriceApi.sol\":1665:1691  _decimals - _priceDecimals */\n      tag_48\n      swap2\n      swap1\n      tag_49\n      jump\t// in\n    tag_48:\n        /* \"Benz-Swap/feeds/PriceApi.sol\":1657:1692  uint256(_decimals - _priceDecimals) */\n      0xff\n      and\n        /* \"Benz-Swap/feeds/PriceApi.sol\":1653:1655  10 */\n      0x0a\n        /* \"Benz-Swap/feeds/PriceApi.sol\":1653:1692  10**uint256(_decimals - _priceDecimals) */\n      tag_50\n      swap2\n      swap1\n      tag_21\n      jump\t// in\n    tag_50:\n        /* \"Benz-Swap/feeds/PriceApi.sol\":1637:1643  _price */\n      dup5\n        /* \"Benz-Swap/feeds/PriceApi.sol\":1637:1693  _price * int256(10**uint256(_decimals - _priceDecimals)) */\n      tag_51\n      swap2\n      swap1\n      tag_43\n      jump\t// in\n    tag_51:\n        /* \"Benz-Swap/feeds/PriceApi.sol\":1630:1693  return _price * int256(10**uint256(_decimals - _priceDecimals)) */\n      swap1\n      pop\n      jump(tag_46)\n        /* \"Benz-Swap/feeds/PriceApi.sol\":1584:1830  if (_priceDecimals < _decimals) {... */\n    tag_47:\n        /* \"Benz-Swap/feeds/PriceApi.sol\":1731:1740  _decimals */\n      dup2\n        /* \"Benz-Swap/feeds/PriceApi.sol\":1714:1740  _priceDecimals > _decimals */\n      0xff\n      and\n        /* \"Benz-Swap/feeds/PriceApi.sol\":1714:1728  _priceDecimals */\n      dup4\n        /* \"Benz-Swap/feeds/PriceApi.sol\":1714:1740  _priceDecimals > _decimals */\n      0xff\n      and\n      gt\n        /* \"Benz-Swap/feeds/PriceApi.sol\":1710:1830  if (_priceDecimals > _decimals) {... */\n      iszero\n      tag_53\n      jumpi\n        /* \"Benz-Swap/feeds/PriceApi.sol\":1808:1817  _decimals */\n      dup2\n        /* \"Benz-Swap/feeds/PriceApi.sol\":1791:1805  _priceDecimals */\n      dup4\n        /* \"Benz-Swap/feeds/PriceApi.sol\":1791:1817  _priceDecimals - _decimals */\n      tag_54\n      swap2\n      swap1\n      tag_49\n      jump\t// in\n    tag_54:\n        /* \"Benz-Swap/feeds/PriceApi.sol\":1783:1818  uint256(_priceDecimals - _decimals) */\n      0xff\n      and\n        /* \"Benz-Swap/feeds/PriceApi.sol\":1779:1781  10 */\n      0x0a\n        /* \"Benz-Swap/feeds/PriceApi.sol\":1779:1818  10**uint256(_priceDecimals - _decimals) */\n      tag_55\n      swap2\n      swap1\n      tag_21\n      jump\t// in\n    tag_55:\n        /* \"Benz-Swap/feeds/PriceApi.sol\":1763:1769  _price */\n      dup5\n        /* \"Benz-Swap/feeds/PriceApi.sol\":1763:1819  _price / int256(10**uint256(_priceDecimals - _decimals)) */\n      tag_56\n      swap2\n      swap1\n      tag_45\n      jump\t// in\n    tag_56:\n        /* \"Benz-Swap/feeds/PriceApi.sol\":1756:1819  return _price / int256(10**uint256(_priceDecimals - _decimals)) */\n      swap1\n      pop\n      jump(tag_46)\n        /* \"Benz-Swap/feeds/PriceApi.sol\":1710:1830  if (_priceDecimals > _decimals) {... */\n    tag_53:\n        /* \"Benz-Swap/feeds/PriceApi.sol\":1847:1853  _price */\n      dup4\n        /* \"Benz-Swap/feeds/PriceApi.sol\":1840:1853  return _price */\n      swap1\n      pop\n        /* \"Benz-Swap/feeds/PriceApi.sol\":1384:1860  function scalePrice(... */\n    tag_46:\n      swap4\n      swap3\n      pop\n      pop\n      pop\n      jump\t// out\n        /* \"#utility.yul\":7:146   */\n    tag_58:\n        /* \"#utility.yul\":53:58   */\n      0x00\n        /* \"#utility.yul\":91:97   */\n      dup2\n        /* \"#utility.yul\":78:98   */\n      calldataload\n        /* \"#utility.yul\":69:98   */\n      swap1\n      pop\n        /* \"#utility.yul\":107:140   */\n      tag_60\n        /* \"#utility.yul\":134:139   */\n      dup2\n        /* \"#utility.yul\":107:140   */\n      tag_61\n      jump\t// in\n    tag_60:\n        /* \"#utility.yul\":7:146   */\n      swap3\n      swap2\n      pop\n      pop\n      jump\t// out\n        /* \"#utility.yul\":152:293   */\n    tag_62:\n        /* \"#utility.yul\":208:213   */\n      0x00\n        /* \"#utility.yul\":239:245   */\n      dup2\n        /* \"#utility.yul\":233:246   */\n      mload\n        /* \"#utility.yul\":224:246   */\n      swap1\n      pop\n        /* \"#utility.yul\":255:287   */\n      tag_64\n        /* \"#utility.yul\":281:286   */\n      dup2\n        /* \"#utility.yul\":255:287   */\n      tag_65\n      jump\t// in\n    tag_64:\n        /* \"#utility.yul\":152:293   */\n      swap3\n      swap2\n      pop\n      pop\n      jump\t// out\n        /* \"#utility.yul\":299:442   */\n    tag_66:\n        /* \"#utility.yul\":356:361   */\n      0x00\n        /* \"#utility.yul\":387:393   */\n      dup2\n        /* \"#utility.yul\":381:394   */\n      mload\n        /* \"#utility.yul\":372:394   */\n      swap1\n      pop\n        /* \"#utility.yul\":403:436   */\n      tag_68\n        /* \"#utility.yul\":430:435   */\n      dup2\n        /* \"#utility.yul\":403:436   */\n      tag_69\n      jump\t// in\n    tag_68:\n        /* \"#utility.yul\":299:442   */\n      swap3\n      swap2\n      pop\n      pop\n      jump\t// out\n        /* \"#utility.yul\":448:589   */\n    tag_70:\n        /* \"#utility.yul\":504:509   */\n      0x00\n        /* \"#utility.yul\":535:541   */\n      dup2\n        /* \"#utility.yul\":529:542   */\n      mload\n        /* \"#utility.yul\":520:542   */\n      swap1\n      pop\n        /* \"#utility.yul\":551:583   */\n      tag_72\n        /* \"#utility.yul\":577:582   */\n      dup2\n        /* \"#utility.yul\":551:583   */\n      tag_73\n      jump\t// in\n    tag_72:\n        /* \"#utility.yul\":448:589   */\n      swap3\n      swap2\n      pop\n      pop\n      jump\t// out\n        /* \"#utility.yul\":595:734   */\n    tag_74:\n        /* \"#utility.yul\":650:655   */\n      0x00\n        /* \"#utility.yul\":681:687   */\n      dup2\n        /* \"#utility.yul\":675:688   */\n      mload\n        /* \"#utility.yul\":666:688   */\n      swap1\n      pop\n        /* \"#utility.yul\":697:728   */\n      tag_76\n        /* \"#utility.yul\":722:727   */\n      dup2\n        /* \"#utility.yul\":697:728   */\n      tag_77\n      jump\t// in\n    tag_76:\n        /* \"#utility.yul\":595:734   */\n      swap3\n      swap2\n      pop\n      pop\n      jump\t// out\n        /* \"#utility.yul\":740:1214   */\n    tag_6:\n        /* \"#utility.yul\":808:814   */\n      0x00\n        /* \"#utility.yul\":816:822   */\n      dup1\n        /* \"#utility.yul\":865:867   */\n      0x40\n        /* \"#utility.yul\":853:862   */\n      dup4\n        /* \"#utility.yul\":844:851   */\n      dup6\n        /* \"#utility.yul\":840:863   */\n      sub\n        /* \"#utility.yul\":836:868   */\n      slt\n        /* \"#utility.yul\":833:952   */\n      iszero\n      tag_79\n      jumpi\n        /* \"#utility.yul\":871:950   */\n      tag_80\n      tag_81\n      jump\t// in\n    tag_80:\n        /* \"#utility.yul\":833:952   */\n    tag_79:\n        /* \"#utility.yul\":991:992   */\n      0x00\n        /* \"#utility.yul\":1016:1069   */\n      tag_82\n        /* \"#utility.yul\":1061:1068   */\n      dup6\n        /* \"#utility.yul\":1052:1058   */\n      dup3\n        /* \"#utility.yul\":1041:1050   */\n      dup7\n        /* \"#utility.yul\":1037:1059   */\n      add\n        /* \"#utility.yul\":1016:1069   */\n      tag_58\n      jump\t// in\n    tag_82:\n        /* \"#utility.yul\":1006:1069   */\n      swap3\n      pop\n        /* \"#utility.yul\":962:1079   */\n      pop\n        /* \"#utility.yul\":1118:1120   */\n      0x20\n        /* \"#utility.yul\":1144:1197   */\n      tag_83\n        /* \"#utility.yul\":1189:1196   */\n      dup6\n        /* \"#utility.yul\":1180:1186   */\n      dup3\n        /* \"#utility.yul\":1169:1178   */\n      dup7\n        /* \"#utility.yul\":1165:1187   */\n      add\n        /* \"#utility.yul\":1144:1197   */\n      tag_58\n      jump\t// in\n    tag_83:\n        /* \"#utility.yul\":1134:1197   */\n      swap2\n      pop\n        /* \"#utility.yul\":1089:1207   */\n      pop\n        /* \"#utility.yul\":740:1214   */\n      swap3\n      pop\n      swap3\n      swap1\n      pop\n      jump\t// out\n        /* \"#utility.yul\":1220:2191   */\n    tag_26:\n        /* \"#utility.yul\":1323:1329   */\n      0x00\n        /* \"#utility.yul\":1331:1337   */\n      dup1\n        /* \"#utility.yul\":1339:1345   */\n      0x00\n        /* \"#utility.yul\":1347:1353   */\n      dup1\n        /* \"#utility.yul\":1355:1361   */\n      0x00\n        /* \"#utility.yul\":1404:1407   */\n      0xa0\n        /* \"#utility.yul\":1392:1401   */\n      dup7\n        /* \"#utility.yul\":1383:1390   */\n      dup9\n        /* \"#utility.yul\":1379:1402   */\n      sub\n        /* \"#utility.yul\":1375:1408   */\n      slt\n        /* \"#utility.yul\":1372:1492   */\n      iszero\n      tag_85\n      jumpi\n        /* \"#utility.yul\":1411:1490   */\n      tag_86\n      tag_81\n      jump\t// in\n    tag_86:\n        /* \"#utility.yul\":1372:1492   */\n    tag_85:\n        /* \"#utility.yul\":1531:1532   */\n      0x00\n        /* \"#utility.yul\":1556:1619   */\n      tag_87\n        /* \"#utility.yul\":1611:1618   */\n      dup9\n        /* \"#utility.yul\":1602:1608   */\n      dup3\n        /* \"#utility.yul\":1591:1600   */\n      dup10\n        /* \"#utility.yul\":1587:1609   */\n      add\n        /* \"#utility.yul\":1556:1619   */\n      tag_70\n      jump\t// in\n    tag_87:\n        /* \"#utility.yul\":1546:1619   */\n      swap6\n      pop\n        /* \"#utility.yul\":1502:1629   */\n      pop\n        /* \"#utility.yul\":1668:1670   */\n      0x20\n        /* \"#utility.yul\":1694:1757   */\n      tag_88\n        /* \"#utility.yul\":1749:1756   */\n      dup9\n        /* \"#utility.yul\":1740:1746   */\n      dup3\n        /* \"#utility.yul\":1729:1738   */\n      dup10\n        /* \"#utility.yul\":1725:1747   */\n      add\n        /* \"#utility.yul\":1694:1757   */\n      tag_62\n      jump\t// in\n    tag_88:\n        /* \"#utility.yul\":1684:1757   */\n      swap5\n      pop\n        /* \"#utility.yul\":1639:1767   */\n      pop\n        /* \"#utility.yul\":1806:1808   */\n      0x40\n        /* \"#utility.yul\":1832:1896   */\n      tag_89\n        /* \"#utility.yul\":1888:1895   */\n      dup9\n        /* \"#utility.yul\":1879:1885   */\n      dup3\n        /* \"#utility.yul\":1868:1877   */\n      dup10\n        /* \"#utility.yul\":1864:1886   */\n      add\n        /* \"#utility.yul\":1832:1896   */\n      tag_66\n      jump\t// in\n    tag_89:\n        /* \"#utility.yul\":1822:1896   */\n      swap4\n      pop\n        /* \"#utility.yul\":1777:1906   */\n      pop\n        /* \"#utility.yul\":1945:1947   */\n      0x60\n        /* \"#utility.yul\":1971:2035   */\n      tag_90\n        /* \"#utility.yul\":2027:2034   */\n      dup9\n        /* \"#utility.yul\":2018:2024   */\n      dup3\n        /* \"#utility.yul\":2007:2016   */\n      dup10\n        /* \"#utility.yul\":2003:2025   */\n      add\n        /* \"#utility.yul\":1971:2035   */\n      tag_66\n      jump\t// in\n    tag_90:\n        /* \"#utility.yul\":1961:2035   */\n      swap3\n      pop\n        /* \"#utility.yul\":1916:2045   */\n      pop\n        /* \"#utility.yul\":2084:2087   */\n      0x80\n        /* \"#utility.yul\":2111:2174   */\n      tag_91\n        /* \"#utility.yul\":2166:2173   */\n      dup9\n        /* \"#utility.yul\":2157:2163   */\n      dup3\n        /* \"#utility.yul\":2146:2155   */\n      dup10\n        /* \"#utility.yul\":2142:2164   */\n      add\n        /* \"#utility.yul\":2111:2174   */\n      tag_70\n      jump\t// in\n    tag_91:\n        /* \"#utility.yul\":2101:2174   */\n      swap2\n      pop\n        /* \"#utility.yul\":2055:2184   */\n      pop\n        /* \"#utility.yul\":1220:2191   */\n      swap3\n      swap6\n      pop\n      swap3\n      swap6\n      swap1\n      swap4\n      pop\n      jump\t// out\n        /* \"#utility.yul\":2197:2544   */\n    tag_15:\n        /* \"#utility.yul\":2265:2271   */\n      0x00\n        /* \"#utility.yul\":2314:2316   */\n      0x20\n        /* \"#utility.yul\":2302:2311   */\n      dup3\n        /* \"#utility.yul\":2293:2300   */\n      dup5\n        /* \"#utility.yul\":2289:2312   */\n      sub\n        /* \"#utility.yul\":2285:2317   */\n      slt\n        /* \"#utility.yul\":2282:2401   */\n      iszero\n      tag_93\n      jumpi\n        /* \"#utility.yul\":2320:2399   */\n      tag_94\n      tag_81\n      jump\t// in\n    tag_94:\n        /* \"#utility.yul\":2282:2401   */\n    tag_93:\n        /* \"#utility.yul\":2440:2441   */\n      0x00\n        /* \"#utility.yul\":2465:2527   */\n      tag_95\n        /* \"#utility.yul\":2519:2526   */\n      dup5\n        /* \"#utility.yul\":2510:2516   */\n      dup3\n        /* \"#utility.yul\":2499:2508   */\n      dup6\n        /* \"#utility.yul\":2495:2517   */\n      add\n        /* \"#utility.yul\":2465:2527   */\n      tag_74\n      jump\t// in\n    tag_95:\n        /* \"#utility.yul\":2455:2527   */\n      swap2\n      pop\n        /* \"#utility.yul\":2411:2537   */\n      pop\n        /* \"#utility.yul\":2197:2544   */\n      swap3\n      swap2\n      pop\n      pop\n      jump\t// out\n        /* \"#utility.yul\":2550:2665   */\n    tag_96:\n        /* \"#utility.yul\":2635:2658   */\n      tag_98\n        /* \"#utility.yul\":2652:2657   */\n      dup2\n        /* \"#utility.yul\":2635:2658   */\n      tag_99\n      jump\t// in\n    tag_98:\n        /* \"#utility.yul\":2630:2633   */\n      dup3\n        /* \"#utility.yul\":2623:2659   */\n      mstore\n        /* \"#utility.yul\":2550:2665   */\n      pop\n      pop\n      jump\t// out\n        /* \"#utility.yul\":2671:3037   */\n    tag_100:\n        /* \"#utility.yul\":2813:2816   */\n      0x00\n        /* \"#utility.yul\":2834:2901   */\n      tag_102\n        /* \"#utility.yul\":2898:2900   */\n      0x14\n        /* \"#utility.yul\":2893:2896   */\n      dup4\n        /* \"#utility.yul\":2834:2901   */\n      tag_103\n      jump\t// in\n    tag_102:\n        /* \"#utility.yul\":2827:2901   */\n      swap2\n      pop\n        /* \"#utility.yul\":2910:3003   */\n      tag_104\n        /* \"#utility.yul\":2999:3002   */\n      dup3\n        /* \"#utility.yul\":2910:3003   */\n      tag_105\n      jump\t// in\n    tag_104:\n        /* \"#utility.yul\":3028:3030   */\n      0x20\n        /* \"#utility.yul\":3023:3026   */\n      dup3\n        /* \"#utility.yul\":3019:3031   */\n      add\n        /* \"#utility.yul\":3012:3031   */\n      swap1\n      pop\n        /* \"#utility.yul\":2671:3037   */\n      swap2\n      swap1\n      pop\n      jump\t// out\n        /* \"#utility.yul\":3043:3261   */\n    tag_9:\n        /* \"#utility.yul\":3134:3138   */\n      0x00\n        /* \"#utility.yul\":3172:3174   */\n      0x20\n        /* \"#utility.yul\":3161:3170   */\n      dup3\n        /* \"#utility.yul\":3157:3175   */\n      add\n        /* \"#utility.yul\":3149:3175   */\n      swap1\n      pop\n        /* \"#utility.yul\":3185:3254   */\n      tag_107\n        /* \"#utility.yul\":3251:3252   */\n      0x00\n        /* \"#utility.yul\":3240:3249   */\n      dup4\n        /* \"#utility.yul\":3236:3253   */\n      add\n        /* \"#utility.yul\":3227:3233   */\n      dup5\n        /* \"#utility.yul\":3185:3254   */\n      tag_96\n      jump\t// in\n    tag_107:\n        /* \"#utility.yul\":3043:3261   */\n      swap3\n      swap2\n      pop\n      pop\n      jump\t// out\n        /* \"#utility.yul\":3267:3686   */\n    tag_19:\n        /* \"#utility.yul\":3433:3437   */\n      0x00\n        /* \"#utility.yul\":3471:3473   */\n      0x20\n        /* \"#utility.yul\":3460:3469   */\n      dup3\n        /* \"#utility.yul\":3456:3474   */\n      add\n        /* \"#utility.yul\":3448:3474   */\n      swap1\n      pop\n        /* \"#utility.yul\":3520:3529   */\n      dup2\n        /* \"#utility.yul\":3514:3518   */\n      dup2\n        /* \"#utility.yul\":3510:3530   */\n      sub\n        /* \"#utility.yul\":3506:3507   */\n      0x00\n        /* \"#utility.yul\":3495:3504   */\n      dup4\n        /* \"#utility.yul\":3491:3508   */\n      add\n        /* \"#utility.yul\":3484:3531   */\n      mstore\n        /* \"#utility.yul\":3548:3679   */\n      tag_109\n        /* \"#utility.yul\":3674:3678   */\n      dup2\n        /* \"#utility.yul\":3548:3679   */\n      tag_100\n      jump\t// in\n    tag_109:\n        /* \"#utility.yul\":3540:3679   */\n      swap1\n      pop\n        /* \"#utility.yul\":3267:3686   */\n      swap2\n      swap1\n      pop\n      jump\t// out\n        /* \"#utility.yul\":3773:3942   */\n    tag_103:\n        /* \"#utility.yul\":3857:3868   */\n      0x00\n        /* \"#utility.yul\":3891:3897   */\n      dup3\n        /* \"#utility.yul\":3886:3889   */\n      dup3\n        /* \"#utility.yul\":3879:3898   */\n      mstore\n        /* \"#utility.yul\":3931:3935   */\n      0x20\n        /* \"#utility.yul\":3926:3929   */\n      dup3\n        /* \"#utility.yul\":3922:3936   */\n      add\n        /* \"#utility.yul\":3907:3936   */\n      swap1\n      pop\n        /* \"#utility.yul\":3773:3942   */\n      swap3\n      swap2\n      pop\n      pop\n      jump\t// out\n        /* \"#utility.yul\":3948:4333   */\n    tag_45:\n        /* \"#utility.yul\":3987:3988   */\n      0x00\n        /* \"#utility.yul\":4004:4023   */\n      tag_114\n        /* \"#utility.yul\":4021:4022   */\n      dup3\n        /* \"#utility.yul\":4004:4023   */\n      tag_99\n      jump\t// in\n    tag_114:\n        /* \"#utility.yul\":3999:4023   */\n      swap2\n      pop\n        /* \"#utility.yul\":4037:4056   */\n      tag_115\n        /* \"#utility.yul\":4054:4055   */\n      dup4\n        /* \"#utility.yul\":4037:4056   */\n      tag_99\n      jump\t// in\n    tag_115:\n        /* \"#utility.yul\":4032:4056   */\n      swap3\n      pop\n        /* \"#utility.yul\":4075:4076   */\n      dup3\n        /* \"#utility.yul\":4065:4100   */\n      tag_116\n      jumpi\n        /* \"#utility.yul\":4080:4098   */\n      tag_117\n      tag_118\n      jump\t// in\n    tag_117:\n        /* \"#utility.yul\":4065:4100   */\n    tag_116:\n        /* \"#utility.yul\":4266:4267   */\n      0x01\n        /* \"#utility.yul\":4263:4264   */\n      0x00\n        /* \"#utility.yul\":4259:4268   */\n      sub\n        /* \"#utility.yul\":4256:4257   */\n      dup4\n        /* \"#utility.yul\":4253:4269   */\n      eq\n        /* \"#utility.yul\":4172:4238   */\n      0x8000000000000000000000000000000000000000000000000000000000000000\n        /* \"#utility.yul\":4169:4170   */\n      dup4\n        /* \"#utility.yul\":4166:4239   */\n      eq\n        /* \"#utility.yul\":4149:4279   */\n      and\n        /* \"#utility.yul\":4146:4302   */\n      iszero\n      tag_119\n      jumpi\n        /* \"#utility.yul\":4282:4300   */\n      tag_120\n      tag_121\n      jump\t// in\n    tag_120:\n        /* \"#utility.yul\":4146:4302   */\n    tag_119:\n        /* \"#utility.yul\":4325:4326   */\n      dup3\n        /* \"#utility.yul\":4322:4323   */\n      dup3\n        /* \"#utility.yul\":4317:4327   */\n      sdiv\n        /* \"#utility.yul\":4312:4327   */\n      swap1\n      pop\n        /* \"#utility.yul\":3948:4333   */\n      swap3\n      swap2\n      pop\n      pop\n      jump\t// out\n        /* \"#utility.yul\":4339:5187   */\n    tag_122:\n        /* \"#utility.yul\":4400:4405   */\n      0x00\n        /* \"#utility.yul\":4407:4411   */\n      dup1\n        /* \"#utility.yul\":4431:4437   */\n      dup3\n        /* \"#utility.yul\":4422:4437   */\n      swap2\n      pop\n        /* \"#utility.yul\":4455:4460   */\n      dup4\n        /* \"#utility.yul\":4446:4460   */\n      swap1\n      pop\n        /* \"#utility.yul\":4469:5181   */\n    tag_124:\n        /* \"#utility.yul\":4490:4491   */\n      0x01\n        /* \"#utility.yul\":4480:4488   */\n      dup6\n        /* \"#utility.yul\":4477:4492   */\n      gt\n        /* \"#utility.yul\":4469:5181   */\n      iszero\n      tag_126\n      jumpi\n        /* \"#utility.yul\":4585:4589   */\n      dup1\n        /* \"#utility.yul\":4580:4583   */\n      dup7\n        /* \"#utility.yul\":4576:4590   */\n      div\n        /* \"#utility.yul\":4570:4574   */\n      dup2\n        /* \"#utility.yul\":4567:4591   */\n      gt\n        /* \"#utility.yul\":4564:4614   */\n      iszero\n      tag_127\n      jumpi\n        /* \"#utility.yul\":4594:4612   */\n      tag_128\n      tag_121\n      jump\t// in\n    tag_128:\n        /* \"#utility.yul\":4564:4614   */\n    tag_127:\n        /* \"#utility.yul\":4644:4645   */\n      0x01\n        /* \"#utility.yul\":4634:4642   */\n      dup6\n        /* \"#utility.yul\":4630:4646   */\n      and\n        /* \"#utility.yul\":4627:5078   */\n      iszero\n      tag_129\n      jumpi\n        /* \"#utility.yul\":5059:5063   */\n      dup1\n        /* \"#utility.yul\":5052:5057   */\n      dup3\n        /* \"#utility.yul\":5048:5064   */\n      mul\n        /* \"#utility.yul\":5039:5064   */\n      swap2\n      pop\n        /* \"#utility.yul\":4627:5078   */\n    tag_129:\n        /* \"#utility.yul\":5109:5113   */\n      dup1\n        /* \"#utility.yul\":5103:5107   */\n      dup2\n        /* \"#utility.yul\":5099:5114   */\n      mul\n        /* \"#utility.yul\":5091:5114   */\n      swap1\n      pop\n        /* \"#utility.yul\":5139:5171   */\n      tag_130\n        /* \"#utility.yul\":5162:5170   */\n      dup6\n        /* \"#utility.yul\":5139:5171   */\n      tag_131\n      jump\t// in\n    tag_130:\n        /* \"#utility.yul\":5127:5171   */\n      swap5\n      pop\n        /* \"#utility.yul\":4469:5181   */\n      jump(tag_124)\n    tag_126:\n        /* \"#utility.yul\":4339:5187   */\n      swap5\n      pop\n      swap5\n      swap3\n      pop\n      pop\n      pop\n      jump\t// out\n        /* \"#utility.yul\":5193:5478   */\n    tag_21:\n        /* \"#utility.yul\":5253:5258   */\n      0x00\n        /* \"#utility.yul\":5277:5300   */\n      tag_133\n        /* \"#utility.yul\":5295:5299   */\n      dup3\n        /* \"#utility.yul\":5277:5300   */\n      tag_134\n      jump\t// in\n    tag_133:\n        /* \"#utility.yul\":5269:5300   */\n      swap2\n      pop\n        /* \"#utility.yul\":5321:5348   */\n      tag_135\n        /* \"#utility.yul\":5339:5347   */\n      dup4\n        /* \"#utility.yul\":5321:5348   */\n      tag_134\n      jump\t// in\n    tag_135:\n        /* \"#utility.yul\":5309:5348   */\n      swap3\n      pop\n        /* \"#utility.yul\":5367:5471   */\n      tag_136\n        /* \"#utility.yul\":5404:5470   */\n      0xffffffffffffffffffffffffffffffffffffffffffffffffffffffffffffffff\n        /* \"#utility.yul\":5394:5402   */\n      dup5\n        /* \"#utility.yul\":5388:5392   */\n      dup5\n        /* \"#utility.yul\":5367:5471   */\n      tag_137\n      jump\t// in\n    tag_136:\n        /* \"#utility.yul\":5358:5471   */\n      swap1\n      pop\n        /* \"#utility.yul\":5193:5478   */\n      swap3\n      swap2\n      pop\n      pop\n      jump\t// out\n        /* \"#utility.yul\":5484:6557   */\n    tag_137:\n        /* \"#utility.yul\":5538:5543   */\n      0x00\n        /* \"#utility.yul\":5729:5737   */\n      dup3\n        /* \"#utility.yul\":5719:5759   */\n      tag_139\n      jumpi\n        /* \"#utility.yul\":5750:5751   */\n      0x01\n        /* \"#utility.yul\":5741:5751   */\n      swap1\n      pop\n        /* \"#utility.yul\":5752:5757   */\n      jump(tag_138)\n        /* \"#utility.yul\":5719:5759   */\n    tag_139:\n        /* \"#utility.yul\":5778:5782   */\n      dup2\n        /* \"#utility.yul\":5768:5804   */\n      tag_140\n      jumpi\n        /* \"#utility.yul\":5795:5796   */\n      0x00\n        /* \"#utility.yul\":5786:5796   */\n      swap1\n      pop\n        /* \"#utility.yul\":5797:5802   */\n      jump(tag_138)\n        /* \"#utility.yul\":5768:5804   */\n    tag_140:\n        /* \"#utility.yul\":5864:5868   */\n      dup2\n        /* \"#utility.yul\":5912:5913   */\n      0x01\n        /* \"#utility.yul\":5907:5934   */\n      dup2\n      eq\n      tag_142\n      jumpi\n        /* \"#utility.yul\":5948:5949   */\n      0x02\n        /* \"#utility.yul\":5943:6134   */\n      dup2\n      eq\n      tag_143\n      jumpi\n        /* \"#utility.yul\":5857:6134   */\n      jump(tag_141)\n        /* \"#utility.yul\":5907:5934   */\n    tag_142:\n        /* \"#utility.yul\":5925:5926   */\n      0x01\n        /* \"#utility.yul\":5916:5926   */\n      swap2\n      pop\n        /* \"#utility.yul\":5927:5932   */\n      pop\n      jump(tag_138)\n        /* \"#utility.yul\":5943:6134   */\n    tag_143:\n        /* \"#utility.yul\":5988:5991   */\n      0xff\n        /* \"#utility.yul\":5978:5986   */\n      dup5\n        /* \"#utility.yul\":5975:5992   */\n      gt\n        /* \"#utility.yul\":5972:6015   */\n      iszero\n      tag_144\n      jumpi\n        /* \"#utility.yul\":5995:6013   */\n      tag_145\n      tag_121\n      jump\t// in\n    tag_145:\n        /* \"#utility.yul\":5972:6015   */\n    tag_144:\n        /* \"#utility.yul\":6044:6052   */\n      dup4\n        /* \"#utility.yul\":6041:6042   */\n      0x02\n        /* \"#utility.yul\":6037:6053   */\n      exp\n        /* \"#utility.yul\":6028:6053   */\n      swap2\n      pop\n        /* \"#utility.yul\":6079:6082   */\n      dup5\n        /* \"#utility.yul\":6072:6077   */\n      dup3\n        /* \"#utility.yul\":6069:6083   */\n      gt\n        /* \"#utility.yul\":6066:6106   */\n      iszero\n      tag_146\n      jumpi\n        /* \"#utility.yul\":6086:6104   */\n      tag_147\n      tag_121\n      jump\t// in\n    tag_147:\n        /* \"#utility.yul\":6066:6106   */\n    tag_146:\n        /* \"#utility.yul\":6119:6124   */\n      pop\n      jump(tag_138)\n        /* \"#utility.yul\":5857:6134   */\n    tag_141:\n      pop\n        /* \"#utility.yul\":6243:6245   */\n      0x20\n        /* \"#utility.yul\":6233:6241   */\n      dup4\n        /* \"#utility.yul\":6230:6246   */\n      lt\n        /* \"#utility.yul\":6224:6227   */\n      0x0133\n        /* \"#utility.yul\":6218:6222   */\n      dup4\n        /* \"#utility.yul\":6215:6228   */\n      lt\n        /* \"#utility.yul\":6211:6247   */\n      and\n        /* \"#utility.yul\":6193:6195   */\n      0x4e\n        /* \"#utility.yul\":6183:6191   */\n      dup5\n        /* \"#utility.yul\":6180:6196   */\n      lt\n        /* \"#utility.yul\":6175:6177   */\n      0x0b\n        /* \"#utility.yul\":6169:6173   */\n      dup5\n        /* \"#utility.yul\":6166:6178   */\n      lt\n        /* \"#utility.yul\":6162:6197   */\n      and\n        /* \"#utility.yul\":6146:6257   */\n      or\n        /* \"#utility.yul\":6143:6389   */\n      iszero\n      tag_148\n      jumpi\n        /* \"#utility.yul\":6299:6307   */\n      dup3\n        /* \"#utility.yul\":6293:6297   */\n      dup3\n        /* \"#utility.yul\":6289:6308   */\n      exp\n        /* \"#utility.yul\":6280:6308   */\n      swap1\n      pop\n        /* \"#utility.yul\":6334:6337   */\n      dup4\n        /* \"#utility.yul\":6327:6332   */\n      dup2\n        /* \"#utility.yul\":6324:6338   */\n      gt\n        /* \"#utility.yul\":6321:6361   */\n      iszero\n      tag_149\n      jumpi\n        /* \"#utility.yul\":6341:6359   */\n      tag_150\n      tag_121\n      jump\t// in\n    tag_150:\n        /* \"#utility.yul\":6321:6361   */\n    tag_149:\n        /* \"#utility.yul\":6374:6379   */\n      jump(tag_138)\n        /* \"#utility.yul\":6143:6389   */\n    tag_148:\n        /* \"#utility.yul\":6414:6456   */\n      tag_151\n        /* \"#utility.yul\":6452:6455   */\n      dup5\n        /* \"#utility.yul\":6442:6450   */\n      dup5\n        /* \"#utility.yul\":6436:6440   */\n      dup5\n        /* \"#utility.yul\":6433:6434   */\n      0x01\n        /* \"#utility.yul\":6414:6456   */\n      tag_122\n      jump\t// in\n    tag_151:\n        /* \"#utility.yul\":6399:6456   */\n      swap3\n      pop\n      swap1\n      pop\n        /* \"#utility.yul\":6488:6492   */\n      dup2\n        /* \"#utility.yul\":6483:6486   */\n      dup5\n        /* \"#utility.yul\":6479:6493   */\n      div\n        /* \"#utility.yul\":6472:6477   */\n      dup2\n        /* \"#utility.yul\":6469:6494   */\n      gt\n        /* \"#utility.yul\":6466:6517   */\n      iszero\n      tag_152\n      jumpi\n        /* \"#utility.yul\":6497:6515   */\n      tag_153\n      tag_121\n      jump\t// in\n    tag_153:\n        /* \"#utility.yul\":6466:6517   */\n    tag_152:\n        /* \"#utility.yul\":6546:6550   */\n      dup2\n        /* \"#utility.yul\":6539:6544   */\n      dup2\n        /* \"#utility.yul\":6535:6551   */\n      mul\n        /* \"#utility.yul\":6526:6551   */\n      swap1\n      pop\n        /* \"#utility.yul\":5484:6557   */\n    tag_138:\n      swap4\n      swap3\n      pop\n      pop\n      pop\n      jump\t// out\n        /* \"#utility.yul\":6563:7554   */\n    tag_43:\n        /* \"#utility.yul\":6602:6609   */\n      0x00\n        /* \"#utility.yul\":6625:6644   */\n      tag_155\n        /* \"#utility.yul\":6642:6643   */\n      dup3\n        /* \"#utility.yul\":6625:6644   */\n      tag_99\n      jump\t// in\n    tag_155:\n        /* \"#utility.yul\":6620:6644   */\n      swap2\n      pop\n        /* \"#utility.yul\":6658:6677   */\n      tag_156\n        /* \"#utility.yul\":6675:6676   */\n      dup4\n        /* \"#utility.yul\":6658:6677   */\n      tag_99\n      jump\t// in\n    tag_156:\n        /* \"#utility.yul\":6653:6677   */\n      swap3\n      pop\n        /* \"#utility.yul\":6859:6860   */\n      dup3\n        /* \"#utility.yul\":6791:6857   */\n      0x7fffffffffffffffffffffffffffffffffffffffffffffffffffffffffffffff\n        /* \"#utility.yul\":6787:6861   */\n      div\n        /* \"#utility.yul\":6784:6785   */\n      dup3\n        /* \"#utility.yul\":6781:6862   */\n      gt\n        /* \"#utility.yul\":6776:6777   */\n      0x00\n        /* \"#utility.yul\":6773:6774   */\n      dup5\n        /* \"#utility.yul\":6769:6778   */\n      sgt\n        /* \"#utility.yul\":6765:6766   */\n      0x00\n        /* \"#utility.yul\":6762:6763   */\n      dup5\n        /* \"#utility.yul\":6758:6767   */\n      sgt\n        /* \"#utility.yul\":6754:6779   */\n      and\n        /* \"#utility.yul\":6750:6863   */\n      and\n        /* \"#utility.yul\":6747:6886   */\n      iszero\n      tag_157\n      jumpi\n        /* \"#utility.yul\":6866:6884   */\n      tag_158\n      tag_121\n      jump\t// in\n    tag_158:\n        /* \"#utility.yul\":6747:6886   */\n    tag_157:\n        /* \"#utility.yul\":7070:7071   */\n      dup2\n        /* \"#utility.yul\":7002:7068   */\n      0x8000000000000000000000000000000000000000000000000000000000000000\n        /* \"#utility.yul\":6997:7072   */\n      sdiv\n        /* \"#utility.yul\":6994:6995   */\n      dup4\n        /* \"#utility.yul\":6990:7073   */\n      slt\n        /* \"#utility.yul\":6985:6986   */\n      0x00\n        /* \"#utility.yul\":6982:6983   */\n      dup5\n        /* \"#utility.yul\":6978:6987   */\n      slt\n        /* \"#utility.yul\":6974:6975   */\n      0x00\n        /* \"#utility.yul\":6971:6972   */\n      dup5\n        /* \"#utility.yul\":6967:6976   */\n      sgt\n        /* \"#utility.yul\":6963:6988   */\n      and\n        /* \"#utility.yul\":6959:7074   */\n      and\n        /* \"#utility.yul\":6956:7097   */\n      iszero\n      tag_159\n      jumpi\n        /* \"#utility.yul\":7077:7095   */\n      tag_160\n      tag_121\n      jump\t// in\n    tag_160:\n        /* \"#utility.yul\":6956:7097   */\n    tag_159:\n        /* \"#utility.yul\":7281:7282   */\n      dup3\n        /* \"#utility.yul\":7213:7279   */\n      0x8000000000000000000000000000000000000000000000000000000000000000\n        /* \"#utility.yul\":7208:7283   */\n      sdiv\n        /* \"#utility.yul\":7205:7206   */\n      dup3\n        /* \"#utility.yul\":7201:7284   */\n      slt\n        /* \"#utility.yul\":7196:7197   */\n      0x00\n        /* \"#utility.yul\":7193:7194   */\n      dup5\n        /* \"#utility.yul\":7189:7198   */\n      sgt\n        /* \"#utility.yul\":7185:7186   */\n      0x00\n        /* \"#utility.yul\":7182:7183   */\n      dup5\n        /* \"#utility.yul\":7178:7187   */\n      slt\n        /* \"#utility.yul\":7174:7199   */\n      and\n        /* \"#utility.yul\":7170:7285   */\n      and\n        /* \"#utility.yul\":7167:7308   */\n      iszero\n      tag_161\n      jumpi\n        /* \"#utility.yul\":7288:7306   */\n      tag_162\n      tag_121\n      jump\t// in\n    tag_162:\n        /* \"#utility.yul\":7167:7308   */\n    tag_161:\n        /* \"#utility.yul\":7491:7492   */\n      dup3\n        /* \"#utility.yul\":7423:7489   */\n      0x7fffffffffffffffffffffffffffffffffffffffffffffffffffffffffffffff\n        /* \"#utility.yul\":7418:7493   */\n      sdiv\n        /* \"#utility.yul\":7415:7416   */\n      dup3\n        /* \"#utility.yul\":7411:7494   */\n      slt\n        /* \"#utility.yul\":7406:7407   */\n      0x00\n        /* \"#utility.yul\":7403:7404   */\n      dup5\n        /* \"#utility.yul\":7399:7408   */\n      slt\n        /* \"#utility.yul\":7395:7396   */\n      0x00\n        /* \"#utility.yul\":7392:7393   */\n      dup5\n        /* \"#utility.yul\":7388:7397   */\n      slt\n        /* \"#utility.yul\":7384:7409   */\n      and\n        /* \"#utility.yul\":7380:7495   */\n      and\n        /* \"#utility.yul\":7377:7518   */\n      iszero\n      tag_163\n      jumpi\n        /* \"#utility.yul\":7498:7516   */\n      tag_164\n      tag_121\n      jump\t// in\n    tag_164:\n        /* \"#utility.yul\":7377:7518   */\n    tag_163:\n        /* \"#utility.yul\":7546:7547   */\n      dup3\n        /* \"#utility.yul\":7543:7544   */\n      dup3\n        /* \"#utility.yul\":7539:7548   */\n      mul\n        /* \"#utility.yul\":7528:7548   */\n      swap1\n      pop\n        /* \"#utility.yul\":6563:7554   */\n      swap3\n      swap2\n      pop\n      pop\n      jump\t// out\n        /* \"#utility.yul\":7560:7745   */\n    tag_49:\n        /* \"#utility.yul\":7598:7602   */\n      0x00\n        /* \"#utility.yul\":7618:7636   */\n      tag_166\n        /* \"#utility.yul\":7634:7635   */\n      dup3\n        /* \"#utility.yul\":7618:7636   */\n      tag_167\n      jump\t// in\n    tag_166:\n        /* \"#utility.yul\":7613:7636   */\n      swap2\n      pop\n        /* \"#utility.yul\":7650:7668   */\n      tag_168\n        /* \"#utility.yul\":7666:7667   */\n      dup4\n        /* \"#utility.yul\":7650:7668   */\n      tag_167\n      jump\t// in\n    tag_168:\n        /* \"#utility.yul\":7645:7668   */\n      swap3\n      pop\n        /* \"#utility.yul\":7687:7688   */\n      dup3\n        /* \"#utility.yul\":7684:7685   */\n      dup3\n        /* \"#utility.yul\":7681:7689   */\n      lt\n        /* \"#utility.yul\":7678:7712   */\n      iszero\n      tag_169\n      jumpi\n        /* \"#utility.yul\":7692:7710   */\n      tag_170\n      tag_121\n      jump\t// in\n    tag_170:\n        /* \"#utility.yul\":7678:7712   */\n    tag_169:\n        /* \"#utility.yul\":7737:7738   */\n      dup3\n        /* \"#utility.yul\":7734:7735   */\n      dup3\n        /* \"#utility.yul\":7730:7739   */\n      sub\n        /* \"#utility.yul\":7722:7739   */\n      swap1\n      pop\n        /* \"#utility.yul\":7560:7745   */\n      swap3\n      swap2\n      pop\n      pop\n      jump\t// out\n        /* \"#utility.yul\":7751:7847   */\n    tag_171:\n        /* \"#utility.yul\":7788:7795   */\n      0x00\n        /* \"#utility.yul\":7817:7841   */\n      tag_173\n        /* \"#utility.yul\":7835:7840   */\n      dup3\n        /* \"#utility.yul\":7817:7841   */\n      tag_174\n      jump\t// in\n    tag_173:\n        /* \"#utility.yul\":7806:7841   */\n      swap1\n      pop\n        /* \"#utility.yul\":7751:7847   */\n      swap2\n      swap1\n      pop\n      jump\t// out\n        /* \"#utility.yul\":7853:7929   */\n    tag_99:\n        /* \"#utility.yul\":7889:7896   */\n      0x00\n        /* \"#utility.yul\":7918:7923   */\n      dup2\n        /* \"#utility.yul\":7907:7923   */\n      swap1\n      pop\n        /* \"#utility.yul\":7853:7929   */\n      swap2\n      swap1\n      pop\n      jump\t// out\n        /* \"#utility.yul\":7935:8061   */\n    tag_174:\n        /* \"#utility.yul\":7972:7979   */\n      0x00\n        /* \"#utility.yul\":8012:8054   */\n      0xffffffffffffffffffffffffffffffffffffffff\n        /* \"#utility.yul\":8005:8010   */\n      dup3\n        /* \"#utility.yul\":8001:8055   */\n      and\n        /* \"#utility.yul\":7990:8055   */\n      swap1\n      pop\n        /* \"#utility.yul\":7935:8061   */\n      swap2\n      swap1\n      pop\n      jump\t// out\n        /* \"#utility.yul\":8067:8144   */\n    tag_134:\n        /* \"#utility.yul\":8104:8111   */\n      0x00\n        /* \"#utility.yul\":8133:8138   */\n      dup2\n        /* \"#utility.yul\":8122:8138   */\n      swap1\n      pop\n        /* \"#utility.yul\":8067:8144   */\n      swap2\n      swap1\n      pop\n      jump\t// out\n        /* \"#utility.yul\":8150:8236   */\n    tag_167:\n        /* \"#utility.yul\":8185:8192   */\n      0x00\n        /* \"#utility.yul\":8225:8229   */\n      0xff\n        /* \"#utility.yul\":8218:8223   */\n      dup3\n        /* \"#utility.yul\":8214:8230   */\n      and\n        /* \"#utility.yul\":8203:8230   */\n      swap1\n      pop\n        /* \"#utility.yul\":8150:8236   */\n      swap2\n      swap1\n      pop\n      jump\t// out\n        /* \"#utility.yul\":8242:8347   */\n    tag_179:\n        /* \"#utility.yul\":8278:8285   */\n      0x00\n        /* \"#utility.yul\":8318:8340   */\n      0xffffffffffffffffffff\n        /* \"#utility.yul\":8311:8316   */\n      dup3\n        /* \"#utility.yul\":8307:8341   */\n      and\n        /* \"#utility.yul\":8296:8341   */\n      swap1\n      pop\n        /* \"#utility.yul\":8242:8347   */\n      swap2\n      swap1\n      pop\n      jump\t// out\n        /* \"#utility.yul\":8353:8533   */\n    tag_121:\n        /* \"#utility.yul\":8401:8478   */\n      0x4e487b7100000000000000000000000000000000000000000000000000000000\n        /* \"#utility.yul\":8398:8399   */\n      0x00\n        /* \"#utility.yul\":8391:8479   */\n      mstore\n        /* \"#utility.yul\":8498:8502   */\n      0x11\n        /* \"#utility.yul\":8495:8496   */\n      0x04\n        /* \"#utility.yul\":8488:8503   */\n      mstore\n        /* \"#utility.yul\":8522:8526   */\n      0x24\n        /* \"#utility.yul\":8519:8520   */\n      0x00\n        /* \"#utility.yul\":8512:8527   */\n      revert\n        /* \"#utility.yul\":8539:8719   */\n    tag_118:\n        /* \"#utility.yul\":8587:8664   */\n      0x4e487b7100000000000000000000000000000000000000000000000000000000\n        /* \"#utility.yul\":8584:8585   */\n      0x00\n        /* \"#utility.yul\":8577:8665   */\n      mstore\n        /* \"#utility.yul\":8684:8688   */\n      0x12\n        /* \"#utility.yul\":8681:8682   */\n      0x04\n        /* \"#utility.yul\":8674:8689   */\n      mstore\n        /* \"#utility.yul\":8708:8712   */\n      0x24\n        /* \"#utility.yul\":8705:8706   */\n      0x00\n        /* \"#utility.yul\":8698:8713   */\n      revert\n        /* \"#utility.yul\":8848:8965   */\n    tag_81:\n        /* \"#utility.yul\":8957:8958   */\n      0x00\n        /* \"#utility.yul\":8954:8955   */\n      dup1\n        /* \"#utility.yul\":8947:8959   */\n      revert\n        /* \"#utility.yul\":8971:9073   */\n    tag_131:\n        /* \"#utility.yul\":9013:9021   */\n      0x00\n        /* \"#utility.yul\":9060:9065   */\n      dup2\n        /* \"#utility.yul\":9057:9058   */\n      0x01\n        /* \"#utility.yul\":9053:9066   */\n      shr\n        /* \"#utility.yul\":9032:9066   */\n      swap1\n      pop\n        /* \"#utility.yul\":8971:9073   */\n      swap2\n      swap1\n      pop\n      jump\t// out\n        /* \"#utility.yul\":9079:9249   */\n    tag_105:\n        /* \"#utility.yul\":9219:9241   */\n      0x556e737570706f7274656420446563696d616c73000000000000000000000000\n        /* \"#utility.yul\":9215:9216   */\n      0x00\n        /* \"#utility.yul\":9207:9213   */\n      dup3\n        /* \"#utility.yul\":9203:9217   */\n      add\n        /* \"#utility.yul\":9196:9242   */\n      mstore\n        /* \"#utility.yul\":9079:9249   */\n      pop\n      jump\t// out\n        /* \"#utility.yul\":9255:9377   */\n    tag_61:\n        /* \"#utility.yul\":9328:9352   */\n      tag_189\n        /* \"#utility.yul\":9346:9351   */\n      dup2\n        /* \"#utility.yul\":9328:9352   */\n      tag_171\n      jump\t// in\n    tag_189:\n        /* \"#utility.yul\":9321:9326   */\n      dup2\n        /* \"#utility.yul\":9318:9353   */\n      eq\n        /* \"#utility.yul\":9308:9371   */\n      tag_190\n      jumpi\n        /* \"#utility.yul\":9367:9368   */\n      0x00\n        /* \"#utility.yul\":9364:9365   */\n      dup1\n        /* \"#utility.yul\":9357:9369   */\n      revert\n        /* \"#utility.yul\":9308:9371   */\n    tag_190:\n        /* \"#utility.yul\":9255:9377   */\n      pop\n      jump\t// out\n        /* \"#utility.yul\":9383:9503   */\n    tag_65:\n        /* \"#utility.yul\":9455:9478   */\n      tag_192\n        /* \"#utility.yul\":9472:9477   */\n      dup2\n        /* \"#utility.yul\":9455:9478   */\n      tag_99\n      jump\t// in\n    tag_192:\n        /* \"#utility.yul\":9448:9453   */\n      dup2\n        /* \"#utility.yul\":9445:9479   */\n      eq\n        /* \"#utility.yul\":9435:9497   */\n      tag_193\n      jumpi\n        /* \"#utility.yul\":9493:9494   */\n      0x00\n        /* \"#utility.yul\":9490:9491   */\n      dup1\n        /* \"#utility.yul\":9483:9495   */\n      revert\n        /* \"#utility.yul\":9435:9497   */\n    tag_193:\n        /* \"#utility.yul\":9383:9503   */\n      pop\n      jump\t// out\n        /* \"#utility.yul\":9509:9631   */\n    tag_69:\n        /* \"#utility.yul\":9582:9606   */\n      tag_195\n        /* \"#utility.yul\":9600:9605   */\n      dup2\n        /* \"#utility.yul\":9582:9606   */\n      tag_134\n      jump\t// in\n    tag_195:\n        /* \"#utility.yul\":9575:9580   */\n      dup2\n        /* \"#utility.yul\":9572:9607   */\n      eq\n        /* \"#utility.yul\":9562:9625   */\n      tag_196\n      jumpi\n        /* \"#utility.yul\":9621:9622   */\n      0x00\n        /* \"#utility.yul\":9618:9619   */\n      dup1\n        /* \"#utility.yul\":9611:9623   */\n      revert\n        /* \"#utility.yul\":9562:9625   */\n    tag_196:\n        /* \"#utility.yul\":9509:9631   */\n      pop\n      jump\t// out\n        /* \"#utility.yul\":9637:9755   */\n    tag_77:\n        /* \"#utility.yul\":9708:9730   */\n      tag_198\n        /* \"#utility.yul\":9724:9729   */\n      dup2\n        /* \"#utility.yul\":9708:9730   */\n      tag_167\n      jump\t// in\n    tag_198:\n        /* \"#utility.yul\":9701:9706   */\n      dup2\n        /* \"#utility.yul\":9698:9731   */\n      eq\n        /* \"#utility.yul\":9688:9749   */\n      tag_199\n      jumpi\n        /* \"#utility.yul\":9745:9746   */\n      0x00\n        /* \"#utility.yul\":9742:9743   */\n      dup1\n        /* \"#utility.yul\":9735:9747   */\n      revert\n        /* \"#utility.yul\":9688:9749   */\n    tag_199:\n        /* \"#utility.yul\":9637:9755   */\n      pop\n      jump\t// out\n        /* \"#utility.yul\":9761:9881   */\n    tag_73:\n        /* \"#utility.yul\":9833:9856   */\n      tag_201\n        /* \"#utility.yul\":9850:9855   */\n      dup2\n        /* \"#utility.yul\":9833:9856   */\n      tag_179\n      jump\t// in\n    tag_201:\n        /* \"#utility.yul\":9826:9831   */\n      dup2\n        /* \"#utility.yul\":9823:9857   */\n      eq\n        /* \"#utility.yul\":9813:9875   */\n      tag_202\n      jumpi\n        /* \"#utility.yul\":9871:9872   */\n      0x00\n        /* \"#utility.yul\":9868:9869   */\n      dup1\n        /* \"#utility.yul\":9861:9873   */\n      revert\n        /* \"#utility.yul\":9813:9875   */\n    tag_202:\n        /* \"#utility.yul\":9761:9881   */\n      pop\n      jump\t// out\n\n    auxdata: 0xa26469706673582212208962838ce3f3cb44900c2c89abe160e0a33d9b68cd7397de9a23be0648a9e81b64736f6c63430008070033\n}\n",
				"bytecode": {
					"linkReferences": {},
					"object": "608060405234801561001057600080fd5b50610ac5806100206000396000f3fe608060405234801561001057600080fd5b506004361061002b5760003560e01c8063baaa61be14610030575b600080fd5b61004a6004803603810190610045919061048e565b610060565b60405161005791906105a8565b60405180910390f35b6000808373ffffffffffffffffffffffffffffffffffffffff1663313ce5676040518163ffffffff1660e01b815260040160206040518083038186803b1580156100a957600080fd5b505afa1580156100bd573d6000803e3d6000fd5b505050506040513d601f19601f820116820180604052508101906100e19190610549565b9050600060ff168160ff161180156101005750601260ff168160ff1611155b61013f576040517f08c379a0000000000000000000000000000000000000000000000000000000008152600401610136906105c3565b60405180910390fd5b60008160ff16600a61015191906106b1565b905060008573ffffffffffffffffffffffffffffffffffffffff1663feaf968c6040518163ffffffff1660e01b815260040160a06040518083038186803b15801561019b57600080fd5b505afa1580156101af573d6000803e3d6000fd5b505050506040513d601f19601f820116820180604052508101906101d391906104ce565b50505091505060008673ffffffffffffffffffffffffffffffffffffffff1663313ce5676040518163ffffffff1660e01b815260040160206040518083038186803b15801561022157600080fd5b505afa158015610235573d6000803e3d6000fd5b505050506040513d601f19601f820116820180604052508101906102599190610549565b90506102668282866103a2565b915060008673ffffffffffffffffffffffffffffffffffffffff1663feaf968c6040518163ffffffff1660e01b815260040160a06040518083038186803b1580156102b057600080fd5b505afa1580156102c4573d6000803e3d6000fd5b505050506040513d601f19601f820116820180604052508101906102e891906104ce565b50505091505060008773ffffffffffffffffffffffffffffffffffffffff1663313ce5676040518163ffffffff1660e01b815260040160206040518083038186803b15801561033657600080fd5b505afa15801561034a573d6000803e3d6000fd5b505050506040513d601f19601f8201168201806040525081019061036e9190610549565b905061037b8282886103a2565b915081858561038a91906107cf565b61039491906105f4565b965050505050505092915050565b60008160ff168360ff1610156103df5782826103be91906108e6565b60ff16600a6103cd91906106b1565b846103d891906107cf565b905061041e565b8160ff168360ff16111561041a5781836103f991906108e6565b60ff16600a61040891906106b1565b8461041391906105f4565b905061041e565b8390505b9392505050565b60008135905061043481610a1c565b92915050565b60008151905061044981610a33565b92915050565b60008151905061045e81610a4a565b92915050565b60008151905061047381610a78565b92915050565b60008151905061048881610a61565b92915050565b600080604083850312156104a5576104a46109e1565b5b60006104b385828601610425565b92505060206104c485828601610425565b9150509250929050565b600080600080600060a086880312156104ea576104e96109e1565b5b60006104f888828901610464565b95505060206105098882890161043a565b945050604061051a8882890161044f565b935050606061052b8882890161044f565b925050608061053c88828901610464565b9150509295509295909350565b60006020828403121561055f5761055e6109e1565b5b600061056d84828501610479565b91505092915050565b61057f8161092c565b82525050565b60006105926014836105e3565b915061059d826109f3565b602082019050919050565b60006020820190506105bd6000830184610576565b92915050565b600060208201905081810360008301526105dc81610585565b9050919050565b600082825260208201905092915050565b60006105ff8261092c565b915061060a8361092c565b92508261061a576106196109b2565b5b600160000383147f80000000000000000000000000000000000000000000000000000000000000008314161561065357610652610983565b5b828205905092915050565b6000808291508390505b60018511156106a85780860481111561068457610683610983565b5b60018516156106935780820291505b80810290506106a1856109e6565b9450610668565b94509492505050565b60006106bc82610956565b91506106c783610956565b92506106f47fffffffffffffffffffffffffffffffffffffffffffffffffffffffffffffffff84846106fc565b905092915050565b60008261070c57600190506107c8565b8161071a57600090506107c8565b8160018114610730576002811461073a57610769565b60019150506107c8565b60ff84111561074c5761074b610983565b5b8360020a91508482111561076357610762610983565b5b506107c8565b5060208310610133831016604e8410600b841016171561079e5782820a90508381111561079957610798610983565b5b6107c8565b6107ab848484600161065e565b925090508184048111156107c2576107c1610983565b5b81810290505b9392505050565b60006107da8261092c565b91506107e58361092c565b9250827f7fffffffffffffffffffffffffffffffffffffffffffffffffffffffffffffff048211600084136000841316161561082457610823610983565b5b817f8000000000000000000000000000000000000000000000000000000000000000058312600084126000841316161561086157610860610983565b5b827f8000000000000000000000000000000000000000000000000000000000000000058212600084136000841216161561089e5761089d610983565b5b827f7fffffffffffffffffffffffffffffffffffffffffffffffffffffffffffffff05821260008412600084121616156108db576108da610983565b5b828202905092915050565b60006108f182610960565b91506108fc83610960565b92508282101561090f5761090e610983565b5b828203905092915050565b600061092582610936565b9050919050565b6000819050919050565b600073ffffffffffffffffffffffffffffffffffffffff82169050919050565b6000819050919050565b600060ff82169050919050565b600069ffffffffffffffffffff82169050919050565b7f4e487b7100000000000000000000000000000000000000000000000000000000600052601160045260246000fd5b7f4e487b7100000000000000000000000000000000000000000000000000000000600052601260045260246000fd5b600080fd5b60008160011c9050919050565b7f556e737570706f7274656420446563696d616c73000000000000000000000000600082015250565b610a258161091a565b8114610a3057600080fd5b50565b610a3c8161092c565b8114610a4757600080fd5b50565b610a5381610956565b8114610a5e57600080fd5b50565b610a6a81610960565b8114610a7557600080fd5b50565b610a818161096d565b8114610a8c57600080fd5b5056fea26469706673582212208962838ce3f3cb44900c2c89abe160e0a33d9b68cd7397de9a23be0648a9e81b64736f6c63430008070033",
					"opcodes": "PUSH1 0x80 PUSH1 0x40 MSTORE CALLVALUE DUP1 ISZERO PUSH2 0x10 JUMPI PUSH1 0x0 DUP1 REVERT JUMPDEST POP PUSH2 0xAC5 DUP1 PUSH2 0x20 PUSH1 0x0 CODECOPY PUSH1 0x0 RETURN INVALID PUSH1 0x80 PUSH1 0x40 MSTORE CALLVALUE DUP1 ISZERO PUSH2 0x10 JUMPI PUSH1 0x0 DUP1 REVERT JUMPDEST POP PUSH1 0x4 CALLDATASIZE LT PUSH2 0x2B JUMPI PUSH1 0x0 CALLDATALOAD PUSH1 0xE0 SHR DUP1 PUSH4 0xBAAA61BE EQ PUSH2 0x30 JUMPI JUMPDEST PUSH1 0x0 DUP1 REVERT JUMPDEST PUSH2 0x4A PUSH1 0x4 DUP1 CALLDATASIZE SUB DUP2 ADD SWAP1 PUSH2 0x45 SWAP2 SWAP1 PUSH2 0x48E JUMP JUMPDEST PUSH2 0x60 JUMP JUMPDEST PUSH1 0x40 MLOAD PUSH2 0x57 SWAP2 SWAP1 PUSH2 0x5A8 JUMP JUMPDEST PUSH1 0x40 MLOAD DUP1 SWAP2 SUB SWAP1 RETURN JUMPDEST PUSH1 0x0 DUP1 DUP4 PUSH20 0xFFFFFFFFFFFFFFFFFFFFFFFFFFFFFFFFFFFFFFFF AND PUSH4 0x313CE567 PUSH1 0x40 MLOAD DUP2 PUSH4 0xFFFFFFFF AND PUSH1 0xE0 SHL DUP2 MSTORE PUSH1 0x4 ADD PUSH1 0x20 PUSH1 0x40 MLOAD DUP1 DUP4 SUB DUP2 DUP7 DUP1 EXTCODESIZE ISZERO DUP1 ISZERO PUSH2 0xA9 JUMPI PUSH1 0x0 DUP1 REVERT JUMPDEST POP GAS STATICCALL ISZERO DUP1 ISZERO PUSH2 0xBD JUMPI RETURNDATASIZE PUSH1 0x0 DUP1 RETURNDATACOPY RETURNDATASIZE PUSH1 0x0 REVERT JUMPDEST POP POP POP POP PUSH1 0x40 MLOAD RETURNDATASIZE PUSH1 0x1F NOT PUSH1 0x1F DUP3 ADD AND DUP3 ADD DUP1 PUSH1 0x40 MSTORE POP DUP2 ADD SWAP1 PUSH2 0xE1 SWAP2 SWAP1 PUSH2 0x549 JUMP JUMPDEST SWAP1 POP PUSH1 0x0 PUSH1 0xFF AND DUP2 PUSH1 0xFF AND GT DUP1 ISZERO PUSH2 0x100 JUMPI POP PUSH1 0x12 PUSH1 0xFF AND DUP2 PUSH1 0xFF AND GT ISZERO JUMPDEST PUSH2 0x13F JUMPI PUSH1 0x40 MLOAD PUSH32 0x8C379A000000000000000000000000000000000000000000000000000000000 DUP2 MSTORE PUSH1 0x4 ADD PUSH2 0x136 SWAP1 PUSH2 0x5C3 JUMP JUMPDEST PUSH1 0x40 MLOAD DUP1 SWAP2 SUB SWAP1 REVERT JUMPDEST PUSH1 0x0 DUP2 PUSH1 0xFF AND PUSH1 0xA PUSH2 0x151 SWAP2 SWAP1 PUSH2 0x6B1 JUMP JUMPDEST SWAP1 POP PUSH1 0x0 DUP6 PUSH20 0xFFFFFFFFFFFFFFFFFFFFFFFFFFFFFFFFFFFFFFFF AND PUSH4 0xFEAF968C PUSH1 0x40 MLOAD DUP2 PUSH4 0xFFFFFFFF AND PUSH1 0xE0 SHL DUP2 MSTORE PUSH1 0x4 ADD PUSH1 0xA0 PUSH1 0x40 MLOAD DUP1 DUP4 SUB DUP2 DUP7 DUP1 EXTCODESIZE ISZERO DUP1 ISZERO PUSH2 0x19B JUMPI PUSH1 0x0 DUP1 REVERT JUMPDEST POP GAS STATICCALL ISZERO DUP1 ISZERO PUSH2 0x1AF JUMPI RETURNDATASIZE PUSH1 0x0 DUP1 RETURNDATACOPY RETURNDATASIZE PUSH1 0x0 REVERT JUMPDEST POP POP POP POP PUSH1 0x40 MLOAD RETURNDATASIZE PUSH1 0x1F NOT PUSH1 0x1F DUP3 ADD AND DUP3 ADD DUP1 PUSH1 0x40 MSTORE POP DUP2 ADD SWAP1 PUSH2 0x1D3 SWAP2 SWAP1 PUSH2 0x4CE JUMP JUMPDEST POP POP POP SWAP2 POP POP PUSH1 0x0 DUP7 PUSH20 0xFFFFFFFFFFFFFFFFFFFFFFFFFFFFFFFFFFFFFFFF AND PUSH4 0x313CE567 PUSH1 0x40 MLOAD DUP2 PUSH4 0xFFFFFFFF AND PUSH1 0xE0 SHL DUP2 MSTORE PUSH1 0x4 ADD PUSH1 0x20 PUSH1 0x40 MLOAD DUP1 DUP4 SUB DUP2 DUP7 DUP1 EXTCODESIZE ISZERO DUP1 ISZERO PUSH2 0x221 JUMPI PUSH1 0x0 DUP1 REVERT JUMPDEST POP GAS STATICCALL ISZERO DUP1 ISZERO PUSH2 0x235 JUMPI RETURNDATASIZE PUSH1 0x0 DUP1 RETURNDATACOPY RETURNDATASIZE PUSH1 0x0 REVERT JUMPDEST POP POP POP POP PUSH1 0x40 MLOAD RETURNDATASIZE PUSH1 0x1F NOT PUSH1 0x1F DUP3 ADD AND DUP3 ADD DUP1 PUSH1 0x40 MSTORE POP DUP2 ADD SWAP1 PUSH2 0x259 SWAP2 SWAP1 PUSH2 0x549 JUMP JUMPDEST SWAP1 POP PUSH2 0x266 DUP3 DUP3 DUP7 PUSH2 0x3A2 JUMP JUMPDEST SWAP2 POP PUSH1 0x0 DUP7 PUSH20 0xFFFFFFFFFFFFFFFFFFFFFFFFFFFFFFFFFFFFFFFF AND PUSH4 0xFEAF968C PUSH1 0x40 MLOAD DUP2 PUSH4 0xFFFFFFFF AND PUSH1 0xE0 SHL DUP2 MSTORE PUSH1 0x4 ADD PUSH1 0xA0 PUSH1 0x40 MLOAD DUP1 DUP4 SUB DUP2 DUP7 DUP1 EXTCODESIZE ISZERO DUP1 ISZERO PUSH2 0x2B0 JUMPI PUSH1 0x0 DUP1 REVERT JUMPDEST POP GAS STATICCALL ISZERO DUP1 ISZERO PUSH2 0x2C4 JUMPI RETURNDATASIZE PUSH1 0x0 DUP1 RETURNDATACOPY RETURNDATASIZE PUSH1 0x0 REVERT JUMPDEST POP POP POP POP PUSH1 0x40 MLOAD RETURNDATASIZE PUSH1 0x1F NOT PUSH1 0x1F DUP3 ADD AND DUP3 ADD DUP1 PUSH1 0x40 MSTORE POP DUP2 ADD SWAP1 PUSH2 0x2E8 SWAP2 SWAP1 PUSH2 0x4CE JUMP JUMPDEST POP POP POP SWAP2 POP POP PUSH1 0x0 DUP8 PUSH20 0xFFFFFFFFFFFFFFFFFFFFFFFFFFFFFFFFFFFFFFFF AND PUSH4 0x313CE567 PUSH1 0x40 MLOAD DUP2 PUSH4 0xFFFFFFFF AND PUSH1 0xE0 SHL DUP2 MSTORE PUSH1 0x4 ADD PUSH1 0x20 PUSH1 0x40 MLOAD DUP1 DUP4 SUB DUP2 DUP7 DUP1 EXTCODESIZE ISZERO DUP1 ISZERO PUSH2 0x336 JUMPI PUSH1 0x0 DUP1 REVERT JUMPDEST POP GAS STATICCALL ISZERO DUP1 ISZERO PUSH2 0x34A JUMPI RETURNDATASIZE PUSH1 0x0 DUP1 RETURNDATACOPY RETURNDATASIZE PUSH1 0x0 REVERT JUMPDEST POP POP POP POP PUSH1 0x40 MLOAD RETURNDATASIZE PUSH1 0x1F NOT PUSH1 0x1F DUP3 ADD AND DUP3 ADD DUP1 PUSH1 0x40 MSTORE POP DUP2 ADD SWAP1 PUSH2 0x36E SWAP2 SWAP1 PUSH2 0x549 JUMP JUMPDEST SWAP1 POP PUSH2 0x37B DUP3 DUP3 DUP9 PUSH2 0x3A2 JUMP JUMPDEST SWAP2 POP DUP2 DUP6 DUP6 PUSH2 0x38A SWAP2 SWAP1 PUSH2 0x7CF JUMP JUMPDEST PUSH2 0x394 SWAP2 SWAP1 PUSH2 0x5F4 JUMP JUMPDEST SWAP7 POP POP POP POP POP POP POP SWAP3 SWAP2 POP POP JUMP JUMPDEST PUSH1 0x0 DUP2 PUSH1 0xFF AND DUP4 PUSH1 0xFF AND LT ISZERO PUSH2 0x3DF JUMPI DUP3 DUP3 PUSH2 0x3BE SWAP2 SWAP1 PUSH2 0x8E6 JUMP JUMPDEST PUSH1 0xFF AND PUSH1 0xA PUSH2 0x3CD SWAP2 SWAP1 PUSH2 0x6B1 JUMP JUMPDEST DUP5 PUSH2 0x3D8 SWAP2 SWAP1 PUSH2 0x7CF JUMP JUMPDEST SWAP1 POP PUSH2 0x41E JUMP JUMPDEST DUP2 PUSH1 0xFF AND DUP4 PUSH1 0xFF AND GT ISZERO PUSH2 0x41A JUMPI DUP2 DUP4 PUSH2 0x3F9 SWAP2 SWAP1 PUSH2 0x8E6 JUMP JUMPDEST PUSH1 0xFF AND PUSH1 0xA PUSH2 0x408 SWAP2 SWAP1 PUSH2 0x6B1 JUMP JUMPDEST DUP5 PUSH2 0x413 SWAP2 SWAP1 PUSH2 0x5F4 JUMP JUMPDEST SWAP1 POP PUSH2 0x41E JUMP JUMPDEST DUP4 SWAP1 POP JUMPDEST SWAP4 SWAP3 POP POP POP JUMP JUMPDEST PUSH1 0x0 DUP2 CALLDATALOAD SWAP1 POP PUSH2 0x434 DUP2 PUSH2 0xA1C JUMP JUMPDEST SWAP3 SWAP2 POP POP JUMP JUMPDEST PUSH1 0x0 DUP2 MLOAD SWAP1 POP PUSH2 0x449 DUP2 PUSH2 0xA33 JUMP JUMPDEST SWAP3 SWAP2 POP POP JUMP JUMPDEST PUSH1 0x0 DUP2 MLOAD SWAP1 POP PUSH2 0x45E DUP2 PUSH2 0xA4A JUMP JUMPDEST SWAP3 SWAP2 POP POP JUMP JUMPDEST PUSH1 0x0 DUP2 MLOAD SWAP1 POP PUSH2 0x473 DUP2 PUSH2 0xA78 JUMP JUMPDEST SWAP3 SWAP2 POP POP JUMP JUMPDEST PUSH1 0x0 DUP2 MLOAD SWAP1 POP PUSH2 0x488 DUP2 PUSH2 0xA61 JUMP JUMPDEST SWAP3 SWAP2 POP POP JUMP JUMPDEST PUSH1 0x0 DUP1 PUSH1 0x40 DUP4 DUP6 SUB SLT ISZERO PUSH2 0x4A5 JUMPI PUSH2 0x4A4 PUSH2 0x9E1 JUMP JUMPDEST JUMPDEST PUSH1 0x0 PUSH2 0x4B3 DUP6 DUP3 DUP7 ADD PUSH2 0x425 JUMP JUMPDEST SWAP3 POP POP PUSH1 0x20 PUSH2 0x4C4 DUP6 DUP3 DUP7 ADD PUSH2 0x425 JUMP JUMPDEST SWAP2 POP POP SWAP3 POP SWAP3 SWAP1 POP JUMP JUMPDEST PUSH1 0x0 DUP1 PUSH1 0x0 DUP1 PUSH1 0x0 PUSH1 0xA0 DUP7 DUP9 SUB SLT ISZERO PUSH2 0x4EA JUMPI PUSH2 0x4E9 PUSH2 0x9E1 JUMP JUMPDEST JUMPDEST PUSH1 0x0 PUSH2 0x4F8 DUP9 DUP3 DUP10 ADD PUSH2 0x464 JUMP JUMPDEST SWAP6 POP POP PUSH1 0x20 PUSH2 0x509 DUP9 DUP3 DUP10 ADD PUSH2 0x43A JUMP JUMPDEST SWAP5 POP POP PUSH1 0x40 PUSH2 0x51A DUP9 DUP3 DUP10 ADD PUSH2 0x44F JUMP JUMPDEST SWAP4 POP POP PUSH1 0x60 PUSH2 0x52B DUP9 DUP3 DUP10 ADD PUSH2 0x44F JUMP JUMPDEST SWAP3 POP POP PUSH1 0x80 PUSH2 0x53C DUP9 DUP3 DUP10 ADD PUSH2 0x464 JUMP JUMPDEST SWAP2 POP POP SWAP3 SWAP6 POP SWAP3 SWAP6 SWAP1 SWAP4 POP JUMP JUMPDEST PUSH1 0x0 PUSH1 0x20 DUP3 DUP5 SUB SLT ISZERO PUSH2 0x55F JUMPI PUSH2 0x55E PUSH2 0x9E1 JUMP JUMPDEST JUMPDEST PUSH1 0x0 PUSH2 0x56D DUP5 DUP3 DUP6 ADD PUSH2 0x479 JUMP JUMPDEST SWAP2 POP POP SWAP3 SWAP2 POP POP JUMP JUMPDEST PUSH2 0x57F DUP2 PUSH2 0x92C JUMP JUMPDEST DUP3 MSTORE POP POP JUMP JUMPDEST PUSH1 0x0 PUSH2 0x592 PUSH1 0x14 DUP4 PUSH2 0x5E3 JUMP JUMPDEST SWAP2 POP PUSH2 0x59D DUP3 PUSH2 0x9F3 JUMP JUMPDEST PUSH1 0x20 DUP3 ADD SWAP1 POP SWAP2 SWAP1 POP JUMP JUMPDEST PUSH1 0x0 PUSH1 0x20 DUP3 ADD SWAP1 POP PUSH2 0x5BD PUSH1 0x0 DUP4 ADD DUP5 PUSH2 0x576 JUMP JUMPDEST SWAP3 SWAP2 POP POP JUMP JUMPDEST PUSH1 0x0 PUSH1 0x20 DUP3 ADD SWAP1 POP DUP2 DUP2 SUB PUSH1 0x0 DUP4 ADD MSTORE PUSH2 0x5DC DUP2 PUSH2 0x585 JUMP JUMPDEST SWAP1 POP SWAP2 SWAP1 POP JUMP JUMPDEST PUSH1 0x0 DUP3 DUP3 MSTORE PUSH1 0x20 DUP3 ADD SWAP1 POP SWAP3 SWAP2 POP POP JUMP JUMPDEST PUSH1 0x0 PUSH2 0x5FF DUP3 PUSH2 0x92C JUMP JUMPDEST SWAP2 POP PUSH2 0x60A DUP4 PUSH2 0x92C JUMP JUMPDEST SWAP3 POP DUP3 PUSH2 0x61A JUMPI PUSH2 0x619 PUSH2 0x9B2 JUMP JUMPDEST JUMPDEST PUSH1 0x1 PUSH1 0x0 SUB DUP4 EQ PUSH32 0x8000000000000000000000000000000000000000000000000000000000000000 DUP4 EQ AND ISZERO PUSH2 0x653 JUMPI PUSH2 0x652 PUSH2 0x983 JUMP JUMPDEST JUMPDEST DUP3 DUP3 SDIV SWAP1 POP SWAP3 SWAP2 POP POP JUMP JUMPDEST PUSH1 0x0 DUP1 DUP3 SWAP2 POP DUP4 SWAP1 POP JUMPDEST PUSH1 0x1 DUP6 GT ISZERO PUSH2 0x6A8 JUMPI DUP1 DUP7 DIV DUP2 GT ISZERO PUSH2 0x684 JUMPI PUSH2 0x683 PUSH2 0x983 JUMP JUMPDEST JUMPDEST PUSH1 0x1 DUP6 AND ISZERO PUSH2 0x693 JUMPI DUP1 DUP3 MUL SWAP2 POP JUMPDEST DUP1 DUP2 MUL SWAP1 POP PUSH2 0x6A1 DUP6 PUSH2 0x9E6 JUMP JUMPDEST SWAP5 POP PUSH2 0x668 JUMP JUMPDEST SWAP5 POP SWAP5 SWAP3 POP POP POP JUMP JUMPDEST PUSH1 0x0 PUSH2 0x6BC DUP3 PUSH2 0x956 JUMP JUMPDEST SWAP2 POP PUSH2 0x6C7 DUP4 PUSH2 0x956 JUMP JUMPDEST SWAP3 POP PUSH2 0x6F4 PUSH32 0xFFFFFFFFFFFFFFFFFFFFFFFFFFFFFFFFFFFFFFFFFFFFFFFFFFFFFFFFFFFFFFFF DUP5 DUP5 PUSH2 0x6FC JUMP JUMPDEST SWAP1 POP SWAP3 SWAP2 POP POP JUMP JUMPDEST PUSH1 0x0 DUP3 PUSH2 0x70C JUMPI PUSH1 0x1 SWAP1 POP PUSH2 0x7C8 JUMP JUMPDEST DUP2 PUSH2 0x71A JUMPI PUSH1 0x0 SWAP1 POP PUSH2 0x7C8 JUMP JUMPDEST DUP2 PUSH1 0x1 DUP2 EQ PUSH2 0x730 JUMPI PUSH1 0x2 DUP2 EQ PUSH2 0x73A JUMPI PUSH2 0x769 JUMP JUMPDEST PUSH1 0x1 SWAP2 POP POP PUSH2 0x7C8 JUMP JUMPDEST PUSH1 0xFF DUP5 GT ISZERO PUSH2 0x74C JUMPI PUSH2 0x74B PUSH2 0x983 JUMP JUMPDEST JUMPDEST DUP4 PUSH1 0x2 EXP SWAP2 POP DUP5 DUP3 GT ISZERO PUSH2 0x763 JUMPI PUSH2 0x762 PUSH2 0x983 JUMP JUMPDEST JUMPDEST POP PUSH2 0x7C8 JUMP JUMPDEST POP PUSH1 0x20 DUP4 LT PUSH2 0x133 DUP4 LT AND PUSH1 0x4E DUP5 LT PUSH1 0xB DUP5 LT AND OR ISZERO PUSH2 0x79E JUMPI DUP3 DUP3 EXP SWAP1 POP DUP4 DUP2 GT ISZERO PUSH2 0x799 JUMPI PUSH2 0x798 PUSH2 0x983 JUMP JUMPDEST JUMPDEST PUSH2 0x7C8 JUMP JUMPDEST PUSH2 0x7AB DUP5 DUP5 DUP5 PUSH1 0x1 PUSH2 0x65E JUMP JUMPDEST SWAP3 POP SWAP1 POP DUP2 DUP5 DIV DUP2 GT ISZERO PUSH2 0x7C2 JUMPI PUSH2 0x7C1 PUSH2 0x983 JUMP JUMPDEST JUMPDEST DUP2 DUP2 MUL SWAP1 POP JUMPDEST SWAP4 SWAP3 POP POP POP JUMP JUMPDEST PUSH1 0x0 PUSH2 0x7DA DUP3 PUSH2 0x92C JUMP JUMPDEST SWAP2 POP PUSH2 0x7E5 DUP4 PUSH2 0x92C JUMP JUMPDEST SWAP3 POP DUP3 PUSH32 0x7FFFFFFFFFFFFFFFFFFFFFFFFFFFFFFFFFFFFFFFFFFFFFFFFFFFFFFFFFFFFFFF DIV DUP3 GT PUSH1 0x0 DUP5 SGT PUSH1 0x0 DUP5 SGT AND AND ISZERO PUSH2 0x824 JUMPI PUSH2 0x823 PUSH2 0x983 JUMP JUMPDEST JUMPDEST DUP2 PUSH32 0x8000000000000000000000000000000000000000000000000000000000000000 SDIV DUP4 SLT PUSH1 0x0 DUP5 SLT PUSH1 0x0 DUP5 SGT AND AND ISZERO PUSH2 0x861 JUMPI PUSH2 0x860 PUSH2 0x983 JUMP JUMPDEST JUMPDEST DUP3 PUSH32 0x8000000000000000000000000000000000000000000000000000000000000000 SDIV DUP3 SLT PUSH1 0x0 DUP5 SGT PUSH1 0x0 DUP5 SLT AND AND ISZERO PUSH2 0x89E JUMPI PUSH2 0x89D PUSH2 0x983 JUMP JUMPDEST JUMPDEST DUP3 PUSH32 0x7FFFFFFFFFFFFFFFFFFFFFFFFFFFFFFFFFFFFFFFFFFFFFFFFFFFFFFFFFFFFFFF SDIV DUP3 SLT PUSH1 0x0 DUP5 SLT PUSH1 0x0 DUP5 SLT AND AND ISZERO PUSH2 0x8DB JUMPI PUSH2 0x8DA PUSH2 0x983 JUMP JUMPDEST JUMPDEST DUP3 DUP3 MUL SWAP1 POP SWAP3 SWAP2 POP POP JUMP JUMPDEST PUSH1 0x0 PUSH2 0x8F1 DUP3 PUSH2 0x960 JUMP JUMPDEST SWAP2 POP PUSH2 0x8FC DUP4 PUSH2 0x960 JUMP JUMPDEST SWAP3 POP DUP3 DUP3 LT ISZERO PUSH2 0x90F JUMPI PUSH2 0x90E PUSH2 0x983 JUMP JUMPDEST JUMPDEST DUP3 DUP3 SUB SWAP1 POP SWAP3 SWAP2 POP POP JUMP JUMPDEST PUSH1 0x0 PUSH2 0x925 DUP3 PUSH2 0x936 JUMP JUMPDEST SWAP1 POP SWAP2 SWAP1 POP JUMP JUMPDEST PUSH1 0x0 DUP2 SWAP1 POP SWAP2 SWAP1 POP JUMP JUMPDEST PUSH1 0x0 PUSH20 0xFFFFFFFFFFFFFFFFFFFFFFFFFFFFFFFFFFFFFFFF DUP3 AND SWAP1 POP SWAP2 SWAP1 POP JUMP JUMPDEST PUSH1 0x0 DUP2 SWAP1 POP SWAP2 SWAP1 POP JUMP JUMPDEST PUSH1 0x0 PUSH1 0xFF DUP3 AND SWAP1 POP SWAP2 SWAP1 POP JUMP JUMPDEST PUSH1 0x0 PUSH10 0xFFFFFFFFFFFFFFFFFFFF DUP3 AND SWAP1 POP SWAP2 SWAP1 POP JUMP JUMPDEST PUSH32 0x4E487B7100000000000000000000000000000000000000000000000000000000 PUSH1 0x0 MSTORE PUSH1 0x11 PUSH1 0x4 MSTORE PUSH1 0x24 PUSH1 0x0 REVERT JUMPDEST PUSH32 0x4E487B7100000000000000000000000000000000000000000000000000000000 PUSH1 0x0 MSTORE PUSH1 0x12 PUSH1 0x4 MSTORE PUSH1 0x24 PUSH1 0x0 REVERT JUMPDEST PUSH1 0x0 DUP1 REVERT JUMPDEST PUSH1 0x0 DUP2 PUSH1 0x1 SHR SWAP1 POP SWAP2 SWAP1 POP JUMP JUMPDEST PUSH32 0x556E737570706F7274656420446563696D616C73000000000000000000000000 PUSH1 0x0 DUP3 ADD MSTORE POP JUMP JUMPDEST PUSH2 0xA25 DUP2 PUSH2 0x91A JUMP JUMPDEST DUP2 EQ PUSH2 0xA30 JUMPI PUSH1 0x0 DUP1 REVERT JUMPDEST POP JUMP JUMPDEST PUSH2 0xA3C DUP2 PUSH2 0x92C JUMP JUMPDEST DUP2 EQ PUSH2 0xA47 JUMPI PUSH1 0x0 DUP1 REVERT JUMPDEST POP JUMP JUMPDEST PUSH2 0xA53 DUP2 PUSH2 0x956 JUMP JUMPDEST DUP2 EQ PUSH2 0xA5E JUMPI PUSH1 0x0 DUP1 REVERT JUMPDEST POP JUMP JUMPDEST PUSH2 0xA6A DUP2 PUSH2 0x960 JUMP JUMPDEST DUP2 EQ PUSH2 0xA75 JUMPI PUSH1 0x0 DUP1 REVERT JUMPDEST POP JUMP JUMPDEST PUSH2 0xA81 DUP2 PUSH2 0x96D JUMP JUMPDEST DUP2 EQ PUSH2 0xA8C JUMPI PUSH1 0x0 DUP1 REVERT JUMPDEST POP JUMP INVALID LOG2 PUSH5 0x6970667358 0x22 SLT KECCAK256 DUP10 PUSH3 0x838CE3 RETURN 0xCB DIFFICULTY SWAP1 0xC 0x2C DUP10 0xAB 0xE1 PUSH1 0xE0 LOG3 RETURNDATASIZE SWAP12 PUSH9 0xCD7397DE9A23BE0648 0xA9 0xE8 SHL PUSH5 0x736F6C6343 STOP ADDMOD SMOD STOP CALLER "
				},
				"gasEstimates": {
					"creation": {
						"codeDepositCost": "551400",
						"executionCost": "587",
						"totalCost": "551987"
					},
					"external": {
						"getExchangeRate(address,address)": "infinite"
					},
					"internal": {
						"scalePrice(int256,uint8,uint8)": "infinite"
					}
				},
				"methodIdentifiers": {
					"getExchangeRate(address,address)": "baaa61be"
				}
			},
			"storageLayout": {
				"storage": [],
				"types": null
			},
			"userdoc": {
				"kind": "user",
				"methods": {},
				"version": 1
			}
		}
	}
}