{
	"Benz-Swap/core/Benz-Swap.sol": {
		"BenzSwap": {
			"abi": [
				{
					"inputs": [
						{
							"internalType": "address",
							"name": "priceApI",
							"type": "address"
						}
					],
					"stateMutability": "nonpayable",
					"type": "constructor"
				},
				{
					"inputs": [],
					"name": "BENZ_PAIR",
					"outputs": [
						{
							"internalType": "address",
							"name": "",
							"type": "address"
						}
					],
					"stateMutability": "view",
					"type": "function"
				},
				{
					"inputs": [],
					"name": "NATIVE_PAIR",
					"outputs": [
						{
							"internalType": "address",
							"name": "",
							"type": "address"
						}
					],
					"stateMutability": "view",
					"type": "function"
				},
				{
					"inputs": [
						{
							"internalType": "address",
							"name": "token0",
							"type": "address"
						},
						{
							"internalType": "uint256",
							"name": "amount0",
							"type": "uint256"
						},
						{
							"internalType": "uint256",
							"name": "amount1",
							"type": "uint256"
						},
						{
							"internalType": "address",
							"name": "owner",
							"type": "address"
						}
					],
					"name": "_transferSwappedTokens1",
					"outputs": [
						{
							"internalType": "uint256",
							"name": "",
							"type": "uint256"
						}
					],
					"stateMutability": "payable",
					"type": "function"
				},
				{
					"inputs": [
						{
							"internalType": "address",
							"name": "token0",
							"type": "address"
						},
						{
							"internalType": "address",
							"name": "token1",
							"type": "address"
						},
						{
							"internalType": "uint256",
							"name": "amount0",
							"type": "uint256"
						}
					],
					"name": "estimate",
					"outputs": [
						{
							"internalType": "uint256",
							"name": "",
							"type": "uint256"
						}
					],
					"stateMutability": "view",
					"type": "function"
				},
				{
					"inputs": [],
					"name": "getContractAddress",
					"outputs": [
						{
							"internalType": "address",
							"name": "",
							"type": "address"
						}
					],
					"stateMutability": "view",
					"type": "function"
				},
				{
					"inputs": [
						{
							"internalType": "address",
							"name": "",
							"type": "address"
						}
					],
					"name": "pairs",
					"outputs": [
						{
							"internalType": "address",
							"name": "",
							"type": "address"
						}
					],
					"stateMutability": "view",
					"type": "function"
				}
			],
			"devdoc": {
				"kind": "dev",
				"methods": {},
				"version": 1
			},
			"evm": {
				"assembly": "    /* \"Benz-Swap/core/Benz-Swap.sol\":190:3385  contract BenzSwap {... */\n  mstore(0x40, 0x80)\n    /* \"Benz-Swap/core/Benz-Swap.sol\":379:381  20 */\n  0x14\n    /* \"Benz-Swap/core/Benz-Swap.sol\":356:381  uint private swapFee = 20 */\n  0x02\n  sstore\n    /* \"Benz-Swap/core/Benz-Swap.sol\":608:727  constructor(address priceApI) {... */\n  callvalue\n  dup1\n  iszero\n  tag_1\n  jumpi\n  0x00\n  dup1\n  revert\ntag_1:\n  pop\n  mload(0x40)\n  sub(codesize, bytecodeSize)\n  dup1\n  bytecodeSize\n  dup4\n  codecopy\n  dup2\n  dup2\n  add\n  0x40\n  mstore\n  dup2\n  add\n  swap1\n  tag_2\n  swap2\n  swap1\n  tag_3\n  jump\t// in\ntag_2:\n    /* \"Benz-Swap/core/Benz-Swap.sol\":669:677  priceApI */\n  dup1\n    /* \"Benz-Swap/core/Benz-Swap.sol\":648:657  _priceApi */\n  0x00\n  dup1\n    /* \"Benz-Swap/core/Benz-Swap.sol\":648:678  _priceApi = PriceApi(priceApI) */\n  0x0100\n  exp\n  dup2\n  sload\n  dup2\n  0xffffffffffffffffffffffffffffffffffffffff\n  mul\n  not\n  and\n  swap1\n  dup4\n  0xffffffffffffffffffffffffffffffffffffffff\n  and\n  mul\n  or\n  swap1\n  sstore\n  pop\n    /* \"Benz-Swap/core/Benz-Swap.sol\":700:710  msg.sender */\n  caller\n    /* \"Benz-Swap/core/Benz-Swap.sol\":688:697  _deployer */\n  0x01\n  0x00\n    /* \"Benz-Swap/core/Benz-Swap.sol\":688:710  _deployer = msg.sender */\n  0x0100\n  exp\n  dup2\n  sload\n  dup2\n  0xffffffffffffffffffffffffffffffffffffffff\n  mul\n  not\n  and\n  swap1\n  dup4\n  0xffffffffffffffffffffffffffffffffffffffff\n  and\n  mul\n  or\n  swap1\n  sstore\n  pop\n    /* \"Benz-Swap/core/Benz-Swap.sol\":608:727  constructor(address priceApI) {... */\n  pop\n    /* \"Benz-Swap/core/Benz-Swap.sol\":190:3385  contract BenzSwap {... */\n  jump(tag_6)\n    /* \"#utility.yul\":7:150   */\ntag_8:\n    /* \"#utility.yul\":64:69   */\n  0x00\n    /* \"#utility.yul\":95:101   */\n  dup2\n    /* \"#utility.yul\":89:102   */\n  mload\n    /* \"#utility.yul\":80:102   */\n  swap1\n  pop\n    /* \"#utility.yul\":111:144   */\n  tag_10\n    /* \"#utility.yul\":138:143   */\n  dup2\n    /* \"#utility.yul\":111:144   */\n  tag_11\n  jump\t// in\ntag_10:\n    /* \"#utility.yul\":7:150   */\n  swap3\n  swap2\n  pop\n  pop\n  jump\t// out\n    /* \"#utility.yul\":156:507   */\ntag_3:\n    /* \"#utility.yul\":226:232   */\n  0x00\n    /* \"#utility.yul\":275:277   */\n  0x20\n    /* \"#utility.yul\":263:272   */\n  dup3\n    /* \"#utility.yul\":254:261   */\n  dup5\n    /* \"#utility.yul\":250:273   */\n  sub\n    /* \"#utility.yul\":246:278   */\n  slt\n    /* \"#utility.yul\":243:362   */\n  iszero\n  tag_13\n  jumpi\n    /* \"#utility.yul\":281:360   */\n  tag_14\n  tag_15\n  jump\t// in\ntag_14:\n    /* \"#utility.yul\":243:362   */\ntag_13:\n    /* \"#utility.yul\":401:402   */\n  0x00\n    /* \"#utility.yul\":426:490   */\n  tag_16\n    /* \"#utility.yul\":482:489   */\n  dup5\n    /* \"#utility.yul\":473:479   */\n  dup3\n    /* \"#utility.yul\":462:471   */\n  dup6\n    /* \"#utility.yul\":458:480   */\n  add\n    /* \"#utility.yul\":426:490   */\n  tag_8\n  jump\t// in\ntag_16:\n    /* \"#utility.yul\":416:490   */\n  swap2\n  pop\n    /* \"#utility.yul\":372:500   */\n  pop\n    /* \"#utility.yul\":156:507   */\n  swap3\n  swap2\n  pop\n  pop\n  jump\t// out\n    /* \"#utility.yul\":594:690   */\ntag_19:\n    /* \"#utility.yul\":631:638   */\n  0x00\n    /* \"#utility.yul\":660:684   */\n  tag_21\n    /* \"#utility.yul\":678:683   */\n  dup3\n    /* \"#utility.yul\":660:684   */\n  tag_22\n  jump\t// in\ntag_21:\n    /* \"#utility.yul\":649:684   */\n  swap1\n  pop\n    /* \"#utility.yul\":594:690   */\n  swap2\n  swap1\n  pop\n  jump\t// out\n    /* \"#utility.yul\":696:822   */\ntag_22:\n    /* \"#utility.yul\":733:740   */\n  0x00\n    /* \"#utility.yul\":773:815   */\n  0xffffffffffffffffffffffffffffffffffffffff\n    /* \"#utility.yul\":766:771   */\n  dup3\n    /* \"#utility.yul\":762:816   */\n  and\n    /* \"#utility.yul\":751:816   */\n  swap1\n  pop\n    /* \"#utility.yul\":696:822   */\n  swap2\n  swap1\n  pop\n  jump\t// out\n    /* \"#utility.yul\":951:1068   */\ntag_15:\n    /* \"#utility.yul\":1060:1061   */\n  0x00\n    /* \"#utility.yul\":1057:1058   */\n  dup1\n    /* \"#utility.yul\":1050:1062   */\n  revert\n    /* \"#utility.yul\":1074:1196   */\ntag_11:\n    /* \"#utility.yul\":1147:1171   */\n  tag_28\n    /* \"#utility.yul\":1165:1170   */\n  dup2\n    /* \"#utility.yul\":1147:1171   */\n  tag_19\n  jump\t// in\ntag_28:\n    /* \"#utility.yul\":1140:1145   */\n  dup2\n    /* \"#utility.yul\":1137:1172   */\n  eq\n    /* \"#utility.yul\":1127:1190   */\n  tag_29\n  jumpi\n    /* \"#utility.yul\":1186:1187   */\n  0x00\n    /* \"#utility.yul\":1183:1184   */\n  dup1\n    /* \"#utility.yul\":1176:1188   */\n  revert\n    /* \"#utility.yul\":1127:1190   */\ntag_29:\n    /* \"#utility.yul\":1074:1196   */\n  pop\n  jump\t// out\n    /* \"Benz-Swap/core/Benz-Swap.sol\":190:3385  contract BenzSwap {... */\ntag_6:\n  dataSize(sub_0)\n  dup1\n  dataOffset(sub_0)\n  0x00\n  codecopy\n  0x00\n  return\nstop\n\nsub_0: assembly {\n        /* \"Benz-Swap/core/Benz-Swap.sol\":190:3385  contract BenzSwap {... */\n      mstore(0x40, 0x80)\n      jumpi(tag_1, lt(calldatasize, 0x04))\n      shr(0xe0, calldataload(0x00))\n      dup1\n      0x061bf045\n      eq\n      tag_2\n      jumpi\n      dup1\n      0x102a5f91\n      eq\n      tag_3\n      jumpi\n      dup1\n      0x32a2c5d0\n      eq\n      tag_4\n      jumpi\n      dup1\n      0x344bfb59\n      eq\n      tag_5\n      jumpi\n      dup1\n      0xaf049d55\n      eq\n      tag_6\n      jumpi\n      dup1\n      0xfe33b302\n      eq\n      tag_7\n      jumpi\n    tag_1:\n      0x00\n      dup1\n      revert\n        /* \"Benz-Swap/core/Benz-Swap.sol\":1774:2429  function _transferSwappedTokens1(... */\n    tag_2:\n      tag_8\n      0x04\n      dup1\n      calldatasize\n      sub\n      dup2\n      add\n      swap1\n      tag_9\n      swap2\n      swap1\n      tag_10\n      jump\t// in\n    tag_9:\n      tag_11\n      jump\t// in\n    tag_8:\n      mload(0x40)\n      tag_12\n      swap2\n      swap1\n      tag_13\n      jump\t// in\n    tag_12:\n      mload(0x40)\n      dup1\n      swap2\n      sub\n      swap1\n      return\n        /* \"Benz-Swap/core/Benz-Swap.sol\":827:1104  function estimate(... */\n    tag_3:\n      callvalue\n      dup1\n      iszero\n      tag_14\n      jumpi\n      0x00\n      dup1\n      revert\n    tag_14:\n      pop\n      tag_15\n      0x04\n      dup1\n      calldatasize\n      sub\n      dup2\n      add\n      swap1\n      tag_16\n      swap2\n      swap1\n      tag_17\n      jump\t// in\n    tag_16:\n      tag_18\n      jump\t// in\n    tag_15:\n      mload(0x40)\n      tag_19\n      swap2\n      swap1\n      tag_13\n      jump\t// in\n    tag_19:\n      mload(0x40)\n      dup1\n      swap2\n      sub\n      swap1\n      return\n        /* \"Benz-Swap/core/Benz-Swap.sol\":1146:1243  function getContractAddress() public view returns (address) {... */\n    tag_4:\n      callvalue\n      dup1\n      iszero\n      tag_20\n      jumpi\n      0x00\n      dup1\n      revert\n    tag_20:\n      pop\n      tag_21\n      tag_22\n      jump\t// in\n    tag_21:\n      mload(0x40)\n      tag_23\n      swap2\n      swap1\n      tag_24\n      jump\t// in\n    tag_23:\n      mload(0x40)\n      dup1\n      swap2\n      sub\n      swap1\n      return\n        /* \"Benz-Swap/core/Benz-Swap.sol\":545:571  address public NATIVE_PAIR */\n    tag_5:\n      callvalue\n      dup1\n      iszero\n      tag_25\n      jumpi\n      0x00\n      dup1\n      revert\n    tag_25:\n      pop\n      tag_26\n      tag_27\n      jump\t// in\n    tag_26:\n      mload(0x40)\n      tag_28\n      swap2\n      swap1\n      tag_24\n      jump\t// in\n    tag_28:\n      mload(0x40)\n      dup1\n      swap2\n      sub\n      swap1\n      return\n        /* \"Benz-Swap/core/Benz-Swap.sol\":577:601  address public BENZ_PAIR */\n    tag_6:\n      callvalue\n      dup1\n      iszero\n      tag_29\n      jumpi\n      0x00\n      dup1\n      revert\n    tag_29:\n      pop\n      tag_30\n      tag_31\n      jump\t// in\n    tag_30:\n      mload(0x40)\n      tag_32\n      swap2\n      swap1\n      tag_24\n      jump\t// in\n    tag_32:\n      mload(0x40)\n      dup1\n      swap2\n      sub\n      swap1\n      return\n        /* \"Benz-Swap/core/Benz-Swap.sol\":499:539  mapping(address => address) public pairs */\n    tag_7:\n      callvalue\n      dup1\n      iszero\n      tag_33\n      jumpi\n      0x00\n      dup1\n      revert\n    tag_33:\n      pop\n      tag_34\n      0x04\n      dup1\n      calldatasize\n      sub\n      dup2\n      add\n      swap1\n      tag_35\n      swap2\n      swap1\n      tag_36\n      jump\t// in\n    tag_35:\n      tag_37\n      jump\t// in\n    tag_34:\n      mload(0x40)\n      tag_38\n      swap2\n      swap1\n      tag_24\n      jump\t// in\n    tag_38:\n      mload(0x40)\n      dup1\n      swap2\n      sub\n      swap1\n      return\n        /* \"Benz-Swap/core/Benz-Swap.sol\":1774:2429  function _transferSwappedTokens1(... */\n    tag_11:\n        /* \"Benz-Swap/core/Benz-Swap.sol\":1934:1941  uint256 */\n      0x00\n        /* \"Benz-Swap/core/Benz-Swap.sol\":1953:1969  IERC20 baseToken */\n      dup1\n        /* \"Benz-Swap/core/Benz-Swap.sol\":1979:1985  token0 */\n      dup6\n        /* \"Benz-Swap/core/Benz-Swap.sol\":1953:1986  IERC20 baseToken = IERC20(token0) */\n      swap1\n      pop\n        /* \"Benz-Swap/core/Benz-Swap.sol\":1997:2009  uint256 _fee */\n      0x00\n        /* \"Benz-Swap/core/Benz-Swap.sol\":2032:2039  swapFee */\n      sload(0x02)\n        /* \"Benz-Swap/core/Benz-Swap.sol\":2024:2028  1000 */\n      0x03e8\n        /* \"Benz-Swap/core/Benz-Swap.sol\":2014:2021  amount1 */\n      dup7\n        /* \"Benz-Swap/core/Benz-Swap.sol\":2014:2028  amount1 / 1000 */\n      tag_40\n      swap2\n      swap1\n      tag_41\n      jump\t// in\n    tag_40:\n        /* \"Benz-Swap/core/Benz-Swap.sol\":2013:2039  (amount1 / 1000) * swapFee */\n      tag_42\n      swap2\n      swap1\n      tag_43\n      jump\t// in\n    tag_42:\n        /* \"Benz-Swap/core/Benz-Swap.sol\":1997:2040  uint256 _fee = ((amount1 / 1000) * swapFee) */\n      swap1\n      pop\n        /* \"Benz-Swap/core/Benz-Swap.sol\":2051:2060  baseToken */\n      dup2\n        /* \"Benz-Swap/core/Benz-Swap.sol\":2051:2073  baseToken.transferFrom */\n      0xffffffffffffffffffffffffffffffffffffffff\n      and\n      0x23b872dd\n        /* \"Benz-Swap/core/Benz-Swap.sol\":2074:2079  owner */\n      dup6\n        /* \"Benz-Swap/core/Benz-Swap.sol\":2089:2093  this */\n      address\n        /* \"Benz-Swap/core/Benz-Swap.sol\":2096:2103  amount0 */\n      dup10\n        /* \"Benz-Swap/core/Benz-Swap.sol\":2051:2104  baseToken.transferFrom(owner, address(this), amount0) */\n      mload(0x40)\n      dup5\n      0xffffffff\n      and\n      0xe0\n      shl\n      dup2\n      mstore\n      0x04\n      add\n      tag_44\n      swap4\n      swap3\n      swap2\n      swap1\n      tag_45\n      jump\t// in\n    tag_44:\n      0x20\n      mload(0x40)\n      dup1\n      dup4\n      sub\n      dup2\n      0x00\n      dup8\n      dup1\n      extcodesize\n      iszero\n      dup1\n      iszero\n      tag_46\n      jumpi\n      0x00\n      dup1\n      revert\n    tag_46:\n      pop\n      gas\n      call\n      iszero\n      dup1\n      iszero\n      tag_48\n      jumpi\n      returndatasize\n      0x00\n      dup1\n      returndatacopy\n      revert(0x00, returndatasize)\n    tag_48:\n      pop\n      pop\n      pop\n      pop\n      mload(0x40)\n      returndatasize\n      not(0x1f)\n      0x1f\n      dup3\n      add\n      and\n      dup3\n      add\n      dup1\n      0x40\n      mstore\n      pop\n      dup2\n      add\n      swap1\n      tag_49\n      swap2\n      swap1\n      tag_50\n      jump\t// in\n    tag_49:\n      pop\n        /* \"Benz-Swap/core/Benz-Swap.sol\":2216:2223  amount1 */\n      dup5\n        /* \"Benz-Swap/core/Benz-Swap.sol\":2191:2212  address(this).balance */\n      selfbalance\n        /* \"Benz-Swap/core/Benz-Swap.sol\":2191:2223  address(this).balance >= amount1 */\n      lt\n      iszero\n        /* \"Benz-Swap/core/Benz-Swap.sol\":2170:2279  require(... */\n      tag_51\n      jumpi\n      mload(0x40)\n      0x08c379a000000000000000000000000000000000000000000000000000000000\n      dup2\n      mstore\n      0x04\n      add\n      tag_52\n      swap1\n      tag_53\n      jump\t// in\n    tag_52:\n      mload(0x40)\n      dup1\n      swap2\n      sub\n      swap1\n      revert\n    tag_51:\n        /* \"Benz-Swap/core/Benz-Swap.sol\":2297:2302  owner */\n      dup4\n        /* \"Benz-Swap/core/Benz-Swap.sol\":2289:2312  payable(owner).transfer */\n      0xffffffffffffffffffffffffffffffffffffffff\n      and\n        /* \"Benz-Swap/core/Benz-Swap.sol\":2289:2328  payable(owner).transfer(amount1 - _fee) */\n      0x08fc\n        /* \"Benz-Swap/core/Benz-Swap.sol\":2323:2327  _fee */\n      dup3\n        /* \"Benz-Swap/core/Benz-Swap.sol\":2313:2320  amount1 */\n      dup8\n        /* \"Benz-Swap/core/Benz-Swap.sol\":2313:2327  amount1 - _fee */\n      tag_54\n      swap2\n      swap1\n      tag_55\n      jump\t// in\n    tag_54:\n        /* \"Benz-Swap/core/Benz-Swap.sol\":2289:2328  payable(owner).transfer(amount1 - _fee) */\n      swap1\n      dup2\n      iszero\n      mul\n      swap1\n      mload(0x40)\n      0x00\n      mload(0x40)\n      dup1\n      dup4\n      sub\n      dup2\n      dup6\n      dup9\n      dup9\n      call\n      swap4\n      pop\n      pop\n      pop\n      pop\n      iszero\n      dup1\n      iszero\n      tag_57\n      jumpi\n      returndatasize\n      0x00\n      dup1\n      returndatacopy\n      revert(0x00, returndatasize)\n    tag_57:\n      pop\n        /* \"Benz-Swap/core/Benz-Swap.sol\":2384:2422  estimate(NATIVE_PAIR, BENZ_PAIR, _fee) */\n      tag_58\n        /* \"Benz-Swap/core/Benz-Swap.sol\":2393:2404  NATIVE_PAIR */\n      0x04\n      0x00\n      swap1\n      sload\n      swap1\n      0x0100\n      exp\n      swap1\n      div\n      0xffffffffffffffffffffffffffffffffffffffff\n      and\n        /* \"Benz-Swap/core/Benz-Swap.sol\":2406:2415  BENZ_PAIR */\n      0x05\n      0x00\n      swap1\n      sload\n      swap1\n      0x0100\n      exp\n      swap1\n      div\n      0xffffffffffffffffffffffffffffffffffffffff\n      and\n        /* \"Benz-Swap/core/Benz-Swap.sol\":2417:2421  _fee */\n      dup4\n        /* \"Benz-Swap/core/Benz-Swap.sol\":2384:2392  estimate */\n      tag_18\n        /* \"Benz-Swap/core/Benz-Swap.sol\":2384:2422  estimate(NATIVE_PAIR, BENZ_PAIR, _fee) */\n      jump\t// in\n    tag_58:\n        /* \"Benz-Swap/core/Benz-Swap.sol\":2377:2422  return estimate(NATIVE_PAIR, BENZ_PAIR, _fee) */\n      swap3\n      pop\n      pop\n      pop\n        /* \"Benz-Swap/core/Benz-Swap.sol\":1774:2429  function _transferSwappedTokens1(... */\n      swap5\n      swap4\n      pop\n      pop\n      pop\n      pop\n      jump\t// out\n        /* \"Benz-Swap/core/Benz-Swap.sol\":827:1104  function estimate(... */\n    tag_18:\n        /* \"Benz-Swap/core/Benz-Swap.sol\":955:962  uint256 */\n      0x00\n        /* \"Benz-Swap/core/Benz-Swap.sol\":974:985  int256 rate */\n      dup1\n        /* \"Benz-Swap/core/Benz-Swap.sol\":988:997  _priceApi */\n      0x00\n      dup1\n      sload\n      swap1\n      0x0100\n      exp\n      swap1\n      div\n      0xffffffffffffffffffffffffffffffffffffffff\n      and\n        /* \"Benz-Swap/core/Benz-Swap.sol\":988:1013  _priceApi.getExchangeRate */\n      0xffffffffffffffffffffffffffffffffffffffff\n      and\n      0xbaaa61be\n        /* \"Benz-Swap/core/Benz-Swap.sol\":1014:1019  pairs */\n      0x03\n        /* \"Benz-Swap/core/Benz-Swap.sol\":1014:1027  pairs[token0] */\n      0x00\n        /* \"Benz-Swap/core/Benz-Swap.sol\":1020:1026  token0 */\n      dup9\n        /* \"Benz-Swap/core/Benz-Swap.sol\":1014:1027  pairs[token0] */\n      0xffffffffffffffffffffffffffffffffffffffff\n      and\n      0xffffffffffffffffffffffffffffffffffffffff\n      and\n      dup2\n      mstore\n      0x20\n      add\n      swap1\n      dup2\n      mstore\n      0x20\n      add\n      0x00\n      keccak256\n      0x00\n      swap1\n      sload\n      swap1\n      0x0100\n      exp\n      swap1\n      div\n      0xffffffffffffffffffffffffffffffffffffffff\n      and\n        /* \"Benz-Swap/core/Benz-Swap.sol\":1029:1034  pairs */\n      0x03\n        /* \"Benz-Swap/core/Benz-Swap.sol\":1029:1042  pairs[token1] */\n      0x00\n        /* \"Benz-Swap/core/Benz-Swap.sol\":1035:1041  token1 */\n      dup9\n        /* \"Benz-Swap/core/Benz-Swap.sol\":1029:1042  pairs[token1] */\n      0xffffffffffffffffffffffffffffffffffffffff\n      and\n      0xffffffffffffffffffffffffffffffffffffffff\n      and\n      dup2\n      mstore\n      0x20\n      add\n      swap1\n      dup2\n      mstore\n      0x20\n      add\n      0x00\n      keccak256\n      0x00\n      swap1\n      sload\n      swap1\n      0x0100\n      exp\n      swap1\n      div\n      0xffffffffffffffffffffffffffffffffffffffff\n      and\n        /* \"Benz-Swap/core/Benz-Swap.sol\":988:1043  _priceApi.getExchangeRate(pairs[token0], pairs[token1]) */\n      mload(0x40)\n      dup4\n      0xffffffff\n      and\n      0xe0\n      shl\n      dup2\n      mstore\n      0x04\n      add\n      tag_60\n      swap3\n      swap2\n      swap1\n      tag_61\n      jump\t// in\n    tag_60:\n      0x20\n      mload(0x40)\n      dup1\n      dup4\n      sub\n      dup2\n      dup7\n      dup1\n      extcodesize\n      iszero\n      dup1\n      iszero\n      tag_62\n      jumpi\n      0x00\n      dup1\n      revert\n    tag_62:\n      pop\n      gas\n      staticcall\n      iszero\n      dup1\n      iszero\n      tag_64\n      jumpi\n      returndatasize\n      0x00\n      dup1\n      returndatacopy\n      revert(0x00, returndatasize)\n    tag_64:\n      pop\n      pop\n      pop\n      pop\n      mload(0x40)\n      returndatasize\n      not(0x1f)\n      0x1f\n      dup3\n      add\n      and\n      dup3\n      add\n      dup1\n      0x40\n      mstore\n      pop\n      dup2\n      add\n      swap1\n      tag_65\n      swap2\n      swap1\n      tag_66\n      jump\t// in\n    tag_65:\n        /* \"Benz-Swap/core/Benz-Swap.sol\":974:1043  int256 rate = _priceApi.getExchangeRate(pairs[token0], pairs[token1]) */\n      swap1\n      pop\n        /* \"Benz-Swap/core/Benz-Swap.sol\":1089:1096  10 ** 8 */\n      0x05f5e100\n        /* \"Benz-Swap/core/Benz-Swap.sol\":1079:1083  rate */\n      dup2\n        /* \"Benz-Swap/core/Benz-Swap.sol\":1061:1068  amount0 */\n      dup5\n        /* \"Benz-Swap/core/Benz-Swap.sol\":1061:1084  amount0 * uint256(rate) */\n      tag_67\n      swap2\n      swap1\n      tag_43\n      jump\t// in\n    tag_67:\n        /* \"Benz-Swap/core/Benz-Swap.sol\":1060:1097  (amount0 * uint256(rate)) / (10 ** 8) */\n      tag_68\n      swap2\n      swap1\n      tag_41\n      jump\t// in\n    tag_68:\n        /* \"Benz-Swap/core/Benz-Swap.sol\":1053:1097  return (amount0 * uint256(rate)) / (10 ** 8) */\n      swap2\n      pop\n      pop\n        /* \"Benz-Swap/core/Benz-Swap.sol\":827:1104  function estimate(... */\n      swap4\n      swap3\n      pop\n      pop\n      pop\n      jump\t// out\n        /* \"Benz-Swap/core/Benz-Swap.sol\":1146:1243  function getContractAddress() public view returns (address) {... */\n    tag_22:\n        /* \"Benz-Swap/core/Benz-Swap.sol\":1197:1204  address */\n      0x00\n        /* \"Benz-Swap/core/Benz-Swap.sol\":1231:1235  this */\n      address\n        /* \"Benz-Swap/core/Benz-Swap.sol\":1216:1236  return address(this) */\n      swap1\n      pop\n        /* \"Benz-Swap/core/Benz-Swap.sol\":1146:1243  function getContractAddress() public view returns (address) {... */\n      swap1\n      jump\t// out\n        /* \"Benz-Swap/core/Benz-Swap.sol\":545:571  address public NATIVE_PAIR */\n    tag_27:\n      0x04\n      0x00\n      swap1\n      sload\n      swap1\n      0x0100\n      exp\n      swap1\n      div\n      0xffffffffffffffffffffffffffffffffffffffff\n      and\n      dup2\n      jump\t// out\n        /* \"Benz-Swap/core/Benz-Swap.sol\":577:601  address public BENZ_PAIR */\n    tag_31:\n      0x05\n      0x00\n      swap1\n      sload\n      swap1\n      0x0100\n      exp\n      swap1\n      div\n      0xffffffffffffffffffffffffffffffffffffffff\n      and\n      dup2\n      jump\t// out\n        /* \"Benz-Swap/core/Benz-Swap.sol\":499:539  mapping(address => address) public pairs */\n    tag_37:\n      mstore(0x20, 0x03)\n      dup1\n      0x00\n      mstore\n      keccak256(0x00, 0x40)\n      0x00\n      swap2\n      pop\n      sload\n      swap1\n      0x0100\n      exp\n      swap1\n      div\n      0xffffffffffffffffffffffffffffffffffffffff\n      and\n      dup2\n      jump\t// out\n        /* \"#utility.yul\":7:146   */\n    tag_71:\n        /* \"#utility.yul\":53:58   */\n      0x00\n        /* \"#utility.yul\":91:97   */\n      dup2\n        /* \"#utility.yul\":78:98   */\n      calldataload\n        /* \"#utility.yul\":69:98   */\n      swap1\n      pop\n        /* \"#utility.yul\":107:140   */\n      tag_73\n        /* \"#utility.yul\":134:139   */\n      dup2\n        /* \"#utility.yul\":107:140   */\n      tag_74\n      jump\t// in\n    tag_73:\n        /* \"#utility.yul\":7:146   */\n      swap3\n      swap2\n      pop\n      pop\n      jump\t// out\n        /* \"#utility.yul\":152:289   */\n    tag_75:\n        /* \"#utility.yul\":206:211   */\n      0x00\n        /* \"#utility.yul\":237:243   */\n      dup2\n        /* \"#utility.yul\":231:244   */\n      mload\n        /* \"#utility.yul\":222:244   */\n      swap1\n      pop\n        /* \"#utility.yul\":253:283   */\n      tag_77\n        /* \"#utility.yul\":277:282   */\n      dup2\n        /* \"#utility.yul\":253:283   */\n      tag_78\n      jump\t// in\n    tag_77:\n        /* \"#utility.yul\":152:289   */\n      swap3\n      swap2\n      pop\n      pop\n      jump\t// out\n        /* \"#utility.yul\":295:436   */\n    tag_79:\n        /* \"#utility.yul\":351:356   */\n      0x00\n        /* \"#utility.yul\":382:388   */\n      dup2\n        /* \"#utility.yul\":376:389   */\n      mload\n        /* \"#utility.yul\":367:389   */\n      swap1\n      pop\n        /* \"#utility.yul\":398:430   */\n      tag_81\n        /* \"#utility.yul\":424:429   */\n      dup2\n        /* \"#utility.yul\":398:430   */\n      tag_82\n      jump\t// in\n    tag_81:\n        /* \"#utility.yul\":295:436   */\n      swap3\n      swap2\n      pop\n      pop\n      jump\t// out\n        /* \"#utility.yul\":442:581   */\n    tag_83:\n        /* \"#utility.yul\":488:493   */\n      0x00\n        /* \"#utility.yul\":526:532   */\n      dup2\n        /* \"#utility.yul\":513:533   */\n      calldataload\n        /* \"#utility.yul\":504:533   */\n      swap1\n      pop\n        /* \"#utility.yul\":542:575   */\n      tag_85\n        /* \"#utility.yul\":569:574   */\n      dup2\n        /* \"#utility.yul\":542:575   */\n      tag_86\n      jump\t// in\n    tag_85:\n        /* \"#utility.yul\":442:581   */\n      swap3\n      swap2\n      pop\n      pop\n      jump\t// out\n        /* \"#utility.yul\":587:916   */\n    tag_36:\n        /* \"#utility.yul\":646:652   */\n      0x00\n        /* \"#utility.yul\":695:697   */\n      0x20\n        /* \"#utility.yul\":683:692   */\n      dup3\n        /* \"#utility.yul\":674:681   */\n      dup5\n        /* \"#utility.yul\":670:693   */\n      sub\n        /* \"#utility.yul\":666:698   */\n      slt\n        /* \"#utility.yul\":663:782   */\n      iszero\n      tag_88\n      jumpi\n        /* \"#utility.yul\":701:780   */\n      tag_89\n      tag_90\n      jump\t// in\n    tag_89:\n        /* \"#utility.yul\":663:782   */\n    tag_88:\n        /* \"#utility.yul\":821:822   */\n      0x00\n        /* \"#utility.yul\":846:899   */\n      tag_91\n        /* \"#utility.yul\":891:898   */\n      dup5\n        /* \"#utility.yul\":882:888   */\n      dup3\n        /* \"#utility.yul\":871:880   */\n      dup6\n        /* \"#utility.yul\":867:889   */\n      add\n        /* \"#utility.yul\":846:899   */\n      tag_71\n      jump\t// in\n    tag_91:\n        /* \"#utility.yul\":836:899   */\n      swap2\n      pop\n        /* \"#utility.yul\":792:909   */\n      pop\n        /* \"#utility.yul\":587:916   */\n      swap3\n      swap2\n      pop\n      pop\n      jump\t// out\n        /* \"#utility.yul\":922:1541   */\n    tag_17:\n        /* \"#utility.yul\":999:1005   */\n      0x00\n        /* \"#utility.yul\":1007:1013   */\n      dup1\n        /* \"#utility.yul\":1015:1021   */\n      0x00\n        /* \"#utility.yul\":1064:1066   */\n      0x60\n        /* \"#utility.yul\":1052:1061   */\n      dup5\n        /* \"#utility.yul\":1043:1050   */\n      dup7\n        /* \"#utility.yul\":1039:1062   */\n      sub\n        /* \"#utility.yul\":1035:1067   */\n      slt\n        /* \"#utility.yul\":1032:1151   */\n      iszero\n      tag_93\n      jumpi\n        /* \"#utility.yul\":1070:1149   */\n      tag_94\n      tag_90\n      jump\t// in\n    tag_94:\n        /* \"#utility.yul\":1032:1151   */\n    tag_93:\n        /* \"#utility.yul\":1190:1191   */\n      0x00\n        /* \"#utility.yul\":1215:1268   */\n      tag_95\n        /* \"#utility.yul\":1260:1267   */\n      dup7\n        /* \"#utility.yul\":1251:1257   */\n      dup3\n        /* \"#utility.yul\":1240:1249   */\n      dup8\n        /* \"#utility.yul\":1236:1258   */\n      add\n        /* \"#utility.yul\":1215:1268   */\n      tag_71\n      jump\t// in\n    tag_95:\n        /* \"#utility.yul\":1205:1268   */\n      swap4\n      pop\n        /* \"#utility.yul\":1161:1278   */\n      pop\n        /* \"#utility.yul\":1317:1319   */\n      0x20\n        /* \"#utility.yul\":1343:1396   */\n      tag_96\n        /* \"#utility.yul\":1388:1395   */\n      dup7\n        /* \"#utility.yul\":1379:1385   */\n      dup3\n        /* \"#utility.yul\":1368:1377   */\n      dup8\n        /* \"#utility.yul\":1364:1386   */\n      add\n        /* \"#utility.yul\":1343:1396   */\n      tag_71\n      jump\t// in\n    tag_96:\n        /* \"#utility.yul\":1333:1396   */\n      swap3\n      pop\n        /* \"#utility.yul\":1288:1406   */\n      pop\n        /* \"#utility.yul\":1445:1447   */\n      0x40\n        /* \"#utility.yul\":1471:1524   */\n      tag_97\n        /* \"#utility.yul\":1516:1523   */\n      dup7\n        /* \"#utility.yul\":1507:1513   */\n      dup3\n        /* \"#utility.yul\":1496:1505   */\n      dup8\n        /* \"#utility.yul\":1492:1514   */\n      add\n        /* \"#utility.yul\":1471:1524   */\n      tag_83\n      jump\t// in\n    tag_97:\n        /* \"#utility.yul\":1461:1524   */\n      swap2\n      pop\n        /* \"#utility.yul\":1416:1534   */\n      pop\n        /* \"#utility.yul\":922:1541   */\n      swap3\n      pop\n      swap3\n      pop\n      swap3\n      jump\t// out\n        /* \"#utility.yul\":1547:2312   */\n    tag_10:\n        /* \"#utility.yul\":1633:1639   */\n      0x00\n        /* \"#utility.yul\":1641:1647   */\n      dup1\n        /* \"#utility.yul\":1649:1655   */\n      0x00\n        /* \"#utility.yul\":1657:1663   */\n      dup1\n        /* \"#utility.yul\":1706:1709   */\n      0x80\n        /* \"#utility.yul\":1694:1703   */\n      dup6\n        /* \"#utility.yul\":1685:1692   */\n      dup8\n        /* \"#utility.yul\":1681:1704   */\n      sub\n        /* \"#utility.yul\":1677:1710   */\n      slt\n        /* \"#utility.yul\":1674:1794   */\n      iszero\n      tag_99\n      jumpi\n        /* \"#utility.yul\":1713:1792   */\n      tag_100\n      tag_90\n      jump\t// in\n    tag_100:\n        /* \"#utility.yul\":1674:1794   */\n    tag_99:\n        /* \"#utility.yul\":1833:1834   */\n      0x00\n        /* \"#utility.yul\":1858:1911   */\n      tag_101\n        /* \"#utility.yul\":1903:1910   */\n      dup8\n        /* \"#utility.yul\":1894:1900   */\n      dup3\n        /* \"#utility.yul\":1883:1892   */\n      dup9\n        /* \"#utility.yul\":1879:1901   */\n      add\n        /* \"#utility.yul\":1858:1911   */\n      tag_71\n      jump\t// in\n    tag_101:\n        /* \"#utility.yul\":1848:1911   */\n      swap5\n      pop\n        /* \"#utility.yul\":1804:1921   */\n      pop\n        /* \"#utility.yul\":1960:1962   */\n      0x20\n        /* \"#utility.yul\":1986:2039   */\n      tag_102\n        /* \"#utility.yul\":2031:2038   */\n      dup8\n        /* \"#utility.yul\":2022:2028   */\n      dup3\n        /* \"#utility.yul\":2011:2020   */\n      dup9\n        /* \"#utility.yul\":2007:2029   */\n      add\n        /* \"#utility.yul\":1986:2039   */\n      tag_83\n      jump\t// in\n    tag_102:\n        /* \"#utility.yul\":1976:2039   */\n      swap4\n      pop\n        /* \"#utility.yul\":1931:2049   */\n      pop\n        /* \"#utility.yul\":2088:2090   */\n      0x40\n        /* \"#utility.yul\":2114:2167   */\n      tag_103\n        /* \"#utility.yul\":2159:2166   */\n      dup8\n        /* \"#utility.yul\":2150:2156   */\n      dup3\n        /* \"#utility.yul\":2139:2148   */\n      dup9\n        /* \"#utility.yul\":2135:2157   */\n      add\n        /* \"#utility.yul\":2114:2167   */\n      tag_83\n      jump\t// in\n    tag_103:\n        /* \"#utility.yul\":2104:2167   */\n      swap3\n      pop\n        /* \"#utility.yul\":2059:2177   */\n      pop\n        /* \"#utility.yul\":2216:2218   */\n      0x60\n        /* \"#utility.yul\":2242:2295   */\n      tag_104\n        /* \"#utility.yul\":2287:2294   */\n      dup8\n        /* \"#utility.yul\":2278:2284   */\n      dup3\n        /* \"#utility.yul\":2267:2276   */\n      dup9\n        /* \"#utility.yul\":2263:2285   */\n      add\n        /* \"#utility.yul\":2242:2295   */\n      tag_71\n      jump\t// in\n    tag_104:\n        /* \"#utility.yul\":2232:2295   */\n      swap2\n      pop\n        /* \"#utility.yul\":2187:2305   */\n      pop\n        /* \"#utility.yul\":1547:2312   */\n      swap3\n      swap6\n      swap2\n      swap5\n      pop\n      swap3\n      pop\n      jump\t// out\n        /* \"#utility.yul\":2318:2663   */\n    tag_50:\n        /* \"#utility.yul\":2385:2391   */\n      0x00\n        /* \"#utility.yul\":2434:2436   */\n      0x20\n        /* \"#utility.yul\":2422:2431   */\n      dup3\n        /* \"#utility.yul\":2413:2420   */\n      dup5\n        /* \"#utility.yul\":2409:2432   */\n      sub\n        /* \"#utility.yul\":2405:2437   */\n      slt\n        /* \"#utility.yul\":2402:2521   */\n      iszero\n      tag_106\n      jumpi\n        /* \"#utility.yul\":2440:2519   */\n      tag_107\n      tag_90\n      jump\t// in\n    tag_107:\n        /* \"#utility.yul\":2402:2521   */\n    tag_106:\n        /* \"#utility.yul\":2560:2561   */\n      0x00\n        /* \"#utility.yul\":2585:2646   */\n      tag_108\n        /* \"#utility.yul\":2638:2645   */\n      dup5\n        /* \"#utility.yul\":2629:2635   */\n      dup3\n        /* \"#utility.yul\":2618:2627   */\n      dup6\n        /* \"#utility.yul\":2614:2636   */\n      add\n        /* \"#utility.yul\":2585:2646   */\n      tag_75\n      jump\t// in\n    tag_108:\n        /* \"#utility.yul\":2575:2646   */\n      swap2\n      pop\n        /* \"#utility.yul\":2531:2656   */\n      pop\n        /* \"#utility.yul\":2318:2663   */\n      swap3\n      swap2\n      pop\n      pop\n      jump\t// out\n        /* \"#utility.yul\":2669:3018   */\n    tag_66:\n        /* \"#utility.yul\":2738:2744   */\n      0x00\n        /* \"#utility.yul\":2787:2789   */\n      0x20\n        /* \"#utility.yul\":2775:2784   */\n      dup3\n        /* \"#utility.yul\":2766:2773   */\n      dup5\n        /* \"#utility.yul\":2762:2785   */\n      sub\n        /* \"#utility.yul\":2758:2790   */\n      slt\n        /* \"#utility.yul\":2755:2874   */\n      iszero\n      tag_110\n      jumpi\n        /* \"#utility.yul\":2793:2872   */\n      tag_111\n      tag_90\n      jump\t// in\n    tag_111:\n        /* \"#utility.yul\":2755:2874   */\n    tag_110:\n        /* \"#utility.yul\":2913:2914   */\n      0x00\n        /* \"#utility.yul\":2938:3001   */\n      tag_112\n        /* \"#utility.yul\":2993:3000   */\n      dup5\n        /* \"#utility.yul\":2984:2990   */\n      dup3\n        /* \"#utility.yul\":2973:2982   */\n      dup6\n        /* \"#utility.yul\":2969:2991   */\n      add\n        /* \"#utility.yul\":2938:3001   */\n      tag_79\n      jump\t// in\n    tag_112:\n        /* \"#utility.yul\":2928:3001   */\n      swap2\n      pop\n        /* \"#utility.yul\":2884:3011   */\n      pop\n        /* \"#utility.yul\":2669:3018   */\n      swap3\n      swap2\n      pop\n      pop\n      jump\t// out\n        /* \"#utility.yul\":3024:3142   */\n    tag_113:\n        /* \"#utility.yul\":3111:3135   */\n      tag_115\n        /* \"#utility.yul\":3129:3134   */\n      dup2\n        /* \"#utility.yul\":3111:3135   */\n      tag_116\n      jump\t// in\n    tag_115:\n        /* \"#utility.yul\":3106:3109   */\n      dup3\n        /* \"#utility.yul\":3099:3136   */\n      mstore\n        /* \"#utility.yul\":3024:3142   */\n      pop\n      pop\n      jump\t// out\n        /* \"#utility.yul\":3148:3514   */\n    tag_117:\n        /* \"#utility.yul\":3290:3293   */\n      0x00\n        /* \"#utility.yul\":3311:3378   */\n      tag_119\n        /* \"#utility.yul\":3375:3377   */\n      0x1e\n        /* \"#utility.yul\":3370:3373   */\n      dup4\n        /* \"#utility.yul\":3311:3378   */\n      tag_120\n      jump\t// in\n    tag_119:\n        /* \"#utility.yul\":3304:3378   */\n      swap2\n      pop\n        /* \"#utility.yul\":3387:3480   */\n      tag_121\n        /* \"#utility.yul\":3476:3479   */\n      dup3\n        /* \"#utility.yul\":3387:3480   */\n      tag_122\n      jump\t// in\n    tag_121:\n        /* \"#utility.yul\":3505:3507   */\n      0x20\n        /* \"#utility.yul\":3500:3503   */\n      dup3\n        /* \"#utility.yul\":3496:3508   */\n      add\n        /* \"#utility.yul\":3489:3508   */\n      swap1\n      pop\n        /* \"#utility.yul\":3148:3514   */\n      swap2\n      swap1\n      pop\n      jump\t// out\n        /* \"#utility.yul\":3520:3638   */\n    tag_123:\n        /* \"#utility.yul\":3607:3631   */\n      tag_125\n        /* \"#utility.yul\":3625:3630   */\n      dup2\n        /* \"#utility.yul\":3607:3631   */\n      tag_126\n      jump\t// in\n    tag_125:\n        /* \"#utility.yul\":3602:3605   */\n      dup3\n        /* \"#utility.yul\":3595:3632   */\n      mstore\n        /* \"#utility.yul\":3520:3638   */\n      pop\n      pop\n      jump\t// out\n        /* \"#utility.yul\":3644:3866   */\n    tag_24:\n        /* \"#utility.yul\":3737:3741   */\n      0x00\n        /* \"#utility.yul\":3775:3777   */\n      0x20\n        /* \"#utility.yul\":3764:3773   */\n      dup3\n        /* \"#utility.yul\":3760:3778   */\n      add\n        /* \"#utility.yul\":3752:3778   */\n      swap1\n      pop\n        /* \"#utility.yul\":3788:3859   */\n      tag_128\n        /* \"#utility.yul\":3856:3857   */\n      0x00\n        /* \"#utility.yul\":3845:3854   */\n      dup4\n        /* \"#utility.yul\":3841:3858   */\n      add\n        /* \"#utility.yul\":3832:3838   */\n      dup5\n        /* \"#utility.yul\":3788:3859   */\n      tag_113\n      jump\t// in\n    tag_128:\n        /* \"#utility.yul\":3644:3866   */\n      swap3\n      swap2\n      pop\n      pop\n      jump\t// out\n        /* \"#utility.yul\":3872:4204   */\n    tag_61:\n        /* \"#utility.yul\":3993:3997   */\n      0x00\n        /* \"#utility.yul\":4031:4033   */\n      0x40\n        /* \"#utility.yul\":4020:4029   */\n      dup3\n        /* \"#utility.yul\":4016:4034   */\n      add\n        /* \"#utility.yul\":4008:4034   */\n      swap1\n      pop\n        /* \"#utility.yul\":4044:4115   */\n      tag_130\n        /* \"#utility.yul\":4112:4113   */\n      0x00\n        /* \"#utility.yul\":4101:4110   */\n      dup4\n        /* \"#utility.yul\":4097:4114   */\n      add\n        /* \"#utility.yul\":4088:4094   */\n      dup6\n        /* \"#utility.yul\":4044:4115   */\n      tag_113\n      jump\t// in\n    tag_130:\n        /* \"#utility.yul\":4125:4197   */\n      tag_131\n        /* \"#utility.yul\":4193:4195   */\n      0x20\n        /* \"#utility.yul\":4182:4191   */\n      dup4\n        /* \"#utility.yul\":4178:4196   */\n      add\n        /* \"#utility.yul\":4169:4175   */\n      dup5\n        /* \"#utility.yul\":4125:4197   */\n      tag_113\n      jump\t// in\n    tag_131:\n        /* \"#utility.yul\":3872:4204   */\n      swap4\n      swap3\n      pop\n      pop\n      pop\n      jump\t// out\n        /* \"#utility.yul\":4210:4652   */\n    tag_45:\n        /* \"#utility.yul\":4359:4363   */\n      0x00\n        /* \"#utility.yul\":4397:4399   */\n      0x60\n        /* \"#utility.yul\":4386:4395   */\n      dup3\n        /* \"#utility.yul\":4382:4400   */\n      add\n        /* \"#utility.yul\":4374:4400   */\n      swap1\n      pop\n        /* \"#utility.yul\":4410:4481   */\n      tag_133\n        /* \"#utility.yul\":4478:4479   */\n      0x00\n        /* \"#utility.yul\":4467:4476   */\n      dup4\n        /* \"#utility.yul\":4463:4480   */\n      add\n        /* \"#utility.yul\":4454:4460   */\n      dup7\n        /* \"#utility.yul\":4410:4481   */\n      tag_113\n      jump\t// in\n    tag_133:\n        /* \"#utility.yul\":4491:4563   */\n      tag_134\n        /* \"#utility.yul\":4559:4561   */\n      0x20\n        /* \"#utility.yul\":4548:4557   */\n      dup4\n        /* \"#utility.yul\":4544:4562   */\n      add\n        /* \"#utility.yul\":4535:4541   */\n      dup6\n        /* \"#utility.yul\":4491:4563   */\n      tag_113\n      jump\t// in\n    tag_134:\n        /* \"#utility.yul\":4573:4645   */\n      tag_135\n        /* \"#utility.yul\":4641:4643   */\n      0x40\n        /* \"#utility.yul\":4630:4639   */\n      dup4\n        /* \"#utility.yul\":4626:4644   */\n      add\n        /* \"#utility.yul\":4617:4623   */\n      dup5\n        /* \"#utility.yul\":4573:4645   */\n      tag_123\n      jump\t// in\n    tag_135:\n        /* \"#utility.yul\":4210:4652   */\n      swap5\n      swap4\n      pop\n      pop\n      pop\n      pop\n      jump\t// out\n        /* \"#utility.yul\":4658:5077   */\n    tag_53:\n        /* \"#utility.yul\":4824:4828   */\n      0x00\n        /* \"#utility.yul\":4862:4864   */\n      0x20\n        /* \"#utility.yul\":4851:4860   */\n      dup3\n        /* \"#utility.yul\":4847:4865   */\n      add\n        /* \"#utility.yul\":4839:4865   */\n      swap1\n      pop\n        /* \"#utility.yul\":4911:4920   */\n      dup2\n        /* \"#utility.yul\":4905:4909   */\n      dup2\n        /* \"#utility.yul\":4901:4921   */\n      sub\n        /* \"#utility.yul\":4897:4898   */\n      0x00\n        /* \"#utility.yul\":4886:4895   */\n      dup4\n        /* \"#utility.yul\":4882:4899   */\n      add\n        /* \"#utility.yul\":4875:4922   */\n      mstore\n        /* \"#utility.yul\":4939:5070   */\n      tag_137\n        /* \"#utility.yul\":5065:5069   */\n      dup2\n        /* \"#utility.yul\":4939:5070   */\n      tag_117\n      jump\t// in\n    tag_137:\n        /* \"#utility.yul\":4931:5070   */\n      swap1\n      pop\n        /* \"#utility.yul\":4658:5077   */\n      swap2\n      swap1\n      pop\n      jump\t// out\n        /* \"#utility.yul\":5083:5305   */\n    tag_13:\n        /* \"#utility.yul\":5176:5180   */\n      0x00\n        /* \"#utility.yul\":5214:5216   */\n      0x20\n        /* \"#utility.yul\":5203:5212   */\n      dup3\n        /* \"#utility.yul\":5199:5217   */\n      add\n        /* \"#utility.yul\":5191:5217   */\n      swap1\n      pop\n        /* \"#utility.yul\":5227:5298   */\n      tag_139\n        /* \"#utility.yul\":5295:5296   */\n      0x00\n        /* \"#utility.yul\":5284:5293   */\n      dup4\n        /* \"#utility.yul\":5280:5297   */\n      add\n        /* \"#utility.yul\":5271:5277   */\n      dup5\n        /* \"#utility.yul\":5227:5298   */\n      tag_123\n      jump\t// in\n    tag_139:\n        /* \"#utility.yul\":5083:5305   */\n      swap3\n      swap2\n      pop\n      pop\n      jump\t// out\n        /* \"#utility.yul\":5392:5561   */\n    tag_120:\n        /* \"#utility.yul\":5476:5487   */\n      0x00\n        /* \"#utility.yul\":5510:5516   */\n      dup3\n        /* \"#utility.yul\":5505:5508   */\n      dup3\n        /* \"#utility.yul\":5498:5517   */\n      mstore\n        /* \"#utility.yul\":5550:5554   */\n      0x20\n        /* \"#utility.yul\":5545:5548   */\n      dup3\n        /* \"#utility.yul\":5541:5555   */\n      add\n        /* \"#utility.yul\":5526:5555   */\n      swap1\n      pop\n        /* \"#utility.yul\":5392:5561   */\n      swap3\n      swap2\n      pop\n      pop\n      jump\t// out\n        /* \"#utility.yul\":5567:5752   */\n    tag_41:\n        /* \"#utility.yul\":5607:5608   */\n      0x00\n        /* \"#utility.yul\":5624:5644   */\n      tag_144\n        /* \"#utility.yul\":5642:5643   */\n      dup3\n        /* \"#utility.yul\":5624:5644   */\n      tag_126\n      jump\t// in\n    tag_144:\n        /* \"#utility.yul\":5619:5644   */\n      swap2\n      pop\n        /* \"#utility.yul\":5658:5678   */\n      tag_145\n        /* \"#utility.yul\":5676:5677   */\n      dup4\n        /* \"#utility.yul\":5658:5678   */\n      tag_126\n      jump\t// in\n    tag_145:\n        /* \"#utility.yul\":5653:5678   */\n      swap3\n      pop\n        /* \"#utility.yul\":5697:5698   */\n      dup3\n        /* \"#utility.yul\":5687:5722   */\n      tag_146\n      jumpi\n        /* \"#utility.yul\":5702:5720   */\n      tag_147\n      tag_148\n      jump\t// in\n    tag_147:\n        /* \"#utility.yul\":5687:5722   */\n    tag_146:\n        /* \"#utility.yul\":5744:5745   */\n      dup3\n        /* \"#utility.yul\":5741:5742   */\n      dup3\n        /* \"#utility.yul\":5737:5746   */\n      div\n        /* \"#utility.yul\":5732:5746   */\n      swap1\n      pop\n        /* \"#utility.yul\":5567:5752   */\n      swap3\n      swap2\n      pop\n      pop\n      jump\t// out\n        /* \"#utility.yul\":5758:6106   */\n    tag_43:\n        /* \"#utility.yul\":5798:5805   */\n      0x00\n        /* \"#utility.yul\":5821:5841   */\n      tag_150\n        /* \"#utility.yul\":5839:5840   */\n      dup3\n        /* \"#utility.yul\":5821:5841   */\n      tag_126\n      jump\t// in\n    tag_150:\n        /* \"#utility.yul\":5816:5841   */\n      swap2\n      pop\n        /* \"#utility.yul\":5855:5875   */\n      tag_151\n        /* \"#utility.yul\":5873:5874   */\n      dup4\n        /* \"#utility.yul\":5855:5875   */\n      tag_126\n      jump\t// in\n    tag_151:\n        /* \"#utility.yul\":5850:5875   */\n      swap3\n      pop\n        /* \"#utility.yul\":6043:6044   */\n      dup2\n        /* \"#utility.yul\":5975:6041   */\n      0xffffffffffffffffffffffffffffffffffffffffffffffffffffffffffffffff\n        /* \"#utility.yul\":5971:6045   */\n      div\n        /* \"#utility.yul\":5968:5969   */\n      dup4\n        /* \"#utility.yul\":5965:6046   */\n      gt\n        /* \"#utility.yul\":5960:5961   */\n      dup3\n        /* \"#utility.yul\":5953:5962   */\n      iszero\n        /* \"#utility.yul\":5946:5963   */\n      iszero\n        /* \"#utility.yul\":5942:6047   */\n      and\n        /* \"#utility.yul\":5939:6070   */\n      iszero\n      tag_152\n      jumpi\n        /* \"#utility.yul\":6050:6068   */\n      tag_153\n      tag_154\n      jump\t// in\n    tag_153:\n        /* \"#utility.yul\":5939:6070   */\n    tag_152:\n        /* \"#utility.yul\":6098:6099   */\n      dup3\n        /* \"#utility.yul\":6095:6096   */\n      dup3\n        /* \"#utility.yul\":6091:6100   */\n      mul\n        /* \"#utility.yul\":6080:6100   */\n      swap1\n      pop\n        /* \"#utility.yul\":5758:6106   */\n      swap3\n      swap2\n      pop\n      pop\n      jump\t// out\n        /* \"#utility.yul\":6112:6303   */\n    tag_55:\n        /* \"#utility.yul\":6152:6156   */\n      0x00\n        /* \"#utility.yul\":6172:6192   */\n      tag_156\n        /* \"#utility.yul\":6190:6191   */\n      dup3\n        /* \"#utility.yul\":6172:6192   */\n      tag_126\n      jump\t// in\n    tag_156:\n        /* \"#utility.yul\":6167:6192   */\n      swap2\n      pop\n        /* \"#utility.yul\":6206:6226   */\n      tag_157\n        /* \"#utility.yul\":6224:6225   */\n      dup4\n        /* \"#utility.yul\":6206:6226   */\n      tag_126\n      jump\t// in\n    tag_157:\n        /* \"#utility.yul\":6201:6226   */\n      swap3\n      pop\n        /* \"#utility.yul\":6245:6246   */\n      dup3\n        /* \"#utility.yul\":6242:6243   */\n      dup3\n        /* \"#utility.yul\":6239:6247   */\n      lt\n        /* \"#utility.yul\":6236:6270   */\n      iszero\n      tag_158\n      jumpi\n        /* \"#utility.yul\":6250:6268   */\n      tag_159\n      tag_154\n      jump\t// in\n    tag_159:\n        /* \"#utility.yul\":6236:6270   */\n    tag_158:\n        /* \"#utility.yul\":6295:6296   */\n      dup3\n        /* \"#utility.yul\":6292:6293   */\n      dup3\n        /* \"#utility.yul\":6288:6297   */\n      sub\n        /* \"#utility.yul\":6280:6297   */\n      swap1\n      pop\n        /* \"#utility.yul\":6112:6303   */\n      swap3\n      swap2\n      pop\n      pop\n      jump\t// out\n        /* \"#utility.yul\":6309:6405   */\n    tag_116:\n        /* \"#utility.yul\":6346:6353   */\n      0x00\n        /* \"#utility.yul\":6375:6399   */\n      tag_161\n        /* \"#utility.yul\":6393:6398   */\n      dup3\n        /* \"#utility.yul\":6375:6399   */\n      tag_162\n      jump\t// in\n    tag_161:\n        /* \"#utility.yul\":6364:6399   */\n      swap1\n      pop\n        /* \"#utility.yul\":6309:6405   */\n      swap2\n      swap1\n      pop\n      jump\t// out\n        /* \"#utility.yul\":6411:6501   */\n    tag_163:\n        /* \"#utility.yul\":6445:6452   */\n      0x00\n        /* \"#utility.yul\":6488:6493   */\n      dup2\n        /* \"#utility.yul\":6481:6494   */\n      iszero\n        /* \"#utility.yul\":6474:6495   */\n      iszero\n        /* \"#utility.yul\":6463:6495   */\n      swap1\n      pop\n        /* \"#utility.yul\":6411:6501   */\n      swap2\n      swap1\n      pop\n      jump\t// out\n        /* \"#utility.yul\":6507:6583   */\n    tag_165:\n        /* \"#utility.yul\":6543:6550   */\n      0x00\n        /* \"#utility.yul\":6572:6577   */\n      dup2\n        /* \"#utility.yul\":6561:6577   */\n      swap1\n      pop\n        /* \"#utility.yul\":6507:6583   */\n      swap2\n      swap1\n      pop\n      jump\t// out\n        /* \"#utility.yul\":6589:6715   */\n    tag_162:\n        /* \"#utility.yul\":6626:6633   */\n      0x00\n        /* \"#utility.yul\":6666:6708   */\n      0xffffffffffffffffffffffffffffffffffffffff\n        /* \"#utility.yul\":6659:6664   */\n      dup3\n        /* \"#utility.yul\":6655:6709   */\n      and\n        /* \"#utility.yul\":6644:6709   */\n      swap1\n      pop\n        /* \"#utility.yul\":6589:6715   */\n      swap2\n      swap1\n      pop\n      jump\t// out\n        /* \"#utility.yul\":6721:6798   */\n    tag_126:\n        /* \"#utility.yul\":6758:6765   */\n      0x00\n        /* \"#utility.yul\":6787:6792   */\n      dup2\n        /* \"#utility.yul\":6776:6792   */\n      swap1\n      pop\n        /* \"#utility.yul\":6721:6798   */\n      swap2\n      swap1\n      pop\n      jump\t// out\n        /* \"#utility.yul\":6804:6984   */\n    tag_154:\n        /* \"#utility.yul\":6852:6929   */\n      0x4e487b7100000000000000000000000000000000000000000000000000000000\n        /* \"#utility.yul\":6849:6850   */\n      0x00\n        /* \"#utility.yul\":6842:6930   */\n      mstore\n        /* \"#utility.yul\":6949:6953   */\n      0x11\n        /* \"#utility.yul\":6946:6947   */\n      0x04\n        /* \"#utility.yul\":6939:6954   */\n      mstore\n        /* \"#utility.yul\":6973:6977   */\n      0x24\n        /* \"#utility.yul\":6970:6971   */\n      0x00\n        /* \"#utility.yul\":6963:6978   */\n      revert\n        /* \"#utility.yul\":6990:7170   */\n    tag_148:\n        /* \"#utility.yul\":7038:7115   */\n      0x4e487b7100000000000000000000000000000000000000000000000000000000\n        /* \"#utility.yul\":7035:7036   */\n      0x00\n        /* \"#utility.yul\":7028:7116   */\n      mstore\n        /* \"#utility.yul\":7135:7139   */\n      0x12\n        /* \"#utility.yul\":7132:7133   */\n      0x04\n        /* \"#utility.yul\":7125:7140   */\n      mstore\n        /* \"#utility.yul\":7159:7163   */\n      0x24\n        /* \"#utility.yul\":7156:7157   */\n      0x00\n        /* \"#utility.yul\":7149:7164   */\n      revert\n        /* \"#utility.yul\":7299:7416   */\n    tag_90:\n        /* \"#utility.yul\":7408:7409   */\n      0x00\n        /* \"#utility.yul\":7405:7406   */\n      dup1\n        /* \"#utility.yul\":7398:7410   */\n      revert\n        /* \"#utility.yul\":7422:7602   */\n    tag_122:\n        /* \"#utility.yul\":7562:7594   */\n      0x436f6e74726163743a20496e73756666696369656e742042616c616e63650000\n        /* \"#utility.yul\":7558:7559   */\n      0x00\n        /* \"#utility.yul\":7550:7556   */\n      dup3\n        /* \"#utility.yul\":7546:7560   */\n      add\n        /* \"#utility.yul\":7539:7595   */\n      mstore\n        /* \"#utility.yul\":7422:7602   */\n      pop\n      jump\t// out\n        /* \"#utility.yul\":7608:7730   */\n    tag_74:\n        /* \"#utility.yul\":7681:7705   */\n      tag_176\n        /* \"#utility.yul\":7699:7704   */\n      dup2\n        /* \"#utility.yul\":7681:7705   */\n      tag_116\n      jump\t// in\n    tag_176:\n        /* \"#utility.yul\":7674:7679   */\n      dup2\n        /* \"#utility.yul\":7671:7706   */\n      eq\n        /* \"#utility.yul\":7661:7724   */\n      tag_177\n      jumpi\n        /* \"#utility.yul\":7720:7721   */\n      0x00\n        /* \"#utility.yul\":7717:7718   */\n      dup1\n        /* \"#utility.yul\":7710:7722   */\n      revert\n        /* \"#utility.yul\":7661:7724   */\n    tag_177:\n        /* \"#utility.yul\":7608:7730   */\n      pop\n      jump\t// out\n        /* \"#utility.yul\":7736:7852   */\n    tag_78:\n        /* \"#utility.yul\":7806:7827   */\n      tag_179\n        /* \"#utility.yul\":7821:7826   */\n      dup2\n        /* \"#utility.yul\":7806:7827   */\n      tag_163\n      jump\t// in\n    tag_179:\n        /* \"#utility.yul\":7799:7804   */\n      dup2\n        /* \"#utility.yul\":7796:7828   */\n      eq\n        /* \"#utility.yul\":7786:7846   */\n      tag_180\n      jumpi\n        /* \"#utility.yul\":7842:7843   */\n      0x00\n        /* \"#utility.yul\":7839:7840   */\n      dup1\n        /* \"#utility.yul\":7832:7844   */\n      revert\n        /* \"#utility.yul\":7786:7846   */\n    tag_180:\n        /* \"#utility.yul\":7736:7852   */\n      pop\n      jump\t// out\n        /* \"#utility.yul\":7858:7978   */\n    tag_82:\n        /* \"#utility.yul\":7930:7953   */\n      tag_182\n        /* \"#utility.yul\":7947:7952   */\n      dup2\n        /* \"#utility.yul\":7930:7953   */\n      tag_165\n      jump\t// in\n    tag_182:\n        /* \"#utility.yul\":7923:7928   */\n      dup2\n        /* \"#utility.yul\":7920:7954   */\n      eq\n        /* \"#utility.yul\":7910:7972   */\n      tag_183\n      jumpi\n        /* \"#utility.yul\":7968:7969   */\n      0x00\n        /* \"#utility.yul\":7965:7966   */\n      dup1\n        /* \"#utility.yul\":7958:7970   */\n      revert\n        /* \"#utility.yul\":7910:7972   */\n    tag_183:\n        /* \"#utility.yul\":7858:7978   */\n      pop\n      jump\t// out\n        /* \"#utility.yul\":7984:8106   */\n    tag_86:\n        /* \"#utility.yul\":8057:8081   */\n      tag_185\n        /* \"#utility.yul\":8075:8080   */\n      dup2\n        /* \"#utility.yul\":8057:8081   */\n      tag_126\n      jump\t// in\n    tag_185:\n        /* \"#utility.yul\":8050:8055   */\n      dup2\n        /* \"#utility.yul\":8047:8082   */\n      eq\n        /* \"#utility.yul\":8037:8100   */\n      tag_186\n      jumpi\n        /* \"#utility.yul\":8096:8097   */\n      0x00\n        /* \"#utility.yul\":8093:8094   */\n      dup1\n        /* \"#utility.yul\":8086:8098   */\n      revert\n        /* \"#utility.yul\":8037:8100   */\n    tag_186:\n        /* \"#utility.yul\":7984:8106   */\n      pop\n      jump\t// out\n\n    auxdata: 0xa26469706673582212209b1529c4a5f16f5a38312f510a627c291931cffa437c43de3fb2b9d9f7048b2064736f6c63430008070033\n}\n",
				"bytecode": {
					"linkReferences": {},
					"object": "6080604052601460025534801561001557600080fd5b50604051610b6d380380610b6d833981810160405281019061003791906100d3565b806000806101000a81548173ffffffffffffffffffffffffffffffffffffffff021916908373ffffffffffffffffffffffffffffffffffffffff16021790555033600160006101000a81548173ffffffffffffffffffffffffffffffffffffffff021916908373ffffffffffffffffffffffffffffffffffffffff1602179055505061014e565b6000815190506100cd81610137565b92915050565b6000602082840312156100e9576100e8610132565b5b60006100f7848285016100be565b91505092915050565b600061010b82610112565b9050919050565b600073ffffffffffffffffffffffffffffffffffffffff82169050919050565b600080fd5b61014081610100565b811461014b57600080fd5b50565b610a108061015d6000396000f3fe6080604052600436106100555760003560e01c8063061bf0451461005a578063102a5f911461008a57806332a2c5d0146100c7578063344bfb59146100f2578063af049d551461011d578063fe33b30214610148575b600080fd5b610074600480360381019061006f9190610618565b610185565b60405161008191906107b5565b60405180910390f35b34801561009657600080fd5b506100b160048036038101906100ac91906105c5565b61032a565b6040516100be91906107b5565b60405180910390f35b3480156100d357600080fd5b506100dc6104bd565b6040516100e9919061071a565b60405180910390f35b3480156100fe57600080fd5b506101076104c5565b604051610114919061071a565b60405180910390f35b34801561012957600080fd5b506101326104eb565b60405161013f919061071a565b60405180910390f35b34801561015457600080fd5b5061016f600480360381019061016a9190610598565b610511565b60405161017c919061071a565b60405180910390f35b60008085905060006002546103e88661019e91906107e1565b6101a89190610812565b90508173ffffffffffffffffffffffffffffffffffffffff166323b872dd8530896040518463ffffffff1660e01b81526004016101e79392919061075e565b602060405180830381600087803b15801561020157600080fd5b505af1158015610215573d6000803e3d6000fd5b505050506040513d601f19601f82011682018060405250810190610239919061067f565b508447101561027d576040517f08c379a000000000000000000000000000000000000000000000000000000000815260040161027490610795565b60405180910390fd5b8373ffffffffffffffffffffffffffffffffffffffff166108fc82876102a3919061086c565b9081150290604051600060405180830381858888f193505050501580156102ce573d6000803e3d6000fd5b5061031e600460009054906101000a900473ffffffffffffffffffffffffffffffffffffffff16600560009054906101000a900473ffffffffffffffffffffffffffffffffffffffff168361032a565b92505050949350505050565b60008060008054906101000a900473ffffffffffffffffffffffffffffffffffffffff1673ffffffffffffffffffffffffffffffffffffffff1663baaa61be600360008873ffffffffffffffffffffffffffffffffffffffff1673ffffffffffffffffffffffffffffffffffffffff16815260200190815260200160002060009054906101000a900473ffffffffffffffffffffffffffffffffffffffff16600360008873ffffffffffffffffffffffffffffffffffffffff1673ffffffffffffffffffffffffffffffffffffffff16815260200190815260200160002060009054906101000a900473ffffffffffffffffffffffffffffffffffffffff166040518363ffffffff1660e01b8152600401610446929190610735565b60206040518083038186803b15801561045e57600080fd5b505afa158015610472573d6000803e3d6000fd5b505050506040513d601f19601f8201168201806040525081019061049691906106ac565b90506305f5e10081846104a99190610812565b6104b391906107e1565b9150509392505050565b600030905090565b600460009054906101000a900473ffffffffffffffffffffffffffffffffffffffff1681565b600560009054906101000a900473ffffffffffffffffffffffffffffffffffffffff1681565b60036020528060005260406000206000915054906101000a900473ffffffffffffffffffffffffffffffffffffffff1681565b6000813590506105538161097e565b92915050565b60008151905061056881610995565b92915050565b60008151905061057d816109ac565b92915050565b600081359050610592816109c3565b92915050565b6000602082840312156105ae576105ad610950565b5b60006105bc84828501610544565b91505092915050565b6000806000606084860312156105de576105dd610950565b5b60006105ec86828701610544565b93505060206105fd86828701610544565b925050604061060e86828701610583565b9150509250925092565b6000806000806080858703121561063257610631610950565b5b600061064087828801610544565b945050602061065187828801610583565b935050604061066287828801610583565b925050606061067387828801610544565b91505092959194509250565b60006020828403121561069557610694610950565b5b60006106a384828501610559565b91505092915050565b6000602082840312156106c2576106c1610950565b5b60006106d08482850161056e565b91505092915050565b6106e2816108a0565b82525050565b60006106f5601e836107d0565b915061070082610955565b602082019050919050565b610714816108e8565b82525050565b600060208201905061072f60008301846106d9565b92915050565b600060408201905061074a60008301856106d9565b61075760208301846106d9565b9392505050565b600060608201905061077360008301866106d9565b61078060208301856106d9565b61078d604083018461070b565b949350505050565b600060208201905081810360008301526107ae816106e8565b9050919050565b60006020820190506107ca600083018461070b565b92915050565b600082825260208201905092915050565b60006107ec826108e8565b91506107f7836108e8565b92508261080757610806610921565b5b828204905092915050565b600061081d826108e8565b9150610828836108e8565b9250817fffffffffffffffffffffffffffffffffffffffffffffffffffffffffffffffff0483118215151615610861576108606108f2565b5b828202905092915050565b6000610877826108e8565b9150610882836108e8565b925082821015610895576108946108f2565b5b828203905092915050565b60006108ab826108c8565b9050919050565b60008115159050919050565b6000819050919050565b600073ffffffffffffffffffffffffffffffffffffffff82169050919050565b6000819050919050565b7f4e487b7100000000000000000000000000000000000000000000000000000000600052601160045260246000fd5b7f4e487b7100000000000000000000000000000000000000000000000000000000600052601260045260246000fd5b600080fd5b7f436f6e74726163743a20496e73756666696369656e742042616c616e63650000600082015250565b610987816108a0565b811461099257600080fd5b50565b61099e816108b2565b81146109a957600080fd5b50565b6109b5816108be565b81146109c057600080fd5b50565b6109cc816108e8565b81146109d757600080fd5b5056fea26469706673582212209b1529c4a5f16f5a38312f510a627c291931cffa437c43de3fb2b9d9f7048b2064736f6c63430008070033",
					"opcodes": "PUSH1 0x80 PUSH1 0x40 MSTORE PUSH1 0x14 PUSH1 0x2 SSTORE CALLVALUE DUP1 ISZERO PUSH2 0x15 JUMPI PUSH1 0x0 DUP1 REVERT JUMPDEST POP PUSH1 0x40 MLOAD PUSH2 0xB6D CODESIZE SUB DUP1 PUSH2 0xB6D DUP4 CODECOPY DUP2 DUP2 ADD PUSH1 0x40 MSTORE DUP2 ADD SWAP1 PUSH2 0x37 SWAP2 SWAP1 PUSH2 0xD3 JUMP JUMPDEST DUP1 PUSH1 0x0 DUP1 PUSH2 0x100 EXP DUP2 SLOAD DUP2 PUSH20 0xFFFFFFFFFFFFFFFFFFFFFFFFFFFFFFFFFFFFFFFF MUL NOT AND SWAP1 DUP4 PUSH20 0xFFFFFFFFFFFFFFFFFFFFFFFFFFFFFFFFFFFFFFFF AND MUL OR SWAP1 SSTORE POP CALLER PUSH1 0x1 PUSH1 0x0 PUSH2 0x100 EXP DUP2 SLOAD DUP2 PUSH20 0xFFFFFFFFFFFFFFFFFFFFFFFFFFFFFFFFFFFFFFFF MUL NOT AND SWAP1 DUP4 PUSH20 0xFFFFFFFFFFFFFFFFFFFFFFFFFFFFFFFFFFFFFFFF AND MUL OR SWAP1 SSTORE POP POP PUSH2 0x14E JUMP JUMPDEST PUSH1 0x0 DUP2 MLOAD SWAP1 POP PUSH2 0xCD DUP2 PUSH2 0x137 JUMP JUMPDEST SWAP3 SWAP2 POP POP JUMP JUMPDEST PUSH1 0x0 PUSH1 0x20 DUP3 DUP5 SUB SLT ISZERO PUSH2 0xE9 JUMPI PUSH2 0xE8 PUSH2 0x132 JUMP JUMPDEST JUMPDEST PUSH1 0x0 PUSH2 0xF7 DUP5 DUP3 DUP6 ADD PUSH2 0xBE JUMP JUMPDEST SWAP2 POP POP SWAP3 SWAP2 POP POP JUMP JUMPDEST PUSH1 0x0 PUSH2 0x10B DUP3 PUSH2 0x112 JUMP JUMPDEST SWAP1 POP SWAP2 SWAP1 POP JUMP JUMPDEST PUSH1 0x0 PUSH20 0xFFFFFFFFFFFFFFFFFFFFFFFFFFFFFFFFFFFFFFFF DUP3 AND SWAP1 POP SWAP2 SWAP1 POP JUMP JUMPDEST PUSH1 0x0 DUP1 REVERT JUMPDEST PUSH2 0x140 DUP2 PUSH2 0x100 JUMP JUMPDEST DUP2 EQ PUSH2 0x14B JUMPI PUSH1 0x0 DUP1 REVERT JUMPDEST POP JUMP JUMPDEST PUSH2 0xA10 DUP1 PUSH2 0x15D PUSH1 0x0 CODECOPY PUSH1 0x0 RETURN INVALID PUSH1 0x80 PUSH1 0x40 MSTORE PUSH1 0x4 CALLDATASIZE LT PUSH2 0x55 JUMPI PUSH1 0x0 CALLDATALOAD PUSH1 0xE0 SHR DUP1 PUSH4 0x61BF045 EQ PUSH2 0x5A JUMPI DUP1 PUSH4 0x102A5F91 EQ PUSH2 0x8A JUMPI DUP1 PUSH4 0x32A2C5D0 EQ PUSH2 0xC7 JUMPI DUP1 PUSH4 0x344BFB59 EQ PUSH2 0xF2 JUMPI DUP1 PUSH4 0xAF049D55 EQ PUSH2 0x11D JUMPI DUP1 PUSH4 0xFE33B302 EQ PUSH2 0x148 JUMPI JUMPDEST PUSH1 0x0 DUP1 REVERT JUMPDEST PUSH2 0x74 PUSH1 0x4 DUP1 CALLDATASIZE SUB DUP2 ADD SWAP1 PUSH2 0x6F SWAP2 SWAP1 PUSH2 0x618 JUMP JUMPDEST PUSH2 0x185 JUMP JUMPDEST PUSH1 0x40 MLOAD PUSH2 0x81 SWAP2 SWAP1 PUSH2 0x7B5 JUMP JUMPDEST PUSH1 0x40 MLOAD DUP1 SWAP2 SUB SWAP1 RETURN JUMPDEST CALLVALUE DUP1 ISZERO PUSH2 0x96 JUMPI PUSH1 0x0 DUP1 REVERT JUMPDEST POP PUSH2 0xB1 PUSH1 0x4 DUP1 CALLDATASIZE SUB DUP2 ADD SWAP1 PUSH2 0xAC SWAP2 SWAP1 PUSH2 0x5C5 JUMP JUMPDEST PUSH2 0x32A JUMP JUMPDEST PUSH1 0x40 MLOAD PUSH2 0xBE SWAP2 SWAP1 PUSH2 0x7B5 JUMP JUMPDEST PUSH1 0x40 MLOAD DUP1 SWAP2 SUB SWAP1 RETURN JUMPDEST CALLVALUE DUP1 ISZERO PUSH2 0xD3 JUMPI PUSH1 0x0 DUP1 REVERT JUMPDEST POP PUSH2 0xDC PUSH2 0x4BD JUMP JUMPDEST PUSH1 0x40 MLOAD PUSH2 0xE9 SWAP2 SWAP1 PUSH2 0x71A JUMP JUMPDEST PUSH1 0x40 MLOAD DUP1 SWAP2 SUB SWAP1 RETURN JUMPDEST CALLVALUE DUP1 ISZERO PUSH2 0xFE JUMPI PUSH1 0x0 DUP1 REVERT JUMPDEST POP PUSH2 0x107 PUSH2 0x4C5 JUMP JUMPDEST PUSH1 0x40 MLOAD PUSH2 0x114 SWAP2 SWAP1 PUSH2 0x71A JUMP JUMPDEST PUSH1 0x40 MLOAD DUP1 SWAP2 SUB SWAP1 RETURN JUMPDEST CALLVALUE DUP1 ISZERO PUSH2 0x129 JUMPI PUSH1 0x0 DUP1 REVERT JUMPDEST POP PUSH2 0x132 PUSH2 0x4EB JUMP JUMPDEST PUSH1 0x40 MLOAD PUSH2 0x13F SWAP2 SWAP1 PUSH2 0x71A JUMP JUMPDEST PUSH1 0x40 MLOAD DUP1 SWAP2 SUB SWAP1 RETURN JUMPDEST CALLVALUE DUP1 ISZERO PUSH2 0x154 JUMPI PUSH1 0x0 DUP1 REVERT JUMPDEST POP PUSH2 0x16F PUSH1 0x4 DUP1 CALLDATASIZE SUB DUP2 ADD SWAP1 PUSH2 0x16A SWAP2 SWAP1 PUSH2 0x598 JUMP JUMPDEST PUSH2 0x511 JUMP JUMPDEST PUSH1 0x40 MLOAD PUSH2 0x17C SWAP2 SWAP1 PUSH2 0x71A JUMP JUMPDEST PUSH1 0x40 MLOAD DUP1 SWAP2 SUB SWAP1 RETURN JUMPDEST PUSH1 0x0 DUP1 DUP6 SWAP1 POP PUSH1 0x0 PUSH1 0x2 SLOAD PUSH2 0x3E8 DUP7 PUSH2 0x19E SWAP2 SWAP1 PUSH2 0x7E1 JUMP JUMPDEST PUSH2 0x1A8 SWAP2 SWAP1 PUSH2 0x812 JUMP JUMPDEST SWAP1 POP DUP2 PUSH20 0xFFFFFFFFFFFFFFFFFFFFFFFFFFFFFFFFFFFFFFFF AND PUSH4 0x23B872DD DUP6 ADDRESS DUP10 PUSH1 0x40 MLOAD DUP5 PUSH4 0xFFFFFFFF AND PUSH1 0xE0 SHL DUP2 MSTORE PUSH1 0x4 ADD PUSH2 0x1E7 SWAP4 SWAP3 SWAP2 SWAP1 PUSH2 0x75E JUMP JUMPDEST PUSH1 0x20 PUSH1 0x40 MLOAD DUP1 DUP4 SUB DUP2 PUSH1 0x0 DUP8 DUP1 EXTCODESIZE ISZERO DUP1 ISZERO PUSH2 0x201 JUMPI PUSH1 0x0 DUP1 REVERT JUMPDEST POP GAS CALL ISZERO DUP1 ISZERO PUSH2 0x215 JUMPI RETURNDATASIZE PUSH1 0x0 DUP1 RETURNDATACOPY RETURNDATASIZE PUSH1 0x0 REVERT JUMPDEST POP POP POP POP PUSH1 0x40 MLOAD RETURNDATASIZE PUSH1 0x1F NOT PUSH1 0x1F DUP3 ADD AND DUP3 ADD DUP1 PUSH1 0x40 MSTORE POP DUP2 ADD SWAP1 PUSH2 0x239 SWAP2 SWAP1 PUSH2 0x67F JUMP JUMPDEST POP DUP5 SELFBALANCE LT ISZERO PUSH2 0x27D JUMPI PUSH1 0x40 MLOAD PUSH32 0x8C379A000000000000000000000000000000000000000000000000000000000 DUP2 MSTORE PUSH1 0x4 ADD PUSH2 0x274 SWAP1 PUSH2 0x795 JUMP JUMPDEST PUSH1 0x40 MLOAD DUP1 SWAP2 SUB SWAP1 REVERT JUMPDEST DUP4 PUSH20 0xFFFFFFFFFFFFFFFFFFFFFFFFFFFFFFFFFFFFFFFF AND PUSH2 0x8FC DUP3 DUP8 PUSH2 0x2A3 SWAP2 SWAP1 PUSH2 0x86C JUMP JUMPDEST SWAP1 DUP2 ISZERO MUL SWAP1 PUSH1 0x40 MLOAD PUSH1 0x0 PUSH1 0x40 MLOAD DUP1 DUP4 SUB DUP2 DUP6 DUP9 DUP9 CALL SWAP4 POP POP POP POP ISZERO DUP1 ISZERO PUSH2 0x2CE JUMPI RETURNDATASIZE PUSH1 0x0 DUP1 RETURNDATACOPY RETURNDATASIZE PUSH1 0x0 REVERT JUMPDEST POP PUSH2 0x31E PUSH1 0x4 PUSH1 0x0 SWAP1 SLOAD SWAP1 PUSH2 0x100 EXP SWAP1 DIV PUSH20 0xFFFFFFFFFFFFFFFFFFFFFFFFFFFFFFFFFFFFFFFF AND PUSH1 0x5 PUSH1 0x0 SWAP1 SLOAD SWAP1 PUSH2 0x100 EXP SWAP1 DIV PUSH20 0xFFFFFFFFFFFFFFFFFFFFFFFFFFFFFFFFFFFFFFFF AND DUP4 PUSH2 0x32A JUMP JUMPDEST SWAP3 POP POP POP SWAP5 SWAP4 POP POP POP POP JUMP JUMPDEST PUSH1 0x0 DUP1 PUSH1 0x0 DUP1 SLOAD SWAP1 PUSH2 0x100 EXP SWAP1 DIV PUSH20 0xFFFFFFFFFFFFFFFFFFFFFFFFFFFFFFFFFFFFFFFF AND PUSH20 0xFFFFFFFFFFFFFFFFFFFFFFFFFFFFFFFFFFFFFFFF AND PUSH4 0xBAAA61BE PUSH1 0x3 PUSH1 0x0 DUP9 PUSH20 0xFFFFFFFFFFFFFFFFFFFFFFFFFFFFFFFFFFFFFFFF AND PUSH20 0xFFFFFFFFFFFFFFFFFFFFFFFFFFFFFFFFFFFFFFFF AND DUP2 MSTORE PUSH1 0x20 ADD SWAP1 DUP2 MSTORE PUSH1 0x20 ADD PUSH1 0x0 KECCAK256 PUSH1 0x0 SWAP1 SLOAD SWAP1 PUSH2 0x100 EXP SWAP1 DIV PUSH20 0xFFFFFFFFFFFFFFFFFFFFFFFFFFFFFFFFFFFFFFFF AND PUSH1 0x3 PUSH1 0x0 DUP9 PUSH20 0xFFFFFFFFFFFFFFFFFFFFFFFFFFFFFFFFFFFFFFFF AND PUSH20 0xFFFFFFFFFFFFFFFFFFFFFFFFFFFFFFFFFFFFFFFF AND DUP2 MSTORE PUSH1 0x20 ADD SWAP1 DUP2 MSTORE PUSH1 0x20 ADD PUSH1 0x0 KECCAK256 PUSH1 0x0 SWAP1 SLOAD SWAP1 PUSH2 0x100 EXP SWAP1 DIV PUSH20 0xFFFFFFFFFFFFFFFFFFFFFFFFFFFFFFFFFFFFFFFF AND PUSH1 0x40 MLOAD DUP4 PUSH4 0xFFFFFFFF AND PUSH1 0xE0 SHL DUP2 MSTORE PUSH1 0x4 ADD PUSH2 0x446 SWAP3 SWAP2 SWAP1 PUSH2 0x735 JUMP JUMPDEST PUSH1 0x20 PUSH1 0x40 MLOAD DUP1 DUP4 SUB DUP2 DUP7 DUP1 EXTCODESIZE ISZERO DUP1 ISZERO PUSH2 0x45E JUMPI PUSH1 0x0 DUP1 REVERT JUMPDEST POP GAS STATICCALL ISZERO DUP1 ISZERO PUSH2 0x472 JUMPI RETURNDATASIZE PUSH1 0x0 DUP1 RETURNDATACOPY RETURNDATASIZE PUSH1 0x0 REVERT JUMPDEST POP POP POP POP PUSH1 0x40 MLOAD RETURNDATASIZE PUSH1 0x1F NOT PUSH1 0x1F DUP3 ADD AND DUP3 ADD DUP1 PUSH1 0x40 MSTORE POP DUP2 ADD SWAP1 PUSH2 0x496 SWAP2 SWAP1 PUSH2 0x6AC JUMP JUMPDEST SWAP1 POP PUSH4 0x5F5E100 DUP2 DUP5 PUSH2 0x4A9 SWAP2 SWAP1 PUSH2 0x812 JUMP JUMPDEST PUSH2 0x4B3 SWAP2 SWAP1 PUSH2 0x7E1 JUMP JUMPDEST SWAP2 POP POP SWAP4 SWAP3 POP POP POP JUMP JUMPDEST PUSH1 0x0 ADDRESS SWAP1 POP SWAP1 JUMP JUMPDEST PUSH1 0x4 PUSH1 0x0 SWAP1 SLOAD SWAP1 PUSH2 0x100 EXP SWAP1 DIV PUSH20 0xFFFFFFFFFFFFFFFFFFFFFFFFFFFFFFFFFFFFFFFF AND DUP2 JUMP JUMPDEST PUSH1 0x5 PUSH1 0x0 SWAP1 SLOAD SWAP1 PUSH2 0x100 EXP SWAP1 DIV PUSH20 0xFFFFFFFFFFFFFFFFFFFFFFFFFFFFFFFFFFFFFFFF AND DUP2 JUMP JUMPDEST PUSH1 0x3 PUSH1 0x20 MSTORE DUP1 PUSH1 0x0 MSTORE PUSH1 0x40 PUSH1 0x0 KECCAK256 PUSH1 0x0 SWAP2 POP SLOAD SWAP1 PUSH2 0x100 EXP SWAP1 DIV PUSH20 0xFFFFFFFFFFFFFFFFFFFFFFFFFFFFFFFFFFFFFFFF AND DUP2 JUMP JUMPDEST PUSH1 0x0 DUP2 CALLDATALOAD SWAP1 POP PUSH2 0x553 DUP2 PUSH2 0x97E JUMP JUMPDEST SWAP3 SWAP2 POP POP JUMP JUMPDEST PUSH1 0x0 DUP2 MLOAD SWAP1 POP PUSH2 0x568 DUP2 PUSH2 0x995 JUMP JUMPDEST SWAP3 SWAP2 POP POP JUMP JUMPDEST PUSH1 0x0 DUP2 MLOAD SWAP1 POP PUSH2 0x57D DUP2 PUSH2 0x9AC JUMP JUMPDEST SWAP3 SWAP2 POP POP JUMP JUMPDEST PUSH1 0x0 DUP2 CALLDATALOAD SWAP1 POP PUSH2 0x592 DUP2 PUSH2 0x9C3 JUMP JUMPDEST SWAP3 SWAP2 POP POP JUMP JUMPDEST PUSH1 0x0 PUSH1 0x20 DUP3 DUP5 SUB SLT ISZERO PUSH2 0x5AE JUMPI PUSH2 0x5AD PUSH2 0x950 JUMP JUMPDEST JUMPDEST PUSH1 0x0 PUSH2 0x5BC DUP5 DUP3 DUP6 ADD PUSH2 0x544 JUMP JUMPDEST SWAP2 POP POP SWAP3 SWAP2 POP POP JUMP JUMPDEST PUSH1 0x0 DUP1 PUSH1 0x0 PUSH1 0x60 DUP5 DUP7 SUB SLT ISZERO PUSH2 0x5DE JUMPI PUSH2 0x5DD PUSH2 0x950 JUMP JUMPDEST JUMPDEST PUSH1 0x0 PUSH2 0x5EC DUP7 DUP3 DUP8 ADD PUSH2 0x544 JUMP JUMPDEST SWAP4 POP POP PUSH1 0x20 PUSH2 0x5FD DUP7 DUP3 DUP8 ADD PUSH2 0x544 JUMP JUMPDEST SWAP3 POP POP PUSH1 0x40 PUSH2 0x60E DUP7 DUP3 DUP8 ADD PUSH2 0x583 JUMP JUMPDEST SWAP2 POP POP SWAP3 POP SWAP3 POP SWAP3 JUMP JUMPDEST PUSH1 0x0 DUP1 PUSH1 0x0 DUP1 PUSH1 0x80 DUP6 DUP8 SUB SLT ISZERO PUSH2 0x632 JUMPI PUSH2 0x631 PUSH2 0x950 JUMP JUMPDEST JUMPDEST PUSH1 0x0 PUSH2 0x640 DUP8 DUP3 DUP9 ADD PUSH2 0x544 JUMP JUMPDEST SWAP5 POP POP PUSH1 0x20 PUSH2 0x651 DUP8 DUP3 DUP9 ADD PUSH2 0x583 JUMP JUMPDEST SWAP4 POP POP PUSH1 0x40 PUSH2 0x662 DUP8 DUP3 DUP9 ADD PUSH2 0x583 JUMP JUMPDEST SWAP3 POP POP PUSH1 0x60 PUSH2 0x673 DUP8 DUP3 DUP9 ADD PUSH2 0x544 JUMP JUMPDEST SWAP2 POP POP SWAP3 SWAP6 SWAP2 SWAP5 POP SWAP3 POP JUMP JUMPDEST PUSH1 0x0 PUSH1 0x20 DUP3 DUP5 SUB SLT ISZERO PUSH2 0x695 JUMPI PUSH2 0x694 PUSH2 0x950 JUMP JUMPDEST JUMPDEST PUSH1 0x0 PUSH2 0x6A3 DUP5 DUP3 DUP6 ADD PUSH2 0x559 JUMP JUMPDEST SWAP2 POP POP SWAP3 SWAP2 POP POP JUMP JUMPDEST PUSH1 0x0 PUSH1 0x20 DUP3 DUP5 SUB SLT ISZERO PUSH2 0x6C2 JUMPI PUSH2 0x6C1 PUSH2 0x950 JUMP JUMPDEST JUMPDEST PUSH1 0x0 PUSH2 0x6D0 DUP5 DUP3 DUP6 ADD PUSH2 0x56E JUMP JUMPDEST SWAP2 POP POP SWAP3 SWAP2 POP POP JUMP JUMPDEST PUSH2 0x6E2 DUP2 PUSH2 0x8A0 JUMP JUMPDEST DUP3 MSTORE POP POP JUMP JUMPDEST PUSH1 0x0 PUSH2 0x6F5 PUSH1 0x1E DUP4 PUSH2 0x7D0 JUMP JUMPDEST SWAP2 POP PUSH2 0x700 DUP3 PUSH2 0x955 JUMP JUMPDEST PUSH1 0x20 DUP3 ADD SWAP1 POP SWAP2 SWAP1 POP JUMP JUMPDEST PUSH2 0x714 DUP2 PUSH2 0x8E8 JUMP JUMPDEST DUP3 MSTORE POP POP JUMP JUMPDEST PUSH1 0x0 PUSH1 0x20 DUP3 ADD SWAP1 POP PUSH2 0x72F PUSH1 0x0 DUP4 ADD DUP5 PUSH2 0x6D9 JUMP JUMPDEST SWAP3 SWAP2 POP POP JUMP JUMPDEST PUSH1 0x0 PUSH1 0x40 DUP3 ADD SWAP1 POP PUSH2 0x74A PUSH1 0x0 DUP4 ADD DUP6 PUSH2 0x6D9 JUMP JUMPDEST PUSH2 0x757 PUSH1 0x20 DUP4 ADD DUP5 PUSH2 0x6D9 JUMP JUMPDEST SWAP4 SWAP3 POP POP POP JUMP JUMPDEST PUSH1 0x0 PUSH1 0x60 DUP3 ADD SWAP1 POP PUSH2 0x773 PUSH1 0x0 DUP4 ADD DUP7 PUSH2 0x6D9 JUMP JUMPDEST PUSH2 0x780 PUSH1 0x20 DUP4 ADD DUP6 PUSH2 0x6D9 JUMP JUMPDEST PUSH2 0x78D PUSH1 0x40 DUP4 ADD DUP5 PUSH2 0x70B JUMP JUMPDEST SWAP5 SWAP4 POP POP POP POP JUMP JUMPDEST PUSH1 0x0 PUSH1 0x20 DUP3 ADD SWAP1 POP DUP2 DUP2 SUB PUSH1 0x0 DUP4 ADD MSTORE PUSH2 0x7AE DUP2 PUSH2 0x6E8 JUMP JUMPDEST SWAP1 POP SWAP2 SWAP1 POP JUMP JUMPDEST PUSH1 0x0 PUSH1 0x20 DUP3 ADD SWAP1 POP PUSH2 0x7CA PUSH1 0x0 DUP4 ADD DUP5 PUSH2 0x70B JUMP JUMPDEST SWAP3 SWAP2 POP POP JUMP JUMPDEST PUSH1 0x0 DUP3 DUP3 MSTORE PUSH1 0x20 DUP3 ADD SWAP1 POP SWAP3 SWAP2 POP POP JUMP JUMPDEST PUSH1 0x0 PUSH2 0x7EC DUP3 PUSH2 0x8E8 JUMP JUMPDEST SWAP2 POP PUSH2 0x7F7 DUP4 PUSH2 0x8E8 JUMP JUMPDEST SWAP3 POP DUP3 PUSH2 0x807 JUMPI PUSH2 0x806 PUSH2 0x921 JUMP JUMPDEST JUMPDEST DUP3 DUP3 DIV SWAP1 POP SWAP3 SWAP2 POP POP JUMP JUMPDEST PUSH1 0x0 PUSH2 0x81D DUP3 PUSH2 0x8E8 JUMP JUMPDEST SWAP2 POP PUSH2 0x828 DUP4 PUSH2 0x8E8 JUMP JUMPDEST SWAP3 POP DUP2 PUSH32 0xFFFFFFFFFFFFFFFFFFFFFFFFFFFFFFFFFFFFFFFFFFFFFFFFFFFFFFFFFFFFFFFF DIV DUP4 GT DUP3 ISZERO ISZERO AND ISZERO PUSH2 0x861 JUMPI PUSH2 0x860 PUSH2 0x8F2 JUMP JUMPDEST JUMPDEST DUP3 DUP3 MUL SWAP1 POP SWAP3 SWAP2 POP POP JUMP JUMPDEST PUSH1 0x0 PUSH2 0x877 DUP3 PUSH2 0x8E8 JUMP JUMPDEST SWAP2 POP PUSH2 0x882 DUP4 PUSH2 0x8E8 JUMP JUMPDEST SWAP3 POP DUP3 DUP3 LT ISZERO PUSH2 0x895 JUMPI PUSH2 0x894 PUSH2 0x8F2 JUMP JUMPDEST JUMPDEST DUP3 DUP3 SUB SWAP1 POP SWAP3 SWAP2 POP POP JUMP JUMPDEST PUSH1 0x0 PUSH2 0x8AB DUP3 PUSH2 0x8C8 JUMP JUMPDEST SWAP1 POP SWAP2 SWAP1 POP JUMP JUMPDEST PUSH1 0x0 DUP2 ISZERO ISZERO SWAP1 POP SWAP2 SWAP1 POP JUMP JUMPDEST PUSH1 0x0 DUP2 SWAP1 POP SWAP2 SWAP1 POP JUMP JUMPDEST PUSH1 0x0 PUSH20 0xFFFFFFFFFFFFFFFFFFFFFFFFFFFFFFFFFFFFFFFF DUP3 AND SWAP1 POP SWAP2 SWAP1 POP JUMP JUMPDEST PUSH1 0x0 DUP2 SWAP1 POP SWAP2 SWAP1 POP JUMP JUMPDEST PUSH32 0x4E487B7100000000000000000000000000000000000000000000000000000000 PUSH1 0x0 MSTORE PUSH1 0x11 PUSH1 0x4 MSTORE PUSH1 0x24 PUSH1 0x0 REVERT JUMPDEST PUSH32 0x4E487B7100000000000000000000000000000000000000000000000000000000 PUSH1 0x0 MSTORE PUSH1 0x12 PUSH1 0x4 MSTORE PUSH1 0x24 PUSH1 0x0 REVERT JUMPDEST PUSH1 0x0 DUP1 REVERT JUMPDEST PUSH32 0x436F6E74726163743A20496E73756666696369656E742042616C616E63650000 PUSH1 0x0 DUP3 ADD MSTORE POP JUMP JUMPDEST PUSH2 0x987 DUP2 PUSH2 0x8A0 JUMP JUMPDEST DUP2 EQ PUSH2 0x992 JUMPI PUSH1 0x0 DUP1 REVERT JUMPDEST POP JUMP JUMPDEST PUSH2 0x99E DUP2 PUSH2 0x8B2 JUMP JUMPDEST DUP2 EQ PUSH2 0x9A9 JUMPI PUSH1 0x0 DUP1 REVERT JUMPDEST POP JUMP JUMPDEST PUSH2 0x9B5 DUP2 PUSH2 0x8BE JUMP JUMPDEST DUP2 EQ PUSH2 0x9C0 JUMPI PUSH1 0x0 DUP1 REVERT JUMPDEST POP JUMP JUMPDEST PUSH2 0x9CC DUP2 PUSH2 0x8E8 JUMP JUMPDEST DUP2 EQ PUSH2 0x9D7 JUMPI PUSH1 0x0 DUP1 REVERT JUMPDEST POP JUMP INVALID LOG2 PUSH5 0x6970667358 0x22 SLT KECCAK256 SWAP12 ISZERO 0x29 0xC4 0xA5 CALL PUSH16 0x5A38312F510A627C291931CFFA437C43 0xDE EXTCODEHASH 0xB2 0xB9 0xD9 0xF7 DIV DUP12 KECCAK256 PUSH5 0x736F6C6343 STOP ADDMOD SMOD STOP CALLER "
				},
				"gasEstimates": {
					"creation": {
						"codeDepositCost": "515200",
						"executionCost": "infinite",
						"totalCost": "infinite"
					},
					"external": {
						"BENZ_PAIR()": "2580",
						"NATIVE_PAIR()": "2558",
						"_transferSwappedTokens1(address,uint256,uint256,address)": "infinite",
						"estimate(address,address,uint256)": "infinite",
						"getContractAddress()": "407",
						"pairs(address)": "infinite"
					},
					"internal": {
						"_inWei(uint256)": "infinite",
						"_transferSwappedTokens0(address,uint256,address)": "infinite",
						"_transferSwappedTokens2(address,address,uint256,uint256,address)": "infinite"
					}
				},
				"methodIdentifiers": {
					"BENZ_PAIR()": "af049d55",
					"NATIVE_PAIR()": "344bfb59",
					"_transferSwappedTokens1(address,uint256,uint256,address)": "061bf045",
					"estimate(address,address,uint256)": "102a5f91",
					"getContractAddress()": "32a2c5d0",
					"pairs(address)": "fe33b302"
				}
			},
			"storageLayout": {
				"storage": [
					{
						"astId": 132,
						"contract": "Benz-Swap/core/Benz-Swap.sol:BenzSwap",
						"label": "_priceApi",
						"offset": 0,
						"slot": "0",
						"type": "t_contract(PriceApi)576"
					},
					{
						"astId": 134,
						"contract": "Benz-Swap/core/Benz-Swap.sol:BenzSwap",
						"label": "_deployer",
						"offset": 0,
						"slot": "1",
						"type": "t_address"
					},
					{
						"astId": 137,
						"contract": "Benz-Swap/core/Benz-Swap.sol:BenzSwap",
						"label": "swapFee",
						"offset": 0,
						"slot": "2",
						"type": "t_uint256"
					},
					{
						"astId": 141,
						"contract": "Benz-Swap/core/Benz-Swap.sol:BenzSwap",
						"label": "pairs",
						"offset": 0,
						"slot": "3",
						"type": "t_mapping(t_address,t_address)"
					},
					{
						"astId": 143,
						"contract": "Benz-Swap/core/Benz-Swap.sol:BenzSwap",
						"label": "NATIVE_PAIR",
						"offset": 0,
						"slot": "4",
						"type": "t_address"
					},
					{
						"astId": 145,
						"contract": "Benz-Swap/core/Benz-Swap.sol:BenzSwap",
						"label": "BENZ_PAIR",
						"offset": 0,
						"slot": "5",
						"type": "t_address"
					}
				],
				"types": {
					"t_address": {
						"encoding": "inplace",
						"label": "address",
						"numberOfBytes": "20"
					},
					"t_contract(PriceApi)576": {
						"encoding": "inplace",
						"label": "contract PriceApi",
						"numberOfBytes": "20"
					},
					"t_mapping(t_address,t_address)": {
						"encoding": "mapping",
						"key": "t_address",
						"label": "mapping(address => address)",
						"numberOfBytes": "32",
						"value": "t_address"
					},
					"t_uint256": {
						"encoding": "inplace",
						"label": "uint256",
						"numberOfBytes": "32"
					}
				}
			},
			"userdoc": {
				"kind": "user",
				"methods": {},
				"version": 1
			}
		}
	}
}