{
	"Benz-Swap/core/P2PExchange.sol": {
		"P2PExchange": {
			"abi": [
				{
					"inputs": [],
					"stateMutability": "nonpayable",
					"type": "constructor"
				},
				{
					"inputs": [],
					"name": "ID",
					"outputs": [
						{
							"internalType": "uint256",
							"name": "",
							"type": "uint256"
						}
					],
					"stateMutability": "view",
					"type": "function"
				},
				{
					"inputs": [
						{
							"internalType": "uint256",
							"name": "",
							"type": "uint256"
						}
					],
					"name": "Seller",
					"outputs": [
						{
							"internalType": "uint256",
							"name": "userID",
							"type": "uint256"
						},
						{
							"internalType": "address",
							"name": "userAddress",
							"type": "address"
						},
						{
							"internalType": "address",
							"name": "tokenToTransfer",
							"type": "address"
						},
						{
							"internalType": "uint256",
							"name": "amountToTransfer",
							"type": "uint256"
						}
					],
					"stateMutability": "view",
					"type": "function"
				},
				{
					"inputs": [
						{
							"internalType": "address",
							"name": "",
							"type": "address"
						}
					],
					"name": "SellerIndex",
					"outputs": [
						{
							"internalType": "uint256",
							"name": "",
							"type": "uint256"
						}
					],
					"stateMutability": "view",
					"type": "function"
				},
				{
					"inputs": [
						{
							"internalType": "uint256",
							"name": "",
							"type": "uint256"
						}
					],
					"name": "SellersLists",
					"outputs": [
						{
							"internalType": "uint256",
							"name": "userID",
							"type": "uint256"
						},
						{
							"internalType": "address",
							"name": "userAddress",
							"type": "address"
						},
						{
							"internalType": "address",
							"name": "tokenToTransfer",
							"type": "address"
						},
						{
							"internalType": "uint256",
							"name": "amountToTransfer",
							"type": "uint256"
						}
					],
					"stateMutability": "view",
					"type": "function"
				},
				{
					"inputs": [
						{
							"internalType": "address",
							"name": "_desiredTokenAddress",
							"type": "address"
						}
					],
					"name": "buy",
					"outputs": [],
					"stateMutability": "nonpayable",
					"type": "function"
				},
				{
					"inputs": [],
					"name": "contractOwner",
					"outputs": [
						{
							"internalType": "address",
							"name": "",
							"type": "address"
						}
					],
					"stateMutability": "view",
					"type": "function"
				},
				{
					"inputs": [
						{
							"internalType": "address",
							"name": "_tokenAddress",
							"type": "address"
						}
					],
					"name": "getAllMatchingUsers",
					"outputs": [
						{
							"internalType": "address[]",
							"name": "",
							"type": "address[]"
						}
					],
					"stateMutability": "view",
					"type": "function"
				},
				{
					"inputs": [
						{
							"internalType": "address",
							"name": "callerChoice",
							"type": "address"
						}
					],
					"name": "getUsersWithMatchingDesiredTokens",
					"outputs": [
						{
							"internalType": "address[]",
							"name": "",
							"type": "address[]"
						}
					],
					"stateMutability": "view",
					"type": "function"
				},
				{
					"inputs": [
						{
							"internalType": "address",
							"name": "",
							"type": "address"
						}
					],
					"name": "isTokenTradeable",
					"outputs": [
						{
							"internalType": "bool",
							"name": "",
							"type": "bool"
						}
					],
					"stateMutability": "view",
					"type": "function"
				},
				{
					"inputs": [
						{
							"internalType": "address",
							"name": "_tokenAddress",
							"type": "address"
						}
					],
					"name": "makeTradeableToken",
					"outputs": [],
					"stateMutability": "nonpayable",
					"type": "function"
				},
				{
					"inputs": [
						{
							"internalType": "uint256",
							"name": "_amount",
							"type": "uint256"
						},
						{
							"internalType": "address",
							"name": "_tokenAddress",
							"type": "address"
						},
						{
							"internalType": "address[]",
							"name": "_tokenDesired",
							"type": "address[]"
						}
					],
					"name": "seller",
					"outputs": [],
					"stateMutability": "nonpayable",
					"type": "function"
				}
			],
			"devdoc": {
				"kind": "dev",
				"methods": {},
				"version": 1
			},
			"evm": {
				"assembly": "    /* \"Benz-Swap/core/P2PExchange.sol\":143:4458  contract P2PExchange{\r... */\n  mstore(0x40, 0x80)\n    /* \"Benz-Swap/core/P2PExchange.sol\":654:709  constructor(){\r... */\n  callvalue\n  dup1\n  iszero\n  tag_1\n  jumpi\n  0x00\n  dup1\n  revert\ntag_1:\n  pop\n    /* \"Benz-Swap/core/P2PExchange.sol\":688:698  msg.sender */\n  caller\n    /* \"Benz-Swap/core/P2PExchange.sol\":674:687  contractOwner */\n  0x01\n  0x00\n    /* \"Benz-Swap/core/P2PExchange.sol\":674:698  contractOwner=msg.sender */\n  0x0100\n  exp\n  dup2\n  sload\n  dup2\n  0xffffffffffffffffffffffffffffffffffffffff\n  mul\n  not\n  and\n  swap1\n  dup4\n  0xffffffffffffffffffffffffffffffffffffffff\n  and\n  mul\n  or\n  swap1\n  sstore\n  pop\n    /* \"Benz-Swap/core/P2PExchange.sol\":143:4458  contract P2PExchange{\r... */\n  dataSize(sub_0)\n  dup1\n  dataOffset(sub_0)\n  0x00\n  codecopy\n  0x00\n  return\nstop\n\nsub_0: assembly {\n        /* \"Benz-Swap/core/P2PExchange.sol\":143:4458  contract P2PExchange{\r... */\n      mstore(0x40, 0x80)\n      callvalue\n      dup1\n      iszero\n      tag_1\n      jumpi\n      0x00\n      dup1\n      revert\n    tag_1:\n      pop\n      jumpi(tag_2, lt(calldatasize, 0x04))\n      shr(0xe0, calldataload(0x00))\n      dup1\n      0x96ad3d60\n      gt\n      tag_14\n      jumpi\n      dup1\n      0x96ad3d60\n      eq\n      tag_8\n      jumpi\n      dup1\n      0xb3cea217\n      eq\n      tag_9\n      jumpi\n      dup1\n      0xce606ee0\n      eq\n      tag_10\n      jumpi\n      dup1\n      0xe57fbf13\n      eq\n      tag_11\n      jumpi\n      dup1\n      0xf088d547\n      eq\n      tag_12\n      jumpi\n      dup1\n      0xf8a5e83f\n      eq\n      tag_13\n      jumpi\n      jump(tag_2)\n    tag_14:\n      dup1\n      0x14f2d649\n      eq\n      tag_3\n      jumpi\n      dup1\n      0x392b93c6\n      eq\n      tag_4\n      jumpi\n      dup1\n      0x53da1d8c\n      eq\n      tag_5\n      jumpi\n      dup1\n      0x6f89ed57\n      eq\n      tag_6\n      jumpi\n      dup1\n      0x95527eae\n      eq\n      tag_7\n      jumpi\n    tag_2:\n      0x00\n      dup1\n      revert\n        /* \"Benz-Swap/core/P2PExchange.sol\":713:1627  function seller(uint256 _amount,address _tokenAddress,address [] memory  _tokenDesired) public {\r... */\n    tag_3:\n      tag_15\n      0x04\n      dup1\n      calldatasize\n      sub\n      dup2\n      add\n      swap1\n      tag_16\n      swap2\n      swap1\n      tag_17\n      jump\t// in\n    tag_16:\n      tag_18\n      jump\t// in\n    tag_15:\n      stop\n        /* \"Benz-Swap/core/P2PExchange.sol\":2822:3687  function getUsersWithMatchingDesiredTokens(address callerChoice) public view returns (address[] memory) {\r... */\n    tag_4:\n      tag_19\n      0x04\n      dup1\n      calldatasize\n      sub\n      dup2\n      add\n      swap1\n      tag_20\n      swap2\n      swap1\n      tag_21\n      jump\t// in\n    tag_20:\n      tag_22\n      jump\t// in\n    tag_19:\n      mload(0x40)\n      tag_23\n      swap2\n      swap1\n      tag_24\n      jump\t// in\n    tag_23:\n      mload(0x40)\n      dup1\n      swap2\n      sub\n      swap1\n      return\n        /* \"Benz-Swap/core/P2PExchange.sol\":620:650  Listing [] public SellersLists */\n    tag_5:\n      tag_25\n      0x04\n      dup1\n      calldatasize\n      sub\n      dup2\n      add\n      swap1\n      tag_26\n      swap2\n      swap1\n      tag_27\n      jump\t// in\n    tag_26:\n      tag_28\n      jump\t// in\n    tag_25:\n      mload(0x40)\n      tag_29\n      swap5\n      swap4\n      swap3\n      swap2\n      swap1\n      tag_30\n      jump\t// in\n    tag_29:\n      mload(0x40)\n      dup1\n      swap2\n      sub\n      swap1\n      return\n        /* \"Benz-Swap/core/P2PExchange.sol\":273:324  mapping(address  => bool  ) public isTokenTradeable */\n    tag_6:\n      tag_31\n      0x04\n      dup1\n      calldatasize\n      sub\n      dup2\n      add\n      swap1\n      tag_32\n      swap2\n      swap1\n      tag_21\n      jump\t// in\n    tag_32:\n      tag_33\n      jump\t// in\n    tag_31:\n      mload(0x40)\n      tag_34\n      swap2\n      swap1\n      tag_35\n      jump\t// in\n    tag_34:\n      mload(0x40)\n      dup1\n      swap2\n      sub\n      swap1\n      return\n        /* \"Benz-Swap/core/P2PExchange.sol\":328:374  mapping(address => uint256) public SellerIndex */\n    tag_7:\n      tag_36\n      0x04\n      dup1\n      calldatasize\n      sub\n      dup2\n      add\n      swap1\n      tag_37\n      swap2\n      swap1\n      tag_21\n      jump\t// in\n    tag_37:\n      tag_38\n      jump\t// in\n    tag_36:\n      mload(0x40)\n      tag_39\n      swap2\n      swap1\n      tag_40\n      jump\t// in\n    tag_39:\n      mload(0x40)\n      dup1\n      swap2\n      sub\n      swap1\n      return\n        /* \"Benz-Swap/core/P2PExchange.sol\":4103:4354  function getAllMatchingUsers(address _tokenAddress) public view returns (address[] memory) {\r... */\n    tag_8:\n      tag_41\n      0x04\n      dup1\n      calldatasize\n      sub\n      dup2\n      add\n      swap1\n      tag_42\n      swap2\n      swap1\n      tag_21\n      jump\t// in\n    tag_42:\n      tag_43\n      jump\t// in\n    tag_41:\n      mload(0x40)\n      tag_44\n      swap2\n      swap1\n      tag_24\n      jump\t// in\n    tag_44:\n      mload(0x40)\n      dup1\n      swap2\n      sub\n      swap1\n      return\n        /* \"Benz-Swap/core/P2PExchange.sol\":168:185  uint256 public ID */\n    tag_9:\n      tag_45\n      tag_46\n      jump\t// in\n    tag_45:\n      mload(0x40)\n      tag_47\n      swap2\n      swap1\n      tag_40\n      jump\t// in\n    tag_47:\n      mload(0x40)\n      dup1\n      swap2\n      sub\n      swap1\n      return\n        /* \"Benz-Swap/core/P2PExchange.sol\":189:217  address public contractOwner */\n    tag_10:\n      tag_48\n      tag_49\n      jump\t// in\n    tag_48:\n      mload(0x40)\n      tag_50\n      swap2\n      swap1\n      tag_51\n      jump\t// in\n    tag_50:\n      mload(0x40)\n      dup1\n      swap2\n      sub\n      swap1\n      return\n        /* \"Benz-Swap/core/P2PExchange.sol\":572:613  mapping(uint256 => Listing) public Seller */\n    tag_11:\n      tag_52\n      0x04\n      dup1\n      calldatasize\n      sub\n      dup2\n      add\n      swap1\n      tag_53\n      swap2\n      swap1\n      tag_27\n      jump\t// in\n    tag_53:\n      tag_54\n      jump\t// in\n    tag_52:\n      mload(0x40)\n      tag_55\n      swap5\n      swap4\n      swap3\n      swap2\n      swap1\n      tag_30\n      jump\t// in\n    tag_55:\n      mload(0x40)\n      dup1\n      swap2\n      sub\n      swap1\n      return\n        /* \"Benz-Swap/core/P2PExchange.sol\":1705:2216  function buy(address _desiredTokenAddress) public {\r... */\n    tag_12:\n      tag_56\n      0x04\n      dup1\n      calldatasize\n      sub\n      dup2\n      add\n      swap1\n      tag_57\n      swap2\n      swap1\n      tag_21\n      jump\t// in\n    tag_57:\n      tag_58\n      jump\t// in\n    tag_56:\n      stop\n        /* \"Benz-Swap/core/P2PExchange.sol\":2220:2353  function makeTradeableToken(address _tokenAddress) external onlyOwner{ \r... */\n    tag_13:\n      tag_59\n      0x04\n      dup1\n      calldatasize\n      sub\n      dup2\n      add\n      swap1\n      tag_60\n      swap2\n      swap1\n      tag_21\n      jump\t// in\n    tag_60:\n      tag_61\n      jump\t// in\n    tag_59:\n      stop\n        /* \"Benz-Swap/core/P2PExchange.sol\":713:1627  function seller(uint256 _amount,address _tokenAddress,address [] memory  _tokenDesired) public {\r... */\n    tag_18:\n        /* \"Benz-Swap/core/P2PExchange.sol\":855:859  true */\n      0x01\n        /* \"Benz-Swap/core/P2PExchange.sol\":821:837  isTokenTradeable */\n      0x04\n        /* \"Benz-Swap/core/P2PExchange.sol\":821:852  isTokenTradeable[_tokenAddress] */\n      0x00\n        /* \"Benz-Swap/core/P2PExchange.sol\":838:851  _tokenAddress */\n      dup5\n        /* \"Benz-Swap/core/P2PExchange.sol\":821:852  isTokenTradeable[_tokenAddress] */\n      0xffffffffffffffffffffffffffffffffffffffff\n      and\n      0xffffffffffffffffffffffffffffffffffffffff\n      and\n      dup2\n      mstore\n      0x20\n      add\n      swap1\n      dup2\n      mstore\n      0x20\n      add\n      0x00\n      keccak256\n      0x00\n        /* \"Benz-Swap/core/P2PExchange.sol\":821:859  isTokenTradeable[_tokenAddress] = true */\n      0x0100\n      exp\n      dup2\n      sload\n      dup2\n      0xff\n      mul\n      not\n      and\n      swap1\n      dup4\n      iszero\n      iszero\n      mul\n      or\n      swap1\n      sstore\n        /* \"Benz-Swap/core/P2PExchange.sol\":813:893  require(isTokenTradeable[_tokenAddress] = true,\"Token Address is not Tradeable\") */\n      tag_63\n      jumpi\n      mload(0x40)\n      0x08c379a000000000000000000000000000000000000000000000000000000000\n      dup2\n      mstore\n      0x04\n      add\n      tag_64\n      swap1\n      tag_65\n      jump\t// in\n    tag_64:\n      mload(0x40)\n      dup1\n      swap2\n      sub\n      swap1\n      revert\n    tag_63:\n        /* \"Benz-Swap/core/P2PExchange.sol\":916:917  0 */\n      0x00\n        /* \"Benz-Swap/core/P2PExchange.sol\":906:913  _amount */\n      dup4\n        /* \"Benz-Swap/core/P2PExchange.sol\":906:917  _amount > 0 */\n      gt\n        /* \"Benz-Swap/core/P2PExchange.sol\":898:944  require(_amount > 0, \"Ammount cannot be Zero\") */\n      tag_66\n      jumpi\n      mload(0x40)\n      0x08c379a000000000000000000000000000000000000000000000000000000000\n      dup2\n      mstore\n      0x04\n      add\n      tag_67\n      swap1\n      tag_68\n      jump\t// in\n    tag_67:\n      mload(0x40)\n      dup1\n      swap2\n      sub\n      swap1\n      revert\n    tag_66:\n        /* \"Benz-Swap/core/P2PExchange.sol\":1005:1012  _amount */\n      dup3\n        /* \"Benz-Swap/core/P2PExchange.sol\":965:978  _tokenAddress */\n      dup3\n        /* \"Benz-Swap/core/P2PExchange.sol\":958:989  IERC20(_tokenAddress).balanceOf */\n      0xffffffffffffffffffffffffffffffffffffffff\n      and\n      0x70a08231\n        /* \"Benz-Swap/core/P2PExchange.sol\":990:1000  msg.sender */\n      caller\n        /* \"Benz-Swap/core/P2PExchange.sol\":958:1001  IERC20(_tokenAddress).balanceOf(msg.sender) */\n      mload(0x40)\n      dup3\n      0xffffffff\n      and\n      0xe0\n      shl\n      dup2\n      mstore\n      0x04\n      add\n      tag_69\n      swap2\n      swap1\n      tag_51\n      jump\t// in\n    tag_69:\n      0x20\n      mload(0x40)\n      dup1\n      dup4\n      sub\n      dup2\n      dup7\n      dup1\n      extcodesize\n      iszero\n      dup1\n      iszero\n      tag_70\n      jumpi\n      0x00\n      dup1\n      revert\n    tag_70:\n      pop\n      gas\n      staticcall\n      iszero\n      dup1\n      iszero\n      tag_72\n      jumpi\n      returndatasize\n      0x00\n      dup1\n      returndatacopy\n      revert(0x00, returndatasize)\n    tag_72:\n      pop\n      pop\n      pop\n      pop\n      mload(0x40)\n      returndatasize\n      not(0x1f)\n      0x1f\n      dup3\n      add\n      and\n      dup3\n      add\n      dup1\n      0x40\n      mstore\n      pop\n      dup2\n      add\n      swap1\n      tag_73\n      swap2\n      swap1\n      tag_74\n      jump\t// in\n    tag_73:\n        /* \"Benz-Swap/core/P2PExchange.sol\":958:1012  IERC20(_tokenAddress).balanceOf(msg.sender) >= _amount */\n      lt\n      iszero\n        /* \"Benz-Swap/core/P2PExchange.sol\":950:1056  require(IERC20(_tokenAddress).balanceOf(msg.sender) >= _amount,  \"Amount of token to sell cannot be zero\") */\n      tag_75\n      jumpi\n      mload(0x40)\n      0x08c379a000000000000000000000000000000000000000000000000000000000\n      dup2\n      mstore\n      0x04\n      add\n      tag_76\n      swap1\n      tag_77\n      jump\t// in\n    tag_76:\n      mload(0x40)\n      dup1\n      swap2\n      sub\n      swap1\n      revert\n    tag_75:\n        /* \"Benz-Swap/core/P2PExchange.sol\":1104:1108  true */\n      0x01\n        /* \"Benz-Swap/core/P2PExchange.sol\":1069:1108  checkIfTradeable(_tokenDesired) == true */\n      iszero\n      iszero\n        /* \"Benz-Swap/core/P2PExchange.sol\":1069:1100  checkIfTradeable(_tokenDesired) */\n      tag_78\n        /* \"Benz-Swap/core/P2PExchange.sol\":1086:1099  _tokenDesired */\n      dup3\n        /* \"Benz-Swap/core/P2PExchange.sol\":1069:1085  checkIfTradeable */\n      tag_79\n        /* \"Benz-Swap/core/P2PExchange.sol\":1069:1100  checkIfTradeable(_tokenDesired) */\n      jump\t// in\n    tag_78:\n        /* \"Benz-Swap/core/P2PExchange.sol\":1069:1108  checkIfTradeable(_tokenDesired) == true */\n      iszero\n      iszero\n      eq\n        /* \"Benz-Swap/core/P2PExchange.sol\":1061:1148  require(checkIfTradeable(_tokenDesired) == true, \"Some of your Token is not Tradeable\") */\n      tag_80\n      jumpi\n      mload(0x40)\n      0x08c379a000000000000000000000000000000000000000000000000000000000\n      dup2\n      mstore\n      0x04\n      add\n      tag_81\n      swap1\n      tag_82\n      jump\t// in\n    tag_81:\n      mload(0x40)\n      dup1\n      swap2\n      sub\n      swap1\n      revert\n    tag_80:\n        /* \"Benz-Swap/core/P2PExchange.sol\":1152:1171  IERC20 tokenAddress */\n      0x00\n        /* \"Benz-Swap/core/P2PExchange.sol\":1180:1193  _tokenAddress */\n      dup3\n        /* \"Benz-Swap/core/P2PExchange.sol\":1152:1194  IERC20 tokenAddress= IERC20(_tokenAddress) */\n      swap1\n      pop\n        /* \"Benz-Swap/core/P2PExchange.sol\":1198:1210  tokenAddress */\n      dup1\n        /* \"Benz-Swap/core/P2PExchange.sol\":1198:1218  tokenAddress.approve */\n      0xffffffffffffffffffffffffffffffffffffffff\n      and\n      0x095ea7b3\n        /* \"Benz-Swap/core/P2PExchange.sol\":1227:1231  this */\n      address\n        /* \"Benz-Swap/core/P2PExchange.sol\":1233:1240  _amount */\n      dup7\n        /* \"Benz-Swap/core/P2PExchange.sol\":1198:1241  tokenAddress.approve(address(this),_amount) */\n      mload(0x40)\n      dup4\n      0xffffffff\n      and\n      0xe0\n      shl\n      dup2\n      mstore\n      0x04\n      add\n      tag_83\n      swap3\n      swap2\n      swap1\n      tag_84\n      jump\t// in\n    tag_83:\n      0x20\n      mload(0x40)\n      dup1\n      dup4\n      sub\n      dup2\n      0x00\n      dup8\n      dup1\n      extcodesize\n      iszero\n      dup1\n      iszero\n      tag_85\n      jumpi\n      0x00\n      dup1\n      revert\n    tag_85:\n      pop\n      gas\n      call\n      iszero\n      dup1\n      iszero\n      tag_87\n      jumpi\n      returndatasize\n      0x00\n      dup1\n      returndatacopy\n      revert(0x00, returndatasize)\n    tag_87:\n      pop\n      pop\n      pop\n      pop\n      mload(0x40)\n      returndatasize\n      not(0x1f)\n      0x1f\n      dup3\n      add\n      and\n      dup3\n      add\n      dup1\n      0x40\n      mstore\n      pop\n      dup2\n      add\n      swap1\n      tag_88\n      swap2\n      swap1\n      tag_89\n      jump\t// in\n    tag_88:\n      pop\n        /* \"Benz-Swap/core/P2PExchange.sol\":1251:1263  tokenAddress */\n      dup1\n        /* \"Benz-Swap/core/P2PExchange.sol\":1251:1276  tokenAddress.transferFrom */\n      0xffffffffffffffffffffffffffffffffffffffff\n      and\n      0x23b872dd\n        /* \"Benz-Swap/core/P2PExchange.sol\":1287:1297  msg.sender */\n      caller\n        /* \"Benz-Swap/core/P2PExchange.sol\":1316:1320  this */\n      address\n        /* \"Benz-Swap/core/P2PExchange.sol\":1331:1338  _amount */\n      dup8\n        /* \"Benz-Swap/core/P2PExchange.sol\":1251:1345  tokenAddress.transferFrom(\r... */\n      mload(0x40)\n      dup5\n      0xffffffff\n      and\n      0xe0\n      shl\n      dup2\n      mstore\n      0x04\n      add\n      tag_90\n      swap4\n      swap3\n      swap2\n      swap1\n      tag_91\n      jump\t// in\n    tag_90:\n      0x20\n      mload(0x40)\n      dup1\n      dup4\n      sub\n      dup2\n      0x00\n      dup8\n      dup1\n      extcodesize\n      iszero\n      dup1\n      iszero\n      tag_92\n      jumpi\n      0x00\n      dup1\n      revert\n    tag_92:\n      pop\n      gas\n      call\n      iszero\n      dup1\n      iszero\n      tag_94\n      jumpi\n      returndatasize\n      0x00\n      dup1\n      returndatacopy\n      revert(0x00, returndatasize)\n    tag_94:\n      pop\n      pop\n      pop\n      pop\n      mload(0x40)\n      returndatasize\n      not(0x1f)\n      0x1f\n      dup3\n      add\n      and\n      dup3\n      add\n      dup1\n      0x40\n      mstore\n      pop\n      dup2\n      add\n      swap1\n      tag_95\n      swap2\n      swap1\n      tag_89\n      jump\t// in\n    tag_95:\n      pop\n        /* \"Benz-Swap/core/P2PExchange.sol\":1349:1371  Listing memory listing */\n      0x00\n        /* \"Benz-Swap/core/P2PExchange.sol\":1374:1537  Listing({\r... */\n      mload(0x40)\n      dup1\n      0xa0\n      add\n      0x40\n      mstore\n      dup1\n        /* \"Benz-Swap/core/P2PExchange.sol\":1397:1399  ID */\n      sload(0x00)\n        /* \"Benz-Swap/core/P2PExchange.sol\":1374:1537  Listing({\r... */\n      dup2\n      mstore\n      0x20\n      add\n        /* \"Benz-Swap/core/P2PExchange.sol\":1419:1429  msg.sender */\n      caller\n        /* \"Benz-Swap/core/P2PExchange.sol\":1374:1537  Listing({\r... */\n      0xffffffffffffffffffffffffffffffffffffffff\n      and\n      dup2\n      mstore\n      0x20\n      add\n        /* \"Benz-Swap/core/P2PExchange.sol\":1453:1466  _tokenAddress */\n      dup6\n        /* \"Benz-Swap/core/P2PExchange.sol\":1374:1537  Listing({\r... */\n      0xffffffffffffffffffffffffffffffffffffffff\n      and\n      dup2\n      mstore\n      0x20\n      add\n        /* \"Benz-Swap/core/P2PExchange.sol\":1491:1498  _amount */\n      dup7\n        /* \"Benz-Swap/core/P2PExchange.sol\":1374:1537  Listing({\r... */\n      dup2\n      mstore\n      0x20\n      add\n        /* \"Benz-Swap/core/P2PExchange.sol\":1520:1533  _tokenDesired */\n      dup5\n        /* \"Benz-Swap/core/P2PExchange.sol\":1374:1537  Listing({\r... */\n      dup2\n      mstore\n      pop\n        /* \"Benz-Swap/core/P2PExchange.sol\":1349:1537  Listing memory listing = Listing({\r... */\n      swap1\n      pop\n        /* \"Benz-Swap/core/P2PExchange.sol\":1564:1566  ID */\n      sload(0x00)\n        /* \"Benz-Swap/core/P2PExchange.sol\":1540:1551  SellerIndex */\n      0x05\n        /* \"Benz-Swap/core/P2PExchange.sol\":1540:1563  SellerIndex[msg.sender] */\n      0x00\n        /* \"Benz-Swap/core/P2PExchange.sol\":1552:1562  msg.sender */\n      caller\n        /* \"Benz-Swap/core/P2PExchange.sol\":1540:1563  SellerIndex[msg.sender] */\n      0xffffffffffffffffffffffffffffffffffffffff\n      and\n      0xffffffffffffffffffffffffffffffffffffffff\n      and\n      dup2\n      mstore\n      0x20\n      add\n      swap1\n      dup2\n      mstore\n      0x20\n      add\n      0x00\n      keccak256\n        /* \"Benz-Swap/core/P2PExchange.sol\":1540:1566  SellerIndex[msg.sender]=ID */\n      dup2\n      swap1\n      sstore\n      pop\n        /* \"Benz-Swap/core/P2PExchange.sol\":1580:1587  listing */\n      dup1\n        /* \"Benz-Swap/core/P2PExchange.sol\":1569:1575  Seller */\n      0x06\n        /* \"Benz-Swap/core/P2PExchange.sol\":1569:1579  Seller[ID] */\n      0x00\n        /* \"Benz-Swap/core/P2PExchange.sol\":1576:1578  ID */\n      dup1\n      sload\n        /* \"Benz-Swap/core/P2PExchange.sol\":1569:1579  Seller[ID] */\n      dup2\n      mstore\n      0x20\n      add\n      swap1\n      dup2\n      mstore\n      0x20\n      add\n      0x00\n      keccak256\n        /* \"Benz-Swap/core/P2PExchange.sol\":1569:1587  Seller[ID]=listing */\n      0x00\n      dup3\n      add\n      mload\n      dup2\n      0x00\n      add\n      sstore\n      0x20\n      dup3\n      add\n      mload\n      dup2\n      0x01\n      add\n      exp(0x0100, 0x00)\n      dup2\n      sload\n      dup2\n      0xffffffffffffffffffffffffffffffffffffffff\n      mul\n      not\n      and\n      swap1\n      dup4\n      0xffffffffffffffffffffffffffffffffffffffff\n      and\n      mul\n      or\n      swap1\n      sstore\n      pop\n      0x40\n      dup3\n      add\n      mload\n      dup2\n      0x02\n      add\n      exp(0x0100, 0x00)\n      dup2\n      sload\n      dup2\n      0xffffffffffffffffffffffffffffffffffffffff\n      mul\n      not\n      and\n      swap1\n      dup4\n      0xffffffffffffffffffffffffffffffffffffffff\n      and\n      mul\n      or\n      swap1\n      sstore\n      pop\n      0x60\n      dup3\n      add\n      mload\n      dup2\n      0x03\n      add\n      sstore\n      0x80\n      dup3\n      add\n      mload\n      dup2\n      0x04\n      add\n      swap1\n      dup1\n      mload\n      swap1\n      0x20\n      add\n      swap1\n      tag_96\n      swap3\n      swap2\n      swap1\n      tag_97\n      jump\t// in\n    tag_96:\n      pop\n      swap1\n      pop\n      pop\n        /* \"Benz-Swap/core/P2PExchange.sol\":1590:1602  SellersLists */\n      0x07\n        /* \"Benz-Swap/core/P2PExchange.sol\":1608:1615  listing */\n      dup2\n        /* \"Benz-Swap/core/P2PExchange.sol\":1590:1616  SellersLists.push(listing) */\n      swap1\n      dup1\n      0x01\n      dup2\n      sload\n      add\n      dup1\n      dup3\n      sstore\n      dup1\n      swap2\n      pop\n      pop\n      0x01\n      swap1\n      sub\n      swap1\n      0x00\n      mstore\n      keccak256(0x00, 0x20)\n      swap1\n      0x05\n      mul\n      add\n      0x00\n      swap1\n      swap2\n      swap1\n      swap2\n      swap1\n      swap2\n      pop\n      0x00\n      dup3\n      add\n      mload\n      dup2\n      0x00\n      add\n      sstore\n      0x20\n      dup3\n      add\n      mload\n      dup2\n      0x01\n      add\n      exp(0x0100, 0x00)\n      dup2\n      sload\n      dup2\n      0xffffffffffffffffffffffffffffffffffffffff\n      mul\n      not\n      and\n      swap1\n      dup4\n      0xffffffffffffffffffffffffffffffffffffffff\n      and\n      mul\n      or\n      swap1\n      sstore\n      pop\n      0x40\n      dup3\n      add\n      mload\n      dup2\n      0x02\n      add\n      exp(0x0100, 0x00)\n      dup2\n      sload\n      dup2\n      0xffffffffffffffffffffffffffffffffffffffff\n      mul\n      not\n      and\n      swap1\n      dup4\n      0xffffffffffffffffffffffffffffffffffffffff\n      and\n      mul\n      or\n      swap1\n      sstore\n      pop\n      0x60\n      dup3\n      add\n      mload\n      dup2\n      0x03\n      add\n      sstore\n      0x80\n      dup3\n      add\n      mload\n      dup2\n      0x04\n      add\n      swap1\n      dup1\n      mload\n      swap1\n      0x20\n      add\n      swap1\n      tag_99\n      swap3\n      swap2\n      swap1\n      tag_97\n      jump\t// in\n    tag_99:\n      pop\n      pop\n      pop\n        /* \"Benz-Swap/core/P2PExchange.sol\":1619:1621  ID */\n      0x00\n      dup1\n        /* \"Benz-Swap/core/P2PExchange.sol\":1619:1623  ID++ */\n      dup2\n      sload\n      dup1\n      swap3\n      swap2\n      swap1\n      tag_100\n      swap1\n      tag_101\n      jump\t// in\n    tag_100:\n      swap2\n      swap1\n      pop\n      sstore\n      pop\n        /* \"Benz-Swap/core/P2PExchange.sol\":808:1627  {\r... */\n      pop\n      pop\n        /* \"Benz-Swap/core/P2PExchange.sol\":713:1627  function seller(uint256 _amount,address _tokenAddress,address [] memory  _tokenDesired) public {\r... */\n      pop\n      pop\n      pop\n      jump\t// out\n        /* \"Benz-Swap/core/P2PExchange.sol\":2822:3687  function getUsersWithMatchingDesiredTokens(address callerChoice) public view returns (address[] memory) {\r... */\n    tag_22:\n        /* \"Benz-Swap/core/P2PExchange.sol\":2908:2924  address[] memory */\n      0x60\n        /* \"Benz-Swap/core/P2PExchange.sol\":2937:2967  address[] memory matchingUsers */\n      0x00\n        /* \"Benz-Swap/core/P2PExchange.sol\":2984:2996  SellersLists */\n      0x07\n        /* \"Benz-Swap/core/P2PExchange.sol\":2984:3003  SellersLists.length */\n      dup1\n      sload\n      swap1\n      pop\n        /* \"Benz-Swap/core/P2PExchange.sol\":2970:3004  new address[](SellersLists.length) */\n      0xffffffffffffffff\n      dup2\n      gt\n      iszero\n      tag_103\n      jumpi\n      tag_104\n      tag_105\n      jump\t// in\n    tag_104:\n    tag_103:\n      mload(0x40)\n      swap1\n      dup1\n      dup3\n      mstore\n      dup1\n      0x20\n      mul\n      0x20\n      add\n      dup3\n      add\n      0x40\n      mstore\n      dup1\n      iszero\n      tag_106\n      jumpi\n      dup2\n      0x20\n      add\n      0x20\n      dup3\n      mul\n      dup1\n      calldatasize\n      dup4\n      calldatacopy\n      dup1\n      dup3\n      add\n      swap2\n      pop\n      pop\n      swap1\n      pop\n    tag_106:\n      pop\n        /* \"Benz-Swap/core/P2PExchange.sol\":2937:3004  address[] memory matchingUsers = new address[](SellersLists.length) */\n      swap1\n      pop\n        /* \"Benz-Swap/core/P2PExchange.sol\":3015:3030  bool matchFound */\n      0x00\n        /* \"Benz-Swap/core/P2PExchange.sol\":3091:3100  uint256 i */\n      dup1\n        /* \"Benz-Swap/core/P2PExchange.sol\":3086:3524  for (uint256 i = 0; i < SellersLists.length; i++) {\r... */\n    tag_107:\n        /* \"Benz-Swap/core/P2PExchange.sol\":3110:3122  SellersLists */\n      0x07\n        /* \"Benz-Swap/core/P2PExchange.sol\":3110:3129  SellersLists.length */\n      dup1\n      sload\n      swap1\n      pop\n        /* \"Benz-Swap/core/P2PExchange.sol\":3106:3107  i */\n      dup2\n        /* \"Benz-Swap/core/P2PExchange.sol\":3106:3129  i < SellersLists.length */\n      lt\n        /* \"Benz-Swap/core/P2PExchange.sol\":3086:3524  for (uint256 i = 0; i < SellersLists.length; i++) {\r... */\n      iszero\n      tag_108\n      jumpi\n        /* \"Benz-Swap/core/P2PExchange.sol\":3234:3287  contains(SellersLists[i].tokensDesired, callerChoice) */\n      tag_110\n        /* \"Benz-Swap/core/P2PExchange.sol\":3243:3255  SellersLists */\n      0x07\n        /* \"Benz-Swap/core/P2PExchange.sol\":3256:3257  i */\n      dup3\n        /* \"Benz-Swap/core/P2PExchange.sol\":3243:3258  SellersLists[i] */\n      dup2\n      sload\n      dup2\n      lt\n      tag_111\n      jumpi\n      tag_112\n      tag_113\n      jump\t// in\n    tag_112:\n    tag_111:\n      swap1\n      0x00\n      mstore\n      keccak256(0x00, 0x20)\n      swap1\n      0x05\n      mul\n      add\n        /* \"Benz-Swap/core/P2PExchange.sol\":3243:3272  SellersLists[i].tokensDesired */\n      0x04\n      add\n        /* \"Benz-Swap/core/P2PExchange.sol\":3234:3287  contains(SellersLists[i].tokensDesired, callerChoice) */\n      dup1\n      sload\n      dup1\n      0x20\n      mul\n      0x20\n      add\n      mload(0x40)\n      swap1\n      dup2\n      add\n      0x40\n      mstore\n      dup1\n      swap3\n      swap2\n      swap1\n      dup2\n      dup2\n      mstore\n      0x20\n      add\n      dup3\n      dup1\n      sload\n      dup1\n      iszero\n      tag_115\n      jumpi\n      0x20\n      mul\n      dup3\n      add\n      swap2\n      swap1\n      0x00\n      mstore\n      keccak256(0x00, 0x20)\n      swap1\n    tag_116:\n      dup2\n      0x00\n      swap1\n      sload\n      swap1\n      0x0100\n      exp\n      swap1\n      div\n      0xffffffffffffffffffffffffffffffffffffffff\n      and\n      0xffffffffffffffffffffffffffffffffffffffff\n      and\n      dup2\n      mstore\n      0x20\n      add\n      swap1\n      0x01\n      add\n      swap1\n      dup1\n      dup4\n      gt\n      tag_116\n      jumpi\n    tag_115:\n      pop\n      pop\n      pop\n      pop\n      pop\n        /* \"Benz-Swap/core/P2PExchange.sol\":3274:3286  callerChoice */\n      dup7\n        /* \"Benz-Swap/core/P2PExchange.sol\":3234:3242  contains */\n      tag_117\n        /* \"Benz-Swap/core/P2PExchange.sol\":3234:3287  contains(SellersLists[i].tokensDesired, callerChoice) */\n      jump\t// in\n    tag_110:\n        /* \"Benz-Swap/core/P2PExchange.sol\":3230:3513  if (contains(SellersLists[i].tokensDesired, callerChoice)) {\r... */\n      iszero\n      tag_118\n      jumpi\n        /* \"Benz-Swap/core/P2PExchange.sol\":3434:3446  SellersLists */\n      0x07\n        /* \"Benz-Swap/core/P2PExchange.sol\":3447:3448  i */\n      dup2\n        /* \"Benz-Swap/core/P2PExchange.sol\":3434:3449  SellersLists[i] */\n      dup2\n      sload\n      dup2\n      lt\n      tag_119\n      jumpi\n      tag_120\n      tag_113\n      jump\t// in\n    tag_120:\n    tag_119:\n      swap1\n      0x00\n      mstore\n      keccak256(0x00, 0x20)\n      swap1\n      0x05\n      mul\n      add\n        /* \"Benz-Swap/core/P2PExchange.sol\":3434:3461  SellersLists[i].userAddress */\n      0x01\n      add\n      0x00\n      swap1\n      sload\n      swap1\n      0x0100\n      exp\n      swap1\n      div\n      0xffffffffffffffffffffffffffffffffffffffff\n      and\n        /* \"Benz-Swap/core/P2PExchange.sol\":3415:3428  matchingUsers */\n      dup4\n        /* \"Benz-Swap/core/P2PExchange.sol\":3429:3430  i */\n      dup3\n        /* \"Benz-Swap/core/P2PExchange.sol\":3415:3431  matchingUsers[i] */\n      dup2\n      mload\n      dup2\n      lt\n      tag_122\n      jumpi\n      tag_123\n      tag_113\n      jump\t// in\n    tag_123:\n    tag_122:\n      0x20\n      mul\n      0x20\n      add\n      add\n        /* \"Benz-Swap/core/P2PExchange.sol\":3415:3461  matchingUsers[i] = SellersLists[i].userAddress */\n      swap1\n      0xffffffffffffffffffffffffffffffffffffffff\n      and\n      swap1\n      dup2\n      0xffffffffffffffffffffffffffffffffffffffff\n      and\n      dup2\n      mstore\n      pop\n      pop\n        /* \"Benz-Swap/core/P2PExchange.sol\":3493:3497  true */\n      0x01\n        /* \"Benz-Swap/core/P2PExchange.sol\":3480:3497  matchFound = true */\n      swap2\n      pop\n        /* \"Benz-Swap/core/P2PExchange.sol\":3230:3513  if (contains(SellersLists[i].tokensDesired, callerChoice)) {\r... */\n    tag_118:\n        /* \"Benz-Swap/core/P2PExchange.sol\":3131:3134  i++ */\n      dup1\n      dup1\n      tag_124\n      swap1\n      tag_101\n      jump\t// in\n    tag_124:\n      swap2\n      pop\n      pop\n        /* \"Benz-Swap/core/P2PExchange.sol\":3086:3524  for (uint256 i = 0; i < SellersLists.length; i++) {\r... */\n      jump(tag_107)\n    tag_108:\n      pop\n        /* \"Benz-Swap/core/P2PExchange.sol\":3607:3617  matchFound */\n      dup1\n        /* \"Benz-Swap/core/P2PExchange.sol\":3599:3646  require(matchFound, \"No matching users found.\") */\n      tag_125\n      jumpi\n      mload(0x40)\n      0x08c379a000000000000000000000000000000000000000000000000000000000\n      dup2\n      mstore\n      0x04\n      add\n      tag_126\n      swap1\n      tag_127\n      jump\t// in\n    tag_126:\n      mload(0x40)\n      dup1\n      swap2\n      sub\n      swap1\n      revert\n    tag_125:\n        /* \"Benz-Swap/core/P2PExchange.sol\":3666:3679  matchingUsers */\n      dup2\n        /* \"Benz-Swap/core/P2PExchange.sol\":3659:3679  return matchingUsers */\n      swap3\n      pop\n      pop\n      pop\n        /* \"Benz-Swap/core/P2PExchange.sol\":2822:3687  function getUsersWithMatchingDesiredTokens(address callerChoice) public view returns (address[] memory) {\r... */\n      swap2\n      swap1\n      pop\n      jump\t// out\n        /* \"Benz-Swap/core/P2PExchange.sol\":620:650  Listing [] public SellersLists */\n    tag_28:\n      0x07\n      dup2\n      dup2\n      sload\n      dup2\n      lt\n      tag_128\n      jumpi\n      0x00\n      dup1\n      revert\n    tag_128:\n      swap1\n      0x00\n      mstore\n      keccak256(0x00, 0x20)\n      swap1\n      0x05\n      mul\n      add\n      0x00\n      swap2\n      pop\n      swap1\n      pop\n      dup1\n      0x00\n      add\n      sload\n      swap1\n      dup1\n      0x01\n      add\n      0x00\n      swap1\n      sload\n      swap1\n      0x0100\n      exp\n      swap1\n      div\n      0xffffffffffffffffffffffffffffffffffffffff\n      and\n      swap1\n      dup1\n      0x02\n      add\n      0x00\n      swap1\n      sload\n      swap1\n      0x0100\n      exp\n      swap1\n      div\n      0xffffffffffffffffffffffffffffffffffffffff\n      and\n      swap1\n      dup1\n      0x03\n      add\n      sload\n      swap1\n      pop\n      dup5\n      jump\t// out\n        /* \"Benz-Swap/core/P2PExchange.sol\":273:324  mapping(address  => bool  ) public isTokenTradeable */\n    tag_33:\n      mstore(0x20, 0x04)\n      dup1\n      0x00\n      mstore\n      keccak256(0x00, 0x40)\n      0x00\n      swap2\n      pop\n      sload\n      swap1\n      0x0100\n      exp\n      swap1\n      div\n      0xff\n      and\n      dup2\n      jump\t// out\n        /* \"Benz-Swap/core/P2PExchange.sol\":328:374  mapping(address => uint256) public SellerIndex */\n    tag_38:\n      mstore(0x20, 0x05)\n      dup1\n      0x00\n      mstore\n      keccak256(0x00, 0x40)\n      0x00\n      swap2\n      pop\n      swap1\n      pop\n      sload\n      dup2\n      jump\t// out\n        /* \"Benz-Swap/core/P2PExchange.sol\":4103:4354  function getAllMatchingUsers(address _tokenAddress) public view returns (address[] memory) {\r... */\n    tag_43:\n        /* \"Benz-Swap/core/P2PExchange.sol\":4176:4192  address[] memory */\n      0x60\n        /* \"Benz-Swap/core/P2PExchange.sol\":4298:4346  getUsersWithMatchingDesiredTokens(_tokenAddress) */\n      tag_131\n        /* \"Benz-Swap/core/P2PExchange.sol\":4332:4345  _tokenAddress */\n      dup3\n        /* \"Benz-Swap/core/P2PExchange.sol\":4298:4331  getUsersWithMatchingDesiredTokens */\n      tag_22\n        /* \"Benz-Swap/core/P2PExchange.sol\":4298:4346  getUsersWithMatchingDesiredTokens(_tokenAddress) */\n      jump\t// in\n    tag_131:\n        /* \"Benz-Swap/core/P2PExchange.sol\":4291:4346  return getUsersWithMatchingDesiredTokens(_tokenAddress) */\n      swap1\n      pop\n        /* \"Benz-Swap/core/P2PExchange.sol\":4103:4354  function getAllMatchingUsers(address _tokenAddress) public view returns (address[] memory) {\r... */\n      swap2\n      swap1\n      pop\n      jump\t// out\n        /* \"Benz-Swap/core/P2PExchange.sol\":168:185  uint256 public ID */\n    tag_46:\n      sload(0x00)\n      dup2\n      jump\t// out\n        /* \"Benz-Swap/core/P2PExchange.sol\":189:217  address public contractOwner */\n    tag_49:\n      0x01\n      0x00\n      swap1\n      sload\n      swap1\n      0x0100\n      exp\n      swap1\n      div\n      0xffffffffffffffffffffffffffffffffffffffff\n      and\n      dup2\n      jump\t// out\n        /* \"Benz-Swap/core/P2PExchange.sol\":572:613  mapping(uint256 => Listing) public Seller */\n    tag_54:\n      mstore(0x20, 0x06)\n      dup1\n      0x00\n      mstore\n      keccak256(0x00, 0x40)\n      0x00\n      swap2\n      pop\n      swap1\n      pop\n      dup1\n      0x00\n      add\n      sload\n      swap1\n      dup1\n      0x01\n      add\n      0x00\n      swap1\n      sload\n      swap1\n      0x0100\n      exp\n      swap1\n      div\n      0xffffffffffffffffffffffffffffffffffffffff\n      and\n      swap1\n      dup1\n      0x02\n      add\n      0x00\n      swap1\n      sload\n      swap1\n      0x0100\n      exp\n      swap1\n      div\n      0xffffffffffffffffffffffffffffffffffffffff\n      and\n      swap1\n      dup1\n      0x03\n      add\n      sload\n      swap1\n      pop\n      dup5\n      jump\t// out\n        /* \"Benz-Swap/core/P2PExchange.sol\":1705:2216  function buy(address _desiredTokenAddress) public {\r... */\n    tag_58:\n        /* \"Benz-Swap/core/P2PExchange.sol\":1815:1819  true */\n      0x01\n        /* \"Benz-Swap/core/P2PExchange.sol\":1774:1790  isTokenTradeable */\n      0x04\n        /* \"Benz-Swap/core/P2PExchange.sol\":1774:1812  isTokenTradeable[_desiredTokenAddress] */\n      0x00\n        /* \"Benz-Swap/core/P2PExchange.sol\":1791:1811  _desiredTokenAddress */\n      dup4\n        /* \"Benz-Swap/core/P2PExchange.sol\":1774:1812  isTokenTradeable[_desiredTokenAddress] */\n      0xffffffffffffffffffffffffffffffffffffffff\n      and\n      0xffffffffffffffffffffffffffffffffffffffff\n      and\n      dup2\n      mstore\n      0x20\n      add\n      swap1\n      dup2\n      mstore\n      0x20\n      add\n      0x00\n      keccak256\n      0x00\n        /* \"Benz-Swap/core/P2PExchange.sol\":1774:1819  isTokenTradeable[_desiredTokenAddress] = true */\n      0x0100\n      exp\n      dup2\n      sload\n      dup2\n      0xff\n      mul\n      not\n      and\n      swap1\n      dup4\n      iszero\n      iszero\n      mul\n      or\n      swap1\n      sstore\n        /* \"Benz-Swap/core/P2PExchange.sol\":1766:1853  require(isTokenTradeable[_desiredTokenAddress] = true,\"Token Address is not Tradeable\") */\n      tag_133\n      jumpi\n      mload(0x40)\n      0x08c379a000000000000000000000000000000000000000000000000000000000\n      dup2\n      mstore\n      0x04\n      add\n      tag_134\n      swap1\n      tag_65\n      jump\t// in\n    tag_134:\n      mload(0x40)\n      dup1\n      swap2\n      sub\n      swap1\n      revert\n    tag_133:\n        /* \"Benz-Swap/core/P2PExchange.sol\":1864:1894  address[] memory matchingUsers */\n      0x00\n        /* \"Benz-Swap/core/P2PExchange.sol\":1897:1952  getUsersWithMatchingDesiredTokens(_desiredTokenAddress) */\n      tag_135\n        /* \"Benz-Swap/core/P2PExchange.sol\":1931:1951  _desiredTokenAddress */\n      dup3\n        /* \"Benz-Swap/core/P2PExchange.sol\":1897:1930  getUsersWithMatchingDesiredTokens */\n      tag_22\n        /* \"Benz-Swap/core/P2PExchange.sol\":1897:1952  getUsersWithMatchingDesiredTokens(_desiredTokenAddress) */\n      jump\t// in\n    tag_135:\n        /* \"Benz-Swap/core/P2PExchange.sol\":1864:1952  address[] memory matchingUsers = getUsersWithMatchingDesiredTokens(_desiredTokenAddress) */\n      swap1\n      pop\n        /* \"Benz-Swap/core/P2PExchange.sol\":2050:2051  0 */\n      0x00\n        /* \"Benz-Swap/core/P2PExchange.sol\":2027:2040  matchingUsers */\n      dup2\n        /* \"Benz-Swap/core/P2PExchange.sol\":2027:2047  matchingUsers.length */\n      mload\n        /* \"Benz-Swap/core/P2PExchange.sol\":2027:2051  matchingUsers.length > 0 */\n      gt\n        /* \"Benz-Swap/core/P2PExchange.sol\":2019:2080  require(matchingUsers.length > 0, \"No matching users found.\") */\n      tag_136\n      jumpi\n      mload(0x40)\n      0x08c379a000000000000000000000000000000000000000000000000000000000\n      dup2\n      mstore\n      0x04\n      add\n      tag_137\n      swap1\n      tag_127\n      jump\t// in\n    tag_137:\n      mload(0x40)\n      dup1\n      swap2\n      sub\n      swap1\n      revert\n    tag_136:\n        /* \"Benz-Swap/core/P2PExchange.sol\":1755:2216  {\r... */\n      pop\n        /* \"Benz-Swap/core/P2PExchange.sol\":1705:2216  function buy(address _desiredTokenAddress) public {\r... */\n      pop\n      jump\t// out\n        /* \"Benz-Swap/core/P2PExchange.sol\":2220:2353  function makeTradeableToken(address _tokenAddress) external onlyOwner{ \r... */\n    tag_61:\n        /* \"Benz-Swap/core/P2PExchange.sol\":4407:4420  contractOwner */\n      0x01\n      0x00\n      swap1\n      sload\n      swap1\n      0x0100\n      exp\n      swap1\n      div\n      0xffffffffffffffffffffffffffffffffffffffff\n      and\n        /* \"Benz-Swap/core/P2PExchange.sol\":4393:4420  msg.sender == contractOwner */\n      0xffffffffffffffffffffffffffffffffffffffff\n      and\n        /* \"Benz-Swap/core/P2PExchange.sol\":4393:4403  msg.sender */\n      caller\n        /* \"Benz-Swap/core/P2PExchange.sol\":4393:4420  msg.sender == contractOwner */\n      0xffffffffffffffffffffffffffffffffffffffff\n      and\n      eq\n        /* \"Benz-Swap/core/P2PExchange.sol\":4385:4447  require(msg.sender == contractOwner, \"Not the contract Owner\") */\n      tag_139\n      jumpi\n      mload(0x40)\n      0x08c379a000000000000000000000000000000000000000000000000000000000\n      dup2\n      mstore\n      0x04\n      add\n      tag_140\n      swap1\n      tag_141\n      jump\t// in\n    tag_140:\n      mload(0x40)\n      dup1\n      swap2\n      sub\n      swap1\n      revert\n    tag_139:\n        /* \"Benz-Swap/core/P2PExchange.sol\":2337:2341  true */\n      0x01\n        /* \"Benz-Swap/core/P2PExchange.sol\":2303:2319  isTokenTradeable */\n      0x04\n        /* \"Benz-Swap/core/P2PExchange.sol\":2303:2334  isTokenTradeable[_tokenAddress] */\n      0x00\n        /* \"Benz-Swap/core/P2PExchange.sol\":2320:2333  _tokenAddress */\n      dup4\n        /* \"Benz-Swap/core/P2PExchange.sol\":2303:2334  isTokenTradeable[_tokenAddress] */\n      0xffffffffffffffffffffffffffffffffffffffff\n      and\n      0xffffffffffffffffffffffffffffffffffffffff\n      and\n      dup2\n      mstore\n      0x20\n      add\n      swap1\n      dup2\n      mstore\n      0x20\n      add\n      0x00\n      keccak256\n      0x00\n        /* \"Benz-Swap/core/P2PExchange.sol\":2303:2341  isTokenTradeable[_tokenAddress] = true */\n      0x0100\n      exp\n      dup2\n      sload\n      dup2\n      0xff\n      mul\n      not\n      and\n      swap1\n      dup4\n      iszero\n      iszero\n      mul\n      or\n      swap1\n      sstore\n      pop\n        /* \"Benz-Swap/core/P2PExchange.sol\":2220:2353  function makeTradeableToken(address _tokenAddress) external onlyOwner{ \r... */\n      pop\n      jump\t// out\n        /* \"Benz-Swap/core/P2PExchange.sol\":2357:2738  function checkIfTradeable(address [] memory _tokenDesired) internal view returns (bool isTrue){\r... */\n    tag_79:\n        /* \"Benz-Swap/core/P2PExchange.sol\":2439:2450  bool isTrue */\n      0x00\n        /* \"Benz-Swap/core/P2PExchange.sol\":2512:2521  uint256 i */\n      dup1\n        /* \"Benz-Swap/core/P2PExchange.sol\":2524:2525  0 */\n      0x00\n        /* \"Benz-Swap/core/P2PExchange.sol\":2512:2525  uint256 i = 0 */\n      swap1\n      pop\n        /* \"Benz-Swap/core/P2PExchange.sol\":2507:2706  for (uint256 i = 0; i < _tokenDesired.length; i++) {\r... */\n    tag_144:\n        /* \"Benz-Swap/core/P2PExchange.sol\":2531:2544  _tokenDesired */\n      dup3\n        /* \"Benz-Swap/core/P2PExchange.sol\":2531:2551  _tokenDesired.length */\n      mload\n        /* \"Benz-Swap/core/P2PExchange.sol\":2527:2528  i */\n      dup2\n        /* \"Benz-Swap/core/P2PExchange.sol\":2527:2551  i < _tokenDesired.length */\n      lt\n        /* \"Benz-Swap/core/P2PExchange.sol\":2507:2706  for (uint256 i = 0; i < _tokenDesired.length; i++) {\r... */\n      iszero\n      tag_145\n      jumpi\n        /* \"Benz-Swap/core/P2PExchange.sol\":2578:2594  isTokenTradeable */\n      0x04\n        /* \"Benz-Swap/core/P2PExchange.sol\":2578:2612  isTokenTradeable[_tokenDesired[i]] */\n      0x00\n        /* \"Benz-Swap/core/P2PExchange.sol\":2595:2608  _tokenDesired */\n      dup5\n        /* \"Benz-Swap/core/P2PExchange.sol\":2609:2610  i */\n      dup4\n        /* \"Benz-Swap/core/P2PExchange.sol\":2595:2611  _tokenDesired[i] */\n      dup2\n      mload\n      dup2\n      lt\n      tag_147\n      jumpi\n      tag_148\n      tag_113\n      jump\t// in\n    tag_148:\n    tag_147:\n      0x20\n      mul\n      0x20\n      add\n      add\n      mload\n        /* \"Benz-Swap/core/P2PExchange.sol\":2578:2612  isTokenTradeable[_tokenDesired[i]] */\n      0xffffffffffffffffffffffffffffffffffffffff\n      and\n      0xffffffffffffffffffffffffffffffffffffffff\n      and\n      dup2\n      mstore\n      0x20\n      add\n      swap1\n      dup2\n      mstore\n      0x20\n      add\n      0x00\n      keccak256\n      0x00\n      swap1\n      sload\n      swap1\n      0x0100\n      exp\n      swap1\n      div\n      0xff\n      and\n        /* \"Benz-Swap/core/P2PExchange.sol\":2573:2695  if (!isTokenTradeable[_tokenDesired[i]]) {\r... */\n      tag_149\n      jumpi\n        /* \"Benz-Swap/core/P2PExchange.sol\":2640:2645  false */\n      0x00\n        /* \"Benz-Swap/core/P2PExchange.sol\":2633:2645  return false */\n      swap2\n      pop\n      pop\n      jump(tag_143)\n        /* \"Benz-Swap/core/P2PExchange.sol\":2573:2695  if (!isTokenTradeable[_tokenDesired[i]]) {\r... */\n    tag_149:\n        /* \"Benz-Swap/core/P2PExchange.sol\":2553:2556  i++ */\n      dup1\n      dup1\n      tag_150\n      swap1\n      tag_101\n      jump\t// in\n    tag_150:\n      swap2\n      pop\n      pop\n        /* \"Benz-Swap/core/P2PExchange.sol\":2507:2706  for (uint256 i = 0; i < _tokenDesired.length; i++) {\r... */\n      jump(tag_144)\n    tag_145:\n      pop\n        /* \"Benz-Swap/core/P2PExchange.sol\":2730:2734  true */\n      0x01\n        /* \"Benz-Swap/core/P2PExchange.sol\":2723:2734  return true */\n      swap1\n      pop\n        /* \"Benz-Swap/core/P2PExchange.sol\":2357:2738  function checkIfTradeable(address [] memory _tokenDesired) internal view returns (bool isTrue){\r... */\n    tag_143:\n      swap2\n      swap1\n      pop\n      jump\t// out\n        /* \"Benz-Swap/core/P2PExchange.sol\":3754:4021  function contains(address[] memory array, address target) internal pure returns (bool) {\r... */\n    tag_117:\n        /* \"Benz-Swap/core/P2PExchange.sol\":3835:3839  bool */\n      0x00\n        /* \"Benz-Swap/core/P2PExchange.sol\":3857:3866  uint256 i */\n      dup1\n        /* \"Benz-Swap/core/P2PExchange.sol\":3869:3870  0 */\n      0x00\n        /* \"Benz-Swap/core/P2PExchange.sol\":3857:3870  uint256 i = 0 */\n      swap1\n      pop\n        /* \"Benz-Swap/core/P2PExchange.sol\":3852:3991  for (uint256 i = 0; i < array.length; i++) {\r... */\n    tag_152:\n        /* \"Benz-Swap/core/P2PExchange.sol\":3876:3881  array */\n      dup4\n        /* \"Benz-Swap/core/P2PExchange.sol\":3876:3888  array.length */\n      mload\n        /* \"Benz-Swap/core/P2PExchange.sol\":3872:3873  i */\n      dup2\n        /* \"Benz-Swap/core/P2PExchange.sol\":3872:3888  i < array.length */\n      lt\n        /* \"Benz-Swap/core/P2PExchange.sol\":3852:3991  for (uint256 i = 0; i < array.length; i++) {\r... */\n      iszero\n      tag_153\n      jumpi\n        /* \"Benz-Swap/core/P2PExchange.sol\":3926:3932  target */\n      dup3\n        /* \"Benz-Swap/core/P2PExchange.sol\":3914:3932  array[i] == target */\n      0xffffffffffffffffffffffffffffffffffffffff\n      and\n        /* \"Benz-Swap/core/P2PExchange.sol\":3914:3919  array */\n      dup5\n        /* \"Benz-Swap/core/P2PExchange.sol\":3920:3921  i */\n      dup3\n        /* \"Benz-Swap/core/P2PExchange.sol\":3914:3922  array[i] */\n      dup2\n      mload\n      dup2\n      lt\n      tag_155\n      jumpi\n      tag_156\n      tag_113\n      jump\t// in\n    tag_156:\n    tag_155:\n      0x20\n      mul\n      0x20\n      add\n      add\n      mload\n        /* \"Benz-Swap/core/P2PExchange.sol\":3914:3932  array[i] == target */\n      0xffffffffffffffffffffffffffffffffffffffff\n      and\n      eq\n        /* \"Benz-Swap/core/P2PExchange.sol\":3910:3980  if (array[i] == target) {\r... */\n      iszero\n      tag_157\n      jumpi\n        /* \"Benz-Swap/core/P2PExchange.sol\":3960:3964  true */\n      0x01\n        /* \"Benz-Swap/core/P2PExchange.sol\":3953:3964  return true */\n      swap2\n      pop\n      pop\n      jump(tag_151)\n        /* \"Benz-Swap/core/P2PExchange.sol\":3910:3980  if (array[i] == target) {\r... */\n    tag_157:\n        /* \"Benz-Swap/core/P2PExchange.sol\":3890:3893  i++ */\n      dup1\n      dup1\n      tag_158\n      swap1\n      tag_101\n      jump\t// in\n    tag_158:\n      swap2\n      pop\n      pop\n        /* \"Benz-Swap/core/P2PExchange.sol\":3852:3991  for (uint256 i = 0; i < array.length; i++) {\r... */\n      jump(tag_152)\n    tag_153:\n      pop\n        /* \"Benz-Swap/core/P2PExchange.sol\":4008:4013  false */\n      0x00\n        /* \"Benz-Swap/core/P2PExchange.sol\":4001:4013  return false */\n      swap1\n      pop\n        /* \"Benz-Swap/core/P2PExchange.sol\":3754:4021  function contains(address[] memory array, address target) internal pure returns (bool) {\r... */\n    tag_151:\n      swap3\n      swap2\n      pop\n      pop\n      jump\t// out\n    tag_97:\n      dup3\n      dup1\n      sload\n      dup3\n      dup3\n      sstore\n      swap1\n      0x00\n      mstore\n      keccak256(0x00, 0x20)\n      swap1\n      dup2\n      add\n      swap3\n      dup3\n      iszero\n      tag_159\n      jumpi\n      swap2\n      0x20\n      mul\n      dup3\n      add\n    tag_160:\n      dup3\n      dup2\n      gt\n      iszero\n      tag_161\n      jumpi\n      dup3\n      mload\n      dup3\n      exp(0x0100, 0x00)\n      dup2\n      sload\n      dup2\n      0xffffffffffffffffffffffffffffffffffffffff\n      mul\n      not\n      and\n      swap1\n      dup4\n      0xffffffffffffffffffffffffffffffffffffffff\n      and\n      mul\n      or\n      swap1\n      sstore\n      pop\n      swap2\n      0x20\n      add\n      swap2\n      swap1\n      0x01\n      add\n      swap1\n      jump(tag_160)\n    tag_161:\n    tag_159:\n      pop\n      swap1\n      pop\n      tag_162\n      swap2\n      swap1\n      tag_163\n      jump\t// in\n    tag_162:\n      pop\n      swap1\n      jump\t// out\n    tag_163:\n    tag_164:\n      dup1\n      dup3\n      gt\n      iszero\n      tag_165\n      jumpi\n      0x00\n      dup2\n      0x00\n      swap1\n      sstore\n      pop\n      0x01\n      add\n      jump(tag_164)\n    tag_165:\n      pop\n      swap1\n      jump\t// out\n        /* \"#utility.yul\":24:746   */\n    tag_167:\n        /* \"#utility.yul\":120:125   */\n      0x00\n        /* \"#utility.yul\":145:226   */\n      tag_169\n        /* \"#utility.yul\":161:225   */\n      tag_170\n        /* \"#utility.yul\":218:224   */\n      dup5\n        /* \"#utility.yul\":161:225   */\n      tag_171\n      jump\t// in\n    tag_170:\n        /* \"#utility.yul\":145:226   */\n      tag_172\n      jump\t// in\n    tag_169:\n        /* \"#utility.yul\":136:226   */\n      swap1\n      pop\n        /* \"#utility.yul\":246:251   */\n      dup1\n        /* \"#utility.yul\":275:281   */\n      dup4\n        /* \"#utility.yul\":268:273   */\n      dup3\n        /* \"#utility.yul\":261:282   */\n      mstore\n        /* \"#utility.yul\":309:313   */\n      0x20\n        /* \"#utility.yul\":302:307   */\n      dup3\n        /* \"#utility.yul\":298:314   */\n      add\n        /* \"#utility.yul\":291:314   */\n      swap1\n      pop\n        /* \"#utility.yul\":335:341   */\n      dup3\n        /* \"#utility.yul\":385:388   */\n      dup6\n        /* \"#utility.yul\":377:381   */\n      0x20\n        /* \"#utility.yul\":369:375   */\n      dup7\n        /* \"#utility.yul\":365:382   */\n      mul\n        /* \"#utility.yul\":360:363   */\n      dup3\n        /* \"#utility.yul\":356:383   */\n      add\n        /* \"#utility.yul\":353:389   */\n      gt\n        /* \"#utility.yul\":350:493   */\n      iszero\n      tag_173\n      jumpi\n        /* \"#utility.yul\":404:483   */\n      tag_174\n      tag_175\n      jump\t// in\n    tag_174:\n        /* \"#utility.yul\":350:493   */\n    tag_173:\n        /* \"#utility.yul\":517:518   */\n      0x00\n        /* \"#utility.yul\":502:740   */\n    tag_176:\n        /* \"#utility.yul\":527:533   */\n      dup6\n        /* \"#utility.yul\":524:525   */\n      dup2\n        /* \"#utility.yul\":521:534   */\n      lt\n        /* \"#utility.yul\":502:740   */\n      iszero\n      tag_178\n      jumpi\n        /* \"#utility.yul\":595:598   */\n      dup2\n        /* \"#utility.yul\":624:661   */\n      tag_179\n        /* \"#utility.yul\":657:660   */\n      dup9\n        /* \"#utility.yul\":645:655   */\n      dup3\n        /* \"#utility.yul\":624:661   */\n      tag_180\n      jump\t// in\n    tag_179:\n        /* \"#utility.yul\":619:622   */\n      dup5\n        /* \"#utility.yul\":612:662   */\n      mstore\n        /* \"#utility.yul\":691:695   */\n      0x20\n        /* \"#utility.yul\":686:689   */\n      dup5\n        /* \"#utility.yul\":682:696   */\n      add\n        /* \"#utility.yul\":675:696   */\n      swap4\n      pop\n        /* \"#utility.yul\":725:729   */\n      0x20\n        /* \"#utility.yul\":720:723   */\n      dup4\n        /* \"#utility.yul\":716:730   */\n      add\n        /* \"#utility.yul\":709:730   */\n      swap3\n      pop\n        /* \"#utility.yul\":562:740   */\n      pop\n        /* \"#utility.yul\":549:550   */\n      0x01\n        /* \"#utility.yul\":546:547   */\n      dup2\n        /* \"#utility.yul\":542:551   */\n      add\n        /* \"#utility.yul\":537:551   */\n      swap1\n      pop\n        /* \"#utility.yul\":502:740   */\n      jump(tag_176)\n    tag_178:\n        /* \"#utility.yul\":506:520   */\n      pop\n        /* \"#utility.yul\":126:746   */\n      pop\n      pop\n        /* \"#utility.yul\":24:746   */\n      swap4\n      swap3\n      pop\n      pop\n      pop\n      jump\t// out\n        /* \"#utility.yul\":752:891   */\n    tag_180:\n        /* \"#utility.yul\":798:803   */\n      0x00\n        /* \"#utility.yul\":836:842   */\n      dup2\n        /* \"#utility.yul\":823:843   */\n      calldataload\n        /* \"#utility.yul\":814:843   */\n      swap1\n      pop\n        /* \"#utility.yul\":852:885   */\n      tag_182\n        /* \"#utility.yul\":879:884   */\n      dup2\n        /* \"#utility.yul\":852:885   */\n      tag_183\n      jump\t// in\n    tag_182:\n        /* \"#utility.yul\":752:891   */\n      swap3\n      swap2\n      pop\n      pop\n      jump\t// out\n        /* \"#utility.yul\":914:1284   */\n    tag_184:\n        /* \"#utility.yul\":985:990   */\n      0x00\n        /* \"#utility.yul\":1034:1037   */\n      dup3\n        /* \"#utility.yul\":1027:1031   */\n      0x1f\n        /* \"#utility.yul\":1019:1025   */\n      dup4\n        /* \"#utility.yul\":1015:1032   */\n      add\n        /* \"#utility.yul\":1011:1038   */\n      slt\n        /* \"#utility.yul\":1001:1123   */\n      tag_186\n      jumpi\n        /* \"#utility.yul\":1042:1121   */\n      tag_187\n      tag_188\n      jump\t// in\n    tag_187:\n        /* \"#utility.yul\":1001:1123   */\n    tag_186:\n        /* \"#utility.yul\":1159:1165   */\n      dup2\n        /* \"#utility.yul\":1146:1166   */\n      calldataload\n        /* \"#utility.yul\":1184:1278   */\n      tag_189\n        /* \"#utility.yul\":1274:1277   */\n      dup5\n        /* \"#utility.yul\":1266:1272   */\n      dup3\n        /* \"#utility.yul\":1259:1263   */\n      0x20\n        /* \"#utility.yul\":1251:1257   */\n      dup7\n        /* \"#utility.yul\":1247:1264   */\n      add\n        /* \"#utility.yul\":1184:1278   */\n      tag_167\n      jump\t// in\n    tag_189:\n        /* \"#utility.yul\":1175:1278   */\n      swap2\n      pop\n        /* \"#utility.yul\":991:1284   */\n      pop\n        /* \"#utility.yul\":914:1284   */\n      swap3\n      swap2\n      pop\n      pop\n      jump\t// out\n        /* \"#utility.yul\":1290:1427   */\n    tag_190:\n        /* \"#utility.yul\":1344:1349   */\n      0x00\n        /* \"#utility.yul\":1375:1381   */\n      dup2\n        /* \"#utility.yul\":1369:1382   */\n      mload\n        /* \"#utility.yul\":1360:1382   */\n      swap1\n      pop\n        /* \"#utility.yul\":1391:1421   */\n      tag_192\n        /* \"#utility.yul\":1415:1420   */\n      dup2\n        /* \"#utility.yul\":1391:1421   */\n      tag_193\n      jump\t// in\n    tag_192:\n        /* \"#utility.yul\":1290:1427   */\n      swap3\n      swap2\n      pop\n      pop\n      jump\t// out\n        /* \"#utility.yul\":1433:1572   */\n    tag_194:\n        /* \"#utility.yul\":1479:1484   */\n      0x00\n        /* \"#utility.yul\":1517:1523   */\n      dup2\n        /* \"#utility.yul\":1504:1524   */\n      calldataload\n        /* \"#utility.yul\":1495:1524   */\n      swap1\n      pop\n        /* \"#utility.yul\":1533:1566   */\n      tag_196\n        /* \"#utility.yul\":1560:1565   */\n      dup2\n        /* \"#utility.yul\":1533:1566   */\n      tag_197\n      jump\t// in\n    tag_196:\n        /* \"#utility.yul\":1433:1572   */\n      swap3\n      swap2\n      pop\n      pop\n      jump\t// out\n        /* \"#utility.yul\":1578:1721   */\n    tag_198:\n        /* \"#utility.yul\":1635:1640   */\n      0x00\n        /* \"#utility.yul\":1666:1672   */\n      dup2\n        /* \"#utility.yul\":1660:1673   */\n      mload\n        /* \"#utility.yul\":1651:1673   */\n      swap1\n      pop\n        /* \"#utility.yul\":1682:1715   */\n      tag_200\n        /* \"#utility.yul\":1709:1714   */\n      dup2\n        /* \"#utility.yul\":1682:1715   */\n      tag_197\n      jump\t// in\n    tag_200:\n        /* \"#utility.yul\":1578:1721   */\n      swap3\n      swap2\n      pop\n      pop\n      jump\t// out\n        /* \"#utility.yul\":1727:2056   */\n    tag_21:\n        /* \"#utility.yul\":1786:1792   */\n      0x00\n        /* \"#utility.yul\":1835:1837   */\n      0x20\n        /* \"#utility.yul\":1823:1832   */\n      dup3\n        /* \"#utility.yul\":1814:1821   */\n      dup5\n        /* \"#utility.yul\":1810:1833   */\n      sub\n        /* \"#utility.yul\":1806:1838   */\n      slt\n        /* \"#utility.yul\":1803:1922   */\n      iszero\n      tag_202\n      jumpi\n        /* \"#utility.yul\":1841:1920   */\n      tag_203\n      tag_204\n      jump\t// in\n    tag_203:\n        /* \"#utility.yul\":1803:1922   */\n    tag_202:\n        /* \"#utility.yul\":1961:1962   */\n      0x00\n        /* \"#utility.yul\":1986:2039   */\n      tag_205\n        /* \"#utility.yul\":2031:2038   */\n      dup5\n        /* \"#utility.yul\":2022:2028   */\n      dup3\n        /* \"#utility.yul\":2011:2020   */\n      dup6\n        /* \"#utility.yul\":2007:2029   */\n      add\n        /* \"#utility.yul\":1986:2039   */\n      tag_180\n      jump\t// in\n    tag_205:\n        /* \"#utility.yul\":1976:2039   */\n      swap2\n      pop\n        /* \"#utility.yul\":1932:2049   */\n      pop\n        /* \"#utility.yul\":1727:2056   */\n      swap3\n      swap2\n      pop\n      pop\n      jump\t// out\n        /* \"#utility.yul\":2062:2407   */\n    tag_89:\n        /* \"#utility.yul\":2129:2135   */\n      0x00\n        /* \"#utility.yul\":2178:2180   */\n      0x20\n        /* \"#utility.yul\":2166:2175   */\n      dup3\n        /* \"#utility.yul\":2157:2164   */\n      dup5\n        /* \"#utility.yul\":2153:2176   */\n      sub\n        /* \"#utility.yul\":2149:2181   */\n      slt\n        /* \"#utility.yul\":2146:2265   */\n      iszero\n      tag_207\n      jumpi\n        /* \"#utility.yul\":2184:2263   */\n      tag_208\n      tag_204\n      jump\t// in\n    tag_208:\n        /* \"#utility.yul\":2146:2265   */\n    tag_207:\n        /* \"#utility.yul\":2304:2305   */\n      0x00\n        /* \"#utility.yul\":2329:2390   */\n      tag_209\n        /* \"#utility.yul\":2382:2389   */\n      dup5\n        /* \"#utility.yul\":2373:2379   */\n      dup3\n        /* \"#utility.yul\":2362:2371   */\n      dup6\n        /* \"#utility.yul\":2358:2380   */\n      add\n        /* \"#utility.yul\":2329:2390   */\n      tag_190\n      jump\t// in\n    tag_209:\n        /* \"#utility.yul\":2319:2390   */\n      swap2\n      pop\n        /* \"#utility.yul\":2275:2400   */\n      pop\n        /* \"#utility.yul\":2062:2407   */\n      swap3\n      swap2\n      pop\n      pop\n      jump\t// out\n        /* \"#utility.yul\":2413:2742   */\n    tag_27:\n        /* \"#utility.yul\":2472:2478   */\n      0x00\n        /* \"#utility.yul\":2521:2523   */\n      0x20\n        /* \"#utility.yul\":2509:2518   */\n      dup3\n        /* \"#utility.yul\":2500:2507   */\n      dup5\n        /* \"#utility.yul\":2496:2519   */\n      sub\n        /* \"#utility.yul\":2492:2524   */\n      slt\n        /* \"#utility.yul\":2489:2608   */\n      iszero\n      tag_211\n      jumpi\n        /* \"#utility.yul\":2527:2606   */\n      tag_212\n      tag_204\n      jump\t// in\n    tag_212:\n        /* \"#utility.yul\":2489:2608   */\n    tag_211:\n        /* \"#utility.yul\":2647:2648   */\n      0x00\n        /* \"#utility.yul\":2672:2725   */\n      tag_213\n        /* \"#utility.yul\":2717:2724   */\n      dup5\n        /* \"#utility.yul\":2708:2714   */\n      dup3\n        /* \"#utility.yul\":2697:2706   */\n      dup6\n        /* \"#utility.yul\":2693:2715   */\n      add\n        /* \"#utility.yul\":2672:2725   */\n      tag_194\n      jump\t// in\n    tag_213:\n        /* \"#utility.yul\":2662:2725   */\n      swap2\n      pop\n        /* \"#utility.yul\":2618:2735   */\n      pop\n        /* \"#utility.yul\":2413:2742   */\n      swap3\n      swap2\n      pop\n      pop\n      jump\t// out\n        /* \"#utility.yul\":2748:3099   */\n    tag_74:\n        /* \"#utility.yul\":2818:2824   */\n      0x00\n        /* \"#utility.yul\":2867:2869   */\n      0x20\n        /* \"#utility.yul\":2855:2864   */\n      dup3\n        /* \"#utility.yul\":2846:2853   */\n      dup5\n        /* \"#utility.yul\":2842:2865   */\n      sub\n        /* \"#utility.yul\":2838:2870   */\n      slt\n        /* \"#utility.yul\":2835:2954   */\n      iszero\n      tag_215\n      jumpi\n        /* \"#utility.yul\":2873:2952   */\n      tag_216\n      tag_204\n      jump\t// in\n    tag_216:\n        /* \"#utility.yul\":2835:2954   */\n    tag_215:\n        /* \"#utility.yul\":2993:2994   */\n      0x00\n        /* \"#utility.yul\":3018:3082   */\n      tag_217\n        /* \"#utility.yul\":3074:3081   */\n      dup5\n        /* \"#utility.yul\":3065:3071   */\n      dup3\n        /* \"#utility.yul\":3054:3063   */\n      dup6\n        /* \"#utility.yul\":3050:3072   */\n      add\n        /* \"#utility.yul\":3018:3082   */\n      tag_198\n      jump\t// in\n    tag_217:\n        /* \"#utility.yul\":3008:3082   */\n      swap2\n      pop\n        /* \"#utility.yul\":2964:3092   */\n      pop\n        /* \"#utility.yul\":2748:3099   */\n      swap3\n      swap2\n      pop\n      pop\n      jump\t// out\n        /* \"#utility.yul\":3105:3934   */\n    tag_17:\n        /* \"#utility.yul\":3207:3213   */\n      0x00\n        /* \"#utility.yul\":3215:3221   */\n      dup1\n        /* \"#utility.yul\":3223:3229   */\n      0x00\n        /* \"#utility.yul\":3272:3274   */\n      0x60\n        /* \"#utility.yul\":3260:3269   */\n      dup5\n        /* \"#utility.yul\":3251:3258   */\n      dup7\n        /* \"#utility.yul\":3247:3270   */\n      sub\n        /* \"#utility.yul\":3243:3275   */\n      slt\n        /* \"#utility.yul\":3240:3359   */\n      iszero\n      tag_219\n      jumpi\n        /* \"#utility.yul\":3278:3357   */\n      tag_220\n      tag_204\n      jump\t// in\n    tag_220:\n        /* \"#utility.yul\":3240:3359   */\n    tag_219:\n        /* \"#utility.yul\":3398:3399   */\n      0x00\n        /* \"#utility.yul\":3423:3476   */\n      tag_221\n        /* \"#utility.yul\":3468:3475   */\n      dup7\n        /* \"#utility.yul\":3459:3465   */\n      dup3\n        /* \"#utility.yul\":3448:3457   */\n      dup8\n        /* \"#utility.yul\":3444:3466   */\n      add\n        /* \"#utility.yul\":3423:3476   */\n      tag_194\n      jump\t// in\n    tag_221:\n        /* \"#utility.yul\":3413:3476   */\n      swap4\n      pop\n        /* \"#utility.yul\":3369:3486   */\n      pop\n        /* \"#utility.yul\":3525:3527   */\n      0x20\n        /* \"#utility.yul\":3551:3604   */\n      tag_222\n        /* \"#utility.yul\":3596:3603   */\n      dup7\n        /* \"#utility.yul\":3587:3593   */\n      dup3\n        /* \"#utility.yul\":3576:3585   */\n      dup8\n        /* \"#utility.yul\":3572:3594   */\n      add\n        /* \"#utility.yul\":3551:3604   */\n      tag_180\n      jump\t// in\n    tag_222:\n        /* \"#utility.yul\":3541:3604   */\n      swap3\n      pop\n        /* \"#utility.yul\":3496:3614   */\n      pop\n        /* \"#utility.yul\":3681:3683   */\n      0x40\n        /* \"#utility.yul\":3670:3679   */\n      dup5\n        /* \"#utility.yul\":3666:3684   */\n      add\n        /* \"#utility.yul\":3653:3685   */\n      calldataload\n        /* \"#utility.yul\":3712:3730   */\n      0xffffffffffffffff\n        /* \"#utility.yul\":3704:3710   */\n      dup2\n        /* \"#utility.yul\":3701:3731   */\n      gt\n        /* \"#utility.yul\":3698:3815   */\n      iszero\n      tag_223\n      jumpi\n        /* \"#utility.yul\":3734:3813   */\n      tag_224\n      tag_225\n      jump\t// in\n    tag_224:\n        /* \"#utility.yul\":3698:3815   */\n    tag_223:\n        /* \"#utility.yul\":3839:3917   */\n      tag_226\n        /* \"#utility.yul\":3909:3916   */\n      dup7\n        /* \"#utility.yul\":3900:3906   */\n      dup3\n        /* \"#utility.yul\":3889:3898   */\n      dup8\n        /* \"#utility.yul\":3885:3907   */\n      add\n        /* \"#utility.yul\":3839:3917   */\n      tag_184\n      jump\t// in\n    tag_226:\n        /* \"#utility.yul\":3829:3917   */\n      swap2\n      pop\n        /* \"#utility.yul\":3624:3927   */\n      pop\n        /* \"#utility.yul\":3105:3934   */\n      swap3\n      pop\n      swap3\n      pop\n      swap3\n      jump\t// out\n        /* \"#utility.yul\":3940:4119   */\n    tag_227:\n        /* \"#utility.yul\":4009:4019   */\n      0x00\n        /* \"#utility.yul\":4030:4076   */\n      tag_229\n        /* \"#utility.yul\":4072:4075   */\n      dup4\n        /* \"#utility.yul\":4064:4070   */\n      dup4\n        /* \"#utility.yul\":4030:4076   */\n      tag_230\n      jump\t// in\n    tag_229:\n        /* \"#utility.yul\":4108:4112   */\n      0x20\n        /* \"#utility.yul\":4103:4106   */\n      dup4\n        /* \"#utility.yul\":4099:4113   */\n      add\n        /* \"#utility.yul\":4085:4113   */\n      swap1\n      pop\n        /* \"#utility.yul\":3940:4119   */\n      swap3\n      swap2\n      pop\n      pop\n      jump\t// out\n        /* \"#utility.yul\":4125:4233   */\n    tag_230:\n        /* \"#utility.yul\":4202:4226   */\n      tag_232\n        /* \"#utility.yul\":4220:4225   */\n      dup2\n        /* \"#utility.yul\":4202:4226   */\n      tag_233\n      jump\t// in\n    tag_232:\n        /* \"#utility.yul\":4197:4200   */\n      dup3\n        /* \"#utility.yul\":4190:4227   */\n      mstore\n        /* \"#utility.yul\":4125:4233   */\n      pop\n      pop\n      jump\t// out\n        /* \"#utility.yul\":4239:4357   */\n    tag_234:\n        /* \"#utility.yul\":4326:4350   */\n      tag_236\n        /* \"#utility.yul\":4344:4349   */\n      dup2\n        /* \"#utility.yul\":4326:4350   */\n      tag_233\n      jump\t// in\n    tag_236:\n        /* \"#utility.yul\":4321:4324   */\n      dup3\n        /* \"#utility.yul\":4314:4351   */\n      mstore\n        /* \"#utility.yul\":4239:4357   */\n      pop\n      pop\n      jump\t// out\n        /* \"#utility.yul\":4393:5125   */\n    tag_237:\n        /* \"#utility.yul\":4512:4515   */\n      0x00\n        /* \"#utility.yul\":4541:4595   */\n      tag_239\n        /* \"#utility.yul\":4589:4594   */\n      dup3\n        /* \"#utility.yul\":4541:4595   */\n      tag_240\n      jump\t// in\n    tag_239:\n        /* \"#utility.yul\":4611:4697   */\n      tag_241\n        /* \"#utility.yul\":4690:4696   */\n      dup2\n        /* \"#utility.yul\":4685:4688   */\n      dup6\n        /* \"#utility.yul\":4611:4697   */\n      tag_242\n      jump\t// in\n    tag_241:\n        /* \"#utility.yul\":4604:4697   */\n      swap4\n      pop\n        /* \"#utility.yul\":4721:4777   */\n      tag_243\n        /* \"#utility.yul\":4771:4776   */\n      dup4\n        /* \"#utility.yul\":4721:4777   */\n      tag_244\n      jump\t// in\n    tag_243:\n        /* \"#utility.yul\":4800:4807   */\n      dup1\n        /* \"#utility.yul\":4831:4832   */\n      0x00\n        /* \"#utility.yul\":4816:5100   */\n    tag_245:\n        /* \"#utility.yul\":4841:4847   */\n      dup4\n        /* \"#utility.yul\":4838:4839   */\n      dup2\n        /* \"#utility.yul\":4835:4848   */\n      lt\n        /* \"#utility.yul\":4816:5100   */\n      iszero\n      tag_247\n      jumpi\n        /* \"#utility.yul\":4917:4923   */\n      dup2\n        /* \"#utility.yul\":4911:4924   */\n      mload\n        /* \"#utility.yul\":4944:5007   */\n      tag_248\n        /* \"#utility.yul\":5003:5006   */\n      dup9\n        /* \"#utility.yul\":4988:5001   */\n      dup3\n        /* \"#utility.yul\":4944:5007   */\n      tag_227\n      jump\t// in\n    tag_248:\n        /* \"#utility.yul\":4937:5007   */\n      swap8\n      pop\n        /* \"#utility.yul\":5030:5090   */\n      tag_249\n        /* \"#utility.yul\":5083:5089   */\n      dup4\n        /* \"#utility.yul\":5030:5090   */\n      tag_250\n      jump\t// in\n    tag_249:\n        /* \"#utility.yul\":5020:5090   */\n      swap3\n      pop\n        /* \"#utility.yul\":4876:5100   */\n      pop\n        /* \"#utility.yul\":4863:4864   */\n      0x01\n        /* \"#utility.yul\":4860:4861   */\n      dup2\n        /* \"#utility.yul\":4856:4865   */\n      add\n        /* \"#utility.yul\":4851:4865   */\n      swap1\n      pop\n        /* \"#utility.yul\":4816:5100   */\n      jump(tag_245)\n    tag_247:\n        /* \"#utility.yul\":4820:4834   */\n      pop\n        /* \"#utility.yul\":5116:5119   */\n      dup6\n        /* \"#utility.yul\":5109:5119   */\n      swap4\n      pop\n        /* \"#utility.yul\":4517:5125   */\n      pop\n      pop\n      pop\n        /* \"#utility.yul\":4393:5125   */\n      swap3\n      swap2\n      pop\n      pop\n      jump\t// out\n        /* \"#utility.yul\":5131:5240   */\n    tag_251:\n        /* \"#utility.yul\":5212:5233   */\n      tag_253\n        /* \"#utility.yul\":5227:5232   */\n      dup2\n        /* \"#utility.yul\":5212:5233   */\n      tag_254\n      jump\t// in\n    tag_253:\n        /* \"#utility.yul\":5207:5210   */\n      dup3\n        /* \"#utility.yul\":5200:5234   */\n      mstore\n        /* \"#utility.yul\":5131:5240   */\n      pop\n      pop\n      jump\t// out\n        /* \"#utility.yul\":5246:5612   */\n    tag_255:\n        /* \"#utility.yul\":5388:5391   */\n      0x00\n        /* \"#utility.yul\":5409:5476   */\n      tag_257\n        /* \"#utility.yul\":5473:5475   */\n      0x16\n        /* \"#utility.yul\":5468:5471   */\n      dup4\n        /* \"#utility.yul\":5409:5476   */\n      tag_258\n      jump\t// in\n    tag_257:\n        /* \"#utility.yul\":5402:5476   */\n      swap2\n      pop\n        /* \"#utility.yul\":5485:5578   */\n      tag_259\n        /* \"#utility.yul\":5574:5577   */\n      dup3\n        /* \"#utility.yul\":5485:5578   */\n      tag_260\n      jump\t// in\n    tag_259:\n        /* \"#utility.yul\":5603:5605   */\n      0x20\n        /* \"#utility.yul\":5598:5601   */\n      dup3\n        /* \"#utility.yul\":5594:5606   */\n      add\n        /* \"#utility.yul\":5587:5606   */\n      swap1\n      pop\n        /* \"#utility.yul\":5246:5612   */\n      swap2\n      swap1\n      pop\n      jump\t// out\n        /* \"#utility.yul\":5618:5984   */\n    tag_261:\n        /* \"#utility.yul\":5760:5763   */\n      0x00\n        /* \"#utility.yul\":5781:5848   */\n      tag_263\n        /* \"#utility.yul\":5845:5847   */\n      0x26\n        /* \"#utility.yul\":5840:5843   */\n      dup4\n        /* \"#utility.yul\":5781:5848   */\n      tag_258\n      jump\t// in\n    tag_263:\n        /* \"#utility.yul\":5774:5848   */\n      swap2\n      pop\n        /* \"#utility.yul\":5857:5950   */\n      tag_264\n        /* \"#utility.yul\":5946:5949   */\n      dup3\n        /* \"#utility.yul\":5857:5950   */\n      tag_265\n      jump\t// in\n    tag_264:\n        /* \"#utility.yul\":5975:5977   */\n      0x40\n        /* \"#utility.yul\":5970:5973   */\n      dup3\n        /* \"#utility.yul\":5966:5978   */\n      add\n        /* \"#utility.yul\":5959:5978   */\n      swap1\n      pop\n        /* \"#utility.yul\":5618:5984   */\n      swap2\n      swap1\n      pop\n      jump\t// out\n        /* \"#utility.yul\":5990:6356   */\n    tag_266:\n        /* \"#utility.yul\":6132:6135   */\n      0x00\n        /* \"#utility.yul\":6153:6220   */\n      tag_268\n        /* \"#utility.yul\":6217:6219   */\n      0x18\n        /* \"#utility.yul\":6212:6215   */\n      dup4\n        /* \"#utility.yul\":6153:6220   */\n      tag_258\n      jump\t// in\n    tag_268:\n        /* \"#utility.yul\":6146:6220   */\n      swap2\n      pop\n        /* \"#utility.yul\":6229:6322   */\n      tag_269\n        /* \"#utility.yul\":6318:6321   */\n      dup3\n        /* \"#utility.yul\":6229:6322   */\n      tag_270\n      jump\t// in\n    tag_269:\n        /* \"#utility.yul\":6347:6349   */\n      0x20\n        /* \"#utility.yul\":6342:6345   */\n      dup3\n        /* \"#utility.yul\":6338:6350   */\n      add\n        /* \"#utility.yul\":6331:6350   */\n      swap1\n      pop\n        /* \"#utility.yul\":5990:6356   */\n      swap2\n      swap1\n      pop\n      jump\t// out\n        /* \"#utility.yul\":6362:6728   */\n    tag_271:\n        /* \"#utility.yul\":6504:6507   */\n      0x00\n        /* \"#utility.yul\":6525:6592   */\n      tag_273\n        /* \"#utility.yul\":6589:6591   */\n      0x1e\n        /* \"#utility.yul\":6584:6587   */\n      dup4\n        /* \"#utility.yul\":6525:6592   */\n      tag_258\n      jump\t// in\n    tag_273:\n        /* \"#utility.yul\":6518:6592   */\n      swap2\n      pop\n        /* \"#utility.yul\":6601:6694   */\n      tag_274\n        /* \"#utility.yul\":6690:6693   */\n      dup3\n        /* \"#utility.yul\":6601:6694   */\n      tag_275\n      jump\t// in\n    tag_274:\n        /* \"#utility.yul\":6719:6721   */\n      0x20\n        /* \"#utility.yul\":6714:6717   */\n      dup3\n        /* \"#utility.yul\":6710:6722   */\n      add\n        /* \"#utility.yul\":6703:6722   */\n      swap1\n      pop\n        /* \"#utility.yul\":6362:6728   */\n      swap2\n      swap1\n      pop\n      jump\t// out\n        /* \"#utility.yul\":6734:7100   */\n    tag_276:\n        /* \"#utility.yul\":6876:6879   */\n      0x00\n        /* \"#utility.yul\":6897:6964   */\n      tag_278\n        /* \"#utility.yul\":6961:6963   */\n      0x23\n        /* \"#utility.yul\":6956:6959   */\n      dup4\n        /* \"#utility.yul\":6897:6964   */\n      tag_258\n      jump\t// in\n    tag_278:\n        /* \"#utility.yul\":6890:6964   */\n      swap2\n      pop\n        /* \"#utility.yul\":6973:7066   */\n      tag_279\n        /* \"#utility.yul\":7062:7065   */\n      dup3\n        /* \"#utility.yul\":6973:7066   */\n      tag_280\n      jump\t// in\n    tag_279:\n        /* \"#utility.yul\":7091:7093   */\n      0x40\n        /* \"#utility.yul\":7086:7089   */\n      dup3\n        /* \"#utility.yul\":7082:7094   */\n      add\n        /* \"#utility.yul\":7075:7094   */\n      swap1\n      pop\n        /* \"#utility.yul\":6734:7100   */\n      swap2\n      swap1\n      pop\n      jump\t// out\n        /* \"#utility.yul\":7106:7472   */\n    tag_281:\n        /* \"#utility.yul\":7248:7251   */\n      0x00\n        /* \"#utility.yul\":7269:7336   */\n      tag_283\n        /* \"#utility.yul\":7333:7335   */\n      0x16\n        /* \"#utility.yul\":7328:7331   */\n      dup4\n        /* \"#utility.yul\":7269:7336   */\n      tag_258\n      jump\t// in\n    tag_283:\n        /* \"#utility.yul\":7262:7336   */\n      swap2\n      pop\n        /* \"#utility.yul\":7345:7438   */\n      tag_284\n        /* \"#utility.yul\":7434:7437   */\n      dup3\n        /* \"#utility.yul\":7345:7438   */\n      tag_285\n      jump\t// in\n    tag_284:\n        /* \"#utility.yul\":7463:7465   */\n      0x20\n        /* \"#utility.yul\":7458:7461   */\n      dup3\n        /* \"#utility.yul\":7454:7466   */\n      add\n        /* \"#utility.yul\":7447:7466   */\n      swap1\n      pop\n        /* \"#utility.yul\":7106:7472   */\n      swap2\n      swap1\n      pop\n      jump\t// out\n        /* \"#utility.yul\":7478:7596   */\n    tag_286:\n        /* \"#utility.yul\":7565:7589   */\n      tag_288\n        /* \"#utility.yul\":7583:7588   */\n      dup2\n        /* \"#utility.yul\":7565:7589   */\n      tag_289\n      jump\t// in\n    tag_288:\n        /* \"#utility.yul\":7560:7563   */\n      dup3\n        /* \"#utility.yul\":7553:7590   */\n      mstore\n        /* \"#utility.yul\":7478:7596   */\n      pop\n      pop\n      jump\t// out\n        /* \"#utility.yul\":7602:7824   */\n    tag_51:\n        /* \"#utility.yul\":7695:7699   */\n      0x00\n        /* \"#utility.yul\":7733:7735   */\n      0x20\n        /* \"#utility.yul\":7722:7731   */\n      dup3\n        /* \"#utility.yul\":7718:7736   */\n      add\n        /* \"#utility.yul\":7710:7736   */\n      swap1\n      pop\n        /* \"#utility.yul\":7746:7817   */\n      tag_291\n        /* \"#utility.yul\":7814:7815   */\n      0x00\n        /* \"#utility.yul\":7803:7812   */\n      dup4\n        /* \"#utility.yul\":7799:7816   */\n      add\n        /* \"#utility.yul\":7790:7796   */\n      dup5\n        /* \"#utility.yul\":7746:7817   */\n      tag_234\n      jump\t// in\n    tag_291:\n        /* \"#utility.yul\":7602:7824   */\n      swap3\n      swap2\n      pop\n      pop\n      jump\t// out\n        /* \"#utility.yul\":7830:8272   */\n    tag_91:\n        /* \"#utility.yul\":7979:7983   */\n      0x00\n        /* \"#utility.yul\":8017:8019   */\n      0x60\n        /* \"#utility.yul\":8006:8015   */\n      dup3\n        /* \"#utility.yul\":8002:8020   */\n      add\n        /* \"#utility.yul\":7994:8020   */\n      swap1\n      pop\n        /* \"#utility.yul\":8030:8101   */\n      tag_293\n        /* \"#utility.yul\":8098:8099   */\n      0x00\n        /* \"#utility.yul\":8087:8096   */\n      dup4\n        /* \"#utility.yul\":8083:8100   */\n      add\n        /* \"#utility.yul\":8074:8080   */\n      dup7\n        /* \"#utility.yul\":8030:8101   */\n      tag_234\n      jump\t// in\n    tag_293:\n        /* \"#utility.yul\":8111:8183   */\n      tag_294\n        /* \"#utility.yul\":8179:8181   */\n      0x20\n        /* \"#utility.yul\":8168:8177   */\n      dup4\n        /* \"#utility.yul\":8164:8182   */\n      add\n        /* \"#utility.yul\":8155:8161   */\n      dup6\n        /* \"#utility.yul\":8111:8183   */\n      tag_234\n      jump\t// in\n    tag_294:\n        /* \"#utility.yul\":8193:8265   */\n      tag_295\n        /* \"#utility.yul\":8261:8263   */\n      0x40\n        /* \"#utility.yul\":8250:8259   */\n      dup4\n        /* \"#utility.yul\":8246:8264   */\n      add\n        /* \"#utility.yul\":8237:8243   */\n      dup5\n        /* \"#utility.yul\":8193:8265   */\n      tag_286\n      jump\t// in\n    tag_295:\n        /* \"#utility.yul\":7830:8272   */\n      swap5\n      swap4\n      pop\n      pop\n      pop\n      pop\n      jump\t// out\n        /* \"#utility.yul\":8278:8610   */\n    tag_84:\n        /* \"#utility.yul\":8399:8403   */\n      0x00\n        /* \"#utility.yul\":8437:8439   */\n      0x40\n        /* \"#utility.yul\":8426:8435   */\n      dup3\n        /* \"#utility.yul\":8422:8440   */\n      add\n        /* \"#utility.yul\":8414:8440   */\n      swap1\n      pop\n        /* \"#utility.yul\":8450:8521   */\n      tag_297\n        /* \"#utility.yul\":8518:8519   */\n      0x00\n        /* \"#utility.yul\":8507:8516   */\n      dup4\n        /* \"#utility.yul\":8503:8520   */\n      add\n        /* \"#utility.yul\":8494:8500   */\n      dup6\n        /* \"#utility.yul\":8450:8521   */\n      tag_234\n      jump\t// in\n    tag_297:\n        /* \"#utility.yul\":8531:8603   */\n      tag_298\n        /* \"#utility.yul\":8599:8601   */\n      0x20\n        /* \"#utility.yul\":8588:8597   */\n      dup4\n        /* \"#utility.yul\":8584:8602   */\n      add\n        /* \"#utility.yul\":8575:8581   */\n      dup5\n        /* \"#utility.yul\":8531:8603   */\n      tag_286\n      jump\t// in\n    tag_298:\n        /* \"#utility.yul\":8278:8610   */\n      swap4\n      swap3\n      pop\n      pop\n      pop\n      jump\t// out\n        /* \"#utility.yul\":8616:8989   */\n    tag_24:\n        /* \"#utility.yul\":8759:8763   */\n      0x00\n        /* \"#utility.yul\":8797:8799   */\n      0x20\n        /* \"#utility.yul\":8786:8795   */\n      dup3\n        /* \"#utility.yul\":8782:8800   */\n      add\n        /* \"#utility.yul\":8774:8800   */\n      swap1\n      pop\n        /* \"#utility.yul\":8846:8855   */\n      dup2\n        /* \"#utility.yul\":8840:8844   */\n      dup2\n        /* \"#utility.yul\":8836:8856   */\n      sub\n        /* \"#utility.yul\":8832:8833   */\n      0x00\n        /* \"#utility.yul\":8821:8830   */\n      dup4\n        /* \"#utility.yul\":8817:8834   */\n      add\n        /* \"#utility.yul\":8810:8857   */\n      mstore\n        /* \"#utility.yul\":8874:8982   */\n      tag_300\n        /* \"#utility.yul\":8977:8981   */\n      dup2\n        /* \"#utility.yul\":8968:8974   */\n      dup5\n        /* \"#utility.yul\":8874:8982   */\n      tag_237\n      jump\t// in\n    tag_300:\n        /* \"#utility.yul\":8866:8982   */\n      swap1\n      pop\n        /* \"#utility.yul\":8616:8989   */\n      swap3\n      swap2\n      pop\n      pop\n      jump\t// out\n        /* \"#utility.yul\":8995:9205   */\n    tag_35:\n        /* \"#utility.yul\":9082:9086   */\n      0x00\n        /* \"#utility.yul\":9120:9122   */\n      0x20\n        /* \"#utility.yul\":9109:9118   */\n      dup3\n        /* \"#utility.yul\":9105:9123   */\n      add\n        /* \"#utility.yul\":9097:9123   */\n      swap1\n      pop\n        /* \"#utility.yul\":9133:9198   */\n      tag_302\n        /* \"#utility.yul\":9195:9196   */\n      0x00\n        /* \"#utility.yul\":9184:9193   */\n      dup4\n        /* \"#utility.yul\":9180:9197   */\n      add\n        /* \"#utility.yul\":9171:9177   */\n      dup5\n        /* \"#utility.yul\":9133:9198   */\n      tag_251\n      jump\t// in\n    tag_302:\n        /* \"#utility.yul\":8995:9205   */\n      swap3\n      swap2\n      pop\n      pop\n      jump\t// out\n        /* \"#utility.yul\":9211:9630   */\n    tag_68:\n        /* \"#utility.yul\":9377:9381   */\n      0x00\n        /* \"#utility.yul\":9415:9417   */\n      0x20\n        /* \"#utility.yul\":9404:9413   */\n      dup3\n        /* \"#utility.yul\":9400:9418   */\n      add\n        /* \"#utility.yul\":9392:9418   */\n      swap1\n      pop\n        /* \"#utility.yul\":9464:9473   */\n      dup2\n        /* \"#utility.yul\":9458:9462   */\n      dup2\n        /* \"#utility.yul\":9454:9474   */\n      sub\n        /* \"#utility.yul\":9450:9451   */\n      0x00\n        /* \"#utility.yul\":9439:9448   */\n      dup4\n        /* \"#utility.yul\":9435:9452   */\n      add\n        /* \"#utility.yul\":9428:9475   */\n      mstore\n        /* \"#utility.yul\":9492:9623   */\n      tag_304\n        /* \"#utility.yul\":9618:9622   */\n      dup2\n        /* \"#utility.yul\":9492:9623   */\n      tag_255\n      jump\t// in\n    tag_304:\n        /* \"#utility.yul\":9484:9623   */\n      swap1\n      pop\n        /* \"#utility.yul\":9211:9630   */\n      swap2\n      swap1\n      pop\n      jump\t// out\n        /* \"#utility.yul\":9636:10055   */\n    tag_77:\n        /* \"#utility.yul\":9802:9806   */\n      0x00\n        /* \"#utility.yul\":9840:9842   */\n      0x20\n        /* \"#utility.yul\":9829:9838   */\n      dup3\n        /* \"#utility.yul\":9825:9843   */\n      add\n        /* \"#utility.yul\":9817:9843   */\n      swap1\n      pop\n        /* \"#utility.yul\":9889:9898   */\n      dup2\n        /* \"#utility.yul\":9883:9887   */\n      dup2\n        /* \"#utility.yul\":9879:9899   */\n      sub\n        /* \"#utility.yul\":9875:9876   */\n      0x00\n        /* \"#utility.yul\":9864:9873   */\n      dup4\n        /* \"#utility.yul\":9860:9877   */\n      add\n        /* \"#utility.yul\":9853:9900   */\n      mstore\n        /* \"#utility.yul\":9917:10048   */\n      tag_306\n        /* \"#utility.yul\":10043:10047   */\n      dup2\n        /* \"#utility.yul\":9917:10048   */\n      tag_261\n      jump\t// in\n    tag_306:\n        /* \"#utility.yul\":9909:10048   */\n      swap1\n      pop\n        /* \"#utility.yul\":9636:10055   */\n      swap2\n      swap1\n      pop\n      jump\t// out\n        /* \"#utility.yul\":10061:10480   */\n    tag_127:\n        /* \"#utility.yul\":10227:10231   */\n      0x00\n        /* \"#utility.yul\":10265:10267   */\n      0x20\n        /* \"#utility.yul\":10254:10263   */\n      dup3\n        /* \"#utility.yul\":10250:10268   */\n      add\n        /* \"#utility.yul\":10242:10268   */\n      swap1\n      pop\n        /* \"#utility.yul\":10314:10323   */\n      dup2\n        /* \"#utility.yul\":10308:10312   */\n      dup2\n        /* \"#utility.yul\":10304:10324   */\n      sub\n        /* \"#utility.yul\":10300:10301   */\n      0x00\n        /* \"#utility.yul\":10289:10298   */\n      dup4\n        /* \"#utility.yul\":10285:10302   */\n      add\n        /* \"#utility.yul\":10278:10325   */\n      mstore\n        /* \"#utility.yul\":10342:10473   */\n      tag_308\n        /* \"#utility.yul\":10468:10472   */\n      dup2\n        /* \"#utility.yul\":10342:10473   */\n      tag_266\n      jump\t// in\n    tag_308:\n        /* \"#utility.yul\":10334:10473   */\n      swap1\n      pop\n        /* \"#utility.yul\":10061:10480   */\n      swap2\n      swap1\n      pop\n      jump\t// out\n        /* \"#utility.yul\":10486:10905   */\n    tag_65:\n        /* \"#utility.yul\":10652:10656   */\n      0x00\n        /* \"#utility.yul\":10690:10692   */\n      0x20\n        /* \"#utility.yul\":10679:10688   */\n      dup3\n        /* \"#utility.yul\":10675:10693   */\n      add\n        /* \"#utility.yul\":10667:10693   */\n      swap1\n      pop\n        /* \"#utility.yul\":10739:10748   */\n      dup2\n        /* \"#utility.yul\":10733:10737   */\n      dup2\n        /* \"#utility.yul\":10729:10749   */\n      sub\n        /* \"#utility.yul\":10725:10726   */\n      0x00\n        /* \"#utility.yul\":10714:10723   */\n      dup4\n        /* \"#utility.yul\":10710:10727   */\n      add\n        /* \"#utility.yul\":10703:10750   */\n      mstore\n        /* \"#utility.yul\":10767:10898   */\n      tag_310\n        /* \"#utility.yul\":10893:10897   */\n      dup2\n        /* \"#utility.yul\":10767:10898   */\n      tag_271\n      jump\t// in\n    tag_310:\n        /* \"#utility.yul\":10759:10898   */\n      swap1\n      pop\n        /* \"#utility.yul\":10486:10905   */\n      swap2\n      swap1\n      pop\n      jump\t// out\n        /* \"#utility.yul\":10911:11330   */\n    tag_82:\n        /* \"#utility.yul\":11077:11081   */\n      0x00\n        /* \"#utility.yul\":11115:11117   */\n      0x20\n        /* \"#utility.yul\":11104:11113   */\n      dup3\n        /* \"#utility.yul\":11100:11118   */\n      add\n        /* \"#utility.yul\":11092:11118   */\n      swap1\n      pop\n        /* \"#utility.yul\":11164:11173   */\n      dup2\n        /* \"#utility.yul\":11158:11162   */\n      dup2\n        /* \"#utility.yul\":11154:11174   */\n      sub\n        /* \"#utility.yul\":11150:11151   */\n      0x00\n        /* \"#utility.yul\":11139:11148   */\n      dup4\n        /* \"#utility.yul\":11135:11152   */\n      add\n        /* \"#utility.yul\":11128:11175   */\n      mstore\n        /* \"#utility.yul\":11192:11323   */\n      tag_312\n        /* \"#utility.yul\":11318:11322   */\n      dup2\n        /* \"#utility.yul\":11192:11323   */\n      tag_276\n      jump\t// in\n    tag_312:\n        /* \"#utility.yul\":11184:11323   */\n      swap1\n      pop\n        /* \"#utility.yul\":10911:11330   */\n      swap2\n      swap1\n      pop\n      jump\t// out\n        /* \"#utility.yul\":11336:11755   */\n    tag_141:\n        /* \"#utility.yul\":11502:11506   */\n      0x00\n        /* \"#utility.yul\":11540:11542   */\n      0x20\n        /* \"#utility.yul\":11529:11538   */\n      dup3\n        /* \"#utility.yul\":11525:11543   */\n      add\n        /* \"#utility.yul\":11517:11543   */\n      swap1\n      pop\n        /* \"#utility.yul\":11589:11598   */\n      dup2\n        /* \"#utility.yul\":11583:11587   */\n      dup2\n        /* \"#utility.yul\":11579:11599   */\n      sub\n        /* \"#utility.yul\":11575:11576   */\n      0x00\n        /* \"#utility.yul\":11564:11573   */\n      dup4\n        /* \"#utility.yul\":11560:11577   */\n      add\n        /* \"#utility.yul\":11553:11600   */\n      mstore\n        /* \"#utility.yul\":11617:11748   */\n      tag_314\n        /* \"#utility.yul\":11743:11747   */\n      dup2\n        /* \"#utility.yul\":11617:11748   */\n      tag_281\n      jump\t// in\n    tag_314:\n        /* \"#utility.yul\":11609:11748   */\n      swap1\n      pop\n        /* \"#utility.yul\":11336:11755   */\n      swap2\n      swap1\n      pop\n      jump\t// out\n        /* \"#utility.yul\":11761:11983   */\n    tag_40:\n        /* \"#utility.yul\":11854:11858   */\n      0x00\n        /* \"#utility.yul\":11892:11894   */\n      0x20\n        /* \"#utility.yul\":11881:11890   */\n      dup3\n        /* \"#utility.yul\":11877:11895   */\n      add\n        /* \"#utility.yul\":11869:11895   */\n      swap1\n      pop\n        /* \"#utility.yul\":11905:11976   */\n      tag_316\n        /* \"#utility.yul\":11973:11974   */\n      0x00\n        /* \"#utility.yul\":11962:11971   */\n      dup4\n        /* \"#utility.yul\":11958:11975   */\n      add\n        /* \"#utility.yul\":11949:11955   */\n      dup5\n        /* \"#utility.yul\":11905:11976   */\n      tag_286\n      jump\t// in\n    tag_316:\n        /* \"#utility.yul\":11761:11983   */\n      swap3\n      swap2\n      pop\n      pop\n      jump\t// out\n        /* \"#utility.yul\":11989:12542   */\n    tag_30:\n        /* \"#utility.yul\":12166:12170   */\n      0x00\n        /* \"#utility.yul\":12204:12207   */\n      0x80\n        /* \"#utility.yul\":12193:12202   */\n      dup3\n        /* \"#utility.yul\":12189:12208   */\n      add\n        /* \"#utility.yul\":12181:12208   */\n      swap1\n      pop\n        /* \"#utility.yul\":12218:12289   */\n      tag_318\n        /* \"#utility.yul\":12286:12287   */\n      0x00\n        /* \"#utility.yul\":12275:12284   */\n      dup4\n        /* \"#utility.yul\":12271:12288   */\n      add\n        /* \"#utility.yul\":12262:12268   */\n      dup8\n        /* \"#utility.yul\":12218:12289   */\n      tag_286\n      jump\t// in\n    tag_318:\n        /* \"#utility.yul\":12299:12371   */\n      tag_319\n        /* \"#utility.yul\":12367:12369   */\n      0x20\n        /* \"#utility.yul\":12356:12365   */\n      dup4\n        /* \"#utility.yul\":12352:12370   */\n      add\n        /* \"#utility.yul\":12343:12349   */\n      dup7\n        /* \"#utility.yul\":12299:12371   */\n      tag_234\n      jump\t// in\n    tag_319:\n        /* \"#utility.yul\":12381:12453   */\n      tag_320\n        /* \"#utility.yul\":12449:12451   */\n      0x40\n        /* \"#utility.yul\":12438:12447   */\n      dup4\n        /* \"#utility.yul\":12434:12452   */\n      add\n        /* \"#utility.yul\":12425:12431   */\n      dup6\n        /* \"#utility.yul\":12381:12453   */\n      tag_234\n      jump\t// in\n    tag_320:\n        /* \"#utility.yul\":12463:12535   */\n      tag_321\n        /* \"#utility.yul\":12531:12533   */\n      0x60\n        /* \"#utility.yul\":12520:12529   */\n      dup4\n        /* \"#utility.yul\":12516:12534   */\n      add\n        /* \"#utility.yul\":12507:12513   */\n      dup5\n        /* \"#utility.yul\":12463:12535   */\n      tag_286\n      jump\t// in\n    tag_321:\n        /* \"#utility.yul\":11989:12542   */\n      swap6\n      swap5\n      pop\n      pop\n      pop\n      pop\n      pop\n      jump\t// out\n        /* \"#utility.yul\":12548:12677   */\n    tag_172:\n        /* \"#utility.yul\":12582:12588   */\n      0x00\n        /* \"#utility.yul\":12609:12629   */\n      tag_323\n      tag_324\n      jump\t// in\n    tag_323:\n        /* \"#utility.yul\":12599:12629   */\n      swap1\n      pop\n        /* \"#utility.yul\":12638:12671   */\n      tag_325\n        /* \"#utility.yul\":12666:12670   */\n      dup3\n        /* \"#utility.yul\":12658:12664   */\n      dup3\n        /* \"#utility.yul\":12638:12671   */\n      tag_326\n      jump\t// in\n    tag_325:\n        /* \"#utility.yul\":12548:12677   */\n      swap2\n      swap1\n      pop\n      jump\t// out\n        /* \"#utility.yul\":12683:12758   */\n    tag_324:\n        /* \"#utility.yul\":12716:12722   */\n      0x00\n        /* \"#utility.yul\":12749:12751   */\n      0x40\n        /* \"#utility.yul\":12743:12752   */\n      mload\n        /* \"#utility.yul\":12733:12752   */\n      swap1\n      pop\n        /* \"#utility.yul\":12683:12758   */\n      swap1\n      jump\t// out\n        /* \"#utility.yul\":12764:13075   */\n    tag_171:\n        /* \"#utility.yul\":12841:12845   */\n      0x00\n        /* \"#utility.yul\":12931:12949   */\n      0xffffffffffffffff\n        /* \"#utility.yul\":12923:12929   */\n      dup3\n        /* \"#utility.yul\":12920:12950   */\n      gt\n        /* \"#utility.yul\":12917:12973   */\n      iszero\n      tag_329\n      jumpi\n        /* \"#utility.yul\":12953:12971   */\n      tag_330\n      tag_105\n      jump\t// in\n    tag_330:\n        /* \"#utility.yul\":12917:12973   */\n    tag_329:\n        /* \"#utility.yul\":13003:13007   */\n      0x20\n        /* \"#utility.yul\":12995:13001   */\n      dup3\n        /* \"#utility.yul\":12991:13008   */\n      mul\n        /* \"#utility.yul\":12983:13008   */\n      swap1\n      pop\n        /* \"#utility.yul\":13063:13067   */\n      0x20\n        /* \"#utility.yul\":13057:13061   */\n      dup2\n        /* \"#utility.yul\":13053:13068   */\n      add\n        /* \"#utility.yul\":13045:13068   */\n      swap1\n      pop\n        /* \"#utility.yul\":12764:13075   */\n      swap2\n      swap1\n      pop\n      jump\t// out\n        /* \"#utility.yul\":13081:13213   */\n    tag_244:\n        /* \"#utility.yul\":13148:13152   */\n      0x00\n        /* \"#utility.yul\":13171:13174   */\n      dup2\n        /* \"#utility.yul\":13163:13174   */\n      swap1\n      pop\n        /* \"#utility.yul\":13201:13205   */\n      0x20\n        /* \"#utility.yul\":13196:13199   */\n      dup3\n        /* \"#utility.yul\":13192:13206   */\n      add\n        /* \"#utility.yul\":13184:13206   */\n      swap1\n      pop\n        /* \"#utility.yul\":13081:13213   */\n      swap2\n      swap1\n      pop\n      jump\t// out\n        /* \"#utility.yul\":13219:13333   */\n    tag_240:\n        /* \"#utility.yul\":13286:13292   */\n      0x00\n        /* \"#utility.yul\":13320:13325   */\n      dup2\n        /* \"#utility.yul\":13314:13326   */\n      mload\n        /* \"#utility.yul\":13304:13326   */\n      swap1\n      pop\n        /* \"#utility.yul\":13219:13333   */\n      swap2\n      swap1\n      pop\n      jump\t// out\n        /* \"#utility.yul\":13339:13452   */\n    tag_250:\n        /* \"#utility.yul\":13409:13413   */\n      0x00\n        /* \"#utility.yul\":13441:13445   */\n      0x20\n        /* \"#utility.yul\":13436:13439   */\n      dup3\n        /* \"#utility.yul\":13432:13446   */\n      add\n        /* \"#utility.yul\":13424:13446   */\n      swap1\n      pop\n        /* \"#utility.yul\":13339:13452   */\n      swap2\n      swap1\n      pop\n      jump\t// out\n        /* \"#utility.yul\":13458:13642   */\n    tag_242:\n        /* \"#utility.yul\":13557:13568   */\n      0x00\n        /* \"#utility.yul\":13591:13597   */\n      dup3\n        /* \"#utility.yul\":13586:13589   */\n      dup3\n        /* \"#utility.yul\":13579:13598   */\n      mstore\n        /* \"#utility.yul\":13631:13635   */\n      0x20\n        /* \"#utility.yul\":13626:13629   */\n      dup3\n        /* \"#utility.yul\":13622:13636   */\n      add\n        /* \"#utility.yul\":13607:13636   */\n      swap1\n      pop\n        /* \"#utility.yul\":13458:13642   */\n      swap3\n      swap2\n      pop\n      pop\n      jump\t// out\n        /* \"#utility.yul\":13648:13817   */\n    tag_258:\n        /* \"#utility.yul\":13732:13743   */\n      0x00\n        /* \"#utility.yul\":13766:13772   */\n      dup3\n        /* \"#utility.yul\":13761:13764   */\n      dup3\n        /* \"#utility.yul\":13754:13773   */\n      mstore\n        /* \"#utility.yul\":13806:13810   */\n      0x20\n        /* \"#utility.yul\":13801:13804   */\n      dup3\n        /* \"#utility.yul\":13797:13811   */\n      add\n        /* \"#utility.yul\":13782:13811   */\n      swap1\n      pop\n        /* \"#utility.yul\":13648:13817   */\n      swap3\n      swap2\n      pop\n      pop\n      jump\t// out\n        /* \"#utility.yul\":13823:13919   */\n    tag_233:\n        /* \"#utility.yul\":13860:13867   */\n      0x00\n        /* \"#utility.yul\":13889:13913   */\n      tag_337\n        /* \"#utility.yul\":13907:13912   */\n      dup3\n        /* \"#utility.yul\":13889:13913   */\n      tag_338\n      jump\t// in\n    tag_337:\n        /* \"#utility.yul\":13878:13913   */\n      swap1\n      pop\n        /* \"#utility.yul\":13823:13919   */\n      swap2\n      swap1\n      pop\n      jump\t// out\n        /* \"#utility.yul\":13925:14015   */\n    tag_254:\n        /* \"#utility.yul\":13959:13966   */\n      0x00\n        /* \"#utility.yul\":14002:14007   */\n      dup2\n        /* \"#utility.yul\":13995:14008   */\n      iszero\n        /* \"#utility.yul\":13988:14009   */\n      iszero\n        /* \"#utility.yul\":13977:14009   */\n      swap1\n      pop\n        /* \"#utility.yul\":13925:14015   */\n      swap2\n      swap1\n      pop\n      jump\t// out\n        /* \"#utility.yul\":14021:14147   */\n    tag_338:\n        /* \"#utility.yul\":14058:14065   */\n      0x00\n        /* \"#utility.yul\":14098:14140   */\n      0xffffffffffffffffffffffffffffffffffffffff\n        /* \"#utility.yul\":14091:14096   */\n      dup3\n        /* \"#utility.yul\":14087:14141   */\n      and\n        /* \"#utility.yul\":14076:14141   */\n      swap1\n      pop\n        /* \"#utility.yul\":14021:14147   */\n      swap2\n      swap1\n      pop\n      jump\t// out\n        /* \"#utility.yul\":14153:14230   */\n    tag_289:\n        /* \"#utility.yul\":14190:14197   */\n      0x00\n        /* \"#utility.yul\":14219:14224   */\n      dup2\n        /* \"#utility.yul\":14208:14224   */\n      swap1\n      pop\n        /* \"#utility.yul\":14153:14230   */\n      swap2\n      swap1\n      pop\n      jump\t// out\n        /* \"#utility.yul\":14236:14517   */\n    tag_326:\n        /* \"#utility.yul\":14319:14346   */\n      tag_343\n        /* \"#utility.yul\":14341:14345   */\n      dup3\n        /* \"#utility.yul\":14319:14346   */\n      tag_344\n      jump\t// in\n    tag_343:\n        /* \"#utility.yul\":14311:14317   */\n      dup2\n        /* \"#utility.yul\":14307:14347   */\n      add\n        /* \"#utility.yul\":14449:14455   */\n      dup2\n        /* \"#utility.yul\":14437:14447   */\n      dup2\n        /* \"#utility.yul\":14434:14456   */\n      lt\n        /* \"#utility.yul\":14413:14431   */\n      0xffffffffffffffff\n        /* \"#utility.yul\":14401:14411   */\n      dup3\n        /* \"#utility.yul\":14398:14432   */\n      gt\n        /* \"#utility.yul\":14395:14457   */\n      or\n        /* \"#utility.yul\":14392:14480   */\n      iszero\n      tag_345\n      jumpi\n        /* \"#utility.yul\":14460:14478   */\n      tag_346\n      tag_105\n      jump\t// in\n    tag_346:\n        /* \"#utility.yul\":14392:14480   */\n    tag_345:\n        /* \"#utility.yul\":14500:14510   */\n      dup1\n        /* \"#utility.yul\":14496:14498   */\n      0x40\n        /* \"#utility.yul\":14489:14511   */\n      mstore\n        /* \"#utility.yul\":14279:14517   */\n      pop\n        /* \"#utility.yul\":14236:14517   */\n      pop\n      pop\n      jump\t// out\n        /* \"#utility.yul\":14523:14756   */\n    tag_101:\n        /* \"#utility.yul\":14562:14565   */\n      0x00\n        /* \"#utility.yul\":14585:14609   */\n      tag_348\n        /* \"#utility.yul\":14603:14608   */\n      dup3\n        /* \"#utility.yul\":14585:14609   */\n      tag_289\n      jump\t// in\n    tag_348:\n        /* \"#utility.yul\":14576:14609   */\n      swap2\n      pop\n        /* \"#utility.yul\":14631:14697   */\n      0xffffffffffffffffffffffffffffffffffffffffffffffffffffffffffffffff\n        /* \"#utility.yul\":14624:14629   */\n      dup3\n        /* \"#utility.yul\":14621:14698   */\n      eq\n        /* \"#utility.yul\":14618:14721   */\n      iszero\n      tag_349\n      jumpi\n        /* \"#utility.yul\":14701:14719   */\n      tag_350\n      tag_351\n      jump\t// in\n    tag_350:\n        /* \"#utility.yul\":14618:14721   */\n    tag_349:\n        /* \"#utility.yul\":14748:14749   */\n      0x01\n        /* \"#utility.yul\":14741:14746   */\n      dup3\n        /* \"#utility.yul\":14737:14750   */\n      add\n        /* \"#utility.yul\":14730:14750   */\n      swap1\n      pop\n        /* \"#utility.yul\":14523:14756   */\n      swap2\n      swap1\n      pop\n      jump\t// out\n        /* \"#utility.yul\":14762:14942   */\n    tag_351:\n        /* \"#utility.yul\":14810:14887   */\n      0x4e487b7100000000000000000000000000000000000000000000000000000000\n        /* \"#utility.yul\":14807:14808   */\n      0x00\n        /* \"#utility.yul\":14800:14888   */\n      mstore\n        /* \"#utility.yul\":14907:14911   */\n      0x11\n        /* \"#utility.yul\":14904:14905   */\n      0x04\n        /* \"#utility.yul\":14897:14912   */\n      mstore\n        /* \"#utility.yul\":14931:14935   */\n      0x24\n        /* \"#utility.yul\":14928:14929   */\n      0x00\n        /* \"#utility.yul\":14921:14936   */\n      revert\n        /* \"#utility.yul\":14948:15128   */\n    tag_113:\n        /* \"#utility.yul\":14996:15073   */\n      0x4e487b7100000000000000000000000000000000000000000000000000000000\n        /* \"#utility.yul\":14993:14994   */\n      0x00\n        /* \"#utility.yul\":14986:15074   */\n      mstore\n        /* \"#utility.yul\":15093:15097   */\n      0x32\n        /* \"#utility.yul\":15090:15091   */\n      0x04\n        /* \"#utility.yul\":15083:15098   */\n      mstore\n        /* \"#utility.yul\":15117:15121   */\n      0x24\n        /* \"#utility.yul\":15114:15115   */\n      0x00\n        /* \"#utility.yul\":15107:15122   */\n      revert\n        /* \"#utility.yul\":15134:15314   */\n    tag_105:\n        /* \"#utility.yul\":15182:15259   */\n      0x4e487b7100000000000000000000000000000000000000000000000000000000\n        /* \"#utility.yul\":15179:15180   */\n      0x00\n        /* \"#utility.yul\":15172:15260   */\n      mstore\n        /* \"#utility.yul\":15279:15283   */\n      0x41\n        /* \"#utility.yul\":15276:15277   */\n      0x04\n        /* \"#utility.yul\":15269:15284   */\n      mstore\n        /* \"#utility.yul\":15303:15307   */\n      0x24\n        /* \"#utility.yul\":15300:15301   */\n      0x00\n        /* \"#utility.yul\":15293:15308   */\n      revert\n        /* \"#utility.yul\":15320:15437   */\n    tag_188:\n        /* \"#utility.yul\":15429:15430   */\n      0x00\n        /* \"#utility.yul\":15426:15427   */\n      dup1\n        /* \"#utility.yul\":15419:15431   */\n      revert\n        /* \"#utility.yul\":15443:15560   */\n    tag_175:\n        /* \"#utility.yul\":15552:15553   */\n      0x00\n        /* \"#utility.yul\":15549:15550   */\n      dup1\n        /* \"#utility.yul\":15542:15554   */\n      revert\n        /* \"#utility.yul\":15566:15683   */\n    tag_225:\n        /* \"#utility.yul\":15675:15676   */\n      0x00\n        /* \"#utility.yul\":15672:15673   */\n      dup1\n        /* \"#utility.yul\":15665:15677   */\n      revert\n        /* \"#utility.yul\":15689:15806   */\n    tag_204:\n        /* \"#utility.yul\":15798:15799   */\n      0x00\n        /* \"#utility.yul\":15795:15796   */\n      dup1\n        /* \"#utility.yul\":15788:15800   */\n      revert\n        /* \"#utility.yul\":15812:15914   */\n    tag_344:\n        /* \"#utility.yul\":15853:15859   */\n      0x00\n        /* \"#utility.yul\":15904:15906   */\n      0x1f\n        /* \"#utility.yul\":15900:15907   */\n      not\n        /* \"#utility.yul\":15895:15897   */\n      0x1f\n        /* \"#utility.yul\":15888:15893   */\n      dup4\n        /* \"#utility.yul\":15884:15898   */\n      add\n        /* \"#utility.yul\":15880:15908   */\n      and\n        /* \"#utility.yul\":15870:15908   */\n      swap1\n      pop\n        /* \"#utility.yul\":15812:15914   */\n      swap2\n      swap1\n      pop\n      jump\t// out\n        /* \"#utility.yul\":15920:16092   */\n    tag_260:\n        /* \"#utility.yul\":16060:16084   */\n      0x416d6d6f756e742063616e6e6f74206265205a65726f00000000000000000000\n        /* \"#utility.yul\":16056:16057   */\n      0x00\n        /* \"#utility.yul\":16048:16054   */\n      dup3\n        /* \"#utility.yul\":16044:16058   */\n      add\n        /* \"#utility.yul\":16037:16085   */\n      mstore\n        /* \"#utility.yul\":15920:16092   */\n      pop\n      jump\t// out\n        /* \"#utility.yul\":16098:16323   */\n    tag_265:\n        /* \"#utility.yul\":16238:16272   */\n      0x416d6f756e74206f6620746f6b656e20746f2073656c6c2063616e6e6f742062\n        /* \"#utility.yul\":16234:16235   */\n      0x00\n        /* \"#utility.yul\":16226:16232   */\n      dup3\n        /* \"#utility.yul\":16222:16236   */\n      add\n        /* \"#utility.yul\":16215:16273   */\n      mstore\n        /* \"#utility.yul\":16307:16315   */\n      0x65207a65726f0000000000000000000000000000000000000000000000000000\n        /* \"#utility.yul\":16302:16304   */\n      0x20\n        /* \"#utility.yul\":16294:16300   */\n      dup3\n        /* \"#utility.yul\":16290:16305   */\n      add\n        /* \"#utility.yul\":16283:16316   */\n      mstore\n        /* \"#utility.yul\":16098:16323   */\n      pop\n      jump\t// out\n        /* \"#utility.yul\":16329:16503   */\n    tag_270:\n        /* \"#utility.yul\":16469:16495   */\n      0x4e6f206d61746368696e6720757365727320666f756e642e0000000000000000\n        /* \"#utility.yul\":16465:16466   */\n      0x00\n        /* \"#utility.yul\":16457:16463   */\n      dup3\n        /* \"#utility.yul\":16453:16467   */\n      add\n        /* \"#utility.yul\":16446:16496   */\n      mstore\n        /* \"#utility.yul\":16329:16503   */\n      pop\n      jump\t// out\n        /* \"#utility.yul\":16509:16689   */\n    tag_275:\n        /* \"#utility.yul\":16649:16681   */\n      0x546f6b656e2041646472657373206973206e6f7420547261646561626c650000\n        /* \"#utility.yul\":16645:16646   */\n      0x00\n        /* \"#utility.yul\":16637:16643   */\n      dup3\n        /* \"#utility.yul\":16633:16647   */\n      add\n        /* \"#utility.yul\":16626:16682   */\n      mstore\n        /* \"#utility.yul\":16509:16689   */\n      pop\n      jump\t// out\n        /* \"#utility.yul\":16695:16917   */\n    tag_280:\n        /* \"#utility.yul\":16835:16869   */\n      0x536f6d65206f6620796f757220546f6b656e206973206e6f7420547261646561\n        /* \"#utility.yul\":16831:16832   */\n      0x00\n        /* \"#utility.yul\":16823:16829   */\n      dup3\n        /* \"#utility.yul\":16819:16833   */\n      add\n        /* \"#utility.yul\":16812:16870   */\n      mstore\n        /* \"#utility.yul\":16904:16909   */\n      0x626c650000000000000000000000000000000000000000000000000000000000\n        /* \"#utility.yul\":16899:16901   */\n      0x20\n        /* \"#utility.yul\":16891:16897   */\n      dup3\n        /* \"#utility.yul\":16887:16902   */\n      add\n        /* \"#utility.yul\":16880:16910   */\n      mstore\n        /* \"#utility.yul\":16695:16917   */\n      pop\n      jump\t// out\n        /* \"#utility.yul\":16923:17095   */\n    tag_285:\n        /* \"#utility.yul\":17063:17087   */\n      0x4e6f742074686520636f6e7472616374204f776e657200000000000000000000\n        /* \"#utility.yul\":17059:17060   */\n      0x00\n        /* \"#utility.yul\":17051:17057   */\n      dup3\n        /* \"#utility.yul\":17047:17061   */\n      add\n        /* \"#utility.yul\":17040:17088   */\n      mstore\n        /* \"#utility.yul\":16923:17095   */\n      pop\n      jump\t// out\n        /* \"#utility.yul\":17101:17223   */\n    tag_183:\n        /* \"#utility.yul\":17174:17198   */\n      tag_367\n        /* \"#utility.yul\":17192:17197   */\n      dup2\n        /* \"#utility.yul\":17174:17198   */\n      tag_233\n      jump\t// in\n    tag_367:\n        /* \"#utility.yul\":17167:17172   */\n      dup2\n        /* \"#utility.yul\":17164:17199   */\n      eq\n        /* \"#utility.yul\":17154:17217   */\n      tag_368\n      jumpi\n        /* \"#utility.yul\":17213:17214   */\n      0x00\n        /* \"#utility.yul\":17210:17211   */\n      dup1\n        /* \"#utility.yul\":17203:17215   */\n      revert\n        /* \"#utility.yul\":17154:17217   */\n    tag_368:\n        /* \"#utility.yul\":17101:17223   */\n      pop\n      jump\t// out\n        /* \"#utility.yul\":17229:17345   */\n    tag_193:\n        /* \"#utility.yul\":17299:17320   */\n      tag_370\n        /* \"#utility.yul\":17314:17319   */\n      dup2\n        /* \"#utility.yul\":17299:17320   */\n      tag_254\n      jump\t// in\n    tag_370:\n        /* \"#utility.yul\":17292:17297   */\n      dup2\n        /* \"#utility.yul\":17289:17321   */\n      eq\n        /* \"#utility.yul\":17279:17339   */\n      tag_371\n      jumpi\n        /* \"#utility.yul\":17335:17336   */\n      0x00\n        /* \"#utility.yul\":17332:17333   */\n      dup1\n        /* \"#utility.yul\":17325:17337   */\n      revert\n        /* \"#utility.yul\":17279:17339   */\n    tag_371:\n        /* \"#utility.yul\":17229:17345   */\n      pop\n      jump\t// out\n        /* \"#utility.yul\":17351:17473   */\n    tag_197:\n        /* \"#utility.yul\":17424:17448   */\n      tag_373\n        /* \"#utility.yul\":17442:17447   */\n      dup2\n        /* \"#utility.yul\":17424:17448   */\n      tag_289\n      jump\t// in\n    tag_373:\n        /* \"#utility.yul\":17417:17422   */\n      dup2\n        /* \"#utility.yul\":17414:17449   */\n      eq\n        /* \"#utility.yul\":17404:17467   */\n      tag_374\n      jumpi\n        /* \"#utility.yul\":17463:17464   */\n      0x00\n        /* \"#utility.yul\":17460:17461   */\n      dup1\n        /* \"#utility.yul\":17453:17465   */\n      revert\n        /* \"#utility.yul\":17404:17467   */\n    tag_374:\n        /* \"#utility.yul\":17351:17473   */\n      pop\n      jump\t// out\n\n    auxdata: 0xa26469706673582212204a01a41580669920270c51a81e58ef3373b3b3a584742d04c4101d1f55a0e32664736f6c63430008070033\n}\n",
				"bytecode": {
					"linkReferences": {},
					"object": "608060405234801561001057600080fd5b5033600160006101000a81548173ffffffffffffffffffffffffffffffffffffffff021916908373ffffffffffffffffffffffffffffffffffffffff16021790555061185a806100616000396000f3fe608060405234801561001057600080fd5b50600436106100a95760003560e01c806396ad3d601161007157806396ad3d601461018d578063b3cea217146101bd578063ce606ee0146101db578063e57fbf13146101f9578063f088d5471461022c578063f8a5e83f14610248576100a9565b806314f2d649146100ae578063392b93c6146100ca57806353da1d8c146100fa5780636f89ed571461012d57806395527eae1461015d575b600080fd5b6100c860048036038101906100c391906110c3565b610264565b005b6100e460048036038101906100df919061100f565b6107fb565b6040516100f19190611331565b60405180910390f35b610114600480360381019061010f9190611069565b610a0e565b6040516101249493929190611449565b60405180910390f35b6101476004803603810190610142919061100f565b610a8e565b6040516101549190611353565b60405180910390f35b6101776004803603810190610172919061100f565b610aae565b604051610184919061142e565b60405180910390f35b6101a760048036038101906101a2919061100f565b610ac6565b6040516101b49190611331565b60405180910390f35b6101c5610ad8565b6040516101d2919061142e565b60405180910390f35b6101e3610ade565b6040516101f091906112b6565b60405180910390f35b610213600480360381019061020e9190611069565b610b04565b6040516102239493929190611449565b60405180910390f35b6102466004803603810190610241919061100f565b610b74565b005b610262600480360381019061025d919061100f565b610c5f565b005b6001600460008473ffffffffffffffffffffffffffffffffffffffff1673ffffffffffffffffffffffffffffffffffffffff16815260200190815260200160002060006101000a81548160ff02191690831515021790556102fa576040517f08c379a00000000000000000000000000000000000000000000000000000000081526004016102f1906113ce565b60405180910390fd5b6000831161033d576040517f08c379a00000000000000000000000000000000000000000000000000000000081526004016103349061136e565b60405180910390fd5b828273ffffffffffffffffffffffffffffffffffffffff166370a08231336040518263ffffffff1660e01b815260040161037791906112b6565b60206040518083038186803b15801561038f57600080fd5b505afa1580156103a3573d6000803e3d6000fd5b505050506040513d601f19601f820116820180604052508101906103c79190611096565b1015610408576040517f08c379a00000000000000000000000000000000000000000000000000000000081526004016103ff9061138e565b60405180910390fd5b6001151561041582610d4a565b151514610457576040517f08c379a000000000000000000000000000000000000000000000000000000000815260040161044e906113ee565b60405180910390fd5b60008290508073ffffffffffffffffffffffffffffffffffffffff1663095ea7b330866040518363ffffffff1660e01b8152600401610497929190611308565b602060405180830381600087803b1580156104b157600080fd5b505af11580156104c5573d6000803e3d6000fd5b505050506040513d601f19601f820116820180604052508101906104e9919061103c565b508073ffffffffffffffffffffffffffffffffffffffff166323b872dd3330876040518463ffffffff1660e01b8152600401610527939291906112d1565b602060405180830381600087803b15801561054157600080fd5b505af1158015610555573d6000803e3d6000fd5b505050506040513d601f19601f82011682018060405250810190610579919061103c565b5060006040518060a0016040528060005481526020013373ffffffffffffffffffffffffffffffffffffffff1681526020018573ffffffffffffffffffffffffffffffffffffffff168152602001868152602001848152509050600054600560003373ffffffffffffffffffffffffffffffffffffffff1673ffffffffffffffffffffffffffffffffffffffff168152602001908152602001600020819055508060066000805481526020019081526020016000206000820151816000015560208201518160010160006101000a81548173ffffffffffffffffffffffffffffffffffffffff021916908373ffffffffffffffffffffffffffffffffffffffff16021790555060408201518160020160006101000a81548173ffffffffffffffffffffffffffffffffffffffff021916908373ffffffffffffffffffffffffffffffffffffffff1602179055506060820151816003015560808201518160040190805190602001906106ec929190610e76565b5090505060078190806001815401808255809150506001900390600052602060002090600502016000909190919091506000820151816000015560208201518160010160006101000a81548173ffffffffffffffffffffffffffffffffffffffff021916908373ffffffffffffffffffffffffffffffffffffffff16021790555060408201518160020160006101000a81548173ffffffffffffffffffffffffffffffffffffffff021916908373ffffffffffffffffffffffffffffffffffffffff1602179055506060820151816003015560808201518160040190805190602001906107da929190610e76565b5050506000808154809291906107ef906115a2565b91905055505050505050565b6060600060078054905067ffffffffffffffff81111561081e5761081d611649565b5b60405190808252806020026020018201604052801561084c5781602001602082028036833780820191505090505b5090506000805b6007805490508110156109c357610913600782815481106108775761087661161a565b5b906000526020600020906005020160040180548060200260200160405190810160405280929190818152602001828054801561090857602002820191906000526020600020905b8160009054906101000a900473ffffffffffffffffffffffffffffffffffffffff1673ffffffffffffffffffffffffffffffffffffffff16815260200190600101908083116108be575b505050505086610dee565b156109b0576007818154811061092c5761092b61161a565b5b906000526020600020906005020160010160009054906101000a900473ffffffffffffffffffffffffffffffffffffffff168382815181106109715761097061161a565b5b602002602001019073ffffffffffffffffffffffffffffffffffffffff16908173ffffffffffffffffffffffffffffffffffffffff1681525050600191505b80806109bb906115a2565b915050610853565b5080610a04576040517f08c379a00000000000000000000000000000000000000000000000000000000081526004016109fb906113ae565b60405180910390fd5b8192505050919050565b60078181548110610a1e57600080fd5b90600052602060002090600502016000915090508060000154908060010160009054906101000a900473ffffffffffffffffffffffffffffffffffffffff16908060020160009054906101000a900473ffffffffffffffffffffffffffffffffffffffff16908060030154905084565b60046020528060005260406000206000915054906101000a900460ff1681565b60056020528060005260406000206000915090505481565b6060610ad1826107fb565b9050919050565b60005481565b600160009054906101000a900473ffffffffffffffffffffffffffffffffffffffff1681565b60066020528060005260406000206000915090508060000154908060010160009054906101000a900473ffffffffffffffffffffffffffffffffffffffff16908060020160009054906101000a900473ffffffffffffffffffffffffffffffffffffffff16908060030154905084565b6001600460008373ffffffffffffffffffffffffffffffffffffffff1673ffffffffffffffffffffffffffffffffffffffff16815260200190815260200160002060006101000a81548160ff0219169083151502179055610c0a576040517f08c379a0000000000000000000000000000000000000000000000000000000008152600401610c01906113ce565b60405180910390fd5b6000610c15826107fb565b90506000815111610c5b576040517f08c379a0000000000000000000000000000000000000000000000000000000008152600401610c52906113ae565b60405180910390fd5b5050565b600160009054906101000a900473ffffffffffffffffffffffffffffffffffffffff1673ffffffffffffffffffffffffffffffffffffffff163373ffffffffffffffffffffffffffffffffffffffff1614610cef576040517f08c379a0000000000000000000000000000000000000000000000000000000008152600401610ce69061140e565b60405180910390fd5b6001600460008373ffffffffffffffffffffffffffffffffffffffff1673ffffffffffffffffffffffffffffffffffffffff16815260200190815260200160002060006101000a81548160ff02191690831515021790555050565b600080600090505b8251811015610de35760046000848381518110610d7257610d7161161a565b5b602002602001015173ffffffffffffffffffffffffffffffffffffffff1673ffffffffffffffffffffffffffffffffffffffff16815260200190815260200160002060009054906101000a900460ff16610dd0576000915050610de9565b8080610ddb906115a2565b915050610d52565b50600190505b919050565b600080600090505b8351811015610e6a578273ffffffffffffffffffffffffffffffffffffffff16848281518110610e2957610e2861161a565b5b602002602001015173ffffffffffffffffffffffffffffffffffffffff161415610e57576001915050610e70565b8080610e62906115a2565b915050610df6565b50600090505b92915050565b828054828255906000526020600020908101928215610eef579160200282015b82811115610eee5782518260006101000a81548173ffffffffffffffffffffffffffffffffffffffff021916908373ffffffffffffffffffffffffffffffffffffffff16021790555091602001919060010190610e96565b5b509050610efc9190610f00565b5090565b5b80821115610f19576000816000905550600101610f01565b5090565b6000610f30610f2b846114b3565b61148e565b90508083825260208201905082856020860282011115610f5357610f5261167d565b5b60005b85811015610f835781610f698882610f8d565b845260208401935060208301925050600181019050610f56565b5050509392505050565b600081359050610f9c816117df565b92915050565b600082601f830112610fb757610fb6611678565b5b8135610fc7848260208601610f1d565b91505092915050565b600081519050610fdf816117f6565b92915050565b600081359050610ff48161180d565b92915050565b6000815190506110098161180d565b92915050565b60006020828403121561102557611024611687565b5b600061103384828501610f8d565b91505092915050565b60006020828403121561105257611051611687565b5b600061106084828501610fd0565b91505092915050565b60006020828403121561107f5761107e611687565b5b600061108d84828501610fe5565b91505092915050565b6000602082840312156110ac576110ab611687565b5b60006110ba84828501610ffa565b91505092915050565b6000806000606084860312156110dc576110db611687565b5b60006110ea86828701610fe5565b93505060206110fb86828701610f8d565b925050604084013567ffffffffffffffff81111561111c5761111b611682565b5b61112886828701610fa2565b9150509250925092565b600061113e838361114a565b60208301905092915050565b61115381611529565b82525050565b61116281611529565b82525050565b6000611173826114ef565b61117d8185611507565b9350611188836114df565b8060005b838110156111b95781516111a08882611132565b97506111ab836114fa565b92505060018101905061118c565b5085935050505092915050565b6111cf8161153b565b82525050565b60006111e2601683611518565b91506111ed8261169d565b602082019050919050565b6000611205602683611518565b9150611210826116c6565b604082019050919050565b6000611228601883611518565b915061123382611715565b602082019050919050565b600061124b601e83611518565b91506112568261173e565b602082019050919050565b600061126e602383611518565b915061127982611767565b604082019050919050565b6000611291601683611518565b915061129c826117b6565b602082019050919050565b6112b081611567565b82525050565b60006020820190506112cb6000830184611159565b92915050565b60006060820190506112e66000830186611159565b6112f36020830185611159565b61130060408301846112a7565b949350505050565b600060408201905061131d6000830185611159565b61132a60208301846112a7565b9392505050565b6000602082019050818103600083015261134b8184611168565b905092915050565b600060208201905061136860008301846111c6565b92915050565b60006020820190508181036000830152611387816111d5565b9050919050565b600060208201905081810360008301526113a7816111f8565b9050919050565b600060208201905081810360008301526113c78161121b565b9050919050565b600060208201905081810360008301526113e78161123e565b9050919050565b6000602082019050818103600083015261140781611261565b9050919050565b6000602082019050818103600083015261142781611284565b9050919050565b600060208201905061144360008301846112a7565b92915050565b600060808201905061145e60008301876112a7565b61146b6020830186611159565b6114786040830185611159565b61148560608301846112a7565b95945050505050565b60006114986114a9565b90506114a48282611571565b919050565b6000604051905090565b600067ffffffffffffffff8211156114ce576114cd611649565b5b602082029050602081019050919050565b6000819050602082019050919050565b600081519050919050565b6000602082019050919050565b600082825260208201905092915050565b600082825260208201905092915050565b600061153482611547565b9050919050565b60008115159050919050565b600073ffffffffffffffffffffffffffffffffffffffff82169050919050565b6000819050919050565b61157a8261168c565b810181811067ffffffffffffffff8211171561159957611598611649565b5b80604052505050565b60006115ad82611567565b91507fffffffffffffffffffffffffffffffffffffffffffffffffffffffffffffffff8214156115e0576115df6115eb565b5b600182019050919050565b7f4e487b7100000000000000000000000000000000000000000000000000000000600052601160045260246000fd5b7f4e487b7100000000000000000000000000000000000000000000000000000000600052603260045260246000fd5b7f4e487b7100000000000000000000000000000000000000000000000000000000600052604160045260246000fd5b600080fd5b600080fd5b600080fd5b600080fd5b6000601f19601f8301169050919050565b7f416d6d6f756e742063616e6e6f74206265205a65726f00000000000000000000600082015250565b7f416d6f756e74206f6620746f6b656e20746f2073656c6c2063616e6e6f74206260008201527f65207a65726f0000000000000000000000000000000000000000000000000000602082015250565b7f4e6f206d61746368696e6720757365727320666f756e642e0000000000000000600082015250565b7f546f6b656e2041646472657373206973206e6f7420547261646561626c650000600082015250565b7f536f6d65206f6620796f757220546f6b656e206973206e6f742054726164656160008201527f626c650000000000000000000000000000000000000000000000000000000000602082015250565b7f4e6f742074686520636f6e7472616374204f776e657200000000000000000000600082015250565b6117e881611529565b81146117f357600080fd5b50565b6117ff8161153b565b811461180a57600080fd5b50565b61181681611567565b811461182157600080fd5b5056fea26469706673582212204a01a41580669920270c51a81e58ef3373b3b3a584742d04c4101d1f55a0e32664736f6c63430008070033",
					"opcodes": "PUSH1 0x80 PUSH1 0x40 MSTORE CALLVALUE DUP1 ISZERO PUSH2 0x10 JUMPI PUSH1 0x0 DUP1 REVERT JUMPDEST POP CALLER PUSH1 0x1 PUSH1 0x0 PUSH2 0x100 EXP DUP2 SLOAD DUP2 PUSH20 0xFFFFFFFFFFFFFFFFFFFFFFFFFFFFFFFFFFFFFFFF MUL NOT AND SWAP1 DUP4 PUSH20 0xFFFFFFFFFFFFFFFFFFFFFFFFFFFFFFFFFFFFFFFF AND MUL OR SWAP1 SSTORE POP PUSH2 0x185A DUP1 PUSH2 0x61 PUSH1 0x0 CODECOPY PUSH1 0x0 RETURN INVALID PUSH1 0x80 PUSH1 0x40 MSTORE CALLVALUE DUP1 ISZERO PUSH2 0x10 JUMPI PUSH1 0x0 DUP1 REVERT JUMPDEST POP PUSH1 0x4 CALLDATASIZE LT PUSH2 0xA9 JUMPI PUSH1 0x0 CALLDATALOAD PUSH1 0xE0 SHR DUP1 PUSH4 0x96AD3D60 GT PUSH2 0x71 JUMPI DUP1 PUSH4 0x96AD3D60 EQ PUSH2 0x18D JUMPI DUP1 PUSH4 0xB3CEA217 EQ PUSH2 0x1BD JUMPI DUP1 PUSH4 0xCE606EE0 EQ PUSH2 0x1DB JUMPI DUP1 PUSH4 0xE57FBF13 EQ PUSH2 0x1F9 JUMPI DUP1 PUSH4 0xF088D547 EQ PUSH2 0x22C JUMPI DUP1 PUSH4 0xF8A5E83F EQ PUSH2 0x248 JUMPI PUSH2 0xA9 JUMP JUMPDEST DUP1 PUSH4 0x14F2D649 EQ PUSH2 0xAE JUMPI DUP1 PUSH4 0x392B93C6 EQ PUSH2 0xCA JUMPI DUP1 PUSH4 0x53DA1D8C EQ PUSH2 0xFA JUMPI DUP1 PUSH4 0x6F89ED57 EQ PUSH2 0x12D JUMPI DUP1 PUSH4 0x95527EAE EQ PUSH2 0x15D JUMPI JUMPDEST PUSH1 0x0 DUP1 REVERT JUMPDEST PUSH2 0xC8 PUSH1 0x4 DUP1 CALLDATASIZE SUB DUP2 ADD SWAP1 PUSH2 0xC3 SWAP2 SWAP1 PUSH2 0x10C3 JUMP JUMPDEST PUSH2 0x264 JUMP JUMPDEST STOP JUMPDEST PUSH2 0xE4 PUSH1 0x4 DUP1 CALLDATASIZE SUB DUP2 ADD SWAP1 PUSH2 0xDF SWAP2 SWAP1 PUSH2 0x100F JUMP JUMPDEST PUSH2 0x7FB JUMP JUMPDEST PUSH1 0x40 MLOAD PUSH2 0xF1 SWAP2 SWAP1 PUSH2 0x1331 JUMP JUMPDEST PUSH1 0x40 MLOAD DUP1 SWAP2 SUB SWAP1 RETURN JUMPDEST PUSH2 0x114 PUSH1 0x4 DUP1 CALLDATASIZE SUB DUP2 ADD SWAP1 PUSH2 0x10F SWAP2 SWAP1 PUSH2 0x1069 JUMP JUMPDEST PUSH2 0xA0E JUMP JUMPDEST PUSH1 0x40 MLOAD PUSH2 0x124 SWAP5 SWAP4 SWAP3 SWAP2 SWAP1 PUSH2 0x1449 JUMP JUMPDEST PUSH1 0x40 MLOAD DUP1 SWAP2 SUB SWAP1 RETURN JUMPDEST PUSH2 0x147 PUSH1 0x4 DUP1 CALLDATASIZE SUB DUP2 ADD SWAP1 PUSH2 0x142 SWAP2 SWAP1 PUSH2 0x100F JUMP JUMPDEST PUSH2 0xA8E JUMP JUMPDEST PUSH1 0x40 MLOAD PUSH2 0x154 SWAP2 SWAP1 PUSH2 0x1353 JUMP JUMPDEST PUSH1 0x40 MLOAD DUP1 SWAP2 SUB SWAP1 RETURN JUMPDEST PUSH2 0x177 PUSH1 0x4 DUP1 CALLDATASIZE SUB DUP2 ADD SWAP1 PUSH2 0x172 SWAP2 SWAP1 PUSH2 0x100F JUMP JUMPDEST PUSH2 0xAAE JUMP JUMPDEST PUSH1 0x40 MLOAD PUSH2 0x184 SWAP2 SWAP1 PUSH2 0x142E JUMP JUMPDEST PUSH1 0x40 MLOAD DUP1 SWAP2 SUB SWAP1 RETURN JUMPDEST PUSH2 0x1A7 PUSH1 0x4 DUP1 CALLDATASIZE SUB DUP2 ADD SWAP1 PUSH2 0x1A2 SWAP2 SWAP1 PUSH2 0x100F JUMP JUMPDEST PUSH2 0xAC6 JUMP JUMPDEST PUSH1 0x40 MLOAD PUSH2 0x1B4 SWAP2 SWAP1 PUSH2 0x1331 JUMP JUMPDEST PUSH1 0x40 MLOAD DUP1 SWAP2 SUB SWAP1 RETURN JUMPDEST PUSH2 0x1C5 PUSH2 0xAD8 JUMP JUMPDEST PUSH1 0x40 MLOAD PUSH2 0x1D2 SWAP2 SWAP1 PUSH2 0x142E JUMP JUMPDEST PUSH1 0x40 MLOAD DUP1 SWAP2 SUB SWAP1 RETURN JUMPDEST PUSH2 0x1E3 PUSH2 0xADE JUMP JUMPDEST PUSH1 0x40 MLOAD PUSH2 0x1F0 SWAP2 SWAP1 PUSH2 0x12B6 JUMP JUMPDEST PUSH1 0x40 MLOAD DUP1 SWAP2 SUB SWAP1 RETURN JUMPDEST PUSH2 0x213 PUSH1 0x4 DUP1 CALLDATASIZE SUB DUP2 ADD SWAP1 PUSH2 0x20E SWAP2 SWAP1 PUSH2 0x1069 JUMP JUMPDEST PUSH2 0xB04 JUMP JUMPDEST PUSH1 0x40 MLOAD PUSH2 0x223 SWAP5 SWAP4 SWAP3 SWAP2 SWAP1 PUSH2 0x1449 JUMP JUMPDEST PUSH1 0x40 MLOAD DUP1 SWAP2 SUB SWAP1 RETURN JUMPDEST PUSH2 0x246 PUSH1 0x4 DUP1 CALLDATASIZE SUB DUP2 ADD SWAP1 PUSH2 0x241 SWAP2 SWAP1 PUSH2 0x100F JUMP JUMPDEST PUSH2 0xB74 JUMP JUMPDEST STOP JUMPDEST PUSH2 0x262 PUSH1 0x4 DUP1 CALLDATASIZE SUB DUP2 ADD SWAP1 PUSH2 0x25D SWAP2 SWAP1 PUSH2 0x100F JUMP JUMPDEST PUSH2 0xC5F JUMP JUMPDEST STOP JUMPDEST PUSH1 0x1 PUSH1 0x4 PUSH1 0x0 DUP5 PUSH20 0xFFFFFFFFFFFFFFFFFFFFFFFFFFFFFFFFFFFFFFFF AND PUSH20 0xFFFFFFFFFFFFFFFFFFFFFFFFFFFFFFFFFFFFFFFF AND DUP2 MSTORE PUSH1 0x20 ADD SWAP1 DUP2 MSTORE PUSH1 0x20 ADD PUSH1 0x0 KECCAK256 PUSH1 0x0 PUSH2 0x100 EXP DUP2 SLOAD DUP2 PUSH1 0xFF MUL NOT AND SWAP1 DUP4 ISZERO ISZERO MUL OR SWAP1 SSTORE PUSH2 0x2FA JUMPI PUSH1 0x40 MLOAD PUSH32 0x8C379A000000000000000000000000000000000000000000000000000000000 DUP2 MSTORE PUSH1 0x4 ADD PUSH2 0x2F1 SWAP1 PUSH2 0x13CE JUMP JUMPDEST PUSH1 0x40 MLOAD DUP1 SWAP2 SUB SWAP1 REVERT JUMPDEST PUSH1 0x0 DUP4 GT PUSH2 0x33D JUMPI PUSH1 0x40 MLOAD PUSH32 0x8C379A000000000000000000000000000000000000000000000000000000000 DUP2 MSTORE PUSH1 0x4 ADD PUSH2 0x334 SWAP1 PUSH2 0x136E JUMP JUMPDEST PUSH1 0x40 MLOAD DUP1 SWAP2 SUB SWAP1 REVERT JUMPDEST DUP3 DUP3 PUSH20 0xFFFFFFFFFFFFFFFFFFFFFFFFFFFFFFFFFFFFFFFF AND PUSH4 0x70A08231 CALLER PUSH1 0x40 MLOAD DUP3 PUSH4 0xFFFFFFFF AND PUSH1 0xE0 SHL DUP2 MSTORE PUSH1 0x4 ADD PUSH2 0x377 SWAP2 SWAP1 PUSH2 0x12B6 JUMP JUMPDEST PUSH1 0x20 PUSH1 0x40 MLOAD DUP1 DUP4 SUB DUP2 DUP7 DUP1 EXTCODESIZE ISZERO DUP1 ISZERO PUSH2 0x38F JUMPI PUSH1 0x0 DUP1 REVERT JUMPDEST POP GAS STATICCALL ISZERO DUP1 ISZERO PUSH2 0x3A3 JUMPI RETURNDATASIZE PUSH1 0x0 DUP1 RETURNDATACOPY RETURNDATASIZE PUSH1 0x0 REVERT JUMPDEST POP POP POP POP PUSH1 0x40 MLOAD RETURNDATASIZE PUSH1 0x1F NOT PUSH1 0x1F DUP3 ADD AND DUP3 ADD DUP1 PUSH1 0x40 MSTORE POP DUP2 ADD SWAP1 PUSH2 0x3C7 SWAP2 SWAP1 PUSH2 0x1096 JUMP JUMPDEST LT ISZERO PUSH2 0x408 JUMPI PUSH1 0x40 MLOAD PUSH32 0x8C379A000000000000000000000000000000000000000000000000000000000 DUP2 MSTORE PUSH1 0x4 ADD PUSH2 0x3FF SWAP1 PUSH2 0x138E JUMP JUMPDEST PUSH1 0x40 MLOAD DUP1 SWAP2 SUB SWAP1 REVERT JUMPDEST PUSH1 0x1 ISZERO ISZERO PUSH2 0x415 DUP3 PUSH2 0xD4A JUMP JUMPDEST ISZERO ISZERO EQ PUSH2 0x457 JUMPI PUSH1 0x40 MLOAD PUSH32 0x8C379A000000000000000000000000000000000000000000000000000000000 DUP2 MSTORE PUSH1 0x4 ADD PUSH2 0x44E SWAP1 PUSH2 0x13EE JUMP JUMPDEST PUSH1 0x40 MLOAD DUP1 SWAP2 SUB SWAP1 REVERT JUMPDEST PUSH1 0x0 DUP3 SWAP1 POP DUP1 PUSH20 0xFFFFFFFFFFFFFFFFFFFFFFFFFFFFFFFFFFFFFFFF AND PUSH4 0x95EA7B3 ADDRESS DUP7 PUSH1 0x40 MLOAD DUP4 PUSH4 0xFFFFFFFF AND PUSH1 0xE0 SHL DUP2 MSTORE PUSH1 0x4 ADD PUSH2 0x497 SWAP3 SWAP2 SWAP1 PUSH2 0x1308 JUMP JUMPDEST PUSH1 0x20 PUSH1 0x40 MLOAD DUP1 DUP4 SUB DUP2 PUSH1 0x0 DUP8 DUP1 EXTCODESIZE ISZERO DUP1 ISZERO PUSH2 0x4B1 JUMPI PUSH1 0x0 DUP1 REVERT JUMPDEST POP GAS CALL ISZERO DUP1 ISZERO PUSH2 0x4C5 JUMPI RETURNDATASIZE PUSH1 0x0 DUP1 RETURNDATACOPY RETURNDATASIZE PUSH1 0x0 REVERT JUMPDEST POP POP POP POP PUSH1 0x40 MLOAD RETURNDATASIZE PUSH1 0x1F NOT PUSH1 0x1F DUP3 ADD AND DUP3 ADD DUP1 PUSH1 0x40 MSTORE POP DUP2 ADD SWAP1 PUSH2 0x4E9 SWAP2 SWAP1 PUSH2 0x103C JUMP JUMPDEST POP DUP1 PUSH20 0xFFFFFFFFFFFFFFFFFFFFFFFFFFFFFFFFFFFFFFFF AND PUSH4 0x23B872DD CALLER ADDRESS DUP8 PUSH1 0x40 MLOAD DUP5 PUSH4 0xFFFFFFFF AND PUSH1 0xE0 SHL DUP2 MSTORE PUSH1 0x4 ADD PUSH2 0x527 SWAP4 SWAP3 SWAP2 SWAP1 PUSH2 0x12D1 JUMP JUMPDEST PUSH1 0x20 PUSH1 0x40 MLOAD DUP1 DUP4 SUB DUP2 PUSH1 0x0 DUP8 DUP1 EXTCODESIZE ISZERO DUP1 ISZERO PUSH2 0x541 JUMPI PUSH1 0x0 DUP1 REVERT JUMPDEST POP GAS CALL ISZERO DUP1 ISZERO PUSH2 0x555 JUMPI RETURNDATASIZE PUSH1 0x0 DUP1 RETURNDATACOPY RETURNDATASIZE PUSH1 0x0 REVERT JUMPDEST POP POP POP POP PUSH1 0x40 MLOAD RETURNDATASIZE PUSH1 0x1F NOT PUSH1 0x1F DUP3 ADD AND DUP3 ADD DUP1 PUSH1 0x40 MSTORE POP DUP2 ADD SWAP1 PUSH2 0x579 SWAP2 SWAP1 PUSH2 0x103C JUMP JUMPDEST POP PUSH1 0x0 PUSH1 0x40 MLOAD DUP1 PUSH1 0xA0 ADD PUSH1 0x40 MSTORE DUP1 PUSH1 0x0 SLOAD DUP2 MSTORE PUSH1 0x20 ADD CALLER PUSH20 0xFFFFFFFFFFFFFFFFFFFFFFFFFFFFFFFFFFFFFFFF AND DUP2 MSTORE PUSH1 0x20 ADD DUP6 PUSH20 0xFFFFFFFFFFFFFFFFFFFFFFFFFFFFFFFFFFFFFFFF AND DUP2 MSTORE PUSH1 0x20 ADD DUP7 DUP2 MSTORE PUSH1 0x20 ADD DUP5 DUP2 MSTORE POP SWAP1 POP PUSH1 0x0 SLOAD PUSH1 0x5 PUSH1 0x0 CALLER PUSH20 0xFFFFFFFFFFFFFFFFFFFFFFFFFFFFFFFFFFFFFFFF AND PUSH20 0xFFFFFFFFFFFFFFFFFFFFFFFFFFFFFFFFFFFFFFFF AND DUP2 MSTORE PUSH1 0x20 ADD SWAP1 DUP2 MSTORE PUSH1 0x20 ADD PUSH1 0x0 KECCAK256 DUP2 SWAP1 SSTORE POP DUP1 PUSH1 0x6 PUSH1 0x0 DUP1 SLOAD DUP2 MSTORE PUSH1 0x20 ADD SWAP1 DUP2 MSTORE PUSH1 0x20 ADD PUSH1 0x0 KECCAK256 PUSH1 0x0 DUP3 ADD MLOAD DUP2 PUSH1 0x0 ADD SSTORE PUSH1 0x20 DUP3 ADD MLOAD DUP2 PUSH1 0x1 ADD PUSH1 0x0 PUSH2 0x100 EXP DUP2 SLOAD DUP2 PUSH20 0xFFFFFFFFFFFFFFFFFFFFFFFFFFFFFFFFFFFFFFFF MUL NOT AND SWAP1 DUP4 PUSH20 0xFFFFFFFFFFFFFFFFFFFFFFFFFFFFFFFFFFFFFFFF AND MUL OR SWAP1 SSTORE POP PUSH1 0x40 DUP3 ADD MLOAD DUP2 PUSH1 0x2 ADD PUSH1 0x0 PUSH2 0x100 EXP DUP2 SLOAD DUP2 PUSH20 0xFFFFFFFFFFFFFFFFFFFFFFFFFFFFFFFFFFFFFFFF MUL NOT AND SWAP1 DUP4 PUSH20 0xFFFFFFFFFFFFFFFFFFFFFFFFFFFFFFFFFFFFFFFF AND MUL OR SWAP1 SSTORE POP PUSH1 0x60 DUP3 ADD MLOAD DUP2 PUSH1 0x3 ADD SSTORE PUSH1 0x80 DUP3 ADD MLOAD DUP2 PUSH1 0x4 ADD SWAP1 DUP1 MLOAD SWAP1 PUSH1 0x20 ADD SWAP1 PUSH2 0x6EC SWAP3 SWAP2 SWAP1 PUSH2 0xE76 JUMP JUMPDEST POP SWAP1 POP POP PUSH1 0x7 DUP2 SWAP1 DUP1 PUSH1 0x1 DUP2 SLOAD ADD DUP1 DUP3 SSTORE DUP1 SWAP2 POP POP PUSH1 0x1 SWAP1 SUB SWAP1 PUSH1 0x0 MSTORE PUSH1 0x20 PUSH1 0x0 KECCAK256 SWAP1 PUSH1 0x5 MUL ADD PUSH1 0x0 SWAP1 SWAP2 SWAP1 SWAP2 SWAP1 SWAP2 POP PUSH1 0x0 DUP3 ADD MLOAD DUP2 PUSH1 0x0 ADD SSTORE PUSH1 0x20 DUP3 ADD MLOAD DUP2 PUSH1 0x1 ADD PUSH1 0x0 PUSH2 0x100 EXP DUP2 SLOAD DUP2 PUSH20 0xFFFFFFFFFFFFFFFFFFFFFFFFFFFFFFFFFFFFFFFF MUL NOT AND SWAP1 DUP4 PUSH20 0xFFFFFFFFFFFFFFFFFFFFFFFFFFFFFFFFFFFFFFFF AND MUL OR SWAP1 SSTORE POP PUSH1 0x40 DUP3 ADD MLOAD DUP2 PUSH1 0x2 ADD PUSH1 0x0 PUSH2 0x100 EXP DUP2 SLOAD DUP2 PUSH20 0xFFFFFFFFFFFFFFFFFFFFFFFFFFFFFFFFFFFFFFFF MUL NOT AND SWAP1 DUP4 PUSH20 0xFFFFFFFFFFFFFFFFFFFFFFFFFFFFFFFFFFFFFFFF AND MUL OR SWAP1 SSTORE POP PUSH1 0x60 DUP3 ADD MLOAD DUP2 PUSH1 0x3 ADD SSTORE PUSH1 0x80 DUP3 ADD MLOAD DUP2 PUSH1 0x4 ADD SWAP1 DUP1 MLOAD SWAP1 PUSH1 0x20 ADD SWAP1 PUSH2 0x7DA SWAP3 SWAP2 SWAP1 PUSH2 0xE76 JUMP JUMPDEST POP POP POP PUSH1 0x0 DUP1 DUP2 SLOAD DUP1 SWAP3 SWAP2 SWAP1 PUSH2 0x7EF SWAP1 PUSH2 0x15A2 JUMP JUMPDEST SWAP2 SWAP1 POP SSTORE POP POP POP POP POP POP JUMP JUMPDEST PUSH1 0x60 PUSH1 0x0 PUSH1 0x7 DUP1 SLOAD SWAP1 POP PUSH8 0xFFFFFFFFFFFFFFFF DUP2 GT ISZERO PUSH2 0x81E JUMPI PUSH2 0x81D PUSH2 0x1649 JUMP JUMPDEST JUMPDEST PUSH1 0x40 MLOAD SWAP1 DUP1 DUP3 MSTORE DUP1 PUSH1 0x20 MUL PUSH1 0x20 ADD DUP3 ADD PUSH1 0x40 MSTORE DUP1 ISZERO PUSH2 0x84C JUMPI DUP2 PUSH1 0x20 ADD PUSH1 0x20 DUP3 MUL DUP1 CALLDATASIZE DUP4 CALLDATACOPY DUP1 DUP3 ADD SWAP2 POP POP SWAP1 POP JUMPDEST POP SWAP1 POP PUSH1 0x0 DUP1 JUMPDEST PUSH1 0x7 DUP1 SLOAD SWAP1 POP DUP2 LT ISZERO PUSH2 0x9C3 JUMPI PUSH2 0x913 PUSH1 0x7 DUP3 DUP2 SLOAD DUP2 LT PUSH2 0x877 JUMPI PUSH2 0x876 PUSH2 0x161A JUMP JUMPDEST JUMPDEST SWAP1 PUSH1 0x0 MSTORE PUSH1 0x20 PUSH1 0x0 KECCAK256 SWAP1 PUSH1 0x5 MUL ADD PUSH1 0x4 ADD DUP1 SLOAD DUP1 PUSH1 0x20 MUL PUSH1 0x20 ADD PUSH1 0x40 MLOAD SWAP1 DUP2 ADD PUSH1 0x40 MSTORE DUP1 SWAP3 SWAP2 SWAP1 DUP2 DUP2 MSTORE PUSH1 0x20 ADD DUP3 DUP1 SLOAD DUP1 ISZERO PUSH2 0x908 JUMPI PUSH1 0x20 MUL DUP3 ADD SWAP2 SWAP1 PUSH1 0x0 MSTORE PUSH1 0x20 PUSH1 0x0 KECCAK256 SWAP1 JUMPDEST DUP2 PUSH1 0x0 SWAP1 SLOAD SWAP1 PUSH2 0x100 EXP SWAP1 DIV PUSH20 0xFFFFFFFFFFFFFFFFFFFFFFFFFFFFFFFFFFFFFFFF AND PUSH20 0xFFFFFFFFFFFFFFFFFFFFFFFFFFFFFFFFFFFFFFFF AND DUP2 MSTORE PUSH1 0x20 ADD SWAP1 PUSH1 0x1 ADD SWAP1 DUP1 DUP4 GT PUSH2 0x8BE JUMPI JUMPDEST POP POP POP POP POP DUP7 PUSH2 0xDEE JUMP JUMPDEST ISZERO PUSH2 0x9B0 JUMPI PUSH1 0x7 DUP2 DUP2 SLOAD DUP2 LT PUSH2 0x92C JUMPI PUSH2 0x92B PUSH2 0x161A JUMP JUMPDEST JUMPDEST SWAP1 PUSH1 0x0 MSTORE PUSH1 0x20 PUSH1 0x0 KECCAK256 SWAP1 PUSH1 0x5 MUL ADD PUSH1 0x1 ADD PUSH1 0x0 SWAP1 SLOAD SWAP1 PUSH2 0x100 EXP SWAP1 DIV PUSH20 0xFFFFFFFFFFFFFFFFFFFFFFFFFFFFFFFFFFFFFFFF AND DUP4 DUP3 DUP2 MLOAD DUP2 LT PUSH2 0x971 JUMPI PUSH2 0x970 PUSH2 0x161A JUMP JUMPDEST JUMPDEST PUSH1 0x20 MUL PUSH1 0x20 ADD ADD SWAP1 PUSH20 0xFFFFFFFFFFFFFFFFFFFFFFFFFFFFFFFFFFFFFFFF AND SWAP1 DUP2 PUSH20 0xFFFFFFFFFFFFFFFFFFFFFFFFFFFFFFFFFFFFFFFF AND DUP2 MSTORE POP POP PUSH1 0x1 SWAP2 POP JUMPDEST DUP1 DUP1 PUSH2 0x9BB SWAP1 PUSH2 0x15A2 JUMP JUMPDEST SWAP2 POP POP PUSH2 0x853 JUMP JUMPDEST POP DUP1 PUSH2 0xA04 JUMPI PUSH1 0x40 MLOAD PUSH32 0x8C379A000000000000000000000000000000000000000000000000000000000 DUP2 MSTORE PUSH1 0x4 ADD PUSH2 0x9FB SWAP1 PUSH2 0x13AE JUMP JUMPDEST PUSH1 0x40 MLOAD DUP1 SWAP2 SUB SWAP1 REVERT JUMPDEST DUP2 SWAP3 POP POP POP SWAP2 SWAP1 POP JUMP JUMPDEST PUSH1 0x7 DUP2 DUP2 SLOAD DUP2 LT PUSH2 0xA1E JUMPI PUSH1 0x0 DUP1 REVERT JUMPDEST SWAP1 PUSH1 0x0 MSTORE PUSH1 0x20 PUSH1 0x0 KECCAK256 SWAP1 PUSH1 0x5 MUL ADD PUSH1 0x0 SWAP2 POP SWAP1 POP DUP1 PUSH1 0x0 ADD SLOAD SWAP1 DUP1 PUSH1 0x1 ADD PUSH1 0x0 SWAP1 SLOAD SWAP1 PUSH2 0x100 EXP SWAP1 DIV PUSH20 0xFFFFFFFFFFFFFFFFFFFFFFFFFFFFFFFFFFFFFFFF AND SWAP1 DUP1 PUSH1 0x2 ADD PUSH1 0x0 SWAP1 SLOAD SWAP1 PUSH2 0x100 EXP SWAP1 DIV PUSH20 0xFFFFFFFFFFFFFFFFFFFFFFFFFFFFFFFFFFFFFFFF AND SWAP1 DUP1 PUSH1 0x3 ADD SLOAD SWAP1 POP DUP5 JUMP JUMPDEST PUSH1 0x4 PUSH1 0x20 MSTORE DUP1 PUSH1 0x0 MSTORE PUSH1 0x40 PUSH1 0x0 KECCAK256 PUSH1 0x0 SWAP2 POP SLOAD SWAP1 PUSH2 0x100 EXP SWAP1 DIV PUSH1 0xFF AND DUP2 JUMP JUMPDEST PUSH1 0x5 PUSH1 0x20 MSTORE DUP1 PUSH1 0x0 MSTORE PUSH1 0x40 PUSH1 0x0 KECCAK256 PUSH1 0x0 SWAP2 POP SWAP1 POP SLOAD DUP2 JUMP JUMPDEST PUSH1 0x60 PUSH2 0xAD1 DUP3 PUSH2 0x7FB JUMP JUMPDEST SWAP1 POP SWAP2 SWAP1 POP JUMP JUMPDEST PUSH1 0x0 SLOAD DUP2 JUMP JUMPDEST PUSH1 0x1 PUSH1 0x0 SWAP1 SLOAD SWAP1 PUSH2 0x100 EXP SWAP1 DIV PUSH20 0xFFFFFFFFFFFFFFFFFFFFFFFFFFFFFFFFFFFFFFFF AND DUP2 JUMP JUMPDEST PUSH1 0x6 PUSH1 0x20 MSTORE DUP1 PUSH1 0x0 MSTORE PUSH1 0x40 PUSH1 0x0 KECCAK256 PUSH1 0x0 SWAP2 POP SWAP1 POP DUP1 PUSH1 0x0 ADD SLOAD SWAP1 DUP1 PUSH1 0x1 ADD PUSH1 0x0 SWAP1 SLOAD SWAP1 PUSH2 0x100 EXP SWAP1 DIV PUSH20 0xFFFFFFFFFFFFFFFFFFFFFFFFFFFFFFFFFFFFFFFF AND SWAP1 DUP1 PUSH1 0x2 ADD PUSH1 0x0 SWAP1 SLOAD SWAP1 PUSH2 0x100 EXP SWAP1 DIV PUSH20 0xFFFFFFFFFFFFFFFFFFFFFFFFFFFFFFFFFFFFFFFF AND SWAP1 DUP1 PUSH1 0x3 ADD SLOAD SWAP1 POP DUP5 JUMP JUMPDEST PUSH1 0x1 PUSH1 0x4 PUSH1 0x0 DUP4 PUSH20 0xFFFFFFFFFFFFFFFFFFFFFFFFFFFFFFFFFFFFFFFF AND PUSH20 0xFFFFFFFFFFFFFFFFFFFFFFFFFFFFFFFFFFFFFFFF AND DUP2 MSTORE PUSH1 0x20 ADD SWAP1 DUP2 MSTORE PUSH1 0x20 ADD PUSH1 0x0 KECCAK256 PUSH1 0x0 PUSH2 0x100 EXP DUP2 SLOAD DUP2 PUSH1 0xFF MUL NOT AND SWAP1 DUP4 ISZERO ISZERO MUL OR SWAP1 SSTORE PUSH2 0xC0A JUMPI PUSH1 0x40 MLOAD PUSH32 0x8C379A000000000000000000000000000000000000000000000000000000000 DUP2 MSTORE PUSH1 0x4 ADD PUSH2 0xC01 SWAP1 PUSH2 0x13CE JUMP JUMPDEST PUSH1 0x40 MLOAD DUP1 SWAP2 SUB SWAP1 REVERT JUMPDEST PUSH1 0x0 PUSH2 0xC15 DUP3 PUSH2 0x7FB JUMP JUMPDEST SWAP1 POP PUSH1 0x0 DUP2 MLOAD GT PUSH2 0xC5B JUMPI PUSH1 0x40 MLOAD PUSH32 0x8C379A000000000000000000000000000000000000000000000000000000000 DUP2 MSTORE PUSH1 0x4 ADD PUSH2 0xC52 SWAP1 PUSH2 0x13AE JUMP JUMPDEST PUSH1 0x40 MLOAD DUP1 SWAP2 SUB SWAP1 REVERT JUMPDEST POP POP JUMP JUMPDEST PUSH1 0x1 PUSH1 0x0 SWAP1 SLOAD SWAP1 PUSH2 0x100 EXP SWAP1 DIV PUSH20 0xFFFFFFFFFFFFFFFFFFFFFFFFFFFFFFFFFFFFFFFF AND PUSH20 0xFFFFFFFFFFFFFFFFFFFFFFFFFFFFFFFFFFFFFFFF AND CALLER PUSH20 0xFFFFFFFFFFFFFFFFFFFFFFFFFFFFFFFFFFFFFFFF AND EQ PUSH2 0xCEF JUMPI PUSH1 0x40 MLOAD PUSH32 0x8C379A000000000000000000000000000000000000000000000000000000000 DUP2 MSTORE PUSH1 0x4 ADD PUSH2 0xCE6 SWAP1 PUSH2 0x140E JUMP JUMPDEST PUSH1 0x40 MLOAD DUP1 SWAP2 SUB SWAP1 REVERT JUMPDEST PUSH1 0x1 PUSH1 0x4 PUSH1 0x0 DUP4 PUSH20 0xFFFFFFFFFFFFFFFFFFFFFFFFFFFFFFFFFFFFFFFF AND PUSH20 0xFFFFFFFFFFFFFFFFFFFFFFFFFFFFFFFFFFFFFFFF AND DUP2 MSTORE PUSH1 0x20 ADD SWAP1 DUP2 MSTORE PUSH1 0x20 ADD PUSH1 0x0 KECCAK256 PUSH1 0x0 PUSH2 0x100 EXP DUP2 SLOAD DUP2 PUSH1 0xFF MUL NOT AND SWAP1 DUP4 ISZERO ISZERO MUL OR SWAP1 SSTORE POP POP JUMP JUMPDEST PUSH1 0x0 DUP1 PUSH1 0x0 SWAP1 POP JUMPDEST DUP3 MLOAD DUP2 LT ISZERO PUSH2 0xDE3 JUMPI PUSH1 0x4 PUSH1 0x0 DUP5 DUP4 DUP2 MLOAD DUP2 LT PUSH2 0xD72 JUMPI PUSH2 0xD71 PUSH2 0x161A JUMP JUMPDEST JUMPDEST PUSH1 0x20 MUL PUSH1 0x20 ADD ADD MLOAD PUSH20 0xFFFFFFFFFFFFFFFFFFFFFFFFFFFFFFFFFFFFFFFF AND PUSH20 0xFFFFFFFFFFFFFFFFFFFFFFFFFFFFFFFFFFFFFFFF AND DUP2 MSTORE PUSH1 0x20 ADD SWAP1 DUP2 MSTORE PUSH1 0x20 ADD PUSH1 0x0 KECCAK256 PUSH1 0x0 SWAP1 SLOAD SWAP1 PUSH2 0x100 EXP SWAP1 DIV PUSH1 0xFF AND PUSH2 0xDD0 JUMPI PUSH1 0x0 SWAP2 POP POP PUSH2 0xDE9 JUMP JUMPDEST DUP1 DUP1 PUSH2 0xDDB SWAP1 PUSH2 0x15A2 JUMP JUMPDEST SWAP2 POP POP PUSH2 0xD52 JUMP JUMPDEST POP PUSH1 0x1 SWAP1 POP JUMPDEST SWAP2 SWAP1 POP JUMP JUMPDEST PUSH1 0x0 DUP1 PUSH1 0x0 SWAP1 POP JUMPDEST DUP4 MLOAD DUP2 LT ISZERO PUSH2 0xE6A JUMPI DUP3 PUSH20 0xFFFFFFFFFFFFFFFFFFFFFFFFFFFFFFFFFFFFFFFF AND DUP5 DUP3 DUP2 MLOAD DUP2 LT PUSH2 0xE29 JUMPI PUSH2 0xE28 PUSH2 0x161A JUMP JUMPDEST JUMPDEST PUSH1 0x20 MUL PUSH1 0x20 ADD ADD MLOAD PUSH20 0xFFFFFFFFFFFFFFFFFFFFFFFFFFFFFFFFFFFFFFFF AND EQ ISZERO PUSH2 0xE57 JUMPI PUSH1 0x1 SWAP2 POP POP PUSH2 0xE70 JUMP JUMPDEST DUP1 DUP1 PUSH2 0xE62 SWAP1 PUSH2 0x15A2 JUMP JUMPDEST SWAP2 POP POP PUSH2 0xDF6 JUMP JUMPDEST POP PUSH1 0x0 SWAP1 POP JUMPDEST SWAP3 SWAP2 POP POP JUMP JUMPDEST DUP3 DUP1 SLOAD DUP3 DUP3 SSTORE SWAP1 PUSH1 0x0 MSTORE PUSH1 0x20 PUSH1 0x0 KECCAK256 SWAP1 DUP2 ADD SWAP3 DUP3 ISZERO PUSH2 0xEEF JUMPI SWAP2 PUSH1 0x20 MUL DUP3 ADD JUMPDEST DUP3 DUP2 GT ISZERO PUSH2 0xEEE JUMPI DUP3 MLOAD DUP3 PUSH1 0x0 PUSH2 0x100 EXP DUP2 SLOAD DUP2 PUSH20 0xFFFFFFFFFFFFFFFFFFFFFFFFFFFFFFFFFFFFFFFF MUL NOT AND SWAP1 DUP4 PUSH20 0xFFFFFFFFFFFFFFFFFFFFFFFFFFFFFFFFFFFFFFFF AND MUL OR SWAP1 SSTORE POP SWAP2 PUSH1 0x20 ADD SWAP2 SWAP1 PUSH1 0x1 ADD SWAP1 PUSH2 0xE96 JUMP JUMPDEST JUMPDEST POP SWAP1 POP PUSH2 0xEFC SWAP2 SWAP1 PUSH2 0xF00 JUMP JUMPDEST POP SWAP1 JUMP JUMPDEST JUMPDEST DUP1 DUP3 GT ISZERO PUSH2 0xF19 JUMPI PUSH1 0x0 DUP2 PUSH1 0x0 SWAP1 SSTORE POP PUSH1 0x1 ADD PUSH2 0xF01 JUMP JUMPDEST POP SWAP1 JUMP JUMPDEST PUSH1 0x0 PUSH2 0xF30 PUSH2 0xF2B DUP5 PUSH2 0x14B3 JUMP JUMPDEST PUSH2 0x148E JUMP JUMPDEST SWAP1 POP DUP1 DUP4 DUP3 MSTORE PUSH1 0x20 DUP3 ADD SWAP1 POP DUP3 DUP6 PUSH1 0x20 DUP7 MUL DUP3 ADD GT ISZERO PUSH2 0xF53 JUMPI PUSH2 0xF52 PUSH2 0x167D JUMP JUMPDEST JUMPDEST PUSH1 0x0 JUMPDEST DUP6 DUP2 LT ISZERO PUSH2 0xF83 JUMPI DUP2 PUSH2 0xF69 DUP9 DUP3 PUSH2 0xF8D JUMP JUMPDEST DUP5 MSTORE PUSH1 0x20 DUP5 ADD SWAP4 POP PUSH1 0x20 DUP4 ADD SWAP3 POP POP PUSH1 0x1 DUP2 ADD SWAP1 POP PUSH2 0xF56 JUMP JUMPDEST POP POP POP SWAP4 SWAP3 POP POP POP JUMP JUMPDEST PUSH1 0x0 DUP2 CALLDATALOAD SWAP1 POP PUSH2 0xF9C DUP2 PUSH2 0x17DF JUMP JUMPDEST SWAP3 SWAP2 POP POP JUMP JUMPDEST PUSH1 0x0 DUP3 PUSH1 0x1F DUP4 ADD SLT PUSH2 0xFB7 JUMPI PUSH2 0xFB6 PUSH2 0x1678 JUMP JUMPDEST JUMPDEST DUP2 CALLDATALOAD PUSH2 0xFC7 DUP5 DUP3 PUSH1 0x20 DUP7 ADD PUSH2 0xF1D JUMP JUMPDEST SWAP2 POP POP SWAP3 SWAP2 POP POP JUMP JUMPDEST PUSH1 0x0 DUP2 MLOAD SWAP1 POP PUSH2 0xFDF DUP2 PUSH2 0x17F6 JUMP JUMPDEST SWAP3 SWAP2 POP POP JUMP JUMPDEST PUSH1 0x0 DUP2 CALLDATALOAD SWAP1 POP PUSH2 0xFF4 DUP2 PUSH2 0x180D JUMP JUMPDEST SWAP3 SWAP2 POP POP JUMP JUMPDEST PUSH1 0x0 DUP2 MLOAD SWAP1 POP PUSH2 0x1009 DUP2 PUSH2 0x180D JUMP JUMPDEST SWAP3 SWAP2 POP POP JUMP JUMPDEST PUSH1 0x0 PUSH1 0x20 DUP3 DUP5 SUB SLT ISZERO PUSH2 0x1025 JUMPI PUSH2 0x1024 PUSH2 0x1687 JUMP JUMPDEST JUMPDEST PUSH1 0x0 PUSH2 0x1033 DUP5 DUP3 DUP6 ADD PUSH2 0xF8D JUMP JUMPDEST SWAP2 POP POP SWAP3 SWAP2 POP POP JUMP JUMPDEST PUSH1 0x0 PUSH1 0x20 DUP3 DUP5 SUB SLT ISZERO PUSH2 0x1052 JUMPI PUSH2 0x1051 PUSH2 0x1687 JUMP JUMPDEST JUMPDEST PUSH1 0x0 PUSH2 0x1060 DUP5 DUP3 DUP6 ADD PUSH2 0xFD0 JUMP JUMPDEST SWAP2 POP POP SWAP3 SWAP2 POP POP JUMP JUMPDEST PUSH1 0x0 PUSH1 0x20 DUP3 DUP5 SUB SLT ISZERO PUSH2 0x107F JUMPI PUSH2 0x107E PUSH2 0x1687 JUMP JUMPDEST JUMPDEST PUSH1 0x0 PUSH2 0x108D DUP5 DUP3 DUP6 ADD PUSH2 0xFE5 JUMP JUMPDEST SWAP2 POP POP SWAP3 SWAP2 POP POP JUMP JUMPDEST PUSH1 0x0 PUSH1 0x20 DUP3 DUP5 SUB SLT ISZERO PUSH2 0x10AC JUMPI PUSH2 0x10AB PUSH2 0x1687 JUMP JUMPDEST JUMPDEST PUSH1 0x0 PUSH2 0x10BA DUP5 DUP3 DUP6 ADD PUSH2 0xFFA JUMP JUMPDEST SWAP2 POP POP SWAP3 SWAP2 POP POP JUMP JUMPDEST PUSH1 0x0 DUP1 PUSH1 0x0 PUSH1 0x60 DUP5 DUP7 SUB SLT ISZERO PUSH2 0x10DC JUMPI PUSH2 0x10DB PUSH2 0x1687 JUMP JUMPDEST JUMPDEST PUSH1 0x0 PUSH2 0x10EA DUP7 DUP3 DUP8 ADD PUSH2 0xFE5 JUMP JUMPDEST SWAP4 POP POP PUSH1 0x20 PUSH2 0x10FB DUP7 DUP3 DUP8 ADD PUSH2 0xF8D JUMP JUMPDEST SWAP3 POP POP PUSH1 0x40 DUP5 ADD CALLDATALOAD PUSH8 0xFFFFFFFFFFFFFFFF DUP2 GT ISZERO PUSH2 0x111C JUMPI PUSH2 0x111B PUSH2 0x1682 JUMP JUMPDEST JUMPDEST PUSH2 0x1128 DUP7 DUP3 DUP8 ADD PUSH2 0xFA2 JUMP JUMPDEST SWAP2 POP POP SWAP3 POP SWAP3 POP SWAP3 JUMP JUMPDEST PUSH1 0x0 PUSH2 0x113E DUP4 DUP4 PUSH2 0x114A JUMP JUMPDEST PUSH1 0x20 DUP4 ADD SWAP1 POP SWAP3 SWAP2 POP POP JUMP JUMPDEST PUSH2 0x1153 DUP2 PUSH2 0x1529 JUMP JUMPDEST DUP3 MSTORE POP POP JUMP JUMPDEST PUSH2 0x1162 DUP2 PUSH2 0x1529 JUMP JUMPDEST DUP3 MSTORE POP POP JUMP JUMPDEST PUSH1 0x0 PUSH2 0x1173 DUP3 PUSH2 0x14EF JUMP JUMPDEST PUSH2 0x117D DUP2 DUP6 PUSH2 0x1507 JUMP JUMPDEST SWAP4 POP PUSH2 0x1188 DUP4 PUSH2 0x14DF JUMP JUMPDEST DUP1 PUSH1 0x0 JUMPDEST DUP4 DUP2 LT ISZERO PUSH2 0x11B9 JUMPI DUP2 MLOAD PUSH2 0x11A0 DUP9 DUP3 PUSH2 0x1132 JUMP JUMPDEST SWAP8 POP PUSH2 0x11AB DUP4 PUSH2 0x14FA JUMP JUMPDEST SWAP3 POP POP PUSH1 0x1 DUP2 ADD SWAP1 POP PUSH2 0x118C JUMP JUMPDEST POP DUP6 SWAP4 POP POP POP POP SWAP3 SWAP2 POP POP JUMP JUMPDEST PUSH2 0x11CF DUP2 PUSH2 0x153B JUMP JUMPDEST DUP3 MSTORE POP POP JUMP JUMPDEST PUSH1 0x0 PUSH2 0x11E2 PUSH1 0x16 DUP4 PUSH2 0x1518 JUMP JUMPDEST SWAP2 POP PUSH2 0x11ED DUP3 PUSH2 0x169D JUMP JUMPDEST PUSH1 0x20 DUP3 ADD SWAP1 POP SWAP2 SWAP1 POP JUMP JUMPDEST PUSH1 0x0 PUSH2 0x1205 PUSH1 0x26 DUP4 PUSH2 0x1518 JUMP JUMPDEST SWAP2 POP PUSH2 0x1210 DUP3 PUSH2 0x16C6 JUMP JUMPDEST PUSH1 0x40 DUP3 ADD SWAP1 POP SWAP2 SWAP1 POP JUMP JUMPDEST PUSH1 0x0 PUSH2 0x1228 PUSH1 0x18 DUP4 PUSH2 0x1518 JUMP JUMPDEST SWAP2 POP PUSH2 0x1233 DUP3 PUSH2 0x1715 JUMP JUMPDEST PUSH1 0x20 DUP3 ADD SWAP1 POP SWAP2 SWAP1 POP JUMP JUMPDEST PUSH1 0x0 PUSH2 0x124B PUSH1 0x1E DUP4 PUSH2 0x1518 JUMP JUMPDEST SWAP2 POP PUSH2 0x1256 DUP3 PUSH2 0x173E JUMP JUMPDEST PUSH1 0x20 DUP3 ADD SWAP1 POP SWAP2 SWAP1 POP JUMP JUMPDEST PUSH1 0x0 PUSH2 0x126E PUSH1 0x23 DUP4 PUSH2 0x1518 JUMP JUMPDEST SWAP2 POP PUSH2 0x1279 DUP3 PUSH2 0x1767 JUMP JUMPDEST PUSH1 0x40 DUP3 ADD SWAP1 POP SWAP2 SWAP1 POP JUMP JUMPDEST PUSH1 0x0 PUSH2 0x1291 PUSH1 0x16 DUP4 PUSH2 0x1518 JUMP JUMPDEST SWAP2 POP PUSH2 0x129C DUP3 PUSH2 0x17B6 JUMP JUMPDEST PUSH1 0x20 DUP3 ADD SWAP1 POP SWAP2 SWAP1 POP JUMP JUMPDEST PUSH2 0x12B0 DUP2 PUSH2 0x1567 JUMP JUMPDEST DUP3 MSTORE POP POP JUMP JUMPDEST PUSH1 0x0 PUSH1 0x20 DUP3 ADD SWAP1 POP PUSH2 0x12CB PUSH1 0x0 DUP4 ADD DUP5 PUSH2 0x1159 JUMP JUMPDEST SWAP3 SWAP2 POP POP JUMP JUMPDEST PUSH1 0x0 PUSH1 0x60 DUP3 ADD SWAP1 POP PUSH2 0x12E6 PUSH1 0x0 DUP4 ADD DUP7 PUSH2 0x1159 JUMP JUMPDEST PUSH2 0x12F3 PUSH1 0x20 DUP4 ADD DUP6 PUSH2 0x1159 JUMP JUMPDEST PUSH2 0x1300 PUSH1 0x40 DUP4 ADD DUP5 PUSH2 0x12A7 JUMP JUMPDEST SWAP5 SWAP4 POP POP POP POP JUMP JUMPDEST PUSH1 0x0 PUSH1 0x40 DUP3 ADD SWAP1 POP PUSH2 0x131D PUSH1 0x0 DUP4 ADD DUP6 PUSH2 0x1159 JUMP JUMPDEST PUSH2 0x132A PUSH1 0x20 DUP4 ADD DUP5 PUSH2 0x12A7 JUMP JUMPDEST SWAP4 SWAP3 POP POP POP JUMP JUMPDEST PUSH1 0x0 PUSH1 0x20 DUP3 ADD SWAP1 POP DUP2 DUP2 SUB PUSH1 0x0 DUP4 ADD MSTORE PUSH2 0x134B DUP2 DUP5 PUSH2 0x1168 JUMP JUMPDEST SWAP1 POP SWAP3 SWAP2 POP POP JUMP JUMPDEST PUSH1 0x0 PUSH1 0x20 DUP3 ADD SWAP1 POP PUSH2 0x1368 PUSH1 0x0 DUP4 ADD DUP5 PUSH2 0x11C6 JUMP JUMPDEST SWAP3 SWAP2 POP POP JUMP JUMPDEST PUSH1 0x0 PUSH1 0x20 DUP3 ADD SWAP1 POP DUP2 DUP2 SUB PUSH1 0x0 DUP4 ADD MSTORE PUSH2 0x1387 DUP2 PUSH2 0x11D5 JUMP JUMPDEST SWAP1 POP SWAP2 SWAP1 POP JUMP JUMPDEST PUSH1 0x0 PUSH1 0x20 DUP3 ADD SWAP1 POP DUP2 DUP2 SUB PUSH1 0x0 DUP4 ADD MSTORE PUSH2 0x13A7 DUP2 PUSH2 0x11F8 JUMP JUMPDEST SWAP1 POP SWAP2 SWAP1 POP JUMP JUMPDEST PUSH1 0x0 PUSH1 0x20 DUP3 ADD SWAP1 POP DUP2 DUP2 SUB PUSH1 0x0 DUP4 ADD MSTORE PUSH2 0x13C7 DUP2 PUSH2 0x121B JUMP JUMPDEST SWAP1 POP SWAP2 SWAP1 POP JUMP JUMPDEST PUSH1 0x0 PUSH1 0x20 DUP3 ADD SWAP1 POP DUP2 DUP2 SUB PUSH1 0x0 DUP4 ADD MSTORE PUSH2 0x13E7 DUP2 PUSH2 0x123E JUMP JUMPDEST SWAP1 POP SWAP2 SWAP1 POP JUMP JUMPDEST PUSH1 0x0 PUSH1 0x20 DUP3 ADD SWAP1 POP DUP2 DUP2 SUB PUSH1 0x0 DUP4 ADD MSTORE PUSH2 0x1407 DUP2 PUSH2 0x1261 JUMP JUMPDEST SWAP1 POP SWAP2 SWAP1 POP JUMP JUMPDEST PUSH1 0x0 PUSH1 0x20 DUP3 ADD SWAP1 POP DUP2 DUP2 SUB PUSH1 0x0 DUP4 ADD MSTORE PUSH2 0x1427 DUP2 PUSH2 0x1284 JUMP JUMPDEST SWAP1 POP SWAP2 SWAP1 POP JUMP JUMPDEST PUSH1 0x0 PUSH1 0x20 DUP3 ADD SWAP1 POP PUSH2 0x1443 PUSH1 0x0 DUP4 ADD DUP5 PUSH2 0x12A7 JUMP JUMPDEST SWAP3 SWAP2 POP POP JUMP JUMPDEST PUSH1 0x0 PUSH1 0x80 DUP3 ADD SWAP1 POP PUSH2 0x145E PUSH1 0x0 DUP4 ADD DUP8 PUSH2 0x12A7 JUMP JUMPDEST PUSH2 0x146B PUSH1 0x20 DUP4 ADD DUP7 PUSH2 0x1159 JUMP JUMPDEST PUSH2 0x1478 PUSH1 0x40 DUP4 ADD DUP6 PUSH2 0x1159 JUMP JUMPDEST PUSH2 0x1485 PUSH1 0x60 DUP4 ADD DUP5 PUSH2 0x12A7 JUMP JUMPDEST SWAP6 SWAP5 POP POP POP POP POP JUMP JUMPDEST PUSH1 0x0 PUSH2 0x1498 PUSH2 0x14A9 JUMP JUMPDEST SWAP1 POP PUSH2 0x14A4 DUP3 DUP3 PUSH2 0x1571 JUMP JUMPDEST SWAP2 SWAP1 POP JUMP JUMPDEST PUSH1 0x0 PUSH1 0x40 MLOAD SWAP1 POP SWAP1 JUMP JUMPDEST PUSH1 0x0 PUSH8 0xFFFFFFFFFFFFFFFF DUP3 GT ISZERO PUSH2 0x14CE JUMPI PUSH2 0x14CD PUSH2 0x1649 JUMP JUMPDEST JUMPDEST PUSH1 0x20 DUP3 MUL SWAP1 POP PUSH1 0x20 DUP2 ADD SWAP1 POP SWAP2 SWAP1 POP JUMP JUMPDEST PUSH1 0x0 DUP2 SWAP1 POP PUSH1 0x20 DUP3 ADD SWAP1 POP SWAP2 SWAP1 POP JUMP JUMPDEST PUSH1 0x0 DUP2 MLOAD SWAP1 POP SWAP2 SWAP1 POP JUMP JUMPDEST PUSH1 0x0 PUSH1 0x20 DUP3 ADD SWAP1 POP SWAP2 SWAP1 POP JUMP JUMPDEST PUSH1 0x0 DUP3 DUP3 MSTORE PUSH1 0x20 DUP3 ADD SWAP1 POP SWAP3 SWAP2 POP POP JUMP JUMPDEST PUSH1 0x0 DUP3 DUP3 MSTORE PUSH1 0x20 DUP3 ADD SWAP1 POP SWAP3 SWAP2 POP POP JUMP JUMPDEST PUSH1 0x0 PUSH2 0x1534 DUP3 PUSH2 0x1547 JUMP JUMPDEST SWAP1 POP SWAP2 SWAP1 POP JUMP JUMPDEST PUSH1 0x0 DUP2 ISZERO ISZERO SWAP1 POP SWAP2 SWAP1 POP JUMP JUMPDEST PUSH1 0x0 PUSH20 0xFFFFFFFFFFFFFFFFFFFFFFFFFFFFFFFFFFFFFFFF DUP3 AND SWAP1 POP SWAP2 SWAP1 POP JUMP JUMPDEST PUSH1 0x0 DUP2 SWAP1 POP SWAP2 SWAP1 POP JUMP JUMPDEST PUSH2 0x157A DUP3 PUSH2 0x168C JUMP JUMPDEST DUP2 ADD DUP2 DUP2 LT PUSH8 0xFFFFFFFFFFFFFFFF DUP3 GT OR ISZERO PUSH2 0x1599 JUMPI PUSH2 0x1598 PUSH2 0x1649 JUMP JUMPDEST JUMPDEST DUP1 PUSH1 0x40 MSTORE POP POP POP JUMP JUMPDEST PUSH1 0x0 PUSH2 0x15AD DUP3 PUSH2 0x1567 JUMP JUMPDEST SWAP2 POP PUSH32 0xFFFFFFFFFFFFFFFFFFFFFFFFFFFFFFFFFFFFFFFFFFFFFFFFFFFFFFFFFFFFFFFF DUP3 EQ ISZERO PUSH2 0x15E0 JUMPI PUSH2 0x15DF PUSH2 0x15EB JUMP JUMPDEST JUMPDEST PUSH1 0x1 DUP3 ADD SWAP1 POP SWAP2 SWAP1 POP JUMP JUMPDEST PUSH32 0x4E487B7100000000000000000000000000000000000000000000000000000000 PUSH1 0x0 MSTORE PUSH1 0x11 PUSH1 0x4 MSTORE PUSH1 0x24 PUSH1 0x0 REVERT JUMPDEST PUSH32 0x4E487B7100000000000000000000000000000000000000000000000000000000 PUSH1 0x0 MSTORE PUSH1 0x32 PUSH1 0x4 MSTORE PUSH1 0x24 PUSH1 0x0 REVERT JUMPDEST PUSH32 0x4E487B7100000000000000000000000000000000000000000000000000000000 PUSH1 0x0 MSTORE PUSH1 0x41 PUSH1 0x4 MSTORE PUSH1 0x24 PUSH1 0x0 REVERT JUMPDEST PUSH1 0x0 DUP1 REVERT JUMPDEST PUSH1 0x0 DUP1 REVERT JUMPDEST PUSH1 0x0 DUP1 REVERT JUMPDEST PUSH1 0x0 DUP1 REVERT JUMPDEST PUSH1 0x0 PUSH1 0x1F NOT PUSH1 0x1F DUP4 ADD AND SWAP1 POP SWAP2 SWAP1 POP JUMP JUMPDEST PUSH32 0x416D6D6F756E742063616E6E6F74206265205A65726F00000000000000000000 PUSH1 0x0 DUP3 ADD MSTORE POP JUMP JUMPDEST PUSH32 0x416D6F756E74206F6620746F6B656E20746F2073656C6C2063616E6E6F742062 PUSH1 0x0 DUP3 ADD MSTORE PUSH32 0x65207A65726F0000000000000000000000000000000000000000000000000000 PUSH1 0x20 DUP3 ADD MSTORE POP JUMP JUMPDEST PUSH32 0x4E6F206D61746368696E6720757365727320666F756E642E0000000000000000 PUSH1 0x0 DUP3 ADD MSTORE POP JUMP JUMPDEST PUSH32 0x546F6B656E2041646472657373206973206E6F7420547261646561626C650000 PUSH1 0x0 DUP3 ADD MSTORE POP JUMP JUMPDEST PUSH32 0x536F6D65206F6620796F757220546F6B656E206973206E6F7420547261646561 PUSH1 0x0 DUP3 ADD MSTORE PUSH32 0x626C650000000000000000000000000000000000000000000000000000000000 PUSH1 0x20 DUP3 ADD MSTORE POP JUMP JUMPDEST PUSH32 0x4E6F742074686520636F6E7472616374204F776E657200000000000000000000 PUSH1 0x0 DUP3 ADD MSTORE POP JUMP JUMPDEST PUSH2 0x17E8 DUP2 PUSH2 0x1529 JUMP JUMPDEST DUP2 EQ PUSH2 0x17F3 JUMPI PUSH1 0x0 DUP1 REVERT JUMPDEST POP JUMP JUMPDEST PUSH2 0x17FF DUP2 PUSH2 0x153B JUMP JUMPDEST DUP2 EQ PUSH2 0x180A JUMPI PUSH1 0x0 DUP1 REVERT JUMPDEST POP JUMP JUMPDEST PUSH2 0x1816 DUP2 PUSH2 0x1567 JUMP JUMPDEST DUP2 EQ PUSH2 0x1821 JUMPI PUSH1 0x0 DUP1 REVERT JUMPDEST POP JUMP INVALID LOG2 PUSH5 0x6970667358 0x22 SLT KECCAK256 0x4A ADD LOG4 ISZERO DUP1 PUSH7 0x9920270C51A81E PC 0xEF CALLER PUSH20 0xB3B3A584742D04C4101D1F55A0E32664736F6C63 NUMBER STOP ADDMOD SMOD STOP CALLER "
				},
				"gasEstimates": {
					"creation": {
						"codeDepositCost": "1246800",
						"executionCost": "25561",
						"totalCost": "1272361"
					},
					"external": {
						"ID()": "2451",
						"Seller(uint256)": "infinite",
						"SellerIndex(address)": "2903",
						"SellersLists(uint256)": "infinite",
						"buy(address)": "infinite",
						"contractOwner()": "2558",
						"getAllMatchingUsers(address)": "infinite",
						"getUsersWithMatchingDesiredTokens(address)": "infinite",
						"isTokenTradeable(address)": "2912",
						"makeTradeableToken(address)": "27092",
						"seller(uint256,address,address[])": "infinite"
					},
					"internal": {
						"checkIfTradeable(address[] memory)": "infinite",
						"contains(address[] memory,address)": "infinite"
					}
				},
				"methodIdentifiers": {
					"ID()": "b3cea217",
					"Seller(uint256)": "e57fbf13",
					"SellerIndex(address)": "95527eae",
					"SellersLists(uint256)": "53da1d8c",
					"buy(address)": "f088d547",
					"contractOwner()": "ce606ee0",
					"getAllMatchingUsers(address)": "96ad3d60",
					"getUsersWithMatchingDesiredTokens(address)": "392b93c6",
					"isTokenTradeable(address)": "6f89ed57",
					"makeTradeableToken(address)": "f8a5e83f",
					"seller(uint256,address,address[])": "14f2d649"
				}
			},
			"storageLayout": {
				"storage": [
					{
						"astId": 717,
						"contract": "Benz-Swap/core/P2PExchange.sol:P2PExchange",
						"label": "ID",
						"offset": 0,
						"slot": "0",
						"type": "t_uint256"
					},
					{
						"astId": 719,
						"contract": "Benz-Swap/core/P2PExchange.sol:P2PExchange",
						"label": "contractOwner",
						"offset": 0,
						"slot": "1",
						"type": "t_address"
					},
					{
						"astId": 721,
						"contract": "Benz-Swap/core/P2PExchange.sol:P2PExchange",
						"label": "buyer",
						"offset": 0,
						"slot": "2",
						"type": "t_address"
					},
					{
						"astId": 724,
						"contract": "Benz-Swap/core/P2PExchange.sol:P2PExchange",
						"label": "TradeableTokenAddress",
						"offset": 0,
						"slot": "3",
						"type": "t_array(t_address)dyn_storage"
					},
					{
						"astId": 728,
						"contract": "Benz-Swap/core/P2PExchange.sol:P2PExchange",
						"label": "isTokenTradeable",
						"offset": 0,
						"slot": "4",
						"type": "t_mapping(t_address,t_bool)"
					},
					{
						"astId": 732,
						"contract": "Benz-Swap/core/P2PExchange.sol:P2PExchange",
						"label": "SellerIndex",
						"offset": 0,
						"slot": "5",
						"type": "t_mapping(t_address,t_uint256)"
					},
					{
						"astId": 749,
						"contract": "Benz-Swap/core/P2PExchange.sol:P2PExchange",
						"label": "Seller",
						"offset": 0,
						"slot": "6",
						"type": "t_mapping(t_uint256,t_struct(Listing)744_storage)"
					},
					{
						"astId": 753,
						"contract": "Benz-Swap/core/P2PExchange.sol:P2PExchange",
						"label": "SellersLists",
						"offset": 0,
						"slot": "7",
						"type": "t_array(t_struct(Listing)744_storage)dyn_storage"
					}
				],
				"types": {
					"t_address": {
						"encoding": "inplace",
						"label": "address",
						"numberOfBytes": "20"
					},
					"t_array(t_address)dyn_storage": {
						"base": "t_address",
						"encoding": "dynamic_array",
						"label": "address[]",
						"numberOfBytes": "32"
					},
					"t_array(t_struct(Listing)744_storage)dyn_storage": {
						"base": "t_struct(Listing)744_storage",
						"encoding": "dynamic_array",
						"label": "struct P2PExchange.Listing[]",
						"numberOfBytes": "32"
					},
					"t_bool": {
						"encoding": "inplace",
						"label": "bool",
						"numberOfBytes": "1"
					},
					"t_mapping(t_address,t_bool)": {
						"encoding": "mapping",
						"key": "t_address",
						"label": "mapping(address => bool)",
						"numberOfBytes": "32",
						"value": "t_bool"
					},
					"t_mapping(t_address,t_uint256)": {
						"encoding": "mapping",
						"key": "t_address",
						"label": "mapping(address => uint256)",
						"numberOfBytes": "32",
						"value": "t_uint256"
					},
					"t_mapping(t_uint256,t_struct(Listing)744_storage)": {
						"encoding": "mapping",
						"key": "t_uint256",
						"label": "mapping(uint256 => struct P2PExchange.Listing)",
						"numberOfBytes": "32",
						"value": "t_struct(Listing)744_storage"
					},
					"t_struct(Listing)744_storage": {
						"encoding": "inplace",
						"label": "struct P2PExchange.Listing",
						"members": [
							{
								"astId": 734,
								"contract": "Benz-Swap/core/P2PExchange.sol:P2PExchange",
								"label": "userID",
								"offset": 0,
								"slot": "0",
								"type": "t_uint256"
							},
							{
								"astId": 736,
								"contract": "Benz-Swap/core/P2PExchange.sol:P2PExchange",
								"label": "userAddress",
								"offset": 0,
								"slot": "1",
								"type": "t_address"
							},
							{
								"astId": 738,
								"contract": "Benz-Swap/core/P2PExchange.sol:P2PExchange",
								"label": "tokenToTransfer",
								"offset": 0,
								"slot": "2",
								"type": "t_address"
							},
							{
								"astId": 740,
								"contract": "Benz-Swap/core/P2PExchange.sol:P2PExchange",
								"label": "amountToTransfer",
								"offset": 0,
								"slot": "3",
								"type": "t_uint256"
							},
							{
								"astId": 743,
								"contract": "Benz-Swap/core/P2PExchange.sol:P2PExchange",
								"label": "tokensDesired",
								"offset": 0,
								"slot": "4",
								"type": "t_array(t_address)dyn_storage"
							}
						],
						"numberOfBytes": "160"
					},
					"t_uint256": {
						"encoding": "inplace",
						"label": "uint256",
						"numberOfBytes": "32"
					}
				}
			},
			"userdoc": {
				"kind": "user",
				"methods": {},
				"version": 1
			}
		}
	}
}