{
	"data": {
		"bytecode": {
			"linkReferences": {
				"remix_accounts.sol": {
					"TestsAccounts": [
						{
							"length": 20,
							"start": 678
						},
						{
							"length": 20,
							"start": 1294
						}
					]
				},
				"remix_tests.sol": {
					"Assert": [
						{
							"length": 20,
							"start": 285
						},
						{
							"length": 20,
							"start": 412
						},
						{
							"length": 20,
							"start": 540
						},
						{
							"length": 20,
							"start": 1267
						},
						{
							"length": 20,
							"start": 1516
						},
						{
							"length": 20,
							"start": 1839
						},
						{
							"length": 20,
							"start": 2142
						}
					]
				}
			},
			"object": "608060405234801561000f575f80fd5b506198eb8061001d5f395ff3fe6080604052600436106200005b575f3560e01c8063011e6492146200005f57806312d487ea14620000785780636331e7d414620000a75780639074416d14620000c0578063c71daccb14620000cc578063faa5149d14620000e5575b5f80fd5b3480156200006b575f80fd5b5062000076620000fe565b005b34801562000084575f80fd5b506200008f6200027f565b6040516200009e919062000907565b60405180910390f35b348015620000b3575f80fd5b50620000be62000287565b005b620000ca620004d4565b005b348015620000d8575f80fd5b50620000e36200064e565b005b348015620000f1575f80fd5b50620000fc62000792565b005b73__$acbfb1c35000d78352310b16a054a6b106$__6339df137f600280146040518263ffffffff1660e01b81526004016200013a919062000991565b602060405180830381865af415801562000156573d5f803e3d5ffd5b505050506040513d601f19601f820116820180604052508101906200017c9190620009f4565b5073__$acbfb1c35000d78352310b16a054a6b106$__63a079f1a3600260016040518363ffffffff1660e01b8152600401620001ba92919062000a8c565b602060405180830381865af4158015620001d6573d5f803e3d5ffd5b505050506040513d601f19601f82011682018060405250810190620001fc9190620009f4565b5073__$acbfb1c35000d78352310b16a054a6b106$__63aea88952600260036040518363ffffffff1660e01b81526004016200023a92919062000b1a565b602060405180830381865af415801562000256573d5f803e3d5ffd5b505050506040513d601f19601f820116820180604052508101906200027c9190620009f4565b50565b5f6001905090565b73__$1068a87eb54ed04c4e435de35b2ebf536f$__63ce88b1455f6040518263ffffffff1660e01b8152600401620002c0919062000ba4565b602060405180830381865af4158015620002dc573d5f803e3d5ffd5b505050506040513d601f19601f8201168201806040525081019062000302919062000c20565b60035f6101000a81548173ffffffffffffffffffffffffffffffffffffffff021916908373ffffffffffffffffffffffffffffffffffffffff1602179055506040516200034f90620008c1565b6200035a9062000cfc565b604051809103905ff08015801562000374573d5f803e3d5ffd5b505f806101000a81548173ffffffffffffffffffffffffffffffffffffffff021916908373ffffffffffffffffffffffffffffffffffffffff16021790555073bde89c550cae3595792a3d9cd2a7cfab3267cb6e604051620003d690620008cf565b620003e2919062000d8f565b604051809103905ff080158015620003fc573d5f803e3d5ffd5b5060015f6101000a81548173ffffffffffffffffffffffffffffffffffffffff021916908373ffffffffffffffffffffffffffffffffffffffff16021790555060015f9054906101000a900473ffffffffffffffffffffffffffffffffffffffff166040516200046c90620008dd565b62000478919062000dbb565b604051809103905ff08015801562000492573d5f803e3d5ffd5b5060025f6101000a81548173ffffffffffffffffffffffffffffffffffffffff021916908373ffffffffffffffffffffffffffffffffffffffff160217905550565b73__$acbfb1c35000d78352310b16a054a6b106$__63bfba5dd63373__$1068a87eb54ed04c4e435de35b2ebf536f$__63ce88b14560016040518263ffffffff1660e01b815260040162000529919062000e17565b602060405180830381865af415801562000545573d5f803e3d5ffd5b505050506040513d601f19601f820116820180604052508101906200056b919062000c20565b6040518363ffffffff1660e01b81526004016200058a92919062000e91565b602060405180830381865af4158015620005a6573d5f803e3d5ffd5b505050506040513d601f19601f82011682018060405250810190620005cc9190620009f4565b5073__$acbfb1c35000d78352310b16a054a6b106$__63abcd79603460646040518363ffffffff1660e01b81526004016200060992919062000f60565b602060405180830381865af415801562000625573d5f803e3d5ffd5b505050506040513d601f19601f820116820180604052508101906200064b9190620009f4565b50565b5f805f9054906101000a900473ffffffffffffffffffffffffffffffffffffffff1673ffffffffffffffffffffffffffffffffffffffff166370a0823160035f9054906101000a900473ffffffffffffffffffffffffffffffffffffffff166040518263ffffffff1660e01b8152600401620006cb919062000dbb565b602060405180830381865afa158015620006e7573d5f803e3d5ffd5b505050506040513d601f19601f820116820180604052508101906200070d919062000fcf565b90505f73__$acbfb1c35000d78352310b16a054a6b106$__63abcd796083836040518363ffffffff1660e01b81526004016200074b92919062001073565b602060405180830381865af415801562000767573d5f803e3d5ffd5b505050506040513d601f19601f820116820180604052508101906200078d9190620009f4565b505050565b5f805f9054906101000a900473ffffffffffffffffffffffffffffffffffffffff1673ffffffffffffffffffffffffffffffffffffffff166364614c7160026040518263ffffffff1660e01b8152600401620007ef9190620010f4565b602060405180830381865afa1580156200080b573d5f803e3d5ffd5b505050506040513d601f19601f8201168201806040525081019062000831919062000fcf565b90505f671bc16d674ec80000905073__$acbfb1c35000d78352310b16a054a6b106$__63abcd796083836040518363ffffffff1660e01b81526004016200087a9291906200115d565b602060405180830381865af415801562000896573d5f803e3d5ffd5b505050506040513d601f19601f82011682018060405250810190620008bc9190620009f4565b505050565b612158806200119e83390190565b610f6280620032f683390190565b61565e806200425883390190565b5f8115159050919050565b6200090181620008eb565b82525050565b5f6020820190506200091c5f830184620008f6565b92915050565b6200092d81620008eb565b82525050565b5f82825260208201905092915050565b7f73686f756c6420626520747275650000000000000000000000000000000000005f82015250565b5f62000979600e8362000933565b9150620009868262000943565b602082019050919050565b5f604082019050620009a65f83018462000922565b8181036020830152620009b9816200096b565b905092915050565b5f80fd5b620009d081620008eb565b8114620009db575f80fd5b50565b5f81519050620009ee81620009c5565b92915050565b5f6020828403121562000a0c5762000a0b620009c1565b5b5f62000a1b84828501620009de565b91505092915050565b5f819050919050565b62000a388162000a24565b82525050565b7f322073686f756c642062652067726561746572207468616e20746f20310000005f82015250565b5f62000a74601d8362000933565b915062000a818262000a3e565b602082019050919050565b5f60608201905062000aa15f83018562000a2d565b62000ab0602083018462000a2d565b818103604083015262000ac38162000a66565b90509392505050565b7f322073686f756c64206265206c6573736572207468616e20746f2033000000005f82015250565b5f62000b02601c8362000933565b915062000b0f8262000acc565b602082019050919050565b5f60608201905062000b2f5f83018562000a2d565b62000b3e602083018462000a2d565b818103604083015262000b518162000af4565b90509392505050565b5f819050919050565b5f819050919050565b5f62000b8c62000b8662000b808462000b5a565b62000b63565b62000a24565b9050919050565b62000b9e8162000b6c565b82525050565b5f60208201905062000bb95f83018462000b93565b92915050565b5f73ffffffffffffffffffffffffffffffffffffffff82169050919050565b5f62000bea8262000bbf565b9050919050565b62000bfc8162000bde565b811462000c07575f80fd5b50565b5f8151905062000c1a8162000bf1565b92915050565b5f6020828403121562000c385762000c37620009c1565b5b5f62000c478482850162000c0a565b91505092915050565b5f82825260208201905092915050565b7f544553542d544f4b454e000000000000000000000000000000000000000000005f82015250565b5f62000c96600a8362000c50565b915062000ca38262000c60565b602082019050919050565b7f54535400000000000000000000000000000000000000000000000000000000005f82015250565b5f62000ce460038362000c50565b915062000cf18262000cae565b602082019050919050565b5f6040820190508181035f83015262000d158162000c88565b9050818103602083015262000d2a8162000cd6565b9050919050565b5f62000d5162000d4b62000d458462000bbf565b62000b63565b62000bbf565b9050919050565b5f62000d648262000d31565b9050919050565b5f62000d778262000d58565b9050919050565b62000d898162000d6b565b82525050565b5f60208201905062000da45f83018462000d7e565b92915050565b62000db58162000bde565b82525050565b5f60208201905062000dd05f83018462000daa565b92915050565b5f819050919050565b5f62000dff62000df962000df38462000dd6565b62000b63565b62000a24565b9050919050565b62000e118162000ddf565b82525050565b5f60208201905062000e2c5f83018462000e06565b92915050565b62000e3d8162000bde565b82525050565b7f496e76616c69642073656e6465720000000000000000000000000000000000005f82015250565b5f62000e79600e8362000933565b915062000e868262000e43565b602082019050919050565b5f60608201905062000ea65f83018562000e32565b62000eb5602083018462000e32565b818103604083015262000ec88162000e6b565b90509392505050565b5f819050919050565b5f62000efa62000ef462000eee8462000ed1565b62000b63565b62000a24565b9050919050565b62000f0c8162000eda565b82525050565b7f496e76616c69642076616c7565000000000000000000000000000000000000005f82015250565b5f62000f48600d8362000933565b915062000f558262000f12565b602082019050919050565b5f60608201905062000f755f83018562000a2d565b62000f84602083018462000f01565b818103604083015262000f978162000f3a565b90509392505050565b62000fab8162000a24565b811462000fb6575f80fd5b50565b5f8151905062000fc98162000fa0565b92915050565b5f6020828403121562000fe75762000fe6620009c1565b5b5f62000ff68482850162000fb9565b91505092915050565b7f546f6b656e2062616c616e636520646f6573206e6f74206d61746368206578705f8201527f65637465642062616c616e636500000000000000000000000000000000000000602082015250565b5f6200105b602d8362000933565b9150620010688262000fff565b604082019050919050565b5f606082019050620010885f83018562000a2d565b62001097602083018462000a2d565b8181036040830152620010aa816200104d565b90509392505050565b5f819050919050565b5f620010dc620010d6620010d084620010b3565b62000b63565b62000a24565b9050919050565b620010ee81620010bc565b82525050565b5f602082019050620011095f830184620010e3565b92915050565b7f56616c756520696e20776569206973206e6f74206173206578706563746564005f82015250565b5f62001145601f8362000933565b915062001152826200110f565b602082019050919050565b5f606082019050620011725f83018562000a2d565b62001181602083018462000a2d565b8181036040830152620011948162001137565b9050939250505056fe608060405262000017612710620000ca60201b60201c565b60055534801562000026575f80fd5b50604051620021583803806200215883398181016040528101906200004c9190620003f9565b818181600390816200005f9190620006b3565b508060049081620000719190620006b3565b5050506200009b336200008f640ba43b7400620000ca60201b60201c565b620000fd60201b60201c565b620000c230620000b6640ba43b7400620000ca60201b60201c565b620000fd60201b60201c565b505062000a9e565b5f620000db6200026260201b60201c565b600a620000e9919062000920565b82620000f6919062000970565b9050919050565b5f73ffffffffffffffffffffffffffffffffffffffff168273ffffffffffffffffffffffffffffffffffffffff16036200016e576040517f08c379a0000000000000000000000000000000000000000000000000000000008152600401620001659062000a18565b60405180910390fd5b620001815f83836200026a60201b60201c565b8060025f82825462000194919062000a38565b92505081905550805f808473ffffffffffffffffffffffffffffffffffffffff1673ffffffffffffffffffffffffffffffffffffffff1681526020019081526020015f205f82825401925050819055508173ffffffffffffffffffffffffffffffffffffffff165f73ffffffffffffffffffffffffffffffffffffffff167fddf252ad1be2c89b69c2b068fc378daa952ba7f163c4a11628f55a4df523b3ef8360405162000243919062000a83565b60405180910390a36200025e5f83836200026f60201b60201c565b5050565b5f6012905090565b505050565b505050565b5f604051905090565b5f80fd5b5f80fd5b5f80fd5b5f80fd5b5f601f19601f8301169050919050565b7f4e487b71000000000000000000000000000000000000000000000000000000005f52604160045260245ffd5b620002d5826200028d565b810181811067ffffffffffffffff82111715620002f757620002f66200029d565b5b80604052505050565b5f6200030b62000274565b9050620003198282620002ca565b919050565b5f67ffffffffffffffff8211156200033b576200033a6200029d565b5b62000346826200028d565b9050602081019050919050565b5f5b838110156200037257808201518184015260208101905062000355565b5f8484015250505050565b5f620003936200038d846200031e565b62000300565b905082815260208101848484011115620003b257620003b162000289565b5b620003bf84828562000353565b509392505050565b5f82601f830112620003de57620003dd62000285565b5b8151620003f08482602086016200037d565b91505092915050565b5f80604083850312156200041257620004116200027d565b5b5f83015167ffffffffffffffff81111562000432576200043162000281565b5b6200044085828601620003c7565b925050602083015167ffffffffffffffff81111562000464576200046362000281565b5b6200047285828601620003c7565b9150509250929050565b5f81519050919050565b7f4e487b71000000000000000000000000000000000000000000000000000000005f52602260045260245ffd5b5f6002820490506001821680620004cb57607f821691505b602082108103620004e157620004e062000486565b5b50919050565b5f819050815f5260205f209050919050565b5f6020601f8301049050919050565b5f82821b905092915050565b5f60088302620005457fffffffffffffffffffffffffffffffffffffffffffffffffffffffffffffffff8262000508565b62000551868362000508565b95508019841693508086168417925050509392505050565b5f819050919050565b5f819050919050565b5f6200059b620005956200058f8462000569565b62000572565b62000569565b9050919050565b5f819050919050565b620005b6836200057b565b620005ce620005c582620005a2565b84845462000514565b825550505050565b5f90565b620005e4620005d6565b620005f1818484620005ab565b505050565b5b8181101562000618576200060c5f82620005da565b600181019050620005f7565b5050565b601f82111562000667576200063181620004e7565b6200063c84620004f9565b810160208510156200064c578190505b620006646200065b85620004f9565b830182620005f6565b50505b505050565b5f82821c905092915050565b5f620006895f19846008026200066c565b1980831691505092915050565b5f620006a3838362000678565b9150826002028217905092915050565b620006be826200047c565b67ffffffffffffffff811115620006da57620006d96200029d565b5b620006e68254620004b3565b620006f38282856200061c565b5f60209050601f83116001811462000729575f841562000714578287015190505b62000720858262000696565b8655506200078f565b601f1984166200073986620004e7565b5f5b8281101562000762578489015182556001820191506020850194506020810190506200073b565b868310156200078257848901516200077e601f89168262000678565b8355505b6001600288020188555050505b505050505050565b7f4e487b71000000000000000000000000000000000000000000000000000000005f52601160045260245ffd5b5f8160011c9050919050565b5f808291508390505b60018511156200082157808604811115620007f957620007f862000797565b5b6001851615620008095780820291505b80810290506200081985620007c4565b9450620007d9565b94509492505050565b5f826200083b57600190506200090d565b816200084a575f90506200090d565b81600181146200086357600281146200086e57620008a4565b60019150506200090d565b60ff84111562000883576200088262000797565b5b8360020a9150848211156200089d576200089c62000797565b5b506200090d565b5060208310610133831016604e8410600b8410161715620008de5782820a905083811115620008d857620008d762000797565b5b6200090d565b620008ed8484846001620007d0565b9250905081840481111562000907576200090662000797565b5b81810290505b9392505050565b5f60ff82169050919050565b5f6200092c8262000569565b9150620009398362000914565b9250620009687fffffffffffffffffffffffffffffffffffffffffffffffffffffffffffffffff84846200082a565b905092915050565b5f6200097c8262000569565b9150620009898362000569565b9250828202620009998162000569565b91508282048414831517620009b357620009b262000797565b5b5092915050565b5f82825260208201905092915050565b7f45524332303a206d696e7420746f20746865207a65726f2061646472657373005f82015250565b5f62000a00601f83620009ba565b915062000a0d82620009ca565b602082019050919050565b5f6020820190508181035f83015262000a3181620009f2565b9050919050565b5f62000a448262000569565b915062000a518362000569565b925082820190508082111562000a6c5762000a6b62000797565b5b92915050565b62000a7d8162000569565b82525050565b5f60208201905062000a985f83018462000a72565b92915050565b6116ac8062000aac5f395ff3fe608060405234801561000f575f80fd5b50600436106100e8575f3560e01c8063579158971161008a57806395d89b411161006457806395d89b4114610282578063a457c2d7146102a0578063a9059cbb146102d0578063dd62ed3e14610300576100e8565b8063579158971461020657806364614c711461022257806370a0823114610252576100e8565b806323b872dd116100c657806323b872dd14610158578063313ce5671461018857806339509351146101a657806352a9039c146101d6576100e8565b806306fdde03146100ec578063095ea7b31461010a57806318160ddd1461013a575b5f80fd5b6100f4610330565b6040516101019190610d11565b60405180910390f35b610124600480360381019061011f9190610dc2565b6103c0565b6040516101319190610e1a565b60405180910390f35b6101426103e2565b60405161014f9190610e42565b60405180910390f35b610172600480360381019061016d9190610e5b565b6103eb565b60405161017f9190610e1a565b60405180910390f35b610190610419565b60405161019d9190610ec6565b60405180910390f35b6101c060048036038101906101bb9190610dc2565b610421565b6040516101cd9190610e1a565b60405180910390f35b6101f060048036038101906101eb9190610edf565b610457565b6040516101fd9190610e42565b60405180910390f35b610220600480360381019061021b9190610f0a565b61046c565b005b61023c60048036038101906102379190610f0a565b6105a7565b6040516102499190610e42565b60405180910390f35b61026c60048036038101906102679190610edf565b6105ce565b6040516102799190610e42565b60405180910390f35b61028a610613565b6040516102979190610d11565b60405180910390f35b6102ba60048036038101906102b59190610dc2565b6106a3565b6040516102c79190610e1a565b60405180910390f35b6102ea60048036038101906102e59190610dc2565b610718565b6040516102f79190610e1a565b60405180910390f35b61031a60048036038101906103159190610f35565b61073a565b6040516103279190610e42565b60405180910390f35b60606003805461033f90610fa0565b80601f016020809104026020016040519081016040528092919081815260200182805461036b90610fa0565b80156103b65780601f1061038d576101008083540402835291602001916103b6565b820191905f5260205f20905b81548152906001019060200180831161039957829003601f168201915b5050505050905090565b5f806103ca6107bc565b90506103d78185856107c3565b600191505092915050565b5f600254905090565b5f806103f56107bc565b9050610402858285610986565b61040d858585610a11565b60019150509392505050565b5f6012905090565b5f8061042b6107bc565b905061044c81858561043d858961073a565b6104479190610ffd565b6107c3565b600191505092915050565b6006602052805f5260405f205f915090505481565b5f81116104ae576040517f08c379a00000000000000000000000000000000000000000000000000000000081526004016104a59061107a565b60405180910390fd5b6005548160065f3373ffffffffffffffffffffffffffffffffffffffff1673ffffffffffffffffffffffffffffffffffffffff1681526020019081526020015f20546104fa9190610ffd565b1061053a576040517f08c379a0000000000000000000000000000000000000000000000000000000008152600401610531906110e2565b60405180910390fd5b8060065f3373ffffffffffffffffffffffffffffffffffffffff1673ffffffffffffffffffffffffffffffffffffffff1681526020019081526020015f205f8282546105869190610ffd565b925050819055506105983033836107c3565b6105a33033836103eb565b5050565b5f6105b0610419565b600a6105bc919061122f565b826105c79190611279565b9050919050565b5f805f8373ffffffffffffffffffffffffffffffffffffffff1673ffffffffffffffffffffffffffffffffffffffff1681526020019081526020015f20549050919050565b60606004805461062290610fa0565b80601f016020809104026020016040519081016040528092919081815260200182805461064e90610fa0565b80156106995780601f1061067057610100808354040283529160200191610699565b820191905f5260205f20905b81548152906001019060200180831161067c57829003601f168201915b5050505050905090565b5f806106ad6107bc565b90505f6106ba828661073a565b9050838110156106ff576040517f08c379a00000000000000000000000000000000000000000000000000000000081526004016106f69061132a565b60405180910390fd5b61070c82868684036107c3565b60019250505092915050565b5f806107226107bc565b905061072f818585610a11565b600191505092915050565b5f60015f8473ffffffffffffffffffffffffffffffffffffffff1673ffffffffffffffffffffffffffffffffffffffff1681526020019081526020015f205f8373ffffffffffffffffffffffffffffffffffffffff1673ffffffffffffffffffffffffffffffffffffffff1681526020019081526020015f2054905092915050565b5f33905090565b5f73ffffffffffffffffffffffffffffffffffffffff168373ffffffffffffffffffffffffffffffffffffffff1603610831576040517f08c379a0000000000000000000000000000000000000000000000000000000008152600401610828906113b8565b60405180910390fd5b5f73ffffffffffffffffffffffffffffffffffffffff168273ffffffffffffffffffffffffffffffffffffffff160361089f576040517f08c379a000000000000000000000000000000000000000000000000000000000815260040161089690611446565b60405180910390fd5b8060015f8573ffffffffffffffffffffffffffffffffffffffff1673ffffffffffffffffffffffffffffffffffffffff1681526020019081526020015f205f8473ffffffffffffffffffffffffffffffffffffffff1673ffffffffffffffffffffffffffffffffffffffff1681526020019081526020015f20819055508173ffffffffffffffffffffffffffffffffffffffff168373ffffffffffffffffffffffffffffffffffffffff167f8c5be1e5ebec7d5bd14f71427d1e84f3dd0314c0f7b2291e5b200ac8c7c3b925836040516109799190610e42565b60405180910390a3505050565b5f610991848461073a565b90507fffffffffffffffffffffffffffffffffffffffffffffffffffffffffffffffff8114610a0b57818110156109fd576040517f08c379a00000000000000000000000000000000000000000000000000000000081526004016109f4906114ae565b60405180910390fd5b610a0a84848484036107c3565b5b50505050565b5f73ffffffffffffffffffffffffffffffffffffffff168373ffffffffffffffffffffffffffffffffffffffff1603610a7f576040517f08c379a0000000000000000000000000000000000000000000000000000000008152600401610a769061153c565b60405180910390fd5b5f73ffffffffffffffffffffffffffffffffffffffff168273ffffffffffffffffffffffffffffffffffffffff1603610aed576040517f08c379a0000000000000000000000000000000000000000000000000000000008152600401610ae4906115ca565b60405180910390fd5b610af8838383610c7d565b5f805f8573ffffffffffffffffffffffffffffffffffffffff1673ffffffffffffffffffffffffffffffffffffffff1681526020019081526020015f2054905081811015610b7b576040517f08c379a0000000000000000000000000000000000000000000000000000000008152600401610b7290611658565b60405180910390fd5b8181035f808673ffffffffffffffffffffffffffffffffffffffff1673ffffffffffffffffffffffffffffffffffffffff1681526020019081526020015f2081905550815f808573ffffffffffffffffffffffffffffffffffffffff1673ffffffffffffffffffffffffffffffffffffffff1681526020019081526020015f205f82825401925050819055508273ffffffffffffffffffffffffffffffffffffffff168473ffffffffffffffffffffffffffffffffffffffff167fddf252ad1be2c89b69c2b068fc378daa952ba7f163c4a11628f55a4df523b3ef84604051610c649190610e42565b60405180910390a3610c77848484610c82565b50505050565b505050565b505050565b5f81519050919050565b5f82825260208201905092915050565b5f5b83811015610cbe578082015181840152602081019050610ca3565b5f8484015250505050565b5f601f19601f8301169050919050565b5f610ce382610c87565b610ced8185610c91565b9350610cfd818560208601610ca1565b610d0681610cc9565b840191505092915050565b5f6020820190508181035f830152610d298184610cd9565b905092915050565b5f80fd5b5f73ffffffffffffffffffffffffffffffffffffffff82169050919050565b5f610d5e82610d35565b9050919050565b610d6e81610d54565b8114610d78575f80fd5b50565b5f81359050610d8981610d65565b92915050565b5f819050919050565b610da181610d8f565b8114610dab575f80fd5b50565b5f81359050610dbc81610d98565b92915050565b5f8060408385031215610dd857610dd7610d31565b5b5f610de585828601610d7b565b9250506020610df685828601610dae565b9150509250929050565b5f8115159050919050565b610e1481610e00565b82525050565b5f602082019050610e2d5f830184610e0b565b92915050565b610e3c81610d8f565b82525050565b5f602082019050610e555f830184610e33565b92915050565b5f805f60608486031215610e7257610e71610d31565b5b5f610e7f86828701610d7b565b9350506020610e9086828701610d7b565b9250506040610ea186828701610dae565b9150509250925092565b5f60ff82169050919050565b610ec081610eab565b82525050565b5f602082019050610ed95f830184610eb7565b92915050565b5f60208284031215610ef457610ef3610d31565b5b5f610f0184828501610d7b565b91505092915050565b5f60208284031215610f1f57610f1e610d31565b5b5f610f2c84828501610dae565b91505092915050565b5f8060408385031215610f4b57610f4a610d31565b5b5f610f5885828601610d7b565b9250506020610f6985828601610d7b565b9150509250929050565b7f4e487b71000000000000000000000000000000000000000000000000000000005f52602260045260245ffd5b5f6002820490506001821680610fb757607f821691505b602082108103610fca57610fc9610f73565b5b50919050565b7f4e487b71000000000000000000000000000000000000000000000000000000005f52601160045260245ffd5b5f61100782610d8f565b915061101283610d8f565b925082820190508082111561102a57611029610fd0565b5b92915050565b7f416d6f756e742063616e6e6f74206265207a65726f00000000000000000000005f82015250565b5f611064601583610c91565b915061106f82611030565b602082019050919050565b5f6020820190508181035f83015261109181611058565b9050919050565b7f43616e74204d696e74204d6f726520546f6b656e7300000000000000000000005f82015250565b5f6110cc601583610c91565b91506110d782611098565b602082019050919050565b5f6020820190508181035f8301526110f9816110c0565b9050919050565b5f8160011c9050919050565b5f808291508390505b60018511156111555780860481111561113157611130610fd0565b5b60018516156111405780820291505b808102905061114e85611100565b9450611115565b94509492505050565b5f8261116d5760019050611228565b8161117a575f9050611228565b8160018114611190576002811461119a576111c9565b6001915050611228565b60ff8411156111ac576111ab610fd0565b5b8360020a9150848211156111c3576111c2610fd0565b5b50611228565b5060208310610133831016604e8410600b84101617156111fe5782820a9050838111156111f9576111f8610fd0565b5b611228565b61120b848484600161110c565b9250905081840481111561122257611221610fd0565b5b81810290505b9392505050565b5f61123982610d8f565b915061124483610eab565b92506112717fffffffffffffffffffffffffffffffffffffffffffffffffffffffffffffffff848461115e565b905092915050565b5f61128382610d8f565b915061128e83610d8f565b925082820261129c81610d8f565b915082820484148315176112b3576112b2610fd0565b5b5092915050565b7f45524332303a2064656372656173656420616c6c6f77616e63652062656c6f775f8201527f207a65726f000000000000000000000000000000000000000000000000000000602082015250565b5f611314602583610c91565b915061131f826112ba565b604082019050919050565b5f6020820190508181035f83015261134181611308565b9050919050565b7f45524332303a20617070726f76652066726f6d20746865207a65726f206164645f8201527f7265737300000000000000000000000000000000000000000000000000000000602082015250565b5f6113a2602483610c91565b91506113ad82611348565b604082019050919050565b5f6020820190508181035f8301526113cf81611396565b9050919050565b7f45524332303a20617070726f766520746f20746865207a65726f2061646472655f8201527f7373000000000000000000000000000000000000000000000000000000000000602082015250565b5f611430602283610c91565b915061143b826113d6565b604082019050919050565b5f6020820190508181035f83015261145d81611424565b9050919050565b7f45524332303a20696e73756666696369656e7420616c6c6f77616e63650000005f82015250565b5f611498601d83610c91565b91506114a382611464565b602082019050919050565b5f6020820190508181035f8301526114c58161148c565b9050919050565b7f45524332303a207472616e736665722066726f6d20746865207a65726f2061645f8201527f6472657373000000000000000000000000000000000000000000000000000000602082015250565b5f611526602583610c91565b9150611531826114cc565b604082019050919050565b5f6020820190508181035f8301526115538161151a565b9050919050565b7f45524332303a207472616e7366657220746f20746865207a65726f20616464725f8201527f6573730000000000000000000000000000000000000000000000000000000000602082015250565b5f6115b4602383610c91565b91506115bf8261155a565b604082019050919050565b5f6020820190508181035f8301526115e1816115a8565b9050919050565b7f45524332303a207472616e7366657220616d6f756e74206578636565647320625f8201527f616c616e63650000000000000000000000000000000000000000000000000000602082015250565b5f611642602683610c91565b915061164d826115e8565b604082019050919050565b5f6020820190508181035f83015261166f81611636565b905091905056fea2646970667358221220ea1d6af1cd09fcca23ed8cb1cc2936a70f871e0bcf59a9d7ff6ba81d80b8f29164736f6c634300081500336080604052600860035f6101000a81548160ff021916908360ff1602179055503480156200002b575f80fd5b5060405162000f6238038062000f62833981810160405281019062000051919062000111565b80600360016101000a81548173ffffffffffffffffffffffffffffffffffffffff021916908373ffffffffffffffffffffffffffffffffffffffff1602179055505062000141565b5f80fd5b5f73ffffffffffffffffffffffffffffffffffffffff82169050919050565b5f620000c8826200009d565b9050919050565b5f620000db82620000bc565b9050919050565b620000ed81620000cf565b8114620000f8575f80fd5b50565b5f815190506200010b81620000e2565b92915050565b5f6020828403121562000129576200012862000099565b5b5f6200013884828501620000fb565b91505092915050565b610e13806200014f5f395ff3fe608060405234801561000f575f80fd5b5060043610610055575f3560e01c8063313ce567146100595780633552f434146100775780636984d070146100a7578063a035b1fe146100c5578063a2e800ad146100e3575b5f80fd5b610061610101565b60405161006e91906106f9565b60405180910390f35b610091600480360381019061008c9190610753565b610107565b60405161009e91906107a9565b60405180910390f35b6100af610231565b6040516100bc91906106f9565b60405180910390f35b6100cd610309565b6040516100da91906106f9565b60405180910390f35b6100eb61030e565b6040516100f891906106f9565b60405180910390f35b60015481565b5f8060ff1660035f9054906101000a900460ff1660ff161180156101405750601260ff1660035f9054906101000a900460ff1660ff1611155b61017f576040517f08c379a00000000000000000000000000000000000000000000000000000000081526004016101769061081c565b60405180910390fd5b5f60035f9054906101000a900460ff16600a61019b91906109a2565b90505f6101a785610314565b90505f6101b3866103e5565b90505f6101d2838360035f9054906101000a900460ff1660ff166104b6565b90505f6101de87610314565b90505f6101ea886103e5565b90505f610209838360035f9054906101000a900460ff1660ff166104b6565b905080878561021891906109ec565b6102229190610a8f565b97505050505050505092915050565b5f80600360019054906101000a900473ffffffffffffffffffffffffffffffffffffffff1673ffffffffffffffffffffffffffffffffffffffff166398f93a9660016040518263ffffffff1660e01b815260040161028f9190610b39565b6040805180830381865afa1580156102a9573d5f803e3d5ffd5b505050506040513d601f19601f820116820180604052508101906102cd9190610bba565b5090505f6102da82610526565b90505f815f600481106102f0576102ef610bf8565b5b6020020151905080600281905550600254935050505090565b5f5481565b60025481565b5f80600360019054906101000a900473ffffffffffffffffffffffffffffffffffffffff1673ffffffffffffffffffffffffffffffffffffffff166398f93a96846040518263ffffffff1660e01b81526004016103719190610c34565b6040805180830381865afa15801561038b573d5f803e3d5ffd5b505050506040513d601f19601f820116820180604052508101906103af9190610bba565b5090505f6103bc82610526565b90505f816003600481106103d3576103d2610bf8565b5b60200201519050809350505050919050565b5f80600360019054906101000a900473ffffffffffffffffffffffffffffffffffffffff1673ffffffffffffffffffffffffffffffffffffffff166398f93a96846040518263ffffffff1660e01b81526004016104429190610c34565b6040805180830381865afa15801561045c573d5f803e3d5ffd5b505050506040513d601f19601f820116820180604052508101906104809190610bba565b5090505f61048d82610526565b90505f816001600481106104a4576104a3610bf8565b5b60200201519050809350505050919050565b5f818310156104e95782826104cb9190610c4d565b600a6104d79190610c80565b846104e29190610cca565b905061051f565b8183111561051b5781836104fd9190610c4d565b600a6105099190610c80565b846105149190610d0b565b905061051f565b8390505b9392505050565b61052e6106bf565b6105366106bf565b61056260c084901c60405160200161054e9190610d5b565b60405160208183030381529060405261066e565b815f6004811061057557610574610bf8565b5b6020020181815250506105ae60f8604085901b901c60405160200161059a9190610d5b565b60405160208183030381529060405261066e565b816001600481106105c2576105c1610bf8565b5b6020020181815250506105fb60c0604885901b901c6040516020016105e79190610d5b565b60405160208183030381529060405261066e565b8160026004811061060f5761060e610bf8565b5b60200201818152505061064860a0608885901b901c6040516020016106349190610d5b565b60405160208183030381529060405261066e565b8160036004811061065c5761065b610bf8565b5b60200201818152505080915050919050565b5f60208251146106b3576040517f08c379a00000000000000000000000000000000000000000000000000000000081526004016106aa90610dbf565b60405180910390fd5b60208201519050919050565b6040518060800160405280600490602082028036833780820191505090505090565b5f819050919050565b6106f3816106e1565b82525050565b5f60208201905061070c5f8301846106ea565b92915050565b5f80fd5b5f67ffffffffffffffff82169050919050565b61073281610716565b811461073c575f80fd5b50565b5f8135905061074d81610729565b92915050565b5f806040838503121561076957610768610712565b5b5f6107768582860161073f565b92505060206107878582860161073f565b9150509250929050565b5f819050919050565b6107a381610791565b82525050565b5f6020820190506107bc5f83018461079a565b92915050565b5f82825260208201905092915050565b7f556e737570706f7274656420446563696d616c730000000000000000000000005f82015250565b5f6108066014836107c2565b9150610811826107d2565b602082019050919050565b5f6020820190508181035f830152610833816107fa565b9050919050565b7f4e487b71000000000000000000000000000000000000000000000000000000005f52601160045260245ffd5b5f8160011c9050919050565b5f808291508390505b60018511156108bc578086048111156108985761089761083a565b5b60018516156108a75780820291505b80810290506108b585610867565b945061087c565b94509492505050565b5f826108d4576001905061098f565b816108e1575f905061098f565b81600181146108f7576002811461090157610930565b600191505061098f565b60ff8411156109135761091261083a565b5b8360020a91508482111561092a5761092961083a565b5b5061098f565b5060208310610133831016604e8410600b84101617156109655782820a9050838111156109605761095f61083a565b5b61098f565b6109728484846001610873565b925090508184048111156109895761098861083a565b5b81810290505b9392505050565b5f60ff82169050919050565b5f6109ac826106e1565b91506109b783610996565b92506109e47fffffffffffffffffffffffffffffffffffffffffffffffffffffffffffffffff84846108c5565b905092915050565b5f6109f682610791565b9150610a0183610791565b9250828202610a0f81610791565b91507f800000000000000000000000000000000000000000000000000000000000000084145f84121615610a4657610a4561083a565b5b8282058414831517610a5b57610a5a61083a565b5b5092915050565b7f4e487b71000000000000000000000000000000000000000000000000000000005f52601260045260245ffd5b5f610a9982610791565b9150610aa483610791565b925082610ab457610ab3610a62565b5b60015f0383147f800000000000000000000000000000000000000000000000000000000000000083141615610aec57610aeb61083a565b5b828205905092915050565b5f819050919050565b5f819050919050565b5f610b23610b1e610b1984610af7565b610b00565b610716565b9050919050565b610b3381610b09565b82525050565b5f602082019050610b4c5f830184610b2a565b92915050565b5f819050919050565b610b6481610b52565b8114610b6e575f80fd5b50565b5f81519050610b7f81610b5b565b92915050565b5f8115159050919050565b610b9981610b85565b8114610ba3575f80fd5b50565b5f81519050610bb481610b90565b92915050565b5f8060408385031215610bd057610bcf610712565b5b5f610bdd85828601610b71565b9250506020610bee85828601610ba6565b9150509250929050565b7f4e487b71000000000000000000000000000000000000000000000000000000005f52603260045260245ffd5b610c2e81610716565b82525050565b5f602082019050610c475f830184610c25565b92915050565b5f610c57826106e1565b9150610c62836106e1565b9250828203905081811115610c7a57610c7961083a565b5b92915050565b5f610c8a826106e1565b9150610c95836106e1565b9250610cc27fffffffffffffffffffffffffffffffffffffffffffffffffffffffffffffffff84846108c5565b905092915050565b5f610cd4826106e1565b9150610cdf836106e1565b9250828202610ced816106e1565b91508282048414831517610d0457610d0361083a565b5b5092915050565b5f610d15826106e1565b9150610d20836106e1565b925082610d3057610d2f610a62565b5b828204905092915050565b5f819050919050565b610d55610d5082610b52565b610d3b565b82525050565b5f610d668284610d44565b60208201915081905092915050565b7f6279746573206c656e677468206973206e6f742033322e0000000000000000005f82015250565b5f610da96017836107c2565b9150610db482610d75565b602082019050919050565b5f6020820190508181035f830152610dd681610d9d565b905091905056fea26469706673582212202d51f91fbbbb58ff4c32b42046c0db93a6f7a28313c6123542b9acd993ae261764736f6c634300081500336080604052601960045534801562000015575f80fd5b506040516200565e3803806200565e83398181016040528101906200003b919062000127565b3360025f6101000a81548173ffffffffffffffffffffffffffffffffffffffff021916908373ffffffffffffffffffffffffffffffffffffffff1602179055508060015f6101000a81548173ffffffffffffffffffffffffffffffffffffffff021916908373ffffffffffffffffffffffffffffffffffffffff1602179055505062000157565b5f80fd5b5f73ffffffffffffffffffffffffffffffffffffffff82169050919050565b5f620000f182620000c6565b9050919050565b6200010381620000e5565b81146200010e575f80fd5b50565b5f815190506200012181620000f8565b92915050565b5f602082840312156200013f576200013e620000c2565b5b5f6200014e8482850162000111565b91505092915050565b6154f980620001655f395ff3fe6080604052600436106101d7575f3560e01c80638af3c40e11610101578063c963cb7411610094578063e151955111610063578063e151955114610677578063e3433615146106b3578063ecd44aef146106ef578063eebb63ed1461072c576101d7565b8063c963cb74146105a4578063cc2de91d146105e3578063d30dce7d1461061f578063df791e5014610647576101d7565b8063ac4afa38116100d0578063ac4afa38146104ec578063b8eab4091461052a578063bf16f65a14610554578063c2e6218f1461057c576101d7565b80638af3c40e146104485780639078f826146104725780639931c7911461049a5780639c8f9f23146104c4576101d7565b80634f656be61161017957806375d603721161014857806375d60372146103b257806378c480db146103da5780637a16af7f146104025780638471bb681461041e576101d7565b80634f656be61461032057806351fde3441461034a5780635554b5521461037257806359dea06614610388576101d7565b80632c4e722e116101b55780632c4e722e1461027a57806332a2c5d0146102a457806336051f26146102ce5780634d286a3d146102f6576101d7565b8063061bf045146101db5780630787bc271461020b5780631c1c5ac41461024a575b5f80fd5b6101f560048036038101906101f09190614328565b61076c565b604051610202919061439b565b60405180910390f35b348015610216575f80fd5b50610231600480360381019061022c91906143b4565b6108e1565b60405161024194939291906143f9565b60405180910390f35b610264600480360381019061025f919061443c565b610919565b604051610271919061439b565b60405180910390f35b348015610285575f80fd5b5061028e611426565b60405161029b91906144b8565b60405180910390f35b3480156102af575f80fd5b506102b861142b565b6040516102c591906144e0565b60405180910390f35b3480156102d9575f80fd5b506102f460048036038101906102ef919061452f565b611432565b005b348015610301575f80fd5b5061030a611599565b60405161031791906144e0565b60405180910390f35b34801561032b575f80fd5b506103346115be565b604051610341919061458f565b60405180910390f35b348015610355575f80fd5b50610370600480360381019061036b91906145d2565b6115d8565b005b34801561037d575f80fd5b506103866116b3565b005b348015610393575f80fd5b5061039c61191c565b6040516103a9919061439b565b60405180910390f35b3480156103bd575f80fd5b506103d860048036038101906103d391906143b4565b611942565b005b3480156103e5575f80fd5b5061040060048036038101906103fb91906145fd565b611a82565b005b61041c6004803603810190610417919061463b565b611c0f565b005b348015610429575f80fd5b506104326123e9565b60405161043f919061458f565b60405180910390f35b348015610453575f80fd5b5061045c612402565b60405161046991906144e0565b60405180910390f35b34801561047d575f80fd5b50610498600480360381019061049391906146a3565b61242a565b005b3480156104a5575f80fd5b506104ae6124e4565b6040516104bb91906144e0565b60405180910390f35b3480156104cf575f80fd5b506104ea60048036038101906104e591906146ce565b612509565b005b3480156104f7575f80fd5b50610512600480360381019061050d91906146ce565b612b1f565b604051610521939291906146f9565b60405180910390f35b348015610535575f80fd5b5061053e612b83565b60405161054b919061458f565b60405180910390f35b34801561055f575f80fd5b5061057a600480360381019061057591906146ce565b612b9d565b005b348015610587575f80fd5b506105a2600480360381019061059d91906146a3565b612cbc565b005b3480156105af575f80fd5b506105ca60048036038101906105c591906143b4565b612d77565b6040516105da94939291906147e5565b60405180910390f35b3480156105ee575f80fd5b5061060960048036038101906106049190614844565b613014565b604051610616919061439b565b60405180910390f35b34801561062a575f80fd5b50610645600480360381019061064091906146ce565b6130d8565b005b610661600480360381019061065c9190614894565b6132d2565b60405161066e919061439b565b60405180910390f35b348015610682575f80fd5b5061069d600480360381019061069891906143b4565b6132e8565b6040516106aa919061458f565b60405180910390f35b3480156106be575f80fd5b506106d960048036038101906106d491906148e4565b61330c565b6040516106e6919061439b565b60405180910390f35b3480156106fa575f80fd5b50610715600480360381019061071091906148e4565b6133a0565b604051610723929190614922565b60405180910390f35b348015610737575f80fd5b50610752600480360381019061074d91906146ce565b6133c4565b604051610763959493929190614949565b60405180910390f35b5f808590505f6004546103e88661078391906149f4565b61078d9190614a24565b90508173ffffffffffffffffffffffffffffffffffffffff166323b872dd8530896040518463ffffffff1660e01b81526004016107cc93929190614a65565b6020604051808303815f875af11580156107e8573d5f803e3d5ffd5b505050506040513d601f19601f8201168201806040525081019061080c9190614aae565b5084471015610850576040517f08c379a000000000000000000000000000000000000000000000000000000000815260040161084790614b33565b60405180910390fd5b8373ffffffffffffffffffffffffffffffffffffffff166108fc82876108769190614b51565b90811502906040515f60405180830381858888f1935050505015801561089e573d5f803e3d5ffd5b506108d560095f9054906101000a900467ffffffffffffffff16600960109054906101000a900467ffffffffffffffff1683613014565b92505050949350505050565b600d602052805f5260405f205f91509050805f015490806001015490806002015490806003015f9054906101000a900460ff16905084565b5f606483101561095e576040517f08c379a000000000000000000000000000000000000000000000000000000000815260040161095590614bf4565b60405180910390fd5b5f808490505f61096e8888613415565b90505f600c5f8381526020019081526020015f205f0154116109c5576040517f08c379a00000000000000000000000000000000000000000000000000000000081526004016109bc90614c5c565b60405180910390fd5b60095f9054906101000a900467ffffffffffffffff1667ffffffffffffffff1660085f600c5f8581526020019081526020015f206001015f9054906101000a900473ffffffffffffffffffffffffffffffffffffffff1673ffffffffffffffffffffffffffffffffffffffff1673ffffffffffffffffffffffffffffffffffffffff1681526020019081526020015f205f9054906101000a900467ffffffffffffffff1667ffffffffffffffff1603610d2957349150610b1e60095f9054906101000a900467ffffffffffffffff1660085f600c5f8681526020019081526020015f206002015f9054906101000a900473ffffffffffffffffffffffffffffffffffffffff1673ffffffffffffffffffffffffffffffffffffffff1673ffffffffffffffffffffffffffffffffffffffff1681526020019081526020015f205f9054906101000a900467ffffffffffffffff1684613014565b92505f610b2a8261369a565b91505083811015610b70576040517f08c379a0000000000000000000000000000000000000000000000000000000008152600401610b6790614cc4565b60405180910390fd5b5f610baf600c5f8581526020019081526020015f206002015f9054906101000a900473ffffffffffffffffffffffffffffffffffffffff168689613757565b90505f6064605083610bc19190614a24565b610bcb91906149f4565b90508082610bd99190614b51565b60035f828254610be99190614ce2565b92505081905550610d21858785600c5f8981526020019081526020015f206040518060800160405290815f8201548152602001600182015f9054906101000a900473ffffffffffffffffffffffffffffffffffffffff1673ffffffffffffffffffffffffffffffffffffffff1673ffffffffffffffffffffffffffffffffffffffff168152602001600282015f9054906101000a900473ffffffffffffffffffffffffffffffffffffffff1673ffffffffffffffffffffffffffffffffffffffff1673ffffffffffffffffffffffffffffffffffffffff16815260200160038201805480602002602001604051908101604052809291908181526020018280548015610d1257602002820191905f5260205f20905b815481526020019060010190808311610cfe575b5050505050815250508561387d565b5050506113d9565b60095f9054906101000a900467ffffffffffffffff1667ffffffffffffffff1660085f600c5f8581526020019081526020015f206002015f9054906101000a900473ffffffffffffffffffffffffffffffffffffffff1673ffffffffffffffffffffffffffffffffffffffff1673ffffffffffffffffffffffffffffffffffffffff1681526020019081526020015f205f9054906101000a900467ffffffffffffffff1667ffffffffffffffff160361108b57610e7f60085f600c5f8581526020019081526020015f206001015f9054906101000a900473ffffffffffffffffffffffffffffffffffffffff1673ffffffffffffffffffffffffffffffffffffffff1673ffffffffffffffffffffffffffffffffffffffff1681526020019081526020015f205f9054906101000a900467ffffffffffffffff1660095f9054906101000a900467ffffffffffffffff1684613014565b92505f610e8b8261369a565b50905083811015610ed1576040517f08c379a0000000000000000000000000000000000000000000000000000000008152600401610ec890614cc4565b60405180910390fd5b5f610f11600c5f8581526020019081526020015f206001015f9054906101000a900473ffffffffffffffffffffffffffffffffffffffff1685878a61076c565b90505f6064605083610f239190614a24565b610f2d91906149f4565b90508082610f3b9190614b51565b60035f828254610f4b9190614ce2565b92505081905550611083858785600c5f8981526020019081526020015f206040518060800160405290815f8201548152602001600182015f9054906101000a900473ffffffffffffffffffffffffffffffffffffffff1673ffffffffffffffffffffffffffffffffffffffff1673ffffffffffffffffffffffffffffffffffffffff168152602001600282015f9054906101000a900473ffffffffffffffffffffffffffffffffffffffff1673ffffffffffffffffffffffffffffffffffffffff1673ffffffffffffffffffffffffffffffffffffffff1681526020016003820180548060200260200160405190810160405280929190818152602001828054801561107457602002820191905f5260205f20905b815481526020019060010190808311611060575b5050505050815250508561387d565b5050506113d8565b61119c60085f600c5f8581526020019081526020015f206001015f9054906101000a900473ffffffffffffffffffffffffffffffffffffffff1673ffffffffffffffffffffffffffffffffffffffff1673ffffffffffffffffffffffffffffffffffffffff1681526020019081526020015f205f9054906101000a900467ffffffffffffffff1660085f600c5f8681526020019081526020015f206002015f9054906101000a900473ffffffffffffffffffffffffffffffffffffffff1673ffffffffffffffffffffffffffffffffffffffff1673ffffffffffffffffffffffffffffffffffffffff1681526020019081526020015f205f9054906101000a900467ffffffffffffffff1684613014565b92505f6111a88261369a565b915050838110156111ee576040517f08c379a00000000000000000000000000000000000000000000000000000000081526004016111e590614cc4565b60405180910390fd5b5f611262600c5f8581526020019081526020015f206001015f9054906101000a900473ffffffffffffffffffffffffffffffffffffffff16600c5f8681526020019081526020015f206002015f9054906101000a900473ffffffffffffffffffffffffffffffffffffffff1686888b613a8f565b90505f60646050836112749190614a24565b61127e91906149f4565b9050808261128c9190614b51565b60035f82825461129c9190614ce2565b925050819055506113d4858785600c5f8981526020019081526020015f206040518060800160405290815f8201548152602001600182015f9054906101000a900473ffffffffffffffffffffffffffffffffffffffff1673ffffffffffffffffffffffffffffffffffffffff1673ffffffffffffffffffffffffffffffffffffffff168152602001600282015f9054906101000a900473ffffffffffffffffffffffffffffffffffffffff1673ffffffffffffffffffffffffffffffffffffffff1673ffffffffffffffffffffffffffffffffffffffff168152602001600382018054806020026020016040519081016040528092919081815260200182805480156113c557602002820191905f5260205f20905b8154815260200190600101908083116113b1575b5050505050815250508561387d565b5050505b5b7f649451cb6bd28801e8992e83f834233301eb39b64a665a45b1e08d3e13ff679a86848a8a42604051611410959493929190614d15565b60405180910390a1829350505050949350505050565b5f5481565b5f30905090565b60025f9054906101000a900473ffffffffffffffffffffffffffffffffffffffff1673ffffffffffffffffffffffffffffffffffffffff163373ffffffffffffffffffffffffffffffffffffffff16146114c1576040517f08c379a00000000000000000000000000000000000000000000000000000000081526004016114b890614db0565b60405180910390fd5b5f73ffffffffffffffffffffffffffffffffffffffff168273ffffffffffffffffffffffffffffffffffffffff160361152f576040517f08c379a000000000000000000000000000000000000000000000000000000000815260040161152690614e18565b60405180910390fd5b8060ff1660085f8473ffffffffffffffffffffffffffffffffffffffff1673ffffffffffffffffffffffffffffffffffffffff1681526020019081526020015f205f6101000a81548167ffffffffffffffff021916908367ffffffffffffffff1602179055505050565b600b5f9054906101000a900473ffffffffffffffffffffffffffffffffffffffff1681565b600960109054906101000a900467ffffffffffffffff1681565b5f600d5f3373ffffffffffffffffffffffffffffffffffffffff1673ffffffffffffffffffffffffffffffffffffffff1681526020019081526020015f205f015403611659576040517f08c379a000000000000000000000000000000000000000000000000000000000815260040161165090614e80565b60405180910390fd5b80600d5f3373ffffffffffffffffffffffffffffffffffffffff1673ffffffffffffffffffffffffffffffffffffffff1681526020019081526020015f206003015f6101000a81548160ff02191690831515021790555050565b5f600d5f3373ffffffffffffffffffffffffffffffffffffffff1673ffffffffffffffffffffffffffffffffffffffff1681526020019081526020015f205f015414611734576040517f08c379a000000000000000000000000000000000000000000000000000000000815260040161172b90614ee8565b60405180910390fd5b60075f81548092919061174690614f06565b91905055506040518060a001604052806007548152602001600d5f3373ffffffffffffffffffffffffffffffffffffffff1673ffffffffffffffffffffffffffffffffffffffff1681526020019081526020015f20600101548152602001600d5f3373ffffffffffffffffffffffffffffffffffffffff1673ffffffffffffffffffffffffffffffffffffffff1681526020019081526020015f206002015481526020015f15158152602001600d5f3373ffffffffffffffffffffffffffffffffffffffff1673ffffffffffffffffffffffffffffffffffffffff1681526020019081526020015f2060040180548060200260200160405190810160405280929190818152602001828054801561187a57602002820191905f5260205f20905b815481526020019060010190808311611866575b5050505050815250600d5f3373ffffffffffffffffffffffffffffffffffffffff1673ffffffffffffffffffffffffffffffffffffffff1681526020019081526020015f205f820151815f015560208201518160010155604082015181600201556060820151816003015f6101000a81548160ff0219169083151502179055506080820151816004019080519060200190611916929190614231565b50905050565b5f60095f9054906101000a900467ffffffffffffffff1667ffffffffffffffff16905090565b60025f9054906101000a900473ffffffffffffffffffffffffffffffffffffffff1673ffffffffffffffffffffffffffffffffffffffff163373ffffffffffffffffffffffffffffffffffffffff16146119d1576040517f08c379a00000000000000000000000000000000000000000000000000000000081526004016119c890614db0565b60405180910390fd5b5f73ffffffffffffffffffffffffffffffffffffffff168173ffffffffffffffffffffffffffffffffffffffff1603611a3f576040517f08c379a0000000000000000000000000000000000000000000000000000000008152600401611a3690614f97565b60405180910390fd5b80600b5f6101000a81548173ffffffffffffffffffffffffffffffffffffffff021916908373ffffffffffffffffffffffffffffffffffffffff16021790555050565b60025f9054906101000a900473ffffffffffffffffffffffffffffffffffffffff1673ffffffffffffffffffffffffffffffffffffffff163373ffffffffffffffffffffffffffffffffffffffff1614611b11576040517f08c379a0000000000000000000000000000000000000000000000000000000008152600401611b0890614db0565b60405180910390fd5b816003541015611b56576040517f08c379a0000000000000000000000000000000000000000000000000000000008152600401611b4d90614fff565b60405180910390fd5b600a5f9054906101000a900473ffffffffffffffffffffffffffffffffffffffff1673ffffffffffffffffffffffffffffffffffffffff1663a9059cbb82846040518363ffffffff1660e01b8152600401611bb292919061501d565b6020604051808303815f875af1158015611bce573d5f803e3d5ffd5b505050506040513d601f19601f82011682018060405250810190611bf29190614aae565b508160035f828254611c049190614b51565b925050819055505050565b5f600d5f3373ffffffffffffffffffffffffffffffffffffffff1673ffffffffffffffffffffffffffffffffffffffff1681526020019081526020015f205f015403611c90576040517f08c379a0000000000000000000000000000000000000000000000000000000008152600401611c8790614e80565b60405180910390fd5b6064811015611cd4576040517f08c379a0000000000000000000000000000000000000000000000000000000008152600401611ccb906150b4565b60405180910390fd5b5f8082905060095f9054906101000a900467ffffffffffffffff1667ffffffffffffffff1660085f600c5f8881526020019081526020015f206001015f9054906101000a900473ffffffffffffffffffffffffffffffffffffffff1673ffffffffffffffffffffffffffffffffffffffff1673ffffffffffffffffffffffffffffffffffffffff1681526020019081526020015f205f9054906101000a900467ffffffffffffffff1667ffffffffffffffff160361204a5760643411611dcf576040517f08c379a0000000000000000000000000000000000000000000000000000000008152600401611dc690615142565b60405180910390fd5b349050611ee360085f600c5f8881526020019081526020015f206001015f9054906101000a900473ffffffffffffffffffffffffffffffffffffffff1673ffffffffffffffffffffffffffffffffffffffff1673ffffffffffffffffffffffffffffffffffffffff1681526020019081526020015f205f9054906101000a900467ffffffffffffffff1660085f600c5f8981526020019081526020015f206002015f9054906101000a900473ffffffffffffffffffffffffffffffffffffffff1673ffffffffffffffffffffffffffffffffffffffff1673ffffffffffffffffffffffffffffffffffffffff1681526020019081526020015f205f9054906101000a900467ffffffffffffffff1683613014565b9150600c5f8581526020019081526020015f206002015f9054906101000a900473ffffffffffffffffffffffffffffffffffffffff1673ffffffffffffffffffffffffffffffffffffffff1663095ea7b330846040518363ffffffff1660e01b8152600401611f5392919061501d565b6020604051808303815f875af1158015611f6f573d5f803e3d5ffd5b505050506040513d601f19601f82011682018060405250810190611f939190614aae565b50600c5f8581526020019081526020015f206002015f9054906101000a900473ffffffffffffffffffffffffffffffffffffffff1673ffffffffffffffffffffffffffffffffffffffff166323b872dd3330856040518463ffffffff1660e01b815260040161200493929190614a65565b6020604051808303815f875af1158015612020573d5f803e3d5ffd5b505050506040513d601f19601f820116820180604052508101906120449190614aae565b506122c0565b61215b60085f600c5f8881526020019081526020015f206001015f9054906101000a900473ffffffffffffffffffffffffffffffffffffffff1673ffffffffffffffffffffffffffffffffffffffff1673ffffffffffffffffffffffffffffffffffffffff1681526020019081526020015f205f9054906101000a900467ffffffffffffffff1660085f600c5f8981526020019081526020015f206002015f9054906101000a900473ffffffffffffffffffffffffffffffffffffffff1673ffffffffffffffffffffffffffffffffffffffff1673ffffffffffffffffffffffffffffffffffffffff1681526020019081526020015f205f9054906101000a900467ffffffffffffffff1683613014565b9150600c5f8581526020019081526020015f206001015f9054906101000a900473ffffffffffffffffffffffffffffffffffffffff1673ffffffffffffffffffffffffffffffffffffffff166323b872dd3330846040518463ffffffff1660e01b81526004016121cd93929190614a65565b6020604051808303815f875af11580156121e9573d5f803e3d5ffd5b505050506040513d601f19601f8201168201806040525081019061220d9190614aae565b50600c5f8581526020019081526020015f206002015f9054906101000a900473ffffffffffffffffffffffffffffffffffffffff1673ffffffffffffffffffffffffffffffffffffffff166323b872dd3330856040518463ffffffff1660e01b815260040161227e93929190614a65565b6020604051808303815f875af115801561229a573d5f803e3d5ffd5b505050506040513d601f19601f820116820180604052508101906122be9190614aae565b505b5f6122cb8533613c3a565b90505f81111561232e5781600e5f8381526020019081526020015f206002015f8282546122f89190614ce2565b9250508190555082600e5f8381526020019081526020015f206003015f8282546123229190614ce2565b9250508190555061233b565b61233a85838533613d4e565b5b7f461ecd615ea1465ce04ee1aa1810891df016f8b506e515ba3a18bb12f54962e5600c5f8781526020019081526020015f206001015f9054906101000a900473ffffffffffffffffffffffffffffffffffffffff16600c5f8881526020019081526020015f206002015f9054906101000a900473ffffffffffffffffffffffffffffffffffffffff16848633426040516123da96959493929190615160565b60405180910390a15050505050565b60095f9054906101000a900467ffffffffffffffff1681565b5f600b5f9054906101000a900473ffffffffffffffffffffffffffffffffffffffff16905090565b60025f9054906101000a900473ffffffffffffffffffffffffffffffffffffffff1673ffffffffffffffffffffffffffffffffffffffff163373ffffffffffffffffffffffffffffffffffffffff16146124b9576040517f08c379a00000000000000000000000000000000000000000000000000000000081526004016124b090614db0565b60405180910390fd5b8060095f6101000a81548167ffffffffffffffff021916908367ffffffffffffffff16021790555050565b600a5f9054906101000a900473ffffffffffffffffffffffffffffffffffffffff1681565b5f600d5f3373ffffffffffffffffffffffffffffffffffffffff1673ffffffffffffffffffffffffffffffffffffffff1681526020019081526020015f205f01540361258a576040517f08c379a000000000000000000000000000000000000000000000000000000000815260040161258190614e80565b60405180910390fd5b3373ffffffffffffffffffffffffffffffffffffffff16600e5f8381526020019081526020015f206004015f9054906101000a900473ffffffffffffffffffffffffffffffffffffffff1673ffffffffffffffffffffffffffffffffffffffff161461262b576040517f08c379a000000000000000000000000000000000000000000000000000000000815260040161262290615209565b60405180910390fd5b5f600e5f8381526020019081526020015f206001015490505f600c5f8381526020019081526020015f206040518060800160405290815f8201548152602001600182015f9054906101000a900473ffffffffffffffffffffffffffffffffffffffff1673ffffffffffffffffffffffffffffffffffffffff1673ffffffffffffffffffffffffffffffffffffffff168152602001600282015f9054906101000a900473ffffffffffffffffffffffffffffffffffffffff1673ffffffffffffffffffffffffffffffffffffffff1673ffffffffffffffffffffffffffffffffffffffff1681526020016003820180548060200260200160405190810160405280929190818152602001828054801561276057602002820191905f5260205f20905b81548152602001906001019080831161274c575b5050505050815250509050806020015173ffffffffffffffffffffffffffffffffffffffff1663a9059cbb33600e5f8781526020019081526020015f20600201546040518363ffffffff1660e01b81526004016127be92919061501d565b6020604051808303815f875af11580156127da573d5f803e3d5ffd5b505050506040513d601f19601f820116820180604052508101906127fe9190614aae565b50806040015173ffffffffffffffffffffffffffffffffffffffff1663a9059cbb33600e5f8781526020019081526020015f20600301546040518363ffffffff1660e01b815260040161285292919061501d565b6020604051808303815f875af115801561286e573d5f803e3d5ffd5b505050506040513d601f19601f820116820180604052508101906128929190614aae565b505f5b600c5f8481526020019081526020015f206003018054905081101561298d573373ffffffffffffffffffffffffffffffffffffffff16600e5f600c5f8781526020019081526020015f2060030184815481106128f4576128f3615227565b5b905f5260205f20015481526020019081526020015f206004015f9054906101000a900473ffffffffffffffffffffffffffffffffffffffff1673ffffffffffffffffffffffffffffffffffffffff160361297a57600c5f8481526020019081526020015f20600301818154811061296e5761296d615227565b5b905f5260205f20015f90555b808061298590614f06565b915050612895565b505f5b600d5f3373ffffffffffffffffffffffffffffffffffffffff1673ffffffffffffffffffffffffffffffffffffffff1681526020019081526020015f2060040180549050811015612ac457815f0151600e5f600d5f3373ffffffffffffffffffffffffffffffffffffffff1673ffffffffffffffffffffffffffffffffffffffff1681526020019081526020015f206004018481548110612a3457612a33615227565b5b905f5260205f20015481526020019081526020015f206001015403612ab157600d5f3373ffffffffffffffffffffffffffffffffffffffff1673ffffffffffffffffffffffffffffffffffffffff1681526020019081526020015f206004018181548110612aa557612aa4615227565b5b905f5260205f20015f90555b8080612abc90614f06565b915050612990565b50600e5f8481526020019081526020015f205f8082015f9055600182015f9055600282015f9055600382015f9055600482015f6101000a81549073ffffffffffffffffffffffffffffffffffffffff02191690555050505050565b600c602052805f5260405f205f91509050805f015490806001015f9054906101000a900473ffffffffffffffffffffffffffffffffffffffff1690806002015f9054906101000a900473ffffffffffffffffffffffffffffffffffffffff16905083565b600960089054906101000a900467ffffffffffffffff1681565b60025f9054906101000a900473ffffffffffffffffffffffffffffffffffffffff1673ffffffffffffffffffffffffffffffffffffffff163373ffffffffffffffffffffffffffffffffffffffff1614612c2c576040517f08c379a0000000000000000000000000000000000000000000000000000000008152600401612c2390614db0565b60405180910390fd5b5f8111612c6e576040517f08c379a0000000000000000000000000000000000000000000000000000000008152600401612c659061529e565b60405180910390fd5b6103e88110612cb2576040517f08c379a0000000000000000000000000000000000000000000000000000000008152600401612ca990615306565b60405180910390fd5b8060048190555050565b60025f9054906101000a900473ffffffffffffffffffffffffffffffffffffffff1673ffffffffffffffffffffffffffffffffffffffff163373ffffffffffffffffffffffffffffffffffffffff1614612d4b576040517f08c379a0000000000000000000000000000000000000000000000000000000008152600401612d4290614db0565b60405180910390fd5b80600960106101000a81548167ffffffffffffffff021916908367ffffffffffffffff16021790555050565b6060806060805f600d5f8773ffffffffffffffffffffffffffffffffffffffff1673ffffffffffffffffffffffffffffffffffffffff1681526020019081526020015f20600401805480602002602001604051908101604052809291908181526020018280548015612e0657602002820191905f5260205f20905b815481526020019060010190808311612df2575b505050505090505f815167ffffffffffffffff811115612e2957612e28615324565b5b604051908082528060200260200182016040528015612e575781602001602082028036833780820191505090505b5090505f825167ffffffffffffffff811115612e7657612e75615324565b5b604051908082528060200260200182016040528015612ea45781602001602082028036833780820191505090505b5090505f835167ffffffffffffffff811115612ec357612ec2615324565b5b604051908082528060200260200182016040528015612ef15781602001602082028036833780820191505090505b5090505f5b8451811015612ffc57600e5f868381518110612f1557612f14615227565b5b602002602001015181526020019081526020015f2060010154848281518110612f4157612f40615227565b5b602002602001018181525050600e5f868381518110612f6357612f62615227565b5b602002602001015181526020019081526020015f2060020154838281518110612f8f57612f8e615227565b5b602002602001018181525050600e5f868381518110612fb157612fb0615227565b5b602002602001015181526020019081526020015f2060030154828281518110612fdd57612fdc615227565b5b6020026020010181815250508080612ff490614f06565b915050612ef6565b50828282869750975097509750505050509193509193565b5f8060015f9054906101000a900473ffffffffffffffffffffffffffffffffffffffff1673ffffffffffffffffffffffffffffffffffffffff16633552f43486866040518363ffffffff1660e01b8152600401613072929190615351565b602060405180830381865afa15801561308d573d5f803e3d5ffd5b505050506040513d601f19601f820116820180604052508101906130b191906153a2565b90506305f5e10081846130c49190614a24565b6130ce91906149f4565b9150509392505050565b5f600d5f3373ffffffffffffffffffffffffffffffffffffffff1673ffffffffffffffffffffffffffffffffffffffff1681526020019081526020015f205f015403613159576040517f08c379a000000000000000000000000000000000000000000000000000000000815260040161315090614e80565b60405180910390fd5b80600d5f3373ffffffffffffffffffffffffffffffffffffffff1673ffffffffffffffffffffffffffffffffffffffff1681526020019081526020015f206002015410156131dc576040517f08c379a00000000000000000000000000000000000000000000000000000000081526004016131d390614fff565b60405180910390fd5b600b5f9054906101000a900473ffffffffffffffffffffffffffffffffffffffff1673ffffffffffffffffffffffffffffffffffffffff1663a9059cbb33836040518363ffffffff1660e01b815260040161323892919061501d565b6020604051808303815f875af1158015613254573d5f803e3d5ffd5b505050506040513d601f19601f820116820180604052508101906132789190614aae565b5080600d5f3373ffffffffffffffffffffffffffffffffffffffff1673ffffffffffffffffffffffffffffffffffffffff1681526020019081526020015f206002015f8282546132c89190614b51565b9250508190555050565b5f6132df84848433610919565b90509392505050565b6008602052805f5260405f205f915054906101000a900467ffffffffffffffff1681565b5f80600d5f3373ffffffffffffffffffffffffffffffffffffffff1673ffffffffffffffffffffffffffffffffffffffff1681526020019081526020015f205f01540361338e576040517f08c379a000000000000000000000000000000000000000000000000000000000815260040161338590614e80565b60405180910390fd5b6133988383613ecc565b905092915050565b5f805f6133ad8585613415565b90506133b88161369a565b92509250509250929050565b600e602052805f5260405f205f91509050805f015490806001015490806002015490806003015490806004015f9054906101000a900473ffffffffffffffffffffffffffffffffffffffff16905085565b5f8073ffffffffffffffffffffffffffffffffffffffff168373ffffffffffffffffffffffffffffffffffffffff161415801561347e57505f73ffffffffffffffffffffffffffffffffffffffff168273ffffffffffffffffffffffffffffffffffffffff1614155b6134bd576040517f08c379a00000000000000000000000000000000000000000000000000000000081526004016134b490615417565b60405180910390fd5b5f5b600554811161368f578373ffffffffffffffffffffffffffffffffffffffff16600c5f8381526020019081526020015f206001015f9054906101000a900473ffffffffffffffffffffffffffffffffffffffff1673ffffffffffffffffffffffffffffffffffffffff1614801561359457508273ffffffffffffffffffffffffffffffffffffffff16600c5f8381526020019081526020015f206002015f9054906101000a900473ffffffffffffffffffffffffffffffffffffffff1673ffffffffffffffffffffffffffffffffffffffff16145b156135a25780915050613694565b8273ffffffffffffffffffffffffffffffffffffffff16600c5f8381526020019081526020015f206001015f9054906101000a900473ffffffffffffffffffffffffffffffffffffffff1673ffffffffffffffffffffffffffffffffffffffff1614801561366e57508373ffffffffffffffffffffffffffffffffffffffff16600c5f8381526020019081526020015f206002015f9054906101000a900473ffffffffffffffffffffffffffffffffffffffff1673ffffffffffffffffffffffffffffffffffffffff16145b1561367c5780915050613694565b808061368790614f06565b9150506134bf565b505f90505b92915050565b5f805f805f5b600c5f8781526020019081526020015f2060030180549050811015613749575f600c5f8881526020019081526020015f2060030182815481106136e6576136e5615227565b5b905f5260205f2001549050600e5f8281526020019081526020015f2060020154846137119190614ce2565b9350600e5f8281526020019081526020015f2060030154836137339190614ce2565b925050808061374190614f06565b9150506136a0565b508181935093505050915091565b5f808490505f6004546103e88661376e91906149f4565b6137789190614a24565b90508173ffffffffffffffffffffffffffffffffffffffff1663a9059cbb8583886137a39190614b51565b6040518363ffffffff1660e01b81526004016137c092919061501d565b6020604051808303815f875af11580156137dc573d5f803e3d5ffd5b505050506040513d601f19601f820116820180604052508101906138009190614aae565b5061387260085f8873ffffffffffffffffffffffffffffffffffffffff1673ffffffffffffffffffffffffffffffffffffffff1681526020019081526020015f205f9054906101000a900467ffffffffffffffff16600960109054906101000a900467ffffffffffffffff1683613014565b925050509392505050565b5f5b826060015151811015613a87575f836060015182815181106138a4576138a3615227565b5b602002602001015190505f8588600e5f8581526020019081526020015f20600301546138d09190614a24565b6138da91906149f4565b905080600e5f8481526020019081526020015f206002015f8282546138ff9190614ce2565b925050819055505f8688600e5f8681526020019081526020015f20600301546139289190614a24565b61393291906149f4565b905080600e5f8581526020019081526020015f206003015f8282546139579190614b51565b925050819055505f8786600e5f8781526020019081526020015f20600301546139809190614a24565b61398a91906149f4565b90505f600e5f8681526020019081526020015f206004015f9054906101000a900473ffffffffffffffffffffffffffffffffffffffff16905081600d5f8373ffffffffffffffffffffffffffffffffffffffff1673ffffffffffffffffffffffffffffffffffffffff1681526020019081526020015f206001015f828254613a129190614ce2565b9250508190555081600d5f8373ffffffffffffffffffffffffffffffffffffffff1673ffffffffffffffffffffffffffffffffffffffff1681526020019081526020015f206002015f828254613a689190614ce2565b9250508190555050505050508080613a7f90614f06565b91505061387f565b505050505050565b5f808690505f8690505f6004546103e887613aaa91906149f4565b613ab49190614a24565b90508273ffffffffffffffffffffffffffffffffffffffff166323b872dd86308a6040518463ffffffff1660e01b8152600401613af393929190614a65565b6020604051808303815f875af1158015613b0f573d5f803e3d5ffd5b505050506040513d601f19601f82011682018060405250810190613b339190614aae565b508173ffffffffffffffffffffffffffffffffffffffff1663a9059cbb868389613b5d9190614b51565b6040518363ffffffff1660e01b8152600401613b7a92919061501d565b6020604051808303815f875af1158015613b96573d5f803e3d5ffd5b505050506040513d601f19601f82011682018060405250810190613bba9190614aae565b50613c2c60085f8a73ffffffffffffffffffffffffffffffffffffffff1673ffffffffffffffffffffffffffffffffffffffff1681526020019081526020015f205f9054906101000a900467ffffffffffffffff16600960109054906101000a900467ffffffffffffffff1683613014565b935050505095945050505050565b5f80600d5f8473ffffffffffffffffffffffffffffffffffffffff1673ffffffffffffffffffffffffffffffffffffffff1681526020019081526020015f20600401805480602002602001604051908101604052809291908181526020018280548015613cc457602002820191905f5260205f20905b815481526020019060010190808311613cb0575b505050505090505f5b8151811015613d425784600e5f848481518110613ced57613cec615227565b5b602002602001015181526020019081526020015f206001015403613d2f57818181518110613d1e57613d1d615227565b5b602002602001015192505050613d48565b8080613d3a90614f06565b915050613ccd565b505f9150505b92915050565b60065f815480929190613d6090614f06565b91905055506040518060a0016040528060065481526020018581526020018481526020018381526020018273ffffffffffffffffffffffffffffffffffffffff16815250600e5f60065481526020019081526020015f205f820151815f01556020820151816001015560408201518160020155606082015181600301556080820151816004015f6101000a81548173ffffffffffffffffffffffffffffffffffffffff021916908373ffffffffffffffffffffffffffffffffffffffff160217905550905050600c5f8581526020019081526020015f20600301600654908060018154018082558091505060019003905f5260205f20015f9091909190915055600d5f8273ffffffffffffffffffffffffffffffffffffffff1673ffffffffffffffffffffffffffffffffffffffff1681526020019081526020015f20600401600654908060018154018082558091505060019003905f5260205f20015f909190919091505550505050565b5f8073ffffffffffffffffffffffffffffffffffffffff168373ffffffffffffffffffffffffffffffffffffffff1603613f3b576040517f08c379a0000000000000000000000000000000000000000000000000000000008152600401613f32906154a5565b60405180910390fd5b5f73ffffffffffffffffffffffffffffffffffffffff168273ffffffffffffffffffffffffffffffffffffffff1603613fa9576040517f08c379a0000000000000000000000000000000000000000000000000000000008152600401613fa0906154a5565b60405180910390fd5b5f80613fb58585613415565b141590508015613fc8575f91505061422b565b60055f815480929190613fda90614f06565b91905055505f600c5f60055481526020019081526020015f206040518060800160405290815f8201548152602001600182015f9054906101000a900473ffffffffffffffffffffffffffffffffffffffff1673ffffffffffffffffffffffffffffffffffffffff1673ffffffffffffffffffffffffffffffffffffffff168152602001600282015f9054906101000a900473ffffffffffffffffffffffffffffffffffffffff1673ffffffffffffffffffffffffffffffffffffffff1673ffffffffffffffffffffffffffffffffffffffff168152602001600382018054806020026020016040519081016040528092919081815260200182805480156140fe57602002820191905f5260205f20905b8154815260200190600101908083116140ea575b5050505050815250509050604051806080016040528060055481526020018673ffffffffffffffffffffffffffffffffffffffff1681526020018573ffffffffffffffffffffffffffffffffffffffff1681526020018260600151815250600c5f60055481526020019081526020015f205f820151815f01556020820151816001015f6101000a81548173ffffffffffffffffffffffffffffffffffffffff021916908373ffffffffffffffffffffffffffffffffffffffff1602179055506040820151816002015f6101000a81548173ffffffffffffffffffffffffffffffffffffffff021916908373ffffffffffffffffffffffffffffffffffffffff160217905550606082015181600301908051906020019061421f929190614231565b50905050600554925050505b92915050565b828054828255905f5260205f2090810192821561426b579160200282015b8281111561426a57825182559160200191906001019061424f565b5b509050614278919061427c565b5090565b5b80821115614293575f815f90555060010161427d565b5090565b5f80fd5b5f73ffffffffffffffffffffffffffffffffffffffff82169050919050565b5f6142c48261429b565b9050919050565b6142d4816142ba565b81146142de575f80fd5b50565b5f813590506142ef816142cb565b92915050565b5f819050919050565b614307816142f5565b8114614311575f80fd5b50565b5f81359050614322816142fe565b92915050565b5f805f80608085870312156143405761433f614297565b5b5f61434d878288016142e1565b945050602061435e87828801614314565b935050604061436f87828801614314565b9250506060614380878288016142e1565b91505092959194509250565b614395816142f5565b82525050565b5f6020820190506143ae5f83018461438c565b92915050565b5f602082840312156143c9576143c8614297565b5b5f6143d6848285016142e1565b91505092915050565b5f8115159050919050565b6143f3816143df565b82525050565b5f60808201905061440c5f83018761438c565b614419602083018661438c565b614426604083018561438c565b61443360608301846143ea565b95945050505050565b5f805f806080858703121561445457614453614297565b5b5f614461878288016142e1565b9450506020614472878288016142e1565b935050604061448387828801614314565b9250506060614494878288016142e1565b91505092959194509250565b5f819050919050565b6144b2816144a0565b82525050565b5f6020820190506144cb5f8301846144a9565b92915050565b6144da816142ba565b82525050565b5f6020820190506144f35f8301846144d1565b92915050565b5f60ff82169050919050565b61450e816144f9565b8114614518575f80fd5b50565b5f8135905061452981614505565b92915050565b5f806040838503121561454557614544614297565b5b5f614552858286016142e1565b92505060206145638582860161451b565b9150509250929050565b5f67ffffffffffffffff82169050919050565b6145898161456d565b82525050565b5f6020820190506145a25f830184614580565b92915050565b6145b1816143df565b81146145bb575f80fd5b50565b5f813590506145cc816145a8565b92915050565b5f602082840312156145e7576145e6614297565b5b5f6145f4848285016145be565b91505092915050565b5f806040838503121561461357614612614297565b5b5f61462085828601614314565b9250506020614631858286016142e1565b9150509250929050565b5f806040838503121561465157614650614297565b5b5f61465e85828601614314565b925050602061466f85828601614314565b9150509250929050565b6146828161456d565b811461468c575f80fd5b50565b5f8135905061469d81614679565b92915050565b5f602082840312156146b8576146b7614297565b5b5f6146c58482850161468f565b91505092915050565b5f602082840312156146e3576146e2614297565b5b5f6146f084828501614314565b91505092915050565b5f60608201905061470c5f83018661438c565b61471960208301856144d1565b61472660408301846144d1565b949350505050565b5f81519050919050565b5f82825260208201905092915050565b5f819050602082019050919050565b614760816142f5565b82525050565b5f6147718383614757565b60208301905092915050565b5f602082019050919050565b5f6147938261472e565b61479d8185614738565b93506147a883614748565b805f5b838110156147d85781516147bf8882614766565b97506147ca8361477d565b9250506001810190506147ab565b5085935050505092915050565b5f6080820190508181035f8301526147fd8187614789565b905081810360208301526148118186614789565b905081810360408301526148258185614789565b905081810360608301526148398184614789565b905095945050505050565b5f805f6060848603121561485b5761485a614297565b5b5f6148688682870161468f565b93505060206148798682870161468f565b925050604061488a86828701614314565b9150509250925092565b5f805f606084860312156148ab576148aa614297565b5b5f6148b8868287016142e1565b93505060206148c9868287016142e1565b92505060406148da86828701614314565b9150509250925092565b5f80604083850312156148fa576148f9614297565b5b5f614907858286016142e1565b9250506020614918858286016142e1565b9150509250929050565b5f6040820190506149355f83018561438c565b614942602083018461438c565b9392505050565b5f60a08201905061495c5f83018861438c565b614969602083018761438c565b614976604083018661438c565b614983606083018561438c565b61499060808301846144d1565b9695505050505050565b7f4e487b71000000000000000000000000000000000000000000000000000000005f52601260045260245ffd5b7f4e487b71000000000000000000000000000000000000000000000000000000005f52601160045260245ffd5b5f6149fe826142f5565b9150614a09836142f5565b925082614a1957614a1861499a565b5b828204905092915050565b5f614a2e826142f5565b9150614a39836142f5565b9250828202614a47816142f5565b91508282048414831517614a5e57614a5d6149c7565b5b5092915050565b5f606082019050614a785f8301866144d1565b614a8560208301856144d1565b614a92604083018461438c565b949350505050565b5f81519050614aa8816145a8565b92915050565b5f60208284031215614ac357614ac2614297565b5b5f614ad084828501614a9a565b91505092915050565b5f82825260208201905092915050565b7f436f6e74726163743a20496e73756666696369656e742042616c616e636500005f82015250565b5f614b1d601e83614ad9565b9150614b2882614ae9565b602082019050919050565b5f6020820190508181035f830152614b4a81614b11565b9050919050565b5f614b5b826142f5565b9150614b66836142f5565b9250828203905081811115614b7e57614b7d6149c7565b5b92915050565b7f416d6f756e7420746f20737761702063616e6e6f74206265206c6573736572205f8201527f7468616e20313030205745490000000000000000000000000000000000000000602082015250565b5f614bde602c83614ad9565b9150614be982614b84565b604082019050919050565b5f6020820190508181035f830152614c0b81614bd2565b9050919050565b7f506f6f6c20646f6573206e6f74206578697374730000000000000000000000005f82015250565b5f614c46601483614ad9565b9150614c5182614c12565b602082019050919050565b5f6020820190508181035f830152614c7381614c3a565b9050919050565b7f496e73756666696369656e7420506f6f6c2053697a65000000000000000000005f82015250565b5f614cae601683614ad9565b9150614cb982614c7a565b602082019050919050565b5f6020820190508181035f830152614cdb81614ca2565b9050919050565b5f614cec826142f5565b9150614cf7836142f5565b9250828201905080821115614d0f57614d0e6149c7565b5b92915050565b5f60a082019050614d285f83018861438c565b614d35602083018761438c565b614d4260408301866144d1565b614d4f60608301856144d1565b614d5c608083018461438c565b9695505050505050565b7f4f6e6c79204465706c6f796572000000000000000000000000000000000000005f82015250565b5f614d9a600d83614ad9565b9150614da582614d66565b602082019050919050565b5f6020820190508181035f830152614dc781614d8e565b9050919050565b7f496e76616c696420546f6b656e204164647265737300000000000000000000005f82015250565b5f614e02601583614ad9565b9150614e0d82614dce565b602082019050919050565b5f6020820190508181035f830152614e2f81614df6565b9050919050565b7f4f6e6c792050726f7669646572000000000000000000000000000000000000005f82015250565b5f614e6a600d83614ad9565b9150614e7582614e36565b602082019050919050565b5f6020820190508181035f830152614e9781614e5e565b9050919050565b7f4f6e6c79204775657374000000000000000000000000000000000000000000005f82015250565b5f614ed2600a83614ad9565b9150614edd82614e9e565b602082019050919050565b5f6020820190508181035f830152614eff81614ec6565b9050919050565b5f614f10826142f5565b91507fffffffffffffffffffffffffffffffffffffffffffffffffffffffffffffffff8203614f4257614f416149c7565b5b600182019050919050565b7f496e76616c6964205061697220416464726573730000000000000000000000005f82015250565b5f614f81601483614ad9565b9150614f8c82614f4d565b602082019050919050565b5f6020820190508181035f830152614fae81614f75565b9050919050565b7f496e73756666696369656e742042616c616e63650000000000000000000000005f82015250565b5f614fe9601483614ad9565b9150614ff482614fb5565b602082019050919050565b5f6020820190508181035f83015261501681614fdd565b9050919050565b5f6040820190506150305f8301856144d1565b61503d602083018461438c565b9392505050565b7f416d6f756e742063616e6e6f74206265206c6573736572207468616e203130305f8201527f2057454900000000000000000000000000000000000000000000000000000000602082015250565b5f61509e602483614ad9565b91506150a982615044565b604082019050919050565b5f6020820190508181035f8301526150cb81615092565b9050919050565b7f4d617469632063616e6e6f74206265206c6573736572207468616e20314f4f205f8201527f5745490000000000000000000000000000000000000000000000000000000000602082015250565b5f61512c602383614ad9565b9150615137826150d2565b604082019050919050565b5f6020820190508181035f83015261515981615120565b9050919050565b5f60c0820190506151735f8301896144d1565b61518060208301886144d1565b61518d604083018761438c565b61519a606083018661438c565b6151a760808301856144d1565b6151b460a083018461438c565b979650505050505050565b7f556e617574686f72697a656400000000000000000000000000000000000000005f82015250565b5f6151f3600c83614ad9565b91506151fe826151bf565b602082019050919050565b5f6020820190508181035f830152615220816151e7565b9050919050565b7f4e487b71000000000000000000000000000000000000000000000000000000005f52603260045260245ffd5b7f506c6174666f726d206665652063616e6e6f74206265207a65726f00000000005f82015250565b5f615288601b83614ad9565b915061529382615254565b602082019050919050565b5f6020820190508181035f8301526152b58161527c565b9050919050565b7f506c6174666f726d206665652063616e6e6f7420626520612068756e647265645f82015250565b5f6152f0602083614ad9565b91506152fb826152bc565b602082019050919050565b5f6020820190508181035f83015261531d816152e4565b9050919050565b7f4e487b71000000000000000000000000000000000000000000000000000000005f52604160045260245ffd5b5f6040820190506153645f830185614580565b6153716020830184614580565b9392505050565b615381816144a0565b811461538b575f80fd5b50565b5f8151905061539c81615378565b92915050565b5f602082840312156153b7576153b6614297565b5b5f6153c48482850161538e565b91505092915050565b7f496e76616c696420506f6f6c20546f6b656e73000000000000000000000000005f82015250565b5f615401601383614ad9565b915061540c826153cd565b602082019050919050565b5f6020820190508181035f83015261542e816153f5565b9050919050565b7f5061697220646f6573206e6f74206578697374732c20436f6e746163742061645f8201527f6d696e0000000000000000000000000000000000000000000000000000000000602082015250565b5f61548f602383614ad9565b915061549a82615435565b604082019050919050565b5f6020820190508181035f8301526154bc81615483565b905091905056fea2646970667358221220d5d328494442397d9cb0990a9ad7825314b92ce39b9dc44bd312902c998128e764736f6c63430008150033a264697066735822122023fcd290453243e4877437ba83d90c5dd9f0777a536eadb798be663527163f5f64736f6c63430008150033",
			"opcodes": "PUSH1 0x80 PUSH1 0x40 MSTORE CALLVALUE DUP1 ISZERO PUSH2 0xF JUMPI PUSH0 DUP1 REVERT JUMPDEST POP PUSH2 0x98EB DUP1 PUSH2 0x1D PUSH0 CODECOPY PUSH0 RETURN INVALID PUSH1 0x80 PUSH1 0x40 MSTORE PUSH1 0x4 CALLDATASIZE LT PUSH3 0x5B JUMPI PUSH0 CALLDATALOAD PUSH1 0xE0 SHR DUP1 PUSH4 0x11E6492 EQ PUSH3 0x5F JUMPI DUP1 PUSH4 0x12D487EA EQ PUSH3 0x78 JUMPI DUP1 PUSH4 0x6331E7D4 EQ PUSH3 0xA7 JUMPI DUP1 PUSH4 0x9074416D EQ PUSH3 0xC0 JUMPI DUP1 PUSH4 0xC71DACCB EQ PUSH3 0xCC JUMPI DUP1 PUSH4 0xFAA5149D EQ PUSH3 0xE5 JUMPI JUMPDEST PUSH0 DUP1 REVERT JUMPDEST CALLVALUE DUP1 ISZERO PUSH3 0x6B JUMPI PUSH0 DUP1 REVERT JUMPDEST POP PUSH3 0x76 PUSH3 0xFE JUMP JUMPDEST STOP JUMPDEST CALLVALUE DUP1 ISZERO PUSH3 0x84 JUMPI PUSH0 DUP1 REVERT JUMPDEST POP PUSH3 0x8F PUSH3 0x27F JUMP JUMPDEST PUSH1 0x40 MLOAD PUSH3 0x9E SWAP2 SWAP1 PUSH3 0x907 JUMP JUMPDEST PUSH1 0x40 MLOAD DUP1 SWAP2 SUB SWAP1 RETURN JUMPDEST CALLVALUE DUP1 ISZERO PUSH3 0xB3 JUMPI PUSH0 DUP1 REVERT JUMPDEST POP PUSH3 0xBE PUSH3 0x287 JUMP JUMPDEST STOP JUMPDEST PUSH3 0xCA PUSH3 0x4D4 JUMP JUMPDEST STOP JUMPDEST CALLVALUE DUP1 ISZERO PUSH3 0xD8 JUMPI PUSH0 DUP1 REVERT JUMPDEST POP PUSH3 0xE3 PUSH3 0x64E JUMP JUMPDEST STOP JUMPDEST CALLVALUE DUP1 ISZERO PUSH3 0xF1 JUMPI PUSH0 DUP1 REVERT JUMPDEST POP PUSH3 0xFC PUSH3 0x792 JUMP JUMPDEST STOP JUMPDEST PUSH20 0x0 PUSH4 0x39DF137F PUSH1 0x2 DUP1 EQ PUSH1 0x40 MLOAD DUP3 PUSH4 0xFFFFFFFF AND PUSH1 0xE0 SHL DUP2 MSTORE PUSH1 0x4 ADD PUSH3 0x13A SWAP2 SWAP1 PUSH3 0x991 JUMP JUMPDEST PUSH1 0x20 PUSH1 0x40 MLOAD DUP1 DUP4 SUB DUP2 DUP7 GAS DELEGATECALL ISZERO DUP1 ISZERO PUSH3 0x156 JUMPI RETURNDATASIZE PUSH0 DUP1 RETURNDATACOPY RETURNDATASIZE PUSH0 REVERT JUMPDEST POP POP POP POP PUSH1 0x40 MLOAD RETURNDATASIZE PUSH1 0x1F NOT PUSH1 0x1F DUP3 ADD AND DUP3 ADD DUP1 PUSH1 0x40 MSTORE POP DUP2 ADD SWAP1 PUSH3 0x17C SWAP2 SWAP1 PUSH3 0x9F4 JUMP JUMPDEST POP PUSH20 0x0 PUSH4 0xA079F1A3 PUSH1 0x2 PUSH1 0x1 PUSH1 0x40 MLOAD DUP4 PUSH4 0xFFFFFFFF AND PUSH1 0xE0 SHL DUP2 MSTORE PUSH1 0x4 ADD PUSH3 0x1BA SWAP3 SWAP2 SWAP1 PUSH3 0xA8C JUMP JUMPDEST PUSH1 0x20 PUSH1 0x40 MLOAD DUP1 DUP4 SUB DUP2 DUP7 GAS DELEGATECALL ISZERO DUP1 ISZERO PUSH3 0x1D6 JUMPI RETURNDATASIZE PUSH0 DUP1 RETURNDATACOPY RETURNDATASIZE PUSH0 REVERT JUMPDEST POP POP POP POP PUSH1 0x40 MLOAD RETURNDATASIZE PUSH1 0x1F NOT PUSH1 0x1F DUP3 ADD AND DUP3 ADD DUP1 PUSH1 0x40 MSTORE POP DUP2 ADD SWAP1 PUSH3 0x1FC SWAP2 SWAP1 PUSH3 0x9F4 JUMP JUMPDEST POP PUSH20 0x0 PUSH4 0xAEA88952 PUSH1 0x2 PUSH1 0x3 PUSH1 0x40 MLOAD DUP4 PUSH4 0xFFFFFFFF AND PUSH1 0xE0 SHL DUP2 MSTORE PUSH1 0x4 ADD PUSH3 0x23A SWAP3 SWAP2 SWAP1 PUSH3 0xB1A JUMP JUMPDEST PUSH1 0x20 PUSH1 0x40 MLOAD DUP1 DUP4 SUB DUP2 DUP7 GAS DELEGATECALL ISZERO DUP1 ISZERO PUSH3 0x256 JUMPI RETURNDATASIZE PUSH0 DUP1 RETURNDATACOPY RETURNDATASIZE PUSH0 REVERT JUMPDEST POP POP POP POP PUSH1 0x40 MLOAD RETURNDATASIZE PUSH1 0x1F NOT PUSH1 0x1F DUP3 ADD AND DUP3 ADD DUP1 PUSH1 0x40 MSTORE POP DUP2 ADD SWAP1 PUSH3 0x27C SWAP2 SWAP1 PUSH3 0x9F4 JUMP JUMPDEST POP JUMP JUMPDEST PUSH0 PUSH1 0x1 SWAP1 POP SWAP1 JUMP JUMPDEST PUSH20 0x0 PUSH4 0xCE88B145 PUSH0 PUSH1 0x40 MLOAD DUP3 PUSH4 0xFFFFFFFF AND PUSH1 0xE0 SHL DUP2 MSTORE PUSH1 0x4 ADD PUSH3 0x2C0 SWAP2 SWAP1 PUSH3 0xBA4 JUMP JUMPDEST PUSH1 0x20 PUSH1 0x40 MLOAD DUP1 DUP4 SUB DUP2 DUP7 GAS DELEGATECALL ISZERO DUP1 ISZERO PUSH3 0x2DC JUMPI RETURNDATASIZE PUSH0 DUP1 RETURNDATACOPY RETURNDATASIZE PUSH0 REVERT JUMPDEST POP POP POP POP PUSH1 0x40 MLOAD RETURNDATASIZE PUSH1 0x1F NOT PUSH1 0x1F DUP3 ADD AND DUP3 ADD DUP1 PUSH1 0x40 MSTORE POP DUP2 ADD SWAP1 PUSH3 0x302 SWAP2 SWAP1 PUSH3 0xC20 JUMP JUMPDEST PUSH1 0x3 PUSH0 PUSH2 0x100 EXP DUP2 SLOAD DUP2 PUSH20 0xFFFFFFFFFFFFFFFFFFFFFFFFFFFFFFFFFFFFFFFF MUL NOT AND SWAP1 DUP4 PUSH20 0xFFFFFFFFFFFFFFFFFFFFFFFFFFFFFFFFFFFFFFFF AND MUL OR SWAP1 SSTORE POP PUSH1 0x40 MLOAD PUSH3 0x34F SWAP1 PUSH3 0x8C1 JUMP JUMPDEST PUSH3 0x35A SWAP1 PUSH3 0xCFC JUMP JUMPDEST PUSH1 0x40 MLOAD DUP1 SWAP2 SUB SWAP1 PUSH0 CREATE DUP1 ISZERO DUP1 ISZERO PUSH3 0x374 JUMPI RETURNDATASIZE PUSH0 DUP1 RETURNDATACOPY RETURNDATASIZE PUSH0 REVERT JUMPDEST POP PUSH0 DUP1 PUSH2 0x100 EXP DUP2 SLOAD DUP2 PUSH20 0xFFFFFFFFFFFFFFFFFFFFFFFFFFFFFFFFFFFFFFFF MUL NOT AND SWAP1 DUP4 PUSH20 0xFFFFFFFFFFFFFFFFFFFFFFFFFFFFFFFFFFFFFFFF AND MUL OR SWAP1 SSTORE POP PUSH20 0xBDE89C550CAE3595792A3D9CD2A7CFAB3267CB6E PUSH1 0x40 MLOAD PUSH3 0x3D6 SWAP1 PUSH3 0x8CF JUMP JUMPDEST PUSH3 0x3E2 SWAP2 SWAP1 PUSH3 0xD8F JUMP JUMPDEST PUSH1 0x40 MLOAD DUP1 SWAP2 SUB SWAP1 PUSH0 CREATE DUP1 ISZERO DUP1 ISZERO PUSH3 0x3FC JUMPI RETURNDATASIZE PUSH0 DUP1 RETURNDATACOPY RETURNDATASIZE PUSH0 REVERT JUMPDEST POP PUSH1 0x1 PUSH0 PUSH2 0x100 EXP DUP2 SLOAD DUP2 PUSH20 0xFFFFFFFFFFFFFFFFFFFFFFFFFFFFFFFFFFFFFFFF MUL NOT AND SWAP1 DUP4 PUSH20 0xFFFFFFFFFFFFFFFFFFFFFFFFFFFFFFFFFFFFFFFF AND MUL OR SWAP1 SSTORE POP PUSH1 0x1 PUSH0 SWAP1 SLOAD SWAP1 PUSH2 0x100 EXP SWAP1 DIV PUSH20 0xFFFFFFFFFFFFFFFFFFFFFFFFFFFFFFFFFFFFFFFF AND PUSH1 0x40 MLOAD PUSH3 0x46C SWAP1 PUSH3 0x8DD JUMP JUMPDEST PUSH3 0x478 SWAP2 SWAP1 PUSH3 0xDBB JUMP JUMPDEST PUSH1 0x40 MLOAD DUP1 SWAP2 SUB SWAP1 PUSH0 CREATE DUP1 ISZERO DUP1 ISZERO PUSH3 0x492 JUMPI RETURNDATASIZE PUSH0 DUP1 RETURNDATACOPY RETURNDATASIZE PUSH0 REVERT JUMPDEST POP PUSH1 0x2 PUSH0 PUSH2 0x100 EXP DUP2 SLOAD DUP2 PUSH20 0xFFFFFFFFFFFFFFFFFFFFFFFFFFFFFFFFFFFFFFFF MUL NOT AND SWAP1 DUP4 PUSH20 0xFFFFFFFFFFFFFFFFFFFFFFFFFFFFFFFFFFFFFFFF AND MUL OR SWAP1 SSTORE POP JUMP JUMPDEST PUSH20 0x0 PUSH4 0xBFBA5DD6 CALLER PUSH20 0x0 PUSH4 0xCE88B145 PUSH1 0x1 PUSH1 0x40 MLOAD DUP3 PUSH4 0xFFFFFFFF AND PUSH1 0xE0 SHL DUP2 MSTORE PUSH1 0x4 ADD PUSH3 0x529 SWAP2 SWAP1 PUSH3 0xE17 JUMP JUMPDEST PUSH1 0x20 PUSH1 0x40 MLOAD DUP1 DUP4 SUB DUP2 DUP7 GAS DELEGATECALL ISZERO DUP1 ISZERO PUSH3 0x545 JUMPI RETURNDATASIZE PUSH0 DUP1 RETURNDATACOPY RETURNDATASIZE PUSH0 REVERT JUMPDEST POP POP POP POP PUSH1 0x40 MLOAD RETURNDATASIZE PUSH1 0x1F NOT PUSH1 0x1F DUP3 ADD AND DUP3 ADD DUP1 PUSH1 0x40 MSTORE POP DUP2 ADD SWAP1 PUSH3 0x56B SWAP2 SWAP1 PUSH3 0xC20 JUMP JUMPDEST PUSH1 0x40 MLOAD DUP4 PUSH4 0xFFFFFFFF AND PUSH1 0xE0 SHL DUP2 MSTORE PUSH1 0x4 ADD PUSH3 0x58A SWAP3 SWAP2 SWAP1 PUSH3 0xE91 JUMP JUMPDEST PUSH1 0x20 PUSH1 0x40 MLOAD DUP1 DUP4 SUB DUP2 DUP7 GAS DELEGATECALL ISZERO DUP1 ISZERO PUSH3 0x5A6 JUMPI RETURNDATASIZE PUSH0 DUP1 RETURNDATACOPY RETURNDATASIZE PUSH0 REVERT JUMPDEST POP POP POP POP PUSH1 0x40 MLOAD RETURNDATASIZE PUSH1 0x1F NOT PUSH1 0x1F DUP3 ADD AND DUP3 ADD DUP1 PUSH1 0x40 MSTORE POP DUP2 ADD SWAP1 PUSH3 0x5CC SWAP2 SWAP1 PUSH3 0x9F4 JUMP JUMPDEST POP PUSH20 0x0 PUSH4 0xABCD7960 CALLVALUE PUSH1 0x64 PUSH1 0x40 MLOAD DUP4 PUSH4 0xFFFFFFFF AND PUSH1 0xE0 SHL DUP2 MSTORE PUSH1 0x4 ADD PUSH3 0x609 SWAP3 SWAP2 SWAP1 PUSH3 0xF60 JUMP JUMPDEST PUSH1 0x20 PUSH1 0x40 MLOAD DUP1 DUP4 SUB DUP2 DUP7 GAS DELEGATECALL ISZERO DUP1 ISZERO PUSH3 0x625 JUMPI RETURNDATASIZE PUSH0 DUP1 RETURNDATACOPY RETURNDATASIZE PUSH0 REVERT JUMPDEST POP POP POP POP PUSH1 0x40 MLOAD RETURNDATASIZE PUSH1 0x1F NOT PUSH1 0x1F DUP3 ADD AND DUP3 ADD DUP1 PUSH1 0x40 MSTORE POP DUP2 ADD SWAP1 PUSH3 0x64B SWAP2 SWAP1 PUSH3 0x9F4 JUMP JUMPDEST POP JUMP JUMPDEST PUSH0 DUP1 PUSH0 SWAP1 SLOAD SWAP1 PUSH2 0x100 EXP SWAP1 DIV PUSH20 0xFFFFFFFFFFFFFFFFFFFFFFFFFFFFFFFFFFFFFFFF AND PUSH20 0xFFFFFFFFFFFFFFFFFFFFFFFFFFFFFFFFFFFFFFFF AND PUSH4 0x70A08231 PUSH1 0x3 PUSH0 SWAP1 SLOAD SWAP1 PUSH2 0x100 EXP SWAP1 DIV PUSH20 0xFFFFFFFFFFFFFFFFFFFFFFFFFFFFFFFFFFFFFFFF AND PUSH1 0x40 MLOAD DUP3 PUSH4 0xFFFFFFFF AND PUSH1 0xE0 SHL DUP2 MSTORE PUSH1 0x4 ADD PUSH3 0x6CB SWAP2 SWAP1 PUSH3 0xDBB JUMP JUMPDEST PUSH1 0x20 PUSH1 0x40 MLOAD DUP1 DUP4 SUB DUP2 DUP7 GAS STATICCALL ISZERO DUP1 ISZERO PUSH3 0x6E7 JUMPI RETURNDATASIZE PUSH0 DUP1 RETURNDATACOPY RETURNDATASIZE PUSH0 REVERT JUMPDEST POP POP POP POP PUSH1 0x40 MLOAD RETURNDATASIZE PUSH1 0x1F NOT PUSH1 0x1F DUP3 ADD AND DUP3 ADD DUP1 PUSH1 0x40 MSTORE POP DUP2 ADD SWAP1 PUSH3 0x70D SWAP2 SWAP1 PUSH3 0xFCF JUMP JUMPDEST SWAP1 POP PUSH0 PUSH20 0x0 PUSH4 0xABCD7960 DUP4 DUP4 PUSH1 0x40 MLOAD DUP4 PUSH4 0xFFFFFFFF AND PUSH1 0xE0 SHL DUP2 MSTORE PUSH1 0x4 ADD PUSH3 0x74B SWAP3 SWAP2 SWAP1 PUSH3 0x1073 JUMP JUMPDEST PUSH1 0x20 PUSH1 0x40 MLOAD DUP1 DUP4 SUB DUP2 DUP7 GAS DELEGATECALL ISZERO DUP1 ISZERO PUSH3 0x767 JUMPI RETURNDATASIZE PUSH0 DUP1 RETURNDATACOPY RETURNDATASIZE PUSH0 REVERT JUMPDEST POP POP POP POP PUSH1 0x40 MLOAD RETURNDATASIZE PUSH1 0x1F NOT PUSH1 0x1F DUP3 ADD AND DUP3 ADD DUP1 PUSH1 0x40 MSTORE POP DUP2 ADD SWAP1 PUSH3 0x78D SWAP2 SWAP1 PUSH3 0x9F4 JUMP JUMPDEST POP POP POP JUMP JUMPDEST PUSH0 DUP1 PUSH0 SWAP1 SLOAD SWAP1 PUSH2 0x100 EXP SWAP1 DIV PUSH20 0xFFFFFFFFFFFFFFFFFFFFFFFFFFFFFFFFFFFFFFFF AND PUSH20 0xFFFFFFFFFFFFFFFFFFFFFFFFFFFFFFFFFFFFFFFF AND PUSH4 0x64614C71 PUSH1 0x2 PUSH1 0x40 MLOAD DUP3 PUSH4 0xFFFFFFFF AND PUSH1 0xE0 SHL DUP2 MSTORE PUSH1 0x4 ADD PUSH3 0x7EF SWAP2 SWAP1 PUSH3 0x10F4 JUMP JUMPDEST PUSH1 0x20 PUSH1 0x40 MLOAD DUP1 DUP4 SUB DUP2 DUP7 GAS STATICCALL ISZERO DUP1 ISZERO PUSH3 0x80B JUMPI RETURNDATASIZE PUSH0 DUP1 RETURNDATACOPY RETURNDATASIZE PUSH0 REVERT JUMPDEST POP POP POP POP PUSH1 0x40 MLOAD RETURNDATASIZE PUSH1 0x1F NOT PUSH1 0x1F DUP3 ADD AND DUP3 ADD DUP1 PUSH1 0x40 MSTORE POP DUP2 ADD SWAP1 PUSH3 0x831 SWAP2 SWAP1 PUSH3 0xFCF JUMP JUMPDEST SWAP1 POP PUSH0 PUSH8 0x1BC16D674EC80000 SWAP1 POP PUSH20 0x0 PUSH4 0xABCD7960 DUP4 DUP4 PUSH1 0x40 MLOAD DUP4 PUSH4 0xFFFFFFFF AND PUSH1 0xE0 SHL DUP2 MSTORE PUSH1 0x4 ADD PUSH3 0x87A SWAP3 SWAP2 SWAP1 PUSH3 0x115D JUMP JUMPDEST PUSH1 0x20 PUSH1 0x40 MLOAD DUP1 DUP4 SUB DUP2 DUP7 GAS DELEGATECALL ISZERO DUP1 ISZERO PUSH3 0x896 JUMPI RETURNDATASIZE PUSH0 DUP1 RETURNDATACOPY RETURNDATASIZE PUSH0 REVERT JUMPDEST POP POP POP POP PUSH1 0x40 MLOAD RETURNDATASIZE PUSH1 0x1F NOT PUSH1 0x1F DUP3 ADD AND DUP3 ADD DUP1 PUSH1 0x40 MSTORE POP DUP2 ADD SWAP1 PUSH3 0x8BC SWAP2 SWAP1 PUSH3 0x9F4 JUMP JUMPDEST POP POP POP JUMP JUMPDEST PUSH2 0x2158 DUP1 PUSH3 0x119E DUP4 CODECOPY ADD SWAP1 JUMP JUMPDEST PUSH2 0xF62 DUP1 PUSH3 0x32F6 DUP4 CODECOPY ADD SWAP1 JUMP JUMPDEST PUSH2 0x565E DUP1 PUSH3 0x4258 DUP4 CODECOPY ADD SWAP1 JUMP JUMPDEST PUSH0 DUP2 ISZERO ISZERO SWAP1 POP SWAP2 SWAP1 POP JUMP JUMPDEST PUSH3 0x901 DUP2 PUSH3 0x8EB JUMP JUMPDEST DUP3 MSTORE POP POP JUMP JUMPDEST PUSH0 PUSH1 0x20 DUP3 ADD SWAP1 POP PUSH3 0x91C PUSH0 DUP4 ADD DUP5 PUSH3 0x8F6 JUMP JUMPDEST SWAP3 SWAP2 POP POP JUMP JUMPDEST PUSH3 0x92D DUP2 PUSH3 0x8EB JUMP JUMPDEST DUP3 MSTORE POP POP JUMP JUMPDEST PUSH0 DUP3 DUP3 MSTORE PUSH1 0x20 DUP3 ADD SWAP1 POP SWAP3 SWAP2 POP POP JUMP JUMPDEST PUSH32 0x73686F756C642062652074727565000000000000000000000000000000000000 PUSH0 DUP3 ADD MSTORE POP JUMP JUMPDEST PUSH0 PUSH3 0x979 PUSH1 0xE DUP4 PUSH3 0x933 JUMP JUMPDEST SWAP2 POP PUSH3 0x986 DUP3 PUSH3 0x943 JUMP JUMPDEST PUSH1 0x20 DUP3 ADD SWAP1 POP SWAP2 SWAP1 POP JUMP JUMPDEST PUSH0 PUSH1 0x40 DUP3 ADD SWAP1 POP PUSH3 0x9A6 PUSH0 DUP4 ADD DUP5 PUSH3 0x922 JUMP JUMPDEST DUP2 DUP2 SUB PUSH1 0x20 DUP4 ADD MSTORE PUSH3 0x9B9 DUP2 PUSH3 0x96B JUMP JUMPDEST SWAP1 POP SWAP3 SWAP2 POP POP JUMP JUMPDEST PUSH0 DUP1 REVERT JUMPDEST PUSH3 0x9D0 DUP2 PUSH3 0x8EB JUMP JUMPDEST DUP2 EQ PUSH3 0x9DB JUMPI PUSH0 DUP1 REVERT JUMPDEST POP JUMP JUMPDEST PUSH0 DUP2 MLOAD SWAP1 POP PUSH3 0x9EE DUP2 PUSH3 0x9C5 JUMP JUMPDEST SWAP3 SWAP2 POP POP JUMP JUMPDEST PUSH0 PUSH1 0x20 DUP3 DUP5 SUB SLT ISZERO PUSH3 0xA0C JUMPI PUSH3 0xA0B PUSH3 0x9C1 JUMP JUMPDEST JUMPDEST PUSH0 PUSH3 0xA1B DUP5 DUP3 DUP6 ADD PUSH3 0x9DE JUMP JUMPDEST SWAP2 POP POP SWAP3 SWAP2 POP POP JUMP JUMPDEST PUSH0 DUP2 SWAP1 POP SWAP2 SWAP1 POP JUMP JUMPDEST PUSH3 0xA38 DUP2 PUSH3 0xA24 JUMP JUMPDEST DUP3 MSTORE POP POP JUMP JUMPDEST PUSH32 0x322073686F756C642062652067726561746572207468616E20746F2031000000 PUSH0 DUP3 ADD MSTORE POP JUMP JUMPDEST PUSH0 PUSH3 0xA74 PUSH1 0x1D DUP4 PUSH3 0x933 JUMP JUMPDEST SWAP2 POP PUSH3 0xA81 DUP3 PUSH3 0xA3E JUMP JUMPDEST PUSH1 0x20 DUP3 ADD SWAP1 POP SWAP2 SWAP1 POP JUMP JUMPDEST PUSH0 PUSH1 0x60 DUP3 ADD SWAP1 POP PUSH3 0xAA1 PUSH0 DUP4 ADD DUP6 PUSH3 0xA2D JUMP JUMPDEST PUSH3 0xAB0 PUSH1 0x20 DUP4 ADD DUP5 PUSH3 0xA2D JUMP JUMPDEST DUP2 DUP2 SUB PUSH1 0x40 DUP4 ADD MSTORE PUSH3 0xAC3 DUP2 PUSH3 0xA66 JUMP JUMPDEST SWAP1 POP SWAP4 SWAP3 POP POP POP JUMP JUMPDEST PUSH32 0x322073686F756C64206265206C6573736572207468616E20746F203300000000 PUSH0 DUP3 ADD MSTORE POP JUMP JUMPDEST PUSH0 PUSH3 0xB02 PUSH1 0x1C DUP4 PUSH3 0x933 JUMP JUMPDEST SWAP2 POP PUSH3 0xB0F DUP3 PUSH3 0xACC JUMP JUMPDEST PUSH1 0x20 DUP3 ADD SWAP1 POP SWAP2 SWAP1 POP JUMP JUMPDEST PUSH0 PUSH1 0x60 DUP3 ADD SWAP1 POP PUSH3 0xB2F PUSH0 DUP4 ADD DUP6 PUSH3 0xA2D JUMP JUMPDEST PUSH3 0xB3E PUSH1 0x20 DUP4 ADD DUP5 PUSH3 0xA2D JUMP JUMPDEST DUP2 DUP2 SUB PUSH1 0x40 DUP4 ADD MSTORE PUSH3 0xB51 DUP2 PUSH3 0xAF4 JUMP JUMPDEST SWAP1 POP SWAP4 SWAP3 POP POP POP JUMP JUMPDEST PUSH0 DUP2 SWAP1 POP SWAP2 SWAP1 POP JUMP JUMPDEST PUSH0 DUP2 SWAP1 POP SWAP2 SWAP1 POP JUMP JUMPDEST PUSH0 PUSH3 0xB8C PUSH3 0xB86 PUSH3 0xB80 DUP5 PUSH3 0xB5A JUMP JUMPDEST PUSH3 0xB63 JUMP JUMPDEST PUSH3 0xA24 JUMP JUMPDEST SWAP1 POP SWAP2 SWAP1 POP JUMP JUMPDEST PUSH3 0xB9E DUP2 PUSH3 0xB6C JUMP JUMPDEST DUP3 MSTORE POP POP JUMP JUMPDEST PUSH0 PUSH1 0x20 DUP3 ADD SWAP1 POP PUSH3 0xBB9 PUSH0 DUP4 ADD DUP5 PUSH3 0xB93 JUMP JUMPDEST SWAP3 SWAP2 POP POP JUMP JUMPDEST PUSH0 PUSH20 0xFFFFFFFFFFFFFFFFFFFFFFFFFFFFFFFFFFFFFFFF DUP3 AND SWAP1 POP SWAP2 SWAP1 POP JUMP JUMPDEST PUSH0 PUSH3 0xBEA DUP3 PUSH3 0xBBF JUMP JUMPDEST SWAP1 POP SWAP2 SWAP1 POP JUMP JUMPDEST PUSH3 0xBFC DUP2 PUSH3 0xBDE JUMP JUMPDEST DUP2 EQ PUSH3 0xC07 JUMPI PUSH0 DUP1 REVERT JUMPDEST POP JUMP JUMPDEST PUSH0 DUP2 MLOAD SWAP1 POP PUSH3 0xC1A DUP2 PUSH3 0xBF1 JUMP JUMPDEST SWAP3 SWAP2 POP POP JUMP JUMPDEST PUSH0 PUSH1 0x20 DUP3 DUP5 SUB SLT ISZERO PUSH3 0xC38 JUMPI PUSH3 0xC37 PUSH3 0x9C1 JUMP JUMPDEST JUMPDEST PUSH0 PUSH3 0xC47 DUP5 DUP3 DUP6 ADD PUSH3 0xC0A JUMP JUMPDEST SWAP2 POP POP SWAP3 SWAP2 POP POP JUMP JUMPDEST PUSH0 DUP3 DUP3 MSTORE PUSH1 0x20 DUP3 ADD SWAP1 POP SWAP3 SWAP2 POP POP JUMP JUMPDEST PUSH32 0x544553542D544F4B454E00000000000000000000000000000000000000000000 PUSH0 DUP3 ADD MSTORE POP JUMP JUMPDEST PUSH0 PUSH3 0xC96 PUSH1 0xA DUP4 PUSH3 0xC50 JUMP JUMPDEST SWAP2 POP PUSH3 0xCA3 DUP3 PUSH3 0xC60 JUMP JUMPDEST PUSH1 0x20 DUP3 ADD SWAP1 POP SWAP2 SWAP1 POP JUMP JUMPDEST PUSH32 0x5453540000000000000000000000000000000000000000000000000000000000 PUSH0 DUP3 ADD MSTORE POP JUMP JUMPDEST PUSH0 PUSH3 0xCE4 PUSH1 0x3 DUP4 PUSH3 0xC50 JUMP JUMPDEST SWAP2 POP PUSH3 0xCF1 DUP3 PUSH3 0xCAE JUMP JUMPDEST PUSH1 0x20 DUP3 ADD SWAP1 POP SWAP2 SWAP1 POP JUMP JUMPDEST PUSH0 PUSH1 0x40 DUP3 ADD SWAP1 POP DUP2 DUP2 SUB PUSH0 DUP4 ADD MSTORE PUSH3 0xD15 DUP2 PUSH3 0xC88 JUMP JUMPDEST SWAP1 POP DUP2 DUP2 SUB PUSH1 0x20 DUP4 ADD MSTORE PUSH3 0xD2A DUP2 PUSH3 0xCD6 JUMP JUMPDEST SWAP1 POP SWAP2 SWAP1 POP JUMP JUMPDEST PUSH0 PUSH3 0xD51 PUSH3 0xD4B PUSH3 0xD45 DUP5 PUSH3 0xBBF JUMP JUMPDEST PUSH3 0xB63 JUMP JUMPDEST PUSH3 0xBBF JUMP JUMPDEST SWAP1 POP SWAP2 SWAP1 POP JUMP JUMPDEST PUSH0 PUSH3 0xD64 DUP3 PUSH3 0xD31 JUMP JUMPDEST SWAP1 POP SWAP2 SWAP1 POP JUMP JUMPDEST PUSH0 PUSH3 0xD77 DUP3 PUSH3 0xD58 JUMP JUMPDEST SWAP1 POP SWAP2 SWAP1 POP JUMP JUMPDEST PUSH3 0xD89 DUP2 PUSH3 0xD6B JUMP JUMPDEST DUP3 MSTORE POP POP JUMP JUMPDEST PUSH0 PUSH1 0x20 DUP3 ADD SWAP1 POP PUSH3 0xDA4 PUSH0 DUP4 ADD DUP5 PUSH3 0xD7E JUMP JUMPDEST SWAP3 SWAP2 POP POP JUMP JUMPDEST PUSH3 0xDB5 DUP2 PUSH3 0xBDE JUMP JUMPDEST DUP3 MSTORE POP POP JUMP JUMPDEST PUSH0 PUSH1 0x20 DUP3 ADD SWAP1 POP PUSH3 0xDD0 PUSH0 DUP4 ADD DUP5 PUSH3 0xDAA JUMP JUMPDEST SWAP3 SWAP2 POP POP JUMP JUMPDEST PUSH0 DUP2 SWAP1 POP SWAP2 SWAP1 POP JUMP JUMPDEST PUSH0 PUSH3 0xDFF PUSH3 0xDF9 PUSH3 0xDF3 DUP5 PUSH3 0xDD6 JUMP JUMPDEST PUSH3 0xB63 JUMP JUMPDEST PUSH3 0xA24 JUMP JUMPDEST SWAP1 POP SWAP2 SWAP1 POP JUMP JUMPDEST PUSH3 0xE11 DUP2 PUSH3 0xDDF JUMP JUMPDEST DUP3 MSTORE POP POP JUMP JUMPDEST PUSH0 PUSH1 0x20 DUP3 ADD SWAP1 POP PUSH3 0xE2C PUSH0 DUP4 ADD DUP5 PUSH3 0xE06 JUMP JUMPDEST SWAP3 SWAP2 POP POP JUMP JUMPDEST PUSH3 0xE3D DUP2 PUSH3 0xBDE JUMP JUMPDEST DUP3 MSTORE POP POP JUMP JUMPDEST PUSH32 0x496E76616C69642073656E646572000000000000000000000000000000000000 PUSH0 DUP3 ADD MSTORE POP JUMP JUMPDEST PUSH0 PUSH3 0xE79 PUSH1 0xE DUP4 PUSH3 0x933 JUMP JUMPDEST SWAP2 POP PUSH3 0xE86 DUP3 PUSH3 0xE43 JUMP JUMPDEST PUSH1 0x20 DUP3 ADD SWAP1 POP SWAP2 SWAP1 POP JUMP JUMPDEST PUSH0 PUSH1 0x60 DUP3 ADD SWAP1 POP PUSH3 0xEA6 PUSH0 DUP4 ADD DUP6 PUSH3 0xE32 JUMP JUMPDEST PUSH3 0xEB5 PUSH1 0x20 DUP4 ADD DUP5 PUSH3 0xE32 JUMP JUMPDEST DUP2 DUP2 SUB PUSH1 0x40 DUP4 ADD MSTORE PUSH3 0xEC8 DUP2 PUSH3 0xE6B JUMP JUMPDEST SWAP1 POP SWAP4 SWAP3 POP POP POP JUMP JUMPDEST PUSH0 DUP2 SWAP1 POP SWAP2 SWAP1 POP JUMP JUMPDEST PUSH0 PUSH3 0xEFA PUSH3 0xEF4 PUSH3 0xEEE DUP5 PUSH3 0xED1 JUMP JUMPDEST PUSH3 0xB63 JUMP JUMPDEST PUSH3 0xA24 JUMP JUMPDEST SWAP1 POP SWAP2 SWAP1 POP JUMP JUMPDEST PUSH3 0xF0C DUP2 PUSH3 0xEDA JUMP JUMPDEST DUP3 MSTORE POP POP JUMP JUMPDEST PUSH32 0x496E76616C69642076616C756500000000000000000000000000000000000000 PUSH0 DUP3 ADD MSTORE POP JUMP JUMPDEST PUSH0 PUSH3 0xF48 PUSH1 0xD DUP4 PUSH3 0x933 JUMP JUMPDEST SWAP2 POP PUSH3 0xF55 DUP3 PUSH3 0xF12 JUMP JUMPDEST PUSH1 0x20 DUP3 ADD SWAP1 POP SWAP2 SWAP1 POP JUMP JUMPDEST PUSH0 PUSH1 0x60 DUP3 ADD SWAP1 POP PUSH3 0xF75 PUSH0 DUP4 ADD DUP6 PUSH3 0xA2D JUMP JUMPDEST PUSH3 0xF84 PUSH1 0x20 DUP4 ADD DUP5 PUSH3 0xF01 JUMP JUMPDEST DUP2 DUP2 SUB PUSH1 0x40 DUP4 ADD MSTORE PUSH3 0xF97 DUP2 PUSH3 0xF3A JUMP JUMPDEST SWAP1 POP SWAP4 SWAP3 POP POP POP JUMP JUMPDEST PUSH3 0xFAB DUP2 PUSH3 0xA24 JUMP JUMPDEST DUP2 EQ PUSH3 0xFB6 JUMPI PUSH0 DUP1 REVERT JUMPDEST POP JUMP JUMPDEST PUSH0 DUP2 MLOAD SWAP1 POP PUSH3 0xFC9 DUP2 PUSH3 0xFA0 JUMP JUMPDEST SWAP3 SWAP2 POP POP JUMP JUMPDEST PUSH0 PUSH1 0x20 DUP3 DUP5 SUB SLT ISZERO PUSH3 0xFE7 JUMPI PUSH3 0xFE6 PUSH3 0x9C1 JUMP JUMPDEST JUMPDEST PUSH0 PUSH3 0xFF6 DUP5 DUP3 DUP6 ADD PUSH3 0xFB9 JUMP JUMPDEST SWAP2 POP POP SWAP3 SWAP2 POP POP JUMP JUMPDEST PUSH32 0x546F6B656E2062616C616E636520646F6573206E6F74206D6174636820657870 PUSH0 DUP3 ADD MSTORE PUSH32 0x65637465642062616C616E636500000000000000000000000000000000000000 PUSH1 0x20 DUP3 ADD MSTORE POP JUMP JUMPDEST PUSH0 PUSH3 0x105B PUSH1 0x2D DUP4 PUSH3 0x933 JUMP JUMPDEST SWAP2 POP PUSH3 0x1068 DUP3 PUSH3 0xFFF JUMP JUMPDEST PUSH1 0x40 DUP3 ADD SWAP1 POP SWAP2 SWAP1 POP JUMP JUMPDEST PUSH0 PUSH1 0x60 DUP3 ADD SWAP1 POP PUSH3 0x1088 PUSH0 DUP4 ADD DUP6 PUSH3 0xA2D JUMP JUMPDEST PUSH3 0x1097 PUSH1 0x20 DUP4 ADD DUP5 PUSH3 0xA2D JUMP JUMPDEST DUP2 DUP2 SUB PUSH1 0x40 DUP4 ADD MSTORE PUSH3 0x10AA DUP2 PUSH3 0x104D JUMP JUMPDEST SWAP1 POP SWAP4 SWAP3 POP POP POP JUMP JUMPDEST PUSH0 DUP2 SWAP1 POP SWAP2 SWAP1 POP JUMP JUMPDEST PUSH0 PUSH3 0x10DC PUSH3 0x10D6 PUSH3 0x10D0 DUP5 PUSH3 0x10B3 JUMP JUMPDEST PUSH3 0xB63 JUMP JUMPDEST PUSH3 0xA24 JUMP JUMPDEST SWAP1 POP SWAP2 SWAP1 POP JUMP JUMPDEST PUSH3 0x10EE DUP2 PUSH3 0x10BC JUMP JUMPDEST DUP3 MSTORE POP POP JUMP JUMPDEST PUSH0 PUSH1 0x20 DUP3 ADD SWAP1 POP PUSH3 0x1109 PUSH0 DUP4 ADD DUP5 PUSH3 0x10E3 JUMP JUMPDEST SWAP3 SWAP2 POP POP JUMP JUMPDEST PUSH32 0x56616C756520696E20776569206973206E6F7420617320657870656374656400 PUSH0 DUP3 ADD MSTORE POP JUMP JUMPDEST PUSH0 PUSH3 0x1145 PUSH1 0x1F DUP4 PUSH3 0x933 JUMP JUMPDEST SWAP2 POP PUSH3 0x1152 DUP3 PUSH3 0x110F JUMP JUMPDEST PUSH1 0x20 DUP3 ADD SWAP1 POP SWAP2 SWAP1 POP JUMP JUMPDEST PUSH0 PUSH1 0x60 DUP3 ADD SWAP1 POP PUSH3 0x1172 PUSH0 DUP4 ADD DUP6 PUSH3 0xA2D JUMP JUMPDEST PUSH3 0x1181 PUSH1 0x20 DUP4 ADD DUP5 PUSH3 0xA2D JUMP JUMPDEST DUP2 DUP2 SUB PUSH1 0x40 DUP4 ADD MSTORE PUSH3 0x1194 DUP2 PUSH3 0x1137 JUMP JUMPDEST SWAP1 POP SWAP4 SWAP3 POP POP POP JUMP INVALID PUSH1 0x80 PUSH1 0x40 MSTORE PUSH3 0x17 PUSH2 0x2710 PUSH3 0xCA PUSH1 0x20 SHL PUSH1 0x20 SHR JUMP JUMPDEST PUSH1 0x5 SSTORE CALLVALUE DUP1 ISZERO PUSH3 0x26 JUMPI PUSH0 DUP1 REVERT JUMPDEST POP PUSH1 0x40 MLOAD PUSH3 0x2158 CODESIZE SUB DUP1 PUSH3 0x2158 DUP4 CODECOPY DUP2 DUP2 ADD PUSH1 0x40 MSTORE DUP2 ADD SWAP1 PUSH3 0x4C SWAP2 SWAP1 PUSH3 0x3F9 JUMP JUMPDEST DUP2 DUP2 DUP2 PUSH1 0x3 SWAP1 DUP2 PUSH3 0x5F SWAP2 SWAP1 PUSH3 0x6B3 JUMP JUMPDEST POP DUP1 PUSH1 0x4 SWAP1 DUP2 PUSH3 0x71 SWAP2 SWAP1 PUSH3 0x6B3 JUMP JUMPDEST POP POP POP PUSH3 0x9B CALLER PUSH3 0x8F PUSH5 0xBA43B7400 PUSH3 0xCA PUSH1 0x20 SHL PUSH1 0x20 SHR JUMP JUMPDEST PUSH3 0xFD PUSH1 0x20 SHL PUSH1 0x20 SHR JUMP JUMPDEST PUSH3 0xC2 ADDRESS PUSH3 0xB6 PUSH5 0xBA43B7400 PUSH3 0xCA PUSH1 0x20 SHL PUSH1 0x20 SHR JUMP JUMPDEST PUSH3 0xFD PUSH1 0x20 SHL PUSH1 0x20 SHR JUMP JUMPDEST POP POP PUSH3 0xA9E JUMP JUMPDEST PUSH0 PUSH3 0xDB PUSH3 0x262 PUSH1 0x20 SHL PUSH1 0x20 SHR JUMP JUMPDEST PUSH1 0xA PUSH3 0xE9 SWAP2 SWAP1 PUSH3 0x920 JUMP JUMPDEST DUP3 PUSH3 0xF6 SWAP2 SWAP1 PUSH3 0x970 JUMP JUMPDEST SWAP1 POP SWAP2 SWAP1 POP JUMP JUMPDEST PUSH0 PUSH20 0xFFFFFFFFFFFFFFFFFFFFFFFFFFFFFFFFFFFFFFFF AND DUP3 PUSH20 0xFFFFFFFFFFFFFFFFFFFFFFFFFFFFFFFFFFFFFFFF AND SUB PUSH3 0x16E JUMPI PUSH1 0x40 MLOAD PUSH32 0x8C379A000000000000000000000000000000000000000000000000000000000 DUP2 MSTORE PUSH1 0x4 ADD PUSH3 0x165 SWAP1 PUSH3 0xA18 JUMP JUMPDEST PUSH1 0x40 MLOAD DUP1 SWAP2 SUB SWAP1 REVERT JUMPDEST PUSH3 0x181 PUSH0 DUP4 DUP4 PUSH3 0x26A PUSH1 0x20 SHL PUSH1 0x20 SHR JUMP JUMPDEST DUP1 PUSH1 0x2 PUSH0 DUP3 DUP3 SLOAD PUSH3 0x194 SWAP2 SWAP1 PUSH3 0xA38 JUMP JUMPDEST SWAP3 POP POP DUP2 SWAP1 SSTORE POP DUP1 PUSH0 DUP1 DUP5 PUSH20 0xFFFFFFFFFFFFFFFFFFFFFFFFFFFFFFFFFFFFFFFF AND PUSH20 0xFFFFFFFFFFFFFFFFFFFFFFFFFFFFFFFFFFFFFFFF AND DUP2 MSTORE PUSH1 0x20 ADD SWAP1 DUP2 MSTORE PUSH1 0x20 ADD PUSH0 KECCAK256 PUSH0 DUP3 DUP3 SLOAD ADD SWAP3 POP POP DUP2 SWAP1 SSTORE POP DUP2 PUSH20 0xFFFFFFFFFFFFFFFFFFFFFFFFFFFFFFFFFFFFFFFF AND PUSH0 PUSH20 0xFFFFFFFFFFFFFFFFFFFFFFFFFFFFFFFFFFFFFFFF AND PUSH32 0xDDF252AD1BE2C89B69C2B068FC378DAA952BA7F163C4A11628F55A4DF523B3EF DUP4 PUSH1 0x40 MLOAD PUSH3 0x243 SWAP2 SWAP1 PUSH3 0xA83 JUMP JUMPDEST PUSH1 0x40 MLOAD DUP1 SWAP2 SUB SWAP1 LOG3 PUSH3 0x25E PUSH0 DUP4 DUP4 PUSH3 0x26F PUSH1 0x20 SHL PUSH1 0x20 SHR JUMP JUMPDEST POP POP JUMP JUMPDEST PUSH0 PUSH1 0x12 SWAP1 POP SWAP1 JUMP JUMPDEST POP POP POP JUMP JUMPDEST POP POP POP JUMP JUMPDEST PUSH0 PUSH1 0x40 MLOAD SWAP1 POP SWAP1 JUMP JUMPDEST PUSH0 DUP1 REVERT JUMPDEST PUSH0 DUP1 REVERT JUMPDEST PUSH0 DUP1 REVERT JUMPDEST PUSH0 DUP1 REVERT JUMPDEST PUSH0 PUSH1 0x1F NOT PUSH1 0x1F DUP4 ADD AND SWAP1 POP SWAP2 SWAP1 POP JUMP JUMPDEST PUSH32 0x4E487B7100000000000000000000000000000000000000000000000000000000 PUSH0 MSTORE PUSH1 0x41 PUSH1 0x4 MSTORE PUSH1 0x24 PUSH0 REVERT JUMPDEST PUSH3 0x2D5 DUP3 PUSH3 0x28D JUMP JUMPDEST DUP2 ADD DUP2 DUP2 LT PUSH8 0xFFFFFFFFFFFFFFFF DUP3 GT OR ISZERO PUSH3 0x2F7 JUMPI PUSH3 0x2F6 PUSH3 0x29D JUMP JUMPDEST JUMPDEST DUP1 PUSH1 0x40 MSTORE POP POP POP JUMP JUMPDEST PUSH0 PUSH3 0x30B PUSH3 0x274 JUMP JUMPDEST SWAP1 POP PUSH3 0x319 DUP3 DUP3 PUSH3 0x2CA JUMP JUMPDEST SWAP2 SWAP1 POP JUMP JUMPDEST PUSH0 PUSH8 0xFFFFFFFFFFFFFFFF DUP3 GT ISZERO PUSH3 0x33B JUMPI PUSH3 0x33A PUSH3 0x29D JUMP JUMPDEST JUMPDEST PUSH3 0x346 DUP3 PUSH3 0x28D JUMP JUMPDEST SWAP1 POP PUSH1 0x20 DUP2 ADD SWAP1 POP SWAP2 SWAP1 POP JUMP JUMPDEST PUSH0 JUMPDEST DUP4 DUP2 LT ISZERO PUSH3 0x372 JUMPI DUP1 DUP3 ADD MLOAD DUP2 DUP5 ADD MSTORE PUSH1 0x20 DUP2 ADD SWAP1 POP PUSH3 0x355 JUMP JUMPDEST PUSH0 DUP5 DUP5 ADD MSTORE POP POP POP POP JUMP JUMPDEST PUSH0 PUSH3 0x393 PUSH3 0x38D DUP5 PUSH3 0x31E JUMP JUMPDEST PUSH3 0x300 JUMP JUMPDEST SWAP1 POP DUP3 DUP2 MSTORE PUSH1 0x20 DUP2 ADD DUP5 DUP5 DUP5 ADD GT ISZERO PUSH3 0x3B2 JUMPI PUSH3 0x3B1 PUSH3 0x289 JUMP JUMPDEST JUMPDEST PUSH3 0x3BF DUP5 DUP3 DUP6 PUSH3 0x353 JUMP JUMPDEST POP SWAP4 SWAP3 POP POP POP JUMP JUMPDEST PUSH0 DUP3 PUSH1 0x1F DUP4 ADD SLT PUSH3 0x3DE JUMPI PUSH3 0x3DD PUSH3 0x285 JUMP JUMPDEST JUMPDEST DUP2 MLOAD PUSH3 0x3F0 DUP5 DUP3 PUSH1 0x20 DUP7 ADD PUSH3 0x37D JUMP JUMPDEST SWAP2 POP POP SWAP3 SWAP2 POP POP JUMP JUMPDEST PUSH0 DUP1 PUSH1 0x40 DUP4 DUP6 SUB SLT ISZERO PUSH3 0x412 JUMPI PUSH3 0x411 PUSH3 0x27D JUMP JUMPDEST JUMPDEST PUSH0 DUP4 ADD MLOAD PUSH8 0xFFFFFFFFFFFFFFFF DUP2 GT ISZERO PUSH3 0x432 JUMPI PUSH3 0x431 PUSH3 0x281 JUMP JUMPDEST JUMPDEST PUSH3 0x440 DUP6 DUP3 DUP7 ADD PUSH3 0x3C7 JUMP JUMPDEST SWAP3 POP POP PUSH1 0x20 DUP4 ADD MLOAD PUSH8 0xFFFFFFFFFFFFFFFF DUP2 GT ISZERO PUSH3 0x464 JUMPI PUSH3 0x463 PUSH3 0x281 JUMP JUMPDEST JUMPDEST PUSH3 0x472 DUP6 DUP3 DUP7 ADD PUSH3 0x3C7 JUMP JUMPDEST SWAP2 POP POP SWAP3 POP SWAP3 SWAP1 POP JUMP JUMPDEST PUSH0 DUP2 MLOAD SWAP1 POP SWAP2 SWAP1 POP JUMP JUMPDEST PUSH32 0x4E487B7100000000000000000000000000000000000000000000000000000000 PUSH0 MSTORE PUSH1 0x22 PUSH1 0x4 MSTORE PUSH1 0x24 PUSH0 REVERT JUMPDEST PUSH0 PUSH1 0x2 DUP3 DIV SWAP1 POP PUSH1 0x1 DUP3 AND DUP1 PUSH3 0x4CB JUMPI PUSH1 0x7F DUP3 AND SWAP2 POP JUMPDEST PUSH1 0x20 DUP3 LT DUP2 SUB PUSH3 0x4E1 JUMPI PUSH3 0x4E0 PUSH3 0x486 JUMP JUMPDEST JUMPDEST POP SWAP2 SWAP1 POP JUMP JUMPDEST PUSH0 DUP2 SWAP1 POP DUP2 PUSH0 MSTORE PUSH1 0x20 PUSH0 KECCAK256 SWAP1 POP SWAP2 SWAP1 POP JUMP JUMPDEST PUSH0 PUSH1 0x20 PUSH1 0x1F DUP4 ADD DIV SWAP1 POP SWAP2 SWAP1 POP JUMP JUMPDEST PUSH0 DUP3 DUP3 SHL SWAP1 POP SWAP3 SWAP2 POP POP JUMP JUMPDEST PUSH0 PUSH1 0x8 DUP4 MUL PUSH3 0x545 PUSH32 0xFFFFFFFFFFFFFFFFFFFFFFFFFFFFFFFFFFFFFFFFFFFFFFFFFFFFFFFFFFFFFFFF DUP3 PUSH3 0x508 JUMP JUMPDEST PUSH3 0x551 DUP7 DUP4 PUSH3 0x508 JUMP JUMPDEST SWAP6 POP DUP1 NOT DUP5 AND SWAP4 POP DUP1 DUP7 AND DUP5 OR SWAP3 POP POP POP SWAP4 SWAP3 POP POP POP JUMP JUMPDEST PUSH0 DUP2 SWAP1 POP SWAP2 SWAP1 POP JUMP JUMPDEST PUSH0 DUP2 SWAP1 POP SWAP2 SWAP1 POP JUMP JUMPDEST PUSH0 PUSH3 0x59B PUSH3 0x595 PUSH3 0x58F DUP5 PUSH3 0x569 JUMP JUMPDEST PUSH3 0x572 JUMP JUMPDEST PUSH3 0x569 JUMP JUMPDEST SWAP1 POP SWAP2 SWAP1 POP JUMP JUMPDEST PUSH0 DUP2 SWAP1 POP SWAP2 SWAP1 POP JUMP JUMPDEST PUSH3 0x5B6 DUP4 PUSH3 0x57B JUMP JUMPDEST PUSH3 0x5CE PUSH3 0x5C5 DUP3 PUSH3 0x5A2 JUMP JUMPDEST DUP5 DUP5 SLOAD PUSH3 0x514 JUMP JUMPDEST DUP3 SSTORE POP POP POP POP JUMP JUMPDEST PUSH0 SWAP1 JUMP JUMPDEST PUSH3 0x5E4 PUSH3 0x5D6 JUMP JUMPDEST PUSH3 0x5F1 DUP2 DUP5 DUP5 PUSH3 0x5AB JUMP JUMPDEST POP POP POP JUMP JUMPDEST JUMPDEST DUP2 DUP2 LT ISZERO PUSH3 0x618 JUMPI PUSH3 0x60C PUSH0 DUP3 PUSH3 0x5DA JUMP JUMPDEST PUSH1 0x1 DUP2 ADD SWAP1 POP PUSH3 0x5F7 JUMP JUMPDEST POP POP JUMP JUMPDEST PUSH1 0x1F DUP3 GT ISZERO PUSH3 0x667 JUMPI PUSH3 0x631 DUP2 PUSH3 0x4E7 JUMP JUMPDEST PUSH3 0x63C DUP5 PUSH3 0x4F9 JUMP JUMPDEST DUP2 ADD PUSH1 0x20 DUP6 LT ISZERO PUSH3 0x64C JUMPI DUP2 SWAP1 POP JUMPDEST PUSH3 0x664 PUSH3 0x65B DUP6 PUSH3 0x4F9 JUMP JUMPDEST DUP4 ADD DUP3 PUSH3 0x5F6 JUMP JUMPDEST POP POP JUMPDEST POP POP POP JUMP JUMPDEST PUSH0 DUP3 DUP3 SHR SWAP1 POP SWAP3 SWAP2 POP POP JUMP JUMPDEST PUSH0 PUSH3 0x689 PUSH0 NOT DUP5 PUSH1 0x8 MUL PUSH3 0x66C JUMP JUMPDEST NOT DUP1 DUP4 AND SWAP2 POP POP SWAP3 SWAP2 POP POP JUMP JUMPDEST PUSH0 PUSH3 0x6A3 DUP4 DUP4 PUSH3 0x678 JUMP JUMPDEST SWAP2 POP DUP3 PUSH1 0x2 MUL DUP3 OR SWAP1 POP SWAP3 SWAP2 POP POP JUMP JUMPDEST PUSH3 0x6BE DUP3 PUSH3 0x47C JUMP JUMPDEST PUSH8 0xFFFFFFFFFFFFFFFF DUP2 GT ISZERO PUSH3 0x6DA JUMPI PUSH3 0x6D9 PUSH3 0x29D JUMP JUMPDEST JUMPDEST PUSH3 0x6E6 DUP3 SLOAD PUSH3 0x4B3 JUMP JUMPDEST PUSH3 0x6F3 DUP3 DUP3 DUP6 PUSH3 0x61C JUMP JUMPDEST PUSH0 PUSH1 0x20 SWAP1 POP PUSH1 0x1F DUP4 GT PUSH1 0x1 DUP2 EQ PUSH3 0x729 JUMPI PUSH0 DUP5 ISZERO PUSH3 0x714 JUMPI DUP3 DUP8 ADD MLOAD SWAP1 POP JUMPDEST PUSH3 0x720 DUP6 DUP3 PUSH3 0x696 JUMP JUMPDEST DUP7 SSTORE POP PUSH3 0x78F JUMP JUMPDEST PUSH1 0x1F NOT DUP5 AND PUSH3 0x739 DUP7 PUSH3 0x4E7 JUMP JUMPDEST PUSH0 JUMPDEST DUP3 DUP2 LT ISZERO PUSH3 0x762 JUMPI DUP5 DUP10 ADD MLOAD DUP3 SSTORE PUSH1 0x1 DUP3 ADD SWAP2 POP PUSH1 0x20 DUP6 ADD SWAP5 POP PUSH1 0x20 DUP2 ADD SWAP1 POP PUSH3 0x73B JUMP JUMPDEST DUP7 DUP4 LT ISZERO PUSH3 0x782 JUMPI DUP5 DUP10 ADD MLOAD PUSH3 0x77E PUSH1 0x1F DUP10 AND DUP3 PUSH3 0x678 JUMP JUMPDEST DUP4 SSTORE POP JUMPDEST PUSH1 0x1 PUSH1 0x2 DUP9 MUL ADD DUP9 SSTORE POP POP POP JUMPDEST POP POP POP POP POP POP JUMP JUMPDEST PUSH32 0x4E487B7100000000000000000000000000000000000000000000000000000000 PUSH0 MSTORE PUSH1 0x11 PUSH1 0x4 MSTORE PUSH1 0x24 PUSH0 REVERT JUMPDEST PUSH0 DUP2 PUSH1 0x1 SHR SWAP1 POP SWAP2 SWAP1 POP JUMP JUMPDEST PUSH0 DUP1 DUP3 SWAP2 POP DUP4 SWAP1 POP JUMPDEST PUSH1 0x1 DUP6 GT ISZERO PUSH3 0x821 JUMPI DUP1 DUP7 DIV DUP2 GT ISZERO PUSH3 0x7F9 JUMPI PUSH3 0x7F8 PUSH3 0x797 JUMP JUMPDEST JUMPDEST PUSH1 0x1 DUP6 AND ISZERO PUSH3 0x809 JUMPI DUP1 DUP3 MUL SWAP2 POP JUMPDEST DUP1 DUP2 MUL SWAP1 POP PUSH3 0x819 DUP6 PUSH3 0x7C4 JUMP JUMPDEST SWAP5 POP PUSH3 0x7D9 JUMP JUMPDEST SWAP5 POP SWAP5 SWAP3 POP POP POP JUMP JUMPDEST PUSH0 DUP3 PUSH3 0x83B JUMPI PUSH1 0x1 SWAP1 POP PUSH3 0x90D JUMP JUMPDEST DUP2 PUSH3 0x84A JUMPI PUSH0 SWAP1 POP PUSH3 0x90D JUMP JUMPDEST DUP2 PUSH1 0x1 DUP2 EQ PUSH3 0x863 JUMPI PUSH1 0x2 DUP2 EQ PUSH3 0x86E JUMPI PUSH3 0x8A4 JUMP JUMPDEST PUSH1 0x1 SWAP2 POP POP PUSH3 0x90D JUMP JUMPDEST PUSH1 0xFF DUP5 GT ISZERO PUSH3 0x883 JUMPI PUSH3 0x882 PUSH3 0x797 JUMP JUMPDEST JUMPDEST DUP4 PUSH1 0x2 EXP SWAP2 POP DUP5 DUP3 GT ISZERO PUSH3 0x89D JUMPI PUSH3 0x89C PUSH3 0x797 JUMP JUMPDEST JUMPDEST POP PUSH3 0x90D JUMP JUMPDEST POP PUSH1 0x20 DUP4 LT PUSH2 0x133 DUP4 LT AND PUSH1 0x4E DUP5 LT PUSH1 0xB DUP5 LT AND OR ISZERO PUSH3 0x8DE JUMPI DUP3 DUP3 EXP SWAP1 POP DUP4 DUP2 GT ISZERO PUSH3 0x8D8 JUMPI PUSH3 0x8D7 PUSH3 0x797 JUMP JUMPDEST JUMPDEST PUSH3 0x90D JUMP JUMPDEST PUSH3 0x8ED DUP5 DUP5 DUP5 PUSH1 0x1 PUSH3 0x7D0 JUMP JUMPDEST SWAP3 POP SWAP1 POP DUP2 DUP5 DIV DUP2 GT ISZERO PUSH3 0x907 JUMPI PUSH3 0x906 PUSH3 0x797 JUMP JUMPDEST JUMPDEST DUP2 DUP2 MUL SWAP1 POP JUMPDEST SWAP4 SWAP3 POP POP POP JUMP JUMPDEST PUSH0 PUSH1 0xFF DUP3 AND SWAP1 POP SWAP2 SWAP1 POP JUMP JUMPDEST PUSH0 PUSH3 0x92C DUP3 PUSH3 0x569 JUMP JUMPDEST SWAP2 POP PUSH3 0x939 DUP4 PUSH3 0x914 JUMP JUMPDEST SWAP3 POP PUSH3 0x968 PUSH32 0xFFFFFFFFFFFFFFFFFFFFFFFFFFFFFFFFFFFFFFFFFFFFFFFFFFFFFFFFFFFFFFFF DUP5 DUP5 PUSH3 0x82A JUMP JUMPDEST SWAP1 POP SWAP3 SWAP2 POP POP JUMP JUMPDEST PUSH0 PUSH3 0x97C DUP3 PUSH3 0x569 JUMP JUMPDEST SWAP2 POP PUSH3 0x989 DUP4 PUSH3 0x569 JUMP JUMPDEST SWAP3 POP DUP3 DUP3 MUL PUSH3 0x999 DUP2 PUSH3 0x569 JUMP JUMPDEST SWAP2 POP DUP3 DUP3 DIV DUP5 EQ DUP4 ISZERO OR PUSH3 0x9B3 JUMPI PUSH3 0x9B2 PUSH3 0x797 JUMP JUMPDEST JUMPDEST POP SWAP3 SWAP2 POP POP JUMP JUMPDEST PUSH0 DUP3 DUP3 MSTORE PUSH1 0x20 DUP3 ADD SWAP1 POP SWAP3 SWAP2 POP POP JUMP JUMPDEST PUSH32 0x45524332303A206D696E7420746F20746865207A65726F206164647265737300 PUSH0 DUP3 ADD MSTORE POP JUMP JUMPDEST PUSH0 PUSH3 0xA00 PUSH1 0x1F DUP4 PUSH3 0x9BA JUMP JUMPDEST SWAP2 POP PUSH3 0xA0D DUP3 PUSH3 0x9CA JUMP JUMPDEST PUSH1 0x20 DUP3 ADD SWAP1 POP SWAP2 SWAP1 POP JUMP JUMPDEST PUSH0 PUSH1 0x20 DUP3 ADD SWAP1 POP DUP2 DUP2 SUB PUSH0 DUP4 ADD MSTORE PUSH3 0xA31 DUP2 PUSH3 0x9F2 JUMP JUMPDEST SWAP1 POP SWAP2 SWAP1 POP JUMP JUMPDEST PUSH0 PUSH3 0xA44 DUP3 PUSH3 0x569 JUMP JUMPDEST SWAP2 POP PUSH3 0xA51 DUP4 PUSH3 0x569 JUMP JUMPDEST SWAP3 POP DUP3 DUP3 ADD SWAP1 POP DUP1 DUP3 GT ISZERO PUSH3 0xA6C JUMPI PUSH3 0xA6B PUSH3 0x797 JUMP JUMPDEST JUMPDEST SWAP3 SWAP2 POP POP JUMP JUMPDEST PUSH3 0xA7D DUP2 PUSH3 0x569 JUMP JUMPDEST DUP3 MSTORE POP POP JUMP JUMPDEST PUSH0 PUSH1 0x20 DUP3 ADD SWAP1 POP PUSH3 0xA98 PUSH0 DUP4 ADD DUP5 PUSH3 0xA72 JUMP JUMPDEST SWAP3 SWAP2 POP POP JUMP JUMPDEST PUSH2 0x16AC DUP1 PUSH3 0xAAC PUSH0 CODECOPY PUSH0 RETURN INVALID PUSH1 0x80 PUSH1 0x40 MSTORE CALLVALUE DUP1 ISZERO PUSH2 0xF JUMPI PUSH0 DUP1 REVERT JUMPDEST POP PUSH1 0x4 CALLDATASIZE LT PUSH2 0xE8 JUMPI PUSH0 CALLDATALOAD PUSH1 0xE0 SHR DUP1 PUSH4 0x57915897 GT PUSH2 0x8A JUMPI DUP1 PUSH4 0x95D89B41 GT PUSH2 0x64 JUMPI DUP1 PUSH4 0x95D89B41 EQ PUSH2 0x282 JUMPI DUP1 PUSH4 0xA457C2D7 EQ PUSH2 0x2A0 JUMPI DUP1 PUSH4 0xA9059CBB EQ PUSH2 0x2D0 JUMPI DUP1 PUSH4 0xDD62ED3E EQ PUSH2 0x300 JUMPI PUSH2 0xE8 JUMP JUMPDEST DUP1 PUSH4 0x57915897 EQ PUSH2 0x206 JUMPI DUP1 PUSH4 0x64614C71 EQ PUSH2 0x222 JUMPI DUP1 PUSH4 0x70A08231 EQ PUSH2 0x252 JUMPI PUSH2 0xE8 JUMP JUMPDEST DUP1 PUSH4 0x23B872DD GT PUSH2 0xC6 JUMPI DUP1 PUSH4 0x23B872DD EQ PUSH2 0x158 JUMPI DUP1 PUSH4 0x313CE567 EQ PUSH2 0x188 JUMPI DUP1 PUSH4 0x39509351 EQ PUSH2 0x1A6 JUMPI DUP1 PUSH4 0x52A9039C EQ PUSH2 0x1D6 JUMPI PUSH2 0xE8 JUMP JUMPDEST DUP1 PUSH4 0x6FDDE03 EQ PUSH2 0xEC JUMPI DUP1 PUSH4 0x95EA7B3 EQ PUSH2 0x10A JUMPI DUP1 PUSH4 0x18160DDD EQ PUSH2 0x13A JUMPI JUMPDEST PUSH0 DUP1 REVERT JUMPDEST PUSH2 0xF4 PUSH2 0x330 JUMP JUMPDEST PUSH1 0x40 MLOAD PUSH2 0x101 SWAP2 SWAP1 PUSH2 0xD11 JUMP JUMPDEST PUSH1 0x40 MLOAD DUP1 SWAP2 SUB SWAP1 RETURN JUMPDEST PUSH2 0x124 PUSH1 0x4 DUP1 CALLDATASIZE SUB DUP2 ADD SWAP1 PUSH2 0x11F SWAP2 SWAP1 PUSH2 0xDC2 JUMP JUMPDEST PUSH2 0x3C0 JUMP JUMPDEST PUSH1 0x40 MLOAD PUSH2 0x131 SWAP2 SWAP1 PUSH2 0xE1A JUMP JUMPDEST PUSH1 0x40 MLOAD DUP1 SWAP2 SUB SWAP1 RETURN JUMPDEST PUSH2 0x142 PUSH2 0x3E2 JUMP JUMPDEST PUSH1 0x40 MLOAD PUSH2 0x14F SWAP2 SWAP1 PUSH2 0xE42 JUMP JUMPDEST PUSH1 0x40 MLOAD DUP1 SWAP2 SUB SWAP1 RETURN JUMPDEST PUSH2 0x172 PUSH1 0x4 DUP1 CALLDATASIZE SUB DUP2 ADD SWAP1 PUSH2 0x16D SWAP2 SWAP1 PUSH2 0xE5B JUMP JUMPDEST PUSH2 0x3EB JUMP JUMPDEST PUSH1 0x40 MLOAD PUSH2 0x17F SWAP2 SWAP1 PUSH2 0xE1A JUMP JUMPDEST PUSH1 0x40 MLOAD DUP1 SWAP2 SUB SWAP1 RETURN JUMPDEST PUSH2 0x190 PUSH2 0x419 JUMP JUMPDEST PUSH1 0x40 MLOAD PUSH2 0x19D SWAP2 SWAP1 PUSH2 0xEC6 JUMP JUMPDEST PUSH1 0x40 MLOAD DUP1 SWAP2 SUB SWAP1 RETURN JUMPDEST PUSH2 0x1C0 PUSH1 0x4 DUP1 CALLDATASIZE SUB DUP2 ADD SWAP1 PUSH2 0x1BB SWAP2 SWAP1 PUSH2 0xDC2 JUMP JUMPDEST PUSH2 0x421 JUMP JUMPDEST PUSH1 0x40 MLOAD PUSH2 0x1CD SWAP2 SWAP1 PUSH2 0xE1A JUMP JUMPDEST PUSH1 0x40 MLOAD DUP1 SWAP2 SUB SWAP1 RETURN JUMPDEST PUSH2 0x1F0 PUSH1 0x4 DUP1 CALLDATASIZE SUB DUP2 ADD SWAP1 PUSH2 0x1EB SWAP2 SWAP1 PUSH2 0xEDF JUMP JUMPDEST PUSH2 0x457 JUMP JUMPDEST PUSH1 0x40 MLOAD PUSH2 0x1FD SWAP2 SWAP1 PUSH2 0xE42 JUMP JUMPDEST PUSH1 0x40 MLOAD DUP1 SWAP2 SUB SWAP1 RETURN JUMPDEST PUSH2 0x220 PUSH1 0x4 DUP1 CALLDATASIZE SUB DUP2 ADD SWAP1 PUSH2 0x21B SWAP2 SWAP1 PUSH2 0xF0A JUMP JUMPDEST PUSH2 0x46C JUMP JUMPDEST STOP JUMPDEST PUSH2 0x23C PUSH1 0x4 DUP1 CALLDATASIZE SUB DUP2 ADD SWAP1 PUSH2 0x237 SWAP2 SWAP1 PUSH2 0xF0A JUMP JUMPDEST PUSH2 0x5A7 JUMP JUMPDEST PUSH1 0x40 MLOAD PUSH2 0x249 SWAP2 SWAP1 PUSH2 0xE42 JUMP JUMPDEST PUSH1 0x40 MLOAD DUP1 SWAP2 SUB SWAP1 RETURN JUMPDEST PUSH2 0x26C PUSH1 0x4 DUP1 CALLDATASIZE SUB DUP2 ADD SWAP1 PUSH2 0x267 SWAP2 SWAP1 PUSH2 0xEDF JUMP JUMPDEST PUSH2 0x5CE JUMP JUMPDEST PUSH1 0x40 MLOAD PUSH2 0x279 SWAP2 SWAP1 PUSH2 0xE42 JUMP JUMPDEST PUSH1 0x40 MLOAD DUP1 SWAP2 SUB SWAP1 RETURN JUMPDEST PUSH2 0x28A PUSH2 0x613 JUMP JUMPDEST PUSH1 0x40 MLOAD PUSH2 0x297 SWAP2 SWAP1 PUSH2 0xD11 JUMP JUMPDEST PUSH1 0x40 MLOAD DUP1 SWAP2 SUB SWAP1 RETURN JUMPDEST PUSH2 0x2BA PUSH1 0x4 DUP1 CALLDATASIZE SUB DUP2 ADD SWAP1 PUSH2 0x2B5 SWAP2 SWAP1 PUSH2 0xDC2 JUMP JUMPDEST PUSH2 0x6A3 JUMP JUMPDEST PUSH1 0x40 MLOAD PUSH2 0x2C7 SWAP2 SWAP1 PUSH2 0xE1A JUMP JUMPDEST PUSH1 0x40 MLOAD DUP1 SWAP2 SUB SWAP1 RETURN JUMPDEST PUSH2 0x2EA PUSH1 0x4 DUP1 CALLDATASIZE SUB DUP2 ADD SWAP1 PUSH2 0x2E5 SWAP2 SWAP1 PUSH2 0xDC2 JUMP JUMPDEST PUSH2 0x718 JUMP JUMPDEST PUSH1 0x40 MLOAD PUSH2 0x2F7 SWAP2 SWAP1 PUSH2 0xE1A JUMP JUMPDEST PUSH1 0x40 MLOAD DUP1 SWAP2 SUB SWAP1 RETURN JUMPDEST PUSH2 0x31A PUSH1 0x4 DUP1 CALLDATASIZE SUB DUP2 ADD SWAP1 PUSH2 0x315 SWAP2 SWAP1 PUSH2 0xF35 JUMP JUMPDEST PUSH2 0x73A JUMP JUMPDEST PUSH1 0x40 MLOAD PUSH2 0x327 SWAP2 SWAP1 PUSH2 0xE42 JUMP JUMPDEST PUSH1 0x40 MLOAD DUP1 SWAP2 SUB SWAP1 RETURN JUMPDEST PUSH1 0x60 PUSH1 0x3 DUP1 SLOAD PUSH2 0x33F SWAP1 PUSH2 0xFA0 JUMP JUMPDEST DUP1 PUSH1 0x1F ADD PUSH1 0x20 DUP1 SWAP2 DIV MUL PUSH1 0x20 ADD PUSH1 0x40 MLOAD SWAP1 DUP2 ADD PUSH1 0x40 MSTORE DUP1 SWAP3 SWAP2 SWAP1 DUP2 DUP2 MSTORE PUSH1 0x20 ADD DUP3 DUP1 SLOAD PUSH2 0x36B SWAP1 PUSH2 0xFA0 JUMP JUMPDEST DUP1 ISZERO PUSH2 0x3B6 JUMPI DUP1 PUSH1 0x1F LT PUSH2 0x38D JUMPI PUSH2 0x100 DUP1 DUP4 SLOAD DIV MUL DUP4 MSTORE SWAP2 PUSH1 0x20 ADD SWAP2 PUSH2 0x3B6 JUMP JUMPDEST DUP3 ADD SWAP2 SWAP1 PUSH0 MSTORE PUSH1 0x20 PUSH0 KECCAK256 SWAP1 JUMPDEST DUP2 SLOAD DUP2 MSTORE SWAP1 PUSH1 0x1 ADD SWAP1 PUSH1 0x20 ADD DUP1 DUP4 GT PUSH2 0x399 JUMPI DUP3 SWAP1 SUB PUSH1 0x1F AND DUP3 ADD SWAP2 JUMPDEST POP POP POP POP POP SWAP1 POP SWAP1 JUMP JUMPDEST PUSH0 DUP1 PUSH2 0x3CA PUSH2 0x7BC JUMP JUMPDEST SWAP1 POP PUSH2 0x3D7 DUP2 DUP6 DUP6 PUSH2 0x7C3 JUMP JUMPDEST PUSH1 0x1 SWAP2 POP POP SWAP3 SWAP2 POP POP JUMP JUMPDEST PUSH0 PUSH1 0x2 SLOAD SWAP1 POP SWAP1 JUMP JUMPDEST PUSH0 DUP1 PUSH2 0x3F5 PUSH2 0x7BC JUMP JUMPDEST SWAP1 POP PUSH2 0x402 DUP6 DUP3 DUP6 PUSH2 0x986 JUMP JUMPDEST PUSH2 0x40D DUP6 DUP6 DUP6 PUSH2 0xA11 JUMP JUMPDEST PUSH1 0x1 SWAP2 POP POP SWAP4 SWAP3 POP POP POP JUMP JUMPDEST PUSH0 PUSH1 0x12 SWAP1 POP SWAP1 JUMP JUMPDEST PUSH0 DUP1 PUSH2 0x42B PUSH2 0x7BC JUMP JUMPDEST SWAP1 POP PUSH2 0x44C DUP2 DUP6 DUP6 PUSH2 0x43D DUP6 DUP10 PUSH2 0x73A JUMP JUMPDEST PUSH2 0x447 SWAP2 SWAP1 PUSH2 0xFFD JUMP JUMPDEST PUSH2 0x7C3 JUMP JUMPDEST PUSH1 0x1 SWAP2 POP POP SWAP3 SWAP2 POP POP JUMP JUMPDEST PUSH1 0x6 PUSH1 0x20 MSTORE DUP1 PUSH0 MSTORE PUSH1 0x40 PUSH0 KECCAK256 PUSH0 SWAP2 POP SWAP1 POP SLOAD DUP2 JUMP JUMPDEST PUSH0 DUP2 GT PUSH2 0x4AE JUMPI PUSH1 0x40 MLOAD PUSH32 0x8C379A000000000000000000000000000000000000000000000000000000000 DUP2 MSTORE PUSH1 0x4 ADD PUSH2 0x4A5 SWAP1 PUSH2 0x107A JUMP JUMPDEST PUSH1 0x40 MLOAD DUP1 SWAP2 SUB SWAP1 REVERT JUMPDEST PUSH1 0x5 SLOAD DUP2 PUSH1 0x6 PUSH0 CALLER PUSH20 0xFFFFFFFFFFFFFFFFFFFFFFFFFFFFFFFFFFFFFFFF AND PUSH20 0xFFFFFFFFFFFFFFFFFFFFFFFFFFFFFFFFFFFFFFFF AND DUP2 MSTORE PUSH1 0x20 ADD SWAP1 DUP2 MSTORE PUSH1 0x20 ADD PUSH0 KECCAK256 SLOAD PUSH2 0x4FA SWAP2 SWAP1 PUSH2 0xFFD JUMP JUMPDEST LT PUSH2 0x53A JUMPI PUSH1 0x40 MLOAD PUSH32 0x8C379A000000000000000000000000000000000000000000000000000000000 DUP2 MSTORE PUSH1 0x4 ADD PUSH2 0x531 SWAP1 PUSH2 0x10E2 JUMP JUMPDEST PUSH1 0x40 MLOAD DUP1 SWAP2 SUB SWAP1 REVERT JUMPDEST DUP1 PUSH1 0x6 PUSH0 CALLER PUSH20 0xFFFFFFFFFFFFFFFFFFFFFFFFFFFFFFFFFFFFFFFF AND PUSH20 0xFFFFFFFFFFFFFFFFFFFFFFFFFFFFFFFFFFFFFFFF AND DUP2 MSTORE PUSH1 0x20 ADD SWAP1 DUP2 MSTORE PUSH1 0x20 ADD PUSH0 KECCAK256 PUSH0 DUP3 DUP3 SLOAD PUSH2 0x586 SWAP2 SWAP1 PUSH2 0xFFD JUMP JUMPDEST SWAP3 POP POP DUP2 SWAP1 SSTORE POP PUSH2 0x598 ADDRESS CALLER DUP4 PUSH2 0x7C3 JUMP JUMPDEST PUSH2 0x5A3 ADDRESS CALLER DUP4 PUSH2 0x3EB JUMP JUMPDEST POP POP JUMP JUMPDEST PUSH0 PUSH2 0x5B0 PUSH2 0x419 JUMP JUMPDEST PUSH1 0xA PUSH2 0x5BC SWAP2 SWAP1 PUSH2 0x122F JUMP JUMPDEST DUP3 PUSH2 0x5C7 SWAP2 SWAP1 PUSH2 0x1279 JUMP JUMPDEST SWAP1 POP SWAP2 SWAP1 POP JUMP JUMPDEST PUSH0 DUP1 PUSH0 DUP4 PUSH20 0xFFFFFFFFFFFFFFFFFFFFFFFFFFFFFFFFFFFFFFFF AND PUSH20 0xFFFFFFFFFFFFFFFFFFFFFFFFFFFFFFFFFFFFFFFF AND DUP2 MSTORE PUSH1 0x20 ADD SWAP1 DUP2 MSTORE PUSH1 0x20 ADD PUSH0 KECCAK256 SLOAD SWAP1 POP SWAP2 SWAP1 POP JUMP JUMPDEST PUSH1 0x60 PUSH1 0x4 DUP1 SLOAD PUSH2 0x622 SWAP1 PUSH2 0xFA0 JUMP JUMPDEST DUP1 PUSH1 0x1F ADD PUSH1 0x20 DUP1 SWAP2 DIV MUL PUSH1 0x20 ADD PUSH1 0x40 MLOAD SWAP1 DUP2 ADD PUSH1 0x40 MSTORE DUP1 SWAP3 SWAP2 SWAP1 DUP2 DUP2 MSTORE PUSH1 0x20 ADD DUP3 DUP1 SLOAD PUSH2 0x64E SWAP1 PUSH2 0xFA0 JUMP JUMPDEST DUP1 ISZERO PUSH2 0x699 JUMPI DUP1 PUSH1 0x1F LT PUSH2 0x670 JUMPI PUSH2 0x100 DUP1 DUP4 SLOAD DIV MUL DUP4 MSTORE SWAP2 PUSH1 0x20 ADD SWAP2 PUSH2 0x699 JUMP JUMPDEST DUP3 ADD SWAP2 SWAP1 PUSH0 MSTORE PUSH1 0x20 PUSH0 KECCAK256 SWAP1 JUMPDEST DUP2 SLOAD DUP2 MSTORE SWAP1 PUSH1 0x1 ADD SWAP1 PUSH1 0x20 ADD DUP1 DUP4 GT PUSH2 0x67C JUMPI DUP3 SWAP1 SUB PUSH1 0x1F AND DUP3 ADD SWAP2 JUMPDEST POP POP POP POP POP SWAP1 POP SWAP1 JUMP JUMPDEST PUSH0 DUP1 PUSH2 0x6AD PUSH2 0x7BC JUMP JUMPDEST SWAP1 POP PUSH0 PUSH2 0x6BA DUP3 DUP7 PUSH2 0x73A JUMP JUMPDEST SWAP1 POP DUP4 DUP2 LT ISZERO PUSH2 0x6FF JUMPI PUSH1 0x40 MLOAD PUSH32 0x8C379A000000000000000000000000000000000000000000000000000000000 DUP2 MSTORE PUSH1 0x4 ADD PUSH2 0x6F6 SWAP1 PUSH2 0x132A JUMP JUMPDEST PUSH1 0x40 MLOAD DUP1 SWAP2 SUB SWAP1 REVERT JUMPDEST PUSH2 0x70C DUP3 DUP7 DUP7 DUP5 SUB PUSH2 0x7C3 JUMP JUMPDEST PUSH1 0x1 SWAP3 POP POP POP SWAP3 SWAP2 POP POP JUMP JUMPDEST PUSH0 DUP1 PUSH2 0x722 PUSH2 0x7BC JUMP JUMPDEST SWAP1 POP PUSH2 0x72F DUP2 DUP6 DUP6 PUSH2 0xA11 JUMP JUMPDEST PUSH1 0x1 SWAP2 POP POP SWAP3 SWAP2 POP POP JUMP JUMPDEST PUSH0 PUSH1 0x1 PUSH0 DUP5 PUSH20 0xFFFFFFFFFFFFFFFFFFFFFFFFFFFFFFFFFFFFFFFF AND PUSH20 0xFFFFFFFFFFFFFFFFFFFFFFFFFFFFFFFFFFFFFFFF AND DUP2 MSTORE PUSH1 0x20 ADD SWAP1 DUP2 MSTORE PUSH1 0x20 ADD PUSH0 KECCAK256 PUSH0 DUP4 PUSH20 0xFFFFFFFFFFFFFFFFFFFFFFFFFFFFFFFFFFFFFFFF AND PUSH20 0xFFFFFFFFFFFFFFFFFFFFFFFFFFFFFFFFFFFFFFFF AND DUP2 MSTORE PUSH1 0x20 ADD SWAP1 DUP2 MSTORE PUSH1 0x20 ADD PUSH0 KECCAK256 SLOAD SWAP1 POP SWAP3 SWAP2 POP POP JUMP JUMPDEST PUSH0 CALLER SWAP1 POP SWAP1 JUMP JUMPDEST PUSH0 PUSH20 0xFFFFFFFFFFFFFFFFFFFFFFFFFFFFFFFFFFFFFFFF AND DUP4 PUSH20 0xFFFFFFFFFFFFFFFFFFFFFFFFFFFFFFFFFFFFFFFF AND SUB PUSH2 0x831 JUMPI PUSH1 0x40 MLOAD PUSH32 0x8C379A000000000000000000000000000000000000000000000000000000000 DUP2 MSTORE PUSH1 0x4 ADD PUSH2 0x828 SWAP1 PUSH2 0x13B8 JUMP JUMPDEST PUSH1 0x40 MLOAD DUP1 SWAP2 SUB SWAP1 REVERT JUMPDEST PUSH0 PUSH20 0xFFFFFFFFFFFFFFFFFFFFFFFFFFFFFFFFFFFFFFFF AND DUP3 PUSH20 0xFFFFFFFFFFFFFFFFFFFFFFFFFFFFFFFFFFFFFFFF AND SUB PUSH2 0x89F JUMPI PUSH1 0x40 MLOAD PUSH32 0x8C379A000000000000000000000000000000000000000000000000000000000 DUP2 MSTORE PUSH1 0x4 ADD PUSH2 0x896 SWAP1 PUSH2 0x1446 JUMP JUMPDEST PUSH1 0x40 MLOAD DUP1 SWAP2 SUB SWAP1 REVERT JUMPDEST DUP1 PUSH1 0x1 PUSH0 DUP6 PUSH20 0xFFFFFFFFFFFFFFFFFFFFFFFFFFFFFFFFFFFFFFFF AND PUSH20 0xFFFFFFFFFFFFFFFFFFFFFFFFFFFFFFFFFFFFFFFF AND DUP2 MSTORE PUSH1 0x20 ADD SWAP1 DUP2 MSTORE PUSH1 0x20 ADD PUSH0 KECCAK256 PUSH0 DUP5 PUSH20 0xFFFFFFFFFFFFFFFFFFFFFFFFFFFFFFFFFFFFFFFF AND PUSH20 0xFFFFFFFFFFFFFFFFFFFFFFFFFFFFFFFFFFFFFFFF AND DUP2 MSTORE PUSH1 0x20 ADD SWAP1 DUP2 MSTORE PUSH1 0x20 ADD PUSH0 KECCAK256 DUP2 SWAP1 SSTORE POP DUP2 PUSH20 0xFFFFFFFFFFFFFFFFFFFFFFFFFFFFFFFFFFFFFFFF AND DUP4 PUSH20 0xFFFFFFFFFFFFFFFFFFFFFFFFFFFFFFFFFFFFFFFF AND PUSH32 0x8C5BE1E5EBEC7D5BD14F71427D1E84F3DD0314C0F7B2291E5B200AC8C7C3B925 DUP4 PUSH1 0x40 MLOAD PUSH2 0x979 SWAP2 SWAP1 PUSH2 0xE42 JUMP JUMPDEST PUSH1 0x40 MLOAD DUP1 SWAP2 SUB SWAP1 LOG3 POP POP POP JUMP JUMPDEST PUSH0 PUSH2 0x991 DUP5 DUP5 PUSH2 0x73A JUMP JUMPDEST SWAP1 POP PUSH32 0xFFFFFFFFFFFFFFFFFFFFFFFFFFFFFFFFFFFFFFFFFFFFFFFFFFFFFFFFFFFFFFFF DUP2 EQ PUSH2 0xA0B JUMPI DUP2 DUP2 LT ISZERO PUSH2 0x9FD JUMPI PUSH1 0x40 MLOAD PUSH32 0x8C379A000000000000000000000000000000000000000000000000000000000 DUP2 MSTORE PUSH1 0x4 ADD PUSH2 0x9F4 SWAP1 PUSH2 0x14AE JUMP JUMPDEST PUSH1 0x40 MLOAD DUP1 SWAP2 SUB SWAP1 REVERT JUMPDEST PUSH2 0xA0A DUP5 DUP5 DUP5 DUP5 SUB PUSH2 0x7C3 JUMP JUMPDEST JUMPDEST POP POP POP POP JUMP JUMPDEST PUSH0 PUSH20 0xFFFFFFFFFFFFFFFFFFFFFFFFFFFFFFFFFFFFFFFF AND DUP4 PUSH20 0xFFFFFFFFFFFFFFFFFFFFFFFFFFFFFFFFFFFFFFFF AND SUB PUSH2 0xA7F JUMPI PUSH1 0x40 MLOAD PUSH32 0x8C379A000000000000000000000000000000000000000000000000000000000 DUP2 MSTORE PUSH1 0x4 ADD PUSH2 0xA76 SWAP1 PUSH2 0x153C JUMP JUMPDEST PUSH1 0x40 MLOAD DUP1 SWAP2 SUB SWAP1 REVERT JUMPDEST PUSH0 PUSH20 0xFFFFFFFFFFFFFFFFFFFFFFFFFFFFFFFFFFFFFFFF AND DUP3 PUSH20 0xFFFFFFFFFFFFFFFFFFFFFFFFFFFFFFFFFFFFFFFF AND SUB PUSH2 0xAED JUMPI PUSH1 0x40 MLOAD PUSH32 0x8C379A000000000000000000000000000000000000000000000000000000000 DUP2 MSTORE PUSH1 0x4 ADD PUSH2 0xAE4 SWAP1 PUSH2 0x15CA JUMP JUMPDEST PUSH1 0x40 MLOAD DUP1 SWAP2 SUB SWAP1 REVERT JUMPDEST PUSH2 0xAF8 DUP4 DUP4 DUP4 PUSH2 0xC7D JUMP JUMPDEST PUSH0 DUP1 PUSH0 DUP6 PUSH20 0xFFFFFFFFFFFFFFFFFFFFFFFFFFFFFFFFFFFFFFFF AND PUSH20 0xFFFFFFFFFFFFFFFFFFFFFFFFFFFFFFFFFFFFFFFF AND DUP2 MSTORE PUSH1 0x20 ADD SWAP1 DUP2 MSTORE PUSH1 0x20 ADD PUSH0 KECCAK256 SLOAD SWAP1 POP DUP2 DUP2 LT ISZERO PUSH2 0xB7B JUMPI PUSH1 0x40 MLOAD PUSH32 0x8C379A000000000000000000000000000000000000000000000000000000000 DUP2 MSTORE PUSH1 0x4 ADD PUSH2 0xB72 SWAP1 PUSH2 0x1658 JUMP JUMPDEST PUSH1 0x40 MLOAD DUP1 SWAP2 SUB SWAP1 REVERT JUMPDEST DUP2 DUP2 SUB PUSH0 DUP1 DUP7 PUSH20 0xFFFFFFFFFFFFFFFFFFFFFFFFFFFFFFFFFFFFFFFF AND PUSH20 0xFFFFFFFFFFFFFFFFFFFFFFFFFFFFFFFFFFFFFFFF AND DUP2 MSTORE PUSH1 0x20 ADD SWAP1 DUP2 MSTORE PUSH1 0x20 ADD PUSH0 KECCAK256 DUP2 SWAP1 SSTORE POP DUP2 PUSH0 DUP1 DUP6 PUSH20 0xFFFFFFFFFFFFFFFFFFFFFFFFFFFFFFFFFFFFFFFF AND PUSH20 0xFFFFFFFFFFFFFFFFFFFFFFFFFFFFFFFFFFFFFFFF AND DUP2 MSTORE PUSH1 0x20 ADD SWAP1 DUP2 MSTORE PUSH1 0x20 ADD PUSH0 KECCAK256 PUSH0 DUP3 DUP3 SLOAD ADD SWAP3 POP POP DUP2 SWAP1 SSTORE POP DUP3 PUSH20 0xFFFFFFFFFFFFFFFFFFFFFFFFFFFFFFFFFFFFFFFF AND DUP5 PUSH20 0xFFFFFFFFFFFFFFFFFFFFFFFFFFFFFFFFFFFFFFFF AND PUSH32 0xDDF252AD1BE2C89B69C2B068FC378DAA952BA7F163C4A11628F55A4DF523B3EF DUP5 PUSH1 0x40 MLOAD PUSH2 0xC64 SWAP2 SWAP1 PUSH2 0xE42 JUMP JUMPDEST PUSH1 0x40 MLOAD DUP1 SWAP2 SUB SWAP1 LOG3 PUSH2 0xC77 DUP5 DUP5 DUP5 PUSH2 0xC82 JUMP JUMPDEST POP POP POP POP JUMP JUMPDEST POP POP POP JUMP JUMPDEST POP POP POP JUMP JUMPDEST PUSH0 DUP2 MLOAD SWAP1 POP SWAP2 SWAP1 POP JUMP JUMPDEST PUSH0 DUP3 DUP3 MSTORE PUSH1 0x20 DUP3 ADD SWAP1 POP SWAP3 SWAP2 POP POP JUMP JUMPDEST PUSH0 JUMPDEST DUP4 DUP2 LT ISZERO PUSH2 0xCBE JUMPI DUP1 DUP3 ADD MLOAD DUP2 DUP5 ADD MSTORE PUSH1 0x20 DUP2 ADD SWAP1 POP PUSH2 0xCA3 JUMP JUMPDEST PUSH0 DUP5 DUP5 ADD MSTORE POP POP POP POP JUMP JUMPDEST PUSH0 PUSH1 0x1F NOT PUSH1 0x1F DUP4 ADD AND SWAP1 POP SWAP2 SWAP1 POP JUMP JUMPDEST PUSH0 PUSH2 0xCE3 DUP3 PUSH2 0xC87 JUMP JUMPDEST PUSH2 0xCED DUP2 DUP6 PUSH2 0xC91 JUMP JUMPDEST SWAP4 POP PUSH2 0xCFD DUP2 DUP6 PUSH1 0x20 DUP7 ADD PUSH2 0xCA1 JUMP JUMPDEST PUSH2 0xD06 DUP2 PUSH2 0xCC9 JUMP JUMPDEST DUP5 ADD SWAP2 POP POP SWAP3 SWAP2 POP POP JUMP JUMPDEST PUSH0 PUSH1 0x20 DUP3 ADD SWAP1 POP DUP2 DUP2 SUB PUSH0 DUP4 ADD MSTORE PUSH2 0xD29 DUP2 DUP5 PUSH2 0xCD9 JUMP JUMPDEST SWAP1 POP SWAP3 SWAP2 POP POP JUMP JUMPDEST PUSH0 DUP1 REVERT JUMPDEST PUSH0 PUSH20 0xFFFFFFFFFFFFFFFFFFFFFFFFFFFFFFFFFFFFFFFF DUP3 AND SWAP1 POP SWAP2 SWAP1 POP JUMP JUMPDEST PUSH0 PUSH2 0xD5E DUP3 PUSH2 0xD35 JUMP JUMPDEST SWAP1 POP SWAP2 SWAP1 POP JUMP JUMPDEST PUSH2 0xD6E DUP2 PUSH2 0xD54 JUMP JUMPDEST DUP2 EQ PUSH2 0xD78 JUMPI PUSH0 DUP1 REVERT JUMPDEST POP JUMP JUMPDEST PUSH0 DUP2 CALLDATALOAD SWAP1 POP PUSH2 0xD89 DUP2 PUSH2 0xD65 JUMP JUMPDEST SWAP3 SWAP2 POP POP JUMP JUMPDEST PUSH0 DUP2 SWAP1 POP SWAP2 SWAP1 POP JUMP JUMPDEST PUSH2 0xDA1 DUP2 PUSH2 0xD8F JUMP JUMPDEST DUP2 EQ PUSH2 0xDAB JUMPI PUSH0 DUP1 REVERT JUMPDEST POP JUMP JUMPDEST PUSH0 DUP2 CALLDATALOAD SWAP1 POP PUSH2 0xDBC DUP2 PUSH2 0xD98 JUMP JUMPDEST SWAP3 SWAP2 POP POP JUMP JUMPDEST PUSH0 DUP1 PUSH1 0x40 DUP4 DUP6 SUB SLT ISZERO PUSH2 0xDD8 JUMPI PUSH2 0xDD7 PUSH2 0xD31 JUMP JUMPDEST JUMPDEST PUSH0 PUSH2 0xDE5 DUP6 DUP3 DUP7 ADD PUSH2 0xD7B JUMP JUMPDEST SWAP3 POP POP PUSH1 0x20 PUSH2 0xDF6 DUP6 DUP3 DUP7 ADD PUSH2 0xDAE JUMP JUMPDEST SWAP2 POP POP SWAP3 POP SWAP3 SWAP1 POP JUMP JUMPDEST PUSH0 DUP2 ISZERO ISZERO SWAP1 POP SWAP2 SWAP1 POP JUMP JUMPDEST PUSH2 0xE14 DUP2 PUSH2 0xE00 JUMP JUMPDEST DUP3 MSTORE POP POP JUMP JUMPDEST PUSH0 PUSH1 0x20 DUP3 ADD SWAP1 POP PUSH2 0xE2D PUSH0 DUP4 ADD DUP5 PUSH2 0xE0B JUMP JUMPDEST SWAP3 SWAP2 POP POP JUMP JUMPDEST PUSH2 0xE3C DUP2 PUSH2 0xD8F JUMP JUMPDEST DUP3 MSTORE POP POP JUMP JUMPDEST PUSH0 PUSH1 0x20 DUP3 ADD SWAP1 POP PUSH2 0xE55 PUSH0 DUP4 ADD DUP5 PUSH2 0xE33 JUMP JUMPDEST SWAP3 SWAP2 POP POP JUMP JUMPDEST PUSH0 DUP1 PUSH0 PUSH1 0x60 DUP5 DUP7 SUB SLT ISZERO PUSH2 0xE72 JUMPI PUSH2 0xE71 PUSH2 0xD31 JUMP JUMPDEST JUMPDEST PUSH0 PUSH2 0xE7F DUP7 DUP3 DUP8 ADD PUSH2 0xD7B JUMP JUMPDEST SWAP4 POP POP PUSH1 0x20 PUSH2 0xE90 DUP7 DUP3 DUP8 ADD PUSH2 0xD7B JUMP JUMPDEST SWAP3 POP POP PUSH1 0x40 PUSH2 0xEA1 DUP7 DUP3 DUP8 ADD PUSH2 0xDAE JUMP JUMPDEST SWAP2 POP POP SWAP3 POP SWAP3 POP SWAP3 JUMP JUMPDEST PUSH0 PUSH1 0xFF DUP3 AND SWAP1 POP SWAP2 SWAP1 POP JUMP JUMPDEST PUSH2 0xEC0 DUP2 PUSH2 0xEAB JUMP JUMPDEST DUP3 MSTORE POP POP JUMP JUMPDEST PUSH0 PUSH1 0x20 DUP3 ADD SWAP1 POP PUSH2 0xED9 PUSH0 DUP4 ADD DUP5 PUSH2 0xEB7 JUMP JUMPDEST SWAP3 SWAP2 POP POP JUMP JUMPDEST PUSH0 PUSH1 0x20 DUP3 DUP5 SUB SLT ISZERO PUSH2 0xEF4 JUMPI PUSH2 0xEF3 PUSH2 0xD31 JUMP JUMPDEST JUMPDEST PUSH0 PUSH2 0xF01 DUP5 DUP3 DUP6 ADD PUSH2 0xD7B JUMP JUMPDEST SWAP2 POP POP SWAP3 SWAP2 POP POP JUMP JUMPDEST PUSH0 PUSH1 0x20 DUP3 DUP5 SUB SLT ISZERO PUSH2 0xF1F JUMPI PUSH2 0xF1E PUSH2 0xD31 JUMP JUMPDEST JUMPDEST PUSH0 PUSH2 0xF2C DUP5 DUP3 DUP6 ADD PUSH2 0xDAE JUMP JUMPDEST SWAP2 POP POP SWAP3 SWAP2 POP POP JUMP JUMPDEST PUSH0 DUP1 PUSH1 0x40 DUP4 DUP6 SUB SLT ISZERO PUSH2 0xF4B JUMPI PUSH2 0xF4A PUSH2 0xD31 JUMP JUMPDEST JUMPDEST PUSH0 PUSH2 0xF58 DUP6 DUP3 DUP7 ADD PUSH2 0xD7B JUMP JUMPDEST SWAP3 POP POP PUSH1 0x20 PUSH2 0xF69 DUP6 DUP3 DUP7 ADD PUSH2 0xD7B JUMP JUMPDEST SWAP2 POP POP SWAP3 POP SWAP3 SWAP1 POP JUMP JUMPDEST PUSH32 0x4E487B7100000000000000000000000000000000000000000000000000000000 PUSH0 MSTORE PUSH1 0x22 PUSH1 0x4 MSTORE PUSH1 0x24 PUSH0 REVERT JUMPDEST PUSH0 PUSH1 0x2 DUP3 DIV SWAP1 POP PUSH1 0x1 DUP3 AND DUP1 PUSH2 0xFB7 JUMPI PUSH1 0x7F DUP3 AND SWAP2 POP JUMPDEST PUSH1 0x20 DUP3 LT DUP2 SUB PUSH2 0xFCA JUMPI PUSH2 0xFC9 PUSH2 0xF73 JUMP JUMPDEST JUMPDEST POP SWAP2 SWAP1 POP JUMP JUMPDEST PUSH32 0x4E487B7100000000000000000000000000000000000000000000000000000000 PUSH0 MSTORE PUSH1 0x11 PUSH1 0x4 MSTORE PUSH1 0x24 PUSH0 REVERT JUMPDEST PUSH0 PUSH2 0x1007 DUP3 PUSH2 0xD8F JUMP JUMPDEST SWAP2 POP PUSH2 0x1012 DUP4 PUSH2 0xD8F JUMP JUMPDEST SWAP3 POP DUP3 DUP3 ADD SWAP1 POP DUP1 DUP3 GT ISZERO PUSH2 0x102A JUMPI PUSH2 0x1029 PUSH2 0xFD0 JUMP JUMPDEST JUMPDEST SWAP3 SWAP2 POP POP JUMP JUMPDEST PUSH32 0x416D6F756E742063616E6E6F74206265207A65726F0000000000000000000000 PUSH0 DUP3 ADD MSTORE POP JUMP JUMPDEST PUSH0 PUSH2 0x1064 PUSH1 0x15 DUP4 PUSH2 0xC91 JUMP JUMPDEST SWAP2 POP PUSH2 0x106F DUP3 PUSH2 0x1030 JUMP JUMPDEST PUSH1 0x20 DUP3 ADD SWAP1 POP SWAP2 SWAP1 POP JUMP JUMPDEST PUSH0 PUSH1 0x20 DUP3 ADD SWAP1 POP DUP2 DUP2 SUB PUSH0 DUP4 ADD MSTORE PUSH2 0x1091 DUP2 PUSH2 0x1058 JUMP JUMPDEST SWAP1 POP SWAP2 SWAP1 POP JUMP JUMPDEST PUSH32 0x43616E74204D696E74204D6F726520546F6B656E730000000000000000000000 PUSH0 DUP3 ADD MSTORE POP JUMP JUMPDEST PUSH0 PUSH2 0x10CC PUSH1 0x15 DUP4 PUSH2 0xC91 JUMP JUMPDEST SWAP2 POP PUSH2 0x10D7 DUP3 PUSH2 0x1098 JUMP JUMPDEST PUSH1 0x20 DUP3 ADD SWAP1 POP SWAP2 SWAP1 POP JUMP JUMPDEST PUSH0 PUSH1 0x20 DUP3 ADD SWAP1 POP DUP2 DUP2 SUB PUSH0 DUP4 ADD MSTORE PUSH2 0x10F9 DUP2 PUSH2 0x10C0 JUMP JUMPDEST SWAP1 POP SWAP2 SWAP1 POP JUMP JUMPDEST PUSH0 DUP2 PUSH1 0x1 SHR SWAP1 POP SWAP2 SWAP1 POP JUMP JUMPDEST PUSH0 DUP1 DUP3 SWAP2 POP DUP4 SWAP1 POP JUMPDEST PUSH1 0x1 DUP6 GT ISZERO PUSH2 0x1155 JUMPI DUP1 DUP7 DIV DUP2 GT ISZERO PUSH2 0x1131 JUMPI PUSH2 0x1130 PUSH2 0xFD0 JUMP JUMPDEST JUMPDEST PUSH1 0x1 DUP6 AND ISZERO PUSH2 0x1140 JUMPI DUP1 DUP3 MUL SWAP2 POP JUMPDEST DUP1 DUP2 MUL SWAP1 POP PUSH2 0x114E DUP6 PUSH2 0x1100 JUMP JUMPDEST SWAP5 POP PUSH2 0x1115 JUMP JUMPDEST SWAP5 POP SWAP5 SWAP3 POP POP POP JUMP JUMPDEST PUSH0 DUP3 PUSH2 0x116D JUMPI PUSH1 0x1 SWAP1 POP PUSH2 0x1228 JUMP JUMPDEST DUP2 PUSH2 0x117A JUMPI PUSH0 SWAP1 POP PUSH2 0x1228 JUMP JUMPDEST DUP2 PUSH1 0x1 DUP2 EQ PUSH2 0x1190 JUMPI PUSH1 0x2 DUP2 EQ PUSH2 0x119A JUMPI PUSH2 0x11C9 JUMP JUMPDEST PUSH1 0x1 SWAP2 POP POP PUSH2 0x1228 JUMP JUMPDEST PUSH1 0xFF DUP5 GT ISZERO PUSH2 0x11AC JUMPI PUSH2 0x11AB PUSH2 0xFD0 JUMP JUMPDEST JUMPDEST DUP4 PUSH1 0x2 EXP SWAP2 POP DUP5 DUP3 GT ISZERO PUSH2 0x11C3 JUMPI PUSH2 0x11C2 PUSH2 0xFD0 JUMP JUMPDEST JUMPDEST POP PUSH2 0x1228 JUMP JUMPDEST POP PUSH1 0x20 DUP4 LT PUSH2 0x133 DUP4 LT AND PUSH1 0x4E DUP5 LT PUSH1 0xB DUP5 LT AND OR ISZERO PUSH2 0x11FE JUMPI DUP3 DUP3 EXP SWAP1 POP DUP4 DUP2 GT ISZERO PUSH2 0x11F9 JUMPI PUSH2 0x11F8 PUSH2 0xFD0 JUMP JUMPDEST JUMPDEST PUSH2 0x1228 JUMP JUMPDEST PUSH2 0x120B DUP5 DUP5 DUP5 PUSH1 0x1 PUSH2 0x110C JUMP JUMPDEST SWAP3 POP SWAP1 POP DUP2 DUP5 DIV DUP2 GT ISZERO PUSH2 0x1222 JUMPI PUSH2 0x1221 PUSH2 0xFD0 JUMP JUMPDEST JUMPDEST DUP2 DUP2 MUL SWAP1 POP JUMPDEST SWAP4 SWAP3 POP POP POP JUMP JUMPDEST PUSH0 PUSH2 0x1239 DUP3 PUSH2 0xD8F JUMP JUMPDEST SWAP2 POP PUSH2 0x1244 DUP4 PUSH2 0xEAB JUMP JUMPDEST SWAP3 POP PUSH2 0x1271 PUSH32 0xFFFFFFFFFFFFFFFFFFFFFFFFFFFFFFFFFFFFFFFFFFFFFFFFFFFFFFFFFFFFFFFF DUP5 DUP5 PUSH2 0x115E JUMP JUMPDEST SWAP1 POP SWAP3 SWAP2 POP POP JUMP JUMPDEST PUSH0 PUSH2 0x1283 DUP3 PUSH2 0xD8F JUMP JUMPDEST SWAP2 POP PUSH2 0x128E DUP4 PUSH2 0xD8F JUMP JUMPDEST SWAP3 POP DUP3 DUP3 MUL PUSH2 0x129C DUP2 PUSH2 0xD8F JUMP JUMPDEST SWAP2 POP DUP3 DUP3 DIV DUP5 EQ DUP4 ISZERO OR PUSH2 0x12B3 JUMPI PUSH2 0x12B2 PUSH2 0xFD0 JUMP JUMPDEST JUMPDEST POP SWAP3 SWAP2 POP POP JUMP JUMPDEST PUSH32 0x45524332303A2064656372656173656420616C6C6F77616E63652062656C6F77 PUSH0 DUP3 ADD MSTORE PUSH32 0x207A65726F000000000000000000000000000000000000000000000000000000 PUSH1 0x20 DUP3 ADD MSTORE POP JUMP JUMPDEST PUSH0 PUSH2 0x1314 PUSH1 0x25 DUP4 PUSH2 0xC91 JUMP JUMPDEST SWAP2 POP PUSH2 0x131F DUP3 PUSH2 0x12BA JUMP JUMPDEST PUSH1 0x40 DUP3 ADD SWAP1 POP SWAP2 SWAP1 POP JUMP JUMPDEST PUSH0 PUSH1 0x20 DUP3 ADD SWAP1 POP DUP2 DUP2 SUB PUSH0 DUP4 ADD MSTORE PUSH2 0x1341 DUP2 PUSH2 0x1308 JUMP JUMPDEST SWAP1 POP SWAP2 SWAP1 POP JUMP JUMPDEST PUSH32 0x45524332303A20617070726F76652066726F6D20746865207A65726F20616464 PUSH0 DUP3 ADD MSTORE PUSH32 0x7265737300000000000000000000000000000000000000000000000000000000 PUSH1 0x20 DUP3 ADD MSTORE POP JUMP JUMPDEST PUSH0 PUSH2 0x13A2 PUSH1 0x24 DUP4 PUSH2 0xC91 JUMP JUMPDEST SWAP2 POP PUSH2 0x13AD DUP3 PUSH2 0x1348 JUMP JUMPDEST PUSH1 0x40 DUP3 ADD SWAP1 POP SWAP2 SWAP1 POP JUMP JUMPDEST PUSH0 PUSH1 0x20 DUP3 ADD SWAP1 POP DUP2 DUP2 SUB PUSH0 DUP4 ADD MSTORE PUSH2 0x13CF DUP2 PUSH2 0x1396 JUMP JUMPDEST SWAP1 POP SWAP2 SWAP1 POP JUMP JUMPDEST PUSH32 0x45524332303A20617070726F766520746F20746865207A65726F206164647265 PUSH0 DUP3 ADD MSTORE PUSH32 0x7373000000000000000000000000000000000000000000000000000000000000 PUSH1 0x20 DUP3 ADD MSTORE POP JUMP JUMPDEST PUSH0 PUSH2 0x1430 PUSH1 0x22 DUP4 PUSH2 0xC91 JUMP JUMPDEST SWAP2 POP PUSH2 0x143B DUP3 PUSH2 0x13D6 JUMP JUMPDEST PUSH1 0x40 DUP3 ADD SWAP1 POP SWAP2 SWAP1 POP JUMP JUMPDEST PUSH0 PUSH1 0x20 DUP3 ADD SWAP1 POP DUP2 DUP2 SUB PUSH0 DUP4 ADD MSTORE PUSH2 0x145D DUP2 PUSH2 0x1424 JUMP JUMPDEST SWAP1 POP SWAP2 SWAP1 POP JUMP JUMPDEST PUSH32 0x45524332303A20696E73756666696369656E7420616C6C6F77616E6365000000 PUSH0 DUP3 ADD MSTORE POP JUMP JUMPDEST PUSH0 PUSH2 0x1498 PUSH1 0x1D DUP4 PUSH2 0xC91 JUMP JUMPDEST SWAP2 POP PUSH2 0x14A3 DUP3 PUSH2 0x1464 JUMP JUMPDEST PUSH1 0x20 DUP3 ADD SWAP1 POP SWAP2 SWAP1 POP JUMP JUMPDEST PUSH0 PUSH1 0x20 DUP3 ADD SWAP1 POP DUP2 DUP2 SUB PUSH0 DUP4 ADD MSTORE PUSH2 0x14C5 DUP2 PUSH2 0x148C JUMP JUMPDEST SWAP1 POP SWAP2 SWAP1 POP JUMP JUMPDEST PUSH32 0x45524332303A207472616E736665722066726F6D20746865207A65726F206164 PUSH0 DUP3 ADD MSTORE PUSH32 0x6472657373000000000000000000000000000000000000000000000000000000 PUSH1 0x20 DUP3 ADD MSTORE POP JUMP JUMPDEST PUSH0 PUSH2 0x1526 PUSH1 0x25 DUP4 PUSH2 0xC91 JUMP JUMPDEST SWAP2 POP PUSH2 0x1531 DUP3 PUSH2 0x14CC JUMP JUMPDEST PUSH1 0x40 DUP3 ADD SWAP1 POP SWAP2 SWAP1 POP JUMP JUMPDEST PUSH0 PUSH1 0x20 DUP3 ADD SWAP1 POP DUP2 DUP2 SUB PUSH0 DUP4 ADD MSTORE PUSH2 0x1553 DUP2 PUSH2 0x151A JUMP JUMPDEST SWAP1 POP SWAP2 SWAP1 POP JUMP JUMPDEST PUSH32 0x45524332303A207472616E7366657220746F20746865207A65726F2061646472 PUSH0 DUP3 ADD MSTORE PUSH32 0x6573730000000000000000000000000000000000000000000000000000000000 PUSH1 0x20 DUP3 ADD MSTORE POP JUMP JUMPDEST PUSH0 PUSH2 0x15B4 PUSH1 0x23 DUP4 PUSH2 0xC91 JUMP JUMPDEST SWAP2 POP PUSH2 0x15BF DUP3 PUSH2 0x155A JUMP JUMPDEST PUSH1 0x40 DUP3 ADD SWAP1 POP SWAP2 SWAP1 POP JUMP JUMPDEST PUSH0 PUSH1 0x20 DUP3 ADD SWAP1 POP DUP2 DUP2 SUB PUSH0 DUP4 ADD MSTORE PUSH2 0x15E1 DUP2 PUSH2 0x15A8 JUMP JUMPDEST SWAP1 POP SWAP2 SWAP1 POP JUMP JUMPDEST PUSH32 0x45524332303A207472616E7366657220616D6F756E7420657863656564732062 PUSH0 DUP3 ADD MSTORE PUSH32 0x616C616E63650000000000000000000000000000000000000000000000000000 PUSH1 0x20 DUP3 ADD MSTORE POP JUMP JUMPDEST PUSH0 PUSH2 0x1642 PUSH1 0x26 DUP4 PUSH2 0xC91 JUMP JUMPDEST SWAP2 POP PUSH2 0x164D DUP3 PUSH2 0x15E8 JUMP JUMPDEST PUSH1 0x40 DUP3 ADD SWAP1 POP SWAP2 SWAP1 POP JUMP JUMPDEST PUSH0 PUSH1 0x20 DUP3 ADD SWAP1 POP DUP2 DUP2 SUB PUSH0 DUP4 ADD MSTORE PUSH2 0x166F DUP2 PUSH2 0x1636 JUMP JUMPDEST SWAP1 POP SWAP2 SWAP1 POP JUMP INVALID LOG2 PUSH5 0x6970667358 0x22 SLT KECCAK256 0xEA SAR PUSH11 0xF1CD09FCCA23ED8CB1CC29 CALLDATASIZE 0xA7 0xF DUP8 0x1E SIGNEXTEND 0xCF MSIZE 0xA9 0xD7 SELFDESTRUCT PUSH12 0xA81D80B8F29164736F6C6343 STOP ADDMOD ISZERO STOP CALLER PUSH1 0x80 PUSH1 0x40 MSTORE PUSH1 0x8 PUSH1 0x3 PUSH0 PUSH2 0x100 EXP DUP2 SLOAD DUP2 PUSH1 0xFF MUL NOT AND SWAP1 DUP4 PUSH1 0xFF AND MUL OR SWAP1 SSTORE POP CALLVALUE DUP1 ISZERO PUSH3 0x2B JUMPI PUSH0 DUP1 REVERT JUMPDEST POP PUSH1 0x40 MLOAD PUSH3 0xF62 CODESIZE SUB DUP1 PUSH3 0xF62 DUP4 CODECOPY DUP2 DUP2 ADD PUSH1 0x40 MSTORE DUP2 ADD SWAP1 PUSH3 0x51 SWAP2 SWAP1 PUSH3 0x111 JUMP JUMPDEST DUP1 PUSH1 0x3 PUSH1 0x1 PUSH2 0x100 EXP DUP2 SLOAD DUP2 PUSH20 0xFFFFFFFFFFFFFFFFFFFFFFFFFFFFFFFFFFFFFFFF MUL NOT AND SWAP1 DUP4 PUSH20 0xFFFFFFFFFFFFFFFFFFFFFFFFFFFFFFFFFFFFFFFF AND MUL OR SWAP1 SSTORE POP POP PUSH3 0x141 JUMP JUMPDEST PUSH0 DUP1 REVERT JUMPDEST PUSH0 PUSH20 0xFFFFFFFFFFFFFFFFFFFFFFFFFFFFFFFFFFFFFFFF DUP3 AND SWAP1 POP SWAP2 SWAP1 POP JUMP JUMPDEST PUSH0 PUSH3 0xC8 DUP3 PUSH3 0x9D JUMP JUMPDEST SWAP1 POP SWAP2 SWAP1 POP JUMP JUMPDEST PUSH0 PUSH3 0xDB DUP3 PUSH3 0xBC JUMP JUMPDEST SWAP1 POP SWAP2 SWAP1 POP JUMP JUMPDEST PUSH3 0xED DUP2 PUSH3 0xCF JUMP JUMPDEST DUP2 EQ PUSH3 0xF8 JUMPI PUSH0 DUP1 REVERT JUMPDEST POP JUMP JUMPDEST PUSH0 DUP2 MLOAD SWAP1 POP PUSH3 0x10B DUP2 PUSH3 0xE2 JUMP JUMPDEST SWAP3 SWAP2 POP POP JUMP JUMPDEST PUSH0 PUSH1 0x20 DUP3 DUP5 SUB SLT ISZERO PUSH3 0x129 JUMPI PUSH3 0x128 PUSH3 0x99 JUMP JUMPDEST JUMPDEST PUSH0 PUSH3 0x138 DUP5 DUP3 DUP6 ADD PUSH3 0xFB JUMP JUMPDEST SWAP2 POP POP SWAP3 SWAP2 POP POP JUMP JUMPDEST PUSH2 0xE13 DUP1 PUSH3 0x14F PUSH0 CODECOPY PUSH0 RETURN INVALID PUSH1 0x80 PUSH1 0x40 MSTORE CALLVALUE DUP1 ISZERO PUSH2 0xF JUMPI PUSH0 DUP1 REVERT JUMPDEST POP PUSH1 0x4 CALLDATASIZE LT PUSH2 0x55 JUMPI PUSH0 CALLDATALOAD PUSH1 0xE0 SHR DUP1 PUSH4 0x313CE567 EQ PUSH2 0x59 JUMPI DUP1 PUSH4 0x3552F434 EQ PUSH2 0x77 JUMPI DUP1 PUSH4 0x6984D070 EQ PUSH2 0xA7 JUMPI DUP1 PUSH4 0xA035B1FE EQ PUSH2 0xC5 JUMPI DUP1 PUSH4 0xA2E800AD EQ PUSH2 0xE3 JUMPI JUMPDEST PUSH0 DUP1 REVERT JUMPDEST PUSH2 0x61 PUSH2 0x101 JUMP JUMPDEST PUSH1 0x40 MLOAD PUSH2 0x6E SWAP2 SWAP1 PUSH2 0x6F9 JUMP JUMPDEST PUSH1 0x40 MLOAD DUP1 SWAP2 SUB SWAP1 RETURN JUMPDEST PUSH2 0x91 PUSH1 0x4 DUP1 CALLDATASIZE SUB DUP2 ADD SWAP1 PUSH2 0x8C SWAP2 SWAP1 PUSH2 0x753 JUMP JUMPDEST PUSH2 0x107 JUMP JUMPDEST PUSH1 0x40 MLOAD PUSH2 0x9E SWAP2 SWAP1 PUSH2 0x7A9 JUMP JUMPDEST PUSH1 0x40 MLOAD DUP1 SWAP2 SUB SWAP1 RETURN JUMPDEST PUSH2 0xAF PUSH2 0x231 JUMP JUMPDEST PUSH1 0x40 MLOAD PUSH2 0xBC SWAP2 SWAP1 PUSH2 0x6F9 JUMP JUMPDEST PUSH1 0x40 MLOAD DUP1 SWAP2 SUB SWAP1 RETURN JUMPDEST PUSH2 0xCD PUSH2 0x309 JUMP JUMPDEST PUSH1 0x40 MLOAD PUSH2 0xDA SWAP2 SWAP1 PUSH2 0x6F9 JUMP JUMPDEST PUSH1 0x40 MLOAD DUP1 SWAP2 SUB SWAP1 RETURN JUMPDEST PUSH2 0xEB PUSH2 0x30E JUMP JUMPDEST PUSH1 0x40 MLOAD PUSH2 0xF8 SWAP2 SWAP1 PUSH2 0x6F9 JUMP JUMPDEST PUSH1 0x40 MLOAD DUP1 SWAP2 SUB SWAP1 RETURN JUMPDEST PUSH1 0x1 SLOAD DUP2 JUMP JUMPDEST PUSH0 DUP1 PUSH1 0xFF AND PUSH1 0x3 PUSH0 SWAP1 SLOAD SWAP1 PUSH2 0x100 EXP SWAP1 DIV PUSH1 0xFF AND PUSH1 0xFF AND GT DUP1 ISZERO PUSH2 0x140 JUMPI POP PUSH1 0x12 PUSH1 0xFF AND PUSH1 0x3 PUSH0 SWAP1 SLOAD SWAP1 PUSH2 0x100 EXP SWAP1 DIV PUSH1 0xFF AND PUSH1 0xFF AND GT ISZERO JUMPDEST PUSH2 0x17F JUMPI PUSH1 0x40 MLOAD PUSH32 0x8C379A000000000000000000000000000000000000000000000000000000000 DUP2 MSTORE PUSH1 0x4 ADD PUSH2 0x176 SWAP1 PUSH2 0x81C JUMP JUMPDEST PUSH1 0x40 MLOAD DUP1 SWAP2 SUB SWAP1 REVERT JUMPDEST PUSH0 PUSH1 0x3 PUSH0 SWAP1 SLOAD SWAP1 PUSH2 0x100 EXP SWAP1 DIV PUSH1 0xFF AND PUSH1 0xA PUSH2 0x19B SWAP2 SWAP1 PUSH2 0x9A2 JUMP JUMPDEST SWAP1 POP PUSH0 PUSH2 0x1A7 DUP6 PUSH2 0x314 JUMP JUMPDEST SWAP1 POP PUSH0 PUSH2 0x1B3 DUP7 PUSH2 0x3E5 JUMP JUMPDEST SWAP1 POP PUSH0 PUSH2 0x1D2 DUP4 DUP4 PUSH1 0x3 PUSH0 SWAP1 SLOAD SWAP1 PUSH2 0x100 EXP SWAP1 DIV PUSH1 0xFF AND PUSH1 0xFF AND PUSH2 0x4B6 JUMP JUMPDEST SWAP1 POP PUSH0 PUSH2 0x1DE DUP8 PUSH2 0x314 JUMP JUMPDEST SWAP1 POP PUSH0 PUSH2 0x1EA DUP9 PUSH2 0x3E5 JUMP JUMPDEST SWAP1 POP PUSH0 PUSH2 0x209 DUP4 DUP4 PUSH1 0x3 PUSH0 SWAP1 SLOAD SWAP1 PUSH2 0x100 EXP SWAP1 DIV PUSH1 0xFF AND PUSH1 0xFF AND PUSH2 0x4B6 JUMP JUMPDEST SWAP1 POP DUP1 DUP8 DUP6 PUSH2 0x218 SWAP2 SWAP1 PUSH2 0x9EC JUMP JUMPDEST PUSH2 0x222 SWAP2 SWAP1 PUSH2 0xA8F JUMP JUMPDEST SWAP8 POP POP POP POP POP POP POP POP SWAP3 SWAP2 POP POP JUMP JUMPDEST PUSH0 DUP1 PUSH1 0x3 PUSH1 0x1 SWAP1 SLOAD SWAP1 PUSH2 0x100 EXP SWAP1 DIV PUSH20 0xFFFFFFFFFFFFFFFFFFFFFFFFFFFFFFFFFFFFFFFF AND PUSH20 0xFFFFFFFFFFFFFFFFFFFFFFFFFFFFFFFFFFFFFFFF AND PUSH4 0x98F93A96 PUSH1 0x1 PUSH1 0x40 MLOAD DUP3 PUSH4 0xFFFFFFFF AND PUSH1 0xE0 SHL DUP2 MSTORE PUSH1 0x4 ADD PUSH2 0x28F SWAP2 SWAP1 PUSH2 0xB39 JUMP JUMPDEST PUSH1 0x40 DUP1 MLOAD DUP1 DUP4 SUB DUP2 DUP7 GAS STATICCALL ISZERO DUP1 ISZERO PUSH2 0x2A9 JUMPI RETURNDATASIZE PUSH0 DUP1 RETURNDATACOPY RETURNDATASIZE PUSH0 REVERT JUMPDEST POP POP POP POP PUSH1 0x40 MLOAD RETURNDATASIZE PUSH1 0x1F NOT PUSH1 0x1F DUP3 ADD AND DUP3 ADD DUP1 PUSH1 0x40 MSTORE POP DUP2 ADD SWAP1 PUSH2 0x2CD SWAP2 SWAP1 PUSH2 0xBBA JUMP JUMPDEST POP SWAP1 POP PUSH0 PUSH2 0x2DA DUP3 PUSH2 0x526 JUMP JUMPDEST SWAP1 POP PUSH0 DUP2 PUSH0 PUSH1 0x4 DUP2 LT PUSH2 0x2F0 JUMPI PUSH2 0x2EF PUSH2 0xBF8 JUMP JUMPDEST JUMPDEST PUSH1 0x20 MUL ADD MLOAD SWAP1 POP DUP1 PUSH1 0x2 DUP2 SWAP1 SSTORE POP PUSH1 0x2 SLOAD SWAP4 POP POP POP POP SWAP1 JUMP JUMPDEST PUSH0 SLOAD DUP2 JUMP JUMPDEST PUSH1 0x2 SLOAD DUP2 JUMP JUMPDEST PUSH0 DUP1 PUSH1 0x3 PUSH1 0x1 SWAP1 SLOAD SWAP1 PUSH2 0x100 EXP SWAP1 DIV PUSH20 0xFFFFFFFFFFFFFFFFFFFFFFFFFFFFFFFFFFFFFFFF AND PUSH20 0xFFFFFFFFFFFFFFFFFFFFFFFFFFFFFFFFFFFFFFFF AND PUSH4 0x98F93A96 DUP5 PUSH1 0x40 MLOAD DUP3 PUSH4 0xFFFFFFFF AND PUSH1 0xE0 SHL DUP2 MSTORE PUSH1 0x4 ADD PUSH2 0x371 SWAP2 SWAP1 PUSH2 0xC34 JUMP JUMPDEST PUSH1 0x40 DUP1 MLOAD DUP1 DUP4 SUB DUP2 DUP7 GAS STATICCALL ISZERO DUP1 ISZERO PUSH2 0x38B JUMPI RETURNDATASIZE PUSH0 DUP1 RETURNDATACOPY RETURNDATASIZE PUSH0 REVERT JUMPDEST POP POP POP POP PUSH1 0x40 MLOAD RETURNDATASIZE PUSH1 0x1F NOT PUSH1 0x1F DUP3 ADD AND DUP3 ADD DUP1 PUSH1 0x40 MSTORE POP DUP2 ADD SWAP1 PUSH2 0x3AF SWAP2 SWAP1 PUSH2 0xBBA JUMP JUMPDEST POP SWAP1 POP PUSH0 PUSH2 0x3BC DUP3 PUSH2 0x526 JUMP JUMPDEST SWAP1 POP PUSH0 DUP2 PUSH1 0x3 PUSH1 0x4 DUP2 LT PUSH2 0x3D3 JUMPI PUSH2 0x3D2 PUSH2 0xBF8 JUMP JUMPDEST JUMPDEST PUSH1 0x20 MUL ADD MLOAD SWAP1 POP DUP1 SWAP4 POP POP POP POP SWAP2 SWAP1 POP JUMP JUMPDEST PUSH0 DUP1 PUSH1 0x3 PUSH1 0x1 SWAP1 SLOAD SWAP1 PUSH2 0x100 EXP SWAP1 DIV PUSH20 0xFFFFFFFFFFFFFFFFFFFFFFFFFFFFFFFFFFFFFFFF AND PUSH20 0xFFFFFFFFFFFFFFFFFFFFFFFFFFFFFFFFFFFFFFFF AND PUSH4 0x98F93A96 DUP5 PUSH1 0x40 MLOAD DUP3 PUSH4 0xFFFFFFFF AND PUSH1 0xE0 SHL DUP2 MSTORE PUSH1 0x4 ADD PUSH2 0x442 SWAP2 SWAP1 PUSH2 0xC34 JUMP JUMPDEST PUSH1 0x40 DUP1 MLOAD DUP1 DUP4 SUB DUP2 DUP7 GAS STATICCALL ISZERO DUP1 ISZERO PUSH2 0x45C JUMPI RETURNDATASIZE PUSH0 DUP1 RETURNDATACOPY RETURNDATASIZE PUSH0 REVERT JUMPDEST POP POP POP POP PUSH1 0x40 MLOAD RETURNDATASIZE PUSH1 0x1F NOT PUSH1 0x1F DUP3 ADD AND DUP3 ADD DUP1 PUSH1 0x40 MSTORE POP DUP2 ADD SWAP1 PUSH2 0x480 SWAP2 SWAP1 PUSH2 0xBBA JUMP JUMPDEST POP SWAP1 POP PUSH0 PUSH2 0x48D DUP3 PUSH2 0x526 JUMP JUMPDEST SWAP1 POP PUSH0 DUP2 PUSH1 0x1 PUSH1 0x4 DUP2 LT PUSH2 0x4A4 JUMPI PUSH2 0x4A3 PUSH2 0xBF8 JUMP JUMPDEST JUMPDEST PUSH1 0x20 MUL ADD MLOAD SWAP1 POP DUP1 SWAP4 POP POP POP POP SWAP2 SWAP1 POP JUMP JUMPDEST PUSH0 DUP2 DUP4 LT ISZERO PUSH2 0x4E9 JUMPI DUP3 DUP3 PUSH2 0x4CB SWAP2 SWAP1 PUSH2 0xC4D JUMP JUMPDEST PUSH1 0xA PUSH2 0x4D7 SWAP2 SWAP1 PUSH2 0xC80 JUMP JUMPDEST DUP5 PUSH2 0x4E2 SWAP2 SWAP1 PUSH2 0xCCA JUMP JUMPDEST SWAP1 POP PUSH2 0x51F JUMP JUMPDEST DUP2 DUP4 GT ISZERO PUSH2 0x51B JUMPI DUP2 DUP4 PUSH2 0x4FD SWAP2 SWAP1 PUSH2 0xC4D JUMP JUMPDEST PUSH1 0xA PUSH2 0x509 SWAP2 SWAP1 PUSH2 0xC80 JUMP JUMPDEST DUP5 PUSH2 0x514 SWAP2 SWAP1 PUSH2 0xD0B JUMP JUMPDEST SWAP1 POP PUSH2 0x51F JUMP JUMPDEST DUP4 SWAP1 POP JUMPDEST SWAP4 SWAP3 POP POP POP JUMP JUMPDEST PUSH2 0x52E PUSH2 0x6BF JUMP JUMPDEST PUSH2 0x536 PUSH2 0x6BF JUMP JUMPDEST PUSH2 0x562 PUSH1 0xC0 DUP5 SWAP1 SHR PUSH1 0x40 MLOAD PUSH1 0x20 ADD PUSH2 0x54E SWAP2 SWAP1 PUSH2 0xD5B JUMP JUMPDEST PUSH1 0x40 MLOAD PUSH1 0x20 DUP2 DUP4 SUB SUB DUP2 MSTORE SWAP1 PUSH1 0x40 MSTORE PUSH2 0x66E JUMP JUMPDEST DUP2 PUSH0 PUSH1 0x4 DUP2 LT PUSH2 0x575 JUMPI PUSH2 0x574 PUSH2 0xBF8 JUMP JUMPDEST JUMPDEST PUSH1 0x20 MUL ADD DUP2 DUP2 MSTORE POP POP PUSH2 0x5AE PUSH1 0xF8 PUSH1 0x40 DUP6 SWAP1 SHL SWAP1 SHR PUSH1 0x40 MLOAD PUSH1 0x20 ADD PUSH2 0x59A SWAP2 SWAP1 PUSH2 0xD5B JUMP JUMPDEST PUSH1 0x40 MLOAD PUSH1 0x20 DUP2 DUP4 SUB SUB DUP2 MSTORE SWAP1 PUSH1 0x40 MSTORE PUSH2 0x66E JUMP JUMPDEST DUP2 PUSH1 0x1 PUSH1 0x4 DUP2 LT PUSH2 0x5C2 JUMPI PUSH2 0x5C1 PUSH2 0xBF8 JUMP JUMPDEST JUMPDEST PUSH1 0x20 MUL ADD DUP2 DUP2 MSTORE POP POP PUSH2 0x5FB PUSH1 0xC0 PUSH1 0x48 DUP6 SWAP1 SHL SWAP1 SHR PUSH1 0x40 MLOAD PUSH1 0x20 ADD PUSH2 0x5E7 SWAP2 SWAP1 PUSH2 0xD5B JUMP JUMPDEST PUSH1 0x40 MLOAD PUSH1 0x20 DUP2 DUP4 SUB SUB DUP2 MSTORE SWAP1 PUSH1 0x40 MSTORE PUSH2 0x66E JUMP JUMPDEST DUP2 PUSH1 0x2 PUSH1 0x4 DUP2 LT PUSH2 0x60F JUMPI PUSH2 0x60E PUSH2 0xBF8 JUMP JUMPDEST JUMPDEST PUSH1 0x20 MUL ADD DUP2 DUP2 MSTORE POP POP PUSH2 0x648 PUSH1 0xA0 PUSH1 0x88 DUP6 SWAP1 SHL SWAP1 SHR PUSH1 0x40 MLOAD PUSH1 0x20 ADD PUSH2 0x634 SWAP2 SWAP1 PUSH2 0xD5B JUMP JUMPDEST PUSH1 0x40 MLOAD PUSH1 0x20 DUP2 DUP4 SUB SUB DUP2 MSTORE SWAP1 PUSH1 0x40 MSTORE PUSH2 0x66E JUMP JUMPDEST DUP2 PUSH1 0x3 PUSH1 0x4 DUP2 LT PUSH2 0x65C JUMPI PUSH2 0x65B PUSH2 0xBF8 JUMP JUMPDEST JUMPDEST PUSH1 0x20 MUL ADD DUP2 DUP2 MSTORE POP POP DUP1 SWAP2 POP POP SWAP2 SWAP1 POP JUMP JUMPDEST PUSH0 PUSH1 0x20 DUP3 MLOAD EQ PUSH2 0x6B3 JUMPI PUSH1 0x40 MLOAD PUSH32 0x8C379A000000000000000000000000000000000000000000000000000000000 DUP2 MSTORE PUSH1 0x4 ADD PUSH2 0x6AA SWAP1 PUSH2 0xDBF JUMP JUMPDEST PUSH1 0x40 MLOAD DUP1 SWAP2 SUB SWAP1 REVERT JUMPDEST PUSH1 0x20 DUP3 ADD MLOAD SWAP1 POP SWAP2 SWAP1 POP JUMP JUMPDEST PUSH1 0x40 MLOAD DUP1 PUSH1 0x80 ADD PUSH1 0x40 MSTORE DUP1 PUSH1 0x4 SWAP1 PUSH1 0x20 DUP3 MUL DUP1 CALLDATASIZE DUP4 CALLDATACOPY DUP1 DUP3 ADD SWAP2 POP POP SWAP1 POP POP SWAP1 JUMP JUMPDEST PUSH0 DUP2 SWAP1 POP SWAP2 SWAP1 POP JUMP JUMPDEST PUSH2 0x6F3 DUP2 PUSH2 0x6E1 JUMP JUMPDEST DUP3 MSTORE POP POP JUMP JUMPDEST PUSH0 PUSH1 0x20 DUP3 ADD SWAP1 POP PUSH2 0x70C PUSH0 DUP4 ADD DUP5 PUSH2 0x6EA JUMP JUMPDEST SWAP3 SWAP2 POP POP JUMP JUMPDEST PUSH0 DUP1 REVERT JUMPDEST PUSH0 PUSH8 0xFFFFFFFFFFFFFFFF DUP3 AND SWAP1 POP SWAP2 SWAP1 POP JUMP JUMPDEST PUSH2 0x732 DUP2 PUSH2 0x716 JUMP JUMPDEST DUP2 EQ PUSH2 0x73C JUMPI PUSH0 DUP1 REVERT JUMPDEST POP JUMP JUMPDEST PUSH0 DUP2 CALLDATALOAD SWAP1 POP PUSH2 0x74D DUP2 PUSH2 0x729 JUMP JUMPDEST SWAP3 SWAP2 POP POP JUMP JUMPDEST PUSH0 DUP1 PUSH1 0x40 DUP4 DUP6 SUB SLT ISZERO PUSH2 0x769 JUMPI PUSH2 0x768 PUSH2 0x712 JUMP JUMPDEST JUMPDEST PUSH0 PUSH2 0x776 DUP6 DUP3 DUP7 ADD PUSH2 0x73F JUMP JUMPDEST SWAP3 POP POP PUSH1 0x20 PUSH2 0x787 DUP6 DUP3 DUP7 ADD PUSH2 0x73F JUMP JUMPDEST SWAP2 POP POP SWAP3 POP SWAP3 SWAP1 POP JUMP JUMPDEST PUSH0 DUP2 SWAP1 POP SWAP2 SWAP1 POP JUMP JUMPDEST PUSH2 0x7A3 DUP2 PUSH2 0x791 JUMP JUMPDEST DUP3 MSTORE POP POP JUMP JUMPDEST PUSH0 PUSH1 0x20 DUP3 ADD SWAP1 POP PUSH2 0x7BC PUSH0 DUP4 ADD DUP5 PUSH2 0x79A JUMP JUMPDEST SWAP3 SWAP2 POP POP JUMP JUMPDEST PUSH0 DUP3 DUP3 MSTORE PUSH1 0x20 DUP3 ADD SWAP1 POP SWAP3 SWAP2 POP POP JUMP JUMPDEST PUSH32 0x556E737570706F7274656420446563696D616C73000000000000000000000000 PUSH0 DUP3 ADD MSTORE POP JUMP JUMPDEST PUSH0 PUSH2 0x806 PUSH1 0x14 DUP4 PUSH2 0x7C2 JUMP JUMPDEST SWAP2 POP PUSH2 0x811 DUP3 PUSH2 0x7D2 JUMP JUMPDEST PUSH1 0x20 DUP3 ADD SWAP1 POP SWAP2 SWAP1 POP JUMP JUMPDEST PUSH0 PUSH1 0x20 DUP3 ADD SWAP1 POP DUP2 DUP2 SUB PUSH0 DUP4 ADD MSTORE PUSH2 0x833 DUP2 PUSH2 0x7FA JUMP JUMPDEST SWAP1 POP SWAP2 SWAP1 POP JUMP JUMPDEST PUSH32 0x4E487B7100000000000000000000000000000000000000000000000000000000 PUSH0 MSTORE PUSH1 0x11 PUSH1 0x4 MSTORE PUSH1 0x24 PUSH0 REVERT JUMPDEST PUSH0 DUP2 PUSH1 0x1 SHR SWAP1 POP SWAP2 SWAP1 POP JUMP JUMPDEST PUSH0 DUP1 DUP3 SWAP2 POP DUP4 SWAP1 POP JUMPDEST PUSH1 0x1 DUP6 GT ISZERO PUSH2 0x8BC JUMPI DUP1 DUP7 DIV DUP2 GT ISZERO PUSH2 0x898 JUMPI PUSH2 0x897 PUSH2 0x83A JUMP JUMPDEST JUMPDEST PUSH1 0x1 DUP6 AND ISZERO PUSH2 0x8A7 JUMPI DUP1 DUP3 MUL SWAP2 POP JUMPDEST DUP1 DUP2 MUL SWAP1 POP PUSH2 0x8B5 DUP6 PUSH2 0x867 JUMP JUMPDEST SWAP5 POP PUSH2 0x87C JUMP JUMPDEST SWAP5 POP SWAP5 SWAP3 POP POP POP JUMP JUMPDEST PUSH0 DUP3 PUSH2 0x8D4 JUMPI PUSH1 0x1 SWAP1 POP PUSH2 0x98F JUMP JUMPDEST DUP2 PUSH2 0x8E1 JUMPI PUSH0 SWAP1 POP PUSH2 0x98F JUMP JUMPDEST DUP2 PUSH1 0x1 DUP2 EQ PUSH2 0x8F7 JUMPI PUSH1 0x2 DUP2 EQ PUSH2 0x901 JUMPI PUSH2 0x930 JUMP JUMPDEST PUSH1 0x1 SWAP2 POP POP PUSH2 0x98F JUMP JUMPDEST PUSH1 0xFF DUP5 GT ISZERO PUSH2 0x913 JUMPI PUSH2 0x912 PUSH2 0x83A JUMP JUMPDEST JUMPDEST DUP4 PUSH1 0x2 EXP SWAP2 POP DUP5 DUP3 GT ISZERO PUSH2 0x92A JUMPI PUSH2 0x929 PUSH2 0x83A JUMP JUMPDEST JUMPDEST POP PUSH2 0x98F JUMP JUMPDEST POP PUSH1 0x20 DUP4 LT PUSH2 0x133 DUP4 LT AND PUSH1 0x4E DUP5 LT PUSH1 0xB DUP5 LT AND OR ISZERO PUSH2 0x965 JUMPI DUP3 DUP3 EXP SWAP1 POP DUP4 DUP2 GT ISZERO PUSH2 0x960 JUMPI PUSH2 0x95F PUSH2 0x83A JUMP JUMPDEST JUMPDEST PUSH2 0x98F JUMP JUMPDEST PUSH2 0x972 DUP5 DUP5 DUP5 PUSH1 0x1 PUSH2 0x873 JUMP JUMPDEST SWAP3 POP SWAP1 POP DUP2 DUP5 DIV DUP2 GT ISZERO PUSH2 0x989 JUMPI PUSH2 0x988 PUSH2 0x83A JUMP JUMPDEST JUMPDEST DUP2 DUP2 MUL SWAP1 POP JUMPDEST SWAP4 SWAP3 POP POP POP JUMP JUMPDEST PUSH0 PUSH1 0xFF DUP3 AND SWAP1 POP SWAP2 SWAP1 POP JUMP JUMPDEST PUSH0 PUSH2 0x9AC DUP3 PUSH2 0x6E1 JUMP JUMPDEST SWAP2 POP PUSH2 0x9B7 DUP4 PUSH2 0x996 JUMP JUMPDEST SWAP3 POP PUSH2 0x9E4 PUSH32 0xFFFFFFFFFFFFFFFFFFFFFFFFFFFFFFFFFFFFFFFFFFFFFFFFFFFFFFFFFFFFFFFF DUP5 DUP5 PUSH2 0x8C5 JUMP JUMPDEST SWAP1 POP SWAP3 SWAP2 POP POP JUMP JUMPDEST PUSH0 PUSH2 0x9F6 DUP3 PUSH2 0x791 JUMP JUMPDEST SWAP2 POP PUSH2 0xA01 DUP4 PUSH2 0x791 JUMP JUMPDEST SWAP3 POP DUP3 DUP3 MUL PUSH2 0xA0F DUP2 PUSH2 0x791 JUMP JUMPDEST SWAP2 POP PUSH32 0x8000000000000000000000000000000000000000000000000000000000000000 DUP5 EQ PUSH0 DUP5 SLT AND ISZERO PUSH2 0xA46 JUMPI PUSH2 0xA45 PUSH2 0x83A JUMP JUMPDEST JUMPDEST DUP3 DUP3 SDIV DUP5 EQ DUP4 ISZERO OR PUSH2 0xA5B JUMPI PUSH2 0xA5A PUSH2 0x83A JUMP JUMPDEST JUMPDEST POP SWAP3 SWAP2 POP POP JUMP JUMPDEST PUSH32 0x4E487B7100000000000000000000000000000000000000000000000000000000 PUSH0 MSTORE PUSH1 0x12 PUSH1 0x4 MSTORE PUSH1 0x24 PUSH0 REVERT JUMPDEST PUSH0 PUSH2 0xA99 DUP3 PUSH2 0x791 JUMP JUMPDEST SWAP2 POP PUSH2 0xAA4 DUP4 PUSH2 0x791 JUMP JUMPDEST SWAP3 POP DUP3 PUSH2 0xAB4 JUMPI PUSH2 0xAB3 PUSH2 0xA62 JUMP JUMPDEST JUMPDEST PUSH1 0x1 PUSH0 SUB DUP4 EQ PUSH32 0x8000000000000000000000000000000000000000000000000000000000000000 DUP4 EQ AND ISZERO PUSH2 0xAEC JUMPI PUSH2 0xAEB PUSH2 0x83A JUMP JUMPDEST JUMPDEST DUP3 DUP3 SDIV SWAP1 POP SWAP3 SWAP2 POP POP JUMP JUMPDEST PUSH0 DUP2 SWAP1 POP SWAP2 SWAP1 POP JUMP JUMPDEST PUSH0 DUP2 SWAP1 POP SWAP2 SWAP1 POP JUMP JUMPDEST PUSH0 PUSH2 0xB23 PUSH2 0xB1E PUSH2 0xB19 DUP5 PUSH2 0xAF7 JUMP JUMPDEST PUSH2 0xB00 JUMP JUMPDEST PUSH2 0x716 JUMP JUMPDEST SWAP1 POP SWAP2 SWAP1 POP JUMP JUMPDEST PUSH2 0xB33 DUP2 PUSH2 0xB09 JUMP JUMPDEST DUP3 MSTORE POP POP JUMP JUMPDEST PUSH0 PUSH1 0x20 DUP3 ADD SWAP1 POP PUSH2 0xB4C PUSH0 DUP4 ADD DUP5 PUSH2 0xB2A JUMP JUMPDEST SWAP3 SWAP2 POP POP JUMP JUMPDEST PUSH0 DUP2 SWAP1 POP SWAP2 SWAP1 POP JUMP JUMPDEST PUSH2 0xB64 DUP2 PUSH2 0xB52 JUMP JUMPDEST DUP2 EQ PUSH2 0xB6E JUMPI PUSH0 DUP1 REVERT JUMPDEST POP JUMP JUMPDEST PUSH0 DUP2 MLOAD SWAP1 POP PUSH2 0xB7F DUP2 PUSH2 0xB5B JUMP JUMPDEST SWAP3 SWAP2 POP POP JUMP JUMPDEST PUSH0 DUP2 ISZERO ISZERO SWAP1 POP SWAP2 SWAP1 POP JUMP JUMPDEST PUSH2 0xB99 DUP2 PUSH2 0xB85 JUMP JUMPDEST DUP2 EQ PUSH2 0xBA3 JUMPI PUSH0 DUP1 REVERT JUMPDEST POP JUMP JUMPDEST PUSH0 DUP2 MLOAD SWAP1 POP PUSH2 0xBB4 DUP2 PUSH2 0xB90 JUMP JUMPDEST SWAP3 SWAP2 POP POP JUMP JUMPDEST PUSH0 DUP1 PUSH1 0x40 DUP4 DUP6 SUB SLT ISZERO PUSH2 0xBD0 JUMPI PUSH2 0xBCF PUSH2 0x712 JUMP JUMPDEST JUMPDEST PUSH0 PUSH2 0xBDD DUP6 DUP3 DUP7 ADD PUSH2 0xB71 JUMP JUMPDEST SWAP3 POP POP PUSH1 0x20 PUSH2 0xBEE DUP6 DUP3 DUP7 ADD PUSH2 0xBA6 JUMP JUMPDEST SWAP2 POP POP SWAP3 POP SWAP3 SWAP1 POP JUMP JUMPDEST PUSH32 0x4E487B7100000000000000000000000000000000000000000000000000000000 PUSH0 MSTORE PUSH1 0x32 PUSH1 0x4 MSTORE PUSH1 0x24 PUSH0 REVERT JUMPDEST PUSH2 0xC2E DUP2 PUSH2 0x716 JUMP JUMPDEST DUP3 MSTORE POP POP JUMP JUMPDEST PUSH0 PUSH1 0x20 DUP3 ADD SWAP1 POP PUSH2 0xC47 PUSH0 DUP4 ADD DUP5 PUSH2 0xC25 JUMP JUMPDEST SWAP3 SWAP2 POP POP JUMP JUMPDEST PUSH0 PUSH2 0xC57 DUP3 PUSH2 0x6E1 JUMP JUMPDEST SWAP2 POP PUSH2 0xC62 DUP4 PUSH2 0x6E1 JUMP JUMPDEST SWAP3 POP DUP3 DUP3 SUB SWAP1 POP DUP2 DUP2 GT ISZERO PUSH2 0xC7A JUMPI PUSH2 0xC79 PUSH2 0x83A JUMP JUMPDEST JUMPDEST SWAP3 SWAP2 POP POP JUMP JUMPDEST PUSH0 PUSH2 0xC8A DUP3 PUSH2 0x6E1 JUMP JUMPDEST SWAP2 POP PUSH2 0xC95 DUP4 PUSH2 0x6E1 JUMP JUMPDEST SWAP3 POP PUSH2 0xCC2 PUSH32 0xFFFFFFFFFFFFFFFFFFFFFFFFFFFFFFFFFFFFFFFFFFFFFFFFFFFFFFFFFFFFFFFF DUP5 DUP5 PUSH2 0x8C5 JUMP JUMPDEST SWAP1 POP SWAP3 SWAP2 POP POP JUMP JUMPDEST PUSH0 PUSH2 0xCD4 DUP3 PUSH2 0x6E1 JUMP JUMPDEST SWAP2 POP PUSH2 0xCDF DUP4 PUSH2 0x6E1 JUMP JUMPDEST SWAP3 POP DUP3 DUP3 MUL PUSH2 0xCED DUP2 PUSH2 0x6E1 JUMP JUMPDEST SWAP2 POP DUP3 DUP3 DIV DUP5 EQ DUP4 ISZERO OR PUSH2 0xD04 JUMPI PUSH2 0xD03 PUSH2 0x83A JUMP JUMPDEST JUMPDEST POP SWAP3 SWAP2 POP POP JUMP JUMPDEST PUSH0 PUSH2 0xD15 DUP3 PUSH2 0x6E1 JUMP JUMPDEST SWAP2 POP PUSH2 0xD20 DUP4 PUSH2 0x6E1 JUMP JUMPDEST SWAP3 POP DUP3 PUSH2 0xD30 JUMPI PUSH2 0xD2F PUSH2 0xA62 JUMP JUMPDEST JUMPDEST DUP3 DUP3 DIV SWAP1 POP SWAP3 SWAP2 POP POP JUMP JUMPDEST PUSH0 DUP2 SWAP1 POP SWAP2 SWAP1 POP JUMP JUMPDEST PUSH2 0xD55 PUSH2 0xD50 DUP3 PUSH2 0xB52 JUMP JUMPDEST PUSH2 0xD3B JUMP JUMPDEST DUP3 MSTORE POP POP JUMP JUMPDEST PUSH0 PUSH2 0xD66 DUP3 DUP5 PUSH2 0xD44 JUMP JUMPDEST PUSH1 0x20 DUP3 ADD SWAP2 POP DUP2 SWAP1 POP SWAP3 SWAP2 POP POP JUMP JUMPDEST PUSH32 0x6279746573206C656E677468206973206E6F742033322E000000000000000000 PUSH0 DUP3 ADD MSTORE POP JUMP JUMPDEST PUSH0 PUSH2 0xDA9 PUSH1 0x17 DUP4 PUSH2 0x7C2 JUMP JUMPDEST SWAP2 POP PUSH2 0xDB4 DUP3 PUSH2 0xD75 JUMP JUMPDEST PUSH1 0x20 DUP3 ADD SWAP1 POP SWAP2 SWAP1 POP JUMP JUMPDEST PUSH0 PUSH1 0x20 DUP3 ADD SWAP1 POP DUP2 DUP2 SUB PUSH0 DUP4 ADD MSTORE PUSH2 0xDD6 DUP2 PUSH2 0xD9D JUMP JUMPDEST SWAP1 POP SWAP2 SWAP1 POP JUMP INVALID LOG2 PUSH5 0x6970667358 0x22 SLT KECCAK256 0x2D MLOAD 0xF9 0x1F 0xBB 0xBB PC SELFDESTRUCT 0x4C ORIGIN 0xB4 KECCAK256 CHAINID 0xC0 0xDB SWAP4 0xA6 0xF7 LOG2 DUP4 SGT 0xC6 SLT CALLDATALOAD TIMESTAMP 0xB9 0xAC 0xD9 SWAP4 0xAE 0x26 OR PUSH5 0x736F6C6343 STOP ADDMOD ISZERO STOP CALLER PUSH1 0x80 PUSH1 0x40 MSTORE PUSH1 0x19 PUSH1 0x4 SSTORE CALLVALUE DUP1 ISZERO PUSH3 0x15 JUMPI PUSH0 DUP1 REVERT JUMPDEST POP PUSH1 0x40 MLOAD PUSH3 0x565E CODESIZE SUB DUP1 PUSH3 0x565E DUP4 CODECOPY DUP2 DUP2 ADD PUSH1 0x40 MSTORE DUP2 ADD SWAP1 PUSH3 0x3B SWAP2 SWAP1 PUSH3 0x127 JUMP JUMPDEST CALLER PUSH1 0x2 PUSH0 PUSH2 0x100 EXP DUP2 SLOAD DUP2 PUSH20 0xFFFFFFFFFFFFFFFFFFFFFFFFFFFFFFFFFFFFFFFF MUL NOT AND SWAP1 DUP4 PUSH20 0xFFFFFFFFFFFFFFFFFFFFFFFFFFFFFFFFFFFFFFFF AND MUL OR SWAP1 SSTORE POP DUP1 PUSH1 0x1 PUSH0 PUSH2 0x100 EXP DUP2 SLOAD DUP2 PUSH20 0xFFFFFFFFFFFFFFFFFFFFFFFFFFFFFFFFFFFFFFFF MUL NOT AND SWAP1 DUP4 PUSH20 0xFFFFFFFFFFFFFFFFFFFFFFFFFFFFFFFFFFFFFFFF AND MUL OR SWAP1 SSTORE POP POP PUSH3 0x157 JUMP JUMPDEST PUSH0 DUP1 REVERT JUMPDEST PUSH0 PUSH20 0xFFFFFFFFFFFFFFFFFFFFFFFFFFFFFFFFFFFFFFFF DUP3 AND SWAP1 POP SWAP2 SWAP1 POP JUMP JUMPDEST PUSH0 PUSH3 0xF1 DUP3 PUSH3 0xC6 JUMP JUMPDEST SWAP1 POP SWAP2 SWAP1 POP JUMP JUMPDEST PUSH3 0x103 DUP2 PUSH3 0xE5 JUMP JUMPDEST DUP2 EQ PUSH3 0x10E JUMPI PUSH0 DUP1 REVERT JUMPDEST POP JUMP JUMPDEST PUSH0 DUP2 MLOAD SWAP1 POP PUSH3 0x121 DUP2 PUSH3 0xF8 JUMP JUMPDEST SWAP3 SWAP2 POP POP JUMP JUMPDEST PUSH0 PUSH1 0x20 DUP3 DUP5 SUB SLT ISZERO PUSH3 0x13F JUMPI PUSH3 0x13E PUSH3 0xC2 JUMP JUMPDEST JUMPDEST PUSH0 PUSH3 0x14E DUP5 DUP3 DUP6 ADD PUSH3 0x111 JUMP JUMPDEST SWAP2 POP POP SWAP3 SWAP2 POP POP JUMP JUMPDEST PUSH2 0x54F9 DUP1 PUSH3 0x165 PUSH0 CODECOPY PUSH0 RETURN INVALID PUSH1 0x80 PUSH1 0x40 MSTORE PUSH1 0x4 CALLDATASIZE LT PUSH2 0x1D7 JUMPI PUSH0 CALLDATALOAD PUSH1 0xE0 SHR DUP1 PUSH4 0x8AF3C40E GT PUSH2 0x101 JUMPI DUP1 PUSH4 0xC963CB74 GT PUSH2 0x94 JUMPI DUP1 PUSH4 0xE1519551 GT PUSH2 0x63 JUMPI DUP1 PUSH4 0xE1519551 EQ PUSH2 0x677 JUMPI DUP1 PUSH4 0xE3433615 EQ PUSH2 0x6B3 JUMPI DUP1 PUSH4 0xECD44AEF EQ PUSH2 0x6EF JUMPI DUP1 PUSH4 0xEEBB63ED EQ PUSH2 0x72C JUMPI PUSH2 0x1D7 JUMP JUMPDEST DUP1 PUSH4 0xC963CB74 EQ PUSH2 0x5A4 JUMPI DUP1 PUSH4 0xCC2DE91D EQ PUSH2 0x5E3 JUMPI DUP1 PUSH4 0xD30DCE7D EQ PUSH2 0x61F JUMPI DUP1 PUSH4 0xDF791E50 EQ PUSH2 0x647 JUMPI PUSH2 0x1D7 JUMP JUMPDEST DUP1 PUSH4 0xAC4AFA38 GT PUSH2 0xD0 JUMPI DUP1 PUSH4 0xAC4AFA38 EQ PUSH2 0x4EC JUMPI DUP1 PUSH4 0xB8EAB409 EQ PUSH2 0x52A JUMPI DUP1 PUSH4 0xBF16F65A EQ PUSH2 0x554 JUMPI DUP1 PUSH4 0xC2E6218F EQ PUSH2 0x57C JUMPI PUSH2 0x1D7 JUMP JUMPDEST DUP1 PUSH4 0x8AF3C40E EQ PUSH2 0x448 JUMPI DUP1 PUSH4 0x9078F826 EQ PUSH2 0x472 JUMPI DUP1 PUSH4 0x9931C791 EQ PUSH2 0x49A JUMPI DUP1 PUSH4 0x9C8F9F23 EQ PUSH2 0x4C4 JUMPI PUSH2 0x1D7 JUMP JUMPDEST DUP1 PUSH4 0x4F656BE6 GT PUSH2 0x179 JUMPI DUP1 PUSH4 0x75D60372 GT PUSH2 0x148 JUMPI DUP1 PUSH4 0x75D60372 EQ PUSH2 0x3B2 JUMPI DUP1 PUSH4 0x78C480DB EQ PUSH2 0x3DA JUMPI DUP1 PUSH4 0x7A16AF7F EQ PUSH2 0x402 JUMPI DUP1 PUSH4 0x8471BB68 EQ PUSH2 0x41E JUMPI PUSH2 0x1D7 JUMP JUMPDEST DUP1 PUSH4 0x4F656BE6 EQ PUSH2 0x320 JUMPI DUP1 PUSH4 0x51FDE344 EQ PUSH2 0x34A JUMPI DUP1 PUSH4 0x5554B552 EQ PUSH2 0x372 JUMPI DUP1 PUSH4 0x59DEA066 EQ PUSH2 0x388 JUMPI PUSH2 0x1D7 JUMP JUMPDEST DUP1 PUSH4 0x2C4E722E GT PUSH2 0x1B5 JUMPI DUP1 PUSH4 0x2C4E722E EQ PUSH2 0x27A JUMPI DUP1 PUSH4 0x32A2C5D0 EQ PUSH2 0x2A4 JUMPI DUP1 PUSH4 0x36051F26 EQ PUSH2 0x2CE JUMPI DUP1 PUSH4 0x4D286A3D EQ PUSH2 0x2F6 JUMPI PUSH2 0x1D7 JUMP JUMPDEST DUP1 PUSH4 0x61BF045 EQ PUSH2 0x1DB JUMPI DUP1 PUSH4 0x787BC27 EQ PUSH2 0x20B JUMPI DUP1 PUSH4 0x1C1C5AC4 EQ PUSH2 0x24A JUMPI JUMPDEST PUSH0 DUP1 REVERT JUMPDEST PUSH2 0x1F5 PUSH1 0x4 DUP1 CALLDATASIZE SUB DUP2 ADD SWAP1 PUSH2 0x1F0 SWAP2 SWAP1 PUSH2 0x4328 JUMP JUMPDEST PUSH2 0x76C JUMP JUMPDEST PUSH1 0x40 MLOAD PUSH2 0x202 SWAP2 SWAP1 PUSH2 0x439B JUMP JUMPDEST PUSH1 0x40 MLOAD DUP1 SWAP2 SUB SWAP1 RETURN JUMPDEST CALLVALUE DUP1 ISZERO PUSH2 0x216 JUMPI PUSH0 DUP1 REVERT JUMPDEST POP PUSH2 0x231 PUSH1 0x4 DUP1 CALLDATASIZE SUB DUP2 ADD SWAP1 PUSH2 0x22C SWAP2 SWAP1 PUSH2 0x43B4 JUMP JUMPDEST PUSH2 0x8E1 JUMP JUMPDEST PUSH1 0x40 MLOAD PUSH2 0x241 SWAP5 SWAP4 SWAP3 SWAP2 SWAP1 PUSH2 0x43F9 JUMP JUMPDEST PUSH1 0x40 MLOAD DUP1 SWAP2 SUB SWAP1 RETURN JUMPDEST PUSH2 0x264 PUSH1 0x4 DUP1 CALLDATASIZE SUB DUP2 ADD SWAP1 PUSH2 0x25F SWAP2 SWAP1 PUSH2 0x443C JUMP JUMPDEST PUSH2 0x919 JUMP JUMPDEST PUSH1 0x40 MLOAD PUSH2 0x271 SWAP2 SWAP1 PUSH2 0x439B JUMP JUMPDEST PUSH1 0x40 MLOAD DUP1 SWAP2 SUB SWAP1 RETURN JUMPDEST CALLVALUE DUP1 ISZERO PUSH2 0x285 JUMPI PUSH0 DUP1 REVERT JUMPDEST POP PUSH2 0x28E PUSH2 0x1426 JUMP JUMPDEST PUSH1 0x40 MLOAD PUSH2 0x29B SWAP2 SWAP1 PUSH2 0x44B8 JUMP JUMPDEST PUSH1 0x40 MLOAD DUP1 SWAP2 SUB SWAP1 RETURN JUMPDEST CALLVALUE DUP1 ISZERO PUSH2 0x2AF JUMPI PUSH0 DUP1 REVERT JUMPDEST POP PUSH2 0x2B8 PUSH2 0x142B JUMP JUMPDEST PUSH1 0x40 MLOAD PUSH2 0x2C5 SWAP2 SWAP1 PUSH2 0x44E0 JUMP JUMPDEST PUSH1 0x40 MLOAD DUP1 SWAP2 SUB SWAP1 RETURN JUMPDEST CALLVALUE DUP1 ISZERO PUSH2 0x2D9 JUMPI PUSH0 DUP1 REVERT JUMPDEST POP PUSH2 0x2F4 PUSH1 0x4 DUP1 CALLDATASIZE SUB DUP2 ADD SWAP1 PUSH2 0x2EF SWAP2 SWAP1 PUSH2 0x452F JUMP JUMPDEST PUSH2 0x1432 JUMP JUMPDEST STOP JUMPDEST CALLVALUE DUP1 ISZERO PUSH2 0x301 JUMPI PUSH0 DUP1 REVERT JUMPDEST POP PUSH2 0x30A PUSH2 0x1599 JUMP JUMPDEST PUSH1 0x40 MLOAD PUSH2 0x317 SWAP2 SWAP1 PUSH2 0x44E0 JUMP JUMPDEST PUSH1 0x40 MLOAD DUP1 SWAP2 SUB SWAP1 RETURN JUMPDEST CALLVALUE DUP1 ISZERO PUSH2 0x32B JUMPI PUSH0 DUP1 REVERT JUMPDEST POP PUSH2 0x334 PUSH2 0x15BE JUMP JUMPDEST PUSH1 0x40 MLOAD PUSH2 0x341 SWAP2 SWAP1 PUSH2 0x458F JUMP JUMPDEST PUSH1 0x40 MLOAD DUP1 SWAP2 SUB SWAP1 RETURN JUMPDEST CALLVALUE DUP1 ISZERO PUSH2 0x355 JUMPI PUSH0 DUP1 REVERT JUMPDEST POP PUSH2 0x370 PUSH1 0x4 DUP1 CALLDATASIZE SUB DUP2 ADD SWAP1 PUSH2 0x36B SWAP2 SWAP1 PUSH2 0x45D2 JUMP JUMPDEST PUSH2 0x15D8 JUMP JUMPDEST STOP JUMPDEST CALLVALUE DUP1 ISZERO PUSH2 0x37D JUMPI PUSH0 DUP1 REVERT JUMPDEST POP PUSH2 0x386 PUSH2 0x16B3 JUMP JUMPDEST STOP JUMPDEST CALLVALUE DUP1 ISZERO PUSH2 0x393 JUMPI PUSH0 DUP1 REVERT JUMPDEST POP PUSH2 0x39C PUSH2 0x191C JUMP JUMPDEST PUSH1 0x40 MLOAD PUSH2 0x3A9 SWAP2 SWAP1 PUSH2 0x439B JUMP JUMPDEST PUSH1 0x40 MLOAD DUP1 SWAP2 SUB SWAP1 RETURN JUMPDEST CALLVALUE DUP1 ISZERO PUSH2 0x3BD JUMPI PUSH0 DUP1 REVERT JUMPDEST POP PUSH2 0x3D8 PUSH1 0x4 DUP1 CALLDATASIZE SUB DUP2 ADD SWAP1 PUSH2 0x3D3 SWAP2 SWAP1 PUSH2 0x43B4 JUMP JUMPDEST PUSH2 0x1942 JUMP JUMPDEST STOP JUMPDEST CALLVALUE DUP1 ISZERO PUSH2 0x3E5 JUMPI PUSH0 DUP1 REVERT JUMPDEST POP PUSH2 0x400 PUSH1 0x4 DUP1 CALLDATASIZE SUB DUP2 ADD SWAP1 PUSH2 0x3FB SWAP2 SWAP1 PUSH2 0x45FD JUMP JUMPDEST PUSH2 0x1A82 JUMP JUMPDEST STOP JUMPDEST PUSH2 0x41C PUSH1 0x4 DUP1 CALLDATASIZE SUB DUP2 ADD SWAP1 PUSH2 0x417 SWAP2 SWAP1 PUSH2 0x463B JUMP JUMPDEST PUSH2 0x1C0F JUMP JUMPDEST STOP JUMPDEST CALLVALUE DUP1 ISZERO PUSH2 0x429 JUMPI PUSH0 DUP1 REVERT JUMPDEST POP PUSH2 0x432 PUSH2 0x23E9 JUMP JUMPDEST PUSH1 0x40 MLOAD PUSH2 0x43F SWAP2 SWAP1 PUSH2 0x458F JUMP JUMPDEST PUSH1 0x40 MLOAD DUP1 SWAP2 SUB SWAP1 RETURN JUMPDEST CALLVALUE DUP1 ISZERO PUSH2 0x453 JUMPI PUSH0 DUP1 REVERT JUMPDEST POP PUSH2 0x45C PUSH2 0x2402 JUMP JUMPDEST PUSH1 0x40 MLOAD PUSH2 0x469 SWAP2 SWAP1 PUSH2 0x44E0 JUMP JUMPDEST PUSH1 0x40 MLOAD DUP1 SWAP2 SUB SWAP1 RETURN JUMPDEST CALLVALUE DUP1 ISZERO PUSH2 0x47D JUMPI PUSH0 DUP1 REVERT JUMPDEST POP PUSH2 0x498 PUSH1 0x4 DUP1 CALLDATASIZE SUB DUP2 ADD SWAP1 PUSH2 0x493 SWAP2 SWAP1 PUSH2 0x46A3 JUMP JUMPDEST PUSH2 0x242A JUMP JUMPDEST STOP JUMPDEST CALLVALUE DUP1 ISZERO PUSH2 0x4A5 JUMPI PUSH0 DUP1 REVERT JUMPDEST POP PUSH2 0x4AE PUSH2 0x24E4 JUMP JUMPDEST PUSH1 0x40 MLOAD PUSH2 0x4BB SWAP2 SWAP1 PUSH2 0x44E0 JUMP JUMPDEST PUSH1 0x40 MLOAD DUP1 SWAP2 SUB SWAP1 RETURN JUMPDEST CALLVALUE DUP1 ISZERO PUSH2 0x4CF JUMPI PUSH0 DUP1 REVERT JUMPDEST POP PUSH2 0x4EA PUSH1 0x4 DUP1 CALLDATASIZE SUB DUP2 ADD SWAP1 PUSH2 0x4E5 SWAP2 SWAP1 PUSH2 0x46CE JUMP JUMPDEST PUSH2 0x2509 JUMP JUMPDEST STOP JUMPDEST CALLVALUE DUP1 ISZERO PUSH2 0x4F7 JUMPI PUSH0 DUP1 REVERT JUMPDEST POP PUSH2 0x512 PUSH1 0x4 DUP1 CALLDATASIZE SUB DUP2 ADD SWAP1 PUSH2 0x50D SWAP2 SWAP1 PUSH2 0x46CE JUMP JUMPDEST PUSH2 0x2B1F JUMP JUMPDEST PUSH1 0x40 MLOAD PUSH2 0x521 SWAP4 SWAP3 SWAP2 SWAP1 PUSH2 0x46F9 JUMP JUMPDEST PUSH1 0x40 MLOAD DUP1 SWAP2 SUB SWAP1 RETURN JUMPDEST CALLVALUE DUP1 ISZERO PUSH2 0x535 JUMPI PUSH0 DUP1 REVERT JUMPDEST POP PUSH2 0x53E PUSH2 0x2B83 JUMP JUMPDEST PUSH1 0x40 MLOAD PUSH2 0x54B SWAP2 SWAP1 PUSH2 0x458F JUMP JUMPDEST PUSH1 0x40 MLOAD DUP1 SWAP2 SUB SWAP1 RETURN JUMPDEST CALLVALUE DUP1 ISZERO PUSH2 0x55F JUMPI PUSH0 DUP1 REVERT JUMPDEST POP PUSH2 0x57A PUSH1 0x4 DUP1 CALLDATASIZE SUB DUP2 ADD SWAP1 PUSH2 0x575 SWAP2 SWAP1 PUSH2 0x46CE JUMP JUMPDEST PUSH2 0x2B9D JUMP JUMPDEST STOP JUMPDEST CALLVALUE DUP1 ISZERO PUSH2 0x587 JUMPI PUSH0 DUP1 REVERT JUMPDEST POP PUSH2 0x5A2 PUSH1 0x4 DUP1 CALLDATASIZE SUB DUP2 ADD SWAP1 PUSH2 0x59D SWAP2 SWAP1 PUSH2 0x46A3 JUMP JUMPDEST PUSH2 0x2CBC JUMP JUMPDEST STOP JUMPDEST CALLVALUE DUP1 ISZERO PUSH2 0x5AF JUMPI PUSH0 DUP1 REVERT JUMPDEST POP PUSH2 0x5CA PUSH1 0x4 DUP1 CALLDATASIZE SUB DUP2 ADD SWAP1 PUSH2 0x5C5 SWAP2 SWAP1 PUSH2 0x43B4 JUMP JUMPDEST PUSH2 0x2D77 JUMP JUMPDEST PUSH1 0x40 MLOAD PUSH2 0x5DA SWAP5 SWAP4 SWAP3 SWAP2 SWAP1 PUSH2 0x47E5 JUMP JUMPDEST PUSH1 0x40 MLOAD DUP1 SWAP2 SUB SWAP1 RETURN JUMPDEST CALLVALUE DUP1 ISZERO PUSH2 0x5EE JUMPI PUSH0 DUP1 REVERT JUMPDEST POP PUSH2 0x609 PUSH1 0x4 DUP1 CALLDATASIZE SUB DUP2 ADD SWAP1 PUSH2 0x604 SWAP2 SWAP1 PUSH2 0x4844 JUMP JUMPDEST PUSH2 0x3014 JUMP JUMPDEST PUSH1 0x40 MLOAD PUSH2 0x616 SWAP2 SWAP1 PUSH2 0x439B JUMP JUMPDEST PUSH1 0x40 MLOAD DUP1 SWAP2 SUB SWAP1 RETURN JUMPDEST CALLVALUE DUP1 ISZERO PUSH2 0x62A JUMPI PUSH0 DUP1 REVERT JUMPDEST POP PUSH2 0x645 PUSH1 0x4 DUP1 CALLDATASIZE SUB DUP2 ADD SWAP1 PUSH2 0x640 SWAP2 SWAP1 PUSH2 0x46CE JUMP JUMPDEST PUSH2 0x30D8 JUMP JUMPDEST STOP JUMPDEST PUSH2 0x661 PUSH1 0x4 DUP1 CALLDATASIZE SUB DUP2 ADD SWAP1 PUSH2 0x65C SWAP2 SWAP1 PUSH2 0x4894 JUMP JUMPDEST PUSH2 0x32D2 JUMP JUMPDEST PUSH1 0x40 MLOAD PUSH2 0x66E SWAP2 SWAP1 PUSH2 0x439B JUMP JUMPDEST PUSH1 0x40 MLOAD DUP1 SWAP2 SUB SWAP1 RETURN JUMPDEST CALLVALUE DUP1 ISZERO PUSH2 0x682 JUMPI PUSH0 DUP1 REVERT JUMPDEST POP PUSH2 0x69D PUSH1 0x4 DUP1 CALLDATASIZE SUB DUP2 ADD SWAP1 PUSH2 0x698 SWAP2 SWAP1 PUSH2 0x43B4 JUMP JUMPDEST PUSH2 0x32E8 JUMP JUMPDEST PUSH1 0x40 MLOAD PUSH2 0x6AA SWAP2 SWAP1 PUSH2 0x458F JUMP JUMPDEST PUSH1 0x40 MLOAD DUP1 SWAP2 SUB SWAP1 RETURN JUMPDEST CALLVALUE DUP1 ISZERO PUSH2 0x6BE JUMPI PUSH0 DUP1 REVERT JUMPDEST POP PUSH2 0x6D9 PUSH1 0x4 DUP1 CALLDATASIZE SUB DUP2 ADD SWAP1 PUSH2 0x6D4 SWAP2 SWAP1 PUSH2 0x48E4 JUMP JUMPDEST PUSH2 0x330C JUMP JUMPDEST PUSH1 0x40 MLOAD PUSH2 0x6E6 SWAP2 SWAP1 PUSH2 0x439B JUMP JUMPDEST PUSH1 0x40 MLOAD DUP1 SWAP2 SUB SWAP1 RETURN JUMPDEST CALLVALUE DUP1 ISZERO PUSH2 0x6FA JUMPI PUSH0 DUP1 REVERT JUMPDEST POP PUSH2 0x715 PUSH1 0x4 DUP1 CALLDATASIZE SUB DUP2 ADD SWAP1 PUSH2 0x710 SWAP2 SWAP1 PUSH2 0x48E4 JUMP JUMPDEST PUSH2 0x33A0 JUMP JUMPDEST PUSH1 0x40 MLOAD PUSH2 0x723 SWAP3 SWAP2 SWAP1 PUSH2 0x4922 JUMP JUMPDEST PUSH1 0x40 MLOAD DUP1 SWAP2 SUB SWAP1 RETURN JUMPDEST CALLVALUE DUP1 ISZERO PUSH2 0x737 JUMPI PUSH0 DUP1 REVERT JUMPDEST POP PUSH2 0x752 PUSH1 0x4 DUP1 CALLDATASIZE SUB DUP2 ADD SWAP1 PUSH2 0x74D SWAP2 SWAP1 PUSH2 0x46CE JUMP JUMPDEST PUSH2 0x33C4 JUMP JUMPDEST PUSH1 0x40 MLOAD PUSH2 0x763 SWAP6 SWAP5 SWAP4 SWAP3 SWAP2 SWAP1 PUSH2 0x4949 JUMP JUMPDEST PUSH1 0x40 MLOAD DUP1 SWAP2 SUB SWAP1 RETURN JUMPDEST PUSH0 DUP1 DUP6 SWAP1 POP PUSH0 PUSH1 0x4 SLOAD PUSH2 0x3E8 DUP7 PUSH2 0x783 SWAP2 SWAP1 PUSH2 0x49F4 JUMP JUMPDEST PUSH2 0x78D SWAP2 SWAP1 PUSH2 0x4A24 JUMP JUMPDEST SWAP1 POP DUP2 PUSH20 0xFFFFFFFFFFFFFFFFFFFFFFFFFFFFFFFFFFFFFFFF AND PUSH4 0x23B872DD DUP6 ADDRESS DUP10 PUSH1 0x40 MLOAD DUP5 PUSH4 0xFFFFFFFF AND PUSH1 0xE0 SHL DUP2 MSTORE PUSH1 0x4 ADD PUSH2 0x7CC SWAP4 SWAP3 SWAP2 SWAP1 PUSH2 0x4A65 JUMP JUMPDEST PUSH1 0x20 PUSH1 0x40 MLOAD DUP1 DUP4 SUB DUP2 PUSH0 DUP8 GAS CALL ISZERO DUP1 ISZERO PUSH2 0x7E8 JUMPI RETURNDATASIZE PUSH0 DUP1 RETURNDATACOPY RETURNDATASIZE PUSH0 REVERT JUMPDEST POP POP POP POP PUSH1 0x40 MLOAD RETURNDATASIZE PUSH1 0x1F NOT PUSH1 0x1F DUP3 ADD AND DUP3 ADD DUP1 PUSH1 0x40 MSTORE POP DUP2 ADD SWAP1 PUSH2 0x80C SWAP2 SWAP1 PUSH2 0x4AAE JUMP JUMPDEST POP DUP5 SELFBALANCE LT ISZERO PUSH2 0x850 JUMPI PUSH1 0x40 MLOAD PUSH32 0x8C379A000000000000000000000000000000000000000000000000000000000 DUP2 MSTORE PUSH1 0x4 ADD PUSH2 0x847 SWAP1 PUSH2 0x4B33 JUMP JUMPDEST PUSH1 0x40 MLOAD DUP1 SWAP2 SUB SWAP1 REVERT JUMPDEST DUP4 PUSH20 0xFFFFFFFFFFFFFFFFFFFFFFFFFFFFFFFFFFFFFFFF AND PUSH2 0x8FC DUP3 DUP8 PUSH2 0x876 SWAP2 SWAP1 PUSH2 0x4B51 JUMP JUMPDEST SWAP1 DUP2 ISZERO MUL SWAP1 PUSH1 0x40 MLOAD PUSH0 PUSH1 0x40 MLOAD DUP1 DUP4 SUB DUP2 DUP6 DUP9 DUP9 CALL SWAP4 POP POP POP POP ISZERO DUP1 ISZERO PUSH2 0x89E JUMPI RETURNDATASIZE PUSH0 DUP1 RETURNDATACOPY RETURNDATASIZE PUSH0 REVERT JUMPDEST POP PUSH2 0x8D5 PUSH1 0x9 PUSH0 SWAP1 SLOAD SWAP1 PUSH2 0x100 EXP SWAP1 DIV PUSH8 0xFFFFFFFFFFFFFFFF AND PUSH1 0x9 PUSH1 0x10 SWAP1 SLOAD SWAP1 PUSH2 0x100 EXP SWAP1 DIV PUSH8 0xFFFFFFFFFFFFFFFF AND DUP4 PUSH2 0x3014 JUMP JUMPDEST SWAP3 POP POP POP SWAP5 SWAP4 POP POP POP POP JUMP JUMPDEST PUSH1 0xD PUSH1 0x20 MSTORE DUP1 PUSH0 MSTORE PUSH1 0x40 PUSH0 KECCAK256 PUSH0 SWAP2 POP SWAP1 POP DUP1 PUSH0 ADD SLOAD SWAP1 DUP1 PUSH1 0x1 ADD SLOAD SWAP1 DUP1 PUSH1 0x2 ADD SLOAD SWAP1 DUP1 PUSH1 0x3 ADD PUSH0 SWAP1 SLOAD SWAP1 PUSH2 0x100 EXP SWAP1 DIV PUSH1 0xFF AND SWAP1 POP DUP5 JUMP JUMPDEST PUSH0 PUSH1 0x64 DUP4 LT ISZERO PUSH2 0x95E JUMPI PUSH1 0x40 MLOAD PUSH32 0x8C379A000000000000000000000000000000000000000000000000000000000 DUP2 MSTORE PUSH1 0x4 ADD PUSH2 0x955 SWAP1 PUSH2 0x4BF4 JUMP JUMPDEST PUSH1 0x40 MLOAD DUP1 SWAP2 SUB SWAP1 REVERT JUMPDEST PUSH0 DUP1 DUP5 SWAP1 POP PUSH0 PUSH2 0x96E DUP9 DUP9 PUSH2 0x3415 JUMP JUMPDEST SWAP1 POP PUSH0 PUSH1 0xC PUSH0 DUP4 DUP2 MSTORE PUSH1 0x20 ADD SWAP1 DUP2 MSTORE PUSH1 0x20 ADD PUSH0 KECCAK256 PUSH0 ADD SLOAD GT PUSH2 0x9C5 JUMPI PUSH1 0x40 MLOAD PUSH32 0x8C379A000000000000000000000000000000000000000000000000000000000 DUP2 MSTORE PUSH1 0x4 ADD PUSH2 0x9BC SWAP1 PUSH2 0x4C5C JUMP JUMPDEST PUSH1 0x40 MLOAD DUP1 SWAP2 SUB SWAP1 REVERT JUMPDEST PUSH1 0x9 PUSH0 SWAP1 SLOAD SWAP1 PUSH2 0x100 EXP SWAP1 DIV PUSH8 0xFFFFFFFFFFFFFFFF AND PUSH8 0xFFFFFFFFFFFFFFFF AND PUSH1 0x8 PUSH0 PUSH1 0xC PUSH0 DUP6 DUP2 MSTORE PUSH1 0x20 ADD SWAP1 DUP2 MSTORE PUSH1 0x20 ADD PUSH0 KECCAK256 PUSH1 0x1 ADD PUSH0 SWAP1 SLOAD SWAP1 PUSH2 0x100 EXP SWAP1 DIV PUSH20 0xFFFFFFFFFFFFFFFFFFFFFFFFFFFFFFFFFFFFFFFF AND PUSH20 0xFFFFFFFFFFFFFFFFFFFFFFFFFFFFFFFFFFFFFFFF AND PUSH20 0xFFFFFFFFFFFFFFFFFFFFFFFFFFFFFFFFFFFFFFFF AND DUP2 MSTORE PUSH1 0x20 ADD SWAP1 DUP2 MSTORE PUSH1 0x20 ADD PUSH0 KECCAK256 PUSH0 SWAP1 SLOAD SWAP1 PUSH2 0x100 EXP SWAP1 DIV PUSH8 0xFFFFFFFFFFFFFFFF AND PUSH8 0xFFFFFFFFFFFFFFFF AND SUB PUSH2 0xD29 JUMPI CALLVALUE SWAP2 POP PUSH2 0xB1E PUSH1 0x9 PUSH0 SWAP1 SLOAD SWAP1 PUSH2 0x100 EXP SWAP1 DIV PUSH8 0xFFFFFFFFFFFFFFFF AND PUSH1 0x8 PUSH0 PUSH1 0xC PUSH0 DUP7 DUP2 MSTORE PUSH1 0x20 ADD SWAP1 DUP2 MSTORE PUSH1 0x20 ADD PUSH0 KECCAK256 PUSH1 0x2 ADD PUSH0 SWAP1 SLOAD SWAP1 PUSH2 0x100 EXP SWAP1 DIV PUSH20 0xFFFFFFFFFFFFFFFFFFFFFFFFFFFFFFFFFFFFFFFF AND PUSH20 0xFFFFFFFFFFFFFFFFFFFFFFFFFFFFFFFFFFFFFFFF AND PUSH20 0xFFFFFFFFFFFFFFFFFFFFFFFFFFFFFFFFFFFFFFFF AND DUP2 MSTORE PUSH1 0x20 ADD SWAP1 DUP2 MSTORE PUSH1 0x20 ADD PUSH0 KECCAK256 PUSH0 SWAP1 SLOAD SWAP1 PUSH2 0x100 EXP SWAP1 DIV PUSH8 0xFFFFFFFFFFFFFFFF AND DUP5 PUSH2 0x3014 JUMP JUMPDEST SWAP3 POP PUSH0 PUSH2 0xB2A DUP3 PUSH2 0x369A JUMP JUMPDEST SWAP2 POP POP DUP4 DUP2 LT ISZERO PUSH2 0xB70 JUMPI PUSH1 0x40 MLOAD PUSH32 0x8C379A000000000000000000000000000000000000000000000000000000000 DUP2 MSTORE PUSH1 0x4 ADD PUSH2 0xB67 SWAP1 PUSH2 0x4CC4 JUMP JUMPDEST PUSH1 0x40 MLOAD DUP1 SWAP2 SUB SWAP1 REVERT JUMPDEST PUSH0 PUSH2 0xBAF PUSH1 0xC PUSH0 DUP6 DUP2 MSTORE PUSH1 0x20 ADD SWAP1 DUP2 MSTORE PUSH1 0x20 ADD PUSH0 KECCAK256 PUSH1 0x2 ADD PUSH0 SWAP1 SLOAD SWAP1 PUSH2 0x100 EXP SWAP1 DIV PUSH20 0xFFFFFFFFFFFFFFFFFFFFFFFFFFFFFFFFFFFFFFFF AND DUP7 DUP10 PUSH2 0x3757 JUMP JUMPDEST SWAP1 POP PUSH0 PUSH1 0x64 PUSH1 0x50 DUP4 PUSH2 0xBC1 SWAP2 SWAP1 PUSH2 0x4A24 JUMP JUMPDEST PUSH2 0xBCB SWAP2 SWAP1 PUSH2 0x49F4 JUMP JUMPDEST SWAP1 POP DUP1 DUP3 PUSH2 0xBD9 SWAP2 SWAP1 PUSH2 0x4B51 JUMP JUMPDEST PUSH1 0x3 PUSH0 DUP3 DUP3 SLOAD PUSH2 0xBE9 SWAP2 SWAP1 PUSH2 0x4CE2 JUMP JUMPDEST SWAP3 POP POP DUP2 SWAP1 SSTORE POP PUSH2 0xD21 DUP6 DUP8 DUP6 PUSH1 0xC PUSH0 DUP10 DUP2 MSTORE PUSH1 0x20 ADD SWAP1 DUP2 MSTORE PUSH1 0x20 ADD PUSH0 KECCAK256 PUSH1 0x40 MLOAD DUP1 PUSH1 0x80 ADD PUSH1 0x40 MSTORE SWAP1 DUP2 PUSH0 DUP3 ADD SLOAD DUP2 MSTORE PUSH1 0x20 ADD PUSH1 0x1 DUP3 ADD PUSH0 SWAP1 SLOAD SWAP1 PUSH2 0x100 EXP SWAP1 DIV PUSH20 0xFFFFFFFFFFFFFFFFFFFFFFFFFFFFFFFFFFFFFFFF AND PUSH20 0xFFFFFFFFFFFFFFFFFFFFFFFFFFFFFFFFFFFFFFFF AND PUSH20 0xFFFFFFFFFFFFFFFFFFFFFFFFFFFFFFFFFFFFFFFF AND DUP2 MSTORE PUSH1 0x20 ADD PUSH1 0x2 DUP3 ADD PUSH0 SWAP1 SLOAD SWAP1 PUSH2 0x100 EXP SWAP1 DIV PUSH20 0xFFFFFFFFFFFFFFFFFFFFFFFFFFFFFFFFFFFFFFFF AND PUSH20 0xFFFFFFFFFFFFFFFFFFFFFFFFFFFFFFFFFFFFFFFF AND PUSH20 0xFFFFFFFFFFFFFFFFFFFFFFFFFFFFFFFFFFFFFFFF AND DUP2 MSTORE PUSH1 0x20 ADD PUSH1 0x3 DUP3 ADD DUP1 SLOAD DUP1 PUSH1 0x20 MUL PUSH1 0x20 ADD PUSH1 0x40 MLOAD SWAP1 DUP2 ADD PUSH1 0x40 MSTORE DUP1 SWAP3 SWAP2 SWAP1 DUP2 DUP2 MSTORE PUSH1 0x20 ADD DUP3 DUP1 SLOAD DUP1 ISZERO PUSH2 0xD12 JUMPI PUSH1 0x20 MUL DUP3 ADD SWAP2 SWAP1 PUSH0 MSTORE PUSH1 0x20 PUSH0 KECCAK256 SWAP1 JUMPDEST DUP2 SLOAD DUP2 MSTORE PUSH1 0x20 ADD SWAP1 PUSH1 0x1 ADD SWAP1 DUP1 DUP4 GT PUSH2 0xCFE JUMPI JUMPDEST POP POP POP POP POP DUP2 MSTORE POP POP DUP6 PUSH2 0x387D JUMP JUMPDEST POP POP POP PUSH2 0x13D9 JUMP JUMPDEST PUSH1 0x9 PUSH0 SWAP1 SLOAD SWAP1 PUSH2 0x100 EXP SWAP1 DIV PUSH8 0xFFFFFFFFFFFFFFFF AND PUSH8 0xFFFFFFFFFFFFFFFF AND PUSH1 0x8 PUSH0 PUSH1 0xC PUSH0 DUP6 DUP2 MSTORE PUSH1 0x20 ADD SWAP1 DUP2 MSTORE PUSH1 0x20 ADD PUSH0 KECCAK256 PUSH1 0x2 ADD PUSH0 SWAP1 SLOAD SWAP1 PUSH2 0x100 EXP SWAP1 DIV PUSH20 0xFFFFFFFFFFFFFFFFFFFFFFFFFFFFFFFFFFFFFFFF AND PUSH20 0xFFFFFFFFFFFFFFFFFFFFFFFFFFFFFFFFFFFFFFFF AND PUSH20 0xFFFFFFFFFFFFFFFFFFFFFFFFFFFFFFFFFFFFFFFF AND DUP2 MSTORE PUSH1 0x20 ADD SWAP1 DUP2 MSTORE PUSH1 0x20 ADD PUSH0 KECCAK256 PUSH0 SWAP1 SLOAD SWAP1 PUSH2 0x100 EXP SWAP1 DIV PUSH8 0xFFFFFFFFFFFFFFFF AND PUSH8 0xFFFFFFFFFFFFFFFF AND SUB PUSH2 0x108B JUMPI PUSH2 0xE7F PUSH1 0x8 PUSH0 PUSH1 0xC PUSH0 DUP6 DUP2 MSTORE PUSH1 0x20 ADD SWAP1 DUP2 MSTORE PUSH1 0x20 ADD PUSH0 KECCAK256 PUSH1 0x1 ADD PUSH0 SWAP1 SLOAD SWAP1 PUSH2 0x100 EXP SWAP1 DIV PUSH20 0xFFFFFFFFFFFFFFFFFFFFFFFFFFFFFFFFFFFFFFFF AND PUSH20 0xFFFFFFFFFFFFFFFFFFFFFFFFFFFFFFFFFFFFFFFF AND PUSH20 0xFFFFFFFFFFFFFFFFFFFFFFFFFFFFFFFFFFFFFFFF AND DUP2 MSTORE PUSH1 0x20 ADD SWAP1 DUP2 MSTORE PUSH1 0x20 ADD PUSH0 KECCAK256 PUSH0 SWAP1 SLOAD SWAP1 PUSH2 0x100 EXP SWAP1 DIV PUSH8 0xFFFFFFFFFFFFFFFF AND PUSH1 0x9 PUSH0 SWAP1 SLOAD SWAP1 PUSH2 0x100 EXP SWAP1 DIV PUSH8 0xFFFFFFFFFFFFFFFF AND DUP5 PUSH2 0x3014 JUMP JUMPDEST SWAP3 POP PUSH0 PUSH2 0xE8B DUP3 PUSH2 0x369A JUMP JUMPDEST POP SWAP1 POP DUP4 DUP2 LT ISZERO PUSH2 0xED1 JUMPI PUSH1 0x40 MLOAD PUSH32 0x8C379A000000000000000000000000000000000000000000000000000000000 DUP2 MSTORE PUSH1 0x4 ADD PUSH2 0xEC8 SWAP1 PUSH2 0x4CC4 JUMP JUMPDEST PUSH1 0x40 MLOAD DUP1 SWAP2 SUB SWAP1 REVERT JUMPDEST PUSH0 PUSH2 0xF11 PUSH1 0xC PUSH0 DUP6 DUP2 MSTORE PUSH1 0x20 ADD SWAP1 DUP2 MSTORE PUSH1 0x20 ADD PUSH0 KECCAK256 PUSH1 0x1 ADD PUSH0 SWAP1 SLOAD SWAP1 PUSH2 0x100 EXP SWAP1 DIV PUSH20 0xFFFFFFFFFFFFFFFFFFFFFFFFFFFFFFFFFFFFFFFF AND DUP6 DUP8 DUP11 PUSH2 0x76C JUMP JUMPDEST SWAP1 POP PUSH0 PUSH1 0x64 PUSH1 0x50 DUP4 PUSH2 0xF23 SWAP2 SWAP1 PUSH2 0x4A24 JUMP JUMPDEST PUSH2 0xF2D SWAP2 SWAP1 PUSH2 0x49F4 JUMP JUMPDEST SWAP1 POP DUP1 DUP3 PUSH2 0xF3B SWAP2 SWAP1 PUSH2 0x4B51 JUMP JUMPDEST PUSH1 0x3 PUSH0 DUP3 DUP3 SLOAD PUSH2 0xF4B SWAP2 SWAP1 PUSH2 0x4CE2 JUMP JUMPDEST SWAP3 POP POP DUP2 SWAP1 SSTORE POP PUSH2 0x1083 DUP6 DUP8 DUP6 PUSH1 0xC PUSH0 DUP10 DUP2 MSTORE PUSH1 0x20 ADD SWAP1 DUP2 MSTORE PUSH1 0x20 ADD PUSH0 KECCAK256 PUSH1 0x40 MLOAD DUP1 PUSH1 0x80 ADD PUSH1 0x40 MSTORE SWAP1 DUP2 PUSH0 DUP3 ADD SLOAD DUP2 MSTORE PUSH1 0x20 ADD PUSH1 0x1 DUP3 ADD PUSH0 SWAP1 SLOAD SWAP1 PUSH2 0x100 EXP SWAP1 DIV PUSH20 0xFFFFFFFFFFFFFFFFFFFFFFFFFFFFFFFFFFFFFFFF AND PUSH20 0xFFFFFFFFFFFFFFFFFFFFFFFFFFFFFFFFFFFFFFFF AND PUSH20 0xFFFFFFFFFFFFFFFFFFFFFFFFFFFFFFFFFFFFFFFF AND DUP2 MSTORE PUSH1 0x20 ADD PUSH1 0x2 DUP3 ADD PUSH0 SWAP1 SLOAD SWAP1 PUSH2 0x100 EXP SWAP1 DIV PUSH20 0xFFFFFFFFFFFFFFFFFFFFFFFFFFFFFFFFFFFFFFFF AND PUSH20 0xFFFFFFFFFFFFFFFFFFFFFFFFFFFFFFFFFFFFFFFF AND PUSH20 0xFFFFFFFFFFFFFFFFFFFFFFFFFFFFFFFFFFFFFFFF AND DUP2 MSTORE PUSH1 0x20 ADD PUSH1 0x3 DUP3 ADD DUP1 SLOAD DUP1 PUSH1 0x20 MUL PUSH1 0x20 ADD PUSH1 0x40 MLOAD SWAP1 DUP2 ADD PUSH1 0x40 MSTORE DUP1 SWAP3 SWAP2 SWAP1 DUP2 DUP2 MSTORE PUSH1 0x20 ADD DUP3 DUP1 SLOAD DUP1 ISZERO PUSH2 0x1074 JUMPI PUSH1 0x20 MUL DUP3 ADD SWAP2 SWAP1 PUSH0 MSTORE PUSH1 0x20 PUSH0 KECCAK256 SWAP1 JUMPDEST DUP2 SLOAD DUP2 MSTORE PUSH1 0x20 ADD SWAP1 PUSH1 0x1 ADD SWAP1 DUP1 DUP4 GT PUSH2 0x1060 JUMPI JUMPDEST POP POP POP POP POP DUP2 MSTORE POP POP DUP6 PUSH2 0x387D JUMP JUMPDEST POP POP POP PUSH2 0x13D8 JUMP JUMPDEST PUSH2 0x119C PUSH1 0x8 PUSH0 PUSH1 0xC PUSH0 DUP6 DUP2 MSTORE PUSH1 0x20 ADD SWAP1 DUP2 MSTORE PUSH1 0x20 ADD PUSH0 KECCAK256 PUSH1 0x1 ADD PUSH0 SWAP1 SLOAD SWAP1 PUSH2 0x100 EXP SWAP1 DIV PUSH20 0xFFFFFFFFFFFFFFFFFFFFFFFFFFFFFFFFFFFFFFFF AND PUSH20 0xFFFFFFFFFFFFFFFFFFFFFFFFFFFFFFFFFFFFFFFF AND PUSH20 0xFFFFFFFFFFFFFFFFFFFFFFFFFFFFFFFFFFFFFFFF AND DUP2 MSTORE PUSH1 0x20 ADD SWAP1 DUP2 MSTORE PUSH1 0x20 ADD PUSH0 KECCAK256 PUSH0 SWAP1 SLOAD SWAP1 PUSH2 0x100 EXP SWAP1 DIV PUSH8 0xFFFFFFFFFFFFFFFF AND PUSH1 0x8 PUSH0 PUSH1 0xC PUSH0 DUP7 DUP2 MSTORE PUSH1 0x20 ADD SWAP1 DUP2 MSTORE PUSH1 0x20 ADD PUSH0 KECCAK256 PUSH1 0x2 ADD PUSH0 SWAP1 SLOAD SWAP1 PUSH2 0x100 EXP SWAP1 DIV PUSH20 0xFFFFFFFFFFFFFFFFFFFFFFFFFFFFFFFFFFFFFFFF AND PUSH20 0xFFFFFFFFFFFFFFFFFFFFFFFFFFFFFFFFFFFFFFFF AND PUSH20 0xFFFFFFFFFFFFFFFFFFFFFFFFFFFFFFFFFFFFFFFF AND DUP2 MSTORE PUSH1 0x20 ADD SWAP1 DUP2 MSTORE PUSH1 0x20 ADD PUSH0 KECCAK256 PUSH0 SWAP1 SLOAD SWAP1 PUSH2 0x100 EXP SWAP1 DIV PUSH8 0xFFFFFFFFFFFFFFFF AND DUP5 PUSH2 0x3014 JUMP JUMPDEST SWAP3 POP PUSH0 PUSH2 0x11A8 DUP3 PUSH2 0x369A JUMP JUMPDEST SWAP2 POP POP DUP4 DUP2 LT ISZERO PUSH2 0x11EE JUMPI PUSH1 0x40 MLOAD PUSH32 0x8C379A000000000000000000000000000000000000000000000000000000000 DUP2 MSTORE PUSH1 0x4 ADD PUSH2 0x11E5 SWAP1 PUSH2 0x4CC4 JUMP JUMPDEST PUSH1 0x40 MLOAD DUP1 SWAP2 SUB SWAP1 REVERT JUMPDEST PUSH0 PUSH2 0x1262 PUSH1 0xC PUSH0 DUP6 DUP2 MSTORE PUSH1 0x20 ADD SWAP1 DUP2 MSTORE PUSH1 0x20 ADD PUSH0 KECCAK256 PUSH1 0x1 ADD PUSH0 SWAP1 SLOAD SWAP1 PUSH2 0x100 EXP SWAP1 DIV PUSH20 0xFFFFFFFFFFFFFFFFFFFFFFFFFFFFFFFFFFFFFFFF AND PUSH1 0xC PUSH0 DUP7 DUP2 MSTORE PUSH1 0x20 ADD SWAP1 DUP2 MSTORE PUSH1 0x20 ADD PUSH0 KECCAK256 PUSH1 0x2 ADD PUSH0 SWAP1 SLOAD SWAP1 PUSH2 0x100 EXP SWAP1 DIV PUSH20 0xFFFFFFFFFFFFFFFFFFFFFFFFFFFFFFFFFFFFFFFF AND DUP7 DUP9 DUP12 PUSH2 0x3A8F JUMP JUMPDEST SWAP1 POP PUSH0 PUSH1 0x64 PUSH1 0x50 DUP4 PUSH2 0x1274 SWAP2 SWAP1 PUSH2 0x4A24 JUMP JUMPDEST PUSH2 0x127E SWAP2 SWAP1 PUSH2 0x49F4 JUMP JUMPDEST SWAP1 POP DUP1 DUP3 PUSH2 0x128C SWAP2 SWAP1 PUSH2 0x4B51 JUMP JUMPDEST PUSH1 0x3 PUSH0 DUP3 DUP3 SLOAD PUSH2 0x129C SWAP2 SWAP1 PUSH2 0x4CE2 JUMP JUMPDEST SWAP3 POP POP DUP2 SWAP1 SSTORE POP PUSH2 0x13D4 DUP6 DUP8 DUP6 PUSH1 0xC PUSH0 DUP10 DUP2 MSTORE PUSH1 0x20 ADD SWAP1 DUP2 MSTORE PUSH1 0x20 ADD PUSH0 KECCAK256 PUSH1 0x40 MLOAD DUP1 PUSH1 0x80 ADD PUSH1 0x40 MSTORE SWAP1 DUP2 PUSH0 DUP3 ADD SLOAD DUP2 MSTORE PUSH1 0x20 ADD PUSH1 0x1 DUP3 ADD PUSH0 SWAP1 SLOAD SWAP1 PUSH2 0x100 EXP SWAP1 DIV PUSH20 0xFFFFFFFFFFFFFFFFFFFFFFFFFFFFFFFFFFFFFFFF AND PUSH20 0xFFFFFFFFFFFFFFFFFFFFFFFFFFFFFFFFFFFFFFFF AND PUSH20 0xFFFFFFFFFFFFFFFFFFFFFFFFFFFFFFFFFFFFFFFF AND DUP2 MSTORE PUSH1 0x20 ADD PUSH1 0x2 DUP3 ADD PUSH0 SWAP1 SLOAD SWAP1 PUSH2 0x100 EXP SWAP1 DIV PUSH20 0xFFFFFFFFFFFFFFFFFFFFFFFFFFFFFFFFFFFFFFFF AND PUSH20 0xFFFFFFFFFFFFFFFFFFFFFFFFFFFFFFFFFFFFFFFF AND PUSH20 0xFFFFFFFFFFFFFFFFFFFFFFFFFFFFFFFFFFFFFFFF AND DUP2 MSTORE PUSH1 0x20 ADD PUSH1 0x3 DUP3 ADD DUP1 SLOAD DUP1 PUSH1 0x20 MUL PUSH1 0x20 ADD PUSH1 0x40 MLOAD SWAP1 DUP2 ADD PUSH1 0x40 MSTORE DUP1 SWAP3 SWAP2 SWAP1 DUP2 DUP2 MSTORE PUSH1 0x20 ADD DUP3 DUP1 SLOAD DUP1 ISZERO PUSH2 0x13C5 JUMPI PUSH1 0x20 MUL DUP3 ADD SWAP2 SWAP1 PUSH0 MSTORE PUSH1 0x20 PUSH0 KECCAK256 SWAP1 JUMPDEST DUP2 SLOAD DUP2 MSTORE PUSH1 0x20 ADD SWAP1 PUSH1 0x1 ADD SWAP1 DUP1 DUP4 GT PUSH2 0x13B1 JUMPI JUMPDEST POP POP POP POP POP DUP2 MSTORE POP POP DUP6 PUSH2 0x387D JUMP JUMPDEST POP POP POP JUMPDEST JUMPDEST PUSH32 0x649451CB6BD28801E8992E83F834233301EB39B64A665A45B1E08D3E13FF679A DUP7 DUP5 DUP11 DUP11 TIMESTAMP PUSH1 0x40 MLOAD PUSH2 0x1410 SWAP6 SWAP5 SWAP4 SWAP3 SWAP2 SWAP1 PUSH2 0x4D15 JUMP JUMPDEST PUSH1 0x40 MLOAD DUP1 SWAP2 SUB SWAP1 LOG1 DUP3 SWAP4 POP POP POP POP SWAP5 SWAP4 POP POP POP POP JUMP JUMPDEST PUSH0 SLOAD DUP2 JUMP JUMPDEST PUSH0 ADDRESS SWAP1 POP SWAP1 JUMP JUMPDEST PUSH1 0x2 PUSH0 SWAP1 SLOAD SWAP1 PUSH2 0x100 EXP SWAP1 DIV PUSH20 0xFFFFFFFFFFFFFFFFFFFFFFFFFFFFFFFFFFFFFFFF AND PUSH20 0xFFFFFFFFFFFFFFFFFFFFFFFFFFFFFFFFFFFFFFFF AND CALLER PUSH20 0xFFFFFFFFFFFFFFFFFFFFFFFFFFFFFFFFFFFFFFFF AND EQ PUSH2 0x14C1 JUMPI PUSH1 0x40 MLOAD PUSH32 0x8C379A000000000000000000000000000000000000000000000000000000000 DUP2 MSTORE PUSH1 0x4 ADD PUSH2 0x14B8 SWAP1 PUSH2 0x4DB0 JUMP JUMPDEST PUSH1 0x40 MLOAD DUP1 SWAP2 SUB SWAP1 REVERT JUMPDEST PUSH0 PUSH20 0xFFFFFFFFFFFFFFFFFFFFFFFFFFFFFFFFFFFFFFFF AND DUP3 PUSH20 0xFFFFFFFFFFFFFFFFFFFFFFFFFFFFFFFFFFFFFFFF AND SUB PUSH2 0x152F JUMPI PUSH1 0x40 MLOAD PUSH32 0x8C379A000000000000000000000000000000000000000000000000000000000 DUP2 MSTORE PUSH1 0x4 ADD PUSH2 0x1526 SWAP1 PUSH2 0x4E18 JUMP JUMPDEST PUSH1 0x40 MLOAD DUP1 SWAP2 SUB SWAP1 REVERT JUMPDEST DUP1 PUSH1 0xFF AND PUSH1 0x8 PUSH0 DUP5 PUSH20 0xFFFFFFFFFFFFFFFFFFFFFFFFFFFFFFFFFFFFFFFF AND PUSH20 0xFFFFFFFFFFFFFFFFFFFFFFFFFFFFFFFFFFFFFFFF AND DUP2 MSTORE PUSH1 0x20 ADD SWAP1 DUP2 MSTORE PUSH1 0x20 ADD PUSH0 KECCAK256 PUSH0 PUSH2 0x100 EXP DUP2 SLOAD DUP2 PUSH8 0xFFFFFFFFFFFFFFFF MUL NOT AND SWAP1 DUP4 PUSH8 0xFFFFFFFFFFFFFFFF AND MUL OR SWAP1 SSTORE POP POP POP JUMP JUMPDEST PUSH1 0xB PUSH0 SWAP1 SLOAD SWAP1 PUSH2 0x100 EXP SWAP1 DIV PUSH20 0xFFFFFFFFFFFFFFFFFFFFFFFFFFFFFFFFFFFFFFFF AND DUP2 JUMP JUMPDEST PUSH1 0x9 PUSH1 0x10 SWAP1 SLOAD SWAP1 PUSH2 0x100 EXP SWAP1 DIV PUSH8 0xFFFFFFFFFFFFFFFF AND DUP2 JUMP JUMPDEST PUSH0 PUSH1 0xD PUSH0 CALLER PUSH20 0xFFFFFFFFFFFFFFFFFFFFFFFFFFFFFFFFFFFFFFFF AND PUSH20 0xFFFFFFFFFFFFFFFFFFFFFFFFFFFFFFFFFFFFFFFF AND DUP2 MSTORE PUSH1 0x20 ADD SWAP1 DUP2 MSTORE PUSH1 0x20 ADD PUSH0 KECCAK256 PUSH0 ADD SLOAD SUB PUSH2 0x1659 JUMPI PUSH1 0x40 MLOAD PUSH32 0x8C379A000000000000000000000000000000000000000000000000000000000 DUP2 MSTORE PUSH1 0x4 ADD PUSH2 0x1650 SWAP1 PUSH2 0x4E80 JUMP JUMPDEST PUSH1 0x40 MLOAD DUP1 SWAP2 SUB SWAP1 REVERT JUMPDEST DUP1 PUSH1 0xD PUSH0 CALLER PUSH20 0xFFFFFFFFFFFFFFFFFFFFFFFFFFFFFFFFFFFFFFFF AND PUSH20 0xFFFFFFFFFFFFFFFFFFFFFFFFFFFFFFFFFFFFFFFF AND DUP2 MSTORE PUSH1 0x20 ADD SWAP1 DUP2 MSTORE PUSH1 0x20 ADD PUSH0 KECCAK256 PUSH1 0x3 ADD PUSH0 PUSH2 0x100 EXP DUP2 SLOAD DUP2 PUSH1 0xFF MUL NOT AND SWAP1 DUP4 ISZERO ISZERO MUL OR SWAP1 SSTORE POP POP JUMP JUMPDEST PUSH0 PUSH1 0xD PUSH0 CALLER PUSH20 0xFFFFFFFFFFFFFFFFFFFFFFFFFFFFFFFFFFFFFFFF AND PUSH20 0xFFFFFFFFFFFFFFFFFFFFFFFFFFFFFFFFFFFFFFFF AND DUP2 MSTORE PUSH1 0x20 ADD SWAP1 DUP2 MSTORE PUSH1 0x20 ADD PUSH0 KECCAK256 PUSH0 ADD SLOAD EQ PUSH2 0x1734 JUMPI PUSH1 0x40 MLOAD PUSH32 0x8C379A000000000000000000000000000000000000000000000000000000000 DUP2 MSTORE PUSH1 0x4 ADD PUSH2 0x172B SWAP1 PUSH2 0x4EE8 JUMP JUMPDEST PUSH1 0x40 MLOAD DUP1 SWAP2 SUB SWAP1 REVERT JUMPDEST PUSH1 0x7 PUSH0 DUP2 SLOAD DUP1 SWAP3 SWAP2 SWAP1 PUSH2 0x1746 SWAP1 PUSH2 0x4F06 JUMP JUMPDEST SWAP2 SWAP1 POP SSTORE POP PUSH1 0x40 MLOAD DUP1 PUSH1 0xA0 ADD PUSH1 0x40 MSTORE DUP1 PUSH1 0x7 SLOAD DUP2 MSTORE PUSH1 0x20 ADD PUSH1 0xD PUSH0 CALLER PUSH20 0xFFFFFFFFFFFFFFFFFFFFFFFFFFFFFFFFFFFFFFFF AND PUSH20 0xFFFFFFFFFFFFFFFFFFFFFFFFFFFFFFFFFFFFFFFF AND DUP2 MSTORE PUSH1 0x20 ADD SWAP1 DUP2 MSTORE PUSH1 0x20 ADD PUSH0 KECCAK256 PUSH1 0x1 ADD SLOAD DUP2 MSTORE PUSH1 0x20 ADD PUSH1 0xD PUSH0 CALLER PUSH20 0xFFFFFFFFFFFFFFFFFFFFFFFFFFFFFFFFFFFFFFFF AND PUSH20 0xFFFFFFFFFFFFFFFFFFFFFFFFFFFFFFFFFFFFFFFF AND DUP2 MSTORE PUSH1 0x20 ADD SWAP1 DUP2 MSTORE PUSH1 0x20 ADD PUSH0 KECCAK256 PUSH1 0x2 ADD SLOAD DUP2 MSTORE PUSH1 0x20 ADD PUSH0 ISZERO ISZERO DUP2 MSTORE PUSH1 0x20 ADD PUSH1 0xD PUSH0 CALLER PUSH20 0xFFFFFFFFFFFFFFFFFFFFFFFFFFFFFFFFFFFFFFFF AND PUSH20 0xFFFFFFFFFFFFFFFFFFFFFFFFFFFFFFFFFFFFFFFF AND DUP2 MSTORE PUSH1 0x20 ADD SWAP1 DUP2 MSTORE PUSH1 0x20 ADD PUSH0 KECCAK256 PUSH1 0x4 ADD DUP1 SLOAD DUP1 PUSH1 0x20 MUL PUSH1 0x20 ADD PUSH1 0x40 MLOAD SWAP1 DUP2 ADD PUSH1 0x40 MSTORE DUP1 SWAP3 SWAP2 SWAP1 DUP2 DUP2 MSTORE PUSH1 0x20 ADD DUP3 DUP1 SLOAD DUP1 ISZERO PUSH2 0x187A JUMPI PUSH1 0x20 MUL DUP3 ADD SWAP2 SWAP1 PUSH0 MSTORE PUSH1 0x20 PUSH0 KECCAK256 SWAP1 JUMPDEST DUP2 SLOAD DUP2 MSTORE PUSH1 0x20 ADD SWAP1 PUSH1 0x1 ADD SWAP1 DUP1 DUP4 GT PUSH2 0x1866 JUMPI JUMPDEST POP POP POP POP POP DUP2 MSTORE POP PUSH1 0xD PUSH0 CALLER PUSH20 0xFFFFFFFFFFFFFFFFFFFFFFFFFFFFFFFFFFFFFFFF AND PUSH20 0xFFFFFFFFFFFFFFFFFFFFFFFFFFFFFFFFFFFFFFFF AND DUP2 MSTORE PUSH1 0x20 ADD SWAP1 DUP2 MSTORE PUSH1 0x20 ADD PUSH0 KECCAK256 PUSH0 DUP3 ADD MLOAD DUP2 PUSH0 ADD SSTORE PUSH1 0x20 DUP3 ADD MLOAD DUP2 PUSH1 0x1 ADD SSTORE PUSH1 0x40 DUP3 ADD MLOAD DUP2 PUSH1 0x2 ADD SSTORE PUSH1 0x60 DUP3 ADD MLOAD DUP2 PUSH1 0x3 ADD PUSH0 PUSH2 0x100 EXP DUP2 SLOAD DUP2 PUSH1 0xFF MUL NOT AND SWAP1 DUP4 ISZERO ISZERO MUL OR SWAP1 SSTORE POP PUSH1 0x80 DUP3 ADD MLOAD DUP2 PUSH1 0x4 ADD SWAP1 DUP1 MLOAD SWAP1 PUSH1 0x20 ADD SWAP1 PUSH2 0x1916 SWAP3 SWAP2 SWAP1 PUSH2 0x4231 JUMP JUMPDEST POP SWAP1 POP POP JUMP JUMPDEST PUSH0 PUSH1 0x9 PUSH0 SWAP1 SLOAD SWAP1 PUSH2 0x100 EXP SWAP1 DIV PUSH8 0xFFFFFFFFFFFFFFFF AND PUSH8 0xFFFFFFFFFFFFFFFF AND SWAP1 POP SWAP1 JUMP JUMPDEST PUSH1 0x2 PUSH0 SWAP1 SLOAD SWAP1 PUSH2 0x100 EXP SWAP1 DIV PUSH20 0xFFFFFFFFFFFFFFFFFFFFFFFFFFFFFFFFFFFFFFFF AND PUSH20 0xFFFFFFFFFFFFFFFFFFFFFFFFFFFFFFFFFFFFFFFF AND CALLER PUSH20 0xFFFFFFFFFFFFFFFFFFFFFFFFFFFFFFFFFFFFFFFF AND EQ PUSH2 0x19D1 JUMPI PUSH1 0x40 MLOAD PUSH32 0x8C379A000000000000000000000000000000000000000000000000000000000 DUP2 MSTORE PUSH1 0x4 ADD PUSH2 0x19C8 SWAP1 PUSH2 0x4DB0 JUMP JUMPDEST PUSH1 0x40 MLOAD DUP1 SWAP2 SUB SWAP1 REVERT JUMPDEST PUSH0 PUSH20 0xFFFFFFFFFFFFFFFFFFFFFFFFFFFFFFFFFFFFFFFF AND DUP2 PUSH20 0xFFFFFFFFFFFFFFFFFFFFFFFFFFFFFFFFFFFFFFFF AND SUB PUSH2 0x1A3F JUMPI PUSH1 0x40 MLOAD PUSH32 0x8C379A000000000000000000000000000000000000000000000000000000000 DUP2 MSTORE PUSH1 0x4 ADD PUSH2 0x1A36 SWAP1 PUSH2 0x4F97 JUMP JUMPDEST PUSH1 0x40 MLOAD DUP1 SWAP2 SUB SWAP1 REVERT JUMPDEST DUP1 PUSH1 0xB PUSH0 PUSH2 0x100 EXP DUP2 SLOAD DUP2 PUSH20 0xFFFFFFFFFFFFFFFFFFFFFFFFFFFFFFFFFFFFFFFF MUL NOT AND SWAP1 DUP4 PUSH20 0xFFFFFFFFFFFFFFFFFFFFFFFFFFFFFFFFFFFFFFFF AND MUL OR SWAP1 SSTORE POP POP JUMP JUMPDEST PUSH1 0x2 PUSH0 SWAP1 SLOAD SWAP1 PUSH2 0x100 EXP SWAP1 DIV PUSH20 0xFFFFFFFFFFFFFFFFFFFFFFFFFFFFFFFFFFFFFFFF AND PUSH20 0xFFFFFFFFFFFFFFFFFFFFFFFFFFFFFFFFFFFFFFFF AND CALLER PUSH20 0xFFFFFFFFFFFFFFFFFFFFFFFFFFFFFFFFFFFFFFFF AND EQ PUSH2 0x1B11 JUMPI PUSH1 0x40 MLOAD PUSH32 0x8C379A000000000000000000000000000000000000000000000000000000000 DUP2 MSTORE PUSH1 0x4 ADD PUSH2 0x1B08 SWAP1 PUSH2 0x4DB0 JUMP JUMPDEST PUSH1 0x40 MLOAD DUP1 SWAP2 SUB SWAP1 REVERT JUMPDEST DUP2 PUSH1 0x3 SLOAD LT ISZERO PUSH2 0x1B56 JUMPI PUSH1 0x40 MLOAD PUSH32 0x8C379A000000000000000000000000000000000000000000000000000000000 DUP2 MSTORE PUSH1 0x4 ADD PUSH2 0x1B4D SWAP1 PUSH2 0x4FFF JUMP JUMPDEST PUSH1 0x40 MLOAD DUP1 SWAP2 SUB SWAP1 REVERT JUMPDEST PUSH1 0xA PUSH0 SWAP1 SLOAD SWAP1 PUSH2 0x100 EXP SWAP1 DIV PUSH20 0xFFFFFFFFFFFFFFFFFFFFFFFFFFFFFFFFFFFFFFFF AND PUSH20 0xFFFFFFFFFFFFFFFFFFFFFFFFFFFFFFFFFFFFFFFF AND PUSH4 0xA9059CBB DUP3 DUP5 PUSH1 0x40 MLOAD DUP4 PUSH4 0xFFFFFFFF AND PUSH1 0xE0 SHL DUP2 MSTORE PUSH1 0x4 ADD PUSH2 0x1BB2 SWAP3 SWAP2 SWAP1 PUSH2 0x501D JUMP JUMPDEST PUSH1 0x20 PUSH1 0x40 MLOAD DUP1 DUP4 SUB DUP2 PUSH0 DUP8 GAS CALL ISZERO DUP1 ISZERO PUSH2 0x1BCE JUMPI RETURNDATASIZE PUSH0 DUP1 RETURNDATACOPY RETURNDATASIZE PUSH0 REVERT JUMPDEST POP POP POP POP PUSH1 0x40 MLOAD RETURNDATASIZE PUSH1 0x1F NOT PUSH1 0x1F DUP3 ADD AND DUP3 ADD DUP1 PUSH1 0x40 MSTORE POP DUP2 ADD SWAP1 PUSH2 0x1BF2 SWAP2 SWAP1 PUSH2 0x4AAE JUMP JUMPDEST POP DUP2 PUSH1 0x3 PUSH0 DUP3 DUP3 SLOAD PUSH2 0x1C04 SWAP2 SWAP1 PUSH2 0x4B51 JUMP JUMPDEST SWAP3 POP POP DUP2 SWAP1 SSTORE POP POP POP JUMP JUMPDEST PUSH0 PUSH1 0xD PUSH0 CALLER PUSH20 0xFFFFFFFFFFFFFFFFFFFFFFFFFFFFFFFFFFFFFFFF AND PUSH20 0xFFFFFFFFFFFFFFFFFFFFFFFFFFFFFFFFFFFFFFFF AND DUP2 MSTORE PUSH1 0x20 ADD SWAP1 DUP2 MSTORE PUSH1 0x20 ADD PUSH0 KECCAK256 PUSH0 ADD SLOAD SUB PUSH2 0x1C90 JUMPI PUSH1 0x40 MLOAD PUSH32 0x8C379A000000000000000000000000000000000000000000000000000000000 DUP2 MSTORE PUSH1 0x4 ADD PUSH2 0x1C87 SWAP1 PUSH2 0x4E80 JUMP JUMPDEST PUSH1 0x40 MLOAD DUP1 SWAP2 SUB SWAP1 REVERT JUMPDEST PUSH1 0x64 DUP2 LT ISZERO PUSH2 0x1CD4 JUMPI PUSH1 0x40 MLOAD PUSH32 0x8C379A000000000000000000000000000000000000000000000000000000000 DUP2 MSTORE PUSH1 0x4 ADD PUSH2 0x1CCB SWAP1 PUSH2 0x50B4 JUMP JUMPDEST PUSH1 0x40 MLOAD DUP1 SWAP2 SUB SWAP1 REVERT JUMPDEST PUSH0 DUP1 DUP3 SWAP1 POP PUSH1 0x9 PUSH0 SWAP1 SLOAD SWAP1 PUSH2 0x100 EXP SWAP1 DIV PUSH8 0xFFFFFFFFFFFFFFFF AND PUSH8 0xFFFFFFFFFFFFFFFF AND PUSH1 0x8 PUSH0 PUSH1 0xC PUSH0 DUP9 DUP2 MSTORE PUSH1 0x20 ADD SWAP1 DUP2 MSTORE PUSH1 0x20 ADD PUSH0 KECCAK256 PUSH1 0x1 ADD PUSH0 SWAP1 SLOAD SWAP1 PUSH2 0x100 EXP SWAP1 DIV PUSH20 0xFFFFFFFFFFFFFFFFFFFFFFFFFFFFFFFFFFFFFFFF AND PUSH20 0xFFFFFFFFFFFFFFFFFFFFFFFFFFFFFFFFFFFFFFFF AND PUSH20 0xFFFFFFFFFFFFFFFFFFFFFFFFFFFFFFFFFFFFFFFF AND DUP2 MSTORE PUSH1 0x20 ADD SWAP1 DUP2 MSTORE PUSH1 0x20 ADD PUSH0 KECCAK256 PUSH0 SWAP1 SLOAD SWAP1 PUSH2 0x100 EXP SWAP1 DIV PUSH8 0xFFFFFFFFFFFFFFFF AND PUSH8 0xFFFFFFFFFFFFFFFF AND SUB PUSH2 0x204A JUMPI PUSH1 0x64 CALLVALUE GT PUSH2 0x1DCF JUMPI PUSH1 0x40 MLOAD PUSH32 0x8C379A000000000000000000000000000000000000000000000000000000000 DUP2 MSTORE PUSH1 0x4 ADD PUSH2 0x1DC6 SWAP1 PUSH2 0x5142 JUMP JUMPDEST PUSH1 0x40 MLOAD DUP1 SWAP2 SUB SWAP1 REVERT JUMPDEST CALLVALUE SWAP1 POP PUSH2 0x1EE3 PUSH1 0x8 PUSH0 PUSH1 0xC PUSH0 DUP9 DUP2 MSTORE PUSH1 0x20 ADD SWAP1 DUP2 MSTORE PUSH1 0x20 ADD PUSH0 KECCAK256 PUSH1 0x1 ADD PUSH0 SWAP1 SLOAD SWAP1 PUSH2 0x100 EXP SWAP1 DIV PUSH20 0xFFFFFFFFFFFFFFFFFFFFFFFFFFFFFFFFFFFFFFFF AND PUSH20 0xFFFFFFFFFFFFFFFFFFFFFFFFFFFFFFFFFFFFFFFF AND PUSH20 0xFFFFFFFFFFFFFFFFFFFFFFFFFFFFFFFFFFFFFFFF AND DUP2 MSTORE PUSH1 0x20 ADD SWAP1 DUP2 MSTORE PUSH1 0x20 ADD PUSH0 KECCAK256 PUSH0 SWAP1 SLOAD SWAP1 PUSH2 0x100 EXP SWAP1 DIV PUSH8 0xFFFFFFFFFFFFFFFF AND PUSH1 0x8 PUSH0 PUSH1 0xC PUSH0 DUP10 DUP2 MSTORE PUSH1 0x20 ADD SWAP1 DUP2 MSTORE PUSH1 0x20 ADD PUSH0 KECCAK256 PUSH1 0x2 ADD PUSH0 SWAP1 SLOAD SWAP1 PUSH2 0x100 EXP SWAP1 DIV PUSH20 0xFFFFFFFFFFFFFFFFFFFFFFFFFFFFFFFFFFFFFFFF AND PUSH20 0xFFFFFFFFFFFFFFFFFFFFFFFFFFFFFFFFFFFFFFFF AND PUSH20 0xFFFFFFFFFFFFFFFFFFFFFFFFFFFFFFFFFFFFFFFF AND DUP2 MSTORE PUSH1 0x20 ADD SWAP1 DUP2 MSTORE PUSH1 0x20 ADD PUSH0 KECCAK256 PUSH0 SWAP1 SLOAD SWAP1 PUSH2 0x100 EXP SWAP1 DIV PUSH8 0xFFFFFFFFFFFFFFFF AND DUP4 PUSH2 0x3014 JUMP JUMPDEST SWAP2 POP PUSH1 0xC PUSH0 DUP6 DUP2 MSTORE PUSH1 0x20 ADD SWAP1 DUP2 MSTORE PUSH1 0x20 ADD PUSH0 KECCAK256 PUSH1 0x2 ADD PUSH0 SWAP1 SLOAD SWAP1 PUSH2 0x100 EXP SWAP1 DIV PUSH20 0xFFFFFFFFFFFFFFFFFFFFFFFFFFFFFFFFFFFFFFFF AND PUSH20 0xFFFFFFFFFFFFFFFFFFFFFFFFFFFFFFFFFFFFFFFF AND PUSH4 0x95EA7B3 ADDRESS DUP5 PUSH1 0x40 MLOAD DUP4 PUSH4 0xFFFFFFFF AND PUSH1 0xE0 SHL DUP2 MSTORE PUSH1 0x4 ADD PUSH2 0x1F53 SWAP3 SWAP2 SWAP1 PUSH2 0x501D JUMP JUMPDEST PUSH1 0x20 PUSH1 0x40 MLOAD DUP1 DUP4 SUB DUP2 PUSH0 DUP8 GAS CALL ISZERO DUP1 ISZERO PUSH2 0x1F6F JUMPI RETURNDATASIZE PUSH0 DUP1 RETURNDATACOPY RETURNDATASIZE PUSH0 REVERT JUMPDEST POP POP POP POP PUSH1 0x40 MLOAD RETURNDATASIZE PUSH1 0x1F NOT PUSH1 0x1F DUP3 ADD AND DUP3 ADD DUP1 PUSH1 0x40 MSTORE POP DUP2 ADD SWAP1 PUSH2 0x1F93 SWAP2 SWAP1 PUSH2 0x4AAE JUMP JUMPDEST POP PUSH1 0xC PUSH0 DUP6 DUP2 MSTORE PUSH1 0x20 ADD SWAP1 DUP2 MSTORE PUSH1 0x20 ADD PUSH0 KECCAK256 PUSH1 0x2 ADD PUSH0 SWAP1 SLOAD SWAP1 PUSH2 0x100 EXP SWAP1 DIV PUSH20 0xFFFFFFFFFFFFFFFFFFFFFFFFFFFFFFFFFFFFFFFF AND PUSH20 0xFFFFFFFFFFFFFFFFFFFFFFFFFFFFFFFFFFFFFFFF AND PUSH4 0x23B872DD CALLER ADDRESS DUP6 PUSH1 0x40 MLOAD DUP5 PUSH4 0xFFFFFFFF AND PUSH1 0xE0 SHL DUP2 MSTORE PUSH1 0x4 ADD PUSH2 0x2004 SWAP4 SWAP3 SWAP2 SWAP1 PUSH2 0x4A65 JUMP JUMPDEST PUSH1 0x20 PUSH1 0x40 MLOAD DUP1 DUP4 SUB DUP2 PUSH0 DUP8 GAS CALL ISZERO DUP1 ISZERO PUSH2 0x2020 JUMPI RETURNDATASIZE PUSH0 DUP1 RETURNDATACOPY RETURNDATASIZE PUSH0 REVERT JUMPDEST POP POP POP POP PUSH1 0x40 MLOAD RETURNDATASIZE PUSH1 0x1F NOT PUSH1 0x1F DUP3 ADD AND DUP3 ADD DUP1 PUSH1 0x40 MSTORE POP DUP2 ADD SWAP1 PUSH2 0x2044 SWAP2 SWAP1 PUSH2 0x4AAE JUMP JUMPDEST POP PUSH2 0x22C0 JUMP JUMPDEST PUSH2 0x215B PUSH1 0x8 PUSH0 PUSH1 0xC PUSH0 DUP9 DUP2 MSTORE PUSH1 0x20 ADD SWAP1 DUP2 MSTORE PUSH1 0x20 ADD PUSH0 KECCAK256 PUSH1 0x1 ADD PUSH0 SWAP1 SLOAD SWAP1 PUSH2 0x100 EXP SWAP1 DIV PUSH20 0xFFFFFFFFFFFFFFFFFFFFFFFFFFFFFFFFFFFFFFFF AND PUSH20 0xFFFFFFFFFFFFFFFFFFFFFFFFFFFFFFFFFFFFFFFF AND PUSH20 0xFFFFFFFFFFFFFFFFFFFFFFFFFFFFFFFFFFFFFFFF AND DUP2 MSTORE PUSH1 0x20 ADD SWAP1 DUP2 MSTORE PUSH1 0x20 ADD PUSH0 KECCAK256 PUSH0 SWAP1 SLOAD SWAP1 PUSH2 0x100 EXP SWAP1 DIV PUSH8 0xFFFFFFFFFFFFFFFF AND PUSH1 0x8 PUSH0 PUSH1 0xC PUSH0 DUP10 DUP2 MSTORE PUSH1 0x20 ADD SWAP1 DUP2 MSTORE PUSH1 0x20 ADD PUSH0 KECCAK256 PUSH1 0x2 ADD PUSH0 SWAP1 SLOAD SWAP1 PUSH2 0x100 EXP SWAP1 DIV PUSH20 0xFFFFFFFFFFFFFFFFFFFFFFFFFFFFFFFFFFFFFFFF AND PUSH20 0xFFFFFFFFFFFFFFFFFFFFFFFFFFFFFFFFFFFFFFFF AND PUSH20 0xFFFFFFFFFFFFFFFFFFFFFFFFFFFFFFFFFFFFFFFF AND DUP2 MSTORE PUSH1 0x20 ADD SWAP1 DUP2 MSTORE PUSH1 0x20 ADD PUSH0 KECCAK256 PUSH0 SWAP1 SLOAD SWAP1 PUSH2 0x100 EXP SWAP1 DIV PUSH8 0xFFFFFFFFFFFFFFFF AND DUP4 PUSH2 0x3014 JUMP JUMPDEST SWAP2 POP PUSH1 0xC PUSH0 DUP6 DUP2 MSTORE PUSH1 0x20 ADD SWAP1 DUP2 MSTORE PUSH1 0x20 ADD PUSH0 KECCAK256 PUSH1 0x1 ADD PUSH0 SWAP1 SLOAD SWAP1 PUSH2 0x100 EXP SWAP1 DIV PUSH20 0xFFFFFFFFFFFFFFFFFFFFFFFFFFFFFFFFFFFFFFFF AND PUSH20 0xFFFFFFFFFFFFFFFFFFFFFFFFFFFFFFFFFFFFFFFF AND PUSH4 0x23B872DD CALLER ADDRESS DUP5 PUSH1 0x40 MLOAD DUP5 PUSH4 0xFFFFFFFF AND PUSH1 0xE0 SHL DUP2 MSTORE PUSH1 0x4 ADD PUSH2 0x21CD SWAP4 SWAP3 SWAP2 SWAP1 PUSH2 0x4A65 JUMP JUMPDEST PUSH1 0x20 PUSH1 0x40 MLOAD DUP1 DUP4 SUB DUP2 PUSH0 DUP8 GAS CALL ISZERO DUP1 ISZERO PUSH2 0x21E9 JUMPI RETURNDATASIZE PUSH0 DUP1 RETURNDATACOPY RETURNDATASIZE PUSH0 REVERT JUMPDEST POP POP POP POP PUSH1 0x40 MLOAD RETURNDATASIZE PUSH1 0x1F NOT PUSH1 0x1F DUP3 ADD AND DUP3 ADD DUP1 PUSH1 0x40 MSTORE POP DUP2 ADD SWAP1 PUSH2 0x220D SWAP2 SWAP1 PUSH2 0x4AAE JUMP JUMPDEST POP PUSH1 0xC PUSH0 DUP6 DUP2 MSTORE PUSH1 0x20 ADD SWAP1 DUP2 MSTORE PUSH1 0x20 ADD PUSH0 KECCAK256 PUSH1 0x2 ADD PUSH0 SWAP1 SLOAD SWAP1 PUSH2 0x100 EXP SWAP1 DIV PUSH20 0xFFFFFFFFFFFFFFFFFFFFFFFFFFFFFFFFFFFFFFFF AND PUSH20 0xFFFFFFFFFFFFFFFFFFFFFFFFFFFFFFFFFFFFFFFF AND PUSH4 0x23B872DD CALLER ADDRESS DUP6 PUSH1 0x40 MLOAD DUP5 PUSH4 0xFFFFFFFF AND PUSH1 0xE0 SHL DUP2 MSTORE PUSH1 0x4 ADD PUSH2 0x227E SWAP4 SWAP3 SWAP2 SWAP1 PUSH2 0x4A65 JUMP JUMPDEST PUSH1 0x20 PUSH1 0x40 MLOAD DUP1 DUP4 SUB DUP2 PUSH0 DUP8 GAS CALL ISZERO DUP1 ISZERO PUSH2 0x229A JUMPI RETURNDATASIZE PUSH0 DUP1 RETURNDATACOPY RETURNDATASIZE PUSH0 REVERT JUMPDEST POP POP POP POP PUSH1 0x40 MLOAD RETURNDATASIZE PUSH1 0x1F NOT PUSH1 0x1F DUP3 ADD AND DUP3 ADD DUP1 PUSH1 0x40 MSTORE POP DUP2 ADD SWAP1 PUSH2 0x22BE SWAP2 SWAP1 PUSH2 0x4AAE JUMP JUMPDEST POP JUMPDEST PUSH0 PUSH2 0x22CB DUP6 CALLER PUSH2 0x3C3A JUMP JUMPDEST SWAP1 POP PUSH0 DUP2 GT ISZERO PUSH2 0x232E JUMPI DUP2 PUSH1 0xE PUSH0 DUP4 DUP2 MSTORE PUSH1 0x20 ADD SWAP1 DUP2 MSTORE PUSH1 0x20 ADD PUSH0 KECCAK256 PUSH1 0x2 ADD PUSH0 DUP3 DUP3 SLOAD PUSH2 0x22F8 SWAP2 SWAP1 PUSH2 0x4CE2 JUMP JUMPDEST SWAP3 POP POP DUP2 SWAP1 SSTORE POP DUP3 PUSH1 0xE PUSH0 DUP4 DUP2 MSTORE PUSH1 0x20 ADD SWAP1 DUP2 MSTORE PUSH1 0x20 ADD PUSH0 KECCAK256 PUSH1 0x3 ADD PUSH0 DUP3 DUP3 SLOAD PUSH2 0x2322 SWAP2 SWAP1 PUSH2 0x4CE2 JUMP JUMPDEST SWAP3 POP POP DUP2 SWAP1 SSTORE POP PUSH2 0x233B JUMP JUMPDEST PUSH2 0x233A DUP6 DUP4 DUP6 CALLER PUSH2 0x3D4E JUMP JUMPDEST JUMPDEST PUSH32 0x461ECD615EA1465CE04EE1AA1810891DF016F8B506E515BA3A18BB12F54962E5 PUSH1 0xC PUSH0 DUP8 DUP2 MSTORE PUSH1 0x20 ADD SWAP1 DUP2 MSTORE PUSH1 0x20 ADD PUSH0 KECCAK256 PUSH1 0x1 ADD PUSH0 SWAP1 SLOAD SWAP1 PUSH2 0x100 EXP SWAP1 DIV PUSH20 0xFFFFFFFFFFFFFFFFFFFFFFFFFFFFFFFFFFFFFFFF AND PUSH1 0xC PUSH0 DUP9 DUP2 MSTORE PUSH1 0x20 ADD SWAP1 DUP2 MSTORE PUSH1 0x20 ADD PUSH0 KECCAK256 PUSH1 0x2 ADD PUSH0 SWAP1 SLOAD SWAP1 PUSH2 0x100 EXP SWAP1 DIV PUSH20 0xFFFFFFFFFFFFFFFFFFFFFFFFFFFFFFFFFFFFFFFF AND DUP5 DUP7 CALLER TIMESTAMP PUSH1 0x40 MLOAD PUSH2 0x23DA SWAP7 SWAP6 SWAP5 SWAP4 SWAP3 SWAP2 SWAP1 PUSH2 0x5160 JUMP JUMPDEST PUSH1 0x40 MLOAD DUP1 SWAP2 SUB SWAP1 LOG1 POP POP POP POP POP JUMP JUMPDEST PUSH1 0x9 PUSH0 SWAP1 SLOAD SWAP1 PUSH2 0x100 EXP SWAP1 DIV PUSH8 0xFFFFFFFFFFFFFFFF AND DUP2 JUMP JUMPDEST PUSH0 PUSH1 0xB PUSH0 SWAP1 SLOAD SWAP1 PUSH2 0x100 EXP SWAP1 DIV PUSH20 0xFFFFFFFFFFFFFFFFFFFFFFFFFFFFFFFFFFFFFFFF AND SWAP1 POP SWAP1 JUMP JUMPDEST PUSH1 0x2 PUSH0 SWAP1 SLOAD SWAP1 PUSH2 0x100 EXP SWAP1 DIV PUSH20 0xFFFFFFFFFFFFFFFFFFFFFFFFFFFFFFFFFFFFFFFF AND PUSH20 0xFFFFFFFFFFFFFFFFFFFFFFFFFFFFFFFFFFFFFFFF AND CALLER PUSH20 0xFFFFFFFFFFFFFFFFFFFFFFFFFFFFFFFFFFFFFFFF AND EQ PUSH2 0x24B9 JUMPI PUSH1 0x40 MLOAD PUSH32 0x8C379A000000000000000000000000000000000000000000000000000000000 DUP2 MSTORE PUSH1 0x4 ADD PUSH2 0x24B0 SWAP1 PUSH2 0x4DB0 JUMP JUMPDEST PUSH1 0x40 MLOAD DUP1 SWAP2 SUB SWAP1 REVERT JUMPDEST DUP1 PUSH1 0x9 PUSH0 PUSH2 0x100 EXP DUP2 SLOAD DUP2 PUSH8 0xFFFFFFFFFFFFFFFF MUL NOT AND SWAP1 DUP4 PUSH8 0xFFFFFFFFFFFFFFFF AND MUL OR SWAP1 SSTORE POP POP JUMP JUMPDEST PUSH1 0xA PUSH0 SWAP1 SLOAD SWAP1 PUSH2 0x100 EXP SWAP1 DIV PUSH20 0xFFFFFFFFFFFFFFFFFFFFFFFFFFFFFFFFFFFFFFFF AND DUP2 JUMP JUMPDEST PUSH0 PUSH1 0xD PUSH0 CALLER PUSH20 0xFFFFFFFFFFFFFFFFFFFFFFFFFFFFFFFFFFFFFFFF AND PUSH20 0xFFFFFFFFFFFFFFFFFFFFFFFFFFFFFFFFFFFFFFFF AND DUP2 MSTORE PUSH1 0x20 ADD SWAP1 DUP2 MSTORE PUSH1 0x20 ADD PUSH0 KECCAK256 PUSH0 ADD SLOAD SUB PUSH2 0x258A JUMPI PUSH1 0x40 MLOAD PUSH32 0x8C379A000000000000000000000000000000000000000000000000000000000 DUP2 MSTORE PUSH1 0x4 ADD PUSH2 0x2581 SWAP1 PUSH2 0x4E80 JUMP JUMPDEST PUSH1 0x40 MLOAD DUP1 SWAP2 SUB SWAP1 REVERT JUMPDEST CALLER PUSH20 0xFFFFFFFFFFFFFFFFFFFFFFFFFFFFFFFFFFFFFFFF AND PUSH1 0xE PUSH0 DUP4 DUP2 MSTORE PUSH1 0x20 ADD SWAP1 DUP2 MSTORE PUSH1 0x20 ADD PUSH0 KECCAK256 PUSH1 0x4 ADD PUSH0 SWAP1 SLOAD SWAP1 PUSH2 0x100 EXP SWAP1 DIV PUSH20 0xFFFFFFFFFFFFFFFFFFFFFFFFFFFFFFFFFFFFFFFF AND PUSH20 0xFFFFFFFFFFFFFFFFFFFFFFFFFFFFFFFFFFFFFFFF AND EQ PUSH2 0x262B JUMPI PUSH1 0x40 MLOAD PUSH32 0x8C379A000000000000000000000000000000000000000000000000000000000 DUP2 MSTORE PUSH1 0x4 ADD PUSH2 0x2622 SWAP1 PUSH2 0x5209 JUMP JUMPDEST PUSH1 0x40 MLOAD DUP1 SWAP2 SUB SWAP1 REVERT JUMPDEST PUSH0 PUSH1 0xE PUSH0 DUP4 DUP2 MSTORE PUSH1 0x20 ADD SWAP1 DUP2 MSTORE PUSH1 0x20 ADD PUSH0 KECCAK256 PUSH1 0x1 ADD SLOAD SWAP1 POP PUSH0 PUSH1 0xC PUSH0 DUP4 DUP2 MSTORE PUSH1 0x20 ADD SWAP1 DUP2 MSTORE PUSH1 0x20 ADD PUSH0 KECCAK256 PUSH1 0x40 MLOAD DUP1 PUSH1 0x80 ADD PUSH1 0x40 MSTORE SWAP1 DUP2 PUSH0 DUP3 ADD SLOAD DUP2 MSTORE PUSH1 0x20 ADD PUSH1 0x1 DUP3 ADD PUSH0 SWAP1 SLOAD SWAP1 PUSH2 0x100 EXP SWAP1 DIV PUSH20 0xFFFFFFFFFFFFFFFFFFFFFFFFFFFFFFFFFFFFFFFF AND PUSH20 0xFFFFFFFFFFFFFFFFFFFFFFFFFFFFFFFFFFFFFFFF AND PUSH20 0xFFFFFFFFFFFFFFFFFFFFFFFFFFFFFFFFFFFFFFFF AND DUP2 MSTORE PUSH1 0x20 ADD PUSH1 0x2 DUP3 ADD PUSH0 SWAP1 SLOAD SWAP1 PUSH2 0x100 EXP SWAP1 DIV PUSH20 0xFFFFFFFFFFFFFFFFFFFFFFFFFFFFFFFFFFFFFFFF AND PUSH20 0xFFFFFFFFFFFFFFFFFFFFFFFFFFFFFFFFFFFFFFFF AND PUSH20 0xFFFFFFFFFFFFFFFFFFFFFFFFFFFFFFFFFFFFFFFF AND DUP2 MSTORE PUSH1 0x20 ADD PUSH1 0x3 DUP3 ADD DUP1 SLOAD DUP1 PUSH1 0x20 MUL PUSH1 0x20 ADD PUSH1 0x40 MLOAD SWAP1 DUP2 ADD PUSH1 0x40 MSTORE DUP1 SWAP3 SWAP2 SWAP1 DUP2 DUP2 MSTORE PUSH1 0x20 ADD DUP3 DUP1 SLOAD DUP1 ISZERO PUSH2 0x2760 JUMPI PUSH1 0x20 MUL DUP3 ADD SWAP2 SWAP1 PUSH0 MSTORE PUSH1 0x20 PUSH0 KECCAK256 SWAP1 JUMPDEST DUP2 SLOAD DUP2 MSTORE PUSH1 0x20 ADD SWAP1 PUSH1 0x1 ADD SWAP1 DUP1 DUP4 GT PUSH2 0x274C JUMPI JUMPDEST POP POP POP POP POP DUP2 MSTORE POP POP SWAP1 POP DUP1 PUSH1 0x20 ADD MLOAD PUSH20 0xFFFFFFFFFFFFFFFFFFFFFFFFFFFFFFFFFFFFFFFF AND PUSH4 0xA9059CBB CALLER PUSH1 0xE PUSH0 DUP8 DUP2 MSTORE PUSH1 0x20 ADD SWAP1 DUP2 MSTORE PUSH1 0x20 ADD PUSH0 KECCAK256 PUSH1 0x2 ADD SLOAD PUSH1 0x40 MLOAD DUP4 PUSH4 0xFFFFFFFF AND PUSH1 0xE0 SHL DUP2 MSTORE PUSH1 0x4 ADD PUSH2 0x27BE SWAP3 SWAP2 SWAP1 PUSH2 0x501D JUMP JUMPDEST PUSH1 0x20 PUSH1 0x40 MLOAD DUP1 DUP4 SUB DUP2 PUSH0 DUP8 GAS CALL ISZERO DUP1 ISZERO PUSH2 0x27DA JUMPI RETURNDATASIZE PUSH0 DUP1 RETURNDATACOPY RETURNDATASIZE PUSH0 REVERT JUMPDEST POP POP POP POP PUSH1 0x40 MLOAD RETURNDATASIZE PUSH1 0x1F NOT PUSH1 0x1F DUP3 ADD AND DUP3 ADD DUP1 PUSH1 0x40 MSTORE POP DUP2 ADD SWAP1 PUSH2 0x27FE SWAP2 SWAP1 PUSH2 0x4AAE JUMP JUMPDEST POP DUP1 PUSH1 0x40 ADD MLOAD PUSH20 0xFFFFFFFFFFFFFFFFFFFFFFFFFFFFFFFFFFFFFFFF AND PUSH4 0xA9059CBB CALLER PUSH1 0xE PUSH0 DUP8 DUP2 MSTORE PUSH1 0x20 ADD SWAP1 DUP2 MSTORE PUSH1 0x20 ADD PUSH0 KECCAK256 PUSH1 0x3 ADD SLOAD PUSH1 0x40 MLOAD DUP4 PUSH4 0xFFFFFFFF AND PUSH1 0xE0 SHL DUP2 MSTORE PUSH1 0x4 ADD PUSH2 0x2852 SWAP3 SWAP2 SWAP1 PUSH2 0x501D JUMP JUMPDEST PUSH1 0x20 PUSH1 0x40 MLOAD DUP1 DUP4 SUB DUP2 PUSH0 DUP8 GAS CALL ISZERO DUP1 ISZERO PUSH2 0x286E JUMPI RETURNDATASIZE PUSH0 DUP1 RETURNDATACOPY RETURNDATASIZE PUSH0 REVERT JUMPDEST POP POP POP POP PUSH1 0x40 MLOAD RETURNDATASIZE PUSH1 0x1F NOT PUSH1 0x1F DUP3 ADD AND DUP3 ADD DUP1 PUSH1 0x40 MSTORE POP DUP2 ADD SWAP1 PUSH2 0x2892 SWAP2 SWAP1 PUSH2 0x4AAE JUMP JUMPDEST POP PUSH0 JUMPDEST PUSH1 0xC PUSH0 DUP5 DUP2 MSTORE PUSH1 0x20 ADD SWAP1 DUP2 MSTORE PUSH1 0x20 ADD PUSH0 KECCAK256 PUSH1 0x3 ADD DUP1 SLOAD SWAP1 POP DUP2 LT ISZERO PUSH2 0x298D JUMPI CALLER PUSH20 0xFFFFFFFFFFFFFFFFFFFFFFFFFFFFFFFFFFFFFFFF AND PUSH1 0xE PUSH0 PUSH1 0xC PUSH0 DUP8 DUP2 MSTORE PUSH1 0x20 ADD SWAP1 DUP2 MSTORE PUSH1 0x20 ADD PUSH0 KECCAK256 PUSH1 0x3 ADD DUP5 DUP2 SLOAD DUP2 LT PUSH2 0x28F4 JUMPI PUSH2 0x28F3 PUSH2 0x5227 JUMP JUMPDEST JUMPDEST SWAP1 PUSH0 MSTORE PUSH1 0x20 PUSH0 KECCAK256 ADD SLOAD DUP2 MSTORE PUSH1 0x20 ADD SWAP1 DUP2 MSTORE PUSH1 0x20 ADD PUSH0 KECCAK256 PUSH1 0x4 ADD PUSH0 SWAP1 SLOAD SWAP1 PUSH2 0x100 EXP SWAP1 DIV PUSH20 0xFFFFFFFFFFFFFFFFFFFFFFFFFFFFFFFFFFFFFFFF AND PUSH20 0xFFFFFFFFFFFFFFFFFFFFFFFFFFFFFFFFFFFFFFFF AND SUB PUSH2 0x297A JUMPI PUSH1 0xC PUSH0 DUP5 DUP2 MSTORE PUSH1 0x20 ADD SWAP1 DUP2 MSTORE PUSH1 0x20 ADD PUSH0 KECCAK256 PUSH1 0x3 ADD DUP2 DUP2 SLOAD DUP2 LT PUSH2 0x296E JUMPI PUSH2 0x296D PUSH2 0x5227 JUMP JUMPDEST JUMPDEST SWAP1 PUSH0 MSTORE PUSH1 0x20 PUSH0 KECCAK256 ADD PUSH0 SWAP1 SSTORE JUMPDEST DUP1 DUP1 PUSH2 0x2985 SWAP1 PUSH2 0x4F06 JUMP JUMPDEST SWAP2 POP POP PUSH2 0x2895 JUMP JUMPDEST POP PUSH0 JUMPDEST PUSH1 0xD PUSH0 CALLER PUSH20 0xFFFFFFFFFFFFFFFFFFFFFFFFFFFFFFFFFFFFFFFF AND PUSH20 0xFFFFFFFFFFFFFFFFFFFFFFFFFFFFFFFFFFFFFFFF AND DUP2 MSTORE PUSH1 0x20 ADD SWAP1 DUP2 MSTORE PUSH1 0x20 ADD PUSH0 KECCAK256 PUSH1 0x4 ADD DUP1 SLOAD SWAP1 POP DUP2 LT ISZERO PUSH2 0x2AC4 JUMPI DUP2 PUSH0 ADD MLOAD PUSH1 0xE PUSH0 PUSH1 0xD PUSH0 CALLER PUSH20 0xFFFFFFFFFFFFFFFFFFFFFFFFFFFFFFFFFFFFFFFF AND PUSH20 0xFFFFFFFFFFFFFFFFFFFFFFFFFFFFFFFFFFFFFFFF AND DUP2 MSTORE PUSH1 0x20 ADD SWAP1 DUP2 MSTORE PUSH1 0x20 ADD PUSH0 KECCAK256 PUSH1 0x4 ADD DUP5 DUP2 SLOAD DUP2 LT PUSH2 0x2A34 JUMPI PUSH2 0x2A33 PUSH2 0x5227 JUMP JUMPDEST JUMPDEST SWAP1 PUSH0 MSTORE PUSH1 0x20 PUSH0 KECCAK256 ADD SLOAD DUP2 MSTORE PUSH1 0x20 ADD SWAP1 DUP2 MSTORE PUSH1 0x20 ADD PUSH0 KECCAK256 PUSH1 0x1 ADD SLOAD SUB PUSH2 0x2AB1 JUMPI PUSH1 0xD PUSH0 CALLER PUSH20 0xFFFFFFFFFFFFFFFFFFFFFFFFFFFFFFFFFFFFFFFF AND PUSH20 0xFFFFFFFFFFFFFFFFFFFFFFFFFFFFFFFFFFFFFFFF AND DUP2 MSTORE PUSH1 0x20 ADD SWAP1 DUP2 MSTORE PUSH1 0x20 ADD PUSH0 KECCAK256 PUSH1 0x4 ADD DUP2 DUP2 SLOAD DUP2 LT PUSH2 0x2AA5 JUMPI PUSH2 0x2AA4 PUSH2 0x5227 JUMP JUMPDEST JUMPDEST SWAP1 PUSH0 MSTORE PUSH1 0x20 PUSH0 KECCAK256 ADD PUSH0 SWAP1 SSTORE JUMPDEST DUP1 DUP1 PUSH2 0x2ABC SWAP1 PUSH2 0x4F06 JUMP JUMPDEST SWAP2 POP POP PUSH2 0x2990 JUMP JUMPDEST POP PUSH1 0xE PUSH0 DUP5 DUP2 MSTORE PUSH1 0x20 ADD SWAP1 DUP2 MSTORE PUSH1 0x20 ADD PUSH0 KECCAK256 PUSH0 DUP1 DUP3 ADD PUSH0 SWAP1 SSTORE PUSH1 0x1 DUP3 ADD PUSH0 SWAP1 SSTORE PUSH1 0x2 DUP3 ADD PUSH0 SWAP1 SSTORE PUSH1 0x3 DUP3 ADD PUSH0 SWAP1 SSTORE PUSH1 0x4 DUP3 ADD PUSH0 PUSH2 0x100 EXP DUP2 SLOAD SWAP1 PUSH20 0xFFFFFFFFFFFFFFFFFFFFFFFFFFFFFFFFFFFFFFFF MUL NOT AND SWAP1 SSTORE POP POP POP POP POP JUMP JUMPDEST PUSH1 0xC PUSH1 0x20 MSTORE DUP1 PUSH0 MSTORE PUSH1 0x40 PUSH0 KECCAK256 PUSH0 SWAP2 POP SWAP1 POP DUP1 PUSH0 ADD SLOAD SWAP1 DUP1 PUSH1 0x1 ADD PUSH0 SWAP1 SLOAD SWAP1 PUSH2 0x100 EXP SWAP1 DIV PUSH20 0xFFFFFFFFFFFFFFFFFFFFFFFFFFFFFFFFFFFFFFFF AND SWAP1 DUP1 PUSH1 0x2 ADD PUSH0 SWAP1 SLOAD SWAP1 PUSH2 0x100 EXP SWAP1 DIV PUSH20 0xFFFFFFFFFFFFFFFFFFFFFFFFFFFFFFFFFFFFFFFF AND SWAP1 POP DUP4 JUMP JUMPDEST PUSH1 0x9 PUSH1 0x8 SWAP1 SLOAD SWAP1 PUSH2 0x100 EXP SWAP1 DIV PUSH8 0xFFFFFFFFFFFFFFFF AND DUP2 JUMP JUMPDEST PUSH1 0x2 PUSH0 SWAP1 SLOAD SWAP1 PUSH2 0x100 EXP SWAP1 DIV PUSH20 0xFFFFFFFFFFFFFFFFFFFFFFFFFFFFFFFFFFFFFFFF AND PUSH20 0xFFFFFFFFFFFFFFFFFFFFFFFFFFFFFFFFFFFFFFFF AND CALLER PUSH20 0xFFFFFFFFFFFFFFFFFFFFFFFFFFFFFFFFFFFFFFFF AND EQ PUSH2 0x2C2C JUMPI PUSH1 0x40 MLOAD PUSH32 0x8C379A000000000000000000000000000000000000000000000000000000000 DUP2 MSTORE PUSH1 0x4 ADD PUSH2 0x2C23 SWAP1 PUSH2 0x4DB0 JUMP JUMPDEST PUSH1 0x40 MLOAD DUP1 SWAP2 SUB SWAP1 REVERT JUMPDEST PUSH0 DUP2 GT PUSH2 0x2C6E JUMPI PUSH1 0x40 MLOAD PUSH32 0x8C379A000000000000000000000000000000000000000000000000000000000 DUP2 MSTORE PUSH1 0x4 ADD PUSH2 0x2C65 SWAP1 PUSH2 0x529E JUMP JUMPDEST PUSH1 0x40 MLOAD DUP1 SWAP2 SUB SWAP1 REVERT JUMPDEST PUSH2 0x3E8 DUP2 LT PUSH2 0x2CB2 JUMPI PUSH1 0x40 MLOAD PUSH32 0x8C379A000000000000000000000000000000000000000000000000000000000 DUP2 MSTORE PUSH1 0x4 ADD PUSH2 0x2CA9 SWAP1 PUSH2 0x5306 JUMP JUMPDEST PUSH1 0x40 MLOAD DUP1 SWAP2 SUB SWAP1 REVERT JUMPDEST DUP1 PUSH1 0x4 DUP2 SWAP1 SSTORE POP POP JUMP JUMPDEST PUSH1 0x2 PUSH0 SWAP1 SLOAD SWAP1 PUSH2 0x100 EXP SWAP1 DIV PUSH20 0xFFFFFFFFFFFFFFFFFFFFFFFFFFFFFFFFFFFFFFFF AND PUSH20 0xFFFFFFFFFFFFFFFFFFFFFFFFFFFFFFFFFFFFFFFF AND CALLER PUSH20 0xFFFFFFFFFFFFFFFFFFFFFFFFFFFFFFFFFFFFFFFF AND EQ PUSH2 0x2D4B JUMPI PUSH1 0x40 MLOAD PUSH32 0x8C379A000000000000000000000000000000000000000000000000000000000 DUP2 MSTORE PUSH1 0x4 ADD PUSH2 0x2D42 SWAP1 PUSH2 0x4DB0 JUMP JUMPDEST PUSH1 0x40 MLOAD DUP1 SWAP2 SUB SWAP1 REVERT JUMPDEST DUP1 PUSH1 0x9 PUSH1 0x10 PUSH2 0x100 EXP DUP2 SLOAD DUP2 PUSH8 0xFFFFFFFFFFFFFFFF MUL NOT AND SWAP1 DUP4 PUSH8 0xFFFFFFFFFFFFFFFF AND MUL OR SWAP1 SSTORE POP POP JUMP JUMPDEST PUSH1 0x60 DUP1 PUSH1 0x60 DUP1 PUSH0 PUSH1 0xD PUSH0 DUP8 PUSH20 0xFFFFFFFFFFFFFFFFFFFFFFFFFFFFFFFFFFFFFFFF AND PUSH20 0xFFFFFFFFFFFFFFFFFFFFFFFFFFFFFFFFFFFFFFFF AND DUP2 MSTORE PUSH1 0x20 ADD SWAP1 DUP2 MSTORE PUSH1 0x20 ADD PUSH0 KECCAK256 PUSH1 0x4 ADD DUP1 SLOAD DUP1 PUSH1 0x20 MUL PUSH1 0x20 ADD PUSH1 0x40 MLOAD SWAP1 DUP2 ADD PUSH1 0x40 MSTORE DUP1 SWAP3 SWAP2 SWAP1 DUP2 DUP2 MSTORE PUSH1 0x20 ADD DUP3 DUP1 SLOAD DUP1 ISZERO PUSH2 0x2E06 JUMPI PUSH1 0x20 MUL DUP3 ADD SWAP2 SWAP1 PUSH0 MSTORE PUSH1 0x20 PUSH0 KECCAK256 SWAP1 JUMPDEST DUP2 SLOAD DUP2 MSTORE PUSH1 0x20 ADD SWAP1 PUSH1 0x1 ADD SWAP1 DUP1 DUP4 GT PUSH2 0x2DF2 JUMPI JUMPDEST POP POP POP POP POP SWAP1 POP PUSH0 DUP2 MLOAD PUSH8 0xFFFFFFFFFFFFFFFF DUP2 GT ISZERO PUSH2 0x2E29 JUMPI PUSH2 0x2E28 PUSH2 0x5324 JUMP JUMPDEST JUMPDEST PUSH1 0x40 MLOAD SWAP1 DUP1 DUP3 MSTORE DUP1 PUSH1 0x20 MUL PUSH1 0x20 ADD DUP3 ADD PUSH1 0x40 MSTORE DUP1 ISZERO PUSH2 0x2E57 JUMPI DUP2 PUSH1 0x20 ADD PUSH1 0x20 DUP3 MUL DUP1 CALLDATASIZE DUP4 CALLDATACOPY DUP1 DUP3 ADD SWAP2 POP POP SWAP1 POP JUMPDEST POP SWAP1 POP PUSH0 DUP3 MLOAD PUSH8 0xFFFFFFFFFFFFFFFF DUP2 GT ISZERO PUSH2 0x2E76 JUMPI PUSH2 0x2E75 PUSH2 0x5324 JUMP JUMPDEST JUMPDEST PUSH1 0x40 MLOAD SWAP1 DUP1 DUP3 MSTORE DUP1 PUSH1 0x20 MUL PUSH1 0x20 ADD DUP3 ADD PUSH1 0x40 MSTORE DUP1 ISZERO PUSH2 0x2EA4 JUMPI DUP2 PUSH1 0x20 ADD PUSH1 0x20 DUP3 MUL DUP1 CALLDATASIZE DUP4 CALLDATACOPY DUP1 DUP3 ADD SWAP2 POP POP SWAP1 POP JUMPDEST POP SWAP1 POP PUSH0 DUP4 MLOAD PUSH8 0xFFFFFFFFFFFFFFFF DUP2 GT ISZERO PUSH2 0x2EC3 JUMPI PUSH2 0x2EC2 PUSH2 0x5324 JUMP JUMPDEST JUMPDEST PUSH1 0x40 MLOAD SWAP1 DUP1 DUP3 MSTORE DUP1 PUSH1 0x20 MUL PUSH1 0x20 ADD DUP3 ADD PUSH1 0x40 MSTORE DUP1 ISZERO PUSH2 0x2EF1 JUMPI DUP2 PUSH1 0x20 ADD PUSH1 0x20 DUP3 MUL DUP1 CALLDATASIZE DUP4 CALLDATACOPY DUP1 DUP3 ADD SWAP2 POP POP SWAP1 POP JUMPDEST POP SWAP1 POP PUSH0 JUMPDEST DUP5 MLOAD DUP2 LT ISZERO PUSH2 0x2FFC JUMPI PUSH1 0xE PUSH0 DUP7 DUP4 DUP2 MLOAD DUP2 LT PUSH2 0x2F15 JUMPI PUSH2 0x2F14 PUSH2 0x5227 JUMP JUMPDEST JUMPDEST PUSH1 0x20 MUL PUSH1 0x20 ADD ADD MLOAD DUP2 MSTORE PUSH1 0x20 ADD SWAP1 DUP2 MSTORE PUSH1 0x20 ADD PUSH0 KECCAK256 PUSH1 0x1 ADD SLOAD DUP5 DUP3 DUP2 MLOAD DUP2 LT PUSH2 0x2F41 JUMPI PUSH2 0x2F40 PUSH2 0x5227 JUMP JUMPDEST JUMPDEST PUSH1 0x20 MUL PUSH1 0x20 ADD ADD DUP2 DUP2 MSTORE POP POP PUSH1 0xE PUSH0 DUP7 DUP4 DUP2 MLOAD DUP2 LT PUSH2 0x2F63 JUMPI PUSH2 0x2F62 PUSH2 0x5227 JUMP JUMPDEST JUMPDEST PUSH1 0x20 MUL PUSH1 0x20 ADD ADD MLOAD DUP2 MSTORE PUSH1 0x20 ADD SWAP1 DUP2 MSTORE PUSH1 0x20 ADD PUSH0 KECCAK256 PUSH1 0x2 ADD SLOAD DUP4 DUP3 DUP2 MLOAD DUP2 LT PUSH2 0x2F8F JUMPI PUSH2 0x2F8E PUSH2 0x5227 JUMP JUMPDEST JUMPDEST PUSH1 0x20 MUL PUSH1 0x20 ADD ADD DUP2 DUP2 MSTORE POP POP PUSH1 0xE PUSH0 DUP7 DUP4 DUP2 MLOAD DUP2 LT PUSH2 0x2FB1 JUMPI PUSH2 0x2FB0 PUSH2 0x5227 JUMP JUMPDEST JUMPDEST PUSH1 0x20 MUL PUSH1 0x20 ADD ADD MLOAD DUP2 MSTORE PUSH1 0x20 ADD SWAP1 DUP2 MSTORE PUSH1 0x20 ADD PUSH0 KECCAK256 PUSH1 0x3 ADD SLOAD DUP3 DUP3 DUP2 MLOAD DUP2 LT PUSH2 0x2FDD JUMPI PUSH2 0x2FDC PUSH2 0x5227 JUMP JUMPDEST JUMPDEST PUSH1 0x20 MUL PUSH1 0x20 ADD ADD DUP2 DUP2 MSTORE POP POP DUP1 DUP1 PUSH2 0x2FF4 SWAP1 PUSH2 0x4F06 JUMP JUMPDEST SWAP2 POP POP PUSH2 0x2EF6 JUMP JUMPDEST POP DUP3 DUP3 DUP3 DUP7 SWAP8 POP SWAP8 POP SWAP8 POP SWAP8 POP POP POP POP POP SWAP2 SWAP4 POP SWAP2 SWAP4 JUMP JUMPDEST PUSH0 DUP1 PUSH1 0x1 PUSH0 SWAP1 SLOAD SWAP1 PUSH2 0x100 EXP SWAP1 DIV PUSH20 0xFFFFFFFFFFFFFFFFFFFFFFFFFFFFFFFFFFFFFFFF AND PUSH20 0xFFFFFFFFFFFFFFFFFFFFFFFFFFFFFFFFFFFFFFFF AND PUSH4 0x3552F434 DUP7 DUP7 PUSH1 0x40 MLOAD DUP4 PUSH4 0xFFFFFFFF AND PUSH1 0xE0 SHL DUP2 MSTORE PUSH1 0x4 ADD PUSH2 0x3072 SWAP3 SWAP2 SWAP1 PUSH2 0x5351 JUMP JUMPDEST PUSH1 0x20 PUSH1 0x40 MLOAD DUP1 DUP4 SUB DUP2 DUP7 GAS STATICCALL ISZERO DUP1 ISZERO PUSH2 0x308D JUMPI RETURNDATASIZE PUSH0 DUP1 RETURNDATACOPY RETURNDATASIZE PUSH0 REVERT JUMPDEST POP POP POP POP PUSH1 0x40 MLOAD RETURNDATASIZE PUSH1 0x1F NOT PUSH1 0x1F DUP3 ADD AND DUP3 ADD DUP1 PUSH1 0x40 MSTORE POP DUP2 ADD SWAP1 PUSH2 0x30B1 SWAP2 SWAP1 PUSH2 0x53A2 JUMP JUMPDEST SWAP1 POP PUSH4 0x5F5E100 DUP2 DUP5 PUSH2 0x30C4 SWAP2 SWAP1 PUSH2 0x4A24 JUMP JUMPDEST PUSH2 0x30CE SWAP2 SWAP1 PUSH2 0x49F4 JUMP JUMPDEST SWAP2 POP POP SWAP4 SWAP3 POP POP POP JUMP JUMPDEST PUSH0 PUSH1 0xD PUSH0 CALLER PUSH20 0xFFFFFFFFFFFFFFFFFFFFFFFFFFFFFFFFFFFFFFFF AND PUSH20 0xFFFFFFFFFFFFFFFFFFFFFFFFFFFFFFFFFFFFFFFF AND DUP2 MSTORE PUSH1 0x20 ADD SWAP1 DUP2 MSTORE PUSH1 0x20 ADD PUSH0 KECCAK256 PUSH0 ADD SLOAD SUB PUSH2 0x3159 JUMPI PUSH1 0x40 MLOAD PUSH32 0x8C379A000000000000000000000000000000000000000000000000000000000 DUP2 MSTORE PUSH1 0x4 ADD PUSH2 0x3150 SWAP1 PUSH2 0x4E80 JUMP JUMPDEST PUSH1 0x40 MLOAD DUP1 SWAP2 SUB SWAP1 REVERT JUMPDEST DUP1 PUSH1 0xD PUSH0 CALLER PUSH20 0xFFFFFFFFFFFFFFFFFFFFFFFFFFFFFFFFFFFFFFFF AND PUSH20 0xFFFFFFFFFFFFFFFFFFFFFFFFFFFFFFFFFFFFFFFF AND DUP2 MSTORE PUSH1 0x20 ADD SWAP1 DUP2 MSTORE PUSH1 0x20 ADD PUSH0 KECCAK256 PUSH1 0x2 ADD SLOAD LT ISZERO PUSH2 0x31DC JUMPI PUSH1 0x40 MLOAD PUSH32 0x8C379A000000000000000000000000000000000000000000000000000000000 DUP2 MSTORE PUSH1 0x4 ADD PUSH2 0x31D3 SWAP1 PUSH2 0x4FFF JUMP JUMPDEST PUSH1 0x40 MLOAD DUP1 SWAP2 SUB SWAP1 REVERT JUMPDEST PUSH1 0xB PUSH0 SWAP1 SLOAD SWAP1 PUSH2 0x100 EXP SWAP1 DIV PUSH20 0xFFFFFFFFFFFFFFFFFFFFFFFFFFFFFFFFFFFFFFFF AND PUSH20 0xFFFFFFFFFFFFFFFFFFFFFFFFFFFFFFFFFFFFFFFF AND PUSH4 0xA9059CBB CALLER DUP4 PUSH1 0x40 MLOAD DUP4 PUSH4 0xFFFFFFFF AND PUSH1 0xE0 SHL DUP2 MSTORE PUSH1 0x4 ADD PUSH2 0x3238 SWAP3 SWAP2 SWAP1 PUSH2 0x501D JUMP JUMPDEST PUSH1 0x20 PUSH1 0x40 MLOAD DUP1 DUP4 SUB DUP2 PUSH0 DUP8 GAS CALL ISZERO DUP1 ISZERO PUSH2 0x3254 JUMPI RETURNDATASIZE PUSH0 DUP1 RETURNDATACOPY RETURNDATASIZE PUSH0 REVERT JUMPDEST POP POP POP POP PUSH1 0x40 MLOAD RETURNDATASIZE PUSH1 0x1F NOT PUSH1 0x1F DUP3 ADD AND DUP3 ADD DUP1 PUSH1 0x40 MSTORE POP DUP2 ADD SWAP1 PUSH2 0x3278 SWAP2 SWAP1 PUSH2 0x4AAE JUMP JUMPDEST POP DUP1 PUSH1 0xD PUSH0 CALLER PUSH20 0xFFFFFFFFFFFFFFFFFFFFFFFFFFFFFFFFFFFFFFFF AND PUSH20 0xFFFFFFFFFFFFFFFFFFFFFFFFFFFFFFFFFFFFFFFF AND DUP2 MSTORE PUSH1 0x20 ADD SWAP1 DUP2 MSTORE PUSH1 0x20 ADD PUSH0 KECCAK256 PUSH1 0x2 ADD PUSH0 DUP3 DUP3 SLOAD PUSH2 0x32C8 SWAP2 SWAP1 PUSH2 0x4B51 JUMP JUMPDEST SWAP3 POP POP DUP2 SWAP1 SSTORE POP POP JUMP JUMPDEST PUSH0 PUSH2 0x32DF DUP5 DUP5 DUP5 CALLER PUSH2 0x919 JUMP JUMPDEST SWAP1 POP SWAP4 SWAP3 POP POP POP JUMP JUMPDEST PUSH1 0x8 PUSH1 0x20 MSTORE DUP1 PUSH0 MSTORE PUSH1 0x40 PUSH0 KECCAK256 PUSH0 SWAP2 POP SLOAD SWAP1 PUSH2 0x100 EXP SWAP1 DIV PUSH8 0xFFFFFFFFFFFFFFFF AND DUP2 JUMP JUMPDEST PUSH0 DUP1 PUSH1 0xD PUSH0 CALLER PUSH20 0xFFFFFFFFFFFFFFFFFFFFFFFFFFFFFFFFFFFFFFFF AND PUSH20 0xFFFFFFFFFFFFFFFFFFFFFFFFFFFFFFFFFFFFFFFF AND DUP2 MSTORE PUSH1 0x20 ADD SWAP1 DUP2 MSTORE PUSH1 0x20 ADD PUSH0 KECCAK256 PUSH0 ADD SLOAD SUB PUSH2 0x338E JUMPI PUSH1 0x40 MLOAD PUSH32 0x8C379A000000000000000000000000000000000000000000000000000000000 DUP2 MSTORE PUSH1 0x4 ADD PUSH2 0x3385 SWAP1 PUSH2 0x4E80 JUMP JUMPDEST PUSH1 0x40 MLOAD DUP1 SWAP2 SUB SWAP1 REVERT JUMPDEST PUSH2 0x3398 DUP4 DUP4 PUSH2 0x3ECC JUMP JUMPDEST SWAP1 POP SWAP3 SWAP2 POP POP JUMP JUMPDEST PUSH0 DUP1 PUSH0 PUSH2 0x33AD DUP6 DUP6 PUSH2 0x3415 JUMP JUMPDEST SWAP1 POP PUSH2 0x33B8 DUP2 PUSH2 0x369A JUMP JUMPDEST SWAP3 POP SWAP3 POP POP SWAP3 POP SWAP3 SWAP1 POP JUMP JUMPDEST PUSH1 0xE PUSH1 0x20 MSTORE DUP1 PUSH0 MSTORE PUSH1 0x40 PUSH0 KECCAK256 PUSH0 SWAP2 POP SWAP1 POP DUP1 PUSH0 ADD SLOAD SWAP1 DUP1 PUSH1 0x1 ADD SLOAD SWAP1 DUP1 PUSH1 0x2 ADD SLOAD SWAP1 DUP1 PUSH1 0x3 ADD SLOAD SWAP1 DUP1 PUSH1 0x4 ADD PUSH0 SWAP1 SLOAD SWAP1 PUSH2 0x100 EXP SWAP1 DIV PUSH20 0xFFFFFFFFFFFFFFFFFFFFFFFFFFFFFFFFFFFFFFFF AND SWAP1 POP DUP6 JUMP JUMPDEST PUSH0 DUP1 PUSH20 0xFFFFFFFFFFFFFFFFFFFFFFFFFFFFFFFFFFFFFFFF AND DUP4 PUSH20 0xFFFFFFFFFFFFFFFFFFFFFFFFFFFFFFFFFFFFFFFF AND EQ ISZERO DUP1 ISZERO PUSH2 0x347E JUMPI POP PUSH0 PUSH20 0xFFFFFFFFFFFFFFFFFFFFFFFFFFFFFFFFFFFFFFFF AND DUP3 PUSH20 0xFFFFFFFFFFFFFFFFFFFFFFFFFFFFFFFFFFFFFFFF AND EQ ISZERO JUMPDEST PUSH2 0x34BD JUMPI PUSH1 0x40 MLOAD PUSH32 0x8C379A000000000000000000000000000000000000000000000000000000000 DUP2 MSTORE PUSH1 0x4 ADD PUSH2 0x34B4 SWAP1 PUSH2 0x5417 JUMP JUMPDEST PUSH1 0x40 MLOAD DUP1 SWAP2 SUB SWAP1 REVERT JUMPDEST PUSH0 JUMPDEST PUSH1 0x5 SLOAD DUP2 GT PUSH2 0x368F JUMPI DUP4 PUSH20 0xFFFFFFFFFFFFFFFFFFFFFFFFFFFFFFFFFFFFFFFF AND PUSH1 0xC PUSH0 DUP4 DUP2 MSTORE PUSH1 0x20 ADD SWAP1 DUP2 MSTORE PUSH1 0x20 ADD PUSH0 KECCAK256 PUSH1 0x1 ADD PUSH0 SWAP1 SLOAD SWAP1 PUSH2 0x100 EXP SWAP1 DIV PUSH20 0xFFFFFFFFFFFFFFFFFFFFFFFFFFFFFFFFFFFFFFFF AND PUSH20 0xFFFFFFFFFFFFFFFFFFFFFFFFFFFFFFFFFFFFFFFF AND EQ DUP1 ISZERO PUSH2 0x3594 JUMPI POP DUP3 PUSH20 0xFFFFFFFFFFFFFFFFFFFFFFFFFFFFFFFFFFFFFFFF AND PUSH1 0xC PUSH0 DUP4 DUP2 MSTORE PUSH1 0x20 ADD SWAP1 DUP2 MSTORE PUSH1 0x20 ADD PUSH0 KECCAK256 PUSH1 0x2 ADD PUSH0 SWAP1 SLOAD SWAP1 PUSH2 0x100 EXP SWAP1 DIV PUSH20 0xFFFFFFFFFFFFFFFFFFFFFFFFFFFFFFFFFFFFFFFF AND PUSH20 0xFFFFFFFFFFFFFFFFFFFFFFFFFFFFFFFFFFFFFFFF AND EQ JUMPDEST ISZERO PUSH2 0x35A2 JUMPI DUP1 SWAP2 POP POP PUSH2 0x3694 JUMP JUMPDEST DUP3 PUSH20 0xFFFFFFFFFFFFFFFFFFFFFFFFFFFFFFFFFFFFFFFF AND PUSH1 0xC PUSH0 DUP4 DUP2 MSTORE PUSH1 0x20 ADD SWAP1 DUP2 MSTORE PUSH1 0x20 ADD PUSH0 KECCAK256 PUSH1 0x1 ADD PUSH0 SWAP1 SLOAD SWAP1 PUSH2 0x100 EXP SWAP1 DIV PUSH20 0xFFFFFFFFFFFFFFFFFFFFFFFFFFFFFFFFFFFFFFFF AND PUSH20 0xFFFFFFFFFFFFFFFFFFFFFFFFFFFFFFFFFFFFFFFF AND EQ DUP1 ISZERO PUSH2 0x366E JUMPI POP DUP4 PUSH20 0xFFFFFFFFFFFFFFFFFFFFFFFFFFFFFFFFFFFFFFFF AND PUSH1 0xC PUSH0 DUP4 DUP2 MSTORE PUSH1 0x20 ADD SWAP1 DUP2 MSTORE PUSH1 0x20 ADD PUSH0 KECCAK256 PUSH1 0x2 ADD PUSH0 SWAP1 SLOAD SWAP1 PUSH2 0x100 EXP SWAP1 DIV PUSH20 0xFFFFFFFFFFFFFFFFFFFFFFFFFFFFFFFFFFFFFFFF AND PUSH20 0xFFFFFFFFFFFFFFFFFFFFFFFFFFFFFFFFFFFFFFFF AND EQ JUMPDEST ISZERO PUSH2 0x367C JUMPI DUP1 SWAP2 POP POP PUSH2 0x3694 JUMP JUMPDEST DUP1 DUP1 PUSH2 0x3687 SWAP1 PUSH2 0x4F06 JUMP JUMPDEST SWAP2 POP POP PUSH2 0x34BF JUMP JUMPDEST POP PUSH0 SWAP1 POP JUMPDEST SWAP3 SWAP2 POP POP JUMP JUMPDEST PUSH0 DUP1 PUSH0 DUP1 PUSH0 JUMPDEST PUSH1 0xC PUSH0 DUP8 DUP2 MSTORE PUSH1 0x20 ADD SWAP1 DUP2 MSTORE PUSH1 0x20 ADD PUSH0 KECCAK256 PUSH1 0x3 ADD DUP1 SLOAD SWAP1 POP DUP2 LT ISZERO PUSH2 0x3749 JUMPI PUSH0 PUSH1 0xC PUSH0 DUP9 DUP2 MSTORE PUSH1 0x20 ADD SWAP1 DUP2 MSTORE PUSH1 0x20 ADD PUSH0 KECCAK256 PUSH1 0x3 ADD DUP3 DUP2 SLOAD DUP2 LT PUSH2 0x36E6 JUMPI PUSH2 0x36E5 PUSH2 0x5227 JUMP JUMPDEST JUMPDEST SWAP1 PUSH0 MSTORE PUSH1 0x20 PUSH0 KECCAK256 ADD SLOAD SWAP1 POP PUSH1 0xE PUSH0 DUP3 DUP2 MSTORE PUSH1 0x20 ADD SWAP1 DUP2 MSTORE PUSH1 0x20 ADD PUSH0 KECCAK256 PUSH1 0x2 ADD SLOAD DUP5 PUSH2 0x3711 SWAP2 SWAP1 PUSH2 0x4CE2 JUMP JUMPDEST SWAP4 POP PUSH1 0xE PUSH0 DUP3 DUP2 MSTORE PUSH1 0x20 ADD SWAP1 DUP2 MSTORE PUSH1 0x20 ADD PUSH0 KECCAK256 PUSH1 0x3 ADD SLOAD DUP4 PUSH2 0x3733 SWAP2 SWAP1 PUSH2 0x4CE2 JUMP JUMPDEST SWAP3 POP POP DUP1 DUP1 PUSH2 0x3741 SWAP1 PUSH2 0x4F06 JUMP JUMPDEST SWAP2 POP POP PUSH2 0x36A0 JUMP JUMPDEST POP DUP2 DUP2 SWAP4 POP SWAP4 POP POP POP SWAP2 POP SWAP2 JUMP JUMPDEST PUSH0 DUP1 DUP5 SWAP1 POP PUSH0 PUSH1 0x4 SLOAD PUSH2 0x3E8 DUP7 PUSH2 0x376E SWAP2 SWAP1 PUSH2 0x49F4 JUMP JUMPDEST PUSH2 0x3778 SWAP2 SWAP1 PUSH2 0x4A24 JUMP JUMPDEST SWAP1 POP DUP2 PUSH20 0xFFFFFFFFFFFFFFFFFFFFFFFFFFFFFFFFFFFFFFFF AND PUSH4 0xA9059CBB DUP6 DUP4 DUP9 PUSH2 0x37A3 SWAP2 SWAP1 PUSH2 0x4B51 JUMP JUMPDEST PUSH1 0x40 MLOAD DUP4 PUSH4 0xFFFFFFFF AND PUSH1 0xE0 SHL DUP2 MSTORE PUSH1 0x4 ADD PUSH2 0x37C0 SWAP3 SWAP2 SWAP1 PUSH2 0x501D JUMP JUMPDEST PUSH1 0x20 PUSH1 0x40 MLOAD DUP1 DUP4 SUB DUP2 PUSH0 DUP8 GAS CALL ISZERO DUP1 ISZERO PUSH2 0x37DC JUMPI RETURNDATASIZE PUSH0 DUP1 RETURNDATACOPY RETURNDATASIZE PUSH0 REVERT JUMPDEST POP POP POP POP PUSH1 0x40 MLOAD RETURNDATASIZE PUSH1 0x1F NOT PUSH1 0x1F DUP3 ADD AND DUP3 ADD DUP1 PUSH1 0x40 MSTORE POP DUP2 ADD SWAP1 PUSH2 0x3800 SWAP2 SWAP1 PUSH2 0x4AAE JUMP JUMPDEST POP PUSH2 0x3872 PUSH1 0x8 PUSH0 DUP9 PUSH20 0xFFFFFFFFFFFFFFFFFFFFFFFFFFFFFFFFFFFFFFFF AND PUSH20 0xFFFFFFFFFFFFFFFFFFFFFFFFFFFFFFFFFFFFFFFF AND DUP2 MSTORE PUSH1 0x20 ADD SWAP1 DUP2 MSTORE PUSH1 0x20 ADD PUSH0 KECCAK256 PUSH0 SWAP1 SLOAD SWAP1 PUSH2 0x100 EXP SWAP1 DIV PUSH8 0xFFFFFFFFFFFFFFFF AND PUSH1 0x9 PUSH1 0x10 SWAP1 SLOAD SWAP1 PUSH2 0x100 EXP SWAP1 DIV PUSH8 0xFFFFFFFFFFFFFFFF AND DUP4 PUSH2 0x3014 JUMP JUMPDEST SWAP3 POP POP POP SWAP4 SWAP3 POP POP POP JUMP JUMPDEST PUSH0 JUMPDEST DUP3 PUSH1 0x60 ADD MLOAD MLOAD DUP2 LT ISZERO PUSH2 0x3A87 JUMPI PUSH0 DUP4 PUSH1 0x60 ADD MLOAD DUP3 DUP2 MLOAD DUP2 LT PUSH2 0x38A4 JUMPI PUSH2 0x38A3 PUSH2 0x5227 JUMP JUMPDEST JUMPDEST PUSH1 0x20 MUL PUSH1 0x20 ADD ADD MLOAD SWAP1 POP PUSH0 DUP6 DUP9 PUSH1 0xE PUSH0 DUP6 DUP2 MSTORE PUSH1 0x20 ADD SWAP1 DUP2 MSTORE PUSH1 0x20 ADD PUSH0 KECCAK256 PUSH1 0x3 ADD SLOAD PUSH2 0x38D0 SWAP2 SWAP1 PUSH2 0x4A24 JUMP JUMPDEST PUSH2 0x38DA SWAP2 SWAP1 PUSH2 0x49F4 JUMP JUMPDEST SWAP1 POP DUP1 PUSH1 0xE PUSH0 DUP5 DUP2 MSTORE PUSH1 0x20 ADD SWAP1 DUP2 MSTORE PUSH1 0x20 ADD PUSH0 KECCAK256 PUSH1 0x2 ADD PUSH0 DUP3 DUP3 SLOAD PUSH2 0x38FF SWAP2 SWAP1 PUSH2 0x4CE2 JUMP JUMPDEST SWAP3 POP POP DUP2 SWAP1 SSTORE POP PUSH0 DUP7 DUP9 PUSH1 0xE PUSH0 DUP7 DUP2 MSTORE PUSH1 0x20 ADD SWAP1 DUP2 MSTORE PUSH1 0x20 ADD PUSH0 KECCAK256 PUSH1 0x3 ADD SLOAD PUSH2 0x3928 SWAP2 SWAP1 PUSH2 0x4A24 JUMP JUMPDEST PUSH2 0x3932 SWAP2 SWAP1 PUSH2 0x49F4 JUMP JUMPDEST SWAP1 POP DUP1 PUSH1 0xE PUSH0 DUP6 DUP2 MSTORE PUSH1 0x20 ADD SWAP1 DUP2 MSTORE PUSH1 0x20 ADD PUSH0 KECCAK256 PUSH1 0x3 ADD PUSH0 DUP3 DUP3 SLOAD PUSH2 0x3957 SWAP2 SWAP1 PUSH2 0x4B51 JUMP JUMPDEST SWAP3 POP POP DUP2 SWAP1 SSTORE POP PUSH0 DUP8 DUP7 PUSH1 0xE PUSH0 DUP8 DUP2 MSTORE PUSH1 0x20 ADD SWAP1 DUP2 MSTORE PUSH1 0x20 ADD PUSH0 KECCAK256 PUSH1 0x3 ADD SLOAD PUSH2 0x3980 SWAP2 SWAP1 PUSH2 0x4A24 JUMP JUMPDEST PUSH2 0x398A SWAP2 SWAP1 PUSH2 0x49F4 JUMP JUMPDEST SWAP1 POP PUSH0 PUSH1 0xE PUSH0 DUP7 DUP2 MSTORE PUSH1 0x20 ADD SWAP1 DUP2 MSTORE PUSH1 0x20 ADD PUSH0 KECCAK256 PUSH1 0x4 ADD PUSH0 SWAP1 SLOAD SWAP1 PUSH2 0x100 EXP SWAP1 DIV PUSH20 0xFFFFFFFFFFFFFFFFFFFFFFFFFFFFFFFFFFFFFFFF AND SWAP1 POP DUP2 PUSH1 0xD PUSH0 DUP4 PUSH20 0xFFFFFFFFFFFFFFFFFFFFFFFFFFFFFFFFFFFFFFFF AND PUSH20 0xFFFFFFFFFFFFFFFFFFFFFFFFFFFFFFFFFFFFFFFF AND DUP2 MSTORE PUSH1 0x20 ADD SWAP1 DUP2 MSTORE PUSH1 0x20 ADD PUSH0 KECCAK256 PUSH1 0x1 ADD PUSH0 DUP3 DUP3 SLOAD PUSH2 0x3A12 SWAP2 SWAP1 PUSH2 0x4CE2 JUMP JUMPDEST SWAP3 POP POP DUP2 SWAP1 SSTORE POP DUP2 PUSH1 0xD PUSH0 DUP4 PUSH20 0xFFFFFFFFFFFFFFFFFFFFFFFFFFFFFFFFFFFFFFFF AND PUSH20 0xFFFFFFFFFFFFFFFFFFFFFFFFFFFFFFFFFFFFFFFF AND DUP2 MSTORE PUSH1 0x20 ADD SWAP1 DUP2 MSTORE PUSH1 0x20 ADD PUSH0 KECCAK256 PUSH1 0x2 ADD PUSH0 DUP3 DUP3 SLOAD PUSH2 0x3A68 SWAP2 SWAP1 PUSH2 0x4CE2 JUMP JUMPDEST SWAP3 POP POP DUP2 SWAP1 SSTORE POP POP POP POP POP POP DUP1 DUP1 PUSH2 0x3A7F SWAP1 PUSH2 0x4F06 JUMP JUMPDEST SWAP2 POP POP PUSH2 0x387F JUMP JUMPDEST POP POP POP POP POP POP JUMP JUMPDEST PUSH0 DUP1 DUP7 SWAP1 POP PUSH0 DUP7 SWAP1 POP PUSH0 PUSH1 0x4 SLOAD PUSH2 0x3E8 DUP8 PUSH2 0x3AAA SWAP2 SWAP1 PUSH2 0x49F4 JUMP JUMPDEST PUSH2 0x3AB4 SWAP2 SWAP1 PUSH2 0x4A24 JUMP JUMPDEST SWAP1 POP DUP3 PUSH20 0xFFFFFFFFFFFFFFFFFFFFFFFFFFFFFFFFFFFFFFFF AND PUSH4 0x23B872DD DUP7 ADDRESS DUP11 PUSH1 0x40 MLOAD DUP5 PUSH4 0xFFFFFFFF AND PUSH1 0xE0 SHL DUP2 MSTORE PUSH1 0x4 ADD PUSH2 0x3AF3 SWAP4 SWAP3 SWAP2 SWAP1 PUSH2 0x4A65 JUMP JUMPDEST PUSH1 0x20 PUSH1 0x40 MLOAD DUP1 DUP4 SUB DUP2 PUSH0 DUP8 GAS CALL ISZERO DUP1 ISZERO PUSH2 0x3B0F JUMPI RETURNDATASIZE PUSH0 DUP1 RETURNDATACOPY RETURNDATASIZE PUSH0 REVERT JUMPDEST POP POP POP POP PUSH1 0x40 MLOAD RETURNDATASIZE PUSH1 0x1F NOT PUSH1 0x1F DUP3 ADD AND DUP3 ADD DUP1 PUSH1 0x40 MSTORE POP DUP2 ADD SWAP1 PUSH2 0x3B33 SWAP2 SWAP1 PUSH2 0x4AAE JUMP JUMPDEST POP DUP2 PUSH20 0xFFFFFFFFFFFFFFFFFFFFFFFFFFFFFFFFFFFFFFFF AND PUSH4 0xA9059CBB DUP7 DUP4 DUP10 PUSH2 0x3B5D SWAP2 SWAP1 PUSH2 0x4B51 JUMP JUMPDEST PUSH1 0x40 MLOAD DUP4 PUSH4 0xFFFFFFFF AND PUSH1 0xE0 SHL DUP2 MSTORE PUSH1 0x4 ADD PUSH2 0x3B7A SWAP3 SWAP2 SWAP1 PUSH2 0x501D JUMP JUMPDEST PUSH1 0x20 PUSH1 0x40 MLOAD DUP1 DUP4 SUB DUP2 PUSH0 DUP8 GAS CALL ISZERO DUP1 ISZERO PUSH2 0x3B96 JUMPI RETURNDATASIZE PUSH0 DUP1 RETURNDATACOPY RETURNDATASIZE PUSH0 REVERT JUMPDEST POP POP POP POP PUSH1 0x40 MLOAD RETURNDATASIZE PUSH1 0x1F NOT PUSH1 0x1F DUP3 ADD AND DUP3 ADD DUP1 PUSH1 0x40 MSTORE POP DUP2 ADD SWAP1 PUSH2 0x3BBA SWAP2 SWAP1 PUSH2 0x4AAE JUMP JUMPDEST POP PUSH2 0x3C2C PUSH1 0x8 PUSH0 DUP11 PUSH20 0xFFFFFFFFFFFFFFFFFFFFFFFFFFFFFFFFFFFFFFFF AND PUSH20 0xFFFFFFFFFFFFFFFFFFFFFFFFFFFFFFFFFFFFFFFF AND DUP2 MSTORE PUSH1 0x20 ADD SWAP1 DUP2 MSTORE PUSH1 0x20 ADD PUSH0 KECCAK256 PUSH0 SWAP1 SLOAD SWAP1 PUSH2 0x100 EXP SWAP1 DIV PUSH8 0xFFFFFFFFFFFFFFFF AND PUSH1 0x9 PUSH1 0x10 SWAP1 SLOAD SWAP1 PUSH2 0x100 EXP SWAP1 DIV PUSH8 0xFFFFFFFFFFFFFFFF AND DUP4 PUSH2 0x3014 JUMP JUMPDEST SWAP4 POP POP POP POP SWAP6 SWAP5 POP POP POP POP POP JUMP JUMPDEST PUSH0 DUP1 PUSH1 0xD PUSH0 DUP5 PUSH20 0xFFFFFFFFFFFFFFFFFFFFFFFFFFFFFFFFFFFFFFFF AND PUSH20 0xFFFFFFFFFFFFFFFFFFFFFFFFFFFFFFFFFFFFFFFF AND DUP2 MSTORE PUSH1 0x20 ADD SWAP1 DUP2 MSTORE PUSH1 0x20 ADD PUSH0 KECCAK256 PUSH1 0x4 ADD DUP1 SLOAD DUP1 PUSH1 0x20 MUL PUSH1 0x20 ADD PUSH1 0x40 MLOAD SWAP1 DUP2 ADD PUSH1 0x40 MSTORE DUP1 SWAP3 SWAP2 SWAP1 DUP2 DUP2 MSTORE PUSH1 0x20 ADD DUP3 DUP1 SLOAD DUP1 ISZERO PUSH2 0x3CC4 JUMPI PUSH1 0x20 MUL DUP3 ADD SWAP2 SWAP1 PUSH0 MSTORE PUSH1 0x20 PUSH0 KECCAK256 SWAP1 JUMPDEST DUP2 SLOAD DUP2 MSTORE PUSH1 0x20 ADD SWAP1 PUSH1 0x1 ADD SWAP1 DUP1 DUP4 GT PUSH2 0x3CB0 JUMPI JUMPDEST POP POP POP POP POP SWAP1 POP PUSH0 JUMPDEST DUP2 MLOAD DUP2 LT ISZERO PUSH2 0x3D42 JUMPI DUP5 PUSH1 0xE PUSH0 DUP5 DUP5 DUP2 MLOAD DUP2 LT PUSH2 0x3CED JUMPI PUSH2 0x3CEC PUSH2 0x5227 JUMP JUMPDEST JUMPDEST PUSH1 0x20 MUL PUSH1 0x20 ADD ADD MLOAD DUP2 MSTORE PUSH1 0x20 ADD SWAP1 DUP2 MSTORE PUSH1 0x20 ADD PUSH0 KECCAK256 PUSH1 0x1 ADD SLOAD SUB PUSH2 0x3D2F JUMPI DUP2 DUP2 DUP2 MLOAD DUP2 LT PUSH2 0x3D1E JUMPI PUSH2 0x3D1D PUSH2 0x5227 JUMP JUMPDEST JUMPDEST PUSH1 0x20 MUL PUSH1 0x20 ADD ADD MLOAD SWAP3 POP POP POP PUSH2 0x3D48 JUMP JUMPDEST DUP1 DUP1 PUSH2 0x3D3A SWAP1 PUSH2 0x4F06 JUMP JUMPDEST SWAP2 POP POP PUSH2 0x3CCD JUMP JUMPDEST POP PUSH0 SWAP2 POP POP JUMPDEST SWAP3 SWAP2 POP POP JUMP JUMPDEST PUSH1 0x6 PUSH0 DUP2 SLOAD DUP1 SWAP3 SWAP2 SWAP1 PUSH2 0x3D60 SWAP1 PUSH2 0x4F06 JUMP JUMPDEST SWAP2 SWAP1 POP SSTORE POP PUSH1 0x40 MLOAD DUP1 PUSH1 0xA0 ADD PUSH1 0x40 MSTORE DUP1 PUSH1 0x6 SLOAD DUP2 MSTORE PUSH1 0x20 ADD DUP6 DUP2 MSTORE PUSH1 0x20 ADD DUP5 DUP2 MSTORE PUSH1 0x20 ADD DUP4 DUP2 MSTORE PUSH1 0x20 ADD DUP3 PUSH20 0xFFFFFFFFFFFFFFFFFFFFFFFFFFFFFFFFFFFFFFFF AND DUP2 MSTORE POP PUSH1 0xE PUSH0 PUSH1 0x6 SLOAD DUP2 MSTORE PUSH1 0x20 ADD SWAP1 DUP2 MSTORE PUSH1 0x20 ADD PUSH0 KECCAK256 PUSH0 DUP3 ADD MLOAD DUP2 PUSH0 ADD SSTORE PUSH1 0x20 DUP3 ADD MLOAD DUP2 PUSH1 0x1 ADD SSTORE PUSH1 0x40 DUP3 ADD MLOAD DUP2 PUSH1 0x2 ADD SSTORE PUSH1 0x60 DUP3 ADD MLOAD DUP2 PUSH1 0x3 ADD SSTORE PUSH1 0x80 DUP3 ADD MLOAD DUP2 PUSH1 0x4 ADD PUSH0 PUSH2 0x100 EXP DUP2 SLOAD DUP2 PUSH20 0xFFFFFFFFFFFFFFFFFFFFFFFFFFFFFFFFFFFFFFFF MUL NOT AND SWAP1 DUP4 PUSH20 0xFFFFFFFFFFFFFFFFFFFFFFFFFFFFFFFFFFFFFFFF AND MUL OR SWAP1 SSTORE POP SWAP1 POP POP PUSH1 0xC PUSH0 DUP6 DUP2 MSTORE PUSH1 0x20 ADD SWAP1 DUP2 MSTORE PUSH1 0x20 ADD PUSH0 KECCAK256 PUSH1 0x3 ADD PUSH1 0x6 SLOAD SWAP1 DUP1 PUSH1 0x1 DUP2 SLOAD ADD DUP1 DUP3 SSTORE DUP1 SWAP2 POP POP PUSH1 0x1 SWAP1 SUB SWAP1 PUSH0 MSTORE PUSH1 0x20 PUSH0 KECCAK256 ADD PUSH0 SWAP1 SWAP2 SWAP1 SWAP2 SWAP1 SWAP2 POP SSTORE PUSH1 0xD PUSH0 DUP3 PUSH20 0xFFFFFFFFFFFFFFFFFFFFFFFFFFFFFFFFFFFFFFFF AND PUSH20 0xFFFFFFFFFFFFFFFFFFFFFFFFFFFFFFFFFFFFFFFF AND DUP2 MSTORE PUSH1 0x20 ADD SWAP1 DUP2 MSTORE PUSH1 0x20 ADD PUSH0 KECCAK256 PUSH1 0x4 ADD PUSH1 0x6 SLOAD SWAP1 DUP1 PUSH1 0x1 DUP2 SLOAD ADD DUP1 DUP3 SSTORE DUP1 SWAP2 POP POP PUSH1 0x1 SWAP1 SUB SWAP1 PUSH0 MSTORE PUSH1 0x20 PUSH0 KECCAK256 ADD PUSH0 SWAP1 SWAP2 SWAP1 SWAP2 SWAP1 SWAP2 POP SSTORE POP POP POP POP JUMP JUMPDEST PUSH0 DUP1 PUSH20 0xFFFFFFFFFFFFFFFFFFFFFFFFFFFFFFFFFFFFFFFF AND DUP4 PUSH20 0xFFFFFFFFFFFFFFFFFFFFFFFFFFFFFFFFFFFFFFFF AND SUB PUSH2 0x3F3B JUMPI PUSH1 0x40 MLOAD PUSH32 0x8C379A000000000000000000000000000000000000000000000000000000000 DUP2 MSTORE PUSH1 0x4 ADD PUSH2 0x3F32 SWAP1 PUSH2 0x54A5 JUMP JUMPDEST PUSH1 0x40 MLOAD DUP1 SWAP2 SUB SWAP1 REVERT JUMPDEST PUSH0 PUSH20 0xFFFFFFFFFFFFFFFFFFFFFFFFFFFFFFFFFFFFFFFF AND DUP3 PUSH20 0xFFFFFFFFFFFFFFFFFFFFFFFFFFFFFFFFFFFFFFFF AND SUB PUSH2 0x3FA9 JUMPI PUSH1 0x40 MLOAD PUSH32 0x8C379A000000000000000000000000000000000000000000000000000000000 DUP2 MSTORE PUSH1 0x4 ADD PUSH2 0x3FA0 SWAP1 PUSH2 0x54A5 JUMP JUMPDEST PUSH1 0x40 MLOAD DUP1 SWAP2 SUB SWAP1 REVERT JUMPDEST PUSH0 DUP1 PUSH2 0x3FB5 DUP6 DUP6 PUSH2 0x3415 JUMP JUMPDEST EQ ISZERO SWAP1 POP DUP1 ISZERO PUSH2 0x3FC8 JUMPI PUSH0 SWAP2 POP POP PUSH2 0x422B JUMP JUMPDEST PUSH1 0x5 PUSH0 DUP2 SLOAD DUP1 SWAP3 SWAP2 SWAP1 PUSH2 0x3FDA SWAP1 PUSH2 0x4F06 JUMP JUMPDEST SWAP2 SWAP1 POP SSTORE POP PUSH0 PUSH1 0xC PUSH0 PUSH1 0x5 SLOAD DUP2 MSTORE PUSH1 0x20 ADD SWAP1 DUP2 MSTORE PUSH1 0x20 ADD PUSH0 KECCAK256 PUSH1 0x40 MLOAD DUP1 PUSH1 0x80 ADD PUSH1 0x40 MSTORE SWAP1 DUP2 PUSH0 DUP3 ADD SLOAD DUP2 MSTORE PUSH1 0x20 ADD PUSH1 0x1 DUP3 ADD PUSH0 SWAP1 SLOAD SWAP1 PUSH2 0x100 EXP SWAP1 DIV PUSH20 0xFFFFFFFFFFFFFFFFFFFFFFFFFFFFFFFFFFFFFFFF AND PUSH20 0xFFFFFFFFFFFFFFFFFFFFFFFFFFFFFFFFFFFFFFFF AND PUSH20 0xFFFFFFFFFFFFFFFFFFFFFFFFFFFFFFFFFFFFFFFF AND DUP2 MSTORE PUSH1 0x20 ADD PUSH1 0x2 DUP3 ADD PUSH0 SWAP1 SLOAD SWAP1 PUSH2 0x100 EXP SWAP1 DIV PUSH20 0xFFFFFFFFFFFFFFFFFFFFFFFFFFFFFFFFFFFFFFFF AND PUSH20 0xFFFFFFFFFFFFFFFFFFFFFFFFFFFFFFFFFFFFFFFF AND PUSH20 0xFFFFFFFFFFFFFFFFFFFFFFFFFFFFFFFFFFFFFFFF AND DUP2 MSTORE PUSH1 0x20 ADD PUSH1 0x3 DUP3 ADD DUP1 SLOAD DUP1 PUSH1 0x20 MUL PUSH1 0x20 ADD PUSH1 0x40 MLOAD SWAP1 DUP2 ADD PUSH1 0x40 MSTORE DUP1 SWAP3 SWAP2 SWAP1 DUP2 DUP2 MSTORE PUSH1 0x20 ADD DUP3 DUP1 SLOAD DUP1 ISZERO PUSH2 0x40FE JUMPI PUSH1 0x20 MUL DUP3 ADD SWAP2 SWAP1 PUSH0 MSTORE PUSH1 0x20 PUSH0 KECCAK256 SWAP1 JUMPDEST DUP2 SLOAD DUP2 MSTORE PUSH1 0x20 ADD SWAP1 PUSH1 0x1 ADD SWAP1 DUP1 DUP4 GT PUSH2 0x40EA JUMPI JUMPDEST POP POP POP POP POP DUP2 MSTORE POP POP SWAP1 POP PUSH1 0x40 MLOAD DUP1 PUSH1 0x80 ADD PUSH1 0x40 MSTORE DUP1 PUSH1 0x5 SLOAD DUP2 MSTORE PUSH1 0x20 ADD DUP7 PUSH20 0xFFFFFFFFFFFFFFFFFFFFFFFFFFFFFFFFFFFFFFFF AND DUP2 MSTORE PUSH1 0x20 ADD DUP6 PUSH20 0xFFFFFFFFFFFFFFFFFFFFFFFFFFFFFFFFFFFFFFFF AND DUP2 MSTORE PUSH1 0x20 ADD DUP3 PUSH1 0x60 ADD MLOAD DUP2 MSTORE POP PUSH1 0xC PUSH0 PUSH1 0x5 SLOAD DUP2 MSTORE PUSH1 0x20 ADD SWAP1 DUP2 MSTORE PUSH1 0x20 ADD PUSH0 KECCAK256 PUSH0 DUP3 ADD MLOAD DUP2 PUSH0 ADD SSTORE PUSH1 0x20 DUP3 ADD MLOAD DUP2 PUSH1 0x1 ADD PUSH0 PUSH2 0x100 EXP DUP2 SLOAD DUP2 PUSH20 0xFFFFFFFFFFFFFFFFFFFFFFFFFFFFFFFFFFFFFFFF MUL NOT AND SWAP1 DUP4 PUSH20 0xFFFFFFFFFFFFFFFFFFFFFFFFFFFFFFFFFFFFFFFF AND MUL OR SWAP1 SSTORE POP PUSH1 0x40 DUP3 ADD MLOAD DUP2 PUSH1 0x2 ADD PUSH0 PUSH2 0x100 EXP DUP2 SLOAD DUP2 PUSH20 0xFFFFFFFFFFFFFFFFFFFFFFFFFFFFFFFFFFFFFFFF MUL NOT AND SWAP1 DUP4 PUSH20 0xFFFFFFFFFFFFFFFFFFFFFFFFFFFFFFFFFFFFFFFF AND MUL OR SWAP1 SSTORE POP PUSH1 0x60 DUP3 ADD MLOAD DUP2 PUSH1 0x3 ADD SWAP1 DUP1 MLOAD SWAP1 PUSH1 0x20 ADD SWAP1 PUSH2 0x421F SWAP3 SWAP2 SWAP1 PUSH2 0x4231 JUMP JUMPDEST POP SWAP1 POP POP PUSH1 0x5 SLOAD SWAP3 POP POP POP JUMPDEST SWAP3 SWAP2 POP POP JUMP JUMPDEST DUP3 DUP1 SLOAD DUP3 DUP3 SSTORE SWAP1 PUSH0 MSTORE PUSH1 0x20 PUSH0 KECCAK256 SWAP1 DUP2 ADD SWAP3 DUP3 ISZERO PUSH2 0x426B JUMPI SWAP2 PUSH1 0x20 MUL DUP3 ADD JUMPDEST DUP3 DUP2 GT ISZERO PUSH2 0x426A JUMPI DUP3 MLOAD DUP3 SSTORE SWAP2 PUSH1 0x20 ADD SWAP2 SWAP1 PUSH1 0x1 ADD SWAP1 PUSH2 0x424F JUMP JUMPDEST JUMPDEST POP SWAP1 POP PUSH2 0x4278 SWAP2 SWAP1 PUSH2 0x427C JUMP JUMPDEST POP SWAP1 JUMP JUMPDEST JUMPDEST DUP1 DUP3 GT ISZERO PUSH2 0x4293 JUMPI PUSH0 DUP2 PUSH0 SWAP1 SSTORE POP PUSH1 0x1 ADD PUSH2 0x427D JUMP JUMPDEST POP SWAP1 JUMP JUMPDEST PUSH0 DUP1 REVERT JUMPDEST PUSH0 PUSH20 0xFFFFFFFFFFFFFFFFFFFFFFFFFFFFFFFFFFFFFFFF DUP3 AND SWAP1 POP SWAP2 SWAP1 POP JUMP JUMPDEST PUSH0 PUSH2 0x42C4 DUP3 PUSH2 0x429B JUMP JUMPDEST SWAP1 POP SWAP2 SWAP1 POP JUMP JUMPDEST PUSH2 0x42D4 DUP2 PUSH2 0x42BA JUMP JUMPDEST DUP2 EQ PUSH2 0x42DE JUMPI PUSH0 DUP1 REVERT JUMPDEST POP JUMP JUMPDEST PUSH0 DUP2 CALLDATALOAD SWAP1 POP PUSH2 0x42EF DUP2 PUSH2 0x42CB JUMP JUMPDEST SWAP3 SWAP2 POP POP JUMP JUMPDEST PUSH0 DUP2 SWAP1 POP SWAP2 SWAP1 POP JUMP JUMPDEST PUSH2 0x4307 DUP2 PUSH2 0x42F5 JUMP JUMPDEST DUP2 EQ PUSH2 0x4311 JUMPI PUSH0 DUP1 REVERT JUMPDEST POP JUMP JUMPDEST PUSH0 DUP2 CALLDATALOAD SWAP1 POP PUSH2 0x4322 DUP2 PUSH2 0x42FE JUMP JUMPDEST SWAP3 SWAP2 POP POP JUMP JUMPDEST PUSH0 DUP1 PUSH0 DUP1 PUSH1 0x80 DUP6 DUP8 SUB SLT ISZERO PUSH2 0x4340 JUMPI PUSH2 0x433F PUSH2 0x4297 JUMP JUMPDEST JUMPDEST PUSH0 PUSH2 0x434D DUP8 DUP3 DUP9 ADD PUSH2 0x42E1 JUMP JUMPDEST SWAP5 POP POP PUSH1 0x20 PUSH2 0x435E DUP8 DUP3 DUP9 ADD PUSH2 0x4314 JUMP JUMPDEST SWAP4 POP POP PUSH1 0x40 PUSH2 0x436F DUP8 DUP3 DUP9 ADD PUSH2 0x4314 JUMP JUMPDEST SWAP3 POP POP PUSH1 0x60 PUSH2 0x4380 DUP8 DUP3 DUP9 ADD PUSH2 0x42E1 JUMP JUMPDEST SWAP2 POP POP SWAP3 SWAP6 SWAP2 SWAP5 POP SWAP3 POP JUMP JUMPDEST PUSH2 0x4395 DUP2 PUSH2 0x42F5 JUMP JUMPDEST DUP3 MSTORE POP POP JUMP JUMPDEST PUSH0 PUSH1 0x20 DUP3 ADD SWAP1 POP PUSH2 0x43AE PUSH0 DUP4 ADD DUP5 PUSH2 0x438C JUMP JUMPDEST SWAP3 SWAP2 POP POP JUMP JUMPDEST PUSH0 PUSH1 0x20 DUP3 DUP5 SUB SLT ISZERO PUSH2 0x43C9 JUMPI PUSH2 0x43C8 PUSH2 0x4297 JUMP JUMPDEST JUMPDEST PUSH0 PUSH2 0x43D6 DUP5 DUP3 DUP6 ADD PUSH2 0x42E1 JUMP JUMPDEST SWAP2 POP POP SWAP3 SWAP2 POP POP JUMP JUMPDEST PUSH0 DUP2 ISZERO ISZERO SWAP1 POP SWAP2 SWAP1 POP JUMP JUMPDEST PUSH2 0x43F3 DUP2 PUSH2 0x43DF JUMP JUMPDEST DUP3 MSTORE POP POP JUMP JUMPDEST PUSH0 PUSH1 0x80 DUP3 ADD SWAP1 POP PUSH2 0x440C PUSH0 DUP4 ADD DUP8 PUSH2 0x438C JUMP JUMPDEST PUSH2 0x4419 PUSH1 0x20 DUP4 ADD DUP7 PUSH2 0x438C JUMP JUMPDEST PUSH2 0x4426 PUSH1 0x40 DUP4 ADD DUP6 PUSH2 0x438C JUMP JUMPDEST PUSH2 0x4433 PUSH1 0x60 DUP4 ADD DUP5 PUSH2 0x43EA JUMP JUMPDEST SWAP6 SWAP5 POP POP POP POP POP JUMP JUMPDEST PUSH0 DUP1 PUSH0 DUP1 PUSH1 0x80 DUP6 DUP8 SUB SLT ISZERO PUSH2 0x4454 JUMPI PUSH2 0x4453 PUSH2 0x4297 JUMP JUMPDEST JUMPDEST PUSH0 PUSH2 0x4461 DUP8 DUP3 DUP9 ADD PUSH2 0x42E1 JUMP JUMPDEST SWAP5 POP POP PUSH1 0x20 PUSH2 0x4472 DUP8 DUP3 DUP9 ADD PUSH2 0x42E1 JUMP JUMPDEST SWAP4 POP POP PUSH1 0x40 PUSH2 0x4483 DUP8 DUP3 DUP9 ADD PUSH2 0x4314 JUMP JUMPDEST SWAP3 POP POP PUSH1 0x60 PUSH2 0x4494 DUP8 DUP3 DUP9 ADD PUSH2 0x42E1 JUMP JUMPDEST SWAP2 POP POP SWAP3 SWAP6 SWAP2 SWAP5 POP SWAP3 POP JUMP JUMPDEST PUSH0 DUP2 SWAP1 POP SWAP2 SWAP1 POP JUMP JUMPDEST PUSH2 0x44B2 DUP2 PUSH2 0x44A0 JUMP JUMPDEST DUP3 MSTORE POP POP JUMP JUMPDEST PUSH0 PUSH1 0x20 DUP3 ADD SWAP1 POP PUSH2 0x44CB PUSH0 DUP4 ADD DUP5 PUSH2 0x44A9 JUMP JUMPDEST SWAP3 SWAP2 POP POP JUMP JUMPDEST PUSH2 0x44DA DUP2 PUSH2 0x42BA JUMP JUMPDEST DUP3 MSTORE POP POP JUMP JUMPDEST PUSH0 PUSH1 0x20 DUP3 ADD SWAP1 POP PUSH2 0x44F3 PUSH0 DUP4 ADD DUP5 PUSH2 0x44D1 JUMP JUMPDEST SWAP3 SWAP2 POP POP JUMP JUMPDEST PUSH0 PUSH1 0xFF DUP3 AND SWAP1 POP SWAP2 SWAP1 POP JUMP JUMPDEST PUSH2 0x450E DUP2 PUSH2 0x44F9 JUMP JUMPDEST DUP2 EQ PUSH2 0x4518 JUMPI PUSH0 DUP1 REVERT JUMPDEST POP JUMP JUMPDEST PUSH0 DUP2 CALLDATALOAD SWAP1 POP PUSH2 0x4529 DUP2 PUSH2 0x4505 JUMP JUMPDEST SWAP3 SWAP2 POP POP JUMP JUMPDEST PUSH0 DUP1 PUSH1 0x40 DUP4 DUP6 SUB SLT ISZERO PUSH2 0x4545 JUMPI PUSH2 0x4544 PUSH2 0x4297 JUMP JUMPDEST JUMPDEST PUSH0 PUSH2 0x4552 DUP6 DUP3 DUP7 ADD PUSH2 0x42E1 JUMP JUMPDEST SWAP3 POP POP PUSH1 0x20 PUSH2 0x4563 DUP6 DUP3 DUP7 ADD PUSH2 0x451B JUMP JUMPDEST SWAP2 POP POP SWAP3 POP SWAP3 SWAP1 POP JUMP JUMPDEST PUSH0 PUSH8 0xFFFFFFFFFFFFFFFF DUP3 AND SWAP1 POP SWAP2 SWAP1 POP JUMP JUMPDEST PUSH2 0x4589 DUP2 PUSH2 0x456D JUMP JUMPDEST DUP3 MSTORE POP POP JUMP JUMPDEST PUSH0 PUSH1 0x20 DUP3 ADD SWAP1 POP PUSH2 0x45A2 PUSH0 DUP4 ADD DUP5 PUSH2 0x4580 JUMP JUMPDEST SWAP3 SWAP2 POP POP JUMP JUMPDEST PUSH2 0x45B1 DUP2 PUSH2 0x43DF JUMP JUMPDEST DUP2 EQ PUSH2 0x45BB JUMPI PUSH0 DUP1 REVERT JUMPDEST POP JUMP JUMPDEST PUSH0 DUP2 CALLDATALOAD SWAP1 POP PUSH2 0x45CC DUP2 PUSH2 0x45A8 JUMP JUMPDEST SWAP3 SWAP2 POP POP JUMP JUMPDEST PUSH0 PUSH1 0x20 DUP3 DUP5 SUB SLT ISZERO PUSH2 0x45E7 JUMPI PUSH2 0x45E6 PUSH2 0x4297 JUMP JUMPDEST JUMPDEST PUSH0 PUSH2 0x45F4 DUP5 DUP3 DUP6 ADD PUSH2 0x45BE JUMP JUMPDEST SWAP2 POP POP SWAP3 SWAP2 POP POP JUMP JUMPDEST PUSH0 DUP1 PUSH1 0x40 DUP4 DUP6 SUB SLT ISZERO PUSH2 0x4613 JUMPI PUSH2 0x4612 PUSH2 0x4297 JUMP JUMPDEST JUMPDEST PUSH0 PUSH2 0x4620 DUP6 DUP3 DUP7 ADD PUSH2 0x4314 JUMP JUMPDEST SWAP3 POP POP PUSH1 0x20 PUSH2 0x4631 DUP6 DUP3 DUP7 ADD PUSH2 0x42E1 JUMP JUMPDEST SWAP2 POP POP SWAP3 POP SWAP3 SWAP1 POP JUMP JUMPDEST PUSH0 DUP1 PUSH1 0x40 DUP4 DUP6 SUB SLT ISZERO PUSH2 0x4651 JUMPI PUSH2 0x4650 PUSH2 0x4297 JUMP JUMPDEST JUMPDEST PUSH0 PUSH2 0x465E DUP6 DUP3 DUP7 ADD PUSH2 0x4314 JUMP JUMPDEST SWAP3 POP POP PUSH1 0x20 PUSH2 0x466F DUP6 DUP3 DUP7 ADD PUSH2 0x4314 JUMP JUMPDEST SWAP2 POP POP SWAP3 POP SWAP3 SWAP1 POP JUMP JUMPDEST PUSH2 0x4682 DUP2 PUSH2 0x456D JUMP JUMPDEST DUP2 EQ PUSH2 0x468C JUMPI PUSH0 DUP1 REVERT JUMPDEST POP JUMP JUMPDEST PUSH0 DUP2 CALLDATALOAD SWAP1 POP PUSH2 0x469D DUP2 PUSH2 0x4679 JUMP JUMPDEST SWAP3 SWAP2 POP POP JUMP JUMPDEST PUSH0 PUSH1 0x20 DUP3 DUP5 SUB SLT ISZERO PUSH2 0x46B8 JUMPI PUSH2 0x46B7 PUSH2 0x4297 JUMP JUMPDEST JUMPDEST PUSH0 PUSH2 0x46C5 DUP5 DUP3 DUP6 ADD PUSH2 0x468F JUMP JUMPDEST SWAP2 POP POP SWAP3 SWAP2 POP POP JUMP JUMPDEST PUSH0 PUSH1 0x20 DUP3 DUP5 SUB SLT ISZERO PUSH2 0x46E3 JUMPI PUSH2 0x46E2 PUSH2 0x4297 JUMP JUMPDEST JUMPDEST PUSH0 PUSH2 0x46F0 DUP5 DUP3 DUP6 ADD PUSH2 0x4314 JUMP JUMPDEST SWAP2 POP POP SWAP3 SWAP2 POP POP JUMP JUMPDEST PUSH0 PUSH1 0x60 DUP3 ADD SWAP1 POP PUSH2 0x470C PUSH0 DUP4 ADD DUP7 PUSH2 0x438C JUMP JUMPDEST PUSH2 0x4719 PUSH1 0x20 DUP4 ADD DUP6 PUSH2 0x44D1 JUMP JUMPDEST PUSH2 0x4726 PUSH1 0x40 DUP4 ADD DUP5 PUSH2 0x44D1 JUMP JUMPDEST SWAP5 SWAP4 POP POP POP POP JUMP JUMPDEST PUSH0 DUP2 MLOAD SWAP1 POP SWAP2 SWAP1 POP JUMP JUMPDEST PUSH0 DUP3 DUP3 MSTORE PUSH1 0x20 DUP3 ADD SWAP1 POP SWAP3 SWAP2 POP POP JUMP JUMPDEST PUSH0 DUP2 SWAP1 POP PUSH1 0x20 DUP3 ADD SWAP1 POP SWAP2 SWAP1 POP JUMP JUMPDEST PUSH2 0x4760 DUP2 PUSH2 0x42F5 JUMP JUMPDEST DUP3 MSTORE POP POP JUMP JUMPDEST PUSH0 PUSH2 0x4771 DUP4 DUP4 PUSH2 0x4757 JUMP JUMPDEST PUSH1 0x20 DUP4 ADD SWAP1 POP SWAP3 SWAP2 POP POP JUMP JUMPDEST PUSH0 PUSH1 0x20 DUP3 ADD SWAP1 POP SWAP2 SWAP1 POP JUMP JUMPDEST PUSH0 PUSH2 0x4793 DUP3 PUSH2 0x472E JUMP JUMPDEST PUSH2 0x479D DUP2 DUP6 PUSH2 0x4738 JUMP JUMPDEST SWAP4 POP PUSH2 0x47A8 DUP4 PUSH2 0x4748 JUMP JUMPDEST DUP1 PUSH0 JUMPDEST DUP4 DUP2 LT ISZERO PUSH2 0x47D8 JUMPI DUP2 MLOAD PUSH2 0x47BF DUP9 DUP3 PUSH2 0x4766 JUMP JUMPDEST SWAP8 POP PUSH2 0x47CA DUP4 PUSH2 0x477D JUMP JUMPDEST SWAP3 POP POP PUSH1 0x1 DUP2 ADD SWAP1 POP PUSH2 0x47AB JUMP JUMPDEST POP DUP6 SWAP4 POP POP POP POP SWAP3 SWAP2 POP POP JUMP JUMPDEST PUSH0 PUSH1 0x80 DUP3 ADD SWAP1 POP DUP2 DUP2 SUB PUSH0 DUP4 ADD MSTORE PUSH2 0x47FD DUP2 DUP8 PUSH2 0x4789 JUMP JUMPDEST SWAP1 POP DUP2 DUP2 SUB PUSH1 0x20 DUP4 ADD MSTORE PUSH2 0x4811 DUP2 DUP7 PUSH2 0x4789 JUMP JUMPDEST SWAP1 POP DUP2 DUP2 SUB PUSH1 0x40 DUP4 ADD MSTORE PUSH2 0x4825 DUP2 DUP6 PUSH2 0x4789 JUMP JUMPDEST SWAP1 POP DUP2 DUP2 SUB PUSH1 0x60 DUP4 ADD MSTORE PUSH2 0x4839 DUP2 DUP5 PUSH2 0x4789 JUMP JUMPDEST SWAP1 POP SWAP6 SWAP5 POP POP POP POP POP JUMP JUMPDEST PUSH0 DUP1 PUSH0 PUSH1 0x60 DUP5 DUP7 SUB SLT ISZERO PUSH2 0x485B JUMPI PUSH2 0x485A PUSH2 0x4297 JUMP JUMPDEST JUMPDEST PUSH0 PUSH2 0x4868 DUP7 DUP3 DUP8 ADD PUSH2 0x468F JUMP JUMPDEST SWAP4 POP POP PUSH1 0x20 PUSH2 0x4879 DUP7 DUP3 DUP8 ADD PUSH2 0x468F JUMP JUMPDEST SWAP3 POP POP PUSH1 0x40 PUSH2 0x488A DUP7 DUP3 DUP8 ADD PUSH2 0x4314 JUMP JUMPDEST SWAP2 POP POP SWAP3 POP SWAP3 POP SWAP3 JUMP JUMPDEST PUSH0 DUP1 PUSH0 PUSH1 0x60 DUP5 DUP7 SUB SLT ISZERO PUSH2 0x48AB JUMPI PUSH2 0x48AA PUSH2 0x4297 JUMP JUMPDEST JUMPDEST PUSH0 PUSH2 0x48B8 DUP7 DUP3 DUP8 ADD PUSH2 0x42E1 JUMP JUMPDEST SWAP4 POP POP PUSH1 0x20 PUSH2 0x48C9 DUP7 DUP3 DUP8 ADD PUSH2 0x42E1 JUMP JUMPDEST SWAP3 POP POP PUSH1 0x40 PUSH2 0x48DA DUP7 DUP3 DUP8 ADD PUSH2 0x4314 JUMP JUMPDEST SWAP2 POP POP SWAP3 POP SWAP3 POP SWAP3 JUMP JUMPDEST PUSH0 DUP1 PUSH1 0x40 DUP4 DUP6 SUB SLT ISZERO PUSH2 0x48FA JUMPI PUSH2 0x48F9 PUSH2 0x4297 JUMP JUMPDEST JUMPDEST PUSH0 PUSH2 0x4907 DUP6 DUP3 DUP7 ADD PUSH2 0x42E1 JUMP JUMPDEST SWAP3 POP POP PUSH1 0x20 PUSH2 0x4918 DUP6 DUP3 DUP7 ADD PUSH2 0x42E1 JUMP JUMPDEST SWAP2 POP POP SWAP3 POP SWAP3 SWAP1 POP JUMP JUMPDEST PUSH0 PUSH1 0x40 DUP3 ADD SWAP1 POP PUSH2 0x4935 PUSH0 DUP4 ADD DUP6 PUSH2 0x438C JUMP JUMPDEST PUSH2 0x4942 PUSH1 0x20 DUP4 ADD DUP5 PUSH2 0x438C JUMP JUMPDEST SWAP4 SWAP3 POP POP POP JUMP JUMPDEST PUSH0 PUSH1 0xA0 DUP3 ADD SWAP1 POP PUSH2 0x495C PUSH0 DUP4 ADD DUP9 PUSH2 0x438C JUMP JUMPDEST PUSH2 0x4969 PUSH1 0x20 DUP4 ADD DUP8 PUSH2 0x438C JUMP JUMPDEST PUSH2 0x4976 PUSH1 0x40 DUP4 ADD DUP7 PUSH2 0x438C JUMP JUMPDEST PUSH2 0x4983 PUSH1 0x60 DUP4 ADD DUP6 PUSH2 0x438C JUMP JUMPDEST PUSH2 0x4990 PUSH1 0x80 DUP4 ADD DUP5 PUSH2 0x44D1 JUMP JUMPDEST SWAP7 SWAP6 POP POP POP POP POP POP JUMP JUMPDEST PUSH32 0x4E487B7100000000000000000000000000000000000000000000000000000000 PUSH0 MSTORE PUSH1 0x12 PUSH1 0x4 MSTORE PUSH1 0x24 PUSH0 REVERT JUMPDEST PUSH32 0x4E487B7100000000000000000000000000000000000000000000000000000000 PUSH0 MSTORE PUSH1 0x11 PUSH1 0x4 MSTORE PUSH1 0x24 PUSH0 REVERT JUMPDEST PUSH0 PUSH2 0x49FE DUP3 PUSH2 0x42F5 JUMP JUMPDEST SWAP2 POP PUSH2 0x4A09 DUP4 PUSH2 0x42F5 JUMP JUMPDEST SWAP3 POP DUP3 PUSH2 0x4A19 JUMPI PUSH2 0x4A18 PUSH2 0x499A JUMP JUMPDEST JUMPDEST DUP3 DUP3 DIV SWAP1 POP SWAP3 SWAP2 POP POP JUMP JUMPDEST PUSH0 PUSH2 0x4A2E DUP3 PUSH2 0x42F5 JUMP JUMPDEST SWAP2 POP PUSH2 0x4A39 DUP4 PUSH2 0x42F5 JUMP JUMPDEST SWAP3 POP DUP3 DUP3 MUL PUSH2 0x4A47 DUP2 PUSH2 0x42F5 JUMP JUMPDEST SWAP2 POP DUP3 DUP3 DIV DUP5 EQ DUP4 ISZERO OR PUSH2 0x4A5E JUMPI PUSH2 0x4A5D PUSH2 0x49C7 JUMP JUMPDEST JUMPDEST POP SWAP3 SWAP2 POP POP JUMP JUMPDEST PUSH0 PUSH1 0x60 DUP3 ADD SWAP1 POP PUSH2 0x4A78 PUSH0 DUP4 ADD DUP7 PUSH2 0x44D1 JUMP JUMPDEST PUSH2 0x4A85 PUSH1 0x20 DUP4 ADD DUP6 PUSH2 0x44D1 JUMP JUMPDEST PUSH2 0x4A92 PUSH1 0x40 DUP4 ADD DUP5 PUSH2 0x438C JUMP JUMPDEST SWAP5 SWAP4 POP POP POP POP JUMP JUMPDEST PUSH0 DUP2 MLOAD SWAP1 POP PUSH2 0x4AA8 DUP2 PUSH2 0x45A8 JUMP JUMPDEST SWAP3 SWAP2 POP POP JUMP JUMPDEST PUSH0 PUSH1 0x20 DUP3 DUP5 SUB SLT ISZERO PUSH2 0x4AC3 JUMPI PUSH2 0x4AC2 PUSH2 0x4297 JUMP JUMPDEST JUMPDEST PUSH0 PUSH2 0x4AD0 DUP5 DUP3 DUP6 ADD PUSH2 0x4A9A JUMP JUMPDEST SWAP2 POP POP SWAP3 SWAP2 POP POP JUMP JUMPDEST PUSH0 DUP3 DUP3 MSTORE PUSH1 0x20 DUP3 ADD SWAP1 POP SWAP3 SWAP2 POP POP JUMP JUMPDEST PUSH32 0x436F6E74726163743A20496E73756666696369656E742042616C616E63650000 PUSH0 DUP3 ADD MSTORE POP JUMP JUMPDEST PUSH0 PUSH2 0x4B1D PUSH1 0x1E DUP4 PUSH2 0x4AD9 JUMP JUMPDEST SWAP2 POP PUSH2 0x4B28 DUP3 PUSH2 0x4AE9 JUMP JUMPDEST PUSH1 0x20 DUP3 ADD SWAP1 POP SWAP2 SWAP1 POP JUMP JUMPDEST PUSH0 PUSH1 0x20 DUP3 ADD SWAP1 POP DUP2 DUP2 SUB PUSH0 DUP4 ADD MSTORE PUSH2 0x4B4A DUP2 PUSH2 0x4B11 JUMP JUMPDEST SWAP1 POP SWAP2 SWAP1 POP JUMP JUMPDEST PUSH0 PUSH2 0x4B5B DUP3 PUSH2 0x42F5 JUMP JUMPDEST SWAP2 POP PUSH2 0x4B66 DUP4 PUSH2 0x42F5 JUMP JUMPDEST SWAP3 POP DUP3 DUP3 SUB SWAP1 POP DUP2 DUP2 GT ISZERO PUSH2 0x4B7E JUMPI PUSH2 0x4B7D PUSH2 0x49C7 JUMP JUMPDEST JUMPDEST SWAP3 SWAP2 POP POP JUMP JUMPDEST PUSH32 0x416D6F756E7420746F20737761702063616E6E6F74206265206C657373657220 PUSH0 DUP3 ADD MSTORE PUSH32 0x7468616E20313030205745490000000000000000000000000000000000000000 PUSH1 0x20 DUP3 ADD MSTORE POP JUMP JUMPDEST PUSH0 PUSH2 0x4BDE PUSH1 0x2C DUP4 PUSH2 0x4AD9 JUMP JUMPDEST SWAP2 POP PUSH2 0x4BE9 DUP3 PUSH2 0x4B84 JUMP JUMPDEST PUSH1 0x40 DUP3 ADD SWAP1 POP SWAP2 SWAP1 POP JUMP JUMPDEST PUSH0 PUSH1 0x20 DUP3 ADD SWAP1 POP DUP2 DUP2 SUB PUSH0 DUP4 ADD MSTORE PUSH2 0x4C0B DUP2 PUSH2 0x4BD2 JUMP JUMPDEST SWAP1 POP SWAP2 SWAP1 POP JUMP JUMPDEST PUSH32 0x506F6F6C20646F6573206E6F7420657869737473000000000000000000000000 PUSH0 DUP3 ADD MSTORE POP JUMP JUMPDEST PUSH0 PUSH2 0x4C46 PUSH1 0x14 DUP4 PUSH2 0x4AD9 JUMP JUMPDEST SWAP2 POP PUSH2 0x4C51 DUP3 PUSH2 0x4C12 JUMP JUMPDEST PUSH1 0x20 DUP3 ADD SWAP1 POP SWAP2 SWAP1 POP JUMP JUMPDEST PUSH0 PUSH1 0x20 DUP3 ADD SWAP1 POP DUP2 DUP2 SUB PUSH0 DUP4 ADD MSTORE PUSH2 0x4C73 DUP2 PUSH2 0x4C3A JUMP JUMPDEST SWAP1 POP SWAP2 SWAP1 POP JUMP JUMPDEST PUSH32 0x496E73756666696369656E7420506F6F6C2053697A6500000000000000000000 PUSH0 DUP3 ADD MSTORE POP JUMP JUMPDEST PUSH0 PUSH2 0x4CAE PUSH1 0x16 DUP4 PUSH2 0x4AD9 JUMP JUMPDEST SWAP2 POP PUSH2 0x4CB9 DUP3 PUSH2 0x4C7A JUMP JUMPDEST PUSH1 0x20 DUP3 ADD SWAP1 POP SWAP2 SWAP1 POP JUMP JUMPDEST PUSH0 PUSH1 0x20 DUP3 ADD SWAP1 POP DUP2 DUP2 SUB PUSH0 DUP4 ADD MSTORE PUSH2 0x4CDB DUP2 PUSH2 0x4CA2 JUMP JUMPDEST SWAP1 POP SWAP2 SWAP1 POP JUMP JUMPDEST PUSH0 PUSH2 0x4CEC DUP3 PUSH2 0x42F5 JUMP JUMPDEST SWAP2 POP PUSH2 0x4CF7 DUP4 PUSH2 0x42F5 JUMP JUMPDEST SWAP3 POP DUP3 DUP3 ADD SWAP1 POP DUP1 DUP3 GT ISZERO PUSH2 0x4D0F JUMPI PUSH2 0x4D0E PUSH2 0x49C7 JUMP JUMPDEST JUMPDEST SWAP3 SWAP2 POP POP JUMP JUMPDEST PUSH0 PUSH1 0xA0 DUP3 ADD SWAP1 POP PUSH2 0x4D28 PUSH0 DUP4 ADD DUP9 PUSH2 0x438C JUMP JUMPDEST PUSH2 0x4D35 PUSH1 0x20 DUP4 ADD DUP8 PUSH2 0x438C JUMP JUMPDEST PUSH2 0x4D42 PUSH1 0x40 DUP4 ADD DUP7 PUSH2 0x44D1 JUMP JUMPDEST PUSH2 0x4D4F PUSH1 0x60 DUP4 ADD DUP6 PUSH2 0x44D1 JUMP JUMPDEST PUSH2 0x4D5C PUSH1 0x80 DUP4 ADD DUP5 PUSH2 0x438C JUMP JUMPDEST SWAP7 SWAP6 POP POP POP POP POP POP JUMP JUMPDEST PUSH32 0x4F6E6C79204465706C6F79657200000000000000000000000000000000000000 PUSH0 DUP3 ADD MSTORE POP JUMP JUMPDEST PUSH0 PUSH2 0x4D9A PUSH1 0xD DUP4 PUSH2 0x4AD9 JUMP JUMPDEST SWAP2 POP PUSH2 0x4DA5 DUP3 PUSH2 0x4D66 JUMP JUMPDEST PUSH1 0x20 DUP3 ADD SWAP1 POP SWAP2 SWAP1 POP JUMP JUMPDEST PUSH0 PUSH1 0x20 DUP3 ADD SWAP1 POP DUP2 DUP2 SUB PUSH0 DUP4 ADD MSTORE PUSH2 0x4DC7 DUP2 PUSH2 0x4D8E JUMP JUMPDEST SWAP1 POP SWAP2 SWAP1 POP JUMP JUMPDEST PUSH32 0x496E76616C696420546F6B656E20416464726573730000000000000000000000 PUSH0 DUP3 ADD MSTORE POP JUMP JUMPDEST PUSH0 PUSH2 0x4E02 PUSH1 0x15 DUP4 PUSH2 0x4AD9 JUMP JUMPDEST SWAP2 POP PUSH2 0x4E0D DUP3 PUSH2 0x4DCE JUMP JUMPDEST PUSH1 0x20 DUP3 ADD SWAP1 POP SWAP2 SWAP1 POP JUMP JUMPDEST PUSH0 PUSH1 0x20 DUP3 ADD SWAP1 POP DUP2 DUP2 SUB PUSH0 DUP4 ADD MSTORE PUSH2 0x4E2F DUP2 PUSH2 0x4DF6 JUMP JUMPDEST SWAP1 POP SWAP2 SWAP1 POP JUMP JUMPDEST PUSH32 0x4F6E6C792050726F766964657200000000000000000000000000000000000000 PUSH0 DUP3 ADD MSTORE POP JUMP JUMPDEST PUSH0 PUSH2 0x4E6A PUSH1 0xD DUP4 PUSH2 0x4AD9 JUMP JUMPDEST SWAP2 POP PUSH2 0x4E75 DUP3 PUSH2 0x4E36 JUMP JUMPDEST PUSH1 0x20 DUP3 ADD SWAP1 POP SWAP2 SWAP1 POP JUMP JUMPDEST PUSH0 PUSH1 0x20 DUP3 ADD SWAP1 POP DUP2 DUP2 SUB PUSH0 DUP4 ADD MSTORE PUSH2 0x4E97 DUP2 PUSH2 0x4E5E JUMP JUMPDEST SWAP1 POP SWAP2 SWAP1 POP JUMP JUMPDEST PUSH32 0x4F6E6C7920477565737400000000000000000000000000000000000000000000 PUSH0 DUP3 ADD MSTORE POP JUMP JUMPDEST PUSH0 PUSH2 0x4ED2 PUSH1 0xA DUP4 PUSH2 0x4AD9 JUMP JUMPDEST SWAP2 POP PUSH2 0x4EDD DUP3 PUSH2 0x4E9E JUMP JUMPDEST PUSH1 0x20 DUP3 ADD SWAP1 POP SWAP2 SWAP1 POP JUMP JUMPDEST PUSH0 PUSH1 0x20 DUP3 ADD SWAP1 POP DUP2 DUP2 SUB PUSH0 DUP4 ADD MSTORE PUSH2 0x4EFF DUP2 PUSH2 0x4EC6 JUMP JUMPDEST SWAP1 POP SWAP2 SWAP1 POP JUMP JUMPDEST PUSH0 PUSH2 0x4F10 DUP3 PUSH2 0x42F5 JUMP JUMPDEST SWAP2 POP PUSH32 0xFFFFFFFFFFFFFFFFFFFFFFFFFFFFFFFFFFFFFFFFFFFFFFFFFFFFFFFFFFFFFFFF DUP3 SUB PUSH2 0x4F42 JUMPI PUSH2 0x4F41 PUSH2 0x49C7 JUMP JUMPDEST JUMPDEST PUSH1 0x1 DUP3 ADD SWAP1 POP SWAP2 SWAP1 POP JUMP JUMPDEST PUSH32 0x496E76616C696420506169722041646472657373000000000000000000000000 PUSH0 DUP3 ADD MSTORE POP JUMP JUMPDEST PUSH0 PUSH2 0x4F81 PUSH1 0x14 DUP4 PUSH2 0x4AD9 JUMP JUMPDEST SWAP2 POP PUSH2 0x4F8C DUP3 PUSH2 0x4F4D JUMP JUMPDEST PUSH1 0x20 DUP3 ADD SWAP1 POP SWAP2 SWAP1 POP JUMP JUMPDEST PUSH0 PUSH1 0x20 DUP3 ADD SWAP1 POP DUP2 DUP2 SUB PUSH0 DUP4 ADD MSTORE PUSH2 0x4FAE DUP2 PUSH2 0x4F75 JUMP JUMPDEST SWAP1 POP SWAP2 SWAP1 POP JUMP JUMPDEST PUSH32 0x496E73756666696369656E742042616C616E6365000000000000000000000000 PUSH0 DUP3 ADD MSTORE POP JUMP JUMPDEST PUSH0 PUSH2 0x4FE9 PUSH1 0x14 DUP4 PUSH2 0x4AD9 JUMP JUMPDEST SWAP2 POP PUSH2 0x4FF4 DUP3 PUSH2 0x4FB5 JUMP JUMPDEST PUSH1 0x20 DUP3 ADD SWAP1 POP SWAP2 SWAP1 POP JUMP JUMPDEST PUSH0 PUSH1 0x20 DUP3 ADD SWAP1 POP DUP2 DUP2 SUB PUSH0 DUP4 ADD MSTORE PUSH2 0x5016 DUP2 PUSH2 0x4FDD JUMP JUMPDEST SWAP1 POP SWAP2 SWAP1 POP JUMP JUMPDEST PUSH0 PUSH1 0x40 DUP3 ADD SWAP1 POP PUSH2 0x5030 PUSH0 DUP4 ADD DUP6 PUSH2 0x44D1 JUMP JUMPDEST PUSH2 0x503D PUSH1 0x20 DUP4 ADD DUP5 PUSH2 0x438C JUMP JUMPDEST SWAP4 SWAP3 POP POP POP JUMP JUMPDEST PUSH32 0x416D6F756E742063616E6E6F74206265206C6573736572207468616E20313030 PUSH0 DUP3 ADD MSTORE PUSH32 0x2057454900000000000000000000000000000000000000000000000000000000 PUSH1 0x20 DUP3 ADD MSTORE POP JUMP JUMPDEST PUSH0 PUSH2 0x509E PUSH1 0x24 DUP4 PUSH2 0x4AD9 JUMP JUMPDEST SWAP2 POP PUSH2 0x50A9 DUP3 PUSH2 0x5044 JUMP JUMPDEST PUSH1 0x40 DUP3 ADD SWAP1 POP SWAP2 SWAP1 POP JUMP JUMPDEST PUSH0 PUSH1 0x20 DUP3 ADD SWAP1 POP DUP2 DUP2 SUB PUSH0 DUP4 ADD MSTORE PUSH2 0x50CB DUP2 PUSH2 0x5092 JUMP JUMPDEST SWAP1 POP SWAP2 SWAP1 POP JUMP JUMPDEST PUSH32 0x4D617469632063616E6E6F74206265206C6573736572207468616E20314F4F20 PUSH0 DUP3 ADD MSTORE PUSH32 0x5745490000000000000000000000000000000000000000000000000000000000 PUSH1 0x20 DUP3 ADD MSTORE POP JUMP JUMPDEST PUSH0 PUSH2 0x512C PUSH1 0x23 DUP4 PUSH2 0x4AD9 JUMP JUMPDEST SWAP2 POP PUSH2 0x5137 DUP3 PUSH2 0x50D2 JUMP JUMPDEST PUSH1 0x40 DUP3 ADD SWAP1 POP SWAP2 SWAP1 POP JUMP JUMPDEST PUSH0 PUSH1 0x20 DUP3 ADD SWAP1 POP DUP2 DUP2 SUB PUSH0 DUP4 ADD MSTORE PUSH2 0x5159 DUP2 PUSH2 0x5120 JUMP JUMPDEST SWAP1 POP SWAP2 SWAP1 POP JUMP JUMPDEST PUSH0 PUSH1 0xC0 DUP3 ADD SWAP1 POP PUSH2 0x5173 PUSH0 DUP4 ADD DUP10 PUSH2 0x44D1 JUMP JUMPDEST PUSH2 0x5180 PUSH1 0x20 DUP4 ADD DUP9 PUSH2 0x44D1 JUMP JUMPDEST PUSH2 0x518D PUSH1 0x40 DUP4 ADD DUP8 PUSH2 0x438C JUMP JUMPDEST PUSH2 0x519A PUSH1 0x60 DUP4 ADD DUP7 PUSH2 0x438C JUMP JUMPDEST PUSH2 0x51A7 PUSH1 0x80 DUP4 ADD DUP6 PUSH2 0x44D1 JUMP JUMPDEST PUSH2 0x51B4 PUSH1 0xA0 DUP4 ADD DUP5 PUSH2 0x438C JUMP JUMPDEST SWAP8 SWAP7 POP POP POP POP POP POP POP JUMP JUMPDEST PUSH32 0x556E617574686F72697A65640000000000000000000000000000000000000000 PUSH0 DUP3 ADD MSTORE POP JUMP JUMPDEST PUSH0 PUSH2 0x51F3 PUSH1 0xC DUP4 PUSH2 0x4AD9 JUMP JUMPDEST SWAP2 POP PUSH2 0x51FE DUP3 PUSH2 0x51BF JUMP JUMPDEST PUSH1 0x20 DUP3 ADD SWAP1 POP SWAP2 SWAP1 POP JUMP JUMPDEST PUSH0 PUSH1 0x20 DUP3 ADD SWAP1 POP DUP2 DUP2 SUB PUSH0 DUP4 ADD MSTORE PUSH2 0x5220 DUP2 PUSH2 0x51E7 JUMP JUMPDEST SWAP1 POP SWAP2 SWAP1 POP JUMP JUMPDEST PUSH32 0x4E487B7100000000000000000000000000000000000000000000000000000000 PUSH0 MSTORE PUSH1 0x32 PUSH1 0x4 MSTORE PUSH1 0x24 PUSH0 REVERT JUMPDEST PUSH32 0x506C6174666F726D206665652063616E6E6F74206265207A65726F0000000000 PUSH0 DUP3 ADD MSTORE POP JUMP JUMPDEST PUSH0 PUSH2 0x5288 PUSH1 0x1B DUP4 PUSH2 0x4AD9 JUMP JUMPDEST SWAP2 POP PUSH2 0x5293 DUP3 PUSH2 0x5254 JUMP JUMPDEST PUSH1 0x20 DUP3 ADD SWAP1 POP SWAP2 SWAP1 POP JUMP JUMPDEST PUSH0 PUSH1 0x20 DUP3 ADD SWAP1 POP DUP2 DUP2 SUB PUSH0 DUP4 ADD MSTORE PUSH2 0x52B5 DUP2 PUSH2 0x527C JUMP JUMPDEST SWAP1 POP SWAP2 SWAP1 POP JUMP JUMPDEST PUSH32 0x506C6174666F726D206665652063616E6E6F7420626520612068756E64726564 PUSH0 DUP3 ADD MSTORE POP JUMP JUMPDEST PUSH0 PUSH2 0x52F0 PUSH1 0x20 DUP4 PUSH2 0x4AD9 JUMP JUMPDEST SWAP2 POP PUSH2 0x52FB DUP3 PUSH2 0x52BC JUMP JUMPDEST PUSH1 0x20 DUP3 ADD SWAP1 POP SWAP2 SWAP1 POP JUMP JUMPDEST PUSH0 PUSH1 0x20 DUP3 ADD SWAP1 POP DUP2 DUP2 SUB PUSH0 DUP4 ADD MSTORE PUSH2 0x531D DUP2 PUSH2 0x52E4 JUMP JUMPDEST SWAP1 POP SWAP2 SWAP1 POP JUMP JUMPDEST PUSH32 0x4E487B7100000000000000000000000000000000000000000000000000000000 PUSH0 MSTORE PUSH1 0x41 PUSH1 0x4 MSTORE PUSH1 0x24 PUSH0 REVERT JUMPDEST PUSH0 PUSH1 0x40 DUP3 ADD SWAP1 POP PUSH2 0x5364 PUSH0 DUP4 ADD DUP6 PUSH2 0x4580 JUMP JUMPDEST PUSH2 0x5371 PUSH1 0x20 DUP4 ADD DUP5 PUSH2 0x4580 JUMP JUMPDEST SWAP4 SWAP3 POP POP POP JUMP JUMPDEST PUSH2 0x5381 DUP2 PUSH2 0x44A0 JUMP JUMPDEST DUP2 EQ PUSH2 0x538B JUMPI PUSH0 DUP1 REVERT JUMPDEST POP JUMP JUMPDEST PUSH0 DUP2 MLOAD SWAP1 POP PUSH2 0x539C DUP2 PUSH2 0x5378 JUMP JUMPDEST SWAP3 SWAP2 POP POP JUMP JUMPDEST PUSH0 PUSH1 0x20 DUP3 DUP5 SUB SLT ISZERO PUSH2 0x53B7 JUMPI PUSH2 0x53B6 PUSH2 0x4297 JUMP JUMPDEST JUMPDEST PUSH0 PUSH2 0x53C4 DUP5 DUP3 DUP6 ADD PUSH2 0x538E JUMP JUMPDEST SWAP2 POP POP SWAP3 SWAP2 POP POP JUMP JUMPDEST PUSH32 0x496E76616C696420506F6F6C20546F6B656E7300000000000000000000000000 PUSH0 DUP3 ADD MSTORE POP JUMP JUMPDEST PUSH0 PUSH2 0x5401 PUSH1 0x13 DUP4 PUSH2 0x4AD9 JUMP JUMPDEST SWAP2 POP PUSH2 0x540C DUP3 PUSH2 0x53CD JUMP JUMPDEST PUSH1 0x20 DUP3 ADD SWAP1 POP SWAP2 SWAP1 POP JUMP JUMPDEST PUSH0 PUSH1 0x20 DUP3 ADD SWAP1 POP DUP2 DUP2 SUB PUSH0 DUP4 ADD MSTORE PUSH2 0x542E DUP2 PUSH2 0x53F5 JUMP JUMPDEST SWAP1 POP SWAP2 SWAP1 POP JUMP JUMPDEST PUSH32 0x5061697220646F6573206E6F74206578697374732C20436F6E74616374206164 PUSH0 DUP3 ADD MSTORE PUSH32 0x6D696E0000000000000000000000000000000000000000000000000000000000 PUSH1 0x20 DUP3 ADD MSTORE POP JUMP JUMPDEST PUSH0 PUSH2 0x548F PUSH1 0x23 DUP4 PUSH2 0x4AD9 JUMP JUMPDEST SWAP2 POP PUSH2 0x549A DUP3 PUSH2 0x5435 JUMP JUMPDEST PUSH1 0x40 DUP3 ADD SWAP1 POP SWAP2 SWAP1 POP JUMP JUMPDEST PUSH0 PUSH1 0x20 DUP3 ADD SWAP1 POP DUP2 DUP2 SUB PUSH0 DUP4 ADD MSTORE PUSH2 0x54BC DUP2 PUSH2 0x5483 JUMP JUMPDEST SWAP1 POP SWAP2 SWAP1 POP JUMP INVALID LOG2 PUSH5 0x6970667358 0x22 SLT KECCAK256 0xD5 0xD3 0x28 0x49 PREVRANDAO TIMESTAMP CODECOPY PUSH30 0x9CB0990A9AD7825314B92CE39B9DC44BD312902C998128E764736F6C6343 STOP ADDMOD ISZERO STOP CALLER LOG2 PUSH5 0x6970667358 0x22 SLT KECCAK256 0x23 0xFC 0xD2 SWAP1 GASLIMIT ORIGIN NUMBER 0xE4 DUP8 PUSH21 0x37BA83D90C5DD9F0777A536EADB798BE663527163F PUSH0 PUSH5 0x736F6C6343 STOP ADDMOD ISZERO STOP CALLER "
		},
		"gasEstimates": {
			"creation": {
				"codeDepositCost": "7829400",
				"executionCost": "10319",
				"totalCost": "7839719"
			},
			"external": {
				"beforeEach()": "infinite",
				"checkBalance()": "infinite",
				"checkSenderAndValue()": "infinite",
				"checkSuccess()": "infinite",
				"checkSuccess2()": "338",
				"inWi()": "infinite"
			}
		},
		"methodIdentifiers": {
			"beforeEach()": "6331e7d4",
			"checkBalance()": "c71daccb",
			"checkSenderAndValue()": "9074416d",
			"checkSuccess()": "011e6492",
			"checkSuccess2()": "12d487ea",
			"inWi()": "faa5149d"
		}
	},
	"abi": [
		{
			"inputs": [],
			"name": "beforeEach",
			"outputs": [],
			"stateMutability": "nonpayable",
			"type": "function"
		},
		{
			"inputs": [],
			"name": "checkBalance",
			"outputs": [],
			"stateMutability": "nonpayable",
			"type": "function"
		},
		{
			"inputs": [],
			"name": "checkSenderAndValue",
			"outputs": [],
			"stateMutability": "payable",
			"type": "function"
		},
		{
			"inputs": [],
			"name": "checkSuccess",
			"outputs": [],
			"stateMutability": "nonpayable",
			"type": "function"
		},
		{
			"inputs": [],
			"name": "checkSuccess2",
			"outputs": [
				{
					"internalType": "bool",
					"name": "",
					"type": "bool"
				}
			],
			"stateMutability": "pure",
			"type": "function"
		},
		{
			"inputs": [],
			"name": "inWi",
			"outputs": [],
			"stateMutability": "nonpayable",
			"type": "function"
		}
	]
}